{
	"data": {
		"bytecode": {
			"linkReferences": {},
			"object": "6080604052348015600e575f80fd5b506112448061001c5f395ff3fe608060405234801561000f575f80fd5b5060043610610086575f3560e01c8063a41e7d5111610059578063a41e7d5114610122578063aabbb8ca1461013e578063b70567651461016e578063f712f3e81461019e57610086565b806329965a1d1461008a5780633d584063146100a65780635df8122f146100d657806365ba36c1146100f2575b5f80fd5b6100a4600480360381019061009f9190610cf5565b6101ce565b005b6100c060048036038101906100bb9190610d45565b610502565b6040516100cd9190610d7f565b60405180910390f35b6100f060048036038101906100eb9190610d98565b6105ff565b005b61010c60048036038101906101079190610e37565b610788565b6040516101199190610e91565b60405180910390f35b61013c60048036038101906101379190610eff565b6107ba565b005b61015860048036038101906101539190610f3d565b61091d565b6040516101659190610d7f565b60405180910390f35b61018860048036038101906101839190610eff565b610a02565b6040516101959190610f95565b60405180910390f35b6101b860048036038101906101b39190610eff565b610aae565b6040516101c59190610f95565b60405180910390f35b5f8073ffffffffffffffffffffffffffffffffffffffff168473ffffffffffffffffffffffffffffffffffffffff1614610208578361020a565b335b90503373ffffffffffffffffffffffffffffffffffffffff1661022c82610502565b73ffffffffffffffffffffffffffffffffffffffff1614610282576040517f08c379a000000000000000000000000000000000000000000000000000000000815260040161027990611008565b60405180910390fd5b61028b83610c1c565b156102cb576040517f08c379a00000000000000000000000000000000000000000000000000000000081526004016102c290611070565b60405180910390fd5b5f73ffffffffffffffffffffffffffffffffffffffff168273ffffffffffffffffffffffffffffffffffffffff161415801561033357503373ffffffffffffffffffffffffffffffffffffffff168273ffffffffffffffffffffffffffffffffffffffff1614155b1561041857604051602001610347906110e2565b604051602081830303815290604052805190602001208273ffffffffffffffffffffffffffffffffffffffff1663249cb3fa85846040518363ffffffff1660e01b81526004016103989291906110f6565b602060405180830381865afa1580156103b3573d5f803e3d5ffd5b505050506040513d601f19601f820116820180604052508101906103d79190611131565b14610417576040517f08c379a000000000000000000000000000000000000000000000000000000000815260040161040e906111a6565b60405180910390fd5b5b815f808373ffffffffffffffffffffffffffffffffffffffff1673ffffffffffffffffffffffffffffffffffffffff1681526020019081526020015f205f8581526020019081526020015f205f6101000a81548173ffffffffffffffffffffffffffffffffffffffff021916908373ffffffffffffffffffffffffffffffffffffffff1602179055508173ffffffffffffffffffffffffffffffffffffffff16838273ffffffffffffffffffffffffffffffffffffffff167f93baa6efbd2244243bfee6ce4cfdd1d04fc4c0e9a786abd3a41313bd352db15360405160405180910390a450505050565b5f8073ffffffffffffffffffffffffffffffffffffffff1660015f8473ffffffffffffffffffffffffffffffffffffffff1673ffffffffffffffffffffffffffffffffffffffff1681526020019081526020015f205f9054906101000a900473ffffffffffffffffffffffffffffffffffffffff1673ffffffffffffffffffffffffffffffffffffffff160361059a578190506105fa565b60015f8373ffffffffffffffffffffffffffffffffffffffff1673ffffffffffffffffffffffffffffffffffffffff1681526020019081526020015f205f9054906101000a900473ffffffffffffffffffffffffffffffffffffffff1690505b919050565b3373ffffffffffffffffffffffffffffffffffffffff1661061f83610502565b73ffffffffffffffffffffffffffffffffffffffff1614610675576040517f08c379a000000000000000000000000000000000000000000000000000000000815260040161066c90611008565b60405180910390fd5b8173ffffffffffffffffffffffffffffffffffffffff168173ffffffffffffffffffffffffffffffffffffffff16146106ae57806106b0565b5f5b60015f8473ffffffffffffffffffffffffffffffffffffffff1673ffffffffffffffffffffffffffffffffffffffff1681526020019081526020015f205f6101000a81548173ffffffffffffffffffffffffffffffffffffffff021916908373ffffffffffffffffffffffffffffffffffffffff1602179055508073ffffffffffffffffffffffffffffffffffffffff168273ffffffffffffffffffffffffffffffffffffffff167f605c2dbf762e5f7d60a546d42e7205dcb1b011ebc62a61736a57c9089d3a435060405160405180910390a35050565b5f828260405160200161079c9291906111f6565b60405160208183030381529060405280519060200120905092915050565b6107c48282610a02565b6107ce575f6107d0565b815b5f808473ffffffffffffffffffffffffffffffffffffffff1673ffffffffffffffffffffffffffffffffffffffff1681526020019081526020015f205f837bffffffffffffffffffffffffffffffffffffffffffffffffffffffff191681526020019081526020015f205f6101000a81548173ffffffffffffffffffffffffffffffffffffffff021916908373ffffffffffffffffffffffffffffffffffffffff160217905550600160025f8473ffffffffffffffffffffffffffffffffffffffff1673ffffffffffffffffffffffffffffffffffffffff1681526020019081526020015f205f837bffffffffffffffffffffffffffffffffffffffffffffffffffffffff19167bffffffffffffffffffffffffffffffffffffffffffffffffffffffff191681526020019081526020015f205f6101000a81548160ff0219169083151502179055505050565b5f805f73ffffffffffffffffffffffffffffffffffffffff168473ffffffffffffffffffffffffffffffffffffffff1614610958578361095a565b335b905061096583610c1c565b1561098d575f8390506109788282610aae565b610982575f610984565b815b925050506109fc565b5f808273ffffffffffffffffffffffffffffffffffffffff1673ffffffffffffffffffffffffffffffffffffffff1681526020019081526020015f205f8481526020019081526020015f205f9054906101000a900473ffffffffffffffffffffffffffffffffffffffff169150505b92915050565b5f805f610a16856301ffc9a760e01b610c2d565b80925081935050505f821480610a2b57505f81145b15610a3a575f92505050610aa8565b610a4b8563ffffffff60e01b610c2d565b80925081935050505f821480610a6157505f8114155b15610a70575f92505050610aa8565b610a7a8585610c2d565b8092508193505050600182148015610a925750600181145b15610aa257600192505050610aa8565b5f925050505b92915050565b5f60025f8473ffffffffffffffffffffffffffffffffffffffff1673ffffffffffffffffffffffffffffffffffffffff1681526020019081526020015f205f837bffffffffffffffffffffffffffffffffffffffffffffffffffffffff19167bffffffffffffffffffffffffffffffffffffffffffffffffffffffff191681526020019081526020015f205f9054906101000a900460ff16610b5b57610b548383610a02565b9050610c16565b8273ffffffffffffffffffffffffffffffffffffffff165f808573ffffffffffffffffffffffffffffffffffffffff1673ffffffffffffffffffffffffffffffffffffffff1681526020019081526020015f205f847bffffffffffffffffffffffffffffffffffffffffffffffffffffffff191681526020019081526020015f205f9054906101000a900473ffffffffffffffffffffffffffffffffffffffff1673ffffffffffffffffffffffffffffffffffffffff161490505b92915050565b5f805f1b602083901c149050919050565b5f805f6301ffc9a760e01b905060405181815284600482015260208160248389617530fa93508051925050509250929050565b5f80fd5b5f80fd5b5f73ffffffffffffffffffffffffffffffffffffffff82169050919050565b5f610c9182610c68565b9050919050565b610ca181610c87565b8114610cab575f80fd5b50565b5f81359050610cbc81610c98565b92915050565b5f819050919050565b610cd481610cc2565b8114610cde575f80fd5b50565b5f81359050610cef81610ccb565b92915050565b5f805f60608486031215610d0c57610d0b610c60565b5b5f610d1986828701610cae565b9350506020610d2a86828701610ce1565b9250506040610d3b86828701610cae565b9150509250925092565b5f60208284031215610d5a57610d59610c60565b5b5f610d6784828501610cae565b91505092915050565b610d7981610c87565b82525050565b5f602082019050610d925f830184610d70565b92915050565b5f8060408385031215610dae57610dad610c60565b5b5f610dbb85828601610cae565b9250506020610dcc85828601610cae565b9150509250929050565b5f80fd5b5f80fd5b5f80fd5b5f8083601f840112610df757610df6610dd6565b5b8235905067ffffffffffffffff811115610e1457610e13610dda565b5b602083019150836001820283011115610e3057610e2f610dde565b5b9250929050565b5f8060208385031215610e4d57610e4c610c60565b5b5f83013567ffffffffffffffff811115610e6a57610e69610c64565b5b610e7685828601610de2565b92509250509250929050565b610e8b81610cc2565b82525050565b5f602082019050610ea45f830184610e82565b92915050565b5f7fffffffff0000000000000000000000000000000000000000000000000000000082169050919050565b610ede81610eaa565b8114610ee8575f80fd5b50565b5f81359050610ef981610ed5565b92915050565b5f8060408385031215610f1557610f14610c60565b5b5f610f2285828601610cae565b9250506020610f3385828601610eeb565b9150509250929050565b5f8060408385031215610f5357610f52610c60565b5b5f610f6085828601610cae565b9250506020610f7185828601610ce1565b9150509250929050565b5f8115159050919050565b610f8f81610f7b565b82525050565b5f602082019050610fa85f830184610f86565b92915050565b5f82825260208201905092915050565b7f4e6f7420746865206d616e6167657200000000000000000000000000000000005f82015250565b5f610ff2600f83610fae565b9150610ffd82610fbe565b602082019050919050565b5f6020820190508181035f83015261101f81610fe6565b9050919050565b7f4d757374206e6f7420626520616e2045524331363520686173680000000000005f82015250565b5f61105a601a83610fae565b915061106582611026565b602082019050919050565b5f6020820190508181035f8301526110878161104e565b9050919050565b5f81905092915050565b7f455243313832305f4143434550545f4d414749430000000000000000000000005f82015250565b5f6110cc60148361108e565b91506110d782611098565b601482019050919050565b5f6110ec826110c0565b9150819050919050565b5f6040820190506111095f830185610e82565b6111166020830184610d70565b9392505050565b5f8151905061112b81610ccb565b92915050565b5f6020828403121561114657611145610c60565b5b5f6111538482850161111d565b91505092915050565b7f446f6573206e6f7420696d706c656d656e742074686520696e746572666163655f82015250565b5f611190602083610fae565b915061119b8261115c565b602082019050919050565b5f6020820190508181035f8301526111bd81611184565b9050919050565b828183375f83830152505050565b5f6111dd838561108e565b93506111ea8385846111c4565b82840190509392505050565b5f6112028284866111d2565b9150819050939250505056fea2646970667358221220b14e0647a57ce4b385255137392aab0a652039a979d377c4c3af18d35ce4762664736f6c634300081a0033",
			"opcodes": "PUSH1 0x80 PUSH1 0x40 MSTORE CALLVALUE DUP1 ISZERO PUSH1 0xE JUMPI PUSH0 DUP1 REVERT JUMPDEST POP PUSH2 0x1244 DUP1 PUSH2 0x1C PUSH0 CODECOPY PUSH0 RETURN INVALID PUSH1 0x80 PUSH1 0x40 MSTORE CALLVALUE DUP1 ISZERO PUSH2 0xF JUMPI PUSH0 DUP1 REVERT JUMPDEST POP PUSH1 0x4 CALLDATASIZE LT PUSH2 0x86 JUMPI PUSH0 CALLDATALOAD PUSH1 0xE0 SHR DUP1 PUSH4 0xA41E7D51 GT PUSH2 0x59 JUMPI DUP1 PUSH4 0xA41E7D51 EQ PUSH2 0x122 JUMPI DUP1 PUSH4 0xAABBB8CA EQ PUSH2 0x13E JUMPI DUP1 PUSH4 0xB7056765 EQ PUSH2 0x16E JUMPI DUP1 PUSH4 0xF712F3E8 EQ PUSH2 0x19E JUMPI PUSH2 0x86 JUMP JUMPDEST DUP1 PUSH4 0x29965A1D EQ PUSH2 0x8A JUMPI DUP1 PUSH4 0x3D584063 EQ PUSH2 0xA6 JUMPI DUP1 PUSH4 0x5DF8122F EQ PUSH2 0xD6 JUMPI DUP1 PUSH4 0x65BA36C1 EQ PUSH2 0xF2 JUMPI JUMPDEST PUSH0 DUP1 REVERT JUMPDEST PUSH2 0xA4 PUSH1 0x4 DUP1 CALLDATASIZE SUB DUP2 ADD SWAP1 PUSH2 0x9F SWAP2 SWAP1 PUSH2 0xCF5 JUMP JUMPDEST PUSH2 0x1CE JUMP JUMPDEST STOP JUMPDEST PUSH2 0xC0 PUSH1 0x4 DUP1 CALLDATASIZE SUB DUP2 ADD SWAP1 PUSH2 0xBB SWAP2 SWAP1 PUSH2 0xD45 JUMP JUMPDEST PUSH2 0x502 JUMP JUMPDEST PUSH1 0x40 MLOAD PUSH2 0xCD SWAP2 SWAP1 PUSH2 0xD7F JUMP JUMPDEST PUSH1 0x40 MLOAD DUP1 SWAP2 SUB SWAP1 RETURN JUMPDEST PUSH2 0xF0 PUSH1 0x4 DUP1 CALLDATASIZE SUB DUP2 ADD SWAP1 PUSH2 0xEB SWAP2 SWAP1 PUSH2 0xD98 JUMP JUMPDEST PUSH2 0x5FF JUMP JUMPDEST STOP JUMPDEST PUSH2 0x10C PUSH1 0x4 DUP1 CALLDATASIZE SUB DUP2 ADD SWAP1 PUSH2 0x107 SWAP2 SWAP1 PUSH2 0xE37 JUMP JUMPDEST PUSH2 0x788 JUMP JUMPDEST PUSH1 0x40 MLOAD PUSH2 0x119 SWAP2 SWAP1 PUSH2 0xE91 JUMP JUMPDEST PUSH1 0x40 MLOAD DUP1 SWAP2 SUB SWAP1 RETURN JUMPDEST PUSH2 0x13C PUSH1 0x4 DUP1 CALLDATASIZE SUB DUP2 ADD SWAP1 PUSH2 0x137 SWAP2 SWAP1 PUSH2 0xEFF JUMP JUMPDEST PUSH2 0x7BA JUMP JUMPDEST STOP JUMPDEST PUSH2 0x158 PUSH1 0x4 DUP1 CALLDATASIZE SUB DUP2 ADD SWAP1 PUSH2 0x153 SWAP2 SWAP1 PUSH2 0xF3D JUMP JUMPDEST PUSH2 0x91D JUMP JUMPDEST PUSH1 0x40 MLOAD PUSH2 0x165 SWAP2 SWAP1 PUSH2 0xD7F JUMP JUMPDEST PUSH1 0x40 MLOAD DUP1 SWAP2 SUB SWAP1 RETURN JUMPDEST PUSH2 0x188 PUSH1 0x4 DUP1 CALLDATASIZE SUB DUP2 ADD SWAP1 PUSH2 0x183 SWAP2 SWAP1 PUSH2 0xEFF JUMP JUMPDEST PUSH2 0xA02 JUMP JUMPDEST PUSH1 0x40 MLOAD PUSH2 0x195 SWAP2 SWAP1 PUSH2 0xF95 JUMP JUMPDEST PUSH1 0x40 MLOAD DUP1 SWAP2 SUB SWAP1 RETURN JUMPDEST PUSH2 0x1B8 PUSH1 0x4 DUP1 CALLDATASIZE SUB DUP2 ADD SWAP1 PUSH2 0x1B3 SWAP2 SWAP1 PUSH2 0xEFF JUMP JUMPDEST PUSH2 0xAAE JUMP JUMPDEST PUSH1 0x40 MLOAD PUSH2 0x1C5 SWAP2 SWAP1 PUSH2 0xF95 JUMP JUMPDEST PUSH1 0x40 MLOAD DUP1 SWAP2 SUB SWAP1 RETURN JUMPDEST PUSH0 DUP1 PUSH20 0xFFFFFFFFFFFFFFFFFFFFFFFFFFFFFFFFFFFFFFFF AND DUP5 PUSH20 0xFFFFFFFFFFFFFFFFFFFFFFFFFFFFFFFFFFFFFFFF AND EQ PUSH2 0x208 JUMPI DUP4 PUSH2 0x20A JUMP JUMPDEST CALLER JUMPDEST SWAP1 POP CALLER PUSH20 0xFFFFFFFFFFFFFFFFFFFFFFFFFFFFFFFFFFFFFFFF AND PUSH2 0x22C DUP3 PUSH2 0x502 JUMP JUMPDEST PUSH20 0xFFFFFFFFFFFFFFFFFFFFFFFFFFFFFFFFFFFFFFFF AND EQ PUSH2 0x282 JUMPI PUSH1 0x40 MLOAD PUSH32 0x8C379A000000000000000000000000000000000000000000000000000000000 DUP2 MSTORE PUSH1 0x4 ADD PUSH2 0x279 SWAP1 PUSH2 0x1008 JUMP JUMPDEST PUSH1 0x40 MLOAD DUP1 SWAP2 SUB SWAP1 REVERT JUMPDEST PUSH2 0x28B DUP4 PUSH2 0xC1C JUMP JUMPDEST ISZERO PUSH2 0x2CB JUMPI PUSH1 0x40 MLOAD PUSH32 0x8C379A000000000000000000000000000000000000000000000000000000000 DUP2 MSTORE PUSH1 0x4 ADD PUSH2 0x2C2 SWAP1 PUSH2 0x1070 JUMP JUMPDEST PUSH1 0x40 MLOAD DUP1 SWAP2 SUB SWAP1 REVERT JUMPDEST PUSH0 PUSH20 0xFFFFFFFFFFFFFFFFFFFFFFFFFFFFFFFFFFFFFFFF AND DUP3 PUSH20 0xFFFFFFFFFFFFFFFFFFFFFFFFFFFFFFFFFFFFFFFF AND EQ ISZERO DUP1 ISZERO PUSH2 0x333 JUMPI POP CALLER PUSH20 0xFFFFFFFFFFFFFFFFFFFFFFFFFFFFFFFFFFFFFFFF AND DUP3 PUSH20 0xFFFFFFFFFFFFFFFFFFFFFFFFFFFFFFFFFFFFFFFF AND EQ ISZERO JUMPDEST ISZERO PUSH2 0x418 JUMPI PUSH1 0x40 MLOAD PUSH1 0x20 ADD PUSH2 0x347 SWAP1 PUSH2 0x10E2 JUMP JUMPDEST PUSH1 0x40 MLOAD PUSH1 0x20 DUP2 DUP4 SUB SUB DUP2 MSTORE SWAP1 PUSH1 0x40 MSTORE DUP1 MLOAD SWAP1 PUSH1 0x20 ADD KECCAK256 DUP3 PUSH20 0xFFFFFFFFFFFFFFFFFFFFFFFFFFFFFFFFFFFFFFFF AND PUSH4 0x249CB3FA DUP6 DUP5 PUSH1 0x40 MLOAD DUP4 PUSH4 0xFFFFFFFF AND PUSH1 0xE0 SHL DUP2 MSTORE PUSH1 0x4 ADD PUSH2 0x398 SWAP3 SWAP2 SWAP1 PUSH2 0x10F6 JUMP JUMPDEST PUSH1 0x20 PUSH1 0x40 MLOAD DUP1 DUP4 SUB DUP2 DUP7 GAS STATICCALL ISZERO DUP1 ISZERO PUSH2 0x3B3 JUMPI RETURNDATASIZE PUSH0 DUP1 RETURNDATACOPY RETURNDATASIZE PUSH0 REVERT JUMPDEST POP POP POP POP PUSH1 0x40 MLOAD RETURNDATASIZE PUSH1 0x1F NOT PUSH1 0x1F DUP3 ADD AND DUP3 ADD DUP1 PUSH1 0x40 MSTORE POP DUP2 ADD SWAP1 PUSH2 0x3D7 SWAP2 SWAP1 PUSH2 0x1131 JUMP JUMPDEST EQ PUSH2 0x417 JUMPI PUSH1 0x40 MLOAD PUSH32 0x8C379A000000000000000000000000000000000000000000000000000000000 DUP2 MSTORE PUSH1 0x4 ADD PUSH2 0x40E SWAP1 PUSH2 0x11A6 JUMP JUMPDEST PUSH1 0x40 MLOAD DUP1 SWAP2 SUB SWAP1 REVERT JUMPDEST JUMPDEST DUP2 PUSH0 DUP1 DUP4 PUSH20 0xFFFFFFFFFFFFFFFFFFFFFFFFFFFFFFFFFFFFFFFF AND PUSH20 0xFFFFFFFFFFFFFFFFFFFFFFFFFFFFFFFFFFFFFFFF AND DUP2 MSTORE PUSH1 0x20 ADD SWAP1 DUP2 MSTORE PUSH1 0x20 ADD PUSH0 KECCAK256 PUSH0 DUP6 DUP2 MSTORE PUSH1 0x20 ADD SWAP1 DUP2 MSTORE PUSH1 0x20 ADD PUSH0 KECCAK256 PUSH0 PUSH2 0x100 EXP DUP2 SLOAD DUP2 PUSH20 0xFFFFFFFFFFFFFFFFFFFFFFFFFFFFFFFFFFFFFFFF MUL NOT AND SWAP1 DUP4 PUSH20 0xFFFFFFFFFFFFFFFFFFFFFFFFFFFFFFFFFFFFFFFF AND MUL OR SWAP1 SSTORE POP DUP2 PUSH20 0xFFFFFFFFFFFFFFFFFFFFFFFFFFFFFFFFFFFFFFFF AND DUP4 DUP3 PUSH20 0xFFFFFFFFFFFFFFFFFFFFFFFFFFFFFFFFFFFFFFFF AND PUSH32 0x93BAA6EFBD2244243BFEE6CE4CFDD1D04FC4C0E9A786ABD3A41313BD352DB153 PUSH1 0x40 MLOAD PUSH1 0x40 MLOAD DUP1 SWAP2 SUB SWAP1 LOG4 POP POP POP POP JUMP JUMPDEST PUSH0 DUP1 PUSH20 0xFFFFFFFFFFFFFFFFFFFFFFFFFFFFFFFFFFFFFFFF AND PUSH1 0x1 PUSH0 DUP5 PUSH20 0xFFFFFFFFFFFFFFFFFFFFFFFFFFFFFFFFFFFFFFFF AND PUSH20 0xFFFFFFFFFFFFFFFFFFFFFFFFFFFFFFFFFFFFFFFF AND DUP2 MSTORE PUSH1 0x20 ADD SWAP1 DUP2 MSTORE PUSH1 0x20 ADD PUSH0 KECCAK256 PUSH0 SWAP1 SLOAD SWAP1 PUSH2 0x100 EXP SWAP1 DIV PUSH20 0xFFFFFFFFFFFFFFFFFFFFFFFFFFFFFFFFFFFFFFFF AND PUSH20 0xFFFFFFFFFFFFFFFFFFFFFFFFFFFFFFFFFFFFFFFF AND SUB PUSH2 0x59A JUMPI DUP2 SWAP1 POP PUSH2 0x5FA JUMP JUMPDEST PUSH1 0x1 PUSH0 DUP4 PUSH20 0xFFFFFFFFFFFFFFFFFFFFFFFFFFFFFFFFFFFFFFFF AND PUSH20 0xFFFFFFFFFFFFFFFFFFFFFFFFFFFFFFFFFFFFFFFF AND DUP2 MSTORE PUSH1 0x20 ADD SWAP1 DUP2 MSTORE PUSH1 0x20 ADD PUSH0 KECCAK256 PUSH0 SWAP1 SLOAD SWAP1 PUSH2 0x100 EXP SWAP1 DIV PUSH20 0xFFFFFFFFFFFFFFFFFFFFFFFFFFFFFFFFFFFFFFFF AND SWAP1 POP JUMPDEST SWAP2 SWAP1 POP JUMP JUMPDEST CALLER PUSH20 0xFFFFFFFFFFFFFFFFFFFFFFFFFFFFFFFFFFFFFFFF AND PUSH2 0x61F DUP4 PUSH2 0x502 JUMP JUMPDEST PUSH20 0xFFFFFFFFFFFFFFFFFFFFFFFFFFFFFFFFFFFFFFFF AND EQ PUSH2 0x675 JUMPI PUSH1 0x40 MLOAD PUSH32 0x8C379A000000000000000000000000000000000000000000000000000000000 DUP2 MSTORE PUSH1 0x4 ADD PUSH2 0x66C SWAP1 PUSH2 0x1008 JUMP JUMPDEST PUSH1 0x40 MLOAD DUP1 SWAP2 SUB SWAP1 REVERT JUMPDEST DUP2 PUSH20 0xFFFFFFFFFFFFFFFFFFFFFFFFFFFFFFFFFFFFFFFF AND DUP2 PUSH20 0xFFFFFFFFFFFFFFFFFFFFFFFFFFFFFFFFFFFFFFFF AND EQ PUSH2 0x6AE JUMPI DUP1 PUSH2 0x6B0 JUMP JUMPDEST PUSH0 JUMPDEST PUSH1 0x1 PUSH0 DUP5 PUSH20 0xFFFFFFFFFFFFFFFFFFFFFFFFFFFFFFFFFFFFFFFF AND PUSH20 0xFFFFFFFFFFFFFFFFFFFFFFFFFFFFFFFFFFFFFFFF AND DUP2 MSTORE PUSH1 0x20 ADD SWAP1 DUP2 MSTORE PUSH1 0x20 ADD PUSH0 KECCAK256 PUSH0 PUSH2 0x100 EXP DUP2 SLOAD DUP2 PUSH20 0xFFFFFFFFFFFFFFFFFFFFFFFFFFFFFFFFFFFFFFFF MUL NOT AND SWAP1 DUP4 PUSH20 0xFFFFFFFFFFFFFFFFFFFFFFFFFFFFFFFFFFFFFFFF AND MUL OR SWAP1 SSTORE POP DUP1 PUSH20 0xFFFFFFFFFFFFFFFFFFFFFFFFFFFFFFFFFFFFFFFF AND DUP3 PUSH20 0xFFFFFFFFFFFFFFFFFFFFFFFFFFFFFFFFFFFFFFFF AND PUSH32 0x605C2DBF762E5F7D60A546D42E7205DCB1B011EBC62A61736A57C9089D3A4350 PUSH1 0x40 MLOAD PUSH1 0x40 MLOAD DUP1 SWAP2 SUB SWAP1 LOG3 POP POP JUMP JUMPDEST PUSH0 DUP3 DUP3 PUSH1 0x40 MLOAD PUSH1 0x20 ADD PUSH2 0x79C SWAP3 SWAP2 SWAP1 PUSH2 0x11F6 JUMP JUMPDEST PUSH1 0x40 MLOAD PUSH1 0x20 DUP2 DUP4 SUB SUB DUP2 MSTORE SWAP1 PUSH1 0x40 MSTORE DUP1 MLOAD SWAP1 PUSH1 0x20 ADD KECCAK256 SWAP1 POP SWAP3 SWAP2 POP POP JUMP JUMPDEST PUSH2 0x7C4 DUP3 DUP3 PUSH2 0xA02 JUMP JUMPDEST PUSH2 0x7CE JUMPI PUSH0 PUSH2 0x7D0 JUMP JUMPDEST DUP2 JUMPDEST PUSH0 DUP1 DUP5 PUSH20 0xFFFFFFFFFFFFFFFFFFFFFFFFFFFFFFFFFFFFFFFF AND PUSH20 0xFFFFFFFFFFFFFFFFFFFFFFFFFFFFFFFFFFFFFFFF AND DUP2 MSTORE PUSH1 0x20 ADD SWAP1 DUP2 MSTORE PUSH1 0x20 ADD PUSH0 KECCAK256 PUSH0 DUP4 PUSH28 0xFFFFFFFFFFFFFFFFFFFFFFFFFFFFFFFFFFFFFFFFFFFFFFFFFFFFFFFF NOT AND DUP2 MSTORE PUSH1 0x20 ADD SWAP1 DUP2 MSTORE PUSH1 0x20 ADD PUSH0 KECCAK256 PUSH0 PUSH2 0x100 EXP DUP2 SLOAD DUP2 PUSH20 0xFFFFFFFFFFFFFFFFFFFFFFFFFFFFFFFFFFFFFFFF MUL NOT AND SWAP1 DUP4 PUSH20 0xFFFFFFFFFFFFFFFFFFFFFFFFFFFFFFFFFFFFFFFF AND MUL OR SWAP1 SSTORE POP PUSH1 0x1 PUSH1 0x2 PUSH0 DUP5 PUSH20 0xFFFFFFFFFFFFFFFFFFFFFFFFFFFFFFFFFFFFFFFF AND PUSH20 0xFFFFFFFFFFFFFFFFFFFFFFFFFFFFFFFFFFFFFFFF AND DUP2 MSTORE PUSH1 0x20 ADD SWAP1 DUP2 MSTORE PUSH1 0x20 ADD PUSH0 KECCAK256 PUSH0 DUP4 PUSH28 0xFFFFFFFFFFFFFFFFFFFFFFFFFFFFFFFFFFFFFFFFFFFFFFFFFFFFFFFF NOT AND PUSH28 0xFFFFFFFFFFFFFFFFFFFFFFFFFFFFFFFFFFFFFFFFFFFFFFFFFFFFFFFF NOT AND DUP2 MSTORE PUSH1 0x20 ADD SWAP1 DUP2 MSTORE PUSH1 0x20 ADD PUSH0 KECCAK256 PUSH0 PUSH2 0x100 EXP DUP2 SLOAD DUP2 PUSH1 0xFF MUL NOT AND SWAP1 DUP4 ISZERO ISZERO MUL OR SWAP1 SSTORE POP POP POP JUMP JUMPDEST PUSH0 DUP1 PUSH0 PUSH20 0xFFFFFFFFFFFFFFFFFFFFFFFFFFFFFFFFFFFFFFFF AND DUP5 PUSH20 0xFFFFFFFFFFFFFFFFFFFFFFFFFFFFFFFFFFFFFFFF AND EQ PUSH2 0x958 JUMPI DUP4 PUSH2 0x95A JUMP JUMPDEST CALLER JUMPDEST SWAP1 POP PUSH2 0x965 DUP4 PUSH2 0xC1C JUMP JUMPDEST ISZERO PUSH2 0x98D JUMPI PUSH0 DUP4 SWAP1 POP PUSH2 0x978 DUP3 DUP3 PUSH2 0xAAE JUMP JUMPDEST PUSH2 0x982 JUMPI PUSH0 PUSH2 0x984 JUMP JUMPDEST DUP2 JUMPDEST SWAP3 POP POP POP PUSH2 0x9FC JUMP JUMPDEST PUSH0 DUP1 DUP3 PUSH20 0xFFFFFFFFFFFFFFFFFFFFFFFFFFFFFFFFFFFFFFFF AND PUSH20 0xFFFFFFFFFFFFFFFFFFFFFFFFFFFFFFFFFFFFFFFF AND DUP2 MSTORE PUSH1 0x20 ADD SWAP1 DUP2 MSTORE PUSH1 0x20 ADD PUSH0 KECCAK256 PUSH0 DUP5 DUP2 MSTORE PUSH1 0x20 ADD SWAP1 DUP2 MSTORE PUSH1 0x20 ADD PUSH0 KECCAK256 PUSH0 SWAP1 SLOAD SWAP1 PUSH2 0x100 EXP SWAP1 DIV PUSH20 0xFFFFFFFFFFFFFFFFFFFFFFFFFFFFFFFFFFFFFFFF AND SWAP2 POP POP JUMPDEST SWAP3 SWAP2 POP POP JUMP JUMPDEST PUSH0 DUP1 PUSH0 PUSH2 0xA16 DUP6 PUSH4 0x1FFC9A7 PUSH1 0xE0 SHL PUSH2 0xC2D JUMP JUMPDEST DUP1 SWAP3 POP DUP2 SWAP4 POP POP POP PUSH0 DUP3 EQ DUP1 PUSH2 0xA2B JUMPI POP PUSH0 DUP2 EQ JUMPDEST ISZERO PUSH2 0xA3A JUMPI PUSH0 SWAP3 POP POP POP PUSH2 0xAA8 JUMP JUMPDEST PUSH2 0xA4B DUP6 PUSH4 0xFFFFFFFF PUSH1 0xE0 SHL PUSH2 0xC2D JUMP JUMPDEST DUP1 SWAP3 POP DUP2 SWAP4 POP POP POP PUSH0 DUP3 EQ DUP1 PUSH2 0xA61 JUMPI POP PUSH0 DUP2 EQ ISZERO JUMPDEST ISZERO PUSH2 0xA70 JUMPI PUSH0 SWAP3 POP POP POP PUSH2 0xAA8 JUMP JUMPDEST PUSH2 0xA7A DUP6 DUP6 PUSH2 0xC2D JUMP JUMPDEST DUP1 SWAP3 POP DUP2 SWAP4 POP POP POP PUSH1 0x1 DUP3 EQ DUP1 ISZERO PUSH2 0xA92 JUMPI POP PUSH1 0x1 DUP2 EQ JUMPDEST ISZERO PUSH2 0xAA2 JUMPI PUSH1 0x1 SWAP3 POP POP POP PUSH2 0xAA8 JUMP JUMPDEST PUSH0 SWAP3 POP POP POP JUMPDEST SWAP3 SWAP2 POP POP JUMP JUMPDEST PUSH0 PUSH1 0x2 PUSH0 DUP5 PUSH20 0xFFFFFFFFFFFFFFFFFFFFFFFFFFFFFFFFFFFFFFFF AND PUSH20 0xFFFFFFFFFFFFFFFFFFFFFFFFFFFFFFFFFFFFFFFF AND DUP2 MSTORE PUSH1 0x20 ADD SWAP1 DUP2 MSTORE PUSH1 0x20 ADD PUSH0 KECCAK256 PUSH0 DUP4 PUSH28 0xFFFFFFFFFFFFFFFFFFFFFFFFFFFFFFFFFFFFFFFFFFFFFFFFFFFFFFFF NOT AND PUSH28 0xFFFFFFFFFFFFFFFFFFFFFFFFFFFFFFFFFFFFFFFFFFFFFFFFFFFFFFFF NOT AND DUP2 MSTORE PUSH1 0x20 ADD SWAP1 DUP2 MSTORE PUSH1 0x20 ADD PUSH0 KECCAK256 PUSH0 SWAP1 SLOAD SWAP1 PUSH2 0x100 EXP SWAP1 DIV PUSH1 0xFF AND PUSH2 0xB5B JUMPI PUSH2 0xB54 DUP4 DUP4 PUSH2 0xA02 JUMP JUMPDEST SWAP1 POP PUSH2 0xC16 JUMP JUMPDEST DUP3 PUSH20 0xFFFFFFFFFFFFFFFFFFFFFFFFFFFFFFFFFFFFFFFF AND PUSH0 DUP1 DUP6 PUSH20 0xFFFFFFFFFFFFFFFFFFFFFFFFFFFFFFFFFFFFFFFF AND PUSH20 0xFFFFFFFFFFFFFFFFFFFFFFFFFFFFFFFFFFFFFFFF AND DUP2 MSTORE PUSH1 0x20 ADD SWAP1 DUP2 MSTORE PUSH1 0x20 ADD PUSH0 KECCAK256 PUSH0 DUP5 PUSH28 0xFFFFFFFFFFFFFFFFFFFFFFFFFFFFFFFFFFFFFFFFFFFFFFFFFFFFFFFF NOT AND DUP2 MSTORE PUSH1 0x20 ADD SWAP1 DUP2 MSTORE PUSH1 0x20 ADD PUSH0 KECCAK256 PUSH0 SWAP1 SLOAD SWAP1 PUSH2 0x100 EXP SWAP1 DIV PUSH20 0xFFFFFFFFFFFFFFFFFFFFFFFFFFFFFFFFFFFFFFFF AND PUSH20 0xFFFFFFFFFFFFFFFFFFFFFFFFFFFFFFFFFFFFFFFF AND EQ SWAP1 POP JUMPDEST SWAP3 SWAP2 POP POP JUMP JUMPDEST PUSH0 DUP1 PUSH0 SHL PUSH1 0x20 DUP4 SWAP1 SHR EQ SWAP1 POP SWAP2 SWAP1 POP JUMP JUMPDEST PUSH0 DUP1 PUSH0 PUSH4 0x1FFC9A7 PUSH1 0xE0 SHL SWAP1 POP PUSH1 0x40 MLOAD DUP2 DUP2 MSTORE DUP5 PUSH1 0x4 DUP3 ADD MSTORE PUSH1 0x20 DUP2 PUSH1 0x24 DUP4 DUP10 PUSH2 0x7530 STATICCALL SWAP4 POP DUP1 MLOAD SWAP3 POP POP POP SWAP3 POP SWAP3 SWAP1 POP JUMP JUMPDEST PUSH0 DUP1 REVERT JUMPDEST PUSH0 DUP1 REVERT JUMPDEST PUSH0 PUSH20 0xFFFFFFFFFFFFFFFFFFFFFFFFFFFFFFFFFFFFFFFF DUP3 AND SWAP1 POP SWAP2 SWAP1 POP JUMP JUMPDEST PUSH0 PUSH2 0xC91 DUP3 PUSH2 0xC68 JUMP JUMPDEST SWAP1 POP SWAP2 SWAP1 POP JUMP JUMPDEST PUSH2 0xCA1 DUP2 PUSH2 0xC87 JUMP JUMPDEST DUP2 EQ PUSH2 0xCAB JUMPI PUSH0 DUP1 REVERT JUMPDEST POP JUMP JUMPDEST PUSH0 DUP2 CALLDATALOAD SWAP1 POP PUSH2 0xCBC DUP2 PUSH2 0xC98 JUMP JUMPDEST SWAP3 SWAP2 POP POP JUMP JUMPDEST PUSH0 DUP2 SWAP1 POP SWAP2 SWAP1 POP JUMP JUMPDEST PUSH2 0xCD4 DUP2 PUSH2 0xCC2 JUMP JUMPDEST DUP2 EQ PUSH2 0xCDE JUMPI PUSH0 DUP1 REVERT JUMPDEST POP JUMP JUMPDEST PUSH0 DUP2 CALLDATALOAD SWAP1 POP PUSH2 0xCEF DUP2 PUSH2 0xCCB JUMP JUMPDEST SWAP3 SWAP2 POP POP JUMP JUMPDEST PUSH0 DUP1 PUSH0 PUSH1 0x60 DUP5 DUP7 SUB SLT ISZERO PUSH2 0xD0C JUMPI PUSH2 0xD0B PUSH2 0xC60 JUMP JUMPDEST JUMPDEST PUSH0 PUSH2 0xD19 DUP7 DUP3 DUP8 ADD PUSH2 0xCAE JUMP JUMPDEST SWAP4 POP POP PUSH1 0x20 PUSH2 0xD2A DUP7 DUP3 DUP8 ADD PUSH2 0xCE1 JUMP JUMPDEST SWAP3 POP POP PUSH1 0x40 PUSH2 0xD3B DUP7 DUP3 DUP8 ADD PUSH2 0xCAE JUMP JUMPDEST SWAP2 POP POP SWAP3 POP SWAP3 POP SWAP3 JUMP JUMPDEST PUSH0 PUSH1 0x20 DUP3 DUP5 SUB SLT ISZERO PUSH2 0xD5A JUMPI PUSH2 0xD59 PUSH2 0xC60 JUMP JUMPDEST JUMPDEST PUSH0 PUSH2 0xD67 DUP5 DUP3 DUP6 ADD PUSH2 0xCAE JUMP JUMPDEST SWAP2 POP POP SWAP3 SWAP2 POP POP JUMP JUMPDEST PUSH2 0xD79 DUP2 PUSH2 0xC87 JUMP JUMPDEST DUP3 MSTORE POP POP JUMP JUMPDEST PUSH0 PUSH1 0x20 DUP3 ADD SWAP1 POP PUSH2 0xD92 PUSH0 DUP4 ADD DUP5 PUSH2 0xD70 JUMP JUMPDEST SWAP3 SWAP2 POP POP JUMP JUMPDEST PUSH0 DUP1 PUSH1 0x40 DUP4 DUP6 SUB SLT ISZERO PUSH2 0xDAE JUMPI PUSH2 0xDAD PUSH2 0xC60 JUMP JUMPDEST JUMPDEST PUSH0 PUSH2 0xDBB DUP6 DUP3 DUP7 ADD PUSH2 0xCAE JUMP JUMPDEST SWAP3 POP POP PUSH1 0x20 PUSH2 0xDCC DUP6 DUP3 DUP7 ADD PUSH2 0xCAE JUMP JUMPDEST SWAP2 POP POP SWAP3 POP SWAP3 SWAP1 POP JUMP JUMPDEST PUSH0 DUP1 REVERT JUMPDEST PUSH0 DUP1 REVERT JUMPDEST PUSH0 DUP1 REVERT JUMPDEST PUSH0 DUP1 DUP4 PUSH1 0x1F DUP5 ADD SLT PUSH2 0xDF7 JUMPI PUSH2 0xDF6 PUSH2 0xDD6 JUMP JUMPDEST JUMPDEST DUP3 CALLDATALOAD SWAP1 POP PUSH8 0xFFFFFFFFFFFFFFFF DUP2 GT ISZERO PUSH2 0xE14 JUMPI PUSH2 0xE13 PUSH2 0xDDA JUMP JUMPDEST JUMPDEST PUSH1 0x20 DUP4 ADD SWAP2 POP DUP4 PUSH1 0x1 DUP3 MUL DUP4 ADD GT ISZERO PUSH2 0xE30 JUMPI PUSH2 0xE2F PUSH2 0xDDE JUMP JUMPDEST JUMPDEST SWAP3 POP SWAP3 SWAP1 POP JUMP JUMPDEST PUSH0 DUP1 PUSH1 0x20 DUP4 DUP6 SUB SLT ISZERO PUSH2 0xE4D JUMPI PUSH2 0xE4C PUSH2 0xC60 JUMP JUMPDEST JUMPDEST PUSH0 DUP4 ADD CALLDATALOAD PUSH8 0xFFFFFFFFFFFFFFFF DUP2 GT ISZERO PUSH2 0xE6A JUMPI PUSH2 0xE69 PUSH2 0xC64 JUMP JUMPDEST JUMPDEST PUSH2 0xE76 DUP6 DUP3 DUP7 ADD PUSH2 0xDE2 JUMP JUMPDEST SWAP3 POP SWAP3 POP POP SWAP3 POP SWAP3 SWAP1 POP JUMP JUMPDEST PUSH2 0xE8B DUP2 PUSH2 0xCC2 JUMP JUMPDEST DUP3 MSTORE POP POP JUMP JUMPDEST PUSH0 PUSH1 0x20 DUP3 ADD SWAP1 POP PUSH2 0xEA4 PUSH0 DUP4 ADD DUP5 PUSH2 0xE82 JUMP JUMPDEST SWAP3 SWAP2 POP POP JUMP JUMPDEST PUSH0 PUSH32 0xFFFFFFFF00000000000000000000000000000000000000000000000000000000 DUP3 AND SWAP1 POP SWAP2 SWAP1 POP JUMP JUMPDEST PUSH2 0xEDE DUP2 PUSH2 0xEAA JUMP JUMPDEST DUP2 EQ PUSH2 0xEE8 JUMPI PUSH0 DUP1 REVERT JUMPDEST POP JUMP JUMPDEST PUSH0 DUP2 CALLDATALOAD SWAP1 POP PUSH2 0xEF9 DUP2 PUSH2 0xED5 JUMP JUMPDEST SWAP3 SWAP2 POP POP JUMP JUMPDEST PUSH0 DUP1 PUSH1 0x40 DUP4 DUP6 SUB SLT ISZERO PUSH2 0xF15 JUMPI PUSH2 0xF14 PUSH2 0xC60 JUMP JUMPDEST JUMPDEST PUSH0 PUSH2 0xF22 DUP6 DUP3 DUP7 ADD PUSH2 0xCAE JUMP JUMPDEST SWAP3 POP POP PUSH1 0x20 PUSH2 0xF33 DUP6 DUP3 DUP7 ADD PUSH2 0xEEB JUMP JUMPDEST SWAP2 POP POP SWAP3 POP SWAP3 SWAP1 POP JUMP JUMPDEST PUSH0 DUP1 PUSH1 0x40 DUP4 DUP6 SUB SLT ISZERO PUSH2 0xF53 JUMPI PUSH2 0xF52 PUSH2 0xC60 JUMP JUMPDEST JUMPDEST PUSH0 PUSH2 0xF60 DUP6 DUP3 DUP7 ADD PUSH2 0xCAE JUMP JUMPDEST SWAP3 POP POP PUSH1 0x20 PUSH2 0xF71 DUP6 DUP3 DUP7 ADD PUSH2 0xCE1 JUMP JUMPDEST SWAP2 POP POP SWAP3 POP SWAP3 SWAP1 POP JUMP JUMPDEST PUSH0 DUP2 ISZERO ISZERO SWAP1 POP SWAP2 SWAP1 POP JUMP JUMPDEST PUSH2 0xF8F DUP2 PUSH2 0xF7B JUMP JUMPDEST DUP3 MSTORE POP POP JUMP JUMPDEST PUSH0 PUSH1 0x20 DUP3 ADD SWAP1 POP PUSH2 0xFA8 PUSH0 DUP4 ADD DUP5 PUSH2 0xF86 JUMP JUMPDEST SWAP3 SWAP2 POP POP JUMP JUMPDEST PUSH0 DUP3 DUP3 MSTORE PUSH1 0x20 DUP3 ADD SWAP1 POP SWAP3 SWAP2 POP POP JUMP JUMPDEST PUSH32 0x4E6F7420746865206D616E616765720000000000000000000000000000000000 PUSH0 DUP3 ADD MSTORE POP JUMP JUMPDEST PUSH0 PUSH2 0xFF2 PUSH1 0xF DUP4 PUSH2 0xFAE JUMP JUMPDEST SWAP2 POP PUSH2 0xFFD DUP3 PUSH2 0xFBE JUMP JUMPDEST PUSH1 0x20 DUP3 ADD SWAP1 POP SWAP2 SWAP1 POP JUMP JUMPDEST PUSH0 PUSH1 0x20 DUP3 ADD SWAP1 POP DUP2 DUP2 SUB PUSH0 DUP4 ADD MSTORE PUSH2 0x101F DUP2 PUSH2 0xFE6 JUMP JUMPDEST SWAP1 POP SWAP2 SWAP1 POP JUMP JUMPDEST PUSH32 0x4D757374206E6F7420626520616E204552433136352068617368000000000000 PUSH0 DUP3 ADD MSTORE POP JUMP JUMPDEST PUSH0 PUSH2 0x105A PUSH1 0x1A DUP4 PUSH2 0xFAE JUMP JUMPDEST SWAP2 POP PUSH2 0x1065 DUP3 PUSH2 0x1026 JUMP JUMPDEST PUSH1 0x20 DUP3 ADD SWAP1 POP SWAP2 SWAP1 POP JUMP JUMPDEST PUSH0 PUSH1 0x20 DUP3 ADD SWAP1 POP DUP2 DUP2 SUB PUSH0 DUP4 ADD MSTORE PUSH2 0x1087 DUP2 PUSH2 0x104E JUMP JUMPDEST SWAP1 POP SWAP2 SWAP1 POP JUMP JUMPDEST PUSH0 DUP2 SWAP1 POP SWAP3 SWAP2 POP POP JUMP JUMPDEST PUSH32 0x455243313832305F4143434550545F4D41474943000000000000000000000000 PUSH0 DUP3 ADD MSTORE POP JUMP JUMPDEST PUSH0 PUSH2 0x10CC PUSH1 0x14 DUP4 PUSH2 0x108E JUMP JUMPDEST SWAP2 POP PUSH2 0x10D7 DUP3 PUSH2 0x1098 JUMP JUMPDEST PUSH1 0x14 DUP3 ADD SWAP1 POP SWAP2 SWAP1 POP JUMP JUMPDEST PUSH0 PUSH2 0x10EC DUP3 PUSH2 0x10C0 JUMP JUMPDEST SWAP2 POP DUP2 SWAP1 POP SWAP2 SWAP1 POP JUMP JUMPDEST PUSH0 PUSH1 0x40 DUP3 ADD SWAP1 POP PUSH2 0x1109 PUSH0 DUP4 ADD DUP6 PUSH2 0xE82 JUMP JUMPDEST PUSH2 0x1116 PUSH1 0x20 DUP4 ADD DUP5 PUSH2 0xD70 JUMP JUMPDEST SWAP4 SWAP3 POP POP POP JUMP JUMPDEST PUSH0 DUP2 MLOAD SWAP1 POP PUSH2 0x112B DUP2 PUSH2 0xCCB JUMP JUMPDEST SWAP3 SWAP2 POP POP JUMP JUMPDEST PUSH0 PUSH1 0x20 DUP3 DUP5 SUB SLT ISZERO PUSH2 0x1146 JUMPI PUSH2 0x1145 PUSH2 0xC60 JUMP JUMPDEST JUMPDEST PUSH0 PUSH2 0x1153 DUP5 DUP3 DUP6 ADD PUSH2 0x111D JUMP JUMPDEST SWAP2 POP POP SWAP3 SWAP2 POP POP JUMP JUMPDEST PUSH32 0x446F6573206E6F7420696D706C656D656E742074686520696E74657266616365 PUSH0 DUP3 ADD MSTORE POP JUMP JUMPDEST PUSH0 PUSH2 0x1190 PUSH1 0x20 DUP4 PUSH2 0xFAE JUMP JUMPDEST SWAP2 POP PUSH2 0x119B DUP3 PUSH2 0x115C JUMP JUMPDEST PUSH1 0x20 DUP3 ADD SWAP1 POP SWAP2 SWAP1 POP JUMP JUMPDEST PUSH0 PUSH1 0x20 DUP3 ADD SWAP1 POP DUP2 DUP2 SUB PUSH0 DUP4 ADD MSTORE PUSH2 0x11BD DUP2 PUSH2 0x1184 JUMP JUMPDEST SWAP1 POP SWAP2 SWAP1 POP JUMP JUMPDEST DUP3 DUP2 DUP4 CALLDATACOPY PUSH0 DUP4 DUP4 ADD MSTORE POP POP POP JUMP JUMPDEST PUSH0 PUSH2 0x11DD DUP4 DUP6 PUSH2 0x108E JUMP JUMPDEST SWAP4 POP PUSH2 0x11EA DUP4 DUP6 DUP5 PUSH2 0x11C4 JUMP JUMPDEST DUP3 DUP5 ADD SWAP1 POP SWAP4 SWAP3 POP POP POP JUMP JUMPDEST PUSH0 PUSH2 0x1202 DUP3 DUP5 DUP7 PUSH2 0x11D2 JUMP JUMPDEST SWAP2 POP DUP2 SWAP1 POP SWAP4 SWAP3 POP POP POP JUMP INVALID LOG2 PUSH5 0x6970667358 0x22 SLT KECCAK256 0xB1 0x4E MOD SELFBALANCE 0xA5 PUSH29 0xE4B385255137392AAB0A652039A979D377C4C3AF18D35CE4762664736F PUSH13 0x634300081A0033000000000000 "
		},
		"gasEstimates": {
			"creation": {
				"codeDepositCost": "935200",
				"executionCost": "973",
				"totalCost": "936173"
			},
			"external": {
				"getInterfaceImplementer(address,bytes32)": "infinite",
				"getManager(address)": "infinite",
				"implementsERC165Interface(address,bytes4)": "infinite",
				"implementsERC165InterfaceNoCache(address,bytes4)": "infinite",
				"interfaceHash(string)": "infinite",
				"setInterfaceImplementer(address,bytes32,address)": "infinite",
				"setManager(address,address)": "infinite",
				"updateERC165Cache(address,bytes4)": "infinite"
			},
			"internal": {
				"isERC165Interface(bytes32)": "47",
				"noThrowCall(address,bytes4)": "infinite"
			}
		},
		"methodIdentifiers": {
			"getInterfaceImplementer(address,bytes32)": "aabbb8ca",
			"getManager(address)": "3d584063",
			"implementsERC165Interface(address,bytes4)": "f712f3e8",
			"implementsERC165InterfaceNoCache(address,bytes4)": "b7056765",
			"interfaceHash(string)": "65ba36c1",
			"setInterfaceImplementer(address,bytes32,address)": "29965a1d",
			"setManager(address,address)": "5df8122f",
			"updateERC165Cache(address,bytes4)": "a41e7d51"
		}
	},
	"abi": [
		{
			"anonymous": false,
			"inputs": [
				{
					"indexed": true,
					"internalType": "address",
					"name": "addr",
					"type": "address"
				},
				{
					"indexed": true,
					"internalType": "bytes32",
					"name": "interfaceHash",
					"type": "bytes32"
				},
				{
					"indexed": true,
					"internalType": "address",
					"name": "implementer",
					"type": "address"
				}
			],
			"name": "InterfaceImplementerSet",
			"type": "event"
		},
		{
			"anonymous": false,
			"inputs": [
				{
					"indexed": true,
					"internalType": "address",
					"name": "addr",
					"type": "address"
				},
				{
					"indexed": true,
					"internalType": "address",
					"name": "newManager",
					"type": "address"
				}
			],
			"name": "ManagerChanged",
			"type": "event"
		},
		{
			"inputs": [
				{
					"internalType": "address",
					"name": "_addr",
					"type": "address"
				},
				{
					"internalType": "bytes32",
					"name": "_interfaceHash",
					"type": "bytes32"
				}
			],
			"name": "getInterfaceImplementer",
			"outputs": [
				{
					"internalType": "address",
					"name": "",
					"type": "address"
				}
			],
			"stateMutability": "view",
			"type": "function"
		},
		{
			"inputs": [
				{
					"internalType": "address",
					"name": "_addr",
					"type": "address"
				}
			],
			"name": "getManager",
			"outputs": [
				{
					"internalType": "address",
					"name": "",
					"type": "address"
				}
			],
			"stateMutability": "view",
			"type": "function"
		},
		{
			"inputs": [
				{
					"internalType": "address",
					"name": "_contract",
					"type": "address"
				},
				{
					"internalType": "bytes4",
					"name": "_interfaceId",
					"type": "bytes4"
				}
			],
			"name": "implementsERC165Interface",
			"outputs": [
				{
					"internalType": "bool",
					"name": "",
					"type": "bool"
				}
			],
			"stateMutability": "view",
			"type": "function"
		},
		{
			"inputs": [
				{
					"internalType": "address",
					"name": "_contract",
					"type": "address"
				},
				{
					"internalType": "bytes4",
					"name": "_interfaceId",
					"type": "bytes4"
				}
			],
			"name": "implementsERC165InterfaceNoCache",
			"outputs": [
				{
					"internalType": "bool",
					"name": "",
					"type": "bool"
				}
			],
			"stateMutability": "view",
			"type": "function"
		},
		{
			"inputs": [
				{
					"internalType": "string",
					"name": "_interfaceName",
					"type": "string"
				}
			],
			"name": "interfaceHash",
			"outputs": [
				{
					"internalType": "bytes32",
					"name": "",
					"type": "bytes32"
				}
			],
			"stateMutability": "pure",
			"type": "function"
		},
		{
			"inputs": [
				{
					"internalType": "address",
					"name": "_addr",
					"type": "address"
				},
				{
					"internalType": "bytes32",
					"name": "_interfaceHash",
					"type": "bytes32"
				},
				{
					"internalType": "address",
					"name": "_implementer",
					"type": "address"
				}
			],
			"name": "setInterfaceImplementer",
			"outputs": [],
			"stateMutability": "nonpayable",
			"type": "function"
		},
		{
			"inputs": [
				{
					"internalType": "address",
					"name": "_addr",
					"type": "address"
				},
				{
					"internalType": "address",
					"name": "_newManager",
					"type": "address"
				}
			],
			"name": "setManager",
			"outputs": [],
			"stateMutability": "nonpayable",
			"type": "function"
		},
		{
			"inputs": [
				{
					"internalType": "address",
					"name": "_contract",
					"type": "address"
				},
				{
					"internalType": "bytes4",
					"name": "_interfaceId",
					"type": "bytes4"
				}
			],
			"name": "updateERC165Cache",
			"outputs": [],
			"stateMutability": "nonpayable",
			"type": "function"
		}
	]
}