{
	"data": {
		"bytecode": {
			"linkReferences": {},
			"object": "6080604052731820a4b7618bde71dce8cdc73aab6c95905fad245f806101000a81548173ffffffffffffffffffffffffffffffffffffffff021916908373ffffffffffffffffffffffffffffffffffffffff1602179055503480156061575f80fd5b503360025f6101000a81548173ffffffffffffffffffffffffffffffffffffffff021916908373ffffffffffffffffffffffffffffffffffffffff1602179055506106d2806100af5f395ff3fe608060405234801561000f575f80fd5b506004361061003f575f3560e01c8063249cb3fa1461004357806375ab978214610073578063cb23bf081461008f575b5f80fd5b61005d6004803603810190610058919061031d565b6100ab565b60405161006a919061036a565b60405180910390f35b61008d60048036038101906100889190610417565b61010d565b005b6100a960048036038101906100a49190610516565b6101a1565b005b5f7f29ddb589b1fb5fc7cf394961c1adf5f8c6454761adf795e67fe149f658abe8955f1b8303610101576040516020016100e4906105a8565b604051602081830303815290604052805190602001209050610107565b5f801b90505b92915050565b60015f8773ffffffffffffffffffffffffffffffffffffffff1673ffffffffffffffffffffffffffffffffffffffff1681526020019081526020015f205f9054906101000a900460ff1615610197576040517f08c379a000000000000000000000000000000000000000000000000000000000815260040161018e90610616565b60405180910390fd5b5050505050505050565b60025f9054906101000a900473ffffffffffffffffffffffffffffffffffffffff1673ffffffffffffffffffffffffffffffffffffffff163373ffffffffffffffffffffffffffffffffffffffff1614610230576040517f08c379a00000000000000000000000000000000000000000000000000000000081526004016102279061067e565b60405180910390fd5b8060015f8473ffffffffffffffffffffffffffffffffffffffff1673ffffffffffffffffffffffffffffffffffffffff1681526020019081526020015f205f6101000a81548160ff0219169083151502179055505050565b5f80fd5b5f80fd5b5f819050919050565b6102a281610290565b81146102ac575f80fd5b50565b5f813590506102bd81610299565b92915050565b5f73ffffffffffffffffffffffffffffffffffffffff82169050919050565b5f6102ec826102c3565b9050919050565b6102fc816102e2565b8114610306575f80fd5b50565b5f81359050610317816102f3565b92915050565b5f806040838503121561033357610332610288565b5b5f610340858286016102af565b925050602061035185828601610309565b9150509250929050565b61036481610290565b82525050565b5f60208201905061037d5f83018461035b565b92915050565b5f819050919050565b61039581610383565b811461039f575f80fd5b50565b5f813590506103b08161038c565b92915050565b5f80fd5b5f80fd5b5f80fd5b5f8083601f8401126103d7576103d66103b6565b5b8235905067ffffffffffffffff8111156103f4576103f36103ba565b5b6020830191508360018202830111156104105761040f6103be565b5b9250929050565b5f805f805f805f8060c0898b03121561043357610432610288565b5b5f6104408b828c01610309565b98505060206104518b828c01610309565b97505060406104628b828c01610309565b96505060606104738b828c016103a2565b955050608089013567ffffffffffffffff8111156104945761049361028c565b5b6104a08b828c016103c2565b945094505060a089013567ffffffffffffffff8111156104c3576104c261028c565b5b6104cf8b828c016103c2565b92509250509295985092959890939650565b5f8115159050919050565b6104f5816104e1565b81146104ff575f80fd5b50565b5f81359050610510816104ec565b92915050565b5f806040838503121561052c5761052b610288565b5b5f61053985828601610309565b925050602061054a85828601610502565b9150509250929050565b5f81905092915050565b7f455243313832305f4143434550545f4d414749430000000000000000000000005f82015250565b5f610592601483610554565b915061059d8261055e565b601482019050919050565b5f6105b282610586565b9150819050919050565b5f82825260208201905092915050565b7f6f68682e2e2e206f6e20626c61636b6c697374000000000000000000000000005f82015250565b5f6106006013836105bc565b915061060b826105cc565b602082019050919050565b5f6020820190508181035f83015261062d816105f4565b9050919050565b7f6e6f207072656d697373696f6e000000000000000000000000000000000000005f82015250565b5f610668600d836105bc565b915061067382610634565b602082019050919050565b5f6020820190508181035f8301526106958161065c565b905091905056fea2646970667358221220872eead0075b94726c50c9a0e89b05f0900edf8b9d8dc5704d450f0e0b3407ed64736f6c634300081a0033",
			"opcodes": "PUSH1 0x80 PUSH1 0x40 MSTORE PUSH20 0x1820A4B7618BDE71DCE8CDC73AAB6C95905FAD24 PUSH0 DUP1 PUSH2 0x100 EXP DUP2 SLOAD DUP2 PUSH20 0xFFFFFFFFFFFFFFFFFFFFFFFFFFFFFFFFFFFFFFFF MUL NOT AND SWAP1 DUP4 PUSH20 0xFFFFFFFFFFFFFFFFFFFFFFFFFFFFFFFFFFFFFFFF AND MUL OR SWAP1 SSTORE POP CALLVALUE DUP1 ISZERO PUSH1 0x61 JUMPI PUSH0 DUP1 REVERT JUMPDEST POP CALLER PUSH1 0x2 PUSH0 PUSH2 0x100 EXP DUP2 SLOAD DUP2 PUSH20 0xFFFFFFFFFFFFFFFFFFFFFFFFFFFFFFFFFFFFFFFF MUL NOT AND SWAP1 DUP4 PUSH20 0xFFFFFFFFFFFFFFFFFFFFFFFFFFFFFFFFFFFFFFFF AND MUL OR SWAP1 SSTORE POP PUSH2 0x6D2 DUP1 PUSH2 0xAF PUSH0 CODECOPY PUSH0 RETURN INVALID PUSH1 0x80 PUSH1 0x40 MSTORE CALLVALUE DUP1 ISZERO PUSH2 0xF JUMPI PUSH0 DUP1 REVERT JUMPDEST POP PUSH1 0x4 CALLDATASIZE LT PUSH2 0x3F JUMPI PUSH0 CALLDATALOAD PUSH1 0xE0 SHR DUP1 PUSH4 0x249CB3FA EQ PUSH2 0x43 JUMPI DUP1 PUSH4 0x75AB9782 EQ PUSH2 0x73 JUMPI DUP1 PUSH4 0xCB23BF08 EQ PUSH2 0x8F JUMPI JUMPDEST PUSH0 DUP1 REVERT JUMPDEST PUSH2 0x5D PUSH1 0x4 DUP1 CALLDATASIZE SUB DUP2 ADD SWAP1 PUSH2 0x58 SWAP2 SWAP1 PUSH2 0x31D JUMP JUMPDEST PUSH2 0xAB JUMP JUMPDEST PUSH1 0x40 MLOAD PUSH2 0x6A SWAP2 SWAP1 PUSH2 0x36A JUMP JUMPDEST PUSH1 0x40 MLOAD DUP1 SWAP2 SUB SWAP1 RETURN JUMPDEST PUSH2 0x8D PUSH1 0x4 DUP1 CALLDATASIZE SUB DUP2 ADD SWAP1 PUSH2 0x88 SWAP2 SWAP1 PUSH2 0x417 JUMP JUMPDEST PUSH2 0x10D JUMP JUMPDEST STOP JUMPDEST PUSH2 0xA9 PUSH1 0x4 DUP1 CALLDATASIZE SUB DUP2 ADD SWAP1 PUSH2 0xA4 SWAP2 SWAP1 PUSH2 0x516 JUMP JUMPDEST PUSH2 0x1A1 JUMP JUMPDEST STOP JUMPDEST PUSH0 PUSH32 0x29DDB589B1FB5FC7CF394961C1ADF5F8C6454761ADF795E67FE149F658ABE895 PUSH0 SHL DUP4 SUB PUSH2 0x101 JUMPI PUSH1 0x40 MLOAD PUSH1 0x20 ADD PUSH2 0xE4 SWAP1 PUSH2 0x5A8 JUMP JUMPDEST PUSH1 0x40 MLOAD PUSH1 0x20 DUP2 DUP4 SUB SUB DUP2 MSTORE SWAP1 PUSH1 0x40 MSTORE DUP1 MLOAD SWAP1 PUSH1 0x20 ADD KECCAK256 SWAP1 POP PUSH2 0x107 JUMP JUMPDEST PUSH0 DUP1 SHL SWAP1 POP JUMPDEST SWAP3 SWAP2 POP POP JUMP JUMPDEST PUSH1 0x1 PUSH0 DUP8 PUSH20 0xFFFFFFFFFFFFFFFFFFFFFFFFFFFFFFFFFFFFFFFF AND PUSH20 0xFFFFFFFFFFFFFFFFFFFFFFFFFFFFFFFFFFFFFFFF AND DUP2 MSTORE PUSH1 0x20 ADD SWAP1 DUP2 MSTORE PUSH1 0x20 ADD PUSH0 KECCAK256 PUSH0 SWAP1 SLOAD SWAP1 PUSH2 0x100 EXP SWAP1 DIV PUSH1 0xFF AND ISZERO PUSH2 0x197 JUMPI PUSH1 0x40 MLOAD PUSH32 0x8C379A000000000000000000000000000000000000000000000000000000000 DUP2 MSTORE PUSH1 0x4 ADD PUSH2 0x18E SWAP1 PUSH2 0x616 JUMP JUMPDEST PUSH1 0x40 MLOAD DUP1 SWAP2 SUB SWAP1 REVERT JUMPDEST POP POP POP POP POP POP POP POP JUMP JUMPDEST PUSH1 0x2 PUSH0 SWAP1 SLOAD SWAP1 PUSH2 0x100 EXP SWAP1 DIV PUSH20 0xFFFFFFFFFFFFFFFFFFFFFFFFFFFFFFFFFFFFFFFF AND PUSH20 0xFFFFFFFFFFFFFFFFFFFFFFFFFFFFFFFFFFFFFFFF AND CALLER PUSH20 0xFFFFFFFFFFFFFFFFFFFFFFFFFFFFFFFFFFFFFFFF AND EQ PUSH2 0x230 JUMPI PUSH1 0x40 MLOAD PUSH32 0x8C379A000000000000000000000000000000000000000000000000000000000 DUP2 MSTORE PUSH1 0x4 ADD PUSH2 0x227 SWAP1 PUSH2 0x67E JUMP JUMPDEST PUSH1 0x40 MLOAD DUP1 SWAP2 SUB SWAP1 REVERT JUMPDEST DUP1 PUSH1 0x1 PUSH0 DUP5 PUSH20 0xFFFFFFFFFFFFFFFFFFFFFFFFFFFFFFFFFFFFFFFF AND PUSH20 0xFFFFFFFFFFFFFFFFFFFFFFFFFFFFFFFFFFFFFFFF AND DUP2 MSTORE PUSH1 0x20 ADD SWAP1 DUP2 MSTORE PUSH1 0x20 ADD PUSH0 KECCAK256 PUSH0 PUSH2 0x100 EXP DUP2 SLOAD DUP2 PUSH1 0xFF MUL NOT AND SWAP1 DUP4 ISZERO ISZERO MUL OR SWAP1 SSTORE POP POP POP JUMP JUMPDEST PUSH0 DUP1 REVERT JUMPDEST PUSH0 DUP1 REVERT JUMPDEST PUSH0 DUP2 SWAP1 POP SWAP2 SWAP1 POP JUMP JUMPDEST PUSH2 0x2A2 DUP2 PUSH2 0x290 JUMP JUMPDEST DUP2 EQ PUSH2 0x2AC JUMPI PUSH0 DUP1 REVERT JUMPDEST POP JUMP JUMPDEST PUSH0 DUP2 CALLDATALOAD SWAP1 POP PUSH2 0x2BD DUP2 PUSH2 0x299 JUMP JUMPDEST SWAP3 SWAP2 POP POP JUMP JUMPDEST PUSH0 PUSH20 0xFFFFFFFFFFFFFFFFFFFFFFFFFFFFFFFFFFFFFFFF DUP3 AND SWAP1 POP SWAP2 SWAP1 POP JUMP JUMPDEST PUSH0 PUSH2 0x2EC DUP3 PUSH2 0x2C3 JUMP JUMPDEST SWAP1 POP SWAP2 SWAP1 POP JUMP JUMPDEST PUSH2 0x2FC DUP2 PUSH2 0x2E2 JUMP JUMPDEST DUP2 EQ PUSH2 0x306 JUMPI PUSH0 DUP1 REVERT JUMPDEST POP JUMP JUMPDEST PUSH0 DUP2 CALLDATALOAD SWAP1 POP PUSH2 0x317 DUP2 PUSH2 0x2F3 JUMP JUMPDEST SWAP3 SWAP2 POP POP JUMP JUMPDEST PUSH0 DUP1 PUSH1 0x40 DUP4 DUP6 SUB SLT ISZERO PUSH2 0x333 JUMPI PUSH2 0x332 PUSH2 0x288 JUMP JUMPDEST JUMPDEST PUSH0 PUSH2 0x340 DUP6 DUP3 DUP7 ADD PUSH2 0x2AF JUMP JUMPDEST SWAP3 POP POP PUSH1 0x20 PUSH2 0x351 DUP6 DUP3 DUP7 ADD PUSH2 0x309 JUMP JUMPDEST SWAP2 POP POP SWAP3 POP SWAP3 SWAP1 POP JUMP JUMPDEST PUSH2 0x364 DUP2 PUSH2 0x290 JUMP JUMPDEST DUP3 MSTORE POP POP JUMP JUMPDEST PUSH0 PUSH1 0x20 DUP3 ADD SWAP1 POP PUSH2 0x37D PUSH0 DUP4 ADD DUP5 PUSH2 0x35B JUMP JUMPDEST SWAP3 SWAP2 POP POP JUMP JUMPDEST PUSH0 DUP2 SWAP1 POP SWAP2 SWAP1 POP JUMP JUMPDEST PUSH2 0x395 DUP2 PUSH2 0x383 JUMP JUMPDEST DUP2 EQ PUSH2 0x39F JUMPI PUSH0 DUP1 REVERT JUMPDEST POP JUMP JUMPDEST PUSH0 DUP2 CALLDATALOAD SWAP1 POP PUSH2 0x3B0 DUP2 PUSH2 0x38C JUMP JUMPDEST SWAP3 SWAP2 POP POP JUMP JUMPDEST PUSH0 DUP1 REVERT JUMPDEST PUSH0 DUP1 REVERT JUMPDEST PUSH0 DUP1 REVERT JUMPDEST PUSH0 DUP1 DUP4 PUSH1 0x1F DUP5 ADD SLT PUSH2 0x3D7 JUMPI PUSH2 0x3D6 PUSH2 0x3B6 JUMP JUMPDEST JUMPDEST DUP3 CALLDATALOAD SWAP1 POP PUSH8 0xFFFFFFFFFFFFFFFF DUP2 GT ISZERO PUSH2 0x3F4 JUMPI PUSH2 0x3F3 PUSH2 0x3BA JUMP JUMPDEST JUMPDEST PUSH1 0x20 DUP4 ADD SWAP2 POP DUP4 PUSH1 0x1 DUP3 MUL DUP4 ADD GT ISZERO PUSH2 0x410 JUMPI PUSH2 0x40F PUSH2 0x3BE JUMP JUMPDEST JUMPDEST SWAP3 POP SWAP3 SWAP1 POP JUMP JUMPDEST PUSH0 DUP1 PUSH0 DUP1 PUSH0 DUP1 PUSH0 DUP1 PUSH1 0xC0 DUP10 DUP12 SUB SLT ISZERO PUSH2 0x433 JUMPI PUSH2 0x432 PUSH2 0x288 JUMP JUMPDEST JUMPDEST PUSH0 PUSH2 0x440 DUP12 DUP3 DUP13 ADD PUSH2 0x309 JUMP JUMPDEST SWAP9 POP POP PUSH1 0x20 PUSH2 0x451 DUP12 DUP3 DUP13 ADD PUSH2 0x309 JUMP JUMPDEST SWAP8 POP POP PUSH1 0x40 PUSH2 0x462 DUP12 DUP3 DUP13 ADD PUSH2 0x309 JUMP JUMPDEST SWAP7 POP POP PUSH1 0x60 PUSH2 0x473 DUP12 DUP3 DUP13 ADD PUSH2 0x3A2 JUMP JUMPDEST SWAP6 POP POP PUSH1 0x80 DUP10 ADD CALLDATALOAD PUSH8 0xFFFFFFFFFFFFFFFF DUP2 GT ISZERO PUSH2 0x494 JUMPI PUSH2 0x493 PUSH2 0x28C JUMP JUMPDEST JUMPDEST PUSH2 0x4A0 DUP12 DUP3 DUP13 ADD PUSH2 0x3C2 JUMP JUMPDEST SWAP5 POP SWAP5 POP POP PUSH1 0xA0 DUP10 ADD CALLDATALOAD PUSH8 0xFFFFFFFFFFFFFFFF DUP2 GT ISZERO PUSH2 0x4C3 JUMPI PUSH2 0x4C2 PUSH2 0x28C JUMP JUMPDEST JUMPDEST PUSH2 0x4CF DUP12 DUP3 DUP13 ADD PUSH2 0x3C2 JUMP JUMPDEST SWAP3 POP SWAP3 POP POP SWAP3 SWAP6 SWAP9 POP SWAP3 SWAP6 SWAP9 SWAP1 SWAP4 SWAP7 POP JUMP JUMPDEST PUSH0 DUP2 ISZERO ISZERO SWAP1 POP SWAP2 SWAP1 POP JUMP JUMPDEST PUSH2 0x4F5 DUP2 PUSH2 0x4E1 JUMP JUMPDEST DUP2 EQ PUSH2 0x4FF JUMPI PUSH0 DUP1 REVERT JUMPDEST POP JUMP JUMPDEST PUSH0 DUP2 CALLDATALOAD SWAP1 POP PUSH2 0x510 DUP2 PUSH2 0x4EC JUMP JUMPDEST SWAP3 SWAP2 POP POP JUMP JUMPDEST PUSH0 DUP1 PUSH1 0x40 DUP4 DUP6 SUB SLT ISZERO PUSH2 0x52C JUMPI PUSH2 0x52B PUSH2 0x288 JUMP JUMPDEST JUMPDEST PUSH0 PUSH2 0x539 DUP6 DUP3 DUP7 ADD PUSH2 0x309 JUMP JUMPDEST SWAP3 POP POP PUSH1 0x20 PUSH2 0x54A DUP6 DUP3 DUP7 ADD PUSH2 0x502 JUMP JUMPDEST SWAP2 POP POP SWAP3 POP SWAP3 SWAP1 POP JUMP JUMPDEST PUSH0 DUP2 SWAP1 POP SWAP3 SWAP2 POP POP JUMP JUMPDEST PUSH32 0x455243313832305F4143434550545F4D41474943000000000000000000000000 PUSH0 DUP3 ADD MSTORE POP JUMP JUMPDEST PUSH0 PUSH2 0x592 PUSH1 0x14 DUP4 PUSH2 0x554 JUMP JUMPDEST SWAP2 POP PUSH2 0x59D DUP3 PUSH2 0x55E JUMP JUMPDEST PUSH1 0x14 DUP3 ADD SWAP1 POP SWAP2 SWAP1 POP JUMP JUMPDEST PUSH0 PUSH2 0x5B2 DUP3 PUSH2 0x586 JUMP JUMPDEST SWAP2 POP DUP2 SWAP1 POP SWAP2 SWAP1 POP JUMP JUMPDEST PUSH0 DUP3 DUP3 MSTORE PUSH1 0x20 DUP3 ADD SWAP1 POP SWAP3 SWAP2 POP POP JUMP JUMPDEST PUSH32 0x6F68682E2E2E206F6E20626C61636B6C69737400000000000000000000000000 PUSH0 DUP3 ADD MSTORE POP JUMP JUMPDEST PUSH0 PUSH2 0x600 PUSH1 0x13 DUP4 PUSH2 0x5BC JUMP JUMPDEST SWAP2 POP PUSH2 0x60B DUP3 PUSH2 0x5CC JUMP JUMPDEST PUSH1 0x20 DUP3 ADD SWAP1 POP SWAP2 SWAP1 POP JUMP JUMPDEST PUSH0 PUSH1 0x20 DUP3 ADD SWAP1 POP DUP2 DUP2 SUB PUSH0 DUP4 ADD MSTORE PUSH2 0x62D DUP2 PUSH2 0x5F4 JUMP JUMPDEST SWAP1 POP SWAP2 SWAP1 POP JUMP JUMPDEST PUSH32 0x6E6F207072656D697373696F6E00000000000000000000000000000000000000 PUSH0 DUP3 ADD MSTORE POP JUMP JUMPDEST PUSH0 PUSH2 0x668 PUSH1 0xD DUP4 PUSH2 0x5BC JUMP JUMPDEST SWAP2 POP PUSH2 0x673 DUP3 PUSH2 0x634 JUMP JUMPDEST PUSH1 0x20 DUP3 ADD SWAP1 POP SWAP2 SWAP1 POP JUMP JUMPDEST PUSH0 PUSH1 0x20 DUP3 ADD SWAP1 POP DUP2 DUP2 SUB PUSH0 DUP4 ADD MSTORE PUSH2 0x695 DUP2 PUSH2 0x65C JUMP JUMPDEST SWAP1 POP SWAP2 SWAP1 POP JUMP INVALID LOG2 PUSH5 0x6970667358 0x22 SLT KECCAK256 DUP8 0x2E 0xEA 0xD0 SMOD JUMPDEST SWAP5 PUSH19 0x6C50C9A0E89B05F0900EDF8B9D8DC5704D450F 0xE SIGNEXTEND CALLVALUE SMOD 0xED PUSH5 0x736F6C6343 STOP ADDMOD BYTE STOP CALLER "
		},
		"gasEstimates": {
			"creation": {
				"codeDepositCost": "349200",
				"executionCost": "48915",
				"totalCost": "398115"
			},
			"external": {
				"canImplementInterfaceForAddress(bytes32,address)": "infinite",
				"setBlack(address,bool)": "27171",
				"tokensToSend(address,address,address,uint256,bytes,bytes)": "infinite"
			}
		},
		"methodIdentifiers": {
			"canImplementInterfaceForAddress(bytes32,address)": "249cb3fa",
			"setBlack(address,bool)": "cb23bf08",
			"tokensToSend(address,address,address,uint256,bytes,bytes)": "75ab9782"
		}
	},
	"abi": [
		{
			"inputs": [],
			"stateMutability": "nonpayable",
			"type": "constructor"
		},
		{
			"inputs": [
				{
					"internalType": "bytes32",
					"name": "interfaceHash",
					"type": "bytes32"
				},
				{
					"internalType": "address",
					"name": "account",
					"type": "address"
				}
			],
			"name": "canImplementInterfaceForAddress",
			"outputs": [
				{
					"internalType": "bytes32",
					"name": "",
					"type": "bytes32"
				}
			],
			"stateMutability": "view",
			"type": "function"
		},
		{
			"inputs": [
				{
					"internalType": "address",
					"name": "account",
					"type": "address"
				},
				{
					"internalType": "bool",
					"name": "b",
					"type": "bool"
				}
			],
			"name": "setBlack",
			"outputs": [],
			"stateMutability": "nonpayable",
			"type": "function"
		},
		{
			"inputs": [
				{
					"internalType": "address",
					"name": "operator",
					"type": "address"
				},
				{
					"internalType": "address",
					"name": "from",
					"type": "address"
				},
				{
					"internalType": "address",
					"name": "to",
					"type": "address"
				},
				{
					"internalType": "uint256",
					"name": "amount",
					"type": "uint256"
				},
				{
					"internalType": "bytes",
					"name": "userData",
					"type": "bytes"
				},
				{
					"internalType": "bytes",
					"name": "operatorData",
					"type": "bytes"
				}
			],
			"name": "tokensToSend",
			"outputs": [],
			"stateMutability": "nonpayable",
			"type": "function"
		}
	]
}