{
	"contracts/FunctionSelector.sol": {
		"SimpleStorage": {
			"abi": [
				{
					"inputs": [
						{
							"internalType": "uint256",
							"name": "a",
							"type": "uint256"
						},
						{
							"internalType": "uint256",
							"name": "b",
							"type": "uint256"
						}
					],
					"name": "add",
					"outputs": [
						{
							"internalType": "uint256",
							"name": "",
							"type": "uint256"
						}
					],
					"stateMutability": "pure",
					"type": "function"
				},
				{
					"inputs": [],
					"name": "deposit",
					"outputs": [],
					"stateMutability": "payable",
					"type": "function"
				},
				{
					"inputs": [],
					"name": "getData",
					"outputs": [
						{
							"internalType": "uint256",
							"name": "",
							"type": "uint256"
						}
					],
					"stateMutability": "view",
					"type": "function"
				},
				{
					"inputs": [
						{
							"internalType": "uint256",
							"name": "_data",
							"type": "uint256"
						}
					],
					"name": "setData",
					"outputs": [],
					"stateMutability": "nonpayable",
					"type": "function"
				}
			],
			"devdoc": {
				"kind": "dev",
				"methods": {},
				"version": 1
			},
			"evm": {
				"assembly": "    /* \"contracts/FunctionSelector.sol\":1507:1962  contract SimpleStorage {... */\n  mstore(0x40, 0x80)\n  callvalue\n  dup1\n  iszero\n  tag_1\n  jumpi\n  0x00\n  dup1\n  revert\ntag_1:\n  pop\n  dataSize(sub_0)\n  dup1\n  dataOffset(sub_0)\n  0x00\n  codecopy\n  0x00\n  return\nstop\n\nsub_0: assembly {\n        /* \"contracts/FunctionSelector.sol\":1507:1962  contract SimpleStorage {... */\n      mstore(0x40, 0x80)\n      jumpi(tag_1, lt(calldatasize, 0x04))\n      shr(0xe0, calldataload(0x00))\n      dup1\n      0x3bc5de30\n      eq\n      tag_2\n      jumpi\n      dup1\n      0x5b4b73a9\n      eq\n      tag_3\n      jumpi\n      dup1\n      0x771602f7\n      eq\n      tag_4\n      jumpi\n      dup1\n      0xd0e30db0\n      eq\n      tag_5\n      jumpi\n    tag_1:\n      0x00\n      dup1\n      revert\n        /* \"contracts/FunctionSelector.sol\":1662:1764  function getData() external view returns (uint256) {... */\n    tag_2:\n      callvalue\n      dup1\n      iszero\n      tag_6\n      jumpi\n      0x00\n      dup1\n      revert\n    tag_6:\n      pop\n      tag_7\n      tag_8\n      jump\t// in\n    tag_7:\n      mload(0x40)\n      tag_9\n      swap2\n      swap1\n      tag_10\n      jump\t// in\n    tag_9:\n      mload(0x40)\n      dup1\n      swap2\n      sub\n      swap1\n      return\n        /* \"contracts/FunctionSelector.sol\":1564:1657  function setData(uint256 _data) external {... */\n    tag_3:\n      callvalue\n      dup1\n      iszero\n      tag_11\n      jumpi\n      0x00\n      dup1\n      revert\n    tag_11:\n      pop\n      tag_12\n      0x04\n      dup1\n      calldatasize\n      sub\n      dup2\n      add\n      swap1\n      tag_13\n      swap2\n      swap1\n      tag_14\n      jump\t// in\n    tag_13:\n      tag_15\n      jump\t// in\n    tag_12:\n      stop\n        /* \"contracts/FunctionSelector.sol\":1769:1885  function add(uint256 a, uint256 b) external pure returns (uint256) {... */\n    tag_4:\n      callvalue\n      dup1\n      iszero\n      tag_16\n      jumpi\n      0x00\n      dup1\n      revert\n    tag_16:\n      pop\n      tag_17\n      0x04\n      dup1\n      calldatasize\n      sub\n      dup2\n      add\n      swap1\n      tag_18\n      swap2\n      swap1\n      tag_19\n      jump\t// in\n    tag_18:\n      tag_20\n      jump\t// in\n    tag_17:\n      mload(0x40)\n      tag_21\n      swap2\n      swap1\n      tag_10\n      jump\t// in\n    tag_21:\n      mload(0x40)\n      dup1\n      swap2\n      sub\n      swap1\n      return\n        /* \"contracts/FunctionSelector.sol\":1890:1960  function deposit() external payable {... */\n    tag_5:\n      tag_22\n      tag_23\n      jump\t// in\n    tag_22:\n      stop\n        /* \"contracts/FunctionSelector.sol\":1662:1764  function getData() external view returns (uint256) {... */\n    tag_8:\n        /* \"contracts/FunctionSelector.sol\":1704:1711  uint256 */\n      0x00\n        /* \"contracts/FunctionSelector.sol\":1730:1734  data */\n      dup1\n      sload\n        /* \"contracts/FunctionSelector.sol\":1723:1734  return data */\n      swap1\n      pop\n        /* \"contracts/FunctionSelector.sol\":1662:1764  function getData() external view returns (uint256) {... */\n      swap1\n      jump\t// out\n        /* \"contracts/FunctionSelector.sol\":1564:1657  function setData(uint256 _data) external {... */\n    tag_15:\n        /* \"contracts/FunctionSelector.sol\":1622:1627  _data */\n      dup1\n        /* \"contracts/FunctionSelector.sol\":1615:1619  data */\n      0x00\n        /* \"contracts/FunctionSelector.sol\":1615:1627  data = _data */\n      dup2\n      swap1\n      sstore\n      pop\n        /* \"contracts/FunctionSelector.sol\":1564:1657  function setData(uint256 _data) external {... */\n      pop\n      jump\t// out\n        /* \"contracts/FunctionSelector.sol\":1769:1885  function add(uint256 a, uint256 b) external pure returns (uint256) {... */\n    tag_20:\n        /* \"contracts/FunctionSelector.sol\":1827:1834  uint256 */\n      0x00\n        /* \"contracts/FunctionSelector.sol\":1857:1858  b */\n      dup2\n        /* \"contracts/FunctionSelector.sol\":1853:1854  a */\n      dup4\n        /* \"contracts/FunctionSelector.sol\":1853:1858  a + b */\n      tag_27\n      swap2\n      swap1\n      tag_28\n      jump\t// in\n    tag_27:\n        /* \"contracts/FunctionSelector.sol\":1846:1858  return a + b */\n      swap1\n      pop\n        /* \"contracts/FunctionSelector.sol\":1769:1885  function add(uint256 a, uint256 b) external pure returns (uint256) {... */\n      swap3\n      swap2\n      pop\n      pop\n      jump\t// out\n        /* \"contracts/FunctionSelector.sol\":1890:1960  function deposit() external payable {... */\n    tag_23:\n      jump\t// out\n        /* \"#utility.yul\":7:84   */\n    tag_30:\n        /* \"#utility.yul\":44:51   */\n      0x00\n        /* \"#utility.yul\":73:78   */\n      dup2\n        /* \"#utility.yul\":62:78   */\n      swap1\n      pop\n        /* \"#utility.yul\":7:84   */\n      swap2\n      swap1\n      pop\n      jump\t// out\n        /* \"#utility.yul\":90:208   */\n    tag_31:\n        /* \"#utility.yul\":177:201   */\n      tag_41\n        /* \"#utility.yul\":195:200   */\n      dup2\n        /* \"#utility.yul\":177:201   */\n      tag_30\n      jump\t// in\n    tag_41:\n        /* \"#utility.yul\":172:175   */\n      dup3\n        /* \"#utility.yul\":165:202   */\n      mstore\n        /* \"#utility.yul\":90:208   */\n      pop\n      pop\n      jump\t// out\n        /* \"#utility.yul\":214:436   */\n    tag_10:\n        /* \"#utility.yul\":307:311   */\n      0x00\n        /* \"#utility.yul\":345:347   */\n      0x20\n        /* \"#utility.yul\":334:343   */\n      dup3\n        /* \"#utility.yul\":330:348   */\n      add\n        /* \"#utility.yul\":322:348   */\n      swap1\n      pop\n        /* \"#utility.yul\":358:429   */\n      tag_43\n        /* \"#utility.yul\":426:427   */\n      0x00\n        /* \"#utility.yul\":415:424   */\n      dup4\n        /* \"#utility.yul\":411:428   */\n      add\n        /* \"#utility.yul\":402:408   */\n      dup5\n        /* \"#utility.yul\":358:429   */\n      tag_31\n      jump\t// in\n    tag_43:\n        /* \"#utility.yul\":214:436   */\n      swap3\n      swap2\n      pop\n      pop\n      jump\t// out\n        /* \"#utility.yul\":523:640   */\n    tag_33:\n        /* \"#utility.yul\":632:633   */\n      0x00\n        /* \"#utility.yul\":629:630   */\n      dup1\n        /* \"#utility.yul\":622:634   */\n      revert\n        /* \"#utility.yul\":769:891   */\n    tag_35:\n        /* \"#utility.yul\":842:866   */\n      tag_48\n        /* \"#utility.yul\":860:865   */\n      dup2\n        /* \"#utility.yul\":842:866   */\n      tag_30\n      jump\t// in\n    tag_48:\n        /* \"#utility.yul\":835:840   */\n      dup2\n        /* \"#utility.yul\":832:867   */\n      eq\n        /* \"#utility.yul\":822:885   */\n      tag_49\n      jumpi\n        /* \"#utility.yul\":881:882   */\n      0x00\n        /* \"#utility.yul\":878:879   */\n      dup1\n        /* \"#utility.yul\":871:883   */\n      revert\n        /* \"#utility.yul\":822:885   */\n    tag_49:\n        /* \"#utility.yul\":769:891   */\n      pop\n      jump\t// out\n        /* \"#utility.yul\":897:1036   */\n    tag_36:\n        /* \"#utility.yul\":943:948   */\n      0x00\n        /* \"#utility.yul\":981:987   */\n      dup2\n        /* \"#utility.yul\":968:988   */\n      calldataload\n        /* \"#utility.yul\":959:988   */\n      swap1\n      pop\n        /* \"#utility.yul\":997:1030   */\n      tag_51\n        /* \"#utility.yul\":1024:1029   */\n      dup2\n        /* \"#utility.yul\":997:1030   */\n      tag_35\n      jump\t// in\n    tag_51:\n        /* \"#utility.yul\":897:1036   */\n      swap3\n      swap2\n      pop\n      pop\n      jump\t// out\n        /* \"#utility.yul\":1042:1371   */\n    tag_14:\n        /* \"#utility.yul\":1101:1107   */\n      0x00\n        /* \"#utility.yul\":1150:1152   */\n      0x20\n        /* \"#utility.yul\":1138:1147   */\n      dup3\n        /* \"#utility.yul\":1129:1136   */\n      dup5\n        /* \"#utility.yul\":1125:1148   */\n      sub\n        /* \"#utility.yul\":1121:1153   */\n      slt\n        /* \"#utility.yul\":1118:1237   */\n      iszero\n      tag_53\n      jumpi\n        /* \"#utility.yul\":1156:1235   */\n      tag_54\n      tag_33\n      jump\t// in\n    tag_54:\n        /* \"#utility.yul\":1118:1237   */\n    tag_53:\n        /* \"#utility.yul\":1276:1277   */\n      0x00\n        /* \"#utility.yul\":1301:1354   */\n      tag_55\n        /* \"#utility.yul\":1346:1353   */\n      dup5\n        /* \"#utility.yul\":1337:1343   */\n      dup3\n        /* \"#utility.yul\":1326:1335   */\n      dup6\n        /* \"#utility.yul\":1322:1344   */\n      add\n        /* \"#utility.yul\":1301:1354   */\n      tag_36\n      jump\t// in\n    tag_55:\n        /* \"#utility.yul\":1291:1354   */\n      swap2\n      pop\n        /* \"#utility.yul\":1247:1364   */\n      pop\n        /* \"#utility.yul\":1042:1371   */\n      swap3\n      swap2\n      pop\n      pop\n      jump\t// out\n        /* \"#utility.yul\":1377:1851   */\n    tag_19:\n        /* \"#utility.yul\":1445:1451   */\n      0x00\n        /* \"#utility.yul\":1453:1459   */\n      dup1\n        /* \"#utility.yul\":1502:1504   */\n      0x40\n        /* \"#utility.yul\":1490:1499   */\n      dup4\n        /* \"#utility.yul\":1481:1488   */\n      dup6\n        /* \"#utility.yul\":1477:1500   */\n      sub\n        /* \"#utility.yul\":1473:1505   */\n      slt\n        /* \"#utility.yul\":1470:1589   */\n      iszero\n      tag_57\n      jumpi\n        /* \"#utility.yul\":1508:1587   */\n      tag_58\n      tag_33\n      jump\t// in\n    tag_58:\n        /* \"#utility.yul\":1470:1589   */\n    tag_57:\n        /* \"#utility.yul\":1628:1629   */\n      0x00\n        /* \"#utility.yul\":1653:1706   */\n      tag_59\n        /* \"#utility.yul\":1698:1705   */\n      dup6\n        /* \"#utility.yul\":1689:1695   */\n      dup3\n        /* \"#utility.yul\":1678:1687   */\n      dup7\n        /* \"#utility.yul\":1674:1696   */\n      add\n        /* \"#utility.yul\":1653:1706   */\n      tag_36\n      jump\t// in\n    tag_59:\n        /* \"#utility.yul\":1643:1706   */\n      swap3\n      pop\n        /* \"#utility.yul\":1599:1716   */\n      pop\n        /* \"#utility.yul\":1755:1757   */\n      0x20\n        /* \"#utility.yul\":1781:1834   */\n      tag_60\n        /* \"#utility.yul\":1826:1833   */\n      dup6\n        /* \"#utility.yul\":1817:1823   */\n      dup3\n        /* \"#utility.yul\":1806:1815   */\n      dup7\n        /* \"#utility.yul\":1802:1824   */\n      add\n        /* \"#utility.yul\":1781:1834   */\n      tag_36\n      jump\t// in\n    tag_60:\n        /* \"#utility.yul\":1771:1834   */\n      swap2\n      pop\n        /* \"#utility.yul\":1726:1844   */\n      pop\n        /* \"#utility.yul\":1377:1851   */\n      swap3\n      pop\n      swap3\n      swap1\n      pop\n      jump\t// out\n        /* \"#utility.yul\":1857:2037   */\n    tag_37:\n        /* \"#utility.yul\":1905:1982   */\n      0x4e487b7100000000000000000000000000000000000000000000000000000000\n        /* \"#utility.yul\":1902:1903   */\n      0x00\n        /* \"#utility.yul\":1895:1983   */\n      mstore\n        /* \"#utility.yul\":2002:2006   */\n      0x11\n        /* \"#utility.yul\":1999:2000   */\n      0x04\n        /* \"#utility.yul\":1992:2007   */\n      mstore\n        /* \"#utility.yul\":2026:2030   */\n      0x24\n        /* \"#utility.yul\":2023:2024   */\n      0x00\n        /* \"#utility.yul\":2016:2031   */\n      revert\n        /* \"#utility.yul\":2043:2234   */\n    tag_28:\n        /* \"#utility.yul\":2083:2086   */\n      0x00\n        /* \"#utility.yul\":2102:2122   */\n      tag_63\n        /* \"#utility.yul\":2120:2121   */\n      dup3\n        /* \"#utility.yul\":2102:2122   */\n      tag_30\n      jump\t// in\n    tag_63:\n        /* \"#utility.yul\":2097:2122   */\n      swap2\n      pop\n        /* \"#utility.yul\":2136:2156   */\n      tag_64\n        /* \"#utility.yul\":2154:2155   */\n      dup4\n        /* \"#utility.yul\":2136:2156   */\n      tag_30\n      jump\t// in\n    tag_64:\n        /* \"#utility.yul\":2131:2156   */\n      swap3\n      pop\n        /* \"#utility.yul\":2179:2180   */\n      dup3\n        /* \"#utility.yul\":2176:2177   */\n      dup3\n        /* \"#utility.yul\":2172:2181   */\n      add\n        /* \"#utility.yul\":2165:2181   */\n      swap1\n      pop\n        /* \"#utility.yul\":2200:2203   */\n      dup1\n        /* \"#utility.yul\":2197:2198   */\n      dup3\n        /* \"#utility.yul\":2194:2204   */\n      gt\n        /* \"#utility.yul\":2191:2227   */\n      iszero\n      tag_65\n      jumpi\n        /* \"#utility.yul\":2207:2225   */\n      tag_66\n      tag_37\n      jump\t// in\n    tag_66:\n        /* \"#utility.yul\":2191:2227   */\n    tag_65:\n        /* \"#utility.yul\":2043:2234   */\n      swap3\n      swap2\n      pop\n      pop\n      jump\t// out\n\n    auxdata: 0xa26469706673582212202aa8ccfba8eb263f6700ec711248384bc2e4dca92c7c47445784c6de80bb37aa64736f6c634300081a0033\n}\n",
				"bytecode": {
					"linkReferences": {},
					"object": "6080604052348015600e575f80fd5b506102608061001c5f395ff3fe60806040526004361061003e575f3560e01c80633bc5de30146100425780635b4b73a91461006c578063771602f714610094578063d0e30db0146100d0575b5f80fd5b34801561004d575f80fd5b506100566100da565b604051610063919061011a565b60405180910390f35b348015610077575f80fd5b50610092600480360381019061008d9190610161565b6100e2565b005b34801561009f575f80fd5b506100ba60048036038101906100b5919061018c565b6100eb565b6040516100c7919061011a565b60405180910390f35b6100d8610100565b005b5f8054905090565b805f8190555050565b5f81836100f891906101f7565b905092915050565b565b5f819050919050565b61011481610102565b82525050565b5f60208201905061012d5f83018461010b565b92915050565b5f80fd5b61014081610102565b811461014a575f80fd5b50565b5f8135905061015b81610137565b92915050565b5f6020828403121561017657610175610133565b5b5f6101838482850161014d565b91505092915050565b5f80604083850312156101a2576101a1610133565b5b5f6101af8582860161014d565b92505060206101c08582860161014d565b9150509250929050565b7f4e487b71000000000000000000000000000000000000000000000000000000005f52601160045260245ffd5b5f61020182610102565b915061020c83610102565b9250828201905080821115610224576102236101ca565b5b9291505056fea26469706673582212202aa8ccfba8eb263f6700ec711248384bc2e4dca92c7c47445784c6de80bb37aa64736f6c634300081a0033",
					"opcodes": "PUSH1 0x80 PUSH1 0x40 MSTORE CALLVALUE DUP1 ISZERO PUSH1 0xE JUMPI PUSH0 DUP1 REVERT JUMPDEST POP PUSH2 0x260 DUP1 PUSH2 0x1C PUSH0 CODECOPY PUSH0 RETURN INVALID PUSH1 0x80 PUSH1 0x40 MSTORE PUSH1 0x4 CALLDATASIZE LT PUSH2 0x3E JUMPI PUSH0 CALLDATALOAD PUSH1 0xE0 SHR DUP1 PUSH4 0x3BC5DE30 EQ PUSH2 0x42 JUMPI DUP1 PUSH4 0x5B4B73A9 EQ PUSH2 0x6C JUMPI DUP1 PUSH4 0x771602F7 EQ PUSH2 0x94 JUMPI DUP1 PUSH4 0xD0E30DB0 EQ PUSH2 0xD0 JUMPI JUMPDEST PUSH0 DUP1 REVERT JUMPDEST CALLVALUE DUP1 ISZERO PUSH2 0x4D JUMPI PUSH0 DUP1 REVERT JUMPDEST POP PUSH2 0x56 PUSH2 0xDA JUMP JUMPDEST PUSH1 0x40 MLOAD PUSH2 0x63 SWAP2 SWAP1 PUSH2 0x11A JUMP JUMPDEST PUSH1 0x40 MLOAD DUP1 SWAP2 SUB SWAP1 RETURN JUMPDEST CALLVALUE DUP1 ISZERO PUSH2 0x77 JUMPI PUSH0 DUP1 REVERT JUMPDEST POP PUSH2 0x92 PUSH1 0x4 DUP1 CALLDATASIZE SUB DUP2 ADD SWAP1 PUSH2 0x8D SWAP2 SWAP1 PUSH2 0x161 JUMP JUMPDEST PUSH2 0xE2 JUMP JUMPDEST STOP JUMPDEST CALLVALUE DUP1 ISZERO PUSH2 0x9F JUMPI PUSH0 DUP1 REVERT JUMPDEST POP PUSH2 0xBA PUSH1 0x4 DUP1 CALLDATASIZE SUB DUP2 ADD SWAP1 PUSH2 0xB5 SWAP2 SWAP1 PUSH2 0x18C JUMP JUMPDEST PUSH2 0xEB JUMP JUMPDEST PUSH1 0x40 MLOAD PUSH2 0xC7 SWAP2 SWAP1 PUSH2 0x11A JUMP JUMPDEST PUSH1 0x40 MLOAD DUP1 SWAP2 SUB SWAP1 RETURN JUMPDEST PUSH2 0xD8 PUSH2 0x100 JUMP JUMPDEST STOP JUMPDEST PUSH0 DUP1 SLOAD SWAP1 POP SWAP1 JUMP JUMPDEST DUP1 PUSH0 DUP2 SWAP1 SSTORE POP POP JUMP JUMPDEST PUSH0 DUP2 DUP4 PUSH2 0xF8 SWAP2 SWAP1 PUSH2 0x1F7 JUMP JUMPDEST SWAP1 POP SWAP3 SWAP2 POP POP JUMP JUMPDEST JUMP JUMPDEST PUSH0 DUP2 SWAP1 POP SWAP2 SWAP1 POP JUMP JUMPDEST PUSH2 0x114 DUP2 PUSH2 0x102 JUMP JUMPDEST DUP3 MSTORE POP POP JUMP JUMPDEST PUSH0 PUSH1 0x20 DUP3 ADD SWAP1 POP PUSH2 0x12D PUSH0 DUP4 ADD DUP5 PUSH2 0x10B JUMP JUMPDEST SWAP3 SWAP2 POP POP JUMP JUMPDEST PUSH0 DUP1 REVERT JUMPDEST PUSH2 0x140 DUP2 PUSH2 0x102 JUMP JUMPDEST DUP2 EQ PUSH2 0x14A JUMPI PUSH0 DUP1 REVERT JUMPDEST POP JUMP JUMPDEST PUSH0 DUP2 CALLDATALOAD SWAP1 POP PUSH2 0x15B DUP2 PUSH2 0x137 JUMP JUMPDEST SWAP3 SWAP2 POP POP JUMP JUMPDEST PUSH0 PUSH1 0x20 DUP3 DUP5 SUB SLT ISZERO PUSH2 0x176 JUMPI PUSH2 0x175 PUSH2 0x133 JUMP JUMPDEST JUMPDEST PUSH0 PUSH2 0x183 DUP5 DUP3 DUP6 ADD PUSH2 0x14D JUMP JUMPDEST SWAP2 POP POP SWAP3 SWAP2 POP POP JUMP JUMPDEST PUSH0 DUP1 PUSH1 0x40 DUP4 DUP6 SUB SLT ISZERO PUSH2 0x1A2 JUMPI PUSH2 0x1A1 PUSH2 0x133 JUMP JUMPDEST JUMPDEST PUSH0 PUSH2 0x1AF DUP6 DUP3 DUP7 ADD PUSH2 0x14D JUMP JUMPDEST SWAP3 POP POP PUSH1 0x20 PUSH2 0x1C0 DUP6 DUP3 DUP7 ADD PUSH2 0x14D JUMP JUMPDEST SWAP2 POP POP SWAP3 POP SWAP3 SWAP1 POP JUMP JUMPDEST PUSH32 0x4E487B7100000000000000000000000000000000000000000000000000000000 PUSH0 MSTORE PUSH1 0x11 PUSH1 0x4 MSTORE PUSH1 0x24 PUSH0 REVERT JUMPDEST PUSH0 PUSH2 0x201 DUP3 PUSH2 0x102 JUMP JUMPDEST SWAP2 POP PUSH2 0x20C DUP4 PUSH2 0x102 JUMP JUMPDEST SWAP3 POP DUP3 DUP3 ADD SWAP1 POP DUP1 DUP3 GT ISZERO PUSH2 0x224 JUMPI PUSH2 0x223 PUSH2 0x1CA JUMP JUMPDEST JUMPDEST SWAP3 SWAP2 POP POP JUMP INVALID LOG2 PUSH5 0x6970667358 0x22 SLT KECCAK256 0x2A 0xA8 0xCC 0xFB 0xA8 0xEB 0x26 EXTCODEHASH PUSH8 0xEC711248384BC2 0xE4 0xDC 0xA9 0x2C PUSH29 0x47445784C6DE80BB37AA64736F6C634300081A00330000000000000000 "
				},
				"gasEstimates": {
					"creation": {
						"codeDepositCost": "121600",
						"executionCost": "163",
						"totalCost": "121763"
					},
					"external": {
						"add(uint256,uint256)": "infinite",
						"deposit()": "163",
						"getData()": "2410",
						"setData(uint256)": "22514"
					}
				},
				"methodIdentifiers": {
					"add(uint256,uint256)": "771602f7",
					"deposit()": "d0e30db0",
					"getData()": "3bc5de30",
					"setData(uint256)": "5b4b73a9"
				}
			},
			"storageLayout": {
				"storage": [
					{
						"astId": 36,
						"contract": "contracts/FunctionSelector.sol:SimpleStorage",
						"label": "data",
						"offset": 0,
						"slot": "0",
						"type": "t_uint256"
					}
				],
				"types": {
					"t_uint256": {
						"encoding": "inplace",
						"label": "uint256",
						"numberOfBytes": "32"
					}
				}
			},
			"userdoc": {
				"kind": "user",
				"methods": {},
				"version": 1
			}
		}
	}
}