{
	"contracts/Mapping.sol": {
		"PointsSystem": {
			"abi": [
				{
					"inputs": [
						{
							"internalType": "address",
							"name": "add",
							"type": "address"
						}
					],
					"name": "addUser",
					"outputs": [],
					"stateMutability": "nonpayable",
					"type": "function"
				},
				{
					"inputs": [],
					"name": "getAllUsers",
					"outputs": [
						{
							"internalType": "address[]",
							"name": "",
							"type": "address[]"
						}
					],
					"stateMutability": "nonpayable",
					"type": "function"
				},
				{
					"inputs": [
						{
							"internalType": "address",
							"name": "userAdd",
							"type": "address"
						}
					],
					"name": "getPoints",
					"outputs": [
						{
							"internalType": "uint256",
							"name": "",
							"type": "uint256"
						}
					],
					"stateMutability": "nonpayable",
					"type": "function"
				},
				{
					"inputs": [
						{
							"internalType": "address",
							"name": "",
							"type": "address"
						}
					],
					"name": "points",
					"outputs": [
						{
							"internalType": "uint256",
							"name": "",
							"type": "uint256"
						}
					],
					"stateMutability": "view",
					"type": "function"
				},
				{
					"inputs": [
						{
							"internalType": "address",
							"name": "_to",
							"type": "address"
						},
						{
							"internalType": "uint256",
							"name": "_amount",
							"type": "uint256"
						}
					],
					"name": "transferPoints",
					"outputs": [],
					"stateMutability": "nonpayable",
					"type": "function"
				},
				{
					"inputs": [
						{
							"internalType": "uint256",
							"name": "",
							"type": "uint256"
						}
					],
					"name": "users",
					"outputs": [
						{
							"internalType": "address",
							"name": "",
							"type": "address"
						}
					],
					"stateMutability": "view",
					"type": "function"
				}
			],
			"devdoc": {
				"kind": "dev",
				"methods": {},
				"version": 1
			},
			"evm": {
				"assembly": "    /* \"contracts/Mapping.sol\":935:1624  contract PointsSystem {... */\n  mstore(0x40, 0x80)\n  callvalue\n  dup1\n  iszero\n  tag_1\n  jumpi\n  0x00\n  dup1\n  revert\ntag_1:\n  pop\n  dataSize(sub_0)\n  dup1\n  dataOffset(sub_0)\n  0x00\n  codecopy\n  0x00\n  return\nstop\n\nsub_0: assembly {\n        /* \"contracts/Mapping.sol\":935:1624  contract PointsSystem {... */\n      mstore(0x40, 0x80)\n      callvalue\n      dup1\n      iszero\n      tag_1\n      jumpi\n      0x00\n      dup1\n      revert\n    tag_1:\n      pop\n      jumpi(tag_2, lt(calldatasize, 0x04))\n      shr(0xe0, calldataload(0x00))\n      dup1\n      0x326f823f\n      eq\n      tag_3\n      jumpi\n      dup1\n      0x358b8166\n      eq\n      tag_4\n      jumpi\n      dup1\n      0x365b98b2\n      eq\n      tag_5\n      jumpi\n      dup1\n      0x421b2d8b\n      eq\n      tag_6\n      jumpi\n      dup1\n      0xe2842d79\n      eq\n      tag_7\n      jumpi\n      dup1\n      0xee204abb\n      eq\n      tag_8\n      jumpi\n    tag_2:\n      0x00\n      dup1\n      revert\n        /* \"contracts/Mapping.sol\":1218:1427  function transferPoints(address _to, uint _amount) public  {... */\n    tag_3:\n      tag_9\n      0x04\n      dup1\n      calldatasize\n      sub\n      dup2\n      add\n      swap1\n      tag_10\n      swap2\n      swap1\n      tag_11\n      jump\t// in\n    tag_10:\n      tag_12\n      jump\t// in\n    tag_9:\n      stop\n        /* \"contracts/Mapping.sol\":964:1003  mapping (address => uint) public points */\n    tag_4:\n      tag_13\n      0x04\n      dup1\n      calldatasize\n      sub\n      dup2\n      add\n      swap1\n      tag_14\n      swap2\n      swap1\n      tag_15\n      jump\t// in\n    tag_14:\n      tag_16\n      jump\t// in\n    tag_13:\n      mload(0x40)\n      tag_17\n      swap2\n      swap1\n      tag_18\n      jump\t// in\n    tag_17:\n      mload(0x40)\n      dup1\n      swap2\n      sub\n      swap1\n      return\n        /* \"contracts/Mapping.sol\":1009:1031  address[] public users */\n    tag_5:\n      tag_19\n      0x04\n      dup1\n      calldatasize\n      sub\n      dup2\n      add\n      swap1\n      tag_20\n      swap2\n      swap1\n      tag_21\n      jump\t// in\n    tag_20:\n      tag_22\n      jump\t// in\n    tag_19:\n      mload(0x40)\n      tag_23\n      swap2\n      swap1\n      tag_24\n      jump\t// in\n    tag_23:\n      mload(0x40)\n      dup1\n      swap2\n      sub\n      swap1\n      return\n        /* \"contracts/Mapping.sol\":1037:1213  function addUser(address add) public  {... */\n    tag_6:\n      tag_25\n      0x04\n      dup1\n      calldatasize\n      sub\n      dup2\n      add\n      swap1\n      tag_26\n      swap2\n      swap1\n      tag_15\n      jump\t// in\n    tag_26:\n      tag_27\n      jump\t// in\n    tag_25:\n      stop\n        /* \"contracts/Mapping.sol\":1432:1518  function getAllUsers() public returns (address[] memory) {... */\n    tag_7:\n      tag_28\n      tag_29\n      jump\t// in\n    tag_28:\n      mload(0x40)\n      tag_30\n      swap2\n      swap1\n      tag_31\n      jump\t// in\n    tag_30:\n      mload(0x40)\n      dup1\n      swap2\n      sub\n      swap1\n      return\n        /* \"contracts/Mapping.sol\":1523:1620  function getPoints(address userAdd) public returns (uint) {... */\n    tag_8:\n      tag_32\n      0x04\n      dup1\n      calldatasize\n      sub\n      dup2\n      add\n      swap1\n      tag_33\n      swap2\n      swap1\n      tag_15\n      jump\t// in\n    tag_33:\n      tag_34\n      jump\t// in\n    tag_32:\n      mload(0x40)\n      tag_35\n      swap2\n      swap1\n      tag_18\n      jump\t// in\n    tag_35:\n      mload(0x40)\n      dup1\n      swap2\n      sub\n      swap1\n      return\n        /* \"contracts/Mapping.sol\":1218:1427  function transferPoints(address _to, uint _amount) public  {... */\n    tag_12:\n        /* \"contracts/Mapping.sol\":1317:1324  _amount */\n      dup1\n        /* \"contracts/Mapping.sol\":1295:1301  points */\n      0x00\n        /* \"contracts/Mapping.sol\":1295:1313  points[msg.sender] */\n      dup1\n        /* \"contracts/Mapping.sol\":1302:1312  msg.sender */\n      caller\n        /* \"contracts/Mapping.sol\":1295:1313  points[msg.sender] */\n      0xffffffffffffffffffffffffffffffffffffffff\n      and\n      0xffffffffffffffffffffffffffffffffffffffff\n      and\n      dup2\n      mstore\n      0x20\n      add\n      swap1\n      dup2\n      mstore\n      0x20\n      add\n      0x00\n      keccak256\n      sload\n        /* \"contracts/Mapping.sol\":1295:1324  points[msg.sender] >= _amount */\n      lt\n      iszero\n        /* \"contracts/Mapping.sol\":1287:1349  require(points[msg.sender] >= _amount, \"Insufficient points.\") */\n      tag_37\n      jumpi\n      mload(0x40)\n      0x08c379a000000000000000000000000000000000000000000000000000000000\n      dup2\n      mstore\n      0x04\n      add\n      tag_38\n      swap1\n      tag_39\n      jump\t// in\n    tag_38:\n      mload(0x40)\n      dup1\n      swap2\n      sub\n      swap1\n      revert\n    tag_37:\n        /* \"contracts/Mapping.sol\":1381:1388  _amount */\n      dup1\n        /* \"contracts/Mapping.sol\":1359:1365  points */\n      0x00\n        /* \"contracts/Mapping.sol\":1359:1377  points[msg.sender] */\n      dup1\n        /* \"contracts/Mapping.sol\":1366:1376  msg.sender */\n      caller\n        /* \"contracts/Mapping.sol\":1359:1377  points[msg.sender] */\n      0xffffffffffffffffffffffffffffffffffffffff\n      and\n      0xffffffffffffffffffffffffffffffffffffffff\n      and\n      dup2\n      mstore\n      0x20\n      add\n      swap1\n      dup2\n      mstore\n      0x20\n      add\n      0x00\n      keccak256\n      0x00\n        /* \"contracts/Mapping.sol\":1359:1388  points[msg.sender] -= _amount */\n      dup3\n      dup3\n      sload\n      tag_40\n      swap2\n      swap1\n      tag_41\n      jump\t// in\n    tag_40:\n      swap3\n      pop\n      pop\n      dup2\n      swap1\n      sstore\n      pop\n        /* \"contracts/Mapping.sol\":1413:1420  _amount */\n      dup1\n        /* \"contracts/Mapping.sol\":1398:1404  points */\n      0x00\n        /* \"contracts/Mapping.sol\":1398:1409  points[_to] */\n      dup1\n        /* \"contracts/Mapping.sol\":1405:1408  _to */\n      dup5\n        /* \"contracts/Mapping.sol\":1398:1409  points[_to] */\n      0xffffffffffffffffffffffffffffffffffffffff\n      and\n      0xffffffffffffffffffffffffffffffffffffffff\n      and\n      dup2\n      mstore\n      0x20\n      add\n      swap1\n      dup2\n      mstore\n      0x20\n      add\n      0x00\n      keccak256\n      0x00\n        /* \"contracts/Mapping.sol\":1398:1420  points[_to] += _amount */\n      dup3\n      dup3\n      sload\n      tag_42\n      swap2\n      swap1\n      tag_43\n      jump\t// in\n    tag_42:\n      swap3\n      pop\n      pop\n      dup2\n      swap1\n      sstore\n      pop\n        /* \"contracts/Mapping.sol\":1218:1427  function transferPoints(address _to, uint _amount) public  {... */\n      pop\n      pop\n      jump\t// out\n        /* \"contracts/Mapping.sol\":964:1003  mapping (address => uint) public points */\n    tag_16:\n      mstore(0x20, 0x00)\n      dup1\n      0x00\n      mstore\n      keccak256(0x00, 0x40)\n      0x00\n      swap2\n      pop\n      swap1\n      pop\n      sload\n      dup2\n      jump\t// out\n        /* \"contracts/Mapping.sol\":1009:1031  address[] public users */\n    tag_22:\n      0x01\n      dup2\n      dup2\n      sload\n      dup2\n      lt\n      tag_44\n      jumpi\n      0x00\n      dup1\n      revert\n    tag_44:\n      swap1\n      0x00\n      mstore\n      keccak256(0x00, 0x20)\n      add\n      0x00\n      swap2\n      pop\n      sload\n      swap1\n      0x0100\n      exp\n      swap1\n      div\n      0xffffffffffffffffffffffffffffffffffffffff\n      and\n      dup2\n      jump\t// out\n        /* \"contracts/Mapping.sol\":1037:1213  function addUser(address add) public  {... */\n    tag_27:\n        /* \"contracts/Mapping.sol\":1108:1109  0 */\n      0x00\n        /* \"contracts/Mapping.sol\":1093:1099  points */\n      dup1\n        /* \"contracts/Mapping.sol\":1093:1104  points[add] */\n      0x00\n        /* \"contracts/Mapping.sol\":1100:1103  add */\n      dup4\n        /* \"contracts/Mapping.sol\":1093:1104  points[add] */\n      0xffffffffffffffffffffffffffffffffffffffff\n      and\n      0xffffffffffffffffffffffffffffffffffffffff\n      and\n      dup2\n      mstore\n      0x20\n      add\n      swap1\n      dup2\n      mstore\n      0x20\n      add\n      0x00\n      keccak256\n      sload\n        /* \"contracts/Mapping.sol\":1093:1109  points[add] == 0 */\n      eq\n        /* \"contracts/Mapping.sol\":1085:1132  require(points[add] == 0, \"user already exist\") */\n      tag_47\n      jumpi\n      mload(0x40)\n      0x08c379a000000000000000000000000000000000000000000000000000000000\n      dup2\n      mstore\n      0x04\n      add\n      tag_48\n      swap1\n      tag_49\n      jump\t// in\n    tag_48:\n      mload(0x40)\n      dup1\n      swap2\n      sub\n      swap1\n      revert\n    tag_47:\n        /* \"contracts/Mapping.sol\":1156:1165  100000000 */\n      0x05f5e100\n        /* \"contracts/Mapping.sol\":1142:1148  points */\n      0x00\n        /* \"contracts/Mapping.sol\":1142:1153  points[add] */\n      dup1\n        /* \"contracts/Mapping.sol\":1149:1152  add */\n      dup4\n        /* \"contracts/Mapping.sol\":1142:1153  points[add] */\n      0xffffffffffffffffffffffffffffffffffffffff\n      and\n      0xffffffffffffffffffffffffffffffffffffffff\n      and\n      dup2\n      mstore\n      0x20\n      add\n      swap1\n      dup2\n      mstore\n      0x20\n      add\n      0x00\n      keccak256\n        /* \"contracts/Mapping.sol\":1142:1165  points[add] = 100000000 */\n      dup2\n      swap1\n      sstore\n      pop\n        /* \"contracts/Mapping.sol\":1191:1196  users */\n      0x01\n        /* \"contracts/Mapping.sol\":1202:1205  add */\n      dup2\n        /* \"contracts/Mapping.sol\":1191:1206  users.push(add) */\n      swap1\n      dup1\n      0x01\n      dup2\n      sload\n      add\n      dup1\n      dup3\n      sstore\n      dup1\n      swap2\n      pop\n      pop\n      0x01\n      swap1\n      sub\n      swap1\n      0x00\n      mstore\n      keccak256(0x00, 0x20)\n      add\n      0x00\n      swap1\n      swap2\n      swap1\n      swap2\n      swap1\n      swap2\n      0x0100\n      exp\n      dup2\n      sload\n      dup2\n      0xffffffffffffffffffffffffffffffffffffffff\n      mul\n      not\n      and\n      swap1\n      dup4\n      0xffffffffffffffffffffffffffffffffffffffff\n      and\n      mul\n      or\n      swap1\n      sstore\n      pop\n        /* \"contracts/Mapping.sol\":1037:1213  function addUser(address add) public  {... */\n      pop\n      jump\t// out\n        /* \"contracts/Mapping.sol\":1432:1518  function getAllUsers() public returns (address[] memory) {... */\n    tag_29:\n        /* \"contracts/Mapping.sol\":1471:1487  address[] memory */\n      0x60\n        /* \"contracts/Mapping.sol\":1506:1511  users */\n      0x01\n        /* \"contracts/Mapping.sol\":1499:1511  return users */\n      dup1\n      sload\n      dup1\n      0x20\n      mul\n      0x20\n      add\n      mload(0x40)\n      swap1\n      dup2\n      add\n      0x40\n      mstore\n      dup1\n      swap3\n      swap2\n      swap1\n      dup2\n      dup2\n      mstore\n      0x20\n      add\n      dup3\n      dup1\n      sload\n      dup1\n      iszero\n      tag_52\n      jumpi\n      0x20\n      mul\n      dup3\n      add\n      swap2\n      swap1\n      0x00\n      mstore\n      keccak256(0x00, 0x20)\n      swap1\n    tag_53:\n      dup2\n      0x00\n      swap1\n      sload\n      swap1\n      0x0100\n      exp\n      swap1\n      div\n      0xffffffffffffffffffffffffffffffffffffffff\n      and\n      0xffffffffffffffffffffffffffffffffffffffff\n      and\n      dup2\n      mstore\n      0x20\n      add\n      swap1\n      0x01\n      add\n      swap1\n      dup1\n      dup4\n      gt\n      tag_53\n      jumpi\n    tag_52:\n      pop\n      pop\n      pop\n      pop\n      pop\n      swap1\n      pop\n        /* \"contracts/Mapping.sol\":1432:1518  function getAllUsers() public returns (address[] memory) {... */\n      swap1\n      jump\t// out\n        /* \"contracts/Mapping.sol\":1523:1620  function getPoints(address userAdd) public returns (uint) {... */\n    tag_34:\n        /* \"contracts/Mapping.sol\":1575:1579  uint */\n      0x00\n        /* \"contracts/Mapping.sol\":1598:1604  points */\n      dup1\n        /* \"contracts/Mapping.sol\":1598:1613  points[userAdd] */\n      0x00\n        /* \"contracts/Mapping.sol\":1605:1612  userAdd */\n      dup4\n        /* \"contracts/Mapping.sol\":1598:1613  points[userAdd] */\n      0xffffffffffffffffffffffffffffffffffffffff\n      and\n      0xffffffffffffffffffffffffffffffffffffffff\n      and\n      dup2\n      mstore\n      0x20\n      add\n      swap1\n      dup2\n      mstore\n      0x20\n      add\n      0x00\n      keccak256\n      sload\n        /* \"contracts/Mapping.sol\":1591:1613  return points[userAdd] */\n      swap1\n      pop\n        /* \"contracts/Mapping.sol\":1523:1620  function getPoints(address userAdd) public returns (uint) {... */\n      swap2\n      swap1\n      pop\n      jump\t// out\n        /* \"#utility.yul\":88:205   */\n    tag_56:\n        /* \"#utility.yul\":197:198   */\n      0x00\n        /* \"#utility.yul\":194:195   */\n      dup1\n        /* \"#utility.yul\":187:199   */\n      revert\n        /* \"#utility.yul\":334:460   */\n    tag_58:\n        /* \"#utility.yul\":371:378   */\n      0x00\n        /* \"#utility.yul\":411:453   */\n      0xffffffffffffffffffffffffffffffffffffffff\n        /* \"#utility.yul\":404:409   */\n      dup3\n        /* \"#utility.yul\":400:454   */\n      and\n        /* \"#utility.yul\":389:454   */\n      swap1\n      pop\n        /* \"#utility.yul\":334:460   */\n      swap2\n      swap1\n      pop\n      jump\t// out\n        /* \"#utility.yul\":466:562   */\n    tag_59:\n        /* \"#utility.yul\":503:510   */\n      0x00\n        /* \"#utility.yul\":532:556   */\n      tag_86\n        /* \"#utility.yul\":550:555   */\n      dup3\n        /* \"#utility.yul\":532:556   */\n      tag_58\n      jump\t// in\n    tag_86:\n        /* \"#utility.yul\":521:556   */\n      swap1\n      pop\n        /* \"#utility.yul\":466:562   */\n      swap2\n      swap1\n      pop\n      jump\t// out\n        /* \"#utility.yul\":568:690   */\n    tag_60:\n        /* \"#utility.yul\":641:665   */\n      tag_88\n        /* \"#utility.yul\":659:664   */\n      dup2\n        /* \"#utility.yul\":641:665   */\n      tag_59\n      jump\t// in\n    tag_88:\n        /* \"#utility.yul\":634:639   */\n      dup2\n        /* \"#utility.yul\":631:666   */\n      eq\n        /* \"#utility.yul\":621:684   */\n      tag_89\n      jumpi\n        /* \"#utility.yul\":680:681   */\n      0x00\n        /* \"#utility.yul\":677:678   */\n      dup1\n        /* \"#utility.yul\":670:682   */\n      revert\n        /* \"#utility.yul\":621:684   */\n    tag_89:\n        /* \"#utility.yul\":568:690   */\n      pop\n      jump\t// out\n        /* \"#utility.yul\":696:835   */\n    tag_61:\n        /* \"#utility.yul\":742:747   */\n      0x00\n        /* \"#utility.yul\":780:786   */\n      dup2\n        /* \"#utility.yul\":767:787   */\n      calldataload\n        /* \"#utility.yul\":758:787   */\n      swap1\n      pop\n        /* \"#utility.yul\":796:829   */\n      tag_91\n        /* \"#utility.yul\":823:828   */\n      dup2\n        /* \"#utility.yul\":796:829   */\n      tag_60\n      jump\t// in\n    tag_91:\n        /* \"#utility.yul\":696:835   */\n      swap3\n      swap2\n      pop\n      pop\n      jump\t// out\n        /* \"#utility.yul\":841:918   */\n    tag_62:\n        /* \"#utility.yul\":878:885   */\n      0x00\n        /* \"#utility.yul\":907:912   */\n      dup2\n        /* \"#utility.yul\":896:912   */\n      swap1\n      pop\n        /* \"#utility.yul\":841:918   */\n      swap2\n      swap1\n      pop\n      jump\t// out\n        /* \"#utility.yul\":924:1046   */\n    tag_63:\n        /* \"#utility.yul\":997:1021   */\n      tag_94\n        /* \"#utility.yul\":1015:1020   */\n      dup2\n        /* \"#utility.yul\":997:1021   */\n      tag_62\n      jump\t// in\n    tag_94:\n        /* \"#utility.yul\":990:995   */\n      dup2\n        /* \"#utility.yul\":987:1022   */\n      eq\n        /* \"#utility.yul\":977:1040   */\n      tag_95\n      jumpi\n        /* \"#utility.yul\":1036:1037   */\n      0x00\n        /* \"#utility.yul\":1033:1034   */\n      dup1\n        /* \"#utility.yul\":1026:1038   */\n      revert\n        /* \"#utility.yul\":977:1040   */\n    tag_95:\n        /* \"#utility.yul\":924:1046   */\n      pop\n      jump\t// out\n        /* \"#utility.yul\":1052:1191   */\n    tag_64:\n        /* \"#utility.yul\":1098:1103   */\n      0x00\n        /* \"#utility.yul\":1136:1142   */\n      dup2\n        /* \"#utility.yul\":1123:1143   */\n      calldataload\n        /* \"#utility.yul\":1114:1143   */\n      swap1\n      pop\n        /* \"#utility.yul\":1152:1185   */\n      tag_97\n        /* \"#utility.yul\":1179:1184   */\n      dup2\n        /* \"#utility.yul\":1152:1185   */\n      tag_63\n      jump\t// in\n    tag_97:\n        /* \"#utility.yul\":1052:1191   */\n      swap3\n      swap2\n      pop\n      pop\n      jump\t// out\n        /* \"#utility.yul\":1197:1671   */\n    tag_11:\n        /* \"#utility.yul\":1265:1271   */\n      0x00\n        /* \"#utility.yul\":1273:1279   */\n      dup1\n        /* \"#utility.yul\":1322:1324   */\n      0x40\n        /* \"#utility.yul\":1310:1319   */\n      dup4\n        /* \"#utility.yul\":1301:1308   */\n      dup6\n        /* \"#utility.yul\":1297:1320   */\n      sub\n        /* \"#utility.yul\":1293:1325   */\n      slt\n        /* \"#utility.yul\":1290:1409   */\n      iszero\n      tag_99\n      jumpi\n        /* \"#utility.yul\":1328:1407   */\n      tag_100\n      tag_56\n      jump\t// in\n    tag_100:\n        /* \"#utility.yul\":1290:1409   */\n    tag_99:\n        /* \"#utility.yul\":1448:1449   */\n      0x00\n        /* \"#utility.yul\":1473:1526   */\n      tag_101\n        /* \"#utility.yul\":1518:1525   */\n      dup6\n        /* \"#utility.yul\":1509:1515   */\n      dup3\n        /* \"#utility.yul\":1498:1507   */\n      dup7\n        /* \"#utility.yul\":1494:1516   */\n      add\n        /* \"#utility.yul\":1473:1526   */\n      tag_61\n      jump\t// in\n    tag_101:\n        /* \"#utility.yul\":1463:1526   */\n      swap3\n      pop\n        /* \"#utility.yul\":1419:1536   */\n      pop\n        /* \"#utility.yul\":1575:1577   */\n      0x20\n        /* \"#utility.yul\":1601:1654   */\n      tag_102\n        /* \"#utility.yul\":1646:1653   */\n      dup6\n        /* \"#utility.yul\":1637:1643   */\n      dup3\n        /* \"#utility.yul\":1626:1635   */\n      dup7\n        /* \"#utility.yul\":1622:1644   */\n      add\n        /* \"#utility.yul\":1601:1654   */\n      tag_64\n      jump\t// in\n    tag_102:\n        /* \"#utility.yul\":1591:1654   */\n      swap2\n      pop\n        /* \"#utility.yul\":1546:1664   */\n      pop\n        /* \"#utility.yul\":1197:1671   */\n      swap3\n      pop\n      swap3\n      swap1\n      pop\n      jump\t// out\n        /* \"#utility.yul\":1677:2006   */\n    tag_15:\n        /* \"#utility.yul\":1736:1742   */\n      0x00\n        /* \"#utility.yul\":1785:1787   */\n      0x20\n        /* \"#utility.yul\":1773:1782   */\n      dup3\n        /* \"#utility.yul\":1764:1771   */\n      dup5\n        /* \"#utility.yul\":1760:1783   */\n      sub\n        /* \"#utility.yul\":1756:1788   */\n      slt\n        /* \"#utility.yul\":1753:1872   */\n      iszero\n      tag_104\n      jumpi\n        /* \"#utility.yul\":1791:1870   */\n      tag_105\n      tag_56\n      jump\t// in\n    tag_105:\n        /* \"#utility.yul\":1753:1872   */\n    tag_104:\n        /* \"#utility.yul\":1911:1912   */\n      0x00\n        /* \"#utility.yul\":1936:1989   */\n      tag_106\n        /* \"#utility.yul\":1981:1988   */\n      dup5\n        /* \"#utility.yul\":1972:1978   */\n      dup3\n        /* \"#utility.yul\":1961:1970   */\n      dup6\n        /* \"#utility.yul\":1957:1979   */\n      add\n        /* \"#utility.yul\":1936:1989   */\n      tag_61\n      jump\t// in\n    tag_106:\n        /* \"#utility.yul\":1926:1989   */\n      swap2\n      pop\n        /* \"#utility.yul\":1882:1999   */\n      pop\n        /* \"#utility.yul\":1677:2006   */\n      swap3\n      swap2\n      pop\n      pop\n      jump\t// out\n        /* \"#utility.yul\":2012:2130   */\n    tag_65:\n        /* \"#utility.yul\":2099:2123   */\n      tag_108\n        /* \"#utility.yul\":2117:2122   */\n      dup2\n        /* \"#utility.yul\":2099:2123   */\n      tag_62\n      jump\t// in\n    tag_108:\n        /* \"#utility.yul\":2094:2097   */\n      dup3\n        /* \"#utility.yul\":2087:2124   */\n      mstore\n        /* \"#utility.yul\":2012:2130   */\n      pop\n      pop\n      jump\t// out\n        /* \"#utility.yul\":2136:2358   */\n    tag_18:\n        /* \"#utility.yul\":2229:2233   */\n      0x00\n        /* \"#utility.yul\":2267:2269   */\n      0x20\n        /* \"#utility.yul\":2256:2265   */\n      dup3\n        /* \"#utility.yul\":2252:2270   */\n      add\n        /* \"#utility.yul\":2244:2270   */\n      swap1\n      pop\n        /* \"#utility.yul\":2280:2351   */\n      tag_110\n        /* \"#utility.yul\":2348:2349   */\n      0x00\n        /* \"#utility.yul\":2337:2346   */\n      dup4\n        /* \"#utility.yul\":2333:2350   */\n      add\n        /* \"#utility.yul\":2324:2330   */\n      dup5\n        /* \"#utility.yul\":2280:2351   */\n      tag_65\n      jump\t// in\n    tag_110:\n        /* \"#utility.yul\":2136:2358   */\n      swap3\n      swap2\n      pop\n      pop\n      jump\t// out\n        /* \"#utility.yul\":2364:2693   */\n    tag_21:\n        /* \"#utility.yul\":2423:2429   */\n      0x00\n        /* \"#utility.yul\":2472:2474   */\n      0x20\n        /* \"#utility.yul\":2460:2469   */\n      dup3\n        /* \"#utility.yul\":2451:2458   */\n      dup5\n        /* \"#utility.yul\":2447:2470   */\n      sub\n        /* \"#utility.yul\":2443:2475   */\n      slt\n        /* \"#utility.yul\":2440:2559   */\n      iszero\n      tag_112\n      jumpi\n        /* \"#utility.yul\":2478:2557   */\n      tag_113\n      tag_56\n      jump\t// in\n    tag_113:\n        /* \"#utility.yul\":2440:2559   */\n    tag_112:\n        /* \"#utility.yul\":2598:2599   */\n      0x00\n        /* \"#utility.yul\":2623:2676   */\n      tag_114\n        /* \"#utility.yul\":2668:2675   */\n      dup5\n        /* \"#utility.yul\":2659:2665   */\n      dup3\n        /* \"#utility.yul\":2648:2657   */\n      dup6\n        /* \"#utility.yul\":2644:2666   */\n      add\n        /* \"#utility.yul\":2623:2676   */\n      tag_64\n      jump\t// in\n    tag_114:\n        /* \"#utility.yul\":2613:2676   */\n      swap2\n      pop\n        /* \"#utility.yul\":2569:2686   */\n      pop\n        /* \"#utility.yul\":2364:2693   */\n      swap3\n      swap2\n      pop\n      pop\n      jump\t// out\n        /* \"#utility.yul\":2699:2817   */\n    tag_66:\n        /* \"#utility.yul\":2786:2810   */\n      tag_116\n        /* \"#utility.yul\":2804:2809   */\n      dup2\n        /* \"#utility.yul\":2786:2810   */\n      tag_59\n      jump\t// in\n    tag_116:\n        /* \"#utility.yul\":2781:2784   */\n      dup3\n        /* \"#utility.yul\":2774:2811   */\n      mstore\n        /* \"#utility.yul\":2699:2817   */\n      pop\n      pop\n      jump\t// out\n        /* \"#utility.yul\":2823:3045   */\n    tag_24:\n        /* \"#utility.yul\":2916:2920   */\n      0x00\n        /* \"#utility.yul\":2954:2956   */\n      0x20\n        /* \"#utility.yul\":2943:2952   */\n      dup3\n        /* \"#utility.yul\":2939:2957   */\n      add\n        /* \"#utility.yul\":2931:2957   */\n      swap1\n      pop\n        /* \"#utility.yul\":2967:3038   */\n      tag_118\n        /* \"#utility.yul\":3035:3036   */\n      0x00\n        /* \"#utility.yul\":3024:3033   */\n      dup4\n        /* \"#utility.yul\":3020:3037   */\n      add\n        /* \"#utility.yul\":3011:3017   */\n      dup5\n        /* \"#utility.yul\":2967:3038   */\n      tag_66\n      jump\t// in\n    tag_118:\n        /* \"#utility.yul\":2823:3045   */\n      swap3\n      swap2\n      pop\n      pop\n      jump\t// out\n        /* \"#utility.yul\":3051:3165   */\n    tag_67:\n        /* \"#utility.yul\":3118:3124   */\n      0x00\n        /* \"#utility.yul\":3152:3157   */\n      dup2\n        /* \"#utility.yul\":3146:3158   */\n      mload\n        /* \"#utility.yul\":3136:3158   */\n      swap1\n      pop\n        /* \"#utility.yul\":3051:3165   */\n      swap2\n      swap1\n      pop\n      jump\t// out\n        /* \"#utility.yul\":3171:3355   */\n    tag_68:\n        /* \"#utility.yul\":3270:3281   */\n      0x00\n        /* \"#utility.yul\":3304:3310   */\n      dup3\n        /* \"#utility.yul\":3299:3302   */\n      dup3\n        /* \"#utility.yul\":3292:3311   */\n      mstore\n        /* \"#utility.yul\":3344:3348   */\n      0x20\n        /* \"#utility.yul\":3339:3342   */\n      dup3\n        /* \"#utility.yul\":3335:3349   */\n      add\n        /* \"#utility.yul\":3320:3349   */\n      swap1\n      pop\n        /* \"#utility.yul\":3171:3355   */\n      swap3\n      swap2\n      pop\n      pop\n      jump\t// out\n        /* \"#utility.yul\":3361:3493   */\n    tag_69:\n        /* \"#utility.yul\":3428:3432   */\n      0x00\n        /* \"#utility.yul\":3451:3454   */\n      dup2\n        /* \"#utility.yul\":3443:3454   */\n      swap1\n      pop\n        /* \"#utility.yul\":3481:3485   */\n      0x20\n        /* \"#utility.yul\":3476:3479   */\n      dup3\n        /* \"#utility.yul\":3472:3486   */\n      add\n        /* \"#utility.yul\":3464:3486   */\n      swap1\n      pop\n        /* \"#utility.yul\":3361:3493   */\n      swap2\n      swap1\n      pop\n      jump\t// out\n        /* \"#utility.yul\":3499:3607   */\n    tag_70:\n        /* \"#utility.yul\":3576:3600   */\n      tag_123\n        /* \"#utility.yul\":3594:3599   */\n      dup2\n        /* \"#utility.yul\":3576:3600   */\n      tag_59\n      jump\t// in\n    tag_123:\n        /* \"#utility.yul\":3571:3574   */\n      dup3\n        /* \"#utility.yul\":3564:3601   */\n      mstore\n        /* \"#utility.yul\":3499:3607   */\n      pop\n      pop\n      jump\t// out\n        /* \"#utility.yul\":3613:3792   */\n    tag_71:\n        /* \"#utility.yul\":3682:3692   */\n      0x00\n        /* \"#utility.yul\":3703:3749   */\n      tag_125\n        /* \"#utility.yul\":3745:3748   */\n      dup4\n        /* \"#utility.yul\":3737:3743   */\n      dup4\n        /* \"#utility.yul\":3703:3749   */\n      tag_70\n      jump\t// in\n    tag_125:\n        /* \"#utility.yul\":3781:3785   */\n      0x20\n        /* \"#utility.yul\":3776:3779   */\n      dup4\n        /* \"#utility.yul\":3772:3786   */\n      add\n        /* \"#utility.yul\":3758:3786   */\n      swap1\n      pop\n        /* \"#utility.yul\":3613:3792   */\n      swap3\n      swap2\n      pop\n      pop\n      jump\t// out\n        /* \"#utility.yul\":3798:3911   */\n    tag_72:\n        /* \"#utility.yul\":3868:3872   */\n      0x00\n        /* \"#utility.yul\":3900:3904   */\n      0x20\n        /* \"#utility.yul\":3895:3898   */\n      dup3\n        /* \"#utility.yul\":3891:3905   */\n      add\n        /* \"#utility.yul\":3883:3905   */\n      swap1\n      pop\n        /* \"#utility.yul\":3798:3911   */\n      swap2\n      swap1\n      pop\n      jump\t// out\n        /* \"#utility.yul\":3947:4679   */\n    tag_73:\n        /* \"#utility.yul\":4066:4069   */\n      0x00\n        /* \"#utility.yul\":4095:4149   */\n      tag_128\n        /* \"#utility.yul\":4143:4148   */\n      dup3\n        /* \"#utility.yul\":4095:4149   */\n      tag_67\n      jump\t// in\n    tag_128:\n        /* \"#utility.yul\":4165:4251   */\n      tag_129\n        /* \"#utility.yul\":4244:4250   */\n      dup2\n        /* \"#utility.yul\":4239:4242   */\n      dup6\n        /* \"#utility.yul\":4165:4251   */\n      tag_68\n      jump\t// in\n    tag_129:\n        /* \"#utility.yul\":4158:4251   */\n      swap4\n      pop\n        /* \"#utility.yul\":4275:4331   */\n      tag_130\n        /* \"#utility.yul\":4325:4330   */\n      dup4\n        /* \"#utility.yul\":4275:4331   */\n      tag_69\n      jump\t// in\n    tag_130:\n        /* \"#utility.yul\":4354:4361   */\n      dup1\n        /* \"#utility.yul\":4385:4386   */\n      0x00\n        /* \"#utility.yul\":4370:4654   */\n    tag_131:\n        /* \"#utility.yul\":4395:4401   */\n      dup4\n        /* \"#utility.yul\":4392:4393   */\n      dup2\n        /* \"#utility.yul\":4389:4402   */\n      lt\n        /* \"#utility.yul\":4370:4654   */\n      iszero\n      tag_133\n      jumpi\n        /* \"#utility.yul\":4471:4477   */\n      dup2\n        /* \"#utility.yul\":4465:4478   */\n      mload\n        /* \"#utility.yul\":4498:4561   */\n      tag_134\n        /* \"#utility.yul\":4557:4560   */\n      dup9\n        /* \"#utility.yul\":4542:4555   */\n      dup3\n        /* \"#utility.yul\":4498:4561   */\n      tag_71\n      jump\t// in\n    tag_134:\n        /* \"#utility.yul\":4491:4561   */\n      swap8\n      pop\n        /* \"#utility.yul\":4584:4644   */\n      tag_135\n        /* \"#utility.yul\":4637:4643   */\n      dup4\n        /* \"#utility.yul\":4584:4644   */\n      tag_72\n      jump\t// in\n    tag_135:\n        /* \"#utility.yul\":4574:4644   */\n      swap3\n      pop\n        /* \"#utility.yul\":4430:4654   */\n      pop\n        /* \"#utility.yul\":4417:4418   */\n      0x01\n        /* \"#utility.yul\":4414:4415   */\n      dup2\n        /* \"#utility.yul\":4410:4419   */\n      add\n        /* \"#utility.yul\":4405:4419   */\n      swap1\n      pop\n        /* \"#utility.yul\":4370:4654   */\n      jump(tag_131)\n    tag_133:\n        /* \"#utility.yul\":4374:4388   */\n      pop\n        /* \"#utility.yul\":4670:4673   */\n      dup6\n        /* \"#utility.yul\":4663:4673   */\n      swap4\n      pop\n        /* \"#utility.yul\":4071:4679   */\n      pop\n      pop\n      pop\n        /* \"#utility.yul\":3947:4679   */\n      swap3\n      swap2\n      pop\n      pop\n      jump\t// out\n        /* \"#utility.yul\":4685:5058   */\n    tag_31:\n        /* \"#utility.yul\":4828:4832   */\n      0x00\n        /* \"#utility.yul\":4866:4868   */\n      0x20\n        /* \"#utility.yul\":4855:4864   */\n      dup3\n        /* \"#utility.yul\":4851:4869   */\n      add\n        /* \"#utility.yul\":4843:4869   */\n      swap1\n      pop\n        /* \"#utility.yul\":4915:4924   */\n      dup2\n        /* \"#utility.yul\":4909:4913   */\n      dup2\n        /* \"#utility.yul\":4905:4925   */\n      sub\n        /* \"#utility.yul\":4901:4902   */\n      0x00\n        /* \"#utility.yul\":4890:4899   */\n      dup4\n        /* \"#utility.yul\":4886:4903   */\n      add\n        /* \"#utility.yul\":4879:4926   */\n      mstore\n        /* \"#utility.yul\":4943:5051   */\n      tag_137\n        /* \"#utility.yul\":5046:5050   */\n      dup2\n        /* \"#utility.yul\":5037:5043   */\n      dup5\n        /* \"#utility.yul\":4943:5051   */\n      tag_73\n      jump\t// in\n    tag_137:\n        /* \"#utility.yul\":4935:5051   */\n      swap1\n      pop\n        /* \"#utility.yul\":4685:5058   */\n      swap3\n      swap2\n      pop\n      pop\n      jump\t// out\n        /* \"#utility.yul\":5064:5233   */\n    tag_74:\n        /* \"#utility.yul\":5148:5159   */\n      0x00\n        /* \"#utility.yul\":5182:5188   */\n      dup3\n        /* \"#utility.yul\":5177:5180   */\n      dup3\n        /* \"#utility.yul\":5170:5189   */\n      mstore\n        /* \"#utility.yul\":5222:5226   */\n      0x20\n        /* \"#utility.yul\":5217:5220   */\n      dup3\n        /* \"#utility.yul\":5213:5227   */\n      add\n        /* \"#utility.yul\":5198:5227   */\n      swap1\n      pop\n        /* \"#utility.yul\":5064:5233   */\n      swap3\n      swap2\n      pop\n      pop\n      jump\t// out\n        /* \"#utility.yul\":5239:5409   */\n    tag_75:\n        /* \"#utility.yul\":5379:5401   */\n      0x496e73756666696369656e7420706f696e74732e000000000000000000000000\n        /* \"#utility.yul\":5375:5376   */\n      0x00\n        /* \"#utility.yul\":5367:5373   */\n      dup3\n        /* \"#utility.yul\":5363:5377   */\n      add\n        /* \"#utility.yul\":5356:5402   */\n      mstore\n        /* \"#utility.yul\":5239:5409   */\n      pop\n      jump\t// out\n        /* \"#utility.yul\":5415:5781   */\n    tag_76:\n        /* \"#utility.yul\":5557:5560   */\n      0x00\n        /* \"#utility.yul\":5578:5645   */\n      tag_141\n        /* \"#utility.yul\":5642:5644   */\n      0x14\n        /* \"#utility.yul\":5637:5640   */\n      dup4\n        /* \"#utility.yul\":5578:5645   */\n      tag_74\n      jump\t// in\n    tag_141:\n        /* \"#utility.yul\":5571:5645   */\n      swap2\n      pop\n        /* \"#utility.yul\":5654:5747   */\n      tag_142\n        /* \"#utility.yul\":5743:5746   */\n      dup3\n        /* \"#utility.yul\":5654:5747   */\n      tag_75\n      jump\t// in\n    tag_142:\n        /* \"#utility.yul\":5772:5774   */\n      0x20\n        /* \"#utility.yul\":5767:5770   */\n      dup3\n        /* \"#utility.yul\":5763:5775   */\n      add\n        /* \"#utility.yul\":5756:5775   */\n      swap1\n      pop\n        /* \"#utility.yul\":5415:5781   */\n      swap2\n      swap1\n      pop\n      jump\t// out\n        /* \"#utility.yul\":5787:6206   */\n    tag_39:\n        /* \"#utility.yul\":5953:5957   */\n      0x00\n        /* \"#utility.yul\":5991:5993   */\n      0x20\n        /* \"#utility.yul\":5980:5989   */\n      dup3\n        /* \"#utility.yul\":5976:5994   */\n      add\n        /* \"#utility.yul\":5968:5994   */\n      swap1\n      pop\n        /* \"#utility.yul\":6040:6049   */\n      dup2\n        /* \"#utility.yul\":6034:6038   */\n      dup2\n        /* \"#utility.yul\":6030:6050   */\n      sub\n        /* \"#utility.yul\":6026:6027   */\n      0x00\n        /* \"#utility.yul\":6015:6024   */\n      dup4\n        /* \"#utility.yul\":6011:6028   */\n      add\n        /* \"#utility.yul\":6004:6051   */\n      mstore\n        /* \"#utility.yul\":6068:6199   */\n      tag_144\n        /* \"#utility.yul\":6194:6198   */\n      dup2\n        /* \"#utility.yul\":6068:6199   */\n      tag_76\n      jump\t// in\n    tag_144:\n        /* \"#utility.yul\":6060:6199   */\n      swap1\n      pop\n        /* \"#utility.yul\":5787:6206   */\n      swap2\n      swap1\n      pop\n      jump\t// out\n        /* \"#utility.yul\":6212:6392   */\n    tag_77:\n        /* \"#utility.yul\":6260:6337   */\n      0x4e487b7100000000000000000000000000000000000000000000000000000000\n        /* \"#utility.yul\":6257:6258   */\n      0x00\n        /* \"#utility.yul\":6250:6338   */\n      mstore\n        /* \"#utility.yul\":6357:6361   */\n      0x11\n        /* \"#utility.yul\":6354:6355   */\n      0x04\n        /* \"#utility.yul\":6347:6362   */\n      mstore\n        /* \"#utility.yul\":6381:6385   */\n      0x24\n        /* \"#utility.yul\":6378:6379   */\n      0x00\n        /* \"#utility.yul\":6371:6386   */\n      revert\n        /* \"#utility.yul\":6398:6592   */\n    tag_41:\n        /* \"#utility.yul\":6438:6442   */\n      0x00\n        /* \"#utility.yul\":6458:6478   */\n      tag_147\n        /* \"#utility.yul\":6476:6477   */\n      dup3\n        /* \"#utility.yul\":6458:6478   */\n      tag_62\n      jump\t// in\n    tag_147:\n        /* \"#utility.yul\":6453:6478   */\n      swap2\n      pop\n        /* \"#utility.yul\":6492:6512   */\n      tag_148\n        /* \"#utility.yul\":6510:6511   */\n      dup4\n        /* \"#utility.yul\":6492:6512   */\n      tag_62\n      jump\t// in\n    tag_148:\n        /* \"#utility.yul\":6487:6512   */\n      swap3\n      pop\n        /* \"#utility.yul\":6536:6537   */\n      dup3\n        /* \"#utility.yul\":6533:6534   */\n      dup3\n        /* \"#utility.yul\":6529:6538   */\n      sub\n        /* \"#utility.yul\":6521:6538   */\n      swap1\n      pop\n        /* \"#utility.yul\":6560:6561   */\n      dup2\n        /* \"#utility.yul\":6554:6558   */\n      dup2\n        /* \"#utility.yul\":6551:6562   */\n      gt\n        /* \"#utility.yul\":6548:6585   */\n      iszero\n      tag_149\n      jumpi\n        /* \"#utility.yul\":6565:6583   */\n      tag_150\n      tag_77\n      jump\t// in\n    tag_150:\n        /* \"#utility.yul\":6548:6585   */\n    tag_149:\n        /* \"#utility.yul\":6398:6592   */\n      swap3\n      swap2\n      pop\n      pop\n      jump\t// out\n        /* \"#utility.yul\":6598:6789   */\n    tag_43:\n        /* \"#utility.yul\":6638:6641   */\n      0x00\n        /* \"#utility.yul\":6657:6677   */\n      tag_152\n        /* \"#utility.yul\":6675:6676   */\n      dup3\n        /* \"#utility.yul\":6657:6677   */\n      tag_62\n      jump\t// in\n    tag_152:\n        /* \"#utility.yul\":6652:6677   */\n      swap2\n      pop\n        /* \"#utility.yul\":6691:6711   */\n      tag_153\n        /* \"#utility.yul\":6709:6710   */\n      dup4\n        /* \"#utility.yul\":6691:6711   */\n      tag_62\n      jump\t// in\n    tag_153:\n        /* \"#utility.yul\":6686:6711   */\n      swap3\n      pop\n        /* \"#utility.yul\":6734:6735   */\n      dup3\n        /* \"#utility.yul\":6731:6732   */\n      dup3\n        /* \"#utility.yul\":6727:6736   */\n      add\n        /* \"#utility.yul\":6720:6736   */\n      swap1\n      pop\n        /* \"#utility.yul\":6755:6758   */\n      dup1\n        /* \"#utility.yul\":6752:6753   */\n      dup3\n        /* \"#utility.yul\":6749:6759   */\n      gt\n        /* \"#utility.yul\":6746:6782   */\n      iszero\n      tag_154\n      jumpi\n        /* \"#utility.yul\":6762:6780   */\n      tag_155\n      tag_77\n      jump\t// in\n    tag_155:\n        /* \"#utility.yul\":6746:6782   */\n    tag_154:\n        /* \"#utility.yul\":6598:6789   */\n      swap3\n      swap2\n      pop\n      pop\n      jump\t// out\n        /* \"#utility.yul\":6795:6963   */\n    tag_78:\n        /* \"#utility.yul\":6935:6955   */\n      0x7573657220616c72656164792065786973740000000000000000000000000000\n        /* \"#utility.yul\":6931:6932   */\n      0x00\n        /* \"#utility.yul\":6923:6929   */\n      dup3\n        /* \"#utility.yul\":6919:6933   */\n      add\n        /* \"#utility.yul\":6912:6956   */\n      mstore\n        /* \"#utility.yul\":6795:6963   */\n      pop\n      jump\t// out\n        /* \"#utility.yul\":6969:7335   */\n    tag_79:\n        /* \"#utility.yul\":7111:7114   */\n      0x00\n        /* \"#utility.yul\":7132:7199   */\n      tag_158\n        /* \"#utility.yul\":7196:7198   */\n      0x12\n        /* \"#utility.yul\":7191:7194   */\n      dup4\n        /* \"#utility.yul\":7132:7199   */\n      tag_74\n      jump\t// in\n    tag_158:\n        /* \"#utility.yul\":7125:7199   */\n      swap2\n      pop\n        /* \"#utility.yul\":7208:7301   */\n      tag_159\n        /* \"#utility.yul\":7297:7300   */\n      dup3\n        /* \"#utility.yul\":7208:7301   */\n      tag_78\n      jump\t// in\n    tag_159:\n        /* \"#utility.yul\":7326:7328   */\n      0x20\n        /* \"#utility.yul\":7321:7324   */\n      dup3\n        /* \"#utility.yul\":7317:7329   */\n      add\n        /* \"#utility.yul\":7310:7329   */\n      swap1\n      pop\n        /* \"#utility.yul\":6969:7335   */\n      swap2\n      swap1\n      pop\n      jump\t// out\n        /* \"#utility.yul\":7341:7760   */\n    tag_49:\n        /* \"#utility.yul\":7507:7511   */\n      0x00\n        /* \"#utility.yul\":7545:7547   */\n      0x20\n        /* \"#utility.yul\":7534:7543   */\n      dup3\n        /* \"#utility.yul\":7530:7548   */\n      add\n        /* \"#utility.yul\":7522:7548   */\n      swap1\n      pop\n        /* \"#utility.yul\":7594:7603   */\n      dup2\n        /* \"#utility.yul\":7588:7592   */\n      dup2\n        /* \"#utility.yul\":7584:7604   */\n      sub\n        /* \"#utility.yul\":7580:7581   */\n      0x00\n        /* \"#utility.yul\":7569:7578   */\n      dup4\n        /* \"#utility.yul\":7565:7582   */\n      add\n        /* \"#utility.yul\":7558:7605   */\n      mstore\n        /* \"#utility.yul\":7622:7753   */\n      tag_161\n        /* \"#utility.yul\":7748:7752   */\n      dup2\n        /* \"#utility.yul\":7622:7753   */\n      tag_79\n      jump\t// in\n    tag_161:\n        /* \"#utility.yul\":7614:7753   */\n      swap1\n      pop\n        /* \"#utility.yul\":7341:7760   */\n      swap2\n      swap1\n      pop\n      jump\t// out\n\n    auxdata: 0xa26469706673582212201cfab923347ace5f95093ffa228cfad7f2177f53c26a59b7371b28174db7a84364736f6c634300081a0033\n}\n",
				"bytecode": {
					"linkReferences": {},
					"object": "6080604052348015600e575f80fd5b506108ab8061001c5f395ff3fe608060405234801561000f575f80fd5b5060043610610060575f3560e01c8063326f823f14610064578063358b816614610080578063365b98b2146100b0578063421b2d8b146100e0578063e2842d79146100fc578063ee204abb1461011a575b5f80fd5b61007e60048036038101906100799190610547565b61014a565b005b61009a60048036038101906100959190610585565b610271565b6040516100a791906105bf565b60405180910390f35b6100ca60048036038101906100c591906105d8565b610285565b6040516100d79190610612565b60405180910390f35b6100fa60048036038101906100f59190610585565b6102c0565b005b6101046103e6565b60405161011191906106e2565b60405180910390f35b610134600480360381019061012f9190610585565b610471565b60405161014191906105bf565b60405180910390f35b805f803373ffffffffffffffffffffffffffffffffffffffff1673ffffffffffffffffffffffffffffffffffffffff1681526020019081526020015f205410156101c9576040517f08c379a00000000000000000000000000000000000000000000000000000000081526004016101c09061075c565b60405180910390fd5b805f803373ffffffffffffffffffffffffffffffffffffffff1673ffffffffffffffffffffffffffffffffffffffff1681526020019081526020015f205f82825461021491906107a7565b92505081905550805f808473ffffffffffffffffffffffffffffffffffffffff1673ffffffffffffffffffffffffffffffffffffffff1681526020019081526020015f205f82825461026691906107da565b925050819055505050565b5f602052805f5260405f205f915090505481565b60018181548110610294575f80fd5b905f5260205f20015f915054906101000a900473ffffffffffffffffffffffffffffffffffffffff1681565b5f805f8373ffffffffffffffffffffffffffffffffffffffff1673ffffffffffffffffffffffffffffffffffffffff1681526020019081526020015f20541461033e576040517f08c379a000000000000000000000000000000000000000000000000000000000815260040161033590610857565b60405180910390fd5b6305f5e1005f808373ffffffffffffffffffffffffffffffffffffffff1673ffffffffffffffffffffffffffffffffffffffff1681526020019081526020015f2081905550600181908060018154018082558091505060019003905f5260205f20015f9091909190916101000a81548173ffffffffffffffffffffffffffffffffffffffff021916908373ffffffffffffffffffffffffffffffffffffffff16021790555050565b6060600180548060200260200160405190810160405280929190818152602001828054801561046757602002820191905f5260205f20905b815f9054906101000a900473ffffffffffffffffffffffffffffffffffffffff1673ffffffffffffffffffffffffffffffffffffffff168152602001906001019080831161041e575b5050505050905090565b5f805f8373ffffffffffffffffffffffffffffffffffffffff1673ffffffffffffffffffffffffffffffffffffffff1681526020019081526020015f20549050919050565b5f80fd5b5f73ffffffffffffffffffffffffffffffffffffffff82169050919050565b5f6104e3826104ba565b9050919050565b6104f3816104d9565b81146104fd575f80fd5b50565b5f8135905061050e816104ea565b92915050565b5f819050919050565b61052681610514565b8114610530575f80fd5b50565b5f813590506105418161051d565b92915050565b5f806040838503121561055d5761055c6104b6565b5b5f61056a85828601610500565b925050602061057b85828601610533565b9150509250929050565b5f6020828403121561059a576105996104b6565b5b5f6105a784828501610500565b91505092915050565b6105b981610514565b82525050565b5f6020820190506105d25f8301846105b0565b92915050565b5f602082840312156105ed576105ec6104b6565b5b5f6105fa84828501610533565b91505092915050565b61060c816104d9565b82525050565b5f6020820190506106255f830184610603565b92915050565b5f81519050919050565b5f82825260208201905092915050565b5f819050602082019050919050565b61065d816104d9565b82525050565b5f61066e8383610654565b60208301905092915050565b5f602082019050919050565b5f6106908261062b565b61069a8185610635565b93506106a583610645565b805f5b838110156106d55781516106bc8882610663565b97506106c78361067a565b9250506001810190506106a8565b5085935050505092915050565b5f6020820190508181035f8301526106fa8184610686565b905092915050565b5f82825260208201905092915050565b7f496e73756666696369656e7420706f696e74732e0000000000000000000000005f82015250565b5f610746601483610702565b915061075182610712565b602082019050919050565b5f6020820190508181035f8301526107738161073a565b9050919050565b7f4e487b71000000000000000000000000000000000000000000000000000000005f52601160045260245ffd5b5f6107b182610514565b91506107bc83610514565b92508282039050818111156107d4576107d361077a565b5b92915050565b5f6107e482610514565b91506107ef83610514565b92508282019050808211156108075761080661077a565b5b92915050565b7f7573657220616c726561647920657869737400000000000000000000000000005f82015250565b5f610841601283610702565b915061084c8261080d565b602082019050919050565b5f6020820190508181035f83015261086e81610835565b905091905056fea26469706673582212201cfab923347ace5f95093ffa228cfad7f2177f53c26a59b7371b28174db7a84364736f6c634300081a0033",
					"opcodes": "PUSH1 0x80 PUSH1 0x40 MSTORE CALLVALUE DUP1 ISZERO PUSH1 0xE JUMPI PUSH0 DUP1 REVERT JUMPDEST POP PUSH2 0x8AB DUP1 PUSH2 0x1C PUSH0 CODECOPY PUSH0 RETURN INVALID PUSH1 0x80 PUSH1 0x40 MSTORE CALLVALUE DUP1 ISZERO PUSH2 0xF JUMPI PUSH0 DUP1 REVERT JUMPDEST POP PUSH1 0x4 CALLDATASIZE LT PUSH2 0x60 JUMPI PUSH0 CALLDATALOAD PUSH1 0xE0 SHR DUP1 PUSH4 0x326F823F EQ PUSH2 0x64 JUMPI DUP1 PUSH4 0x358B8166 EQ PUSH2 0x80 JUMPI DUP1 PUSH4 0x365B98B2 EQ PUSH2 0xB0 JUMPI DUP1 PUSH4 0x421B2D8B EQ PUSH2 0xE0 JUMPI DUP1 PUSH4 0xE2842D79 EQ PUSH2 0xFC JUMPI DUP1 PUSH4 0xEE204ABB EQ PUSH2 0x11A JUMPI JUMPDEST PUSH0 DUP1 REVERT JUMPDEST PUSH2 0x7E PUSH1 0x4 DUP1 CALLDATASIZE SUB DUP2 ADD SWAP1 PUSH2 0x79 SWAP2 SWAP1 PUSH2 0x547 JUMP JUMPDEST PUSH2 0x14A JUMP JUMPDEST STOP JUMPDEST PUSH2 0x9A PUSH1 0x4 DUP1 CALLDATASIZE SUB DUP2 ADD SWAP1 PUSH2 0x95 SWAP2 SWAP1 PUSH2 0x585 JUMP JUMPDEST PUSH2 0x271 JUMP JUMPDEST PUSH1 0x40 MLOAD PUSH2 0xA7 SWAP2 SWAP1 PUSH2 0x5BF JUMP JUMPDEST PUSH1 0x40 MLOAD DUP1 SWAP2 SUB SWAP1 RETURN JUMPDEST PUSH2 0xCA PUSH1 0x4 DUP1 CALLDATASIZE SUB DUP2 ADD SWAP1 PUSH2 0xC5 SWAP2 SWAP1 PUSH2 0x5D8 JUMP JUMPDEST PUSH2 0x285 JUMP JUMPDEST PUSH1 0x40 MLOAD PUSH2 0xD7 SWAP2 SWAP1 PUSH2 0x612 JUMP JUMPDEST PUSH1 0x40 MLOAD DUP1 SWAP2 SUB SWAP1 RETURN JUMPDEST PUSH2 0xFA PUSH1 0x4 DUP1 CALLDATASIZE SUB DUP2 ADD SWAP1 PUSH2 0xF5 SWAP2 SWAP1 PUSH2 0x585 JUMP JUMPDEST PUSH2 0x2C0 JUMP JUMPDEST STOP JUMPDEST PUSH2 0x104 PUSH2 0x3E6 JUMP JUMPDEST PUSH1 0x40 MLOAD PUSH2 0x111 SWAP2 SWAP1 PUSH2 0x6E2 JUMP JUMPDEST PUSH1 0x40 MLOAD DUP1 SWAP2 SUB SWAP1 RETURN JUMPDEST PUSH2 0x134 PUSH1 0x4 DUP1 CALLDATASIZE SUB DUP2 ADD SWAP1 PUSH2 0x12F SWAP2 SWAP1 PUSH2 0x585 JUMP JUMPDEST PUSH2 0x471 JUMP JUMPDEST PUSH1 0x40 MLOAD PUSH2 0x141 SWAP2 SWAP1 PUSH2 0x5BF JUMP JUMPDEST PUSH1 0x40 MLOAD DUP1 SWAP2 SUB SWAP1 RETURN JUMPDEST DUP1 PUSH0 DUP1 CALLER PUSH20 0xFFFFFFFFFFFFFFFFFFFFFFFFFFFFFFFFFFFFFFFF AND PUSH20 0xFFFFFFFFFFFFFFFFFFFFFFFFFFFFFFFFFFFFFFFF AND DUP2 MSTORE PUSH1 0x20 ADD SWAP1 DUP2 MSTORE PUSH1 0x20 ADD PUSH0 KECCAK256 SLOAD LT ISZERO PUSH2 0x1C9 JUMPI PUSH1 0x40 MLOAD PUSH32 0x8C379A000000000000000000000000000000000000000000000000000000000 DUP2 MSTORE PUSH1 0x4 ADD PUSH2 0x1C0 SWAP1 PUSH2 0x75C JUMP JUMPDEST PUSH1 0x40 MLOAD DUP1 SWAP2 SUB SWAP1 REVERT JUMPDEST DUP1 PUSH0 DUP1 CALLER PUSH20 0xFFFFFFFFFFFFFFFFFFFFFFFFFFFFFFFFFFFFFFFF AND PUSH20 0xFFFFFFFFFFFFFFFFFFFFFFFFFFFFFFFFFFFFFFFF AND DUP2 MSTORE PUSH1 0x20 ADD SWAP1 DUP2 MSTORE PUSH1 0x20 ADD PUSH0 KECCAK256 PUSH0 DUP3 DUP3 SLOAD PUSH2 0x214 SWAP2 SWAP1 PUSH2 0x7A7 JUMP JUMPDEST SWAP3 POP POP DUP2 SWAP1 SSTORE POP DUP1 PUSH0 DUP1 DUP5 PUSH20 0xFFFFFFFFFFFFFFFFFFFFFFFFFFFFFFFFFFFFFFFF AND PUSH20 0xFFFFFFFFFFFFFFFFFFFFFFFFFFFFFFFFFFFFFFFF AND DUP2 MSTORE PUSH1 0x20 ADD SWAP1 DUP2 MSTORE PUSH1 0x20 ADD PUSH0 KECCAK256 PUSH0 DUP3 DUP3 SLOAD PUSH2 0x266 SWAP2 SWAP1 PUSH2 0x7DA JUMP JUMPDEST SWAP3 POP POP DUP2 SWAP1 SSTORE POP POP POP JUMP JUMPDEST PUSH0 PUSH1 0x20 MSTORE DUP1 PUSH0 MSTORE PUSH1 0x40 PUSH0 KECCAK256 PUSH0 SWAP2 POP SWAP1 POP SLOAD DUP2 JUMP JUMPDEST PUSH1 0x1 DUP2 DUP2 SLOAD DUP2 LT PUSH2 0x294 JUMPI PUSH0 DUP1 REVERT JUMPDEST SWAP1 PUSH0 MSTORE PUSH1 0x20 PUSH0 KECCAK256 ADD PUSH0 SWAP2 POP SLOAD SWAP1 PUSH2 0x100 EXP SWAP1 DIV PUSH20 0xFFFFFFFFFFFFFFFFFFFFFFFFFFFFFFFFFFFFFFFF AND DUP2 JUMP JUMPDEST PUSH0 DUP1 PUSH0 DUP4 PUSH20 0xFFFFFFFFFFFFFFFFFFFFFFFFFFFFFFFFFFFFFFFF AND PUSH20 0xFFFFFFFFFFFFFFFFFFFFFFFFFFFFFFFFFFFFFFFF AND DUP2 MSTORE PUSH1 0x20 ADD SWAP1 DUP2 MSTORE PUSH1 0x20 ADD PUSH0 KECCAK256 SLOAD EQ PUSH2 0x33E JUMPI PUSH1 0x40 MLOAD PUSH32 0x8C379A000000000000000000000000000000000000000000000000000000000 DUP2 MSTORE PUSH1 0x4 ADD PUSH2 0x335 SWAP1 PUSH2 0x857 JUMP JUMPDEST PUSH1 0x40 MLOAD DUP1 SWAP2 SUB SWAP1 REVERT JUMPDEST PUSH4 0x5F5E100 PUSH0 DUP1 DUP4 PUSH20 0xFFFFFFFFFFFFFFFFFFFFFFFFFFFFFFFFFFFFFFFF AND PUSH20 0xFFFFFFFFFFFFFFFFFFFFFFFFFFFFFFFFFFFFFFFF AND DUP2 MSTORE PUSH1 0x20 ADD SWAP1 DUP2 MSTORE PUSH1 0x20 ADD PUSH0 KECCAK256 DUP2 SWAP1 SSTORE POP PUSH1 0x1 DUP2 SWAP1 DUP1 PUSH1 0x1 DUP2 SLOAD ADD DUP1 DUP3 SSTORE DUP1 SWAP2 POP POP PUSH1 0x1 SWAP1 SUB SWAP1 PUSH0 MSTORE PUSH1 0x20 PUSH0 KECCAK256 ADD PUSH0 SWAP1 SWAP2 SWAP1 SWAP2 SWAP1 SWAP2 PUSH2 0x100 EXP DUP2 SLOAD DUP2 PUSH20 0xFFFFFFFFFFFFFFFFFFFFFFFFFFFFFFFFFFFFFFFF MUL NOT AND SWAP1 DUP4 PUSH20 0xFFFFFFFFFFFFFFFFFFFFFFFFFFFFFFFFFFFFFFFF AND MUL OR SWAP1 SSTORE POP POP JUMP JUMPDEST PUSH1 0x60 PUSH1 0x1 DUP1 SLOAD DUP1 PUSH1 0x20 MUL PUSH1 0x20 ADD PUSH1 0x40 MLOAD SWAP1 DUP2 ADD PUSH1 0x40 MSTORE DUP1 SWAP3 SWAP2 SWAP1 DUP2 DUP2 MSTORE PUSH1 0x20 ADD DUP3 DUP1 SLOAD DUP1 ISZERO PUSH2 0x467 JUMPI PUSH1 0x20 MUL DUP3 ADD SWAP2 SWAP1 PUSH0 MSTORE PUSH1 0x20 PUSH0 KECCAK256 SWAP1 JUMPDEST DUP2 PUSH0 SWAP1 SLOAD SWAP1 PUSH2 0x100 EXP SWAP1 DIV PUSH20 0xFFFFFFFFFFFFFFFFFFFFFFFFFFFFFFFFFFFFFFFF AND PUSH20 0xFFFFFFFFFFFFFFFFFFFFFFFFFFFFFFFFFFFFFFFF AND DUP2 MSTORE PUSH1 0x20 ADD SWAP1 PUSH1 0x1 ADD SWAP1 DUP1 DUP4 GT PUSH2 0x41E JUMPI JUMPDEST POP POP POP POP POP SWAP1 POP SWAP1 JUMP JUMPDEST PUSH0 DUP1 PUSH0 DUP4 PUSH20 0xFFFFFFFFFFFFFFFFFFFFFFFFFFFFFFFFFFFFFFFF AND PUSH20 0xFFFFFFFFFFFFFFFFFFFFFFFFFFFFFFFFFFFFFFFF AND DUP2 MSTORE PUSH1 0x20 ADD SWAP1 DUP2 MSTORE PUSH1 0x20 ADD PUSH0 KECCAK256 SLOAD SWAP1 POP SWAP2 SWAP1 POP JUMP JUMPDEST PUSH0 DUP1 REVERT JUMPDEST PUSH0 PUSH20 0xFFFFFFFFFFFFFFFFFFFFFFFFFFFFFFFFFFFFFFFF DUP3 AND SWAP1 POP SWAP2 SWAP1 POP JUMP JUMPDEST PUSH0 PUSH2 0x4E3 DUP3 PUSH2 0x4BA JUMP JUMPDEST SWAP1 POP SWAP2 SWAP1 POP JUMP JUMPDEST PUSH2 0x4F3 DUP2 PUSH2 0x4D9 JUMP JUMPDEST DUP2 EQ PUSH2 0x4FD JUMPI PUSH0 DUP1 REVERT JUMPDEST POP JUMP JUMPDEST PUSH0 DUP2 CALLDATALOAD SWAP1 POP PUSH2 0x50E DUP2 PUSH2 0x4EA JUMP JUMPDEST SWAP3 SWAP2 POP POP JUMP JUMPDEST PUSH0 DUP2 SWAP1 POP SWAP2 SWAP1 POP JUMP JUMPDEST PUSH2 0x526 DUP2 PUSH2 0x514 JUMP JUMPDEST DUP2 EQ PUSH2 0x530 JUMPI PUSH0 DUP1 REVERT JUMPDEST POP JUMP JUMPDEST PUSH0 DUP2 CALLDATALOAD SWAP1 POP PUSH2 0x541 DUP2 PUSH2 0x51D JUMP JUMPDEST SWAP3 SWAP2 POP POP JUMP JUMPDEST PUSH0 DUP1 PUSH1 0x40 DUP4 DUP6 SUB SLT ISZERO PUSH2 0x55D JUMPI PUSH2 0x55C PUSH2 0x4B6 JUMP JUMPDEST JUMPDEST PUSH0 PUSH2 0x56A DUP6 DUP3 DUP7 ADD PUSH2 0x500 JUMP JUMPDEST SWAP3 POP POP PUSH1 0x20 PUSH2 0x57B DUP6 DUP3 DUP7 ADD PUSH2 0x533 JUMP JUMPDEST SWAP2 POP POP SWAP3 POP SWAP3 SWAP1 POP JUMP JUMPDEST PUSH0 PUSH1 0x20 DUP3 DUP5 SUB SLT ISZERO PUSH2 0x59A JUMPI PUSH2 0x599 PUSH2 0x4B6 JUMP JUMPDEST JUMPDEST PUSH0 PUSH2 0x5A7 DUP5 DUP3 DUP6 ADD PUSH2 0x500 JUMP JUMPDEST SWAP2 POP POP SWAP3 SWAP2 POP POP JUMP JUMPDEST PUSH2 0x5B9 DUP2 PUSH2 0x514 JUMP JUMPDEST DUP3 MSTORE POP POP JUMP JUMPDEST PUSH0 PUSH1 0x20 DUP3 ADD SWAP1 POP PUSH2 0x5D2 PUSH0 DUP4 ADD DUP5 PUSH2 0x5B0 JUMP JUMPDEST SWAP3 SWAP2 POP POP JUMP JUMPDEST PUSH0 PUSH1 0x20 DUP3 DUP5 SUB SLT ISZERO PUSH2 0x5ED JUMPI PUSH2 0x5EC PUSH2 0x4B6 JUMP JUMPDEST JUMPDEST PUSH0 PUSH2 0x5FA DUP5 DUP3 DUP6 ADD PUSH2 0x533 JUMP JUMPDEST SWAP2 POP POP SWAP3 SWAP2 POP POP JUMP JUMPDEST PUSH2 0x60C DUP2 PUSH2 0x4D9 JUMP JUMPDEST DUP3 MSTORE POP POP JUMP JUMPDEST PUSH0 PUSH1 0x20 DUP3 ADD SWAP1 POP PUSH2 0x625 PUSH0 DUP4 ADD DUP5 PUSH2 0x603 JUMP JUMPDEST SWAP3 SWAP2 POP POP JUMP JUMPDEST PUSH0 DUP2 MLOAD SWAP1 POP SWAP2 SWAP1 POP JUMP JUMPDEST PUSH0 DUP3 DUP3 MSTORE PUSH1 0x20 DUP3 ADD SWAP1 POP SWAP3 SWAP2 POP POP JUMP JUMPDEST PUSH0 DUP2 SWAP1 POP PUSH1 0x20 DUP3 ADD SWAP1 POP SWAP2 SWAP1 POP JUMP JUMPDEST PUSH2 0x65D DUP2 PUSH2 0x4D9 JUMP JUMPDEST DUP3 MSTORE POP POP JUMP JUMPDEST PUSH0 PUSH2 0x66E DUP4 DUP4 PUSH2 0x654 JUMP JUMPDEST PUSH1 0x20 DUP4 ADD SWAP1 POP SWAP3 SWAP2 POP POP JUMP JUMPDEST PUSH0 PUSH1 0x20 DUP3 ADD SWAP1 POP SWAP2 SWAP1 POP JUMP JUMPDEST PUSH0 PUSH2 0x690 DUP3 PUSH2 0x62B JUMP JUMPDEST PUSH2 0x69A DUP2 DUP6 PUSH2 0x635 JUMP JUMPDEST SWAP4 POP PUSH2 0x6A5 DUP4 PUSH2 0x645 JUMP JUMPDEST DUP1 PUSH0 JUMPDEST DUP4 DUP2 LT ISZERO PUSH2 0x6D5 JUMPI DUP2 MLOAD PUSH2 0x6BC DUP9 DUP3 PUSH2 0x663 JUMP JUMPDEST SWAP8 POP PUSH2 0x6C7 DUP4 PUSH2 0x67A JUMP JUMPDEST SWAP3 POP POP PUSH1 0x1 DUP2 ADD SWAP1 POP PUSH2 0x6A8 JUMP JUMPDEST POP DUP6 SWAP4 POP POP POP POP SWAP3 SWAP2 POP POP JUMP JUMPDEST PUSH0 PUSH1 0x20 DUP3 ADD SWAP1 POP DUP2 DUP2 SUB PUSH0 DUP4 ADD MSTORE PUSH2 0x6FA DUP2 DUP5 PUSH2 0x686 JUMP JUMPDEST SWAP1 POP SWAP3 SWAP2 POP POP JUMP JUMPDEST PUSH0 DUP3 DUP3 MSTORE PUSH1 0x20 DUP3 ADD SWAP1 POP SWAP3 SWAP2 POP POP JUMP JUMPDEST PUSH32 0x496E73756666696369656E7420706F696E74732E000000000000000000000000 PUSH0 DUP3 ADD MSTORE POP JUMP JUMPDEST PUSH0 PUSH2 0x746 PUSH1 0x14 DUP4 PUSH2 0x702 JUMP JUMPDEST SWAP2 POP PUSH2 0x751 DUP3 PUSH2 0x712 JUMP JUMPDEST PUSH1 0x20 DUP3 ADD SWAP1 POP SWAP2 SWAP1 POP JUMP JUMPDEST PUSH0 PUSH1 0x20 DUP3 ADD SWAP1 POP DUP2 DUP2 SUB PUSH0 DUP4 ADD MSTORE PUSH2 0x773 DUP2 PUSH2 0x73A JUMP JUMPDEST SWAP1 POP SWAP2 SWAP1 POP JUMP JUMPDEST PUSH32 0x4E487B7100000000000000000000000000000000000000000000000000000000 PUSH0 MSTORE PUSH1 0x11 PUSH1 0x4 MSTORE PUSH1 0x24 PUSH0 REVERT JUMPDEST PUSH0 PUSH2 0x7B1 DUP3 PUSH2 0x514 JUMP JUMPDEST SWAP2 POP PUSH2 0x7BC DUP4 PUSH2 0x514 JUMP JUMPDEST SWAP3 POP DUP3 DUP3 SUB SWAP1 POP DUP2 DUP2 GT ISZERO PUSH2 0x7D4 JUMPI PUSH2 0x7D3 PUSH2 0x77A JUMP JUMPDEST JUMPDEST SWAP3 SWAP2 POP POP JUMP JUMPDEST PUSH0 PUSH2 0x7E4 DUP3 PUSH2 0x514 JUMP JUMPDEST SWAP2 POP PUSH2 0x7EF DUP4 PUSH2 0x514 JUMP JUMPDEST SWAP3 POP DUP3 DUP3 ADD SWAP1 POP DUP1 DUP3 GT ISZERO PUSH2 0x807 JUMPI PUSH2 0x806 PUSH2 0x77A JUMP JUMPDEST JUMPDEST SWAP3 SWAP2 POP POP JUMP JUMPDEST PUSH32 0x7573657220616C72656164792065786973740000000000000000000000000000 PUSH0 DUP3 ADD MSTORE POP JUMP JUMPDEST PUSH0 PUSH2 0x841 PUSH1 0x12 DUP4 PUSH2 0x702 JUMP JUMPDEST SWAP2 POP PUSH2 0x84C DUP3 PUSH2 0x80D JUMP JUMPDEST PUSH1 0x20 DUP3 ADD SWAP1 POP SWAP2 SWAP1 POP JUMP JUMPDEST PUSH0 PUSH1 0x20 DUP3 ADD SWAP1 POP DUP2 DUP2 SUB PUSH0 DUP4 ADD MSTORE PUSH2 0x86E DUP2 PUSH2 0x835 JUMP JUMPDEST SWAP1 POP SWAP2 SWAP1 POP JUMP INVALID LOG2 PUSH5 0x6970667358 0x22 SLT KECCAK256 SHR STATICCALL 0xB9 0x23 CALLVALUE PUSH27 0xCE5F95093FFA228CFAD7F2177F53C26A59B7371B28174DB7A84364 PUSH20 0x6F6C634300081A00330000000000000000000000 "
				},
				"gasEstimates": {
					"creation": {
						"codeDepositCost": "443800",
						"executionCost": "478",
						"totalCost": "444278"
					},
					"external": {
						"addUser(address)": "73481",
						"getAllUsers()": "infinite",
						"getPoints(address)": "2917",
						"points(address)": "2801",
						"transferPoints(address,uint256)": "infinite",
						"users(uint256)": "4966"
					}
				},
				"methodIdentifiers": {
					"addUser(address)": "421b2d8b",
					"getAllUsers()": "e2842d79",
					"getPoints(address)": "ee204abb",
					"points(address)": "358b8166",
					"transferPoints(address,uint256)": "326f823f",
					"users(uint256)": "365b98b2"
				}
			},
			"storageLayout": {
				"storage": [
					{
						"astId": 57,
						"contract": "contracts/Mapping.sol:PointsSystem",
						"label": "points",
						"offset": 0,
						"slot": "0",
						"type": "t_mapping(t_address,t_uint256)"
					},
					{
						"astId": 60,
						"contract": "contracts/Mapping.sol:PointsSystem",
						"label": "users",
						"offset": 0,
						"slot": "1",
						"type": "t_array(t_address)dyn_storage"
					}
				],
				"types": {
					"t_address": {
						"encoding": "inplace",
						"label": "address",
						"numberOfBytes": "20"
					},
					"t_array(t_address)dyn_storage": {
						"base": "t_address",
						"encoding": "dynamic_array",
						"label": "address[]",
						"numberOfBytes": "32"
					},
					"t_mapping(t_address,t_uint256)": {
						"encoding": "mapping",
						"key": "t_address",
						"label": "mapping(address => uint256)",
						"numberOfBytes": "32",
						"value": "t_uint256"
					},
					"t_uint256": {
						"encoding": "inplace",
						"label": "uint256",
						"numberOfBytes": "32"
					}
				}
			},
			"userdoc": {
				"kind": "user",
				"methods": {},
				"version": 1
			}
		}
	}
}