{
	"contracts/Array.sol": {
		"DataHander": {
			"abi": [
				{
					"inputs": [
						{
							"internalType": "uint256",
							"name": "",
							"type": "uint256"
						}
					],
					"name": "data",
					"outputs": [
						{
							"internalType": "uint256",
							"name": "",
							"type": "uint256"
						}
					],
					"stateMutability": "view",
					"type": "function"
				},
				{
					"inputs": [
						{
							"internalType": "uint256[]",
							"name": "memoryArray",
							"type": "uint256[]"
						}
					],
					"name": "f",
					"outputs": [],
					"stateMutability": "nonpayable",
					"type": "function"
				},
				{
					"inputs": [],
					"name": "getData",
					"outputs": [
						{
							"internalType": "uint256[]",
							"name": "",
							"type": "uint256[]"
						}
					],
					"stateMutability": "view",
					"type": "function"
				},
				{
					"inputs": [
						{
							"internalType": "uint256[]",
							"name": "",
							"type": "uint256[]"
						}
					],
					"name": "h",
					"outputs": [],
					"stateMutability": "pure",
					"type": "function"
				},
				{
					"inputs": [
						{
							"internalType": "uint256[]",
							"name": "md",
							"type": "uint256[]"
						}
					],
					"name": "modifyMemoryData",
					"outputs": [
						{
							"internalType": "uint256[]",
							"name": "",
							"type": "uint256[]"
						}
					],
					"stateMutability": "pure",
					"type": "function"
				},
				{
					"inputs": [
						{
							"internalType": "uint256",
							"name": "index",
							"type": "uint256"
						},
						{
							"internalType": "uint256",
							"name": "value",
							"type": "uint256"
						}
					],
					"name": "modifyStoreData",
					"outputs": [],
					"stateMutability": "nonpayable",
					"type": "function"
				},
				{
					"inputs": [
						{
							"internalType": "uint256[]",
							"name": "newData",
							"type": "uint256[]"
						}
					],
					"name": "updateData",
					"outputs": [],
					"stateMutability": "nonpayable",
					"type": "function"
				}
			],
			"devdoc": {
				"kind": "dev",
				"methods": {},
				"version": 1
			},
			"evm": {
				"assembly": "    /* \"contracts/Array.sol\":80:2660  contract  DataHander {... */\n  mstore(0x40, 0x80)\n  callvalue\n  dup1\n  iszero\n  tag_1\n  jumpi\n  0x00\n  dup1\n  revert\ntag_1:\n  pop\n  dataSize(sub_0)\n  dup1\n  dataOffset(sub_0)\n  0x00\n  codecopy\n  0x00\n  return\nstop\n\nsub_0: assembly {\n        /* \"contracts/Array.sol\":80:2660  contract  DataHander {... */\n      mstore(0x40, 0x80)\n      callvalue\n      dup1\n      iszero\n      tag_1\n      jumpi\n      0x00\n      dup1\n      revert\n    tag_1:\n      pop\n      jumpi(tag_2, lt(calldatasize, 0x04))\n      shr(0xe0, calldataload(0x00))\n      dup1\n      0x948ad7ad\n      gt\n      tag_10\n      jumpi\n      dup1\n      0x948ad7ad\n      eq\n      tag_6\n      jumpi\n      dup1\n      0xaa44269d\n      eq\n      tag_7\n      jumpi\n      dup1\n      0xc104210b\n      eq\n      tag_8\n      jumpi\n      dup1\n      0xf0ba8440\n      eq\n      tag_9\n      jumpi\n      jump(tag_2)\n    tag_10:\n      dup1\n      0x3bc5de30\n      eq\n      tag_3\n      jumpi\n      dup1\n      0x40dcbb08\n      eq\n      tag_4\n      jumpi\n      dup1\n      0x7bc5bbbf\n      eq\n      tag_5\n      jumpi\n    tag_2:\n      0x00\n      dup1\n      revert\n        /* \"contracts/Array.sol\":1327:1409  function getData() public view returns(uint[] memory) {... */\n    tag_3:\n      tag_11\n      tag_12\n      jump\t// in\n    tag_11:\n      mload(0x40)\n      tag_13\n      swap2\n      swap1\n      tag_14\n      jump\t// in\n    tag_13:\n      mload(0x40)\n      dup1\n      swap2\n      sub\n      swap1\n      return\n        /* \"contracts/Array.sol\":2334:2374  function h(uint[] memory) public pure {} */\n    tag_4:\n      tag_15\n      0x04\n      dup1\n      calldatasize\n      sub\n      dup2\n      add\n      swap1\n      tag_16\n      swap2\n      swap1\n      tag_17\n      jump\t// in\n    tag_16:\n      tag_18\n      jump\t// in\n    tag_15:\n      stop\n        /* \"contracts/Array.sol\":1959:2281  function f(uint[] memory memoryArray) public {... */\n    tag_5:\n      tag_19\n      0x04\n      dup1\n      calldatasize\n      sub\n      dup2\n      add\n      swap1\n      tag_20\n      swap2\n      swap1\n      tag_17\n      jump\t// in\n    tag_20:\n      tag_21\n      jump\t// in\n    tag_19:\n      stop\n        /* \"contracts/Array.sol\":1455:1608  function modifyStoreData(uint index, uint value) public {... */\n    tag_6:\n      tag_22\n      0x04\n      dup1\n      calldatasize\n      sub\n      dup2\n      add\n      swap1\n      tag_23\n      swap2\n      swap1\n      tag_24\n      jump\t// in\n    tag_23:\n      tag_25\n      jump\t// in\n    tag_22:\n      stop\n        /* \"contracts/Array.sol\":1201:1282  function updateData(uint[] memory newData) public {... */\n    tag_7:\n      tag_26\n      0x04\n      dup1\n      calldatasize\n      sub\n      dup2\n      add\n      swap1\n      tag_27\n      swap2\n      swap1\n      tag_17\n      jump\t// in\n    tag_27:\n      tag_28\n      jump\t// in\n    tag_26:\n      stop\n        /* \"contracts/Array.sol\":1664:1832  function modifyMemoryData(uint[] memory md) public pure returns(uint[] memory) {... */\n    tag_8:\n      tag_29\n      0x04\n      dup1\n      calldatasize\n      sub\n      dup2\n      add\n      swap1\n      tag_30\n      swap2\n      swap1\n      tag_17\n      jump\t// in\n    tag_30:\n      tag_31\n      jump\t// in\n    tag_29:\n      mload(0x40)\n      tag_32\n      swap2\n      swap1\n      tag_14\n      jump\t// in\n    tag_32:\n      mload(0x40)\n      dup1\n      swap2\n      sub\n      swap1\n      return\n        /* \"contracts/Array.sol\":1069:1087  uint[] public data */\n    tag_9:\n      tag_33\n      0x04\n      dup1\n      calldatasize\n      sub\n      dup2\n      add\n      swap1\n      tag_34\n      swap2\n      swap1\n      tag_35\n      jump\t// in\n    tag_34:\n      tag_36\n      jump\t// in\n    tag_33:\n      mload(0x40)\n      tag_37\n      swap2\n      swap1\n      tag_38\n      jump\t// in\n    tag_37:\n      mload(0x40)\n      dup1\n      swap2\n      sub\n      swap1\n      return\n        /* \"contracts/Array.sol\":1327:1409  function getData() public view returns(uint[] memory) {... */\n    tag_12:\n        /* \"contracts/Array.sol\":1366:1379  uint[] memory */\n      0x60\n        /* \"contracts/Array.sol\":1398:1402  data */\n      0x00\n        /* \"contracts/Array.sol\":1391:1402  return data */\n      dup1\n      sload\n      dup1\n      0x20\n      mul\n      0x20\n      add\n      mload(0x40)\n      swap1\n      dup2\n      add\n      0x40\n      mstore\n      dup1\n      swap3\n      swap2\n      swap1\n      dup2\n      dup2\n      mstore\n      0x20\n      add\n      dup3\n      dup1\n      sload\n      dup1\n      iszero\n      tag_40\n      jumpi\n      0x20\n      mul\n      dup3\n      add\n      swap2\n      swap1\n      0x00\n      mstore\n      keccak256(0x00, 0x20)\n      swap1\n    tag_41:\n      dup2\n      sload\n      dup2\n      mstore\n      0x20\n      add\n      swap1\n      0x01\n      add\n      swap1\n      dup1\n      dup4\n      gt\n      tag_41\n      jumpi\n    tag_40:\n      pop\n      pop\n      pop\n      pop\n      pop\n      swap1\n      pop\n        /* \"contracts/Array.sol\":1327:1409  function getData() public view returns(uint[] memory) {... */\n      swap1\n      jump\t// out\n        /* \"contracts/Array.sol\":2334:2374  function h(uint[] memory) public pure {} */\n    tag_18:\n      pop\n      jump\t// out\n        /* \"contracts/Array.sol\":1959:2281  function f(uint[] memory memoryArray) public {... */\n    tag_21:\n        /* \"contracts/Array.sol\":2018:2029  memoryArray */\n      dup1\n        /* \"contracts/Array.sol\":2014:2015  x */\n      0x01\n        /* \"contracts/Array.sol\":2014:2029  x = memoryArray */\n      swap1\n      dup1\n      mload\n      swap1\n      0x20\n      add\n      swap1\n      tag_44\n      swap3\n      swap2\n      swap1\n      tag_45\n      jump\t// in\n    tag_44:\n      pop\n        /* \"contracts/Array.sol\":2079:2095  uint[] storage y */\n      0x00\n        /* \"contracts/Array.sol\":2098:2099  x */\n      0x01\n        /* \"contracts/Array.sol\":2079:2099  uint[] storage y = x */\n      swap1\n      pop\n        /* \"contracts/Array.sol\":2175:2178  100 */\n      0x64\n        /* \"contracts/Array.sol\":2168:2169  y */\n      dup2\n        /* \"contracts/Array.sol\":2170:2171  0 */\n      0x00\n        /* \"contracts/Array.sol\":2168:2172  y[0] */\n      dup2\n      sload\n      dup2\n      lt\n      tag_46\n      jumpi\n      tag_47\n      tag_48\n      jump\t// in\n    tag_47:\n    tag_46:\n      swap1\n      0x00\n      mstore\n      keccak256(0x00, 0x20)\n      add\n        /* \"contracts/Array.sol\":2168:2178  y[0] = 100 */\n      dup2\n      swap1\n      sstore\n      pop\n        /* \"contracts/Array.sol\":2244:2245  x */\n      0x01\n      0x00\n        /* \"contracts/Array.sol\":2237:2245  delete x */\n      tag_50\n      swap2\n      swap1\n      tag_51\n      jump\t// in\n    tag_50:\n        /* \"contracts/Array.sol\":2004:2281  {... */\n      pop\n        /* \"contracts/Array.sol\":1959:2281  function f(uint[] memory memoryArray) public {... */\n      pop\n      jump\t// out\n        /* \"contracts/Array.sol\":1455:1608  function modifyStoreData(uint index, uint value) public {... */\n    tag_25:\n        /* \"contracts/Array.sol\":1537:1541  data */\n      0x00\n        /* \"contracts/Array.sol\":1537:1548  data.length */\n      dup1\n      sload\n      swap1\n      pop\n        /* \"contracts/Array.sol\":1529:1534  index */\n      dup3\n        /* \"contracts/Array.sol\":1529:1548  index < data.length */\n      lt\n        /* \"contracts/Array.sol\":1521:1572  require(index < data.length, \"Index out of bounds\") */\n      tag_53\n      jumpi\n      mload(0x40)\n      0x08c379a000000000000000000000000000000000000000000000000000000000\n      dup2\n      mstore\n      0x04\n      add\n      tag_54\n      swap1\n      tag_55\n      jump\t// in\n    tag_54:\n      mload(0x40)\n      dup1\n      swap2\n      sub\n      swap1\n      revert\n    tag_53:\n        /* \"contracts/Array.sol\":1596:1601  value */\n      dup1\n        /* \"contracts/Array.sol\":1582:1586  data */\n      0x00\n        /* \"contracts/Array.sol\":1587:1592  index */\n      dup4\n        /* \"contracts/Array.sol\":1582:1593  data[index] */\n      dup2\n      sload\n      dup2\n      lt\n      tag_56\n      jumpi\n      tag_57\n      tag_48\n      jump\t// in\n    tag_57:\n    tag_56:\n      swap1\n      0x00\n      mstore\n      keccak256(0x00, 0x20)\n      add\n        /* \"contracts/Array.sol\":1582:1601  data[index] = value */\n      dup2\n      swap1\n      sstore\n      pop\n        /* \"contracts/Array.sol\":1455:1608  function modifyStoreData(uint index, uint value) public {... */\n      pop\n      pop\n      jump\t// out\n        /* \"contracts/Array.sol\":1201:1282  function updateData(uint[] memory newData) public {... */\n    tag_28:\n        /* \"contracts/Array.sol\":1268:1275  newData */\n      dup1\n        /* \"contracts/Array.sol\":1261:1265  data */\n      0x00\n        /* \"contracts/Array.sol\":1261:1275  data = newData */\n      swap1\n      dup1\n      mload\n      swap1\n      0x20\n      add\n      swap1\n      tag_60\n      swap3\n      swap2\n      swap1\n      tag_45\n      jump\t// in\n    tag_60:\n      pop\n        /* \"contracts/Array.sol\":1201:1282  function updateData(uint[] memory newData) public {... */\n      pop\n      jump\t// out\n        /* \"contracts/Array.sol\":1664:1832  function modifyMemoryData(uint[] memory md) public pure returns(uint[] memory) {... */\n    tag_31:\n        /* \"contracts/Array.sol\":1728:1741  uint[] memory */\n      0x60\n        /* \"contracts/Array.sol\":1769:1770  0 */\n      0x00\n        /* \"contracts/Array.sol\":1757:1759  md */\n      dup3\n        /* \"contracts/Array.sol\":1757:1766  md.length */\n      mload\n        /* \"contracts/Array.sol\":1757:1770  md.length > 0 */\n      gt\n        /* \"contracts/Array.sol\":1753:1807  if (md.length > 0) {... */\n      iszero\n      tag_62\n      jumpi\n        /* \"contracts/Array.sol\":1794:1796  99 */\n      0x63\n        /* \"contracts/Array.sol\":1786:1788  md */\n      dup3\n        /* \"contracts/Array.sol\":1789:1790  0 */\n      0x00\n        /* \"contracts/Array.sol\":1786:1791  md[0] */\n      dup2\n      mload\n      dup2\n      lt\n      tag_63\n      jumpi\n      tag_64\n      tag_48\n      jump\t// in\n    tag_64:\n    tag_63:\n      0x20\n      mul\n      0x20\n      add\n      add\n        /* \"contracts/Array.sol\":1786:1796  md[0] = 99 */\n      dup2\n      dup2\n      mstore\n      pop\n      pop\n        /* \"contracts/Array.sol\":1753:1807  if (md.length > 0) {... */\n    tag_62:\n        /* \"contracts/Array.sol\":1823:1825  md */\n      dup2\n        /* \"contracts/Array.sol\":1816:1825  return md */\n      swap1\n      pop\n        /* \"contracts/Array.sol\":1664:1832  function modifyMemoryData(uint[] memory md) public pure returns(uint[] memory) {... */\n      swap2\n      swap1\n      pop\n      jump\t// out\n        /* \"contracts/Array.sol\":1069:1087  uint[] public data */\n    tag_36:\n      0x00\n      dup2\n      dup2\n      sload\n      dup2\n      lt\n      tag_65\n      jumpi\n      0x00\n      dup1\n      revert\n    tag_65:\n      swap1\n      0x00\n      mstore\n      keccak256(0x00, 0x20)\n      add\n      0x00\n      swap2\n      pop\n      swap1\n      pop\n      sload\n      dup2\n      jump\t// out\n    tag_45:\n      dup3\n      dup1\n      sload\n      dup3\n      dup3\n      sstore\n      swap1\n      0x00\n      mstore\n      keccak256(0x00, 0x20)\n      swap1\n      dup2\n      add\n      swap3\n      dup3\n      iszero\n      tag_67\n      jumpi\n      swap2\n      0x20\n      mul\n      dup3\n      add\n    tag_68:\n      dup3\n      dup2\n      gt\n      iszero\n      tag_69\n      jumpi\n      dup3\n      mload\n      dup3\n      sstore\n      swap2\n      0x20\n      add\n      swap2\n      swap1\n      0x01\n      add\n      swap1\n      jump(tag_68)\n    tag_69:\n    tag_67:\n      pop\n      swap1\n      pop\n      tag_70\n      swap2\n      swap1\n      tag_71\n      jump\t// in\n    tag_70:\n      pop\n      swap1\n      jump\t// out\n    tag_51:\n      pop\n      dup1\n      sload\n      0x00\n      dup3\n      sstore\n      swap1\n      0x00\n      mstore\n      keccak256(0x00, 0x20)\n      swap1\n      dup2\n      add\n      swap1\n      tag_73\n      swap2\n      swap1\n      tag_71\n      jump\t// in\n    tag_73:\n      pop\n      jump\t// out\n    tag_71:\n    tag_74:\n      dup1\n      dup3\n      gt\n      iszero\n      tag_75\n      jumpi\n      0x00\n      dup2\n      0x00\n      swap1\n      sstore\n      pop\n      0x01\n      add\n      jump(tag_74)\n    tag_75:\n      pop\n      swap1\n      jump\t// out\n        /* \"#utility.yul\":7:121   */\n    tag_76:\n        /* \"#utility.yul\":74:80   */\n      0x00\n        /* \"#utility.yul\":108:113   */\n      dup2\n        /* \"#utility.yul\":102:114   */\n      mload\n        /* \"#utility.yul\":92:114   */\n      swap1\n      pop\n        /* \"#utility.yul\":7:121   */\n      swap2\n      swap1\n      pop\n      jump\t// out\n        /* \"#utility.yul\":127:311   */\n    tag_77:\n        /* \"#utility.yul\":226:237   */\n      0x00\n        /* \"#utility.yul\":260:266   */\n      dup3\n        /* \"#utility.yul\":255:258   */\n      dup3\n        /* \"#utility.yul\":248:267   */\n      mstore\n        /* \"#utility.yul\":300:304   */\n      0x20\n        /* \"#utility.yul\":295:298   */\n      dup3\n        /* \"#utility.yul\":291:305   */\n      add\n        /* \"#utility.yul\":276:305   */\n      swap1\n      pop\n        /* \"#utility.yul\":127:311   */\n      swap3\n      swap2\n      pop\n      pop\n      jump\t// out\n        /* \"#utility.yul\":317:449   */\n    tag_78:\n        /* \"#utility.yul\":384:388   */\n      0x00\n        /* \"#utility.yul\":407:410   */\n      dup2\n        /* \"#utility.yul\":399:410   */\n      swap1\n      pop\n        /* \"#utility.yul\":437:441   */\n      0x20\n        /* \"#utility.yul\":432:435   */\n      dup3\n        /* \"#utility.yul\":428:442   */\n      add\n        /* \"#utility.yul\":420:442   */\n      swap1\n      pop\n        /* \"#utility.yul\":317:449   */\n      swap2\n      swap1\n      pop\n      jump\t// out\n        /* \"#utility.yul\":455:532   */\n    tag_79:\n        /* \"#utility.yul\":492:499   */\n      0x00\n        /* \"#utility.yul\":521:526   */\n      dup2\n        /* \"#utility.yul\":510:526   */\n      swap1\n      pop\n        /* \"#utility.yul\":455:532   */\n      swap2\n      swap1\n      pop\n      jump\t// out\n        /* \"#utility.yul\":538:646   */\n    tag_80:\n        /* \"#utility.yul\":615:639   */\n      tag_108\n        /* \"#utility.yul\":633:638   */\n      dup2\n        /* \"#utility.yul\":615:639   */\n      tag_79\n      jump\t// in\n    tag_108:\n        /* \"#utility.yul\":610:613   */\n      dup3\n        /* \"#utility.yul\":603:640   */\n      mstore\n        /* \"#utility.yul\":538:646   */\n      pop\n      pop\n      jump\t// out\n        /* \"#utility.yul\":652:831   */\n    tag_81:\n        /* \"#utility.yul\":721:731   */\n      0x00\n        /* \"#utility.yul\":742:788   */\n      tag_110\n        /* \"#utility.yul\":784:787   */\n      dup4\n        /* \"#utility.yul\":776:782   */\n      dup4\n        /* \"#utility.yul\":742:788   */\n      tag_80\n      jump\t// in\n    tag_110:\n        /* \"#utility.yul\":820:824   */\n      0x20\n        /* \"#utility.yul\":815:818   */\n      dup4\n        /* \"#utility.yul\":811:825   */\n      add\n        /* \"#utility.yul\":797:825   */\n      swap1\n      pop\n        /* \"#utility.yul\":652:831   */\n      swap3\n      swap2\n      pop\n      pop\n      jump\t// out\n        /* \"#utility.yul\":837:950   */\n    tag_82:\n        /* \"#utility.yul\":907:911   */\n      0x00\n        /* \"#utility.yul\":939:943   */\n      0x20\n        /* \"#utility.yul\":934:937   */\n      dup3\n        /* \"#utility.yul\":930:944   */\n      add\n        /* \"#utility.yul\":922:944   */\n      swap1\n      pop\n        /* \"#utility.yul\":837:950   */\n      swap2\n      swap1\n      pop\n      jump\t// out\n        /* \"#utility.yul\":986:1718   */\n    tag_83:\n        /* \"#utility.yul\":1105:1108   */\n      0x00\n        /* \"#utility.yul\":1134:1188   */\n      tag_113\n        /* \"#utility.yul\":1182:1187   */\n      dup3\n        /* \"#utility.yul\":1134:1188   */\n      tag_76\n      jump\t// in\n    tag_113:\n        /* \"#utility.yul\":1204:1290   */\n      tag_114\n        /* \"#utility.yul\":1283:1289   */\n      dup2\n        /* \"#utility.yul\":1278:1281   */\n      dup6\n        /* \"#utility.yul\":1204:1290   */\n      tag_77\n      jump\t// in\n    tag_114:\n        /* \"#utility.yul\":1197:1290   */\n      swap4\n      pop\n        /* \"#utility.yul\":1314:1370   */\n      tag_115\n        /* \"#utility.yul\":1364:1369   */\n      dup4\n        /* \"#utility.yul\":1314:1370   */\n      tag_78\n      jump\t// in\n    tag_115:\n        /* \"#utility.yul\":1393:1400   */\n      dup1\n        /* \"#utility.yul\":1424:1425   */\n      0x00\n        /* \"#utility.yul\":1409:1693   */\n    tag_116:\n        /* \"#utility.yul\":1434:1440   */\n      dup4\n        /* \"#utility.yul\":1431:1432   */\n      dup2\n        /* \"#utility.yul\":1428:1441   */\n      lt\n        /* \"#utility.yul\":1409:1693   */\n      iszero\n      tag_118\n      jumpi\n        /* \"#utility.yul\":1510:1516   */\n      dup2\n        /* \"#utility.yul\":1504:1517   */\n      mload\n        /* \"#utility.yul\":1537:1600   */\n      tag_119\n        /* \"#utility.yul\":1596:1599   */\n      dup9\n        /* \"#utility.yul\":1581:1594   */\n      dup3\n        /* \"#utility.yul\":1537:1600   */\n      tag_81\n      jump\t// in\n    tag_119:\n        /* \"#utility.yul\":1530:1600   */\n      swap8\n      pop\n        /* \"#utility.yul\":1623:1683   */\n      tag_120\n        /* \"#utility.yul\":1676:1682   */\n      dup4\n        /* \"#utility.yul\":1623:1683   */\n      tag_82\n      jump\t// in\n    tag_120:\n        /* \"#utility.yul\":1613:1683   */\n      swap3\n      pop\n        /* \"#utility.yul\":1469:1693   */\n      pop\n        /* \"#utility.yul\":1456:1457   */\n      0x01\n        /* \"#utility.yul\":1453:1454   */\n      dup2\n        /* \"#utility.yul\":1449:1458   */\n      add\n        /* \"#utility.yul\":1444:1458   */\n      swap1\n      pop\n        /* \"#utility.yul\":1409:1693   */\n      jump(tag_116)\n    tag_118:\n        /* \"#utility.yul\":1413:1427   */\n      pop\n        /* \"#utility.yul\":1709:1712   */\n      dup6\n        /* \"#utility.yul\":1702:1712   */\n      swap4\n      pop\n        /* \"#utility.yul\":1110:1718   */\n      pop\n      pop\n      pop\n        /* \"#utility.yul\":986:1718   */\n      swap3\n      swap2\n      pop\n      pop\n      jump\t// out\n        /* \"#utility.yul\":1724:2097   */\n    tag_14:\n        /* \"#utility.yul\":1867:1871   */\n      0x00\n        /* \"#utility.yul\":1905:1907   */\n      0x20\n        /* \"#utility.yul\":1894:1903   */\n      dup3\n        /* \"#utility.yul\":1890:1908   */\n      add\n        /* \"#utility.yul\":1882:1908   */\n      swap1\n      pop\n        /* \"#utility.yul\":1954:1963   */\n      dup2\n        /* \"#utility.yul\":1948:1952   */\n      dup2\n        /* \"#utility.yul\":1944:1964   */\n      sub\n        /* \"#utility.yul\":1940:1941   */\n      0x00\n        /* \"#utility.yul\":1929:1938   */\n      dup4\n        /* \"#utility.yul\":1925:1942   */\n      add\n        /* \"#utility.yul\":1918:1965   */\n      mstore\n        /* \"#utility.yul\":1982:2090   */\n      tag_122\n        /* \"#utility.yul\":2085:2089   */\n      dup2\n        /* \"#utility.yul\":2076:2082   */\n      dup5\n        /* \"#utility.yul\":1982:2090   */\n      tag_83\n      jump\t// in\n    tag_122:\n        /* \"#utility.yul\":1974:2090   */\n      swap1\n      pop\n        /* \"#utility.yul\":1724:2097   */\n      swap3\n      swap2\n      pop\n      pop\n      jump\t// out\n        /* \"#utility.yul\":2103:2178   */\n    tag_84:\n        /* \"#utility.yul\":2136:2142   */\n      0x00\n        /* \"#utility.yul\":2169:2171   */\n      0x40\n        /* \"#utility.yul\":2163:2172   */\n      mload\n        /* \"#utility.yul\":2153:2172   */\n      swap1\n      pop\n        /* \"#utility.yul\":2103:2178   */\n      swap1\n      jump\t// out\n        /* \"#utility.yul\":2184:2301   */\n    tag_85:\n        /* \"#utility.yul\":2293:2294   */\n      0x00\n        /* \"#utility.yul\":2290:2291   */\n      dup1\n        /* \"#utility.yul\":2283:2295   */\n      revert\n        /* \"#utility.yul\":2307:2424   */\n    tag_86:\n        /* \"#utility.yul\":2416:2417   */\n      0x00\n        /* \"#utility.yul\":2413:2414   */\n      dup1\n        /* \"#utility.yul\":2406:2418   */\n      revert\n        /* \"#utility.yul\":2430:2547   */\n    tag_87:\n        /* \"#utility.yul\":2539:2540   */\n      0x00\n        /* \"#utility.yul\":2536:2537   */\n      dup1\n        /* \"#utility.yul\":2529:2541   */\n      revert\n        /* \"#utility.yul\":2553:2655   */\n    tag_88:\n        /* \"#utility.yul\":2594:2600   */\n      0x00\n        /* \"#utility.yul\":2645:2647   */\n      0x1f\n        /* \"#utility.yul\":2641:2648   */\n      not\n        /* \"#utility.yul\":2636:2638   */\n      0x1f\n        /* \"#utility.yul\":2629:2634   */\n      dup4\n        /* \"#utility.yul\":2625:2639   */\n      add\n        /* \"#utility.yul\":2621:2649   */\n      and\n        /* \"#utility.yul\":2611:2649   */\n      swap1\n      pop\n        /* \"#utility.yul\":2553:2655   */\n      swap2\n      swap1\n      pop\n      jump\t// out\n        /* \"#utility.yul\":2661:2841   */\n    tag_89:\n        /* \"#utility.yul\":2709:2786   */\n      0x4e487b7100000000000000000000000000000000000000000000000000000000\n        /* \"#utility.yul\":2706:2707   */\n      0x00\n        /* \"#utility.yul\":2699:2787   */\n      mstore\n        /* \"#utility.yul\":2806:2810   */\n      0x41\n        /* \"#utility.yul\":2803:2804   */\n      0x04\n        /* \"#utility.yul\":2796:2811   */\n      mstore\n        /* \"#utility.yul\":2830:2834   */\n      0x24\n        /* \"#utility.yul\":2827:2828   */\n      0x00\n        /* \"#utility.yul\":2820:2835   */\n      revert\n        /* \"#utility.yul\":2847:3128   */\n    tag_90:\n        /* \"#utility.yul\":2930:2957   */\n      tag_130\n        /* \"#utility.yul\":2952:2956   */\n      dup3\n        /* \"#utility.yul\":2930:2957   */\n      tag_88\n      jump\t// in\n    tag_130:\n        /* \"#utility.yul\":2922:2928   */\n      dup2\n        /* \"#utility.yul\":2918:2958   */\n      add\n        /* \"#utility.yul\":3060:3066   */\n      dup2\n        /* \"#utility.yul\":3048:3058   */\n      dup2\n        /* \"#utility.yul\":3045:3067   */\n      lt\n        /* \"#utility.yul\":3024:3042   */\n      0xffffffffffffffff\n        /* \"#utility.yul\":3012:3022   */\n      dup3\n        /* \"#utility.yul\":3009:3043   */\n      gt\n        /* \"#utility.yul\":3006:3068   */\n      or\n        /* \"#utility.yul\":3003:3091   */\n      iszero\n      tag_131\n      jumpi\n        /* \"#utility.yul\":3071:3089   */\n      tag_132\n      tag_89\n      jump\t// in\n    tag_132:\n        /* \"#utility.yul\":3003:3091   */\n    tag_131:\n        /* \"#utility.yul\":3111:3121   */\n      dup1\n        /* \"#utility.yul\":3107:3109   */\n      0x40\n        /* \"#utility.yul\":3100:3122   */\n      mstore\n        /* \"#utility.yul\":2890:3128   */\n      pop\n        /* \"#utility.yul\":2847:3128   */\n      pop\n      pop\n      jump\t// out\n        /* \"#utility.yul\":3134:3263   */\n    tag_91:\n        /* \"#utility.yul\":3168:3174   */\n      0x00\n        /* \"#utility.yul\":3195:3215   */\n      tag_134\n      tag_84\n      jump\t// in\n    tag_134:\n        /* \"#utility.yul\":3185:3215   */\n      swap1\n      pop\n        /* \"#utility.yul\":3224:3257   */\n      tag_135\n        /* \"#utility.yul\":3252:3256   */\n      dup3\n        /* \"#utility.yul\":3244:3250   */\n      dup3\n        /* \"#utility.yul\":3224:3257   */\n      tag_90\n      jump\t// in\n    tag_135:\n        /* \"#utility.yul\":3134:3263   */\n      swap2\n      swap1\n      pop\n      jump\t// out\n        /* \"#utility.yul\":3269:3580   */\n    tag_92:\n        /* \"#utility.yul\":3346:3350   */\n      0x00\n        /* \"#utility.yul\":3436:3454   */\n      0xffffffffffffffff\n        /* \"#utility.yul\":3428:3434   */\n      dup3\n        /* \"#utility.yul\":3425:3455   */\n      gt\n        /* \"#utility.yul\":3422:3478   */\n      iszero\n      tag_137\n      jumpi\n        /* \"#utility.yul\":3458:3476   */\n      tag_138\n      tag_89\n      jump\t// in\n    tag_138:\n        /* \"#utility.yul\":3422:3478   */\n    tag_137:\n        /* \"#utility.yul\":3508:3512   */\n      0x20\n        /* \"#utility.yul\":3500:3506   */\n      dup3\n        /* \"#utility.yul\":3496:3513   */\n      mul\n        /* \"#utility.yul\":3488:3513   */\n      swap1\n      pop\n        /* \"#utility.yul\":3568:3572   */\n      0x20\n        /* \"#utility.yul\":3562:3566   */\n      dup2\n        /* \"#utility.yul\":3558:3573   */\n      add\n        /* \"#utility.yul\":3550:3573   */\n      swap1\n      pop\n        /* \"#utility.yul\":3269:3580   */\n      swap2\n      swap1\n      pop\n      jump\t// out\n        /* \"#utility.yul\":3586:3703   */\n    tag_93:\n        /* \"#utility.yul\":3695:3696   */\n      0x00\n        /* \"#utility.yul\":3692:3693   */\n      dup1\n        /* \"#utility.yul\":3685:3697   */\n      revert\n        /* \"#utility.yul\":3709:3831   */\n    tag_94:\n        /* \"#utility.yul\":3782:3806   */\n      tag_141\n        /* \"#utility.yul\":3800:3805   */\n      dup2\n        /* \"#utility.yul\":3782:3806   */\n      tag_79\n      jump\t// in\n    tag_141:\n        /* \"#utility.yul\":3775:3780   */\n      dup2\n        /* \"#utility.yul\":3772:3807   */\n      eq\n        /* \"#utility.yul\":3762:3825   */\n      tag_142\n      jumpi\n        /* \"#utility.yul\":3821:3822   */\n      0x00\n        /* \"#utility.yul\":3818:3819   */\n      dup1\n        /* \"#utility.yul\":3811:3823   */\n      revert\n        /* \"#utility.yul\":3762:3825   */\n    tag_142:\n        /* \"#utility.yul\":3709:3831   */\n      pop\n      jump\t// out\n        /* \"#utility.yul\":3837:3976   */\n    tag_95:\n        /* \"#utility.yul\":3883:3888   */\n      0x00\n        /* \"#utility.yul\":3921:3927   */\n      dup2\n        /* \"#utility.yul\":3908:3928   */\n      calldataload\n        /* \"#utility.yul\":3899:3928   */\n      swap1\n      pop\n        /* \"#utility.yul\":3937:3970   */\n      tag_144\n        /* \"#utility.yul\":3964:3969   */\n      dup2\n        /* \"#utility.yul\":3937:3970   */\n      tag_94\n      jump\t// in\n    tag_144:\n        /* \"#utility.yul\":3837:3976   */\n      swap3\n      swap2\n      pop\n      pop\n      jump\t// out\n        /* \"#utility.yul\":3999:4709   */\n    tag_96:\n        /* \"#utility.yul\":4095:4100   */\n      0x00\n        /* \"#utility.yul\":4120:4201   */\n      tag_146\n        /* \"#utility.yul\":4136:4200   */\n      tag_147\n        /* \"#utility.yul\":4193:4199   */\n      dup5\n        /* \"#utility.yul\":4136:4200   */\n      tag_92\n      jump\t// in\n    tag_147:\n        /* \"#utility.yul\":4120:4201   */\n      tag_91\n      jump\t// in\n    tag_146:\n        /* \"#utility.yul\":4111:4201   */\n      swap1\n      pop\n        /* \"#utility.yul\":4221:4226   */\n      dup1\n        /* \"#utility.yul\":4250:4256   */\n      dup4\n        /* \"#utility.yul\":4243:4248   */\n      dup3\n        /* \"#utility.yul\":4236:4257   */\n      mstore\n        /* \"#utility.yul\":4284:4288   */\n      0x20\n        /* \"#utility.yul\":4277:4282   */\n      dup3\n        /* \"#utility.yul\":4273:4289   */\n      add\n        /* \"#utility.yul\":4266:4289   */\n      swap1\n      pop\n        /* \"#utility.yul\":4337:4341   */\n      0x20\n        /* \"#utility.yul\":4329:4335   */\n      dup5\n        /* \"#utility.yul\":4325:4342   */\n      mul\n        /* \"#utility.yul\":4317:4323   */\n      dup4\n        /* \"#utility.yul\":4313:4343   */\n      add\n        /* \"#utility.yul\":4366:4369   */\n      dup6\n        /* \"#utility.yul\":4358:4364   */\n      dup2\n        /* \"#utility.yul\":4355:4370   */\n      gt\n        /* \"#utility.yul\":4352:4474   */\n      iszero\n      tag_148\n      jumpi\n        /* \"#utility.yul\":4385:4464   */\n      tag_149\n      tag_93\n      jump\t// in\n    tag_149:\n        /* \"#utility.yul\":4352:4474   */\n    tag_148:\n        /* \"#utility.yul\":4500:4506   */\n      dup4\n        /* \"#utility.yul\":4483:4703   */\n    tag_150:\n        /* \"#utility.yul\":4517:4523   */\n      dup2\n        /* \"#utility.yul\":4512:4515   */\n      dup2\n        /* \"#utility.yul\":4509:4524   */\n      lt\n        /* \"#utility.yul\":4483:4703   */\n      iszero\n      tag_152\n      jumpi\n        /* \"#utility.yul\":4592:4595   */\n      dup1\n        /* \"#utility.yul\":4621:4658   */\n      tag_153\n        /* \"#utility.yul\":4654:4657   */\n      dup9\n        /* \"#utility.yul\":4642:4652   */\n      dup3\n        /* \"#utility.yul\":4621:4658   */\n      tag_95\n      jump\t// in\n    tag_153:\n        /* \"#utility.yul\":4616:4619   */\n      dup5\n        /* \"#utility.yul\":4609:4659   */\n      mstore\n        /* \"#utility.yul\":4688:4692   */\n      0x20\n        /* \"#utility.yul\":4683:4686   */\n      dup5\n        /* \"#utility.yul\":4679:4693   */\n      add\n        /* \"#utility.yul\":4672:4693   */\n      swap4\n      pop\n        /* \"#utility.yul\":4559:4703   */\n      pop\n        /* \"#utility.yul\":4543:4547   */\n      0x20\n        /* \"#utility.yul\":4538:4541   */\n      dup2\n        /* \"#utility.yul\":4534:4548   */\n      add\n        /* \"#utility.yul\":4527:4548   */\n      swap1\n      pop\n        /* \"#utility.yul\":4483:4703   */\n      jump(tag_150)\n    tag_152:\n        /* \"#utility.yul\":4487:4508   */\n      pop\n        /* \"#utility.yul\":4101:4709   */\n      pop\n      pop\n        /* \"#utility.yul\":3999:4709   */\n      swap4\n      swap3\n      pop\n      pop\n      pop\n      jump\t// out\n        /* \"#utility.yul\":4732:5102   */\n    tag_97:\n        /* \"#utility.yul\":4803:4808   */\n      0x00\n        /* \"#utility.yul\":4852:4855   */\n      dup3\n        /* \"#utility.yul\":4845:4849   */\n      0x1f\n        /* \"#utility.yul\":4837:4843   */\n      dup4\n        /* \"#utility.yul\":4833:4850   */\n      add\n        /* \"#utility.yul\":4829:4856   */\n      slt\n        /* \"#utility.yul\":4819:4941   */\n      tag_155\n      jumpi\n        /* \"#utility.yul\":4860:4939   */\n      tag_156\n      tag_87\n      jump\t// in\n    tag_156:\n        /* \"#utility.yul\":4819:4941   */\n    tag_155:\n        /* \"#utility.yul\":4977:4983   */\n      dup2\n        /* \"#utility.yul\":4964:4984   */\n      calldataload\n        /* \"#utility.yul\":5002:5096   */\n      tag_157\n        /* \"#utility.yul\":5092:5095   */\n      dup5\n        /* \"#utility.yul\":5084:5090   */\n      dup3\n        /* \"#utility.yul\":5077:5081   */\n      0x20\n        /* \"#utility.yul\":5069:5075   */\n      dup7\n        /* \"#utility.yul\":5065:5082   */\n      add\n        /* \"#utility.yul\":5002:5096   */\n      tag_96\n      jump\t// in\n    tag_157:\n        /* \"#utility.yul\":4993:5096   */\n      swap2\n      pop\n        /* \"#utility.yul\":4809:5102   */\n      pop\n        /* \"#utility.yul\":4732:5102   */\n      swap3\n      swap2\n      pop\n      pop\n      jump\t// out\n        /* \"#utility.yul\":5108:5647   */\n    tag_17:\n        /* \"#utility.yul\":5192:5198   */\n      0x00\n        /* \"#utility.yul\":5241:5243   */\n      0x20\n        /* \"#utility.yul\":5229:5238   */\n      dup3\n        /* \"#utility.yul\":5220:5227   */\n      dup5\n        /* \"#utility.yul\":5216:5239   */\n      sub\n        /* \"#utility.yul\":5212:5244   */\n      slt\n        /* \"#utility.yul\":5209:5328   */\n      iszero\n      tag_159\n      jumpi\n        /* \"#utility.yul\":5247:5326   */\n      tag_160\n      tag_85\n      jump\t// in\n    tag_160:\n        /* \"#utility.yul\":5209:5328   */\n    tag_159:\n        /* \"#utility.yul\":5395:5396   */\n      0x00\n        /* \"#utility.yul\":5384:5393   */\n      dup3\n        /* \"#utility.yul\":5380:5397   */\n      add\n        /* \"#utility.yul\":5367:5398   */\n      calldataload\n        /* \"#utility.yul\":5425:5443   */\n      0xffffffffffffffff\n        /* \"#utility.yul\":5417:5423   */\n      dup2\n        /* \"#utility.yul\":5414:5444   */\n      gt\n        /* \"#utility.yul\":5411:5528   */\n      iszero\n      tag_161\n      jumpi\n        /* \"#utility.yul\":5447:5526   */\n      tag_162\n      tag_86\n      jump\t// in\n    tag_162:\n        /* \"#utility.yul\":5411:5528   */\n    tag_161:\n        /* \"#utility.yul\":5552:5630   */\n      tag_163\n        /* \"#utility.yul\":5622:5629   */\n      dup5\n        /* \"#utility.yul\":5613:5619   */\n      dup3\n        /* \"#utility.yul\":5602:5611   */\n      dup6\n        /* \"#utility.yul\":5598:5620   */\n      add\n        /* \"#utility.yul\":5552:5630   */\n      tag_97\n      jump\t// in\n    tag_163:\n        /* \"#utility.yul\":5542:5630   */\n      swap2\n      pop\n        /* \"#utility.yul\":5338:5640   */\n      pop\n        /* \"#utility.yul\":5108:5647   */\n      swap3\n      swap2\n      pop\n      pop\n      jump\t// out\n        /* \"#utility.yul\":5653:6127   */\n    tag_24:\n        /* \"#utility.yul\":5721:5727   */\n      0x00\n        /* \"#utility.yul\":5729:5735   */\n      dup1\n        /* \"#utility.yul\":5778:5780   */\n      0x40\n        /* \"#utility.yul\":5766:5775   */\n      dup4\n        /* \"#utility.yul\":5757:5764   */\n      dup6\n        /* \"#utility.yul\":5753:5776   */\n      sub\n        /* \"#utility.yul\":5749:5781   */\n      slt\n        /* \"#utility.yul\":5746:5865   */\n      iszero\n      tag_165\n      jumpi\n        /* \"#utility.yul\":5784:5863   */\n      tag_166\n      tag_85\n      jump\t// in\n    tag_166:\n        /* \"#utility.yul\":5746:5865   */\n    tag_165:\n        /* \"#utility.yul\":5904:5905   */\n      0x00\n        /* \"#utility.yul\":5929:5982   */\n      tag_167\n        /* \"#utility.yul\":5974:5981   */\n      dup6\n        /* \"#utility.yul\":5965:5971   */\n      dup3\n        /* \"#utility.yul\":5954:5963   */\n      dup7\n        /* \"#utility.yul\":5950:5972   */\n      add\n        /* \"#utility.yul\":5929:5982   */\n      tag_95\n      jump\t// in\n    tag_167:\n        /* \"#utility.yul\":5919:5982   */\n      swap3\n      pop\n        /* \"#utility.yul\":5875:5992   */\n      pop\n        /* \"#utility.yul\":6031:6033   */\n      0x20\n        /* \"#utility.yul\":6057:6110   */\n      tag_168\n        /* \"#utility.yul\":6102:6109   */\n      dup6\n        /* \"#utility.yul\":6093:6099   */\n      dup3\n        /* \"#utility.yul\":6082:6091   */\n      dup7\n        /* \"#utility.yul\":6078:6100   */\n      add\n        /* \"#utility.yul\":6057:6110   */\n      tag_95\n      jump\t// in\n    tag_168:\n        /* \"#utility.yul\":6047:6110   */\n      swap2\n      pop\n        /* \"#utility.yul\":6002:6120   */\n      pop\n        /* \"#utility.yul\":5653:6127   */\n      swap3\n      pop\n      swap3\n      swap1\n      pop\n      jump\t// out\n        /* \"#utility.yul\":6133:6462   */\n    tag_35:\n        /* \"#utility.yul\":6192:6198   */\n      0x00\n        /* \"#utility.yul\":6241:6243   */\n      0x20\n        /* \"#utility.yul\":6229:6238   */\n      dup3\n        /* \"#utility.yul\":6220:6227   */\n      dup5\n        /* \"#utility.yul\":6216:6239   */\n      sub\n        /* \"#utility.yul\":6212:6244   */\n      slt\n        /* \"#utility.yul\":6209:6328   */\n      iszero\n      tag_170\n      jumpi\n        /* \"#utility.yul\":6247:6326   */\n      tag_171\n      tag_85\n      jump\t// in\n    tag_171:\n        /* \"#utility.yul\":6209:6328   */\n    tag_170:\n        /* \"#utility.yul\":6367:6368   */\n      0x00\n        /* \"#utility.yul\":6392:6445   */\n      tag_172\n        /* \"#utility.yul\":6437:6444   */\n      dup5\n        /* \"#utility.yul\":6428:6434   */\n      dup3\n        /* \"#utility.yul\":6417:6426   */\n      dup6\n        /* \"#utility.yul\":6413:6435   */\n      add\n        /* \"#utility.yul\":6392:6445   */\n      tag_95\n      jump\t// in\n    tag_172:\n        /* \"#utility.yul\":6382:6445   */\n      swap2\n      pop\n        /* \"#utility.yul\":6338:6455   */\n      pop\n        /* \"#utility.yul\":6133:6462   */\n      swap3\n      swap2\n      pop\n      pop\n      jump\t// out\n        /* \"#utility.yul\":6468:6586   */\n    tag_98:\n        /* \"#utility.yul\":6555:6579   */\n      tag_174\n        /* \"#utility.yul\":6573:6578   */\n      dup2\n        /* \"#utility.yul\":6555:6579   */\n      tag_79\n      jump\t// in\n    tag_174:\n        /* \"#utility.yul\":6550:6553   */\n      dup3\n        /* \"#utility.yul\":6543:6580   */\n      mstore\n        /* \"#utility.yul\":6468:6586   */\n      pop\n      pop\n      jump\t// out\n        /* \"#utility.yul\":6592:6814   */\n    tag_38:\n        /* \"#utility.yul\":6685:6689   */\n      0x00\n        /* \"#utility.yul\":6723:6725   */\n      0x20\n        /* \"#utility.yul\":6712:6721   */\n      dup3\n        /* \"#utility.yul\":6708:6726   */\n      add\n        /* \"#utility.yul\":6700:6726   */\n      swap1\n      pop\n        /* \"#utility.yul\":6736:6807   */\n      tag_176\n        /* \"#utility.yul\":6804:6805   */\n      0x00\n        /* \"#utility.yul\":6793:6802   */\n      dup4\n        /* \"#utility.yul\":6789:6806   */\n      add\n        /* \"#utility.yul\":6780:6786   */\n      dup5\n        /* \"#utility.yul\":6736:6807   */\n      tag_98\n      jump\t// in\n    tag_176:\n        /* \"#utility.yul\":6592:6814   */\n      swap3\n      swap2\n      pop\n      pop\n      jump\t// out\n        /* \"#utility.yul\":6820:7000   */\n    tag_48:\n        /* \"#utility.yul\":6868:6945   */\n      0x4e487b7100000000000000000000000000000000000000000000000000000000\n        /* \"#utility.yul\":6865:6866   */\n      0x00\n        /* \"#utility.yul\":6858:6946   */\n      mstore\n        /* \"#utility.yul\":6965:6969   */\n      0x32\n        /* \"#utility.yul\":6962:6963   */\n      0x04\n        /* \"#utility.yul\":6955:6970   */\n      mstore\n        /* \"#utility.yul\":6989:6993   */\n      0x24\n        /* \"#utility.yul\":6986:6987   */\n      0x00\n        /* \"#utility.yul\":6979:6994   */\n      revert\n        /* \"#utility.yul\":7006:7175   */\n    tag_99:\n        /* \"#utility.yul\":7090:7101   */\n      0x00\n        /* \"#utility.yul\":7124:7130   */\n      dup3\n        /* \"#utility.yul\":7119:7122   */\n      dup3\n        /* \"#utility.yul\":7112:7131   */\n      mstore\n        /* \"#utility.yul\":7164:7168   */\n      0x20\n        /* \"#utility.yul\":7159:7162   */\n      dup3\n        /* \"#utility.yul\":7155:7169   */\n      add\n        /* \"#utility.yul\":7140:7169   */\n      swap1\n      pop\n        /* \"#utility.yul\":7006:7175   */\n      swap3\n      swap2\n      pop\n      pop\n      jump\t// out\n        /* \"#utility.yul\":7181:7350   */\n    tag_100:\n        /* \"#utility.yul\":7321:7342   */\n      0x496e646578206f7574206f6620626f756e647300000000000000000000000000\n        /* \"#utility.yul\":7317:7318   */\n      0x00\n        /* \"#utility.yul\":7309:7315   */\n      dup3\n        /* \"#utility.yul\":7305:7319   */\n      add\n        /* \"#utility.yul\":7298:7343   */\n      mstore\n        /* \"#utility.yul\":7181:7350   */\n      pop\n      jump\t// out\n        /* \"#utility.yul\":7356:7722   */\n    tag_101:\n        /* \"#utility.yul\":7498:7501   */\n      0x00\n        /* \"#utility.yul\":7519:7586   */\n      tag_181\n        /* \"#utility.yul\":7583:7585   */\n      0x13\n        /* \"#utility.yul\":7578:7581   */\n      dup4\n        /* \"#utility.yul\":7519:7586   */\n      tag_99\n      jump\t// in\n    tag_181:\n        /* \"#utility.yul\":7512:7586   */\n      swap2\n      pop\n        /* \"#utility.yul\":7595:7688   */\n      tag_182\n        /* \"#utility.yul\":7684:7687   */\n      dup3\n        /* \"#utility.yul\":7595:7688   */\n      tag_100\n      jump\t// in\n    tag_182:\n        /* \"#utility.yul\":7713:7715   */\n      0x20\n        /* \"#utility.yul\":7708:7711   */\n      dup3\n        /* \"#utility.yul\":7704:7716   */\n      add\n        /* \"#utility.yul\":7697:7716   */\n      swap1\n      pop\n        /* \"#utility.yul\":7356:7722   */\n      swap2\n      swap1\n      pop\n      jump\t// out\n        /* \"#utility.yul\":7728:8147   */\n    tag_55:\n        /* \"#utility.yul\":7894:7898   */\n      0x00\n        /* \"#utility.yul\":7932:7934   */\n      0x20\n        /* \"#utility.yul\":7921:7930   */\n      dup3\n        /* \"#utility.yul\":7917:7935   */\n      add\n        /* \"#utility.yul\":7909:7935   */\n      swap1\n      pop\n        /* \"#utility.yul\":7981:7990   */\n      dup2\n        /* \"#utility.yul\":7975:7979   */\n      dup2\n        /* \"#utility.yul\":7971:7991   */\n      sub\n        /* \"#utility.yul\":7967:7968   */\n      0x00\n        /* \"#utility.yul\":7956:7965   */\n      dup4\n        /* \"#utility.yul\":7952:7969   */\n      add\n        /* \"#utility.yul\":7945:7992   */\n      mstore\n        /* \"#utility.yul\":8009:8140   */\n      tag_184\n        /* \"#utility.yul\":8135:8139   */\n      dup2\n        /* \"#utility.yul\":8009:8140   */\n      tag_101\n      jump\t// in\n    tag_184:\n        /* \"#utility.yul\":8001:8140   */\n      swap1\n      pop\n        /* \"#utility.yul\":7728:8147   */\n      swap2\n      swap1\n      pop\n      jump\t// out\n\n    auxdata: 0xa2646970667358221220ded6743452a52393fd352c14d5de33a2848231aa714e4c7c3ab9895517c5c9d864736f6c634300081a0033\n}\n",
				"bytecode": {
					"linkReferences": {},
					"object": "6080604052348015600e575f80fd5b5061078c8061001c5f395ff3fe608060405234801561000f575f80fd5b506004361061007b575f3560e01c8063948ad7ad11610059578063948ad7ad146100d5578063aa44269d146100f1578063c104210b1461010d578063f0ba84401461013d5761007b565b80633bc5de301461007f57806340dcbb081461009d5780637bc5bbbf146100b9575b5f80fd5b61008761016d565b604051610094919061042e565b60405180910390f35b6100b760048036038101906100b291906105d9565b6101c2565b005b6100d360048036038101906100ce91906105d9565b6101c5565b005b6100ef60048036038101906100ea9190610620565b610213565b005b61010b600480360381019061010691906105d9565b61027d565b005b610127600480360381019061012291906105d9565b610296565b604051610134919061042e565b60405180910390f35b6101576004803603810190610152919061065e565b6102cb565b6040516101649190610698565b60405180910390f35b60605f8054806020026020016040519081016040528092919081815260200182805480156101b857602002820191905f5260205f20905b8154815260200190600101908083116101a4575b5050505050905090565b50565b80600190805190602001906101db9291906102ea565b505f600190506064815f815481106101f6576101f56106b1565b5b905f5260205f20018190555060015f61020f9190610335565b5050565b5f805490508210610259576040517f08c379a000000000000000000000000000000000000000000000000000000000815260040161025090610738565b60405180910390fd5b805f838154811061026d5761026c6106b1565b5b905f5260205f2001819055505050565b805f90805190602001906102929291906102ea565b5050565b60605f825111156102c3576063825f815181106102b6576102b56106b1565b5b6020026020010181815250505b819050919050565b5f81815481106102d9575f80fd5b905f5260205f20015f915090505481565b828054828255905f5260205f20908101928215610324579160200282015b82811115610323578251825591602001919060010190610308565b5b5090506103319190610353565b5090565b5080545f8255905f5260205f20908101906103509190610353565b50565b5b8082111561036a575f815f905550600101610354565b5090565b5f81519050919050565b5f82825260208201905092915050565b5f819050602082019050919050565b5f819050919050565b6103a981610397565b82525050565b5f6103ba83836103a0565b60208301905092915050565b5f602082019050919050565b5f6103dc8261036e565b6103e68185610378565b93506103f183610388565b805f5b8381101561042157815161040888826103af565b9750610413836103c6565b9250506001810190506103f4565b5085935050505092915050565b5f6020820190508181035f83015261044681846103d2565b905092915050565b5f604051905090565b5f80fd5b5f80fd5b5f80fd5b5f601f19601f8301169050919050565b7f4e487b71000000000000000000000000000000000000000000000000000000005f52604160045260245ffd5b6104a982610463565b810181811067ffffffffffffffff821117156104c8576104c7610473565b5b80604052505050565b5f6104da61044e565b90506104e682826104a0565b919050565b5f67ffffffffffffffff82111561050557610504610473565b5b602082029050602081019050919050565b5f80fd5b61052381610397565b811461052d575f80fd5b50565b5f8135905061053e8161051a565b92915050565b5f610556610551846104eb565b6104d1565b9050808382526020820190506020840283018581111561057957610578610516565b5b835b818110156105a2578061058e8882610530565b84526020840193505060208101905061057b565b5050509392505050565b5f82601f8301126105c0576105bf61045f565b5b81356105d0848260208601610544565b91505092915050565b5f602082840312156105ee576105ed610457565b5b5f82013567ffffffffffffffff81111561060b5761060a61045b565b5b610617848285016105ac565b91505092915050565b5f806040838503121561063657610635610457565b5b5f61064385828601610530565b925050602061065485828601610530565b9150509250929050565b5f6020828403121561067357610672610457565b5b5f61068084828501610530565b91505092915050565b61069281610397565b82525050565b5f6020820190506106ab5f830184610689565b92915050565b7f4e487b71000000000000000000000000000000000000000000000000000000005f52603260045260245ffd5b5f82825260208201905092915050565b7f496e646578206f7574206f6620626f756e6473000000000000000000000000005f82015250565b5f6107226013836106de565b915061072d826106ee565b602082019050919050565b5f6020820190508181035f83015261074f81610716565b905091905056fea2646970667358221220ded6743452a52393fd352c14d5de33a2848231aa714e4c7c3ab9895517c5c9d864736f6c634300081a0033",
					"opcodes": "PUSH1 0x80 PUSH1 0x40 MSTORE CALLVALUE DUP1 ISZERO PUSH1 0xE JUMPI PUSH0 DUP1 REVERT JUMPDEST POP PUSH2 0x78C DUP1 PUSH2 0x1C PUSH0 CODECOPY PUSH0 RETURN INVALID PUSH1 0x80 PUSH1 0x40 MSTORE CALLVALUE DUP1 ISZERO PUSH2 0xF JUMPI PUSH0 DUP1 REVERT JUMPDEST POP PUSH1 0x4 CALLDATASIZE LT PUSH2 0x7B JUMPI PUSH0 CALLDATALOAD PUSH1 0xE0 SHR DUP1 PUSH4 0x948AD7AD GT PUSH2 0x59 JUMPI DUP1 PUSH4 0x948AD7AD EQ PUSH2 0xD5 JUMPI DUP1 PUSH4 0xAA44269D EQ PUSH2 0xF1 JUMPI DUP1 PUSH4 0xC104210B EQ PUSH2 0x10D JUMPI DUP1 PUSH4 0xF0BA8440 EQ PUSH2 0x13D JUMPI PUSH2 0x7B JUMP JUMPDEST DUP1 PUSH4 0x3BC5DE30 EQ PUSH2 0x7F JUMPI DUP1 PUSH4 0x40DCBB08 EQ PUSH2 0x9D JUMPI DUP1 PUSH4 0x7BC5BBBF EQ PUSH2 0xB9 JUMPI JUMPDEST PUSH0 DUP1 REVERT JUMPDEST PUSH2 0x87 PUSH2 0x16D JUMP JUMPDEST PUSH1 0x40 MLOAD PUSH2 0x94 SWAP2 SWAP1 PUSH2 0x42E JUMP JUMPDEST PUSH1 0x40 MLOAD DUP1 SWAP2 SUB SWAP1 RETURN JUMPDEST PUSH2 0xB7 PUSH1 0x4 DUP1 CALLDATASIZE SUB DUP2 ADD SWAP1 PUSH2 0xB2 SWAP2 SWAP1 PUSH2 0x5D9 JUMP JUMPDEST PUSH2 0x1C2 JUMP JUMPDEST STOP JUMPDEST PUSH2 0xD3 PUSH1 0x4 DUP1 CALLDATASIZE SUB DUP2 ADD SWAP1 PUSH2 0xCE SWAP2 SWAP1 PUSH2 0x5D9 JUMP JUMPDEST PUSH2 0x1C5 JUMP JUMPDEST STOP JUMPDEST PUSH2 0xEF PUSH1 0x4 DUP1 CALLDATASIZE SUB DUP2 ADD SWAP1 PUSH2 0xEA SWAP2 SWAP1 PUSH2 0x620 JUMP JUMPDEST PUSH2 0x213 JUMP JUMPDEST STOP JUMPDEST PUSH2 0x10B PUSH1 0x4 DUP1 CALLDATASIZE SUB DUP2 ADD SWAP1 PUSH2 0x106 SWAP2 SWAP1 PUSH2 0x5D9 JUMP JUMPDEST PUSH2 0x27D JUMP JUMPDEST STOP JUMPDEST PUSH2 0x127 PUSH1 0x4 DUP1 CALLDATASIZE SUB DUP2 ADD SWAP1 PUSH2 0x122 SWAP2 SWAP1 PUSH2 0x5D9 JUMP JUMPDEST PUSH2 0x296 JUMP JUMPDEST PUSH1 0x40 MLOAD PUSH2 0x134 SWAP2 SWAP1 PUSH2 0x42E JUMP JUMPDEST PUSH1 0x40 MLOAD DUP1 SWAP2 SUB SWAP1 RETURN JUMPDEST PUSH2 0x157 PUSH1 0x4 DUP1 CALLDATASIZE SUB DUP2 ADD SWAP1 PUSH2 0x152 SWAP2 SWAP1 PUSH2 0x65E JUMP JUMPDEST PUSH2 0x2CB JUMP JUMPDEST PUSH1 0x40 MLOAD PUSH2 0x164 SWAP2 SWAP1 PUSH2 0x698 JUMP JUMPDEST PUSH1 0x40 MLOAD DUP1 SWAP2 SUB SWAP1 RETURN JUMPDEST PUSH1 0x60 PUSH0 DUP1 SLOAD DUP1 PUSH1 0x20 MUL PUSH1 0x20 ADD PUSH1 0x40 MLOAD SWAP1 DUP2 ADD PUSH1 0x40 MSTORE DUP1 SWAP3 SWAP2 SWAP1 DUP2 DUP2 MSTORE PUSH1 0x20 ADD DUP3 DUP1 SLOAD DUP1 ISZERO PUSH2 0x1B8 JUMPI PUSH1 0x20 MUL DUP3 ADD SWAP2 SWAP1 PUSH0 MSTORE PUSH1 0x20 PUSH0 KECCAK256 SWAP1 JUMPDEST DUP2 SLOAD DUP2 MSTORE PUSH1 0x20 ADD SWAP1 PUSH1 0x1 ADD SWAP1 DUP1 DUP4 GT PUSH2 0x1A4 JUMPI JUMPDEST POP POP POP POP POP SWAP1 POP SWAP1 JUMP JUMPDEST POP JUMP JUMPDEST DUP1 PUSH1 0x1 SWAP1 DUP1 MLOAD SWAP1 PUSH1 0x20 ADD SWAP1 PUSH2 0x1DB SWAP3 SWAP2 SWAP1 PUSH2 0x2EA JUMP JUMPDEST POP PUSH0 PUSH1 0x1 SWAP1 POP PUSH1 0x64 DUP2 PUSH0 DUP2 SLOAD DUP2 LT PUSH2 0x1F6 JUMPI PUSH2 0x1F5 PUSH2 0x6B1 JUMP JUMPDEST JUMPDEST SWAP1 PUSH0 MSTORE PUSH1 0x20 PUSH0 KECCAK256 ADD DUP2 SWAP1 SSTORE POP PUSH1 0x1 PUSH0 PUSH2 0x20F SWAP2 SWAP1 PUSH2 0x335 JUMP JUMPDEST POP POP JUMP JUMPDEST PUSH0 DUP1 SLOAD SWAP1 POP DUP3 LT PUSH2 0x259 JUMPI PUSH1 0x40 MLOAD PUSH32 0x8C379A000000000000000000000000000000000000000000000000000000000 DUP2 MSTORE PUSH1 0x4 ADD PUSH2 0x250 SWAP1 PUSH2 0x738 JUMP JUMPDEST PUSH1 0x40 MLOAD DUP1 SWAP2 SUB SWAP1 REVERT JUMPDEST DUP1 PUSH0 DUP4 DUP2 SLOAD DUP2 LT PUSH2 0x26D JUMPI PUSH2 0x26C PUSH2 0x6B1 JUMP JUMPDEST JUMPDEST SWAP1 PUSH0 MSTORE PUSH1 0x20 PUSH0 KECCAK256 ADD DUP2 SWAP1 SSTORE POP POP POP JUMP JUMPDEST DUP1 PUSH0 SWAP1 DUP1 MLOAD SWAP1 PUSH1 0x20 ADD SWAP1 PUSH2 0x292 SWAP3 SWAP2 SWAP1 PUSH2 0x2EA JUMP JUMPDEST POP POP JUMP JUMPDEST PUSH1 0x60 PUSH0 DUP3 MLOAD GT ISZERO PUSH2 0x2C3 JUMPI PUSH1 0x63 DUP3 PUSH0 DUP2 MLOAD DUP2 LT PUSH2 0x2B6 JUMPI PUSH2 0x2B5 PUSH2 0x6B1 JUMP JUMPDEST JUMPDEST PUSH1 0x20 MUL PUSH1 0x20 ADD ADD DUP2 DUP2 MSTORE POP POP JUMPDEST DUP2 SWAP1 POP SWAP2 SWAP1 POP JUMP JUMPDEST PUSH0 DUP2 DUP2 SLOAD DUP2 LT PUSH2 0x2D9 JUMPI PUSH0 DUP1 REVERT JUMPDEST SWAP1 PUSH0 MSTORE PUSH1 0x20 PUSH0 KECCAK256 ADD PUSH0 SWAP2 POP SWAP1 POP SLOAD DUP2 JUMP JUMPDEST DUP3 DUP1 SLOAD DUP3 DUP3 SSTORE SWAP1 PUSH0 MSTORE PUSH1 0x20 PUSH0 KECCAK256 SWAP1 DUP2 ADD SWAP3 DUP3 ISZERO PUSH2 0x324 JUMPI SWAP2 PUSH1 0x20 MUL DUP3 ADD JUMPDEST DUP3 DUP2 GT ISZERO PUSH2 0x323 JUMPI DUP3 MLOAD DUP3 SSTORE SWAP2 PUSH1 0x20 ADD SWAP2 SWAP1 PUSH1 0x1 ADD SWAP1 PUSH2 0x308 JUMP JUMPDEST JUMPDEST POP SWAP1 POP PUSH2 0x331 SWAP2 SWAP1 PUSH2 0x353 JUMP JUMPDEST POP SWAP1 JUMP JUMPDEST POP DUP1 SLOAD PUSH0 DUP3 SSTORE SWAP1 PUSH0 MSTORE PUSH1 0x20 PUSH0 KECCAK256 SWAP1 DUP2 ADD SWAP1 PUSH2 0x350 SWAP2 SWAP1 PUSH2 0x353 JUMP JUMPDEST POP JUMP JUMPDEST JUMPDEST DUP1 DUP3 GT ISZERO PUSH2 0x36A JUMPI PUSH0 DUP2 PUSH0 SWAP1 SSTORE POP PUSH1 0x1 ADD PUSH2 0x354 JUMP JUMPDEST POP SWAP1 JUMP JUMPDEST PUSH0 DUP2 MLOAD SWAP1 POP SWAP2 SWAP1 POP JUMP JUMPDEST PUSH0 DUP3 DUP3 MSTORE PUSH1 0x20 DUP3 ADD SWAP1 POP SWAP3 SWAP2 POP POP JUMP JUMPDEST PUSH0 DUP2 SWAP1 POP PUSH1 0x20 DUP3 ADD SWAP1 POP SWAP2 SWAP1 POP JUMP JUMPDEST PUSH0 DUP2 SWAP1 POP SWAP2 SWAP1 POP JUMP JUMPDEST PUSH2 0x3A9 DUP2 PUSH2 0x397 JUMP JUMPDEST DUP3 MSTORE POP POP JUMP JUMPDEST PUSH0 PUSH2 0x3BA DUP4 DUP4 PUSH2 0x3A0 JUMP JUMPDEST PUSH1 0x20 DUP4 ADD SWAP1 POP SWAP3 SWAP2 POP POP JUMP JUMPDEST PUSH0 PUSH1 0x20 DUP3 ADD SWAP1 POP SWAP2 SWAP1 POP JUMP JUMPDEST PUSH0 PUSH2 0x3DC DUP3 PUSH2 0x36E JUMP JUMPDEST PUSH2 0x3E6 DUP2 DUP6 PUSH2 0x378 JUMP JUMPDEST SWAP4 POP PUSH2 0x3F1 DUP4 PUSH2 0x388 JUMP JUMPDEST DUP1 PUSH0 JUMPDEST DUP4 DUP2 LT ISZERO PUSH2 0x421 JUMPI DUP2 MLOAD PUSH2 0x408 DUP9 DUP3 PUSH2 0x3AF JUMP JUMPDEST SWAP8 POP PUSH2 0x413 DUP4 PUSH2 0x3C6 JUMP JUMPDEST SWAP3 POP POP PUSH1 0x1 DUP2 ADD SWAP1 POP PUSH2 0x3F4 JUMP JUMPDEST POP DUP6 SWAP4 POP POP POP POP SWAP3 SWAP2 POP POP JUMP JUMPDEST PUSH0 PUSH1 0x20 DUP3 ADD SWAP1 POP DUP2 DUP2 SUB PUSH0 DUP4 ADD MSTORE PUSH2 0x446 DUP2 DUP5 PUSH2 0x3D2 JUMP JUMPDEST SWAP1 POP SWAP3 SWAP2 POP POP JUMP JUMPDEST PUSH0 PUSH1 0x40 MLOAD SWAP1 POP SWAP1 JUMP JUMPDEST PUSH0 DUP1 REVERT JUMPDEST PUSH0 DUP1 REVERT JUMPDEST PUSH0 DUP1 REVERT JUMPDEST PUSH0 PUSH1 0x1F NOT PUSH1 0x1F DUP4 ADD AND SWAP1 POP SWAP2 SWAP1 POP JUMP JUMPDEST PUSH32 0x4E487B7100000000000000000000000000000000000000000000000000000000 PUSH0 MSTORE PUSH1 0x41 PUSH1 0x4 MSTORE PUSH1 0x24 PUSH0 REVERT JUMPDEST PUSH2 0x4A9 DUP3 PUSH2 0x463 JUMP JUMPDEST DUP2 ADD DUP2 DUP2 LT PUSH8 0xFFFFFFFFFFFFFFFF DUP3 GT OR ISZERO PUSH2 0x4C8 JUMPI PUSH2 0x4C7 PUSH2 0x473 JUMP JUMPDEST JUMPDEST DUP1 PUSH1 0x40 MSTORE POP POP POP JUMP JUMPDEST PUSH0 PUSH2 0x4DA PUSH2 0x44E JUMP JUMPDEST SWAP1 POP PUSH2 0x4E6 DUP3 DUP3 PUSH2 0x4A0 JUMP JUMPDEST SWAP2 SWAP1 POP JUMP JUMPDEST PUSH0 PUSH8 0xFFFFFFFFFFFFFFFF DUP3 GT ISZERO PUSH2 0x505 JUMPI PUSH2 0x504 PUSH2 0x473 JUMP JUMPDEST JUMPDEST PUSH1 0x20 DUP3 MUL SWAP1 POP PUSH1 0x20 DUP2 ADD SWAP1 POP SWAP2 SWAP1 POP JUMP JUMPDEST PUSH0 DUP1 REVERT JUMPDEST PUSH2 0x523 DUP2 PUSH2 0x397 JUMP JUMPDEST DUP2 EQ PUSH2 0x52D JUMPI PUSH0 DUP1 REVERT JUMPDEST POP JUMP JUMPDEST PUSH0 DUP2 CALLDATALOAD SWAP1 POP PUSH2 0x53E DUP2 PUSH2 0x51A JUMP JUMPDEST SWAP3 SWAP2 POP POP JUMP JUMPDEST PUSH0 PUSH2 0x556 PUSH2 0x551 DUP5 PUSH2 0x4EB JUMP JUMPDEST PUSH2 0x4D1 JUMP JUMPDEST SWAP1 POP DUP1 DUP4 DUP3 MSTORE PUSH1 0x20 DUP3 ADD SWAP1 POP PUSH1 0x20 DUP5 MUL DUP4 ADD DUP6 DUP2 GT ISZERO PUSH2 0x579 JUMPI PUSH2 0x578 PUSH2 0x516 JUMP JUMPDEST JUMPDEST DUP4 JUMPDEST DUP2 DUP2 LT ISZERO PUSH2 0x5A2 JUMPI DUP1 PUSH2 0x58E DUP9 DUP3 PUSH2 0x530 JUMP JUMPDEST DUP5 MSTORE PUSH1 0x20 DUP5 ADD SWAP4 POP POP PUSH1 0x20 DUP2 ADD SWAP1 POP PUSH2 0x57B JUMP JUMPDEST POP POP POP SWAP4 SWAP3 POP POP POP JUMP JUMPDEST PUSH0 DUP3 PUSH1 0x1F DUP4 ADD SLT PUSH2 0x5C0 JUMPI PUSH2 0x5BF PUSH2 0x45F JUMP JUMPDEST JUMPDEST DUP2 CALLDATALOAD PUSH2 0x5D0 DUP5 DUP3 PUSH1 0x20 DUP7 ADD PUSH2 0x544 JUMP JUMPDEST SWAP2 POP POP SWAP3 SWAP2 POP POP JUMP JUMPDEST PUSH0 PUSH1 0x20 DUP3 DUP5 SUB SLT ISZERO PUSH2 0x5EE JUMPI PUSH2 0x5ED PUSH2 0x457 JUMP JUMPDEST JUMPDEST PUSH0 DUP3 ADD CALLDATALOAD PUSH8 0xFFFFFFFFFFFFFFFF DUP2 GT ISZERO PUSH2 0x60B JUMPI PUSH2 0x60A PUSH2 0x45B JUMP JUMPDEST JUMPDEST PUSH2 0x617 DUP5 DUP3 DUP6 ADD PUSH2 0x5AC JUMP JUMPDEST SWAP2 POP POP SWAP3 SWAP2 POP POP JUMP JUMPDEST PUSH0 DUP1 PUSH1 0x40 DUP4 DUP6 SUB SLT ISZERO PUSH2 0x636 JUMPI PUSH2 0x635 PUSH2 0x457 JUMP JUMPDEST JUMPDEST PUSH0 PUSH2 0x643 DUP6 DUP3 DUP7 ADD PUSH2 0x530 JUMP JUMPDEST SWAP3 POP POP PUSH1 0x20 PUSH2 0x654 DUP6 DUP3 DUP7 ADD PUSH2 0x530 JUMP JUMPDEST SWAP2 POP POP SWAP3 POP SWAP3 SWAP1 POP JUMP JUMPDEST PUSH0 PUSH1 0x20 DUP3 DUP5 SUB SLT ISZERO PUSH2 0x673 JUMPI PUSH2 0x672 PUSH2 0x457 JUMP JUMPDEST JUMPDEST PUSH0 PUSH2 0x680 DUP5 DUP3 DUP6 ADD PUSH2 0x530 JUMP JUMPDEST SWAP2 POP POP SWAP3 SWAP2 POP POP JUMP JUMPDEST PUSH2 0x692 DUP2 PUSH2 0x397 JUMP JUMPDEST DUP3 MSTORE POP POP JUMP JUMPDEST PUSH0 PUSH1 0x20 DUP3 ADD SWAP1 POP PUSH2 0x6AB PUSH0 DUP4 ADD DUP5 PUSH2 0x689 JUMP JUMPDEST SWAP3 SWAP2 POP POP JUMP JUMPDEST PUSH32 0x4E487B7100000000000000000000000000000000000000000000000000000000 PUSH0 MSTORE PUSH1 0x32 PUSH1 0x4 MSTORE PUSH1 0x24 PUSH0 REVERT JUMPDEST PUSH0 DUP3 DUP3 MSTORE PUSH1 0x20 DUP3 ADD SWAP1 POP SWAP3 SWAP2 POP POP JUMP JUMPDEST PUSH32 0x496E646578206F7574206F6620626F756E647300000000000000000000000000 PUSH0 DUP3 ADD MSTORE POP JUMP JUMPDEST PUSH0 PUSH2 0x722 PUSH1 0x13 DUP4 PUSH2 0x6DE JUMP JUMPDEST SWAP2 POP PUSH2 0x72D DUP3 PUSH2 0x6EE JUMP JUMPDEST PUSH1 0x20 DUP3 ADD SWAP1 POP SWAP2 SWAP1 POP JUMP JUMPDEST PUSH0 PUSH1 0x20 DUP3 ADD SWAP1 POP DUP2 DUP2 SUB PUSH0 DUP4 ADD MSTORE PUSH2 0x74F DUP2 PUSH2 0x716 JUMP JUMPDEST SWAP1 POP SWAP2 SWAP1 POP JUMP INVALID LOG2 PUSH5 0x6970667358 0x22 SLT KECCAK256 0xDE 0xD6 PUSH21 0x3452A52393FD352C14D5DE33A2848231AA714E4C7C GASPRICE 0xB9 DUP10 SSTORE OR 0xC5 0xC9 0xD8 PUSH5 0x736F6C6343 STOP ADDMOD BYTE STOP CALLER "
				},
				"gasEstimates": {
					"creation": {
						"codeDepositCost": "386400",
						"executionCost": "422",
						"totalCost": "386822"
					},
					"external": {
						"data(uint256)": "infinite",
						"f(uint256[])": "infinite",
						"getData()": "infinite",
						"h(uint256[])": "infinite",
						"modifyMemoryData(uint256[])": "infinite",
						"modifyStoreData(uint256,uint256)": "infinite",
						"updateData(uint256[])": "infinite"
					},
					"internal": {
						"g(uint256[] storage pointer)": "infinite"
					}
				},
				"methodIdentifiers": {
					"data(uint256)": "f0ba8440",
					"f(uint256[])": "7bc5bbbf",
					"getData()": "3bc5de30",
					"h(uint256[])": "40dcbb08",
					"modifyMemoryData(uint256[])": "c104210b",
					"modifyStoreData(uint256,uint256)": "948ad7ad",
					"updateData(uint256[])": "aa44269d"
				}
			},
			"storageLayout": {
				"storage": [
					{
						"astId": 4,
						"contract": "contracts/Array.sol:DataHander",
						"label": "data",
						"offset": 0,
						"slot": "0",
						"type": "t_array(t_uint256)dyn_storage"
					},
					{
						"astId": 73,
						"contract": "contracts/Array.sol:DataHander",
						"label": "x",
						"offset": 0,
						"slot": "1",
						"type": "t_array(t_uint256)dyn_storage"
					}
				],
				"types": {
					"t_array(t_uint256)dyn_storage": {
						"base": "t_uint256",
						"encoding": "dynamic_array",
						"label": "uint256[]",
						"numberOfBytes": "32"
					},
					"t_uint256": {
						"encoding": "inplace",
						"label": "uint256",
						"numberOfBytes": "32"
					}
				}
			},
			"userdoc": {
				"kind": "user",
				"methods": {},
				"version": 1
			}
		}
	}
}