{
	"contracts/Array.sol": {
		"DataArray": {
			"abi": [
				{
					"inputs": [
						{
							"internalType": "address",
							"name": "_element",
							"type": "address"
						}
					],
					"name": "addArr",
					"outputs": [],
					"stateMutability": "nonpayable",
					"type": "function"
				},
				{
					"inputs": [
						{
							"internalType": "uint256",
							"name": "",
							"type": "uint256"
						}
					],
					"name": "addArray",
					"outputs": [
						{
							"internalType": "address",
							"name": "",
							"type": "address"
						}
					],
					"stateMutability": "view",
					"type": "function"
				},
				{
					"inputs": [
						{
							"internalType": "uint256",
							"name": "_element",
							"type": "uint256"
						}
					],
					"name": "addElement",
					"outputs": [],
					"stateMutability": "nonpayable",
					"type": "function"
				},
				{
					"inputs": [
						{
							"internalType": "string[]",
							"name": "arr",
							"type": "string[]"
						},
						{
							"internalType": "uint256",
							"name": "index",
							"type": "uint256"
						}
					],
					"name": "arrDel",
					"outputs": [
						{
							"internalType": "string[]",
							"name": "",
							"type": "string[]"
						}
					],
					"stateMutability": "pure",
					"type": "function"
				},
				{
					"inputs": [
						{
							"internalType": "string[]",
							"name": "arr",
							"type": "string[]"
						}
					],
					"name": "arrLen",
					"outputs": [
						{
							"internalType": "uint256",
							"name": "",
							"type": "uint256"
						}
					],
					"stateMutability": "pure",
					"type": "function"
				},
				{
					"inputs": [],
					"name": "byteData",
					"outputs": [
						{
							"internalType": "bytes",
							"name": "",
							"type": "bytes"
						}
					],
					"stateMutability": "view",
					"type": "function"
				},
				{
					"inputs": [
						{
							"internalType": "uint256",
							"name": "",
							"type": "uint256"
						}
					],
					"name": "dynamicArray",
					"outputs": [
						{
							"internalType": "uint256",
							"name": "",
							"type": "uint256"
						}
					],
					"stateMutability": "view",
					"type": "function"
				},
				{
					"inputs": [],
					"name": "getLength",
					"outputs": [
						{
							"internalType": "uint256",
							"name": "",
							"type": "uint256"
						}
					],
					"stateMutability": "view",
					"type": "function"
				},
				{
					"inputs": [],
					"name": "removeLastElement",
					"outputs": [],
					"stateMutability": "nonpayable",
					"type": "function"
				}
			],
			"devdoc": {
				"kind": "dev",
				"methods": {},
				"version": 1
			},
			"evm": {
				"assembly": "    /* \"contracts/Array.sol\":2672:3988  contract  DataArray {... */\n  mstore(0x40, 0x80)\n    /* \"contracts/Array.sol\":3981:3983  10 */\n  0x0a\n    /* \"contracts/Array.sol\":3971:3984  new bytes(10) */\n  0xffffffffffffffff\n  dup2\n  gt\n  iszero\n  tag_1\n  jumpi\n  tag_2\n  tag_3\n  jump\t// in\ntag_2:\ntag_1:\n  mload(0x40)\n  swap1\n  dup1\n  dup3\n  mstore\n  dup1\n  0x1f\n  add\n  not(0x1f)\n  and\n  0x20\n  add\n  dup3\n  add\n  0x40\n  mstore\n  dup1\n  iszero\n  tag_4\n  jumpi\n  dup2\n  0x20\n  add\n  0x01\n  dup3\n  mul\n  dup1\n  calldatasize\n  dup4\n  calldatacopy\n  dup1\n  dup3\n  add\n  swap2\n  pop\n  pop\n  swap1\n  pop\ntag_4:\n  pop\n    /* \"contracts/Array.sol\":3947:3984  bytes public byteData = new bytes(10) */\n  0x02\n  swap1\n  dup2\n  tag_5\n  swap2\n  swap1\n  tag_6\n  jump\t// in\ntag_5:\n  pop\n    /* \"contracts/Array.sol\":2672:3988  contract  DataArray {... */\n  callvalue\n  dup1\n  iszero\n  tag_7\n  jumpi\n  0x00\n  dup1\n  revert\ntag_7:\n  pop\n  jump(tag_8)\n    /* \"#utility.yul\":7:187   */\ntag_3:\n    /* \"#utility.yul\":55:132   */\n  0x4e487b7100000000000000000000000000000000000000000000000000000000\n    /* \"#utility.yul\":52:53   */\n  0x00\n    /* \"#utility.yul\":45:133   */\n  mstore\n    /* \"#utility.yul\":152:156   */\n  0x41\n    /* \"#utility.yul\":149:150   */\n  0x04\n    /* \"#utility.yul\":142:157   */\n  mstore\n    /* \"#utility.yul\":176:180   */\n  0x24\n    /* \"#utility.yul\":173:174   */\n  0x00\n    /* \"#utility.yul\":166:181   */\n  revert\n    /* \"#utility.yul\":193:291   */\ntag_9:\n    /* \"#utility.yul\":244:250   */\n  0x00\n    /* \"#utility.yul\":278:283   */\n  dup2\n    /* \"#utility.yul\":272:284   */\n  mload\n    /* \"#utility.yul\":262:284   */\n  swap1\n  pop\n    /* \"#utility.yul\":193:291   */\n  swap2\n  swap1\n  pop\n  jump\t// out\n    /* \"#utility.yul\":297:477   */\ntag_10:\n    /* \"#utility.yul\":345:422   */\n  0x4e487b7100000000000000000000000000000000000000000000000000000000\n    /* \"#utility.yul\":342:343   */\n  0x00\n    /* \"#utility.yul\":335:423   */\n  mstore\n    /* \"#utility.yul\":442:446   */\n  0x22\n    /* \"#utility.yul\":439:440   */\n  0x04\n    /* \"#utility.yul\":432:447   */\n  mstore\n    /* \"#utility.yul\":466:470   */\n  0x24\n    /* \"#utility.yul\":463:464   */\n  0x00\n    /* \"#utility.yul\":456:471   */\n  revert\n    /* \"#utility.yul\":483:803   */\ntag_11:\n    /* \"#utility.yul\":527:533   */\n  0x00\n    /* \"#utility.yul\":564:565   */\n  0x02\n    /* \"#utility.yul\":558:562   */\n  dup3\n    /* \"#utility.yul\":554:566   */\n  div\n    /* \"#utility.yul\":544:566   */\n  swap1\n  pop\n    /* \"#utility.yul\":611:612   */\n  0x01\n    /* \"#utility.yul\":605:609   */\n  dup3\n    /* \"#utility.yul\":601:613   */\n  and\n    /* \"#utility.yul\":632:650   */\n  dup1\n    /* \"#utility.yul\":622:703   */\n  tag_33\n  jumpi\n    /* \"#utility.yul\":688:692   */\n  0x7f\n    /* \"#utility.yul\":680:686   */\n  dup3\n    /* \"#utility.yul\":676:693   */\n  and\n    /* \"#utility.yul\":666:693   */\n  swap2\n  pop\n    /* \"#utility.yul\":622:703   */\ntag_33:\n    /* \"#utility.yul\":750:752   */\n  0x20\n    /* \"#utility.yul\":742:748   */\n  dup3\n    /* \"#utility.yul\":739:753   */\n  lt\n    /* \"#utility.yul\":719:737   */\n  dup2\n    /* \"#utility.yul\":716:754   */\n  sub\n    /* \"#utility.yul\":713:797   */\n  tag_34\n  jumpi\n    /* \"#utility.yul\":769:787   */\n  tag_35\n  tag_10\n  jump\t// in\ntag_35:\n    /* \"#utility.yul\":713:797   */\ntag_34:\n    /* \"#utility.yul\":534:803   */\n  pop\n    /* \"#utility.yul\":483:803   */\n  swap2\n  swap1\n  pop\n  jump\t// out\n    /* \"#utility.yul\":809:949   */\ntag_12:\n    /* \"#utility.yul\":857:861   */\n  0x00\n    /* \"#utility.yul\":880:883   */\n  dup2\n    /* \"#utility.yul\":872:883   */\n  swap1\n  pop\n    /* \"#utility.yul\":903:906   */\n  dup2\n    /* \"#utility.yul\":900:901   */\n  0x00\n    /* \"#utility.yul\":893:907   */\n  mstore\n    /* \"#utility.yul\":937:941   */\n  0x20\n    /* \"#utility.yul\":934:935   */\n  0x00\n    /* \"#utility.yul\":924:942   */\n  keccak256\n    /* \"#utility.yul\":916:942   */\n  swap1\n  pop\n    /* \"#utility.yul\":809:949   */\n  swap2\n  swap1\n  pop\n  jump\t// out\n    /* \"#utility.yul\":955:1048   */\ntag_13:\n    /* \"#utility.yul\":992:998   */\n  0x00\n    /* \"#utility.yul\":1039:1041   */\n  0x20\n    /* \"#utility.yul\":1034:1036   */\n  0x1f\n    /* \"#utility.yul\":1027:1032   */\n  dup4\n    /* \"#utility.yul\":1023:1037   */\n  add\n    /* \"#utility.yul\":1019:1042   */\n  div\n    /* \"#utility.yul\":1009:1042   */\n  swap1\n  pop\n    /* \"#utility.yul\":955:1048   */\n  swap2\n  swap1\n  pop\n  jump\t// out\n    /* \"#utility.yul\":1054:1161   */\ntag_14:\n    /* \"#utility.yul\":1098:1106   */\n  0x00\n    /* \"#utility.yul\":1148:1153   */\n  dup3\n    /* \"#utility.yul\":1142:1146   */\n  dup3\n    /* \"#utility.yul\":1138:1154   */\n  shl\n    /* \"#utility.yul\":1117:1154   */\n  swap1\n  pop\n    /* \"#utility.yul\":1054:1161   */\n  swap3\n  swap2\n  pop\n  pop\n  jump\t// out\n    /* \"#utility.yul\":1167:1560   */\ntag_15:\n    /* \"#utility.yul\":1236:1242   */\n  0x00\n    /* \"#utility.yul\":1286:1287   */\n  0x08\n    /* \"#utility.yul\":1274:1284   */\n  dup4\n    /* \"#utility.yul\":1270:1288   */\n  mul\n    /* \"#utility.yul\":1309:1406   */\n  tag_40\n    /* \"#utility.yul\":1339:1405   */\n  0xffffffffffffffffffffffffffffffffffffffffffffffffffffffffffffffff\n    /* \"#utility.yul\":1328:1337   */\n  dup3\n    /* \"#utility.yul\":1309:1406   */\n  tag_14\n  jump\t// in\ntag_40:\n    /* \"#utility.yul\":1427:1466   */\n  tag_41\n    /* \"#utility.yul\":1457:1465   */\n  dup7\n    /* \"#utility.yul\":1446:1455   */\n  dup4\n    /* \"#utility.yul\":1427:1466   */\n  tag_14\n  jump\t// in\ntag_41:\n    /* \"#utility.yul\":1415:1466   */\n  swap6\n  pop\n    /* \"#utility.yul\":1499:1503   */\n  dup1\n    /* \"#utility.yul\":1495:1504   */\n  not\n    /* \"#utility.yul\":1488:1493   */\n  dup5\n    /* \"#utility.yul\":1484:1505   */\n  and\n    /* \"#utility.yul\":1475:1505   */\n  swap4\n  pop\n    /* \"#utility.yul\":1548:1552   */\n  dup1\n    /* \"#utility.yul\":1538:1546   */\n  dup7\n    /* \"#utility.yul\":1534:1553   */\n  and\n    /* \"#utility.yul\":1527:1532   */\n  dup5\n    /* \"#utility.yul\":1524:1554   */\n  or\n    /* \"#utility.yul\":1514:1554   */\n  swap3\n  pop\n    /* \"#utility.yul\":1243:1560   */\n  pop\n  pop\n    /* \"#utility.yul\":1167:1560   */\n  swap4\n  swap3\n  pop\n  pop\n  pop\n  jump\t// out\n    /* \"#utility.yul\":1566:1643   */\ntag_16:\n    /* \"#utility.yul\":1603:1610   */\n  0x00\n    /* \"#utility.yul\":1632:1637   */\n  dup2\n    /* \"#utility.yul\":1621:1637   */\n  swap1\n  pop\n    /* \"#utility.yul\":1566:1643   */\n  swap2\n  swap1\n  pop\n  jump\t// out\n    /* \"#utility.yul\":1649:1709   */\ntag_17:\n    /* \"#utility.yul\":1677:1680   */\n  0x00\n    /* \"#utility.yul\":1698:1703   */\n  dup2\n    /* \"#utility.yul\":1691:1703   */\n  swap1\n  pop\n    /* \"#utility.yul\":1649:1709   */\n  swap2\n  swap1\n  pop\n  jump\t// out\n    /* \"#utility.yul\":1715:1857   */\ntag_18:\n    /* \"#utility.yul\":1765:1774   */\n  0x00\n    /* \"#utility.yul\":1798:1851   */\n  tag_45\n    /* \"#utility.yul\":1816:1850   */\n  tag_46\n    /* \"#utility.yul\":1825:1849   */\n  tag_47\n    /* \"#utility.yul\":1843:1848   */\n  dup5\n    /* \"#utility.yul\":1825:1849   */\n  tag_16\n  jump\t// in\ntag_47:\n    /* \"#utility.yul\":1816:1850   */\n  tag_17\n  jump\t// in\ntag_46:\n    /* \"#utility.yul\":1798:1851   */\n  tag_16\n  jump\t// in\ntag_45:\n    /* \"#utility.yul\":1785:1851   */\n  swap1\n  pop\n    /* \"#utility.yul\":1715:1857   */\n  swap2\n  swap1\n  pop\n  jump\t// out\n    /* \"#utility.yul\":1863:1938   */\ntag_19:\n    /* \"#utility.yul\":1906:1909   */\n  0x00\n    /* \"#utility.yul\":1927:1932   */\n  dup2\n    /* \"#utility.yul\":1920:1932   */\n  swap1\n  pop\n    /* \"#utility.yul\":1863:1938   */\n  swap2\n  swap1\n  pop\n  jump\t// out\n    /* \"#utility.yul\":1944:2213   */\ntag_20:\n    /* \"#utility.yul\":2054:2093   */\n  tag_50\n    /* \"#utility.yul\":2085:2092   */\n  dup4\n    /* \"#utility.yul\":2054:2093   */\n  tag_18\n  jump\t// in\ntag_50:\n    /* \"#utility.yul\":2115:2206   */\n  tag_51\n    /* \"#utility.yul\":2164:2205   */\n  tag_52\n    /* \"#utility.yul\":2188:2204   */\n  dup3\n    /* \"#utility.yul\":2164:2205   */\n  tag_19\n  jump\t// in\ntag_52:\n    /* \"#utility.yul\":2156:2162   */\n  dup5\n    /* \"#utility.yul\":2149:2153   */\n  dup5\n    /* \"#utility.yul\":2143:2154   */\n  sload\n    /* \"#utility.yul\":2115:2206   */\n  tag_15\n  jump\t// in\ntag_51:\n    /* \"#utility.yul\":2109:2113   */\n  dup3\n    /* \"#utility.yul\":2102:2207   */\n  sstore\n    /* \"#utility.yul\":2020:2213   */\n  pop\n    /* \"#utility.yul\":1944:2213   */\n  pop\n  pop\n  pop\n  jump\t// out\n    /* \"#utility.yul\":2219:2292   */\ntag_21:\n    /* \"#utility.yul\":2264:2267   */\n  0x00\n    /* \"#utility.yul\":2219:2292   */\n  swap1\n  jump\t// out\n    /* \"#utility.yul\":2298:2487   */\ntag_22:\n    /* \"#utility.yul\":2375:2407   */\n  tag_55\n  tag_21\n  jump\t// in\ntag_55:\n    /* \"#utility.yul\":2416:2481   */\n  tag_56\n    /* \"#utility.yul\":2474:2480   */\n  dup2\n    /* \"#utility.yul\":2466:2472   */\n  dup5\n    /* \"#utility.yul\":2460:2464   */\n  dup5\n    /* \"#utility.yul\":2416:2481   */\n  tag_20\n  jump\t// in\ntag_56:\n    /* \"#utility.yul\":2351:2487   */\n  pop\n    /* \"#utility.yul\":2298:2487   */\n  pop\n  pop\n  jump\t// out\n    /* \"#utility.yul\":2493:2679   */\ntag_23:\n    /* \"#utility.yul\":2553:2673   */\ntag_58:\n    /* \"#utility.yul\":2570:2573   */\n  dup2\n    /* \"#utility.yul\":2563:2568   */\n  dup2\n    /* \"#utility.yul\":2560:2574   */\n  lt\n    /* \"#utility.yul\":2553:2673   */\n  iszero\n  tag_60\n  jumpi\n    /* \"#utility.yul\":2624:2663   */\n  tag_61\n    /* \"#utility.yul\":2661:2662   */\n  0x00\n    /* \"#utility.yul\":2654:2659   */\n  dup3\n    /* \"#utility.yul\":2624:2663   */\n  tag_22\n  jump\t// in\ntag_61:\n    /* \"#utility.yul\":2597:2598   */\n  0x01\n    /* \"#utility.yul\":2590:2595   */\n  dup2\n    /* \"#utility.yul\":2586:2599   */\n  add\n    /* \"#utility.yul\":2577:2599   */\n  swap1\n  pop\n    /* \"#utility.yul\":2553:2673   */\n  jump(tag_58)\ntag_60:\n    /* \"#utility.yul\":2493:2679   */\n  pop\n  pop\n  jump\t// out\n    /* \"#utility.yul\":2685:3226   */\ntag_24:\n    /* \"#utility.yul\":2785:2787   */\n  0x1f\n    /* \"#utility.yul\":2780:2783   */\n  dup3\n    /* \"#utility.yul\":2777:2788   */\n  gt\n    /* \"#utility.yul\":2774:3219   */\n  iszero\n  tag_63\n  jumpi\n    /* \"#utility.yul\":2819:2856   */\n  tag_64\n    /* \"#utility.yul\":2850:2855   */\n  dup2\n    /* \"#utility.yul\":2819:2856   */\n  tag_12\n  jump\t// in\ntag_64:\n    /* \"#utility.yul\":2902:2931   */\n  tag_65\n    /* \"#utility.yul\":2920:2930   */\n  dup5\n    /* \"#utility.yul\":2902:2931   */\n  tag_13\n  jump\t// in\ntag_65:\n    /* \"#utility.yul\":2892:2900   */\n  dup2\n    /* \"#utility.yul\":2888:2932   */\n  add\n    /* \"#utility.yul\":3085:3087   */\n  0x20\n    /* \"#utility.yul\":3073:3083   */\n  dup6\n    /* \"#utility.yul\":3070:3088   */\n  lt\n    /* \"#utility.yul\":3067:3116   */\n  iszero\n  tag_66\n  jumpi\n    /* \"#utility.yul\":3106:3114   */\n  dup2\n    /* \"#utility.yul\":3091:3114   */\n  swap1\n  pop\n    /* \"#utility.yul\":3067:3116   */\ntag_66:\n    /* \"#utility.yul\":3129:3209   */\n  tag_67\n    /* \"#utility.yul\":3185:3207   */\n  tag_68\n    /* \"#utility.yul\":3203:3206   */\n  dup6\n    /* \"#utility.yul\":3185:3207   */\n  tag_13\n  jump\t// in\ntag_68:\n    /* \"#utility.yul\":3175:3183   */\n  dup4\n    /* \"#utility.yul\":3171:3208   */\n  add\n    /* \"#utility.yul\":3158:3169   */\n  dup3\n    /* \"#utility.yul\":3129:3209   */\n  tag_23\n  jump\t// in\ntag_67:\n    /* \"#utility.yul\":2789:3219   */\n  pop\n  pop\n    /* \"#utility.yul\":2774:3219   */\ntag_63:\n    /* \"#utility.yul\":2685:3226   */\n  pop\n  pop\n  pop\n  jump\t// out\n    /* \"#utility.yul\":3232:3349   */\ntag_25:\n    /* \"#utility.yul\":3286:3294   */\n  0x00\n    /* \"#utility.yul\":3336:3341   */\n  dup3\n    /* \"#utility.yul\":3330:3334   */\n  dup3\n    /* \"#utility.yul\":3326:3342   */\n  shr\n    /* \"#utility.yul\":3305:3342   */\n  swap1\n  pop\n    /* \"#utility.yul\":3232:3349   */\n  swap3\n  swap2\n  pop\n  pop\n  jump\t// out\n    /* \"#utility.yul\":3355:3524   */\ntag_26:\n    /* \"#utility.yul\":3399:3405   */\n  0x00\n    /* \"#utility.yul\":3432:3483   */\n  tag_71\n    /* \"#utility.yul\":3480:3481   */\n  0x00\n    /* \"#utility.yul\":3476:3482   */\n  not\n    /* \"#utility.yul\":3468:3473   */\n  dup5\n    /* \"#utility.yul\":3465:3466   */\n  0x08\n    /* \"#utility.yul\":3461:3474   */\n  mul\n    /* \"#utility.yul\":3432:3483   */\n  tag_25\n  jump\t// in\ntag_71:\n    /* \"#utility.yul\":3428:3484   */\n  not\n    /* \"#utility.yul\":3513:3517   */\n  dup1\n    /* \"#utility.yul\":3507:3511   */\n  dup4\n    /* \"#utility.yul\":3503:3518   */\n  and\n    /* \"#utility.yul\":3493:3518   */\n  swap2\n  pop\n    /* \"#utility.yul\":3406:3524   */\n  pop\n    /* \"#utility.yul\":3355:3524   */\n  swap3\n  swap2\n  pop\n  pop\n  jump\t// out\n    /* \"#utility.yul\":3529:3824   */\ntag_27:\n    /* \"#utility.yul\":3605:3609   */\n  0x00\n    /* \"#utility.yul\":3751:3780   */\n  tag_73\n    /* \"#utility.yul\":3776:3779   */\n  dup4\n    /* \"#utility.yul\":3770:3774   */\n  dup4\n    /* \"#utility.yul\":3751:3780   */\n  tag_26\n  jump\t// in\ntag_73:\n    /* \"#utility.yul\":3743:3780   */\n  swap2\n  pop\n    /* \"#utility.yul\":3813:3816   */\n  dup3\n    /* \"#utility.yul\":3810:3811   */\n  0x02\n    /* \"#utility.yul\":3806:3817   */\n  mul\n    /* \"#utility.yul\":3800:3804   */\n  dup3\n    /* \"#utility.yul\":3797:3818   */\n  or\n    /* \"#utility.yul\":3789:3818   */\n  swap1\n  pop\n    /* \"#utility.yul\":3529:3824   */\n  swap3\n  swap2\n  pop\n  pop\n  jump\t// out\n    /* \"#utility.yul\":3829:5219   */\ntag_6:\n    /* \"#utility.yul\":3944:3980   */\n  tag_75\n    /* \"#utility.yul\":3976:3979   */\n  dup3\n    /* \"#utility.yul\":3944:3980   */\n  tag_9\n  jump\t// in\ntag_75:\n    /* \"#utility.yul\":4045:4063   */\n  0xffffffffffffffff\n    /* \"#utility.yul\":4037:4043   */\n  dup2\n    /* \"#utility.yul\":4034:4064   */\n  gt\n    /* \"#utility.yul\":4031:4087   */\n  iszero\n  tag_76\n  jumpi\n    /* \"#utility.yul\":4067:4085   */\n  tag_77\n  tag_3\n  jump\t// in\ntag_77:\n    /* \"#utility.yul\":4031:4087   */\ntag_76:\n    /* \"#utility.yul\":4111:4149   */\n  tag_78\n    /* \"#utility.yul\":4143:4147   */\n  dup3\n    /* \"#utility.yul\":4137:4148   */\n  sload\n    /* \"#utility.yul\":4111:4149   */\n  tag_11\n  jump\t// in\ntag_78:\n    /* \"#utility.yul\":4196:4262   */\n  tag_79\n    /* \"#utility.yul\":4255:4261   */\n  dup3\n    /* \"#utility.yul\":4247:4253   */\n  dup3\n    /* \"#utility.yul\":4241:4245   */\n  dup6\n    /* \"#utility.yul\":4196:4262   */\n  tag_24\n  jump\t// in\ntag_79:\n    /* \"#utility.yul\":4289:4290   */\n  0x00\n    /* \"#utility.yul\":4313:4317   */\n  0x20\n    /* \"#utility.yul\":4300:4317   */\n  swap1\n  pop\n    /* \"#utility.yul\":4345:4347   */\n  0x1f\n    /* \"#utility.yul\":4337:4343   */\n  dup4\n    /* \"#utility.yul\":4334:4348   */\n  gt\n    /* \"#utility.yul\":4362:4363   */\n  0x01\n    /* \"#utility.yul\":4357:4974   */\n  dup2\n  eq\n  tag_81\n  jumpi\n    /* \"#utility.yul\":5018:5019   */\n  0x00\n    /* \"#utility.yul\":5035:5041   */\n  dup5\n    /* \"#utility.yul\":5032:5109   */\n  iszero\n  tag_82\n  jumpi\n    /* \"#utility.yul\":5084:5093   */\n  dup3\n    /* \"#utility.yul\":5079:5082   */\n  dup8\n    /* \"#utility.yul\":5075:5094   */\n  add\n    /* \"#utility.yul\":5069:5095   */\n  mload\n    /* \"#utility.yul\":5060:5095   */\n  swap1\n  pop\n    /* \"#utility.yul\":5032:5109   */\ntag_82:\n    /* \"#utility.yul\":5135:5202   */\n  tag_83\n    /* \"#utility.yul\":5195:5201   */\n  dup6\n    /* \"#utility.yul\":5188:5193   */\n  dup3\n    /* \"#utility.yul\":5135:5202   */\n  tag_27\n  jump\t// in\ntag_83:\n    /* \"#utility.yul\":5129:5133   */\n  dup7\n    /* \"#utility.yul\":5122:5203   */\n  sstore\n    /* \"#utility.yul\":4991:5213   */\n  pop\n    /* \"#utility.yul\":4327:5213   */\n  jump(tag_80)\n    /* \"#utility.yul\":4357:4974   */\ntag_81:\n    /* \"#utility.yul\":4409:4413   */\n  0x1f\n    /* \"#utility.yul\":4405:4414   */\n  not\n    /* \"#utility.yul\":4397:4403   */\n  dup5\n    /* \"#utility.yul\":4393:4415   */\n  and\n    /* \"#utility.yul\":4443:4479   */\n  tag_84\n    /* \"#utility.yul\":4474:4478   */\n  dup7\n    /* \"#utility.yul\":4443:4479   */\n  tag_12\n  jump\t// in\ntag_84:\n    /* \"#utility.yul\":4501:4502   */\n  0x00\n    /* \"#utility.yul\":4515:4723   */\ntag_85:\n    /* \"#utility.yul\":4529:4536   */\n  dup3\n    /* \"#utility.yul\":4526:4527   */\n  dup2\n    /* \"#utility.yul\":4523:4537   */\n  lt\n    /* \"#utility.yul\":4515:4723   */\n  iszero\n  tag_87\n  jumpi\n    /* \"#utility.yul\":4608:4617   */\n  dup5\n    /* \"#utility.yul\":4603:4606   */\n  dup10\n    /* \"#utility.yul\":4599:4618   */\n  add\n    /* \"#utility.yul\":4593:4619   */\n  mload\n    /* \"#utility.yul\":4585:4591   */\n  dup3\n    /* \"#utility.yul\":4578:4620   */\n  sstore\n    /* \"#utility.yul\":4659:4660   */\n  0x01\n    /* \"#utility.yul\":4651:4657   */\n  dup3\n    /* \"#utility.yul\":4647:4661   */\n  add\n    /* \"#utility.yul\":4637:4661   */\n  swap2\n  pop\n    /* \"#utility.yul\":4706:4708   */\n  0x20\n    /* \"#utility.yul\":4695:4704   */\n  dup6\n    /* \"#utility.yul\":4691:4709   */\n  add\n    /* \"#utility.yul\":4678:4709   */\n  swap5\n  pop\n    /* \"#utility.yul\":4552:4556   */\n  0x20\n    /* \"#utility.yul\":4549:4550   */\n  dup2\n    /* \"#utility.yul\":4545:4557   */\n  add\n    /* \"#utility.yul\":4540:4557   */\n  swap1\n  pop\n    /* \"#utility.yul\":4515:4723   */\n  jump(tag_85)\ntag_87:\n    /* \"#utility.yul\":4751:4757   */\n  dup7\n    /* \"#utility.yul\":4742:4749   */\n  dup4\n    /* \"#utility.yul\":4739:4758   */\n  lt\n    /* \"#utility.yul\":4736:4915   */\n  iszero\n  tag_88\n  jumpi\n    /* \"#utility.yul\":4809:4818   */\n  dup5\n    /* \"#utility.yul\":4804:4807   */\n  dup10\n    /* \"#utility.yul\":4800:4819   */\n  add\n    /* \"#utility.yul\":4794:4820   */\n  mload\n    /* \"#utility.yul\":4852:4900   */\n  tag_89\n    /* \"#utility.yul\":4894:4898   */\n  0x1f\n    /* \"#utility.yul\":4886:4892   */\n  dup10\n    /* \"#utility.yul\":4882:4899   */\n  and\n    /* \"#utility.yul\":4871:4880   */\n  dup3\n    /* \"#utility.yul\":4852:4900   */\n  tag_26\n  jump\t// in\ntag_89:\n    /* \"#utility.yul\":4844:4850   */\n  dup4\n    /* \"#utility.yul\":4837:4901   */\n  sstore\n    /* \"#utility.yul\":4759:4915   */\n  pop\n    /* \"#utility.yul\":4736:4915   */\ntag_88:\n    /* \"#utility.yul\":4961:4962   */\n  0x01\n    /* \"#utility.yul\":4957:4958   */\n  0x02\n    /* \"#utility.yul\":4949:4955   */\n  dup9\n    /* \"#utility.yul\":4945:4959   */\n  mul\n    /* \"#utility.yul\":4941:4963   */\n  add\n    /* \"#utility.yul\":4935:4939   */\n  dup9\n    /* \"#utility.yul\":4928:4964   */\n  sstore\n    /* \"#utility.yul\":4364:4974   */\n  pop\n  pop\n  pop\n    /* \"#utility.yul\":4327:5213   */\ntag_80:\n  pop\n    /* \"#utility.yul\":3919:5219   */\n  pop\n  pop\n  pop\n    /* \"#utility.yul\":3829:5219   */\n  pop\n  pop\n  jump\t// out\n    /* \"contracts/Array.sol\":2672:3988  contract  DataArray {... */\ntag_8:\n  dataSize(sub_0)\n  dup1\n  dataOffset(sub_0)\n  0x00\n  codecopy\n  0x00\n  return\nstop\n\nsub_0: assembly {\n        /* \"contracts/Array.sol\":2672:3988  contract  DataArray {... */\n      mstore(0x40, 0x80)\n      callvalue\n      dup1\n      iszero\n      tag_1\n      jumpi\n      0x00\n      dup1\n      revert\n    tag_1:\n      pop\n      jumpi(tag_2, lt(calldatasize, 0x04))\n      shr(0xe0, calldataload(0x00))\n      dup1\n      0x767751eb\n      gt\n      tag_12\n      jumpi\n      dup1\n      0x767751eb\n      eq\n      tag_7\n      jumpi\n      dup1\n      0x9a9bdca7\n      eq\n      tag_8\n      jumpi\n      dup1\n      0xaa0a9171\n      eq\n      tag_9\n      jumpi\n      dup1\n      0xbe1c766b\n      eq\n      tag_10\n      jumpi\n      dup1\n      0xf5d9612d\n      eq\n      tag_11\n      jumpi\n      jump(tag_2)\n    tag_12:\n      dup1\n      0x48adce\n      eq\n      tag_3\n      jumpi\n      dup1\n      0x10b0096b\n      eq\n      tag_4\n      jumpi\n      dup1\n      0x2bd63afc\n      eq\n      tag_5\n      jumpi\n      dup1\n      0x41a203da\n      eq\n      tag_6\n      jumpi\n    tag_2:\n      0x00\n      dup1\n      revert\n        /* \"contracts/Array.sol\":3453:3551  function arrLen(string[] memory arr) public pure returns (uint) {... */\n    tag_3:\n      tag_13\n      0x04\n      dup1\n      calldatasize\n      sub\n      dup2\n      add\n      swap1\n      tag_14\n      swap2\n      swap1\n      tag_15\n      jump\t// in\n    tag_14:\n      tag_16\n      jump\t// in\n    tag_13:\n      mload(0x40)\n      tag_17\n      swap2\n      swap1\n      tag_18\n      jump\t// in\n    tag_17:\n      mload(0x40)\n      dup1\n      swap2\n      sub\n      swap1\n      return\n        /* \"contracts/Array.sol\":3556:3933  function arrDel(string[] memory arr, uint index) public pure returns (string[] memory)  {... */\n    tag_4:\n      tag_19\n      0x04\n      dup1\n      calldatasize\n      sub\n      dup2\n      add\n      swap1\n      tag_20\n      swap2\n      swap1\n      tag_21\n      jump\t// in\n    tag_20:\n      tag_22\n      jump\t// in\n    tag_19:\n      mload(0x40)\n      tag_23\n      swap2\n      swap1\n      tag_24\n      jump\t// in\n    tag_23:\n      mload(0x40)\n      dup1\n      swap2\n      sub\n      swap1\n      return\n        /* \"contracts/Array.sol\":2908:2979  function removeLastElement() public {... */\n    tag_5:\n      tag_25\n      tag_26\n      jump\t// in\n    tag_25:\n      stop\n        /* \"contracts/Array.sol\":3947:3984  bytes public byteData = new bytes(10) */\n    tag_6:\n      tag_27\n      tag_28\n      jump\t// in\n    tag_27:\n      mload(0x40)\n      tag_29\n      swap2\n      swap1\n      tag_30\n      jump\t// in\n    tag_29:\n      mload(0x40)\n      dup1\n      swap2\n      sub\n      swap1\n      return\n        /* \"contracts/Array.sol\":3367:3448  function addArr(address _element) public {... */\n    tag_7:\n      tag_31\n      0x04\n      dup1\n      calldatasize\n      sub\n      dup2\n      add\n      swap1\n      tag_32\n      swap2\n      swap1\n      tag_33\n      jump\t// in\n    tag_32:\n      tag_34\n      jump\t// in\n    tag_31:\n      stop\n        /* \"contracts/Array.sol\":2703:2729  uint[] public dynamicArray */\n    tag_8:\n      tag_35\n      0x04\n      dup1\n      calldatasize\n      sub\n      dup2\n      add\n      swap1\n      tag_36\n      swap2\n      swap1\n      tag_37\n      jump\t// in\n    tag_36:\n      tag_38\n      jump\t// in\n    tag_35:\n      mload(0x40)\n      tag_39\n      swap2\n      swap1\n      tag_18\n      jump\t// in\n    tag_39:\n      mload(0x40)\n      dup1\n      swap2\n      sub\n      swap1\n      return\n        /* \"contracts/Array.sol\":3336:3361  address[] public addArray */\n    tag_9:\n      tag_40\n      0x04\n      dup1\n      calldatasize\n      sub\n      dup2\n      add\n      swap1\n      tag_41\n      swap2\n      swap1\n      tag_37\n      jump\t// in\n    tag_41:\n      tag_42\n      jump\t// in\n    tag_40:\n      mload(0x40)\n      tag_43\n      swap2\n      swap1\n      tag_44\n      jump\t// in\n    tag_43:\n      mload(0x40)\n      dup1\n      swap2\n      sub\n      swap1\n      return\n        /* \"contracts/Array.sol\":2984:3075  function getLength() public view returns (uint) {... */\n    tag_10:\n      tag_45\n      tag_46\n      jump\t// in\n    tag_45:\n      mload(0x40)\n      tag_47\n      swap2\n      swap1\n      tag_18\n      jump\t// in\n    tag_47:\n      mload(0x40)\n      dup1\n      swap2\n      sub\n      swap1\n      return\n        /* \"contracts/Array.sol\":2779:2865  function addElement(uint _element) public {... */\n    tag_11:\n      tag_48\n      0x04\n      dup1\n      calldatasize\n      sub\n      dup2\n      add\n      swap1\n      tag_49\n      swap2\n      swap1\n      tag_37\n      jump\t// in\n    tag_49:\n      tag_50\n      jump\t// in\n    tag_48:\n      stop\n        /* \"contracts/Array.sol\":3453:3551  function arrLen(string[] memory arr) public pure returns (uint) {... */\n    tag_16:\n        /* \"contracts/Array.sol\":3511:3515  uint */\n      0x00\n        /* \"contracts/Array.sol\":3534:3537  arr */\n      dup2\n        /* \"contracts/Array.sol\":3534:3544  arr.length */\n      mload\n        /* \"contracts/Array.sol\":3527:3544  return arr.length */\n      swap1\n      pop\n        /* \"contracts/Array.sol\":3453:3551  function arrLen(string[] memory arr) public pure returns (uint) {... */\n      swap2\n      swap1\n      pop\n      jump\t// out\n        /* \"contracts/Array.sol\":3556:3933  function arrDel(string[] memory arr, uint index) public pure returns (string[] memory)  {... */\n    tag_22:\n        /* \"contracts/Array.sol\":3626:3641  string[] memory */\n      0x60\n        /* \"contracts/Array.sol\":3654:3676  string[] memory newArr */\n      0x00\n        /* \"contracts/Array.sol\":3705:3706  1 */\n      0x01\n        /* \"contracts/Array.sol\":3692:3695  arr */\n      dup5\n        /* \"contracts/Array.sol\":3692:3702  arr.length */\n      mload\n        /* \"contracts/Array.sol\":3692:3706  arr.length - 1 */\n      tag_53\n      swap2\n      swap1\n      tag_54\n      jump\t// in\n    tag_53:\n        /* \"contracts/Array.sol\":3679:3707  new string[](arr.length - 1) */\n      0xffffffffffffffff\n      dup2\n      gt\n      iszero\n      tag_55\n      jumpi\n      tag_56\n      tag_57\n      jump\t// in\n    tag_56:\n    tag_55:\n      mload(0x40)\n      swap1\n      dup1\n      dup3\n      mstore\n      dup1\n      0x20\n      mul\n      0x20\n      add\n      dup3\n      add\n      0x40\n      mstore\n      dup1\n      iszero\n      tag_58\n      jumpi\n      dup2\n      0x20\n      add\n    tag_59:\n      0x60\n      dup2\n      mstore\n      0x20\n      add\n      swap1\n      0x01\n      swap1\n      sub\n      swap1\n      dup2\n      tag_59\n      jumpi\n      swap1\n      pop\n    tag_58:\n      pop\n        /* \"contracts/Array.sol\":3654:3707  string[] memory newArr = new string[](arr.length - 1) */\n      swap1\n      pop\n        /* \"contracts/Array.sol\":3731:3737  uint i */\n      0x00\n        /* \"contracts/Array.sol\":3726:3802  for (uint i = 0; i < index; i++) {... */\n    tag_60:\n        /* \"contracts/Array.sol\":3747:3752  index */\n      dup4\n        /* \"contracts/Array.sol\":3743:3744  i */\n      dup2\n        /* \"contracts/Array.sol\":3743:3752  i < index */\n      lt\n        /* \"contracts/Array.sol\":3726:3802  for (uint i = 0; i < index; i++) {... */\n      iszero\n      tag_61\n      jumpi\n        /* \"contracts/Array.sol\":3785:3788  arr */\n      dup5\n        /* \"contracts/Array.sol\":3789:3790  i */\n      dup2\n        /* \"contracts/Array.sol\":3785:3791  arr[i] */\n      dup2\n      mload\n      dup2\n      lt\n      tag_63\n      jumpi\n      tag_64\n      tag_65\n      jump\t// in\n    tag_64:\n    tag_63:\n      0x20\n      mul\n      0x20\n      add\n      add\n      mload\n        /* \"contracts/Array.sol\":3773:3779  newArr */\n      dup3\n        /* \"contracts/Array.sol\":3780:3781  i */\n      dup3\n        /* \"contracts/Array.sol\":3773:3782  newArr[i] */\n      dup2\n      mload\n      dup2\n      lt\n      tag_66\n      jumpi\n      tag_67\n      tag_65\n      jump\t// in\n    tag_67:\n    tag_66:\n      0x20\n      mul\n      0x20\n      add\n      add\n        /* \"contracts/Array.sol\":3773:3791  newArr[i] = arr[i] */\n      dup2\n      swap1\n      mstore\n      pop\n        /* \"contracts/Array.sol\":3754:3757  i++ */\n      dup1\n      dup1\n      0x01\n      add\n      swap2\n      pop\n      pop\n        /* \"contracts/Array.sol\":3726:3802  for (uint i = 0; i < index; i++) {... */\n      jump(tag_60)\n    tag_61:\n      pop\n        /* \"contracts/Array.sol\":3816:3822  uint i */\n      0x00\n        /* \"contracts/Array.sol\":3833:3834  1 */\n      0x01\n        /* \"contracts/Array.sol\":3825:3830  index */\n      dup5\n        /* \"contracts/Array.sol\":3825:3834  index + 1 */\n      tag_71\n      swap2\n      swap1\n      tag_72\n      jump\t// in\n    tag_71:\n        /* \"contracts/Array.sol\":3816:3834  uint i = index + 1 */\n      swap1\n      pop\n        /* \"contracts/Array.sol\":3811:3904  for (uint i = index + 1; i < arr.length; i++) {... */\n    tag_68:\n        /* \"contracts/Array.sol\":3840:3843  arr */\n      dup5\n        /* \"contracts/Array.sol\":3840:3850  arr.length */\n      mload\n        /* \"contracts/Array.sol\":3836:3837  i */\n      dup2\n        /* \"contracts/Array.sol\":3836:3850  i < arr.length */\n      lt\n        /* \"contracts/Array.sol\":3811:3904  for (uint i = index + 1; i < arr.length; i++) {... */\n      iszero\n      tag_69\n      jumpi\n        /* \"contracts/Array.sol\":3887:3890  arr */\n      dup5\n        /* \"contracts/Array.sol\":3891:3892  i */\n      dup2\n        /* \"contracts/Array.sol\":3887:3893  arr[i] */\n      dup2\n      mload\n      dup2\n      lt\n      tag_73\n      jumpi\n      tag_74\n      tag_65\n      jump\t// in\n    tag_74:\n    tag_73:\n      0x20\n      mul\n      0x20\n      add\n      add\n      mload\n        /* \"contracts/Array.sol\":3871:3877  newArr */\n      dup3\n        /* \"contracts/Array.sol\":3882:3883  1 */\n      0x01\n        /* \"contracts/Array.sol\":3878:3879  i */\n      dup4\n        /* \"contracts/Array.sol\":3878:3883  i - 1 */\n      tag_75\n      swap2\n      swap1\n      tag_54\n      jump\t// in\n    tag_75:\n        /* \"contracts/Array.sol\":3871:3884  newArr[i - 1] */\n      dup2\n      mload\n      dup2\n      lt\n      tag_76\n      jumpi\n      tag_77\n      tag_65\n      jump\t// in\n    tag_77:\n    tag_76:\n      0x20\n      mul\n      0x20\n      add\n      add\n        /* \"contracts/Array.sol\":3871:3893  newArr[i - 1] = arr[i] */\n      dup2\n      swap1\n      mstore\n      pop\n        /* \"contracts/Array.sol\":3852:3855  i++ */\n      dup1\n      dup1\n      0x01\n      add\n      swap2\n      pop\n      pop\n        /* \"contracts/Array.sol\":3811:3904  for (uint i = index + 1; i < arr.length; i++) {... */\n      jump(tag_68)\n    tag_69:\n      pop\n        /* \"contracts/Array.sol\":3920:3926  newArr */\n      dup1\n        /* \"contracts/Array.sol\":3913:3926  return newArr */\n      swap2\n      pop\n      pop\n        /* \"contracts/Array.sol\":3556:3933  function arrDel(string[] memory arr, uint index) public pure returns (string[] memory)  {... */\n      swap3\n      swap2\n      pop\n      pop\n      jump\t// out\n        /* \"contracts/Array.sol\":2908:2979  function removeLastElement() public {... */\n    tag_26:\n        /* \"contracts/Array.sol\":2954:2966  dynamicArray */\n      0x00\n        /* \"contracts/Array.sol\":2954:2972  dynamicArray.pop() */\n      dup1\n      sload\n      dup1\n      tag_79\n      jumpi\n      tag_80\n      tag_81\n      jump\t// in\n    tag_80:\n    tag_79:\n      0x01\n      swap1\n      sub\n      dup2\n      dup2\n      swap1\n      0x00\n      mstore\n      keccak256(0x00, 0x20)\n      add\n      0x00\n      swap1\n      sstore\n      swap1\n      sstore\n        /* \"contracts/Array.sol\":2908:2979  function removeLastElement() public {... */\n      jump\t// out\n        /* \"contracts/Array.sol\":3947:3984  bytes public byteData = new bytes(10) */\n    tag_28:\n      0x02\n      dup1\n      sload\n      tag_83\n      swap1\n      tag_84\n      jump\t// in\n    tag_83:\n      dup1\n      0x1f\n      add\n      0x20\n      dup1\n      swap2\n      div\n      mul\n      0x20\n      add\n      mload(0x40)\n      swap1\n      dup2\n      add\n      0x40\n      mstore\n      dup1\n      swap3\n      swap2\n      swap1\n      dup2\n      dup2\n      mstore\n      0x20\n      add\n      dup3\n      dup1\n      sload\n      tag_85\n      swap1\n      tag_84\n      jump\t// in\n    tag_85:\n      dup1\n      iszero\n      tag_86\n      jumpi\n      dup1\n      0x1f\n      lt\n      tag_87\n      jumpi\n      0x0100\n      dup1\n      dup4\n      sload\n      div\n      mul\n      dup4\n      mstore\n      swap2\n      0x20\n      add\n      swap2\n      jump(tag_86)\n    tag_87:\n      dup3\n      add\n      swap2\n      swap1\n      0x00\n      mstore\n      keccak256(0x00, 0x20)\n      swap1\n    tag_88:\n      dup2\n      sload\n      dup2\n      mstore\n      swap1\n      0x01\n      add\n      swap1\n      0x20\n      add\n      dup1\n      dup4\n      gt\n      tag_88\n      jumpi\n      dup3\n      swap1\n      sub\n      0x1f\n      and\n      dup3\n      add\n      swap2\n    tag_86:\n      pop\n      pop\n      pop\n      pop\n      pop\n      dup2\n      jump\t// out\n        /* \"contracts/Array.sol\":3367:3448  function addArr(address _element) public {... */\n    tag_34:\n        /* \"contracts/Array.sol\":3418:3426  addArray */\n      0x01\n        /* \"contracts/Array.sol\":3432:3440  _element */\n      dup2\n        /* \"contracts/Array.sol\":3418:3441  addArray.push(_element) */\n      swap1\n      dup1\n      0x01\n      dup2\n      sload\n      add\n      dup1\n      dup3\n      sstore\n      dup1\n      swap2\n      pop\n      pop\n      0x01\n      swap1\n      sub\n      swap1\n      0x00\n      mstore\n      keccak256(0x00, 0x20)\n      add\n      0x00\n      swap1\n      swap2\n      swap1\n      swap2\n      swap1\n      swap2\n      0x0100\n      exp\n      dup2\n      sload\n      dup2\n      0xffffffffffffffffffffffffffffffffffffffff\n      mul\n      not\n      and\n      swap1\n      dup4\n      0xffffffffffffffffffffffffffffffffffffffff\n      and\n      mul\n      or\n      swap1\n      sstore\n      pop\n        /* \"contracts/Array.sol\":3367:3448  function addArr(address _element) public {... */\n      pop\n      jump\t// out\n        /* \"contracts/Array.sol\":2703:2729  uint[] public dynamicArray */\n    tag_38:\n      0x00\n      dup2\n      dup2\n      sload\n      dup2\n      lt\n      tag_91\n      jumpi\n      0x00\n      dup1\n      revert\n    tag_91:\n      swap1\n      0x00\n      mstore\n      keccak256(0x00, 0x20)\n      add\n      0x00\n      swap2\n      pop\n      swap1\n      pop\n      sload\n      dup2\n      jump\t// out\n        /* \"contracts/Array.sol\":3336:3361  address[] public addArray */\n    tag_42:\n      0x01\n      dup2\n      dup2\n      sload\n      dup2\n      lt\n      tag_93\n      jumpi\n      0x00\n      dup1\n      revert\n    tag_93:\n      swap1\n      0x00\n      mstore\n      keccak256(0x00, 0x20)\n      add\n      0x00\n      swap2\n      pop\n      sload\n      swap1\n      0x0100\n      exp\n      swap1\n      div\n      0xffffffffffffffffffffffffffffffffffffffff\n      and\n      dup2\n      jump\t// out\n        /* \"contracts/Array.sol\":2984:3075  function getLength() public view returns (uint) {... */\n    tag_46:\n        /* \"contracts/Array.sol\":3026:3030  uint */\n      0x00\n        /* \"contracts/Array.sol\":3049:3061  dynamicArray */\n      dup1\n        /* \"contracts/Array.sol\":3049:3068  dynamicArray.length */\n      dup1\n      sload\n      swap1\n      pop\n        /* \"contracts/Array.sol\":3042:3068  return dynamicArray.length */\n      swap1\n      pop\n        /* \"contracts/Array.sol\":2984:3075  function getLength() public view returns (uint) {... */\n      swap1\n      jump\t// out\n        /* \"contracts/Array.sol\":2779:2865  function addElement(uint _element) public {... */\n    tag_50:\n        /* \"contracts/Array.sol\":2831:2843  dynamicArray */\n      0x00\n        /* \"contracts/Array.sol\":2849:2857  _element */\n      dup2\n        /* \"contracts/Array.sol\":2831:2858  dynamicArray.push(_element) */\n      swap1\n      dup1\n      0x01\n      dup2\n      sload\n      add\n      dup1\n      dup3\n      sstore\n      dup1\n      swap2\n      pop\n      pop\n      0x01\n      swap1\n      sub\n      swap1\n      0x00\n      mstore\n      keccak256(0x00, 0x20)\n      add\n      0x00\n      swap1\n      swap2\n      swap1\n      swap2\n      swap1\n      swap2\n      pop\n      sstore\n        /* \"contracts/Array.sol\":2779:2865  function addElement(uint _element) public {... */\n      pop\n      jump\t// out\n        /* \"#utility.yul\":7:82   */\n    tag_98:\n        /* \"#utility.yul\":40:46   */\n      0x00\n        /* \"#utility.yul\":73:75   */\n      0x40\n        /* \"#utility.yul\":67:76   */\n      mload\n        /* \"#utility.yul\":57:76   */\n      swap1\n      pop\n        /* \"#utility.yul\":7:82   */\n      swap1\n      jump\t// out\n        /* \"#utility.yul\":88:205   */\n    tag_99:\n        /* \"#utility.yul\":197:198   */\n      0x00\n        /* \"#utility.yul\":194:195   */\n      dup1\n        /* \"#utility.yul\":187:199   */\n      revert\n        /* \"#utility.yul\":211:328   */\n    tag_100:\n        /* \"#utility.yul\":320:321   */\n      0x00\n        /* \"#utility.yul\":317:318   */\n      dup1\n        /* \"#utility.yul\":310:322   */\n      revert\n        /* \"#utility.yul\":334:451   */\n    tag_101:\n        /* \"#utility.yul\":443:444   */\n      0x00\n        /* \"#utility.yul\":440:441   */\n      dup1\n        /* \"#utility.yul\":433:445   */\n      revert\n        /* \"#utility.yul\":457:559   */\n    tag_102:\n        /* \"#utility.yul\":498:504   */\n      0x00\n        /* \"#utility.yul\":549:551   */\n      0x1f\n        /* \"#utility.yul\":545:552   */\n      not\n        /* \"#utility.yul\":540:542   */\n      0x1f\n        /* \"#utility.yul\":533:538   */\n      dup4\n        /* \"#utility.yul\":529:543   */\n      add\n        /* \"#utility.yul\":525:553   */\n      and\n        /* \"#utility.yul\":515:553   */\n      swap1\n      pop\n        /* \"#utility.yul\":457:559   */\n      swap2\n      swap1\n      pop\n      jump\t// out\n        /* \"#utility.yul\":565:745   */\n    tag_57:\n        /* \"#utility.yul\":613:690   */\n      0x4e487b7100000000000000000000000000000000000000000000000000000000\n        /* \"#utility.yul\":610:611   */\n      0x00\n        /* \"#utility.yul\":603:691   */\n      mstore\n        /* \"#utility.yul\":710:714   */\n      0x41\n        /* \"#utility.yul\":707:708   */\n      0x04\n        /* \"#utility.yul\":700:715   */\n      mstore\n        /* \"#utility.yul\":734:738   */\n      0x24\n        /* \"#utility.yul\":731:732   */\n      0x00\n        /* \"#utility.yul\":724:739   */\n      revert\n        /* \"#utility.yul\":751:1032   */\n    tag_103:\n        /* \"#utility.yul\":834:861   */\n      tag_146\n        /* \"#utility.yul\":856:860   */\n      dup3\n        /* \"#utility.yul\":834:861   */\n      tag_102\n      jump\t// in\n    tag_146:\n        /* \"#utility.yul\":826:832   */\n      dup2\n        /* \"#utility.yul\":822:862   */\n      add\n        /* \"#utility.yul\":964:970   */\n      dup2\n        /* \"#utility.yul\":952:962   */\n      dup2\n        /* \"#utility.yul\":949:971   */\n      lt\n        /* \"#utility.yul\":928:946   */\n      0xffffffffffffffff\n        /* \"#utility.yul\":916:926   */\n      dup3\n        /* \"#utility.yul\":913:947   */\n      gt\n        /* \"#utility.yul\":910:972   */\n      or\n        /* \"#utility.yul\":907:995   */\n      iszero\n      tag_147\n      jumpi\n        /* \"#utility.yul\":975:993   */\n      tag_148\n      tag_57\n      jump\t// in\n    tag_148:\n        /* \"#utility.yul\":907:995   */\n    tag_147:\n        /* \"#utility.yul\":1015:1025   */\n      dup1\n        /* \"#utility.yul\":1011:1013   */\n      0x40\n        /* \"#utility.yul\":1004:1026   */\n      mstore\n        /* \"#utility.yul\":794:1032   */\n      pop\n        /* \"#utility.yul\":751:1032   */\n      pop\n      pop\n      jump\t// out\n        /* \"#utility.yul\":1038:1167   */\n    tag_104:\n        /* \"#utility.yul\":1072:1078   */\n      0x00\n        /* \"#utility.yul\":1099:1119   */\n      tag_150\n      tag_98\n      jump\t// in\n    tag_150:\n        /* \"#utility.yul\":1089:1119   */\n      swap1\n      pop\n        /* \"#utility.yul\":1128:1161   */\n      tag_151\n        /* \"#utility.yul\":1156:1160   */\n      dup3\n        /* \"#utility.yul\":1148:1154   */\n      dup3\n        /* \"#utility.yul\":1128:1161   */\n      tag_103\n      jump\t// in\n    tag_151:\n        /* \"#utility.yul\":1038:1167   */\n      swap2\n      swap1\n      pop\n      jump\t// out\n        /* \"#utility.yul\":1173:1494   */\n    tag_105:\n        /* \"#utility.yul\":1260:1264   */\n      0x00\n        /* \"#utility.yul\":1350:1368   */\n      0xffffffffffffffff\n        /* \"#utility.yul\":1342:1348   */\n      dup3\n        /* \"#utility.yul\":1339:1369   */\n      gt\n        /* \"#utility.yul\":1336:1392   */\n      iszero\n      tag_153\n      jumpi\n        /* \"#utility.yul\":1372:1390   */\n      tag_154\n      tag_57\n      jump\t// in\n    tag_154:\n        /* \"#utility.yul\":1336:1392   */\n    tag_153:\n        /* \"#utility.yul\":1422:1426   */\n      0x20\n        /* \"#utility.yul\":1414:1420   */\n      dup3\n        /* \"#utility.yul\":1410:1427   */\n      mul\n        /* \"#utility.yul\":1402:1427   */\n      swap1\n      pop\n        /* \"#utility.yul\":1482:1486   */\n      0x20\n        /* \"#utility.yul\":1476:1480   */\n      dup2\n        /* \"#utility.yul\":1472:1487   */\n      add\n        /* \"#utility.yul\":1464:1487   */\n      swap1\n      pop\n        /* \"#utility.yul\":1173:1494   */\n      swap2\n      swap1\n      pop\n      jump\t// out\n        /* \"#utility.yul\":1500:1617   */\n    tag_106:\n        /* \"#utility.yul\":1609:1610   */\n      0x00\n        /* \"#utility.yul\":1606:1607   */\n      dup1\n        /* \"#utility.yul\":1599:1611   */\n      revert\n        /* \"#utility.yul\":1623:1740   */\n    tag_107:\n        /* \"#utility.yul\":1732:1733   */\n      0x00\n        /* \"#utility.yul\":1729:1730   */\n      dup1\n        /* \"#utility.yul\":1722:1734   */\n      revert\n        /* \"#utility.yul\":1746:2054   */\n    tag_108:\n        /* \"#utility.yul\":1808:1812   */\n      0x00\n        /* \"#utility.yul\":1898:1916   */\n      0xffffffffffffffff\n        /* \"#utility.yul\":1890:1896   */\n      dup3\n        /* \"#utility.yul\":1887:1917   */\n      gt\n        /* \"#utility.yul\":1884:1940   */\n      iszero\n      tag_158\n      jumpi\n        /* \"#utility.yul\":1920:1938   */\n      tag_159\n      tag_57\n      jump\t// in\n    tag_159:\n        /* \"#utility.yul\":1884:1940   */\n    tag_158:\n        /* \"#utility.yul\":1958:1987   */\n      tag_160\n        /* \"#utility.yul\":1980:1986   */\n      dup3\n        /* \"#utility.yul\":1958:1987   */\n      tag_102\n      jump\t// in\n    tag_160:\n        /* \"#utility.yul\":1950:1987   */\n      swap1\n      pop\n        /* \"#utility.yul\":2042:2046   */\n      0x20\n        /* \"#utility.yul\":2036:2040   */\n      dup2\n        /* \"#utility.yul\":2032:2047   */\n      add\n        /* \"#utility.yul\":2024:2047   */\n      swap1\n      pop\n        /* \"#utility.yul\":1746:2054   */\n      swap2\n      swap1\n      pop\n      jump\t// out\n        /* \"#utility.yul\":2060:2208   */\n    tag_109:\n        /* \"#utility.yul\":2158:2164   */\n      dup3\n        /* \"#utility.yul\":2153:2156   */\n      dup2\n        /* \"#utility.yul\":2148:2151   */\n      dup4\n        /* \"#utility.yul\":2135:2165   */\n      calldatacopy\n        /* \"#utility.yul\":2199:2200   */\n      0x00\n        /* \"#utility.yul\":2190:2196   */\n      dup4\n        /* \"#utility.yul\":2185:2188   */\n      dup4\n        /* \"#utility.yul\":2181:2197   */\n      add\n        /* \"#utility.yul\":2174:2201   */\n      mstore\n        /* \"#utility.yul\":2060:2208   */\n      pop\n      pop\n      pop\n      jump\t// out\n        /* \"#utility.yul\":2214:2639   */\n    tag_110:\n        /* \"#utility.yul\":2292:2297   */\n      0x00\n        /* \"#utility.yul\":2317:2383   */\n      tag_163\n        /* \"#utility.yul\":2333:2382   */\n      tag_164\n        /* \"#utility.yul\":2375:2381   */\n      dup5\n        /* \"#utility.yul\":2333:2382   */\n      tag_108\n      jump\t// in\n    tag_164:\n        /* \"#utility.yul\":2317:2383   */\n      tag_104\n      jump\t// in\n    tag_163:\n        /* \"#utility.yul\":2308:2383   */\n      swap1\n      pop\n        /* \"#utility.yul\":2406:2412   */\n      dup3\n        /* \"#utility.yul\":2399:2404   */\n      dup2\n        /* \"#utility.yul\":2392:2413   */\n      mstore\n        /* \"#utility.yul\":2444:2448   */\n      0x20\n        /* \"#utility.yul\":2437:2442   */\n      dup2\n        /* \"#utility.yul\":2433:2449   */\n      add\n        /* \"#utility.yul\":2482:2485   */\n      dup5\n        /* \"#utility.yul\":2473:2479   */\n      dup5\n        /* \"#utility.yul\":2468:2471   */\n      dup5\n        /* \"#utility.yul\":2464:2480   */\n      add\n        /* \"#utility.yul\":2461:2486   */\n      gt\n        /* \"#utility.yul\":2458:2570   */\n      iszero\n      tag_165\n      jumpi\n        /* \"#utility.yul\":2489:2568   */\n      tag_166\n      tag_107\n      jump\t// in\n    tag_166:\n        /* \"#utility.yul\":2458:2570   */\n    tag_165:\n        /* \"#utility.yul\":2579:2633   */\n      tag_167\n        /* \"#utility.yul\":2626:2632   */\n      dup5\n        /* \"#utility.yul\":2621:2624   */\n      dup3\n        /* \"#utility.yul\":2616:2619   */\n      dup6\n        /* \"#utility.yul\":2579:2633   */\n      tag_109\n      jump\t// in\n    tag_167:\n        /* \"#utility.yul\":2298:2639   */\n      pop\n        /* \"#utility.yul\":2214:2639   */\n      swap4\n      swap3\n      pop\n      pop\n      pop\n      jump\t// out\n        /* \"#utility.yul\":2659:2999   */\n    tag_111:\n        /* \"#utility.yul\":2715:2720   */\n      0x00\n        /* \"#utility.yul\":2764:2767   */\n      dup3\n        /* \"#utility.yul\":2757:2761   */\n      0x1f\n        /* \"#utility.yul\":2749:2755   */\n      dup4\n        /* \"#utility.yul\":2745:2762   */\n      add\n        /* \"#utility.yul\":2741:2768   */\n      slt\n        /* \"#utility.yul\":2731:2853   */\n      tag_169\n      jumpi\n        /* \"#utility.yul\":2772:2851   */\n      tag_170\n      tag_101\n      jump\t// in\n    tag_170:\n        /* \"#utility.yul\":2731:2853   */\n    tag_169:\n        /* \"#utility.yul\":2889:2895   */\n      dup2\n        /* \"#utility.yul\":2876:2896   */\n      calldataload\n        /* \"#utility.yul\":2914:2993   */\n      tag_171\n        /* \"#utility.yul\":2989:2992   */\n      dup5\n        /* \"#utility.yul\":2981:2987   */\n      dup3\n        /* \"#utility.yul\":2974:2978   */\n      0x20\n        /* \"#utility.yul\":2966:2972   */\n      dup7\n        /* \"#utility.yul\":2962:2979   */\n      add\n        /* \"#utility.yul\":2914:2993   */\n      tag_110\n      jump\t// in\n    tag_171:\n        /* \"#utility.yul\":2905:2993   */\n      swap2\n      pop\n        /* \"#utility.yul\":2721:2999   */\n      pop\n        /* \"#utility.yul\":2659:2999   */\n      swap3\n      swap2\n      pop\n      pop\n      jump\t// out\n        /* \"#utility.yul\":3021:3966   */\n    tag_112:\n        /* \"#utility.yul\":3127:3132   */\n      0x00\n        /* \"#utility.yul\":3152:3243   */\n      tag_173\n        /* \"#utility.yul\":3168:3242   */\n      tag_174\n        /* \"#utility.yul\":3235:3241   */\n      dup5\n        /* \"#utility.yul\":3168:3242   */\n      tag_105\n      jump\t// in\n    tag_174:\n        /* \"#utility.yul\":3152:3243   */\n      tag_104\n      jump\t// in\n    tag_173:\n        /* \"#utility.yul\":3143:3243   */\n      swap1\n      pop\n        /* \"#utility.yul\":3263:3268   */\n      dup1\n        /* \"#utility.yul\":3292:3298   */\n      dup4\n        /* \"#utility.yul\":3285:3290   */\n      dup3\n        /* \"#utility.yul\":3278:3299   */\n      mstore\n        /* \"#utility.yul\":3326:3330   */\n      0x20\n        /* \"#utility.yul\":3319:3324   */\n      dup3\n        /* \"#utility.yul\":3315:3331   */\n      add\n        /* \"#utility.yul\":3308:3331   */\n      swap1\n      pop\n        /* \"#utility.yul\":3379:3383   */\n      0x20\n        /* \"#utility.yul\":3371:3377   */\n      dup5\n        /* \"#utility.yul\":3367:3384   */\n      mul\n        /* \"#utility.yul\":3359:3365   */\n      dup4\n        /* \"#utility.yul\":3355:3385   */\n      add\n        /* \"#utility.yul\":3408:3411   */\n      dup6\n        /* \"#utility.yul\":3400:3406   */\n      dup2\n        /* \"#utility.yul\":3397:3412   */\n      gt\n        /* \"#utility.yul\":3394:3516   */\n      iszero\n      tag_175\n      jumpi\n        /* \"#utility.yul\":3427:3506   */\n      tag_176\n      tag_106\n      jump\t// in\n    tag_176:\n        /* \"#utility.yul\":3394:3516   */\n    tag_175:\n        /* \"#utility.yul\":3542:3548   */\n      dup4\n        /* \"#utility.yul\":3525:3960   */\n    tag_177:\n        /* \"#utility.yul\":3559:3565   */\n      dup2\n        /* \"#utility.yul\":3554:3557   */\n      dup2\n        /* \"#utility.yul\":3551:3566   */\n      lt\n        /* \"#utility.yul\":3525:3960   */\n      iszero\n      tag_179\n      jumpi\n        /* \"#utility.yul\":3648:3651   */\n      dup1\n        /* \"#utility.yul\":3635:3652   */\n      calldataload\n        /* \"#utility.yul\":3684:3702   */\n      0xffffffffffffffff\n        /* \"#utility.yul\":3671:3682   */\n      dup2\n        /* \"#utility.yul\":3668:3703   */\n      gt\n        /* \"#utility.yul\":3665:3787   */\n      iszero\n      tag_180\n      jumpi\n        /* \"#utility.yul\":3706:3785   */\n      tag_181\n      tag_101\n      jump\t// in\n    tag_181:\n        /* \"#utility.yul\":3665:3787   */\n    tag_180:\n        /* \"#utility.yul\":3830:3841   */\n      dup1\n        /* \"#utility.yul\":3822:3828   */\n      dup7\n        /* \"#utility.yul\":3818:3842   */\n      add\n        /* \"#utility.yul\":3868:3915   */\n      tag_182\n        /* \"#utility.yul\":3911:3914   */\n      dup10\n        /* \"#utility.yul\":3899:3909   */\n      dup3\n        /* \"#utility.yul\":3868:3915   */\n      tag_111\n      jump\t// in\n    tag_182:\n        /* \"#utility.yul\":3863:3866   */\n      dup6\n        /* \"#utility.yul\":3856:3916   */\n      mstore\n        /* \"#utility.yul\":3945:3949   */\n      0x20\n        /* \"#utility.yul\":3940:3943   */\n      dup6\n        /* \"#utility.yul\":3936:3950   */\n      add\n        /* \"#utility.yul\":3929:3950   */\n      swap5\n      pop\n        /* \"#utility.yul\":3601:3960   */\n      pop\n      pop\n        /* \"#utility.yul\":3585:3589   */\n      0x20\n        /* \"#utility.yul\":3580:3583   */\n      dup2\n        /* \"#utility.yul\":3576:3590   */\n      add\n        /* \"#utility.yul\":3569:3590   */\n      swap1\n      pop\n        /* \"#utility.yul\":3525:3960   */\n      jump(tag_177)\n    tag_179:\n        /* \"#utility.yul\":3529:3550   */\n      pop\n        /* \"#utility.yul\":3133:3966   */\n      pop\n      pop\n        /* \"#utility.yul\":3021:3966   */\n      swap4\n      swap3\n      pop\n      pop\n      pop\n      jump\t// out\n        /* \"#utility.yul\":3988:4378   */\n    tag_113:\n        /* \"#utility.yul\":4069:4074   */\n      0x00\n        /* \"#utility.yul\":4118:4121   */\n      dup3\n        /* \"#utility.yul\":4111:4115   */\n      0x1f\n        /* \"#utility.yul\":4103:4109   */\n      dup4\n        /* \"#utility.yul\":4099:4116   */\n      add\n        /* \"#utility.yul\":4095:4122   */\n      slt\n        /* \"#utility.yul\":4085:4207   */\n      tag_184\n      jumpi\n        /* \"#utility.yul\":4126:4205   */\n      tag_185\n      tag_101\n      jump\t// in\n    tag_185:\n        /* \"#utility.yul\":4085:4207   */\n    tag_184:\n        /* \"#utility.yul\":4243:4249   */\n      dup2\n        /* \"#utility.yul\":4230:4250   */\n      calldataload\n        /* \"#utility.yul\":4268:4372   */\n      tag_186\n        /* \"#utility.yul\":4368:4371   */\n      dup5\n        /* \"#utility.yul\":4360:4366   */\n      dup3\n        /* \"#utility.yul\":4353:4357   */\n      0x20\n        /* \"#utility.yul\":4345:4351   */\n      dup7\n        /* \"#utility.yul\":4341:4358   */\n      add\n        /* \"#utility.yul\":4268:4372   */\n      tag_112\n      jump\t// in\n    tag_186:\n        /* \"#utility.yul\":4259:4372   */\n      swap2\n      pop\n        /* \"#utility.yul\":4075:4378   */\n      pop\n        /* \"#utility.yul\":3988:4378   */\n      swap3\n      swap2\n      pop\n      pop\n      jump\t// out\n        /* \"#utility.yul\":4384:4943   */\n    tag_15:\n        /* \"#utility.yul\":4478:4484   */\n      0x00\n        /* \"#utility.yul\":4527:4529   */\n      0x20\n        /* \"#utility.yul\":4515:4524   */\n      dup3\n        /* \"#utility.yul\":4506:4513   */\n      dup5\n        /* \"#utility.yul\":4502:4525   */\n      sub\n        /* \"#utility.yul\":4498:4530   */\n      slt\n        /* \"#utility.yul\":4495:4614   */\n      iszero\n      tag_188\n      jumpi\n        /* \"#utility.yul\":4533:4612   */\n      tag_189\n      tag_99\n      jump\t// in\n    tag_189:\n        /* \"#utility.yul\":4495:4614   */\n    tag_188:\n        /* \"#utility.yul\":4681:4682   */\n      0x00\n        /* \"#utility.yul\":4670:4679   */\n      dup3\n        /* \"#utility.yul\":4666:4683   */\n      add\n        /* \"#utility.yul\":4653:4684   */\n      calldataload\n        /* \"#utility.yul\":4711:4729   */\n      0xffffffffffffffff\n        /* \"#utility.yul\":4703:4709   */\n      dup2\n        /* \"#utility.yul\":4700:4730   */\n      gt\n        /* \"#utility.yul\":4697:4814   */\n      iszero\n      tag_190\n      jumpi\n        /* \"#utility.yul\":4733:4812   */\n      tag_191\n      tag_100\n      jump\t// in\n    tag_191:\n        /* \"#utility.yul\":4697:4814   */\n    tag_190:\n        /* \"#utility.yul\":4838:4926   */\n      tag_192\n        /* \"#utility.yul\":4918:4925   */\n      dup5\n        /* \"#utility.yul\":4909:4915   */\n      dup3\n        /* \"#utility.yul\":4898:4907   */\n      dup6\n        /* \"#utility.yul\":4894:4916   */\n      add\n        /* \"#utility.yul\":4838:4926   */\n      tag_113\n      jump\t// in\n    tag_192:\n        /* \"#utility.yul\":4828:4926   */\n      swap2\n      pop\n        /* \"#utility.yul\":4624:4936   */\n      pop\n        /* \"#utility.yul\":4384:4943   */\n      swap3\n      swap2\n      pop\n      pop\n      jump\t// out\n        /* \"#utility.yul\":4949:5026   */\n    tag_114:\n        /* \"#utility.yul\":4986:4993   */\n      0x00\n        /* \"#utility.yul\":5015:5020   */\n      dup2\n        /* \"#utility.yul\":5004:5020   */\n      swap1\n      pop\n        /* \"#utility.yul\":4949:5026   */\n      swap2\n      swap1\n      pop\n      jump\t// out\n        /* \"#utility.yul\":5032:5150   */\n    tag_115:\n        /* \"#utility.yul\":5119:5143   */\n      tag_195\n        /* \"#utility.yul\":5137:5142   */\n      dup2\n        /* \"#utility.yul\":5119:5143   */\n      tag_114\n      jump\t// in\n    tag_195:\n        /* \"#utility.yul\":5114:5117   */\n      dup3\n        /* \"#utility.yul\":5107:5144   */\n      mstore\n        /* \"#utility.yul\":5032:5150   */\n      pop\n      pop\n      jump\t// out\n        /* \"#utility.yul\":5156:5378   */\n    tag_18:\n        /* \"#utility.yul\":5249:5253   */\n      0x00\n        /* \"#utility.yul\":5287:5289   */\n      0x20\n        /* \"#utility.yul\":5276:5285   */\n      dup3\n        /* \"#utility.yul\":5272:5290   */\n      add\n        /* \"#utility.yul\":5264:5290   */\n      swap1\n      pop\n        /* \"#utility.yul\":5300:5371   */\n      tag_197\n        /* \"#utility.yul\":5368:5369   */\n      0x00\n        /* \"#utility.yul\":5357:5366   */\n      dup4\n        /* \"#utility.yul\":5353:5370   */\n      add\n        /* \"#utility.yul\":5344:5350   */\n      dup5\n        /* \"#utility.yul\":5300:5371   */\n      tag_115\n      jump\t// in\n    tag_197:\n        /* \"#utility.yul\":5156:5378   */\n      swap3\n      swap2\n      pop\n      pop\n      jump\t// out\n        /* \"#utility.yul\":5384:5506   */\n    tag_116:\n        /* \"#utility.yul\":5457:5481   */\n      tag_199\n        /* \"#utility.yul\":5475:5480   */\n      dup2\n        /* \"#utility.yul\":5457:5481   */\n      tag_114\n      jump\t// in\n    tag_199:\n        /* \"#utility.yul\":5450:5455   */\n      dup2\n        /* \"#utility.yul\":5447:5482   */\n      eq\n        /* \"#utility.yul\":5437:5500   */\n      tag_200\n      jumpi\n        /* \"#utility.yul\":5496:5497   */\n      0x00\n        /* \"#utility.yul\":5493:5494   */\n      dup1\n        /* \"#utility.yul\":5486:5498   */\n      revert\n        /* \"#utility.yul\":5437:5500   */\n    tag_200:\n        /* \"#utility.yul\":5384:5506   */\n      pop\n      jump\t// out\n        /* \"#utility.yul\":5512:5651   */\n    tag_117:\n        /* \"#utility.yul\":5558:5563   */\n      0x00\n        /* \"#utility.yul\":5596:5602   */\n      dup2\n        /* \"#utility.yul\":5583:5603   */\n      calldataload\n        /* \"#utility.yul\":5574:5603   */\n      swap1\n      pop\n        /* \"#utility.yul\":5612:5645   */\n      tag_202\n        /* \"#utility.yul\":5639:5644   */\n      dup2\n        /* \"#utility.yul\":5612:5645   */\n      tag_116\n      jump\t// in\n    tag_202:\n        /* \"#utility.yul\":5512:5651   */\n      swap3\n      swap2\n      pop\n      pop\n      jump\t// out\n        /* \"#utility.yul\":5657:6361   */\n    tag_21:\n        /* \"#utility.yul\":5760:5766   */\n      0x00\n        /* \"#utility.yul\":5768:5774   */\n      dup1\n        /* \"#utility.yul\":5817:5819   */\n      0x40\n        /* \"#utility.yul\":5805:5814   */\n      dup4\n        /* \"#utility.yul\":5796:5803   */\n      dup6\n        /* \"#utility.yul\":5792:5815   */\n      sub\n        /* \"#utility.yul\":5788:5820   */\n      slt\n        /* \"#utility.yul\":5785:5904   */\n      iszero\n      tag_204\n      jumpi\n        /* \"#utility.yul\":5823:5902   */\n      tag_205\n      tag_99\n      jump\t// in\n    tag_205:\n        /* \"#utility.yul\":5785:5904   */\n    tag_204:\n        /* \"#utility.yul\":5971:5972   */\n      0x00\n        /* \"#utility.yul\":5960:5969   */\n      dup4\n        /* \"#utility.yul\":5956:5973   */\n      add\n        /* \"#utility.yul\":5943:5974   */\n      calldataload\n        /* \"#utility.yul\":6001:6019   */\n      0xffffffffffffffff\n        /* \"#utility.yul\":5993:5999   */\n      dup2\n        /* \"#utility.yul\":5990:6020   */\n      gt\n        /* \"#utility.yul\":5987:6104   */\n      iszero\n      tag_206\n      jumpi\n        /* \"#utility.yul\":6023:6102   */\n      tag_207\n      tag_100\n      jump\t// in\n    tag_207:\n        /* \"#utility.yul\":5987:6104   */\n    tag_206:\n        /* \"#utility.yul\":6128:6216   */\n      tag_208\n        /* \"#utility.yul\":6208:6215   */\n      dup6\n        /* \"#utility.yul\":6199:6205   */\n      dup3\n        /* \"#utility.yul\":6188:6197   */\n      dup7\n        /* \"#utility.yul\":6184:6206   */\n      add\n        /* \"#utility.yul\":6128:6216   */\n      tag_113\n      jump\t// in\n    tag_208:\n        /* \"#utility.yul\":6118:6216   */\n      swap3\n      pop\n        /* \"#utility.yul\":5914:6226   */\n      pop\n        /* \"#utility.yul\":6265:6267   */\n      0x20\n        /* \"#utility.yul\":6291:6344   */\n      tag_209\n        /* \"#utility.yul\":6336:6343   */\n      dup6\n        /* \"#utility.yul\":6327:6333   */\n      dup3\n        /* \"#utility.yul\":6316:6325   */\n      dup7\n        /* \"#utility.yul\":6312:6334   */\n      add\n        /* \"#utility.yul\":6291:6344   */\n      tag_117\n      jump\t// in\n    tag_209:\n        /* \"#utility.yul\":6281:6344   */\n      swap2\n      pop\n        /* \"#utility.yul\":6236:6354   */\n      pop\n        /* \"#utility.yul\":5657:6361   */\n      swap3\n      pop\n      swap3\n      swap1\n      pop\n      jump\t// out\n        /* \"#utility.yul\":6367:6491   */\n    tag_118:\n        /* \"#utility.yul\":6444:6450   */\n      0x00\n        /* \"#utility.yul\":6478:6483   */\n      dup2\n        /* \"#utility.yul\":6472:6484   */\n      mload\n        /* \"#utility.yul\":6462:6484   */\n      swap1\n      pop\n        /* \"#utility.yul\":6367:6491   */\n      swap2\n      swap1\n      pop\n      jump\t// out\n        /* \"#utility.yul\":6497:6691   */\n    tag_119:\n        /* \"#utility.yul\":6606:6617   */\n      0x00\n        /* \"#utility.yul\":6640:6646   */\n      dup3\n        /* \"#utility.yul\":6635:6638   */\n      dup3\n        /* \"#utility.yul\":6628:6647   */\n      mstore\n        /* \"#utility.yul\":6680:6684   */\n      0x20\n        /* \"#utility.yul\":6675:6678   */\n      dup3\n        /* \"#utility.yul\":6671:6685   */\n      add\n        /* \"#utility.yul\":6656:6685   */\n      swap1\n      pop\n        /* \"#utility.yul\":6497:6691   */\n      swap3\n      swap2\n      pop\n      pop\n      jump\t// out\n        /* \"#utility.yul\":6697:6839   */\n    tag_120:\n        /* \"#utility.yul\":6774:6778   */\n      0x00\n        /* \"#utility.yul\":6797:6800   */\n      dup2\n        /* \"#utility.yul\":6789:6800   */\n      swap1\n      pop\n        /* \"#utility.yul\":6827:6831   */\n      0x20\n        /* \"#utility.yul\":6822:6825   */\n      dup3\n        /* \"#utility.yul\":6818:6832   */\n      add\n        /* \"#utility.yul\":6810:6832   */\n      swap1\n      pop\n        /* \"#utility.yul\":6697:6839   */\n      swap2\n      swap1\n      pop\n      jump\t// out\n        /* \"#utility.yul\":6845:6944   */\n    tag_121:\n        /* \"#utility.yul\":6897:6903   */\n      0x00\n        /* \"#utility.yul\":6931:6936   */\n      dup2\n        /* \"#utility.yul\":6925:6937   */\n      mload\n        /* \"#utility.yul\":6915:6937   */\n      swap1\n      pop\n        /* \"#utility.yul\":6845:6944   */\n      swap2\n      swap1\n      pop\n      jump\t// out\n        /* \"#utility.yul\":6950:7109   */\n    tag_122:\n        /* \"#utility.yul\":7024:7035   */\n      0x00\n        /* \"#utility.yul\":7058:7064   */\n      dup3\n        /* \"#utility.yul\":7053:7056   */\n      dup3\n        /* \"#utility.yul\":7046:7065   */\n      mstore\n        /* \"#utility.yul\":7098:7102   */\n      0x20\n        /* \"#utility.yul\":7093:7096   */\n      dup3\n        /* \"#utility.yul\":7089:7103   */\n      add\n        /* \"#utility.yul\":7074:7103   */\n      swap1\n      pop\n        /* \"#utility.yul\":6950:7109   */\n      swap3\n      swap2\n      pop\n      pop\n      jump\t// out\n        /* \"#utility.yul\":7115:7254   */\n    tag_123:\n        /* \"#utility.yul\":7204:7210   */\n      dup3\n        /* \"#utility.yul\":7199:7202   */\n      dup2\n        /* \"#utility.yul\":7194:7197   */\n      dup4\n        /* \"#utility.yul\":7188:7211   */\n      mcopy\n        /* \"#utility.yul\":7245:7246   */\n      0x00\n        /* \"#utility.yul\":7236:7242   */\n      dup4\n        /* \"#utility.yul\":7231:7234   */\n      dup4\n        /* \"#utility.yul\":7227:7243   */\n      add\n        /* \"#utility.yul\":7220:7247   */\n      mstore\n        /* \"#utility.yul\":7115:7254   */\n      pop\n      pop\n      pop\n      jump\t// out\n        /* \"#utility.yul\":7260:7617   */\n    tag_124:\n        /* \"#utility.yul\":7338:7341   */\n      0x00\n        /* \"#utility.yul\":7366:7405   */\n      tag_217\n        /* \"#utility.yul\":7399:7404   */\n      dup3\n        /* \"#utility.yul\":7366:7405   */\n      tag_121\n      jump\t// in\n    tag_217:\n        /* \"#utility.yul\":7421:7482   */\n      tag_218\n        /* \"#utility.yul\":7475:7481   */\n      dup2\n        /* \"#utility.yul\":7470:7473   */\n      dup6\n        /* \"#utility.yul\":7421:7482   */\n      tag_122\n      jump\t// in\n    tag_218:\n        /* \"#utility.yul\":7414:7482   */\n      swap4\n      pop\n        /* \"#utility.yul\":7491:7556   */\n      tag_219\n        /* \"#utility.yul\":7549:7555   */\n      dup2\n        /* \"#utility.yul\":7544:7547   */\n      dup6\n        /* \"#utility.yul\":7537:7541   */\n      0x20\n        /* \"#utility.yul\":7530:7535   */\n      dup7\n        /* \"#utility.yul\":7526:7542   */\n      add\n        /* \"#utility.yul\":7491:7556   */\n      tag_123\n      jump\t// in\n    tag_219:\n        /* \"#utility.yul\":7581:7610   */\n      tag_220\n        /* \"#utility.yul\":7603:7609   */\n      dup2\n        /* \"#utility.yul\":7581:7610   */\n      tag_102\n      jump\t// in\n    tag_220:\n        /* \"#utility.yul\":7576:7579   */\n      dup5\n        /* \"#utility.yul\":7572:7611   */\n      add\n        /* \"#utility.yul\":7565:7611   */\n      swap2\n      pop\n        /* \"#utility.yul\":7342:7617   */\n      pop\n        /* \"#utility.yul\":7260:7617   */\n      swap3\n      swap2\n      pop\n      pop\n      jump\t// out\n        /* \"#utility.yul\":7623:7819   */\n    tag_125:\n        /* \"#utility.yul\":7712:7722   */\n      0x00\n        /* \"#utility.yul\":7747:7813   */\n      tag_222\n        /* \"#utility.yul\":7809:7812   */\n      dup4\n        /* \"#utility.yul\":7801:7807   */\n      dup4\n        /* \"#utility.yul\":7747:7813   */\n      tag_124\n      jump\t// in\n    tag_222:\n        /* \"#utility.yul\":7733:7813   */\n      swap1\n      pop\n        /* \"#utility.yul\":7623:7819   */\n      swap3\n      swap2\n      pop\n      pop\n      jump\t// out\n        /* \"#utility.yul\":7825:7948   */\n    tag_126:\n        /* \"#utility.yul\":7905:7909   */\n      0x00\n        /* \"#utility.yul\":7937:7941   */\n      0x20\n        /* \"#utility.yul\":7932:7935   */\n      dup3\n        /* \"#utility.yul\":7928:7942   */\n      add\n        /* \"#utility.yul\":7920:7942   */\n      swap1\n      pop\n        /* \"#utility.yul\":7825:7948   */\n      swap2\n      swap1\n      pop\n      jump\t// out\n        /* \"#utility.yul\":7982:8973   */\n    tag_127:\n        /* \"#utility.yul\":8121:8124   */\n      0x00\n        /* \"#utility.yul\":8150:8214   */\n      tag_225\n        /* \"#utility.yul\":8208:8213   */\n      dup3\n        /* \"#utility.yul\":8150:8214   */\n      tag_118\n      jump\t// in\n    tag_225:\n        /* \"#utility.yul\":8230:8326   */\n      tag_226\n        /* \"#utility.yul\":8319:8325   */\n      dup2\n        /* \"#utility.yul\":8314:8317   */\n      dup6\n        /* \"#utility.yul\":8230:8326   */\n      tag_119\n      jump\t// in\n    tag_226:\n        /* \"#utility.yul\":8223:8326   */\n      swap4\n      pop\n        /* \"#utility.yul\":8352:8355   */\n      dup4\n        /* \"#utility.yul\":8397:8401   */\n      0x20\n        /* \"#utility.yul\":8389:8395   */\n      dup3\n        /* \"#utility.yul\":8385:8402   */\n      mul\n        /* \"#utility.yul\":8380:8383   */\n      dup6\n        /* \"#utility.yul\":8376:8403   */\n      add\n        /* \"#utility.yul\":8427:8493   */\n      tag_227\n        /* \"#utility.yul\":8487:8492   */\n      dup6\n        /* \"#utility.yul\":8427:8493   */\n      tag_120\n      jump\t// in\n    tag_227:\n        /* \"#utility.yul\":8516:8523   */\n      dup1\n        /* \"#utility.yul\":8547:8548   */\n      0x00\n        /* \"#utility.yul\":8532:8928   */\n    tag_228:\n        /* \"#utility.yul\":8557:8563   */\n      dup6\n        /* \"#utility.yul\":8554:8555   */\n      dup2\n        /* \"#utility.yul\":8551:8564   */\n      lt\n        /* \"#utility.yul\":8532:8928   */\n      iszero\n      tag_230\n      jumpi\n        /* \"#utility.yul\":8628:8637   */\n      dup5\n        /* \"#utility.yul\":8622:8626   */\n      dup5\n        /* \"#utility.yul\":8618:8638   */\n      sub\n        /* \"#utility.yul\":8613:8616   */\n      dup10\n        /* \"#utility.yul\":8606:8639   */\n      mstore\n        /* \"#utility.yul\":8679:8685   */\n      dup2\n        /* \"#utility.yul\":8673:8686   */\n      mload\n        /* \"#utility.yul\":8707:8791   */\n      tag_231\n        /* \"#utility.yul\":8786:8790   */\n      dup6\n        /* \"#utility.yul\":8771:8784   */\n      dup3\n        /* \"#utility.yul\":8707:8791   */\n      tag_125\n      jump\t// in\n    tag_231:\n        /* \"#utility.yul\":8699:8791   */\n      swap5\n      pop\n        /* \"#utility.yul\":8814:8884   */\n      tag_232\n        /* \"#utility.yul\":8877:8883   */\n      dup4\n        /* \"#utility.yul\":8814:8884   */\n      tag_126\n      jump\t// in\n    tag_232:\n        /* \"#utility.yul\":8804:8884   */\n      swap3\n      pop\n        /* \"#utility.yul\":8913:8917   */\n      0x20\n        /* \"#utility.yul\":8908:8911   */\n      dup11\n        /* \"#utility.yul\":8904:8918   */\n      add\n        /* \"#utility.yul\":8897:8918   */\n      swap10\n      pop\n        /* \"#utility.yul\":8592:8928   */\n      pop\n        /* \"#utility.yul\":8579:8580   */\n      0x01\n        /* \"#utility.yul\":8576:8577   */\n      dup2\n        /* \"#utility.yul\":8572:8581   */\n      add\n        /* \"#utility.yul\":8567:8581   */\n      swap1\n      pop\n        /* \"#utility.yul\":8532:8928   */\n      jump(tag_228)\n    tag_230:\n        /* \"#utility.yul\":8536:8550   */\n      pop\n        /* \"#utility.yul\":8944:8948   */\n      dup3\n        /* \"#utility.yul\":8937:8948   */\n      swap8\n      pop\n        /* \"#utility.yul\":8964:8967   */\n      dup8\n        /* \"#utility.yul\":8957:8967   */\n      swap6\n      pop\n        /* \"#utility.yul\":8126:8973   */\n      pop\n      pop\n      pop\n      pop\n      pop\n        /* \"#utility.yul\":7982:8973   */\n      swap3\n      swap2\n      pop\n      pop\n      jump\t// out\n        /* \"#utility.yul\":8979:9392   */\n    tag_24:\n        /* \"#utility.yul\":9142:9146   */\n      0x00\n        /* \"#utility.yul\":9180:9182   */\n      0x20\n        /* \"#utility.yul\":9169:9178   */\n      dup3\n        /* \"#utility.yul\":9165:9183   */\n      add\n        /* \"#utility.yul\":9157:9183   */\n      swap1\n      pop\n        /* \"#utility.yul\":9229:9238   */\n      dup2\n        /* \"#utility.yul\":9223:9227   */\n      dup2\n        /* \"#utility.yul\":9219:9239   */\n      sub\n        /* \"#utility.yul\":9215:9216   */\n      0x00\n        /* \"#utility.yul\":9204:9213   */\n      dup4\n        /* \"#utility.yul\":9200:9217   */\n      add\n        /* \"#utility.yul\":9193:9240   */\n      mstore\n        /* \"#utility.yul\":9257:9385   */\n      tag_234\n        /* \"#utility.yul\":9380:9384   */\n      dup2\n        /* \"#utility.yul\":9371:9377   */\n      dup5\n        /* \"#utility.yul\":9257:9385   */\n      tag_127\n      jump\t// in\n    tag_234:\n        /* \"#utility.yul\":9249:9385   */\n      swap1\n      pop\n        /* \"#utility.yul\":8979:9392   */\n      swap3\n      swap2\n      pop\n      pop\n      jump\t// out\n        /* \"#utility.yul\":9398:9496   */\n    tag_128:\n        /* \"#utility.yul\":9449:9455   */\n      0x00\n        /* \"#utility.yul\":9483:9488   */\n      dup2\n        /* \"#utility.yul\":9477:9489   */\n      mload\n        /* \"#utility.yul\":9467:9489   */\n      swap1\n      pop\n        /* \"#utility.yul\":9398:9496   */\n      swap2\n      swap1\n      pop\n      jump\t// out\n        /* \"#utility.yul\":9502:9670   */\n    tag_129:\n        /* \"#utility.yul\":9585:9596   */\n      0x00\n        /* \"#utility.yul\":9619:9625   */\n      dup3\n        /* \"#utility.yul\":9614:9617   */\n      dup3\n        /* \"#utility.yul\":9607:9626   */\n      mstore\n        /* \"#utility.yul\":9659:9663   */\n      0x20\n        /* \"#utility.yul\":9654:9657   */\n      dup3\n        /* \"#utility.yul\":9650:9664   */\n      add\n        /* \"#utility.yul\":9635:9664   */\n      swap1\n      pop\n        /* \"#utility.yul\":9502:9670   */\n      swap3\n      swap2\n      pop\n      pop\n      jump\t// out\n        /* \"#utility.yul\":9676:10049   */\n    tag_130:\n        /* \"#utility.yul\":9762:9765   */\n      0x00\n        /* \"#utility.yul\":9790:9828   */\n      tag_238\n        /* \"#utility.yul\":9822:9827   */\n      dup3\n        /* \"#utility.yul\":9790:9828   */\n      tag_128\n      jump\t// in\n    tag_238:\n        /* \"#utility.yul\":9844:9914   */\n      tag_239\n        /* \"#utility.yul\":9907:9913   */\n      dup2\n        /* \"#utility.yul\":9902:9905   */\n      dup6\n        /* \"#utility.yul\":9844:9914   */\n      tag_129\n      jump\t// in\n    tag_239:\n        /* \"#utility.yul\":9837:9914   */\n      swap4\n      pop\n        /* \"#utility.yul\":9923:9988   */\n      tag_240\n        /* \"#utility.yul\":9981:9987   */\n      dup2\n        /* \"#utility.yul\":9976:9979   */\n      dup6\n        /* \"#utility.yul\":9969:9973   */\n      0x20\n        /* \"#utility.yul\":9962:9967   */\n      dup7\n        /* \"#utility.yul\":9958:9974   */\n      add\n        /* \"#utility.yul\":9923:9988   */\n      tag_123\n      jump\t// in\n    tag_240:\n        /* \"#utility.yul\":10013:10042   */\n      tag_241\n        /* \"#utility.yul\":10035:10041   */\n      dup2\n        /* \"#utility.yul\":10013:10042   */\n      tag_102\n      jump\t// in\n    tag_241:\n        /* \"#utility.yul\":10008:10011   */\n      dup5\n        /* \"#utility.yul\":10004:10043   */\n      add\n        /* \"#utility.yul\":9997:10043   */\n      swap2\n      pop\n        /* \"#utility.yul\":9766:10049   */\n      pop\n        /* \"#utility.yul\":9676:10049   */\n      swap3\n      swap2\n      pop\n      pop\n      jump\t// out\n        /* \"#utility.yul\":10055:10364   */\n    tag_30:\n        /* \"#utility.yul\":10166:10170   */\n      0x00\n        /* \"#utility.yul\":10204:10206   */\n      0x20\n        /* \"#utility.yul\":10193:10202   */\n      dup3\n        /* \"#utility.yul\":10189:10207   */\n      add\n        /* \"#utility.yul\":10181:10207   */\n      swap1\n      pop\n        /* \"#utility.yul\":10253:10262   */\n      dup2\n        /* \"#utility.yul\":10247:10251   */\n      dup2\n        /* \"#utility.yul\":10243:10263   */\n      sub\n        /* \"#utility.yul\":10239:10240   */\n      0x00\n        /* \"#utility.yul\":10228:10237   */\n      dup4\n        /* \"#utility.yul\":10224:10241   */\n      add\n        /* \"#utility.yul\":10217:10264   */\n      mstore\n        /* \"#utility.yul\":10281:10357   */\n      tag_243\n        /* \"#utility.yul\":10352:10356   */\n      dup2\n        /* \"#utility.yul\":10343:10349   */\n      dup5\n        /* \"#utility.yul\":10281:10357   */\n      tag_130\n      jump\t// in\n    tag_243:\n        /* \"#utility.yul\":10273:10357   */\n      swap1\n      pop\n        /* \"#utility.yul\":10055:10364   */\n      swap3\n      swap2\n      pop\n      pop\n      jump\t// out\n        /* \"#utility.yul\":10370:10496   */\n    tag_131:\n        /* \"#utility.yul\":10407:10414   */\n      0x00\n        /* \"#utility.yul\":10447:10489   */\n      0xffffffffffffffffffffffffffffffffffffffff\n        /* \"#utility.yul\":10440:10445   */\n      dup3\n        /* \"#utility.yul\":10436:10490   */\n      and\n        /* \"#utility.yul\":10425:10490   */\n      swap1\n      pop\n        /* \"#utility.yul\":10370:10496   */\n      swap2\n      swap1\n      pop\n      jump\t// out\n        /* \"#utility.yul\":10502:10598   */\n    tag_132:\n        /* \"#utility.yul\":10539:10546   */\n      0x00\n        /* \"#utility.yul\":10568:10592   */\n      tag_246\n        /* \"#utility.yul\":10586:10591   */\n      dup3\n        /* \"#utility.yul\":10568:10592   */\n      tag_131\n      jump\t// in\n    tag_246:\n        /* \"#utility.yul\":10557:10592   */\n      swap1\n      pop\n        /* \"#utility.yul\":10502:10598   */\n      swap2\n      swap1\n      pop\n      jump\t// out\n        /* \"#utility.yul\":10604:10726   */\n    tag_133:\n        /* \"#utility.yul\":10677:10701   */\n      tag_248\n        /* \"#utility.yul\":10695:10700   */\n      dup2\n        /* \"#utility.yul\":10677:10701   */\n      tag_132\n      jump\t// in\n    tag_248:\n        /* \"#utility.yul\":10670:10675   */\n      dup2\n        /* \"#utility.yul\":10667:10702   */\n      eq\n        /* \"#utility.yul\":10657:10720   */\n      tag_249\n      jumpi\n        /* \"#utility.yul\":10716:10717   */\n      0x00\n        /* \"#utility.yul\":10713:10714   */\n      dup1\n        /* \"#utility.yul\":10706:10718   */\n      revert\n        /* \"#utility.yul\":10657:10720   */\n    tag_249:\n        /* \"#utility.yul\":10604:10726   */\n      pop\n      jump\t// out\n        /* \"#utility.yul\":10732:10871   */\n    tag_134:\n        /* \"#utility.yul\":10778:10783   */\n      0x00\n        /* \"#utility.yul\":10816:10822   */\n      dup2\n        /* \"#utility.yul\":10803:10823   */\n      calldataload\n        /* \"#utility.yul\":10794:10823   */\n      swap1\n      pop\n        /* \"#utility.yul\":10832:10865   */\n      tag_251\n        /* \"#utility.yul\":10859:10864   */\n      dup2\n        /* \"#utility.yul\":10832:10865   */\n      tag_133\n      jump\t// in\n    tag_251:\n        /* \"#utility.yul\":10732:10871   */\n      swap3\n      swap2\n      pop\n      pop\n      jump\t// out\n        /* \"#utility.yul\":10877:11206   */\n    tag_33:\n        /* \"#utility.yul\":10936:10942   */\n      0x00\n        /* \"#utility.yul\":10985:10987   */\n      0x20\n        /* \"#utility.yul\":10973:10982   */\n      dup3\n        /* \"#utility.yul\":10964:10971   */\n      dup5\n        /* \"#utility.yul\":10960:10983   */\n      sub\n        /* \"#utility.yul\":10956:10988   */\n      slt\n        /* \"#utility.yul\":10953:11072   */\n      iszero\n      tag_253\n      jumpi\n        /* \"#utility.yul\":10991:11070   */\n      tag_254\n      tag_99\n      jump\t// in\n    tag_254:\n        /* \"#utility.yul\":10953:11072   */\n    tag_253:\n        /* \"#utility.yul\":11111:11112   */\n      0x00\n        /* \"#utility.yul\":11136:11189   */\n      tag_255\n        /* \"#utility.yul\":11181:11188   */\n      dup5\n        /* \"#utility.yul\":11172:11178   */\n      dup3\n        /* \"#utility.yul\":11161:11170   */\n      dup6\n        /* \"#utility.yul\":11157:11179   */\n      add\n        /* \"#utility.yul\":11136:11189   */\n      tag_134\n      jump\t// in\n    tag_255:\n        /* \"#utility.yul\":11126:11189   */\n      swap2\n      pop\n        /* \"#utility.yul\":11082:11199   */\n      pop\n        /* \"#utility.yul\":10877:11206   */\n      swap3\n      swap2\n      pop\n      pop\n      jump\t// out\n        /* \"#utility.yul\":11212:11541   */\n    tag_37:\n        /* \"#utility.yul\":11271:11277   */\n      0x00\n        /* \"#utility.yul\":11320:11322   */\n      0x20\n        /* \"#utility.yul\":11308:11317   */\n      dup3\n        /* \"#utility.yul\":11299:11306   */\n      dup5\n        /* \"#utility.yul\":11295:11318   */\n      sub\n        /* \"#utility.yul\":11291:11323   */\n      slt\n        /* \"#utility.yul\":11288:11407   */\n      iszero\n      tag_257\n      jumpi\n        /* \"#utility.yul\":11326:11405   */\n      tag_258\n      tag_99\n      jump\t// in\n    tag_258:\n        /* \"#utility.yul\":11288:11407   */\n    tag_257:\n        /* \"#utility.yul\":11446:11447   */\n      0x00\n        /* \"#utility.yul\":11471:11524   */\n      tag_259\n        /* \"#utility.yul\":11516:11523   */\n      dup5\n        /* \"#utility.yul\":11507:11513   */\n      dup3\n        /* \"#utility.yul\":11496:11505   */\n      dup6\n        /* \"#utility.yul\":11492:11514   */\n      add\n        /* \"#utility.yul\":11471:11524   */\n      tag_117\n      jump\t// in\n    tag_259:\n        /* \"#utility.yul\":11461:11524   */\n      swap2\n      pop\n        /* \"#utility.yul\":11417:11534   */\n      pop\n        /* \"#utility.yul\":11212:11541   */\n      swap3\n      swap2\n      pop\n      pop\n      jump\t// out\n        /* \"#utility.yul\":11547:11665   */\n    tag_135:\n        /* \"#utility.yul\":11634:11658   */\n      tag_261\n        /* \"#utility.yul\":11652:11657   */\n      dup2\n        /* \"#utility.yul\":11634:11658   */\n      tag_132\n      jump\t// in\n    tag_261:\n        /* \"#utility.yul\":11629:11632   */\n      dup3\n        /* \"#utility.yul\":11622:11659   */\n      mstore\n        /* \"#utility.yul\":11547:11665   */\n      pop\n      pop\n      jump\t// out\n        /* \"#utility.yul\":11671:11893   */\n    tag_44:\n        /* \"#utility.yul\":11764:11768   */\n      0x00\n        /* \"#utility.yul\":11802:11804   */\n      0x20\n        /* \"#utility.yul\":11791:11800   */\n      dup3\n        /* \"#utility.yul\":11787:11805   */\n      add\n        /* \"#utility.yul\":11779:11805   */\n      swap1\n      pop\n        /* \"#utility.yul\":11815:11886   */\n      tag_263\n        /* \"#utility.yul\":11883:11884   */\n      0x00\n        /* \"#utility.yul\":11872:11881   */\n      dup4\n        /* \"#utility.yul\":11868:11885   */\n      add\n        /* \"#utility.yul\":11859:11865   */\n      dup5\n        /* \"#utility.yul\":11815:11886   */\n      tag_135\n      jump\t// in\n    tag_263:\n        /* \"#utility.yul\":11671:11893   */\n      swap3\n      swap2\n      pop\n      pop\n      jump\t// out\n        /* \"#utility.yul\":11899:12079   */\n    tag_136:\n        /* \"#utility.yul\":11947:12024   */\n      0x4e487b7100000000000000000000000000000000000000000000000000000000\n        /* \"#utility.yul\":11944:11945   */\n      0x00\n        /* \"#utility.yul\":11937:12025   */\n      mstore\n        /* \"#utility.yul\":12044:12048   */\n      0x11\n        /* \"#utility.yul\":12041:12042   */\n      0x04\n        /* \"#utility.yul\":12034:12049   */\n      mstore\n        /* \"#utility.yul\":12068:12072   */\n      0x24\n        /* \"#utility.yul\":12065:12066   */\n      0x00\n        /* \"#utility.yul\":12058:12073   */\n      revert\n        /* \"#utility.yul\":12085:12279   */\n    tag_54:\n        /* \"#utility.yul\":12125:12129   */\n      0x00\n        /* \"#utility.yul\":12145:12165   */\n      tag_266\n        /* \"#utility.yul\":12163:12164   */\n      dup3\n        /* \"#utility.yul\":12145:12165   */\n      tag_114\n      jump\t// in\n    tag_266:\n        /* \"#utility.yul\":12140:12165   */\n      swap2\n      pop\n        /* \"#utility.yul\":12179:12199   */\n      tag_267\n        /* \"#utility.yul\":12197:12198   */\n      dup4\n        /* \"#utility.yul\":12179:12199   */\n      tag_114\n      jump\t// in\n    tag_267:\n        /* \"#utility.yul\":12174:12199   */\n      swap3\n      pop\n        /* \"#utility.yul\":12223:12224   */\n      dup3\n        /* \"#utility.yul\":12220:12221   */\n      dup3\n        /* \"#utility.yul\":12216:12225   */\n      sub\n        /* \"#utility.yul\":12208:12225   */\n      swap1\n      pop\n        /* \"#utility.yul\":12247:12248   */\n      dup2\n        /* \"#utility.yul\":12241:12245   */\n      dup2\n        /* \"#utility.yul\":12238:12249   */\n      gt\n        /* \"#utility.yul\":12235:12272   */\n      iszero\n      tag_268\n      jumpi\n        /* \"#utility.yul\":12252:12270   */\n      tag_269\n      tag_136\n      jump\t// in\n    tag_269:\n        /* \"#utility.yul\":12235:12272   */\n    tag_268:\n        /* \"#utility.yul\":12085:12279   */\n      swap3\n      swap2\n      pop\n      pop\n      jump\t// out\n        /* \"#utility.yul\":12285:12465   */\n    tag_65:\n        /* \"#utility.yul\":12333:12410   */\n      0x4e487b7100000000000000000000000000000000000000000000000000000000\n        /* \"#utility.yul\":12330:12331   */\n      0x00\n        /* \"#utility.yul\":12323:12411   */\n      mstore\n        /* \"#utility.yul\":12430:12434   */\n      0x32\n        /* \"#utility.yul\":12427:12428   */\n      0x04\n        /* \"#utility.yul\":12420:12435   */\n      mstore\n        /* \"#utility.yul\":12454:12458   */\n      0x24\n        /* \"#utility.yul\":12451:12452   */\n      0x00\n        /* \"#utility.yul\":12444:12459   */\n      revert\n        /* \"#utility.yul\":12471:12662   */\n    tag_72:\n        /* \"#utility.yul\":12511:12514   */\n      0x00\n        /* \"#utility.yul\":12530:12550   */\n      tag_272\n        /* \"#utility.yul\":12548:12549   */\n      dup3\n        /* \"#utility.yul\":12530:12550   */\n      tag_114\n      jump\t// in\n    tag_272:\n        /* \"#utility.yul\":12525:12550   */\n      swap2\n      pop\n        /* \"#utility.yul\":12564:12584   */\n      tag_273\n        /* \"#utility.yul\":12582:12583   */\n      dup4\n        /* \"#utility.yul\":12564:12584   */\n      tag_114\n      jump\t// in\n    tag_273:\n        /* \"#utility.yul\":12559:12584   */\n      swap3\n      pop\n        /* \"#utility.yul\":12607:12608   */\n      dup3\n        /* \"#utility.yul\":12604:12605   */\n      dup3\n        /* \"#utility.yul\":12600:12609   */\n      add\n        /* \"#utility.yul\":12593:12609   */\n      swap1\n      pop\n        /* \"#utility.yul\":12628:12631   */\n      dup1\n        /* \"#utility.yul\":12625:12626   */\n      dup3\n        /* \"#utility.yul\":12622:12632   */\n      gt\n        /* \"#utility.yul\":12619:12655   */\n      iszero\n      tag_274\n      jumpi\n        /* \"#utility.yul\":12635:12653   */\n      tag_275\n      tag_136\n      jump\t// in\n    tag_275:\n        /* \"#utility.yul\":12619:12655   */\n    tag_274:\n        /* \"#utility.yul\":12471:12662   */\n      swap3\n      swap2\n      pop\n      pop\n      jump\t// out\n        /* \"#utility.yul\":12668:12848   */\n    tag_81:\n        /* \"#utility.yul\":12716:12793   */\n      0x4e487b7100000000000000000000000000000000000000000000000000000000\n        /* \"#utility.yul\":12713:12714   */\n      0x00\n        /* \"#utility.yul\":12706:12794   */\n      mstore\n        /* \"#utility.yul\":12813:12817   */\n      0x31\n        /* \"#utility.yul\":12810:12811   */\n      0x04\n        /* \"#utility.yul\":12803:12818   */\n      mstore\n        /* \"#utility.yul\":12837:12841   */\n      0x24\n        /* \"#utility.yul\":12834:12835   */\n      0x00\n        /* \"#utility.yul\":12827:12842   */\n      revert\n        /* \"#utility.yul\":12854:13034   */\n    tag_137:\n        /* \"#utility.yul\":12902:12979   */\n      0x4e487b7100000000000000000000000000000000000000000000000000000000\n        /* \"#utility.yul\":12899:12900   */\n      0x00\n        /* \"#utility.yul\":12892:12980   */\n      mstore\n        /* \"#utility.yul\":12999:13003   */\n      0x22\n        /* \"#utility.yul\":12996:12997   */\n      0x04\n        /* \"#utility.yul\":12989:13004   */\n      mstore\n        /* \"#utility.yul\":13023:13027   */\n      0x24\n        /* \"#utility.yul\":13020:13021   */\n      0x00\n        /* \"#utility.yul\":13013:13028   */\n      revert\n        /* \"#utility.yul\":13040:13360   */\n    tag_84:\n        /* \"#utility.yul\":13084:13090   */\n      0x00\n        /* \"#utility.yul\":13121:13122   */\n      0x02\n        /* \"#utility.yul\":13115:13119   */\n      dup3\n        /* \"#utility.yul\":13111:13123   */\n      div\n        /* \"#utility.yul\":13101:13123   */\n      swap1\n      pop\n        /* \"#utility.yul\":13168:13169   */\n      0x01\n        /* \"#utility.yul\":13162:13166   */\n      dup3\n        /* \"#utility.yul\":13158:13170   */\n      and\n        /* \"#utility.yul\":13189:13207   */\n      dup1\n        /* \"#utility.yul\":13179:13260   */\n      tag_279\n      jumpi\n        /* \"#utility.yul\":13245:13249   */\n      0x7f\n        /* \"#utility.yul\":13237:13243   */\n      dup3\n        /* \"#utility.yul\":13233:13250   */\n      and\n        /* \"#utility.yul\":13223:13250   */\n      swap2\n      pop\n        /* \"#utility.yul\":13179:13260   */\n    tag_279:\n        /* \"#utility.yul\":13307:13309   */\n      0x20\n        /* \"#utility.yul\":13299:13305   */\n      dup3\n        /* \"#utility.yul\":13296:13310   */\n      lt\n        /* \"#utility.yul\":13276:13294   */\n      dup2\n        /* \"#utility.yul\":13273:13311   */\n      sub\n        /* \"#utility.yul\":13270:13354   */\n      tag_280\n      jumpi\n        /* \"#utility.yul\":13326:13344   */\n      tag_281\n      tag_137\n      jump\t// in\n    tag_281:\n        /* \"#utility.yul\":13270:13354   */\n    tag_280:\n        /* \"#utility.yul\":13091:13360   */\n      pop\n        /* \"#utility.yul\":13040:13360   */\n      swap2\n      swap1\n      pop\n      jump\t// out\n\n    auxdata: 0xa2646970667358221220eef6086698ccea3db641228b98909f2f4dd76d2eacd2154301802c7eae38d91c64736f6c634300081a0033\n}\n",
				"bytecode": {
					"linkReferences": {},
					"object": "6080604052600a67ffffffffffffffff81111561001f5761001e610072565b5b6040519080825280601f01601f1916602001820160405280156100515781602001600182028036833780820191505090505b506002908161006091906102ac565b5034801561006c575f80fd5b5061037b565b7f4e487b71000000000000000000000000000000000000000000000000000000005f52604160045260245ffd5b5f81519050919050565b7f4e487b71000000000000000000000000000000000000000000000000000000005f52602260045260245ffd5b5f60028204905060018216806100ed57607f821691505b602082108103610100576100ff6100a9565b5b50919050565b5f819050815f5260205f209050919050565b5f6020601f8301049050919050565b5f82821b905092915050565b5f600883026101627fffffffffffffffffffffffffffffffffffffffffffffffffffffffffffffffff82610127565b61016c8683610127565b95508019841693508086168417925050509392505050565b5f819050919050565b5f819050919050565b5f6101b06101ab6101a684610184565b61018d565b610184565b9050919050565b5f819050919050565b6101c983610196565b6101dd6101d5826101b7565b848454610133565b825550505050565b5f90565b6101f16101e5565b6101fc8184846101c0565b505050565b5b8181101561021f576102145f826101e9565b600181019050610202565b5050565b601f8211156102645761023581610106565b61023e84610118565b8101602085101561024d578190505b61026161025985610118565b830182610201565b50505b505050565b5f82821c905092915050565b5f6102845f1984600802610269565b1980831691505092915050565b5f61029c8383610275565b9150826002028217905092915050565b6102b58261009f565b67ffffffffffffffff8111156102ce576102cd610072565b5b6102d882546100d6565b6102e3828285610223565b5f60209050601f831160018114610314575f8415610302578287015190505b61030c8582610291565b865550610373565b601f19841661032286610106565b5f5b8281101561034957848901518255600182019150602085019450602081019050610324565b868310156103665784890151610362601f891682610275565b8355505b6001600288020188555050505b505050505050565b610bd6806103885f395ff3fe608060405234801561000f575f80fd5b5060043610610090575f3560e01c8063767751eb11610064578063767751eb1461011c5780639a9bdca714610138578063aa0a917114610168578063be1c766b14610198578063f5d9612d146101b657610090565b806248adce1461009457806310b0096b146100c45780632bd63afc146100f457806341a203da146100fe575b5f80fd5b6100ae60048036038101906100a991906106d5565b6101d2565b6040516100bb9190610734565b60405180910390f35b6100de60048036038101906100d99190610777565b6101dc565b6040516100eb91906108ec565b60405180910390f35b6100fc610304565b005b61010661032a565b604051610113919061095e565b60405180910390f35b610136600480360381019061013191906109d8565b6103b6565b005b610152600480360381019061014d9190610a03565b610419565b60405161015f9190610734565b60405180910390f35b610182600480360381019061017d9190610a03565b610438565b60405161018f9190610a3d565b60405180910390f35b6101a0610473565b6040516101ad9190610734565b60405180910390f35b6101d060048036038101906101cb9190610a03565b61047e565b005b5f81519050919050565b60605f600184516101ed9190610a83565b67ffffffffffffffff811115610206576102056104cb565b5b60405190808252806020026020018201604052801561023957816020015b60608152602001906001900390816102245790505b5090505f5b8381101561028c5784818151811061025957610258610ab6565b5b602002602001015182828151811061027457610273610ab6565b5b6020026020010181905250808060010191505061023e565b505f60018461029b9190610ae3565b90505b84518110156102f9578481815181106102ba576102b9610ab6565b5b6020026020010151826001836102d09190610a83565b815181106102e1576102e0610ab6565b5b6020026020010181905250808060010191505061029e565b508091505092915050565b5f80548061031557610314610b16565b5b600190038181905f5260205f20015f90559055565b6002805461033790610b70565b80601f016020809104026020016040519081016040528092919081815260200182805461036390610b70565b80156103ae5780601f10610385576101008083540402835291602001916103ae565b820191905f5260205f20905b81548152906001019060200180831161039157829003601f168201915b505050505081565b600181908060018154018082558091505060019003905f5260205f20015f9091909190916101000a81548173ffffffffffffffffffffffffffffffffffffffff021916908373ffffffffffffffffffffffffffffffffffffffff16021790555050565b5f8181548110610427575f80fd5b905f5260205f20015f915090505481565b60018181548110610447575f80fd5b905f5260205f20015f915054906101000a900473ffffffffffffffffffffffffffffffffffffffff1681565b5f8080549050905090565b5f81908060018154018082558091505060019003905f5260205f20015f909190919091505550565b5f604051905090565b5f80fd5b5f80fd5b5f80fd5b5f601f19601f8301169050919050565b7f4e487b71000000000000000000000000000000000000000000000000000000005f52604160045260245ffd5b610501826104bb565b810181811067ffffffffffffffff821117156105205761051f6104cb565b5b80604052505050565b5f6105326104a6565b905061053e82826104f8565b919050565b5f67ffffffffffffffff82111561055d5761055c6104cb565b5b602082029050602081019050919050565b5f80fd5b5f80fd5b5f67ffffffffffffffff8211156105905761058f6104cb565b5b610599826104bb565b9050602081019050919050565b828183375f83830152505050565b5f6105c66105c184610576565b610529565b9050828152602081018484840111156105e2576105e1610572565b5b6105ed8482856105a6565b509392505050565b5f82601f830112610609576106086104b7565b5b81356106198482602086016105b4565b91505092915050565b5f61063461062f84610543565b610529565b905080838252602082019050602084028301858111156106575761065661056e565b5b835b8181101561069e57803567ffffffffffffffff81111561067c5761067b6104b7565b5b80860161068989826105f5565b85526020850194505050602081019050610659565b5050509392505050565b5f82601f8301126106bc576106bb6104b7565b5b81356106cc848260208601610622565b91505092915050565b5f602082840312156106ea576106e96104af565b5b5f82013567ffffffffffffffff811115610707576107066104b3565b5b610713848285016106a8565b91505092915050565b5f819050919050565b61072e8161071c565b82525050565b5f6020820190506107475f830184610725565b92915050565b6107568161071c565b8114610760575f80fd5b50565b5f813590506107718161074d565b92915050565b5f806040838503121561078d5761078c6104af565b5b5f83013567ffffffffffffffff8111156107aa576107a96104b3565b5b6107b6858286016106a8565b92505060206107c785828601610763565b9150509250929050565b5f81519050919050565b5f82825260208201905092915050565b5f819050602082019050919050565b5f81519050919050565b5f82825260208201905092915050565b8281835e5f83830152505050565b5f61082c826107fa565b6108368185610804565b9350610846818560208601610814565b61084f816104bb565b840191505092915050565b5f6108658383610822565b905092915050565b5f602082019050919050565b5f610883826107d1565b61088d81856107db565b93508360208202850161089f856107eb565b805f5b858110156108da57848403895281516108bb858261085a565b94506108c68361086d565b925060208a019950506001810190506108a2565b50829750879550505050505092915050565b5f6020820190508181035f8301526109048184610879565b905092915050565b5f81519050919050565b5f82825260208201905092915050565b5f6109308261090c565b61093a8185610916565b935061094a818560208601610814565b610953816104bb565b840191505092915050565b5f6020820190508181035f8301526109768184610926565b905092915050565b5f73ffffffffffffffffffffffffffffffffffffffff82169050919050565b5f6109a78261097e565b9050919050565b6109b78161099d565b81146109c1575f80fd5b50565b5f813590506109d2816109ae565b92915050565b5f602082840312156109ed576109ec6104af565b5b5f6109fa848285016109c4565b91505092915050565b5f60208284031215610a1857610a176104af565b5b5f610a2584828501610763565b91505092915050565b610a378161099d565b82525050565b5f602082019050610a505f830184610a2e565b92915050565b7f4e487b71000000000000000000000000000000000000000000000000000000005f52601160045260245ffd5b5f610a8d8261071c565b9150610a988361071c565b9250828203905081811115610ab057610aaf610a56565b5b92915050565b7f4e487b71000000000000000000000000000000000000000000000000000000005f52603260045260245ffd5b5f610aed8261071c565b9150610af88361071c565b9250828201905080821115610b1057610b0f610a56565b5b92915050565b7f4e487b71000000000000000000000000000000000000000000000000000000005f52603160045260245ffd5b7f4e487b71000000000000000000000000000000000000000000000000000000005f52602260045260245ffd5b5f6002820490506001821680610b8757607f821691505b602082108103610b9a57610b99610b43565b5b5091905056fea2646970667358221220eef6086698ccea3db641228b98909f2f4dd76d2eacd2154301802c7eae38d91c64736f6c634300081a0033",
					"opcodes": "PUSH1 0x80 PUSH1 0x40 MSTORE PUSH1 0xA PUSH8 0xFFFFFFFFFFFFFFFF DUP2 GT ISZERO PUSH2 0x1F JUMPI PUSH2 0x1E PUSH2 0x72 JUMP JUMPDEST JUMPDEST PUSH1 0x40 MLOAD SWAP1 DUP1 DUP3 MSTORE DUP1 PUSH1 0x1F ADD PUSH1 0x1F NOT AND PUSH1 0x20 ADD DUP3 ADD PUSH1 0x40 MSTORE DUP1 ISZERO PUSH2 0x51 JUMPI DUP2 PUSH1 0x20 ADD PUSH1 0x1 DUP3 MUL DUP1 CALLDATASIZE DUP4 CALLDATACOPY DUP1 DUP3 ADD SWAP2 POP POP SWAP1 POP JUMPDEST POP PUSH1 0x2 SWAP1 DUP2 PUSH2 0x60 SWAP2 SWAP1 PUSH2 0x2AC JUMP JUMPDEST POP CALLVALUE DUP1 ISZERO PUSH2 0x6C JUMPI PUSH0 DUP1 REVERT JUMPDEST POP PUSH2 0x37B JUMP JUMPDEST PUSH32 0x4E487B7100000000000000000000000000000000000000000000000000000000 PUSH0 MSTORE PUSH1 0x41 PUSH1 0x4 MSTORE PUSH1 0x24 PUSH0 REVERT JUMPDEST PUSH0 DUP2 MLOAD SWAP1 POP SWAP2 SWAP1 POP JUMP JUMPDEST PUSH32 0x4E487B7100000000000000000000000000000000000000000000000000000000 PUSH0 MSTORE PUSH1 0x22 PUSH1 0x4 MSTORE PUSH1 0x24 PUSH0 REVERT JUMPDEST PUSH0 PUSH1 0x2 DUP3 DIV SWAP1 POP PUSH1 0x1 DUP3 AND DUP1 PUSH2 0xED JUMPI PUSH1 0x7F DUP3 AND SWAP2 POP JUMPDEST PUSH1 0x20 DUP3 LT DUP2 SUB PUSH2 0x100 JUMPI PUSH2 0xFF PUSH2 0xA9 JUMP JUMPDEST JUMPDEST POP SWAP2 SWAP1 POP JUMP JUMPDEST PUSH0 DUP2 SWAP1 POP DUP2 PUSH0 MSTORE PUSH1 0x20 PUSH0 KECCAK256 SWAP1 POP SWAP2 SWAP1 POP JUMP JUMPDEST PUSH0 PUSH1 0x20 PUSH1 0x1F DUP4 ADD DIV SWAP1 POP SWAP2 SWAP1 POP JUMP JUMPDEST PUSH0 DUP3 DUP3 SHL SWAP1 POP SWAP3 SWAP2 POP POP JUMP JUMPDEST PUSH0 PUSH1 0x8 DUP4 MUL PUSH2 0x162 PUSH32 0xFFFFFFFFFFFFFFFFFFFFFFFFFFFFFFFFFFFFFFFFFFFFFFFFFFFFFFFFFFFFFFFF DUP3 PUSH2 0x127 JUMP JUMPDEST PUSH2 0x16C DUP7 DUP4 PUSH2 0x127 JUMP JUMPDEST SWAP6 POP DUP1 NOT DUP5 AND SWAP4 POP DUP1 DUP7 AND DUP5 OR SWAP3 POP POP POP SWAP4 SWAP3 POP POP POP JUMP JUMPDEST PUSH0 DUP2 SWAP1 POP SWAP2 SWAP1 POP JUMP JUMPDEST PUSH0 DUP2 SWAP1 POP SWAP2 SWAP1 POP JUMP JUMPDEST PUSH0 PUSH2 0x1B0 PUSH2 0x1AB PUSH2 0x1A6 DUP5 PUSH2 0x184 JUMP JUMPDEST PUSH2 0x18D JUMP JUMPDEST PUSH2 0x184 JUMP JUMPDEST SWAP1 POP SWAP2 SWAP1 POP JUMP JUMPDEST PUSH0 DUP2 SWAP1 POP SWAP2 SWAP1 POP JUMP JUMPDEST PUSH2 0x1C9 DUP4 PUSH2 0x196 JUMP JUMPDEST PUSH2 0x1DD PUSH2 0x1D5 DUP3 PUSH2 0x1B7 JUMP JUMPDEST DUP5 DUP5 SLOAD PUSH2 0x133 JUMP JUMPDEST DUP3 SSTORE POP POP POP POP JUMP JUMPDEST PUSH0 SWAP1 JUMP JUMPDEST PUSH2 0x1F1 PUSH2 0x1E5 JUMP JUMPDEST PUSH2 0x1FC DUP2 DUP5 DUP5 PUSH2 0x1C0 JUMP JUMPDEST POP POP POP JUMP JUMPDEST JUMPDEST DUP2 DUP2 LT ISZERO PUSH2 0x21F JUMPI PUSH2 0x214 PUSH0 DUP3 PUSH2 0x1E9 JUMP JUMPDEST PUSH1 0x1 DUP2 ADD SWAP1 POP PUSH2 0x202 JUMP JUMPDEST POP POP JUMP JUMPDEST PUSH1 0x1F DUP3 GT ISZERO PUSH2 0x264 JUMPI PUSH2 0x235 DUP2 PUSH2 0x106 JUMP JUMPDEST PUSH2 0x23E DUP5 PUSH2 0x118 JUMP JUMPDEST DUP2 ADD PUSH1 0x20 DUP6 LT ISZERO PUSH2 0x24D JUMPI DUP2 SWAP1 POP JUMPDEST PUSH2 0x261 PUSH2 0x259 DUP6 PUSH2 0x118 JUMP JUMPDEST DUP4 ADD DUP3 PUSH2 0x201 JUMP JUMPDEST POP POP JUMPDEST POP POP POP JUMP JUMPDEST PUSH0 DUP3 DUP3 SHR SWAP1 POP SWAP3 SWAP2 POP POP JUMP JUMPDEST PUSH0 PUSH2 0x284 PUSH0 NOT DUP5 PUSH1 0x8 MUL PUSH2 0x269 JUMP JUMPDEST NOT DUP1 DUP4 AND SWAP2 POP POP SWAP3 SWAP2 POP POP JUMP JUMPDEST PUSH0 PUSH2 0x29C DUP4 DUP4 PUSH2 0x275 JUMP JUMPDEST SWAP2 POP DUP3 PUSH1 0x2 MUL DUP3 OR SWAP1 POP SWAP3 SWAP2 POP POP JUMP JUMPDEST PUSH2 0x2B5 DUP3 PUSH2 0x9F JUMP JUMPDEST PUSH8 0xFFFFFFFFFFFFFFFF DUP2 GT ISZERO PUSH2 0x2CE JUMPI PUSH2 0x2CD PUSH2 0x72 JUMP JUMPDEST JUMPDEST PUSH2 0x2D8 DUP3 SLOAD PUSH2 0xD6 JUMP JUMPDEST PUSH2 0x2E3 DUP3 DUP3 DUP6 PUSH2 0x223 JUMP JUMPDEST PUSH0 PUSH1 0x20 SWAP1 POP PUSH1 0x1F DUP4 GT PUSH1 0x1 DUP2 EQ PUSH2 0x314 JUMPI PUSH0 DUP5 ISZERO PUSH2 0x302 JUMPI DUP3 DUP8 ADD MLOAD SWAP1 POP JUMPDEST PUSH2 0x30C DUP6 DUP3 PUSH2 0x291 JUMP JUMPDEST DUP7 SSTORE POP PUSH2 0x373 JUMP JUMPDEST PUSH1 0x1F NOT DUP5 AND PUSH2 0x322 DUP7 PUSH2 0x106 JUMP JUMPDEST PUSH0 JUMPDEST DUP3 DUP2 LT ISZERO PUSH2 0x349 JUMPI DUP5 DUP10 ADD MLOAD DUP3 SSTORE PUSH1 0x1 DUP3 ADD SWAP2 POP PUSH1 0x20 DUP6 ADD SWAP5 POP PUSH1 0x20 DUP2 ADD SWAP1 POP PUSH2 0x324 JUMP JUMPDEST DUP7 DUP4 LT ISZERO PUSH2 0x366 JUMPI DUP5 DUP10 ADD MLOAD PUSH2 0x362 PUSH1 0x1F DUP10 AND DUP3 PUSH2 0x275 JUMP JUMPDEST DUP4 SSTORE POP JUMPDEST PUSH1 0x1 PUSH1 0x2 DUP9 MUL ADD DUP9 SSTORE POP POP POP JUMPDEST POP POP POP POP POP POP JUMP JUMPDEST PUSH2 0xBD6 DUP1 PUSH2 0x388 PUSH0 CODECOPY PUSH0 RETURN INVALID PUSH1 0x80 PUSH1 0x40 MSTORE CALLVALUE DUP1 ISZERO PUSH2 0xF JUMPI PUSH0 DUP1 REVERT JUMPDEST POP PUSH1 0x4 CALLDATASIZE LT PUSH2 0x90 JUMPI PUSH0 CALLDATALOAD PUSH1 0xE0 SHR DUP1 PUSH4 0x767751EB GT PUSH2 0x64 JUMPI DUP1 PUSH4 0x767751EB EQ PUSH2 0x11C JUMPI DUP1 PUSH4 0x9A9BDCA7 EQ PUSH2 0x138 JUMPI DUP1 PUSH4 0xAA0A9171 EQ PUSH2 0x168 JUMPI DUP1 PUSH4 0xBE1C766B EQ PUSH2 0x198 JUMPI DUP1 PUSH4 0xF5D9612D EQ PUSH2 0x1B6 JUMPI PUSH2 0x90 JUMP JUMPDEST DUP1 PUSH3 0x48ADCE EQ PUSH2 0x94 JUMPI DUP1 PUSH4 0x10B0096B EQ PUSH2 0xC4 JUMPI DUP1 PUSH4 0x2BD63AFC EQ PUSH2 0xF4 JUMPI DUP1 PUSH4 0x41A203DA EQ PUSH2 0xFE JUMPI JUMPDEST PUSH0 DUP1 REVERT JUMPDEST PUSH2 0xAE PUSH1 0x4 DUP1 CALLDATASIZE SUB DUP2 ADD SWAP1 PUSH2 0xA9 SWAP2 SWAP1 PUSH2 0x6D5 JUMP JUMPDEST PUSH2 0x1D2 JUMP JUMPDEST PUSH1 0x40 MLOAD PUSH2 0xBB SWAP2 SWAP1 PUSH2 0x734 JUMP JUMPDEST PUSH1 0x40 MLOAD DUP1 SWAP2 SUB SWAP1 RETURN JUMPDEST PUSH2 0xDE PUSH1 0x4 DUP1 CALLDATASIZE SUB DUP2 ADD SWAP1 PUSH2 0xD9 SWAP2 SWAP1 PUSH2 0x777 JUMP JUMPDEST PUSH2 0x1DC JUMP JUMPDEST PUSH1 0x40 MLOAD PUSH2 0xEB SWAP2 SWAP1 PUSH2 0x8EC JUMP JUMPDEST PUSH1 0x40 MLOAD DUP1 SWAP2 SUB SWAP1 RETURN JUMPDEST PUSH2 0xFC PUSH2 0x304 JUMP JUMPDEST STOP JUMPDEST PUSH2 0x106 PUSH2 0x32A JUMP JUMPDEST PUSH1 0x40 MLOAD PUSH2 0x113 SWAP2 SWAP1 PUSH2 0x95E JUMP JUMPDEST PUSH1 0x40 MLOAD DUP1 SWAP2 SUB SWAP1 RETURN JUMPDEST PUSH2 0x136 PUSH1 0x4 DUP1 CALLDATASIZE SUB DUP2 ADD SWAP1 PUSH2 0x131 SWAP2 SWAP1 PUSH2 0x9D8 JUMP JUMPDEST PUSH2 0x3B6 JUMP JUMPDEST STOP JUMPDEST PUSH2 0x152 PUSH1 0x4 DUP1 CALLDATASIZE SUB DUP2 ADD SWAP1 PUSH2 0x14D SWAP2 SWAP1 PUSH2 0xA03 JUMP JUMPDEST PUSH2 0x419 JUMP JUMPDEST PUSH1 0x40 MLOAD PUSH2 0x15F SWAP2 SWAP1 PUSH2 0x734 JUMP JUMPDEST PUSH1 0x40 MLOAD DUP1 SWAP2 SUB SWAP1 RETURN JUMPDEST PUSH2 0x182 PUSH1 0x4 DUP1 CALLDATASIZE SUB DUP2 ADD SWAP1 PUSH2 0x17D SWAP2 SWAP1 PUSH2 0xA03 JUMP JUMPDEST PUSH2 0x438 JUMP JUMPDEST PUSH1 0x40 MLOAD PUSH2 0x18F SWAP2 SWAP1 PUSH2 0xA3D JUMP JUMPDEST PUSH1 0x40 MLOAD DUP1 SWAP2 SUB SWAP1 RETURN JUMPDEST PUSH2 0x1A0 PUSH2 0x473 JUMP JUMPDEST PUSH1 0x40 MLOAD PUSH2 0x1AD SWAP2 SWAP1 PUSH2 0x734 JUMP JUMPDEST PUSH1 0x40 MLOAD DUP1 SWAP2 SUB SWAP1 RETURN JUMPDEST PUSH2 0x1D0 PUSH1 0x4 DUP1 CALLDATASIZE SUB DUP2 ADD SWAP1 PUSH2 0x1CB SWAP2 SWAP1 PUSH2 0xA03 JUMP JUMPDEST PUSH2 0x47E JUMP JUMPDEST STOP JUMPDEST PUSH0 DUP2 MLOAD SWAP1 POP SWAP2 SWAP1 POP JUMP JUMPDEST PUSH1 0x60 PUSH0 PUSH1 0x1 DUP5 MLOAD PUSH2 0x1ED SWAP2 SWAP1 PUSH2 0xA83 JUMP JUMPDEST PUSH8 0xFFFFFFFFFFFFFFFF DUP2 GT ISZERO PUSH2 0x206 JUMPI PUSH2 0x205 PUSH2 0x4CB JUMP JUMPDEST JUMPDEST PUSH1 0x40 MLOAD SWAP1 DUP1 DUP3 MSTORE DUP1 PUSH1 0x20 MUL PUSH1 0x20 ADD DUP3 ADD PUSH1 0x40 MSTORE DUP1 ISZERO PUSH2 0x239 JUMPI DUP2 PUSH1 0x20 ADD JUMPDEST PUSH1 0x60 DUP2 MSTORE PUSH1 0x20 ADD SWAP1 PUSH1 0x1 SWAP1 SUB SWAP1 DUP2 PUSH2 0x224 JUMPI SWAP1 POP JUMPDEST POP SWAP1 POP PUSH0 JUMPDEST DUP4 DUP2 LT ISZERO PUSH2 0x28C JUMPI DUP5 DUP2 DUP2 MLOAD DUP2 LT PUSH2 0x259 JUMPI PUSH2 0x258 PUSH2 0xAB6 JUMP JUMPDEST JUMPDEST PUSH1 0x20 MUL PUSH1 0x20 ADD ADD MLOAD DUP3 DUP3 DUP2 MLOAD DUP2 LT PUSH2 0x274 JUMPI PUSH2 0x273 PUSH2 0xAB6 JUMP JUMPDEST JUMPDEST PUSH1 0x20 MUL PUSH1 0x20 ADD ADD DUP2 SWAP1 MSTORE POP DUP1 DUP1 PUSH1 0x1 ADD SWAP2 POP POP PUSH2 0x23E JUMP JUMPDEST POP PUSH0 PUSH1 0x1 DUP5 PUSH2 0x29B SWAP2 SWAP1 PUSH2 0xAE3 JUMP JUMPDEST SWAP1 POP JUMPDEST DUP5 MLOAD DUP2 LT ISZERO PUSH2 0x2F9 JUMPI DUP5 DUP2 DUP2 MLOAD DUP2 LT PUSH2 0x2BA JUMPI PUSH2 0x2B9 PUSH2 0xAB6 JUMP JUMPDEST JUMPDEST PUSH1 0x20 MUL PUSH1 0x20 ADD ADD MLOAD DUP3 PUSH1 0x1 DUP4 PUSH2 0x2D0 SWAP2 SWAP1 PUSH2 0xA83 JUMP JUMPDEST DUP2 MLOAD DUP2 LT PUSH2 0x2E1 JUMPI PUSH2 0x2E0 PUSH2 0xAB6 JUMP JUMPDEST JUMPDEST PUSH1 0x20 MUL PUSH1 0x20 ADD ADD DUP2 SWAP1 MSTORE POP DUP1 DUP1 PUSH1 0x1 ADD SWAP2 POP POP PUSH2 0x29E JUMP JUMPDEST POP DUP1 SWAP2 POP POP SWAP3 SWAP2 POP POP JUMP JUMPDEST PUSH0 DUP1 SLOAD DUP1 PUSH2 0x315 JUMPI PUSH2 0x314 PUSH2 0xB16 JUMP JUMPDEST JUMPDEST PUSH1 0x1 SWAP1 SUB DUP2 DUP2 SWAP1 PUSH0 MSTORE PUSH1 0x20 PUSH0 KECCAK256 ADD PUSH0 SWAP1 SSTORE SWAP1 SSTORE JUMP JUMPDEST PUSH1 0x2 DUP1 SLOAD PUSH2 0x337 SWAP1 PUSH2 0xB70 JUMP JUMPDEST DUP1 PUSH1 0x1F ADD PUSH1 0x20 DUP1 SWAP2 DIV MUL PUSH1 0x20 ADD PUSH1 0x40 MLOAD SWAP1 DUP2 ADD PUSH1 0x40 MSTORE DUP1 SWAP3 SWAP2 SWAP1 DUP2 DUP2 MSTORE PUSH1 0x20 ADD DUP3 DUP1 SLOAD PUSH2 0x363 SWAP1 PUSH2 0xB70 JUMP JUMPDEST DUP1 ISZERO PUSH2 0x3AE JUMPI DUP1 PUSH1 0x1F LT PUSH2 0x385 JUMPI PUSH2 0x100 DUP1 DUP4 SLOAD DIV MUL DUP4 MSTORE SWAP2 PUSH1 0x20 ADD SWAP2 PUSH2 0x3AE JUMP JUMPDEST DUP3 ADD SWAP2 SWAP1 PUSH0 MSTORE PUSH1 0x20 PUSH0 KECCAK256 SWAP1 JUMPDEST DUP2 SLOAD DUP2 MSTORE SWAP1 PUSH1 0x1 ADD SWAP1 PUSH1 0x20 ADD DUP1 DUP4 GT PUSH2 0x391 JUMPI DUP3 SWAP1 SUB PUSH1 0x1F AND DUP3 ADD SWAP2 JUMPDEST POP POP POP POP POP DUP2 JUMP JUMPDEST PUSH1 0x1 DUP2 SWAP1 DUP1 PUSH1 0x1 DUP2 SLOAD ADD DUP1 DUP3 SSTORE DUP1 SWAP2 POP POP PUSH1 0x1 SWAP1 SUB SWAP1 PUSH0 MSTORE PUSH1 0x20 PUSH0 KECCAK256 ADD PUSH0 SWAP1 SWAP2 SWAP1 SWAP2 SWAP1 SWAP2 PUSH2 0x100 EXP DUP2 SLOAD DUP2 PUSH20 0xFFFFFFFFFFFFFFFFFFFFFFFFFFFFFFFFFFFFFFFF MUL NOT AND SWAP1 DUP4 PUSH20 0xFFFFFFFFFFFFFFFFFFFFFFFFFFFFFFFFFFFFFFFF AND MUL OR SWAP1 SSTORE POP POP JUMP JUMPDEST PUSH0 DUP2 DUP2 SLOAD DUP2 LT PUSH2 0x427 JUMPI PUSH0 DUP1 REVERT JUMPDEST SWAP1 PUSH0 MSTORE PUSH1 0x20 PUSH0 KECCAK256 ADD PUSH0 SWAP2 POP SWAP1 POP SLOAD DUP2 JUMP JUMPDEST PUSH1 0x1 DUP2 DUP2 SLOAD DUP2 LT PUSH2 0x447 JUMPI PUSH0 DUP1 REVERT JUMPDEST SWAP1 PUSH0 MSTORE PUSH1 0x20 PUSH0 KECCAK256 ADD PUSH0 SWAP2 POP SLOAD SWAP1 PUSH2 0x100 EXP SWAP1 DIV PUSH20 0xFFFFFFFFFFFFFFFFFFFFFFFFFFFFFFFFFFFFFFFF AND DUP2 JUMP JUMPDEST PUSH0 DUP1 DUP1 SLOAD SWAP1 POP SWAP1 POP SWAP1 JUMP JUMPDEST PUSH0 DUP2 SWAP1 DUP1 PUSH1 0x1 DUP2 SLOAD ADD DUP1 DUP3 SSTORE DUP1 SWAP2 POP POP PUSH1 0x1 SWAP1 SUB SWAP1 PUSH0 MSTORE PUSH1 0x20 PUSH0 KECCAK256 ADD PUSH0 SWAP1 SWAP2 SWAP1 SWAP2 SWAP1 SWAP2 POP SSTORE POP JUMP JUMPDEST PUSH0 PUSH1 0x40 MLOAD SWAP1 POP SWAP1 JUMP JUMPDEST PUSH0 DUP1 REVERT JUMPDEST PUSH0 DUP1 REVERT JUMPDEST PUSH0 DUP1 REVERT JUMPDEST PUSH0 PUSH1 0x1F NOT PUSH1 0x1F DUP4 ADD AND SWAP1 POP SWAP2 SWAP1 POP JUMP JUMPDEST PUSH32 0x4E487B7100000000000000000000000000000000000000000000000000000000 PUSH0 MSTORE PUSH1 0x41 PUSH1 0x4 MSTORE PUSH1 0x24 PUSH0 REVERT JUMPDEST PUSH2 0x501 DUP3 PUSH2 0x4BB JUMP JUMPDEST DUP2 ADD DUP2 DUP2 LT PUSH8 0xFFFFFFFFFFFFFFFF DUP3 GT OR ISZERO PUSH2 0x520 JUMPI PUSH2 0x51F PUSH2 0x4CB JUMP JUMPDEST JUMPDEST DUP1 PUSH1 0x40 MSTORE POP POP POP JUMP JUMPDEST PUSH0 PUSH2 0x532 PUSH2 0x4A6 JUMP JUMPDEST SWAP1 POP PUSH2 0x53E DUP3 DUP3 PUSH2 0x4F8 JUMP JUMPDEST SWAP2 SWAP1 POP JUMP JUMPDEST PUSH0 PUSH8 0xFFFFFFFFFFFFFFFF DUP3 GT ISZERO PUSH2 0x55D JUMPI PUSH2 0x55C PUSH2 0x4CB JUMP JUMPDEST JUMPDEST PUSH1 0x20 DUP3 MUL SWAP1 POP PUSH1 0x20 DUP2 ADD SWAP1 POP SWAP2 SWAP1 POP JUMP JUMPDEST PUSH0 DUP1 REVERT JUMPDEST PUSH0 DUP1 REVERT JUMPDEST PUSH0 PUSH8 0xFFFFFFFFFFFFFFFF DUP3 GT ISZERO PUSH2 0x590 JUMPI PUSH2 0x58F PUSH2 0x4CB JUMP JUMPDEST JUMPDEST PUSH2 0x599 DUP3 PUSH2 0x4BB JUMP JUMPDEST SWAP1 POP PUSH1 0x20 DUP2 ADD SWAP1 POP SWAP2 SWAP1 POP JUMP JUMPDEST DUP3 DUP2 DUP4 CALLDATACOPY PUSH0 DUP4 DUP4 ADD MSTORE POP POP POP JUMP JUMPDEST PUSH0 PUSH2 0x5C6 PUSH2 0x5C1 DUP5 PUSH2 0x576 JUMP JUMPDEST PUSH2 0x529 JUMP JUMPDEST SWAP1 POP DUP3 DUP2 MSTORE PUSH1 0x20 DUP2 ADD DUP5 DUP5 DUP5 ADD GT ISZERO PUSH2 0x5E2 JUMPI PUSH2 0x5E1 PUSH2 0x572 JUMP JUMPDEST JUMPDEST PUSH2 0x5ED DUP5 DUP3 DUP6 PUSH2 0x5A6 JUMP JUMPDEST POP SWAP4 SWAP3 POP POP POP JUMP JUMPDEST PUSH0 DUP3 PUSH1 0x1F DUP4 ADD SLT PUSH2 0x609 JUMPI PUSH2 0x608 PUSH2 0x4B7 JUMP JUMPDEST JUMPDEST DUP2 CALLDATALOAD PUSH2 0x619 DUP5 DUP3 PUSH1 0x20 DUP7 ADD PUSH2 0x5B4 JUMP JUMPDEST SWAP2 POP POP SWAP3 SWAP2 POP POP JUMP JUMPDEST PUSH0 PUSH2 0x634 PUSH2 0x62F DUP5 PUSH2 0x543 JUMP JUMPDEST PUSH2 0x529 JUMP JUMPDEST SWAP1 POP DUP1 DUP4 DUP3 MSTORE PUSH1 0x20 DUP3 ADD SWAP1 POP PUSH1 0x20 DUP5 MUL DUP4 ADD DUP6 DUP2 GT ISZERO PUSH2 0x657 JUMPI PUSH2 0x656 PUSH2 0x56E JUMP JUMPDEST JUMPDEST DUP4 JUMPDEST DUP2 DUP2 LT ISZERO PUSH2 0x69E JUMPI DUP1 CALLDATALOAD PUSH8 0xFFFFFFFFFFFFFFFF DUP2 GT ISZERO PUSH2 0x67C JUMPI PUSH2 0x67B PUSH2 0x4B7 JUMP JUMPDEST JUMPDEST DUP1 DUP7 ADD PUSH2 0x689 DUP10 DUP3 PUSH2 0x5F5 JUMP JUMPDEST DUP6 MSTORE PUSH1 0x20 DUP6 ADD SWAP5 POP POP POP PUSH1 0x20 DUP2 ADD SWAP1 POP PUSH2 0x659 JUMP JUMPDEST POP POP POP SWAP4 SWAP3 POP POP POP JUMP JUMPDEST PUSH0 DUP3 PUSH1 0x1F DUP4 ADD SLT PUSH2 0x6BC JUMPI PUSH2 0x6BB PUSH2 0x4B7 JUMP JUMPDEST JUMPDEST DUP2 CALLDATALOAD PUSH2 0x6CC DUP5 DUP3 PUSH1 0x20 DUP7 ADD PUSH2 0x622 JUMP JUMPDEST SWAP2 POP POP SWAP3 SWAP2 POP POP JUMP JUMPDEST PUSH0 PUSH1 0x20 DUP3 DUP5 SUB SLT ISZERO PUSH2 0x6EA JUMPI PUSH2 0x6E9 PUSH2 0x4AF JUMP JUMPDEST JUMPDEST PUSH0 DUP3 ADD CALLDATALOAD PUSH8 0xFFFFFFFFFFFFFFFF DUP2 GT ISZERO PUSH2 0x707 JUMPI PUSH2 0x706 PUSH2 0x4B3 JUMP JUMPDEST JUMPDEST PUSH2 0x713 DUP5 DUP3 DUP6 ADD PUSH2 0x6A8 JUMP JUMPDEST SWAP2 POP POP SWAP3 SWAP2 POP POP JUMP JUMPDEST PUSH0 DUP2 SWAP1 POP SWAP2 SWAP1 POP JUMP JUMPDEST PUSH2 0x72E DUP2 PUSH2 0x71C JUMP JUMPDEST DUP3 MSTORE POP POP JUMP JUMPDEST PUSH0 PUSH1 0x20 DUP3 ADD SWAP1 POP PUSH2 0x747 PUSH0 DUP4 ADD DUP5 PUSH2 0x725 JUMP JUMPDEST SWAP3 SWAP2 POP POP JUMP JUMPDEST PUSH2 0x756 DUP2 PUSH2 0x71C JUMP JUMPDEST DUP2 EQ PUSH2 0x760 JUMPI PUSH0 DUP1 REVERT JUMPDEST POP JUMP JUMPDEST PUSH0 DUP2 CALLDATALOAD SWAP1 POP PUSH2 0x771 DUP2 PUSH2 0x74D JUMP JUMPDEST SWAP3 SWAP2 POP POP JUMP JUMPDEST PUSH0 DUP1 PUSH1 0x40 DUP4 DUP6 SUB SLT ISZERO PUSH2 0x78D JUMPI PUSH2 0x78C PUSH2 0x4AF JUMP JUMPDEST JUMPDEST PUSH0 DUP4 ADD CALLDATALOAD PUSH8 0xFFFFFFFFFFFFFFFF DUP2 GT ISZERO PUSH2 0x7AA JUMPI PUSH2 0x7A9 PUSH2 0x4B3 JUMP JUMPDEST JUMPDEST PUSH2 0x7B6 DUP6 DUP3 DUP7 ADD PUSH2 0x6A8 JUMP JUMPDEST SWAP3 POP POP PUSH1 0x20 PUSH2 0x7C7 DUP6 DUP3 DUP7 ADD PUSH2 0x763 JUMP JUMPDEST SWAP2 POP POP SWAP3 POP SWAP3 SWAP1 POP JUMP JUMPDEST PUSH0 DUP2 MLOAD SWAP1 POP SWAP2 SWAP1 POP JUMP JUMPDEST PUSH0 DUP3 DUP3 MSTORE PUSH1 0x20 DUP3 ADD SWAP1 POP SWAP3 SWAP2 POP POP JUMP JUMPDEST PUSH0 DUP2 SWAP1 POP PUSH1 0x20 DUP3 ADD SWAP1 POP SWAP2 SWAP1 POP JUMP JUMPDEST PUSH0 DUP2 MLOAD SWAP1 POP SWAP2 SWAP1 POP JUMP JUMPDEST PUSH0 DUP3 DUP3 MSTORE PUSH1 0x20 DUP3 ADD SWAP1 POP SWAP3 SWAP2 POP POP JUMP JUMPDEST DUP3 DUP2 DUP4 MCOPY PUSH0 DUP4 DUP4 ADD MSTORE POP POP POP JUMP JUMPDEST PUSH0 PUSH2 0x82C DUP3 PUSH2 0x7FA JUMP JUMPDEST PUSH2 0x836 DUP2 DUP6 PUSH2 0x804 JUMP JUMPDEST SWAP4 POP PUSH2 0x846 DUP2 DUP6 PUSH1 0x20 DUP7 ADD PUSH2 0x814 JUMP JUMPDEST PUSH2 0x84F DUP2 PUSH2 0x4BB JUMP JUMPDEST DUP5 ADD SWAP2 POP POP SWAP3 SWAP2 POP POP JUMP JUMPDEST PUSH0 PUSH2 0x865 DUP4 DUP4 PUSH2 0x822 JUMP JUMPDEST SWAP1 POP SWAP3 SWAP2 POP POP JUMP JUMPDEST PUSH0 PUSH1 0x20 DUP3 ADD SWAP1 POP SWAP2 SWAP1 POP JUMP JUMPDEST PUSH0 PUSH2 0x883 DUP3 PUSH2 0x7D1 JUMP JUMPDEST PUSH2 0x88D DUP2 DUP6 PUSH2 0x7DB JUMP JUMPDEST SWAP4 POP DUP4 PUSH1 0x20 DUP3 MUL DUP6 ADD PUSH2 0x89F DUP6 PUSH2 0x7EB JUMP JUMPDEST DUP1 PUSH0 JUMPDEST DUP6 DUP2 LT ISZERO PUSH2 0x8DA JUMPI DUP5 DUP5 SUB DUP10 MSTORE DUP2 MLOAD PUSH2 0x8BB DUP6 DUP3 PUSH2 0x85A JUMP JUMPDEST SWAP5 POP PUSH2 0x8C6 DUP4 PUSH2 0x86D JUMP JUMPDEST SWAP3 POP PUSH1 0x20 DUP11 ADD SWAP10 POP POP PUSH1 0x1 DUP2 ADD SWAP1 POP PUSH2 0x8A2 JUMP JUMPDEST POP DUP3 SWAP8 POP DUP8 SWAP6 POP POP POP POP POP POP SWAP3 SWAP2 POP POP JUMP JUMPDEST PUSH0 PUSH1 0x20 DUP3 ADD SWAP1 POP DUP2 DUP2 SUB PUSH0 DUP4 ADD MSTORE PUSH2 0x904 DUP2 DUP5 PUSH2 0x879 JUMP JUMPDEST SWAP1 POP SWAP3 SWAP2 POP POP JUMP JUMPDEST PUSH0 DUP2 MLOAD SWAP1 POP SWAP2 SWAP1 POP JUMP JUMPDEST PUSH0 DUP3 DUP3 MSTORE PUSH1 0x20 DUP3 ADD SWAP1 POP SWAP3 SWAP2 POP POP JUMP JUMPDEST PUSH0 PUSH2 0x930 DUP3 PUSH2 0x90C JUMP JUMPDEST PUSH2 0x93A DUP2 DUP6 PUSH2 0x916 JUMP JUMPDEST SWAP4 POP PUSH2 0x94A DUP2 DUP6 PUSH1 0x20 DUP7 ADD PUSH2 0x814 JUMP JUMPDEST PUSH2 0x953 DUP2 PUSH2 0x4BB JUMP JUMPDEST DUP5 ADD SWAP2 POP POP SWAP3 SWAP2 POP POP JUMP JUMPDEST PUSH0 PUSH1 0x20 DUP3 ADD SWAP1 POP DUP2 DUP2 SUB PUSH0 DUP4 ADD MSTORE PUSH2 0x976 DUP2 DUP5 PUSH2 0x926 JUMP JUMPDEST SWAP1 POP SWAP3 SWAP2 POP POP JUMP JUMPDEST PUSH0 PUSH20 0xFFFFFFFFFFFFFFFFFFFFFFFFFFFFFFFFFFFFFFFF DUP3 AND SWAP1 POP SWAP2 SWAP1 POP JUMP JUMPDEST PUSH0 PUSH2 0x9A7 DUP3 PUSH2 0x97E JUMP JUMPDEST SWAP1 POP SWAP2 SWAP1 POP JUMP JUMPDEST PUSH2 0x9B7 DUP2 PUSH2 0x99D JUMP JUMPDEST DUP2 EQ PUSH2 0x9C1 JUMPI PUSH0 DUP1 REVERT JUMPDEST POP JUMP JUMPDEST PUSH0 DUP2 CALLDATALOAD SWAP1 POP PUSH2 0x9D2 DUP2 PUSH2 0x9AE JUMP JUMPDEST SWAP3 SWAP2 POP POP JUMP JUMPDEST PUSH0 PUSH1 0x20 DUP3 DUP5 SUB SLT ISZERO PUSH2 0x9ED JUMPI PUSH2 0x9EC PUSH2 0x4AF JUMP JUMPDEST JUMPDEST PUSH0 PUSH2 0x9FA DUP5 DUP3 DUP6 ADD PUSH2 0x9C4 JUMP JUMPDEST SWAP2 POP POP SWAP3 SWAP2 POP POP JUMP JUMPDEST PUSH0 PUSH1 0x20 DUP3 DUP5 SUB SLT ISZERO PUSH2 0xA18 JUMPI PUSH2 0xA17 PUSH2 0x4AF JUMP JUMPDEST JUMPDEST PUSH0 PUSH2 0xA25 DUP5 DUP3 DUP6 ADD PUSH2 0x763 JUMP JUMPDEST SWAP2 POP POP SWAP3 SWAP2 POP POP JUMP JUMPDEST PUSH2 0xA37 DUP2 PUSH2 0x99D JUMP JUMPDEST DUP3 MSTORE POP POP JUMP JUMPDEST PUSH0 PUSH1 0x20 DUP3 ADD SWAP1 POP PUSH2 0xA50 PUSH0 DUP4 ADD DUP5 PUSH2 0xA2E JUMP JUMPDEST SWAP3 SWAP2 POP POP JUMP JUMPDEST PUSH32 0x4E487B7100000000000000000000000000000000000000000000000000000000 PUSH0 MSTORE PUSH1 0x11 PUSH1 0x4 MSTORE PUSH1 0x24 PUSH0 REVERT JUMPDEST PUSH0 PUSH2 0xA8D DUP3 PUSH2 0x71C JUMP JUMPDEST SWAP2 POP PUSH2 0xA98 DUP4 PUSH2 0x71C JUMP JUMPDEST SWAP3 POP DUP3 DUP3 SUB SWAP1 POP DUP2 DUP2 GT ISZERO PUSH2 0xAB0 JUMPI PUSH2 0xAAF PUSH2 0xA56 JUMP JUMPDEST JUMPDEST SWAP3 SWAP2 POP POP JUMP JUMPDEST PUSH32 0x4E487B7100000000000000000000000000000000000000000000000000000000 PUSH0 MSTORE PUSH1 0x32 PUSH1 0x4 MSTORE PUSH1 0x24 PUSH0 REVERT JUMPDEST PUSH0 PUSH2 0xAED DUP3 PUSH2 0x71C JUMP JUMPDEST SWAP2 POP PUSH2 0xAF8 DUP4 PUSH2 0x71C JUMP JUMPDEST SWAP3 POP DUP3 DUP3 ADD SWAP1 POP DUP1 DUP3 GT ISZERO PUSH2 0xB10 JUMPI PUSH2 0xB0F PUSH2 0xA56 JUMP JUMPDEST JUMPDEST SWAP3 SWAP2 POP POP JUMP JUMPDEST PUSH32 0x4E487B7100000000000000000000000000000000000000000000000000000000 PUSH0 MSTORE PUSH1 0x31 PUSH1 0x4 MSTORE PUSH1 0x24 PUSH0 REVERT JUMPDEST PUSH32 0x4E487B7100000000000000000000000000000000000000000000000000000000 PUSH0 MSTORE PUSH1 0x22 PUSH1 0x4 MSTORE PUSH1 0x24 PUSH0 REVERT JUMPDEST PUSH0 PUSH1 0x2 DUP3 DIV SWAP1 POP PUSH1 0x1 DUP3 AND DUP1 PUSH2 0xB87 JUMPI PUSH1 0x7F DUP3 AND SWAP2 POP JUMPDEST PUSH1 0x20 DUP3 LT DUP2 SUB PUSH2 0xB9A JUMPI PUSH2 0xB99 PUSH2 0xB43 JUMP JUMPDEST JUMPDEST POP SWAP2 SWAP1 POP JUMP INVALID LOG2 PUSH5 0x6970667358 0x22 SLT KECCAK256 0xEE 0xF6 ADDMOD PUSH7 0x98CCEA3DB64122 DUP12 SWAP9 SWAP1 SWAP16 0x2F 0x4D 0xD7 PUSH14 0x2EACD2154301802C7EAE38D91C64 PUSH20 0x6F6C634300081A00330000000000000000000000 "
				},
				"gasEstimates": {
					"creation": {
						"codeDepositCost": "606000",
						"executionCost": "infinite",
						"totalCost": "infinite"
					},
					"external": {
						"addArr(address)": "49025",
						"addArray(uint256)": "4988",
						"addElement(uint256)": "46908",
						"arrDel(string[],uint256)": "infinite",
						"arrLen(string[])": "infinite",
						"byteData()": "infinite",
						"dynamicArray(uint256)": "infinite",
						"getLength()": "2506",
						"removeLastElement()": "29485"
					}
				},
				"methodIdentifiers": {
					"addArr(address)": "767751eb",
					"addArray(uint256)": "aa0a9171",
					"addElement(uint256)": "f5d9612d",
					"arrDel(string[],uint256)": "10b0096b",
					"arrLen(string[])": "0048adce",
					"byteData()": "41a203da",
					"dynamicArray(uint256)": "9a9bdca7",
					"getLength()": "be1c766b",
					"removeLastElement()": "2bd63afc"
				}
			},
			"storageLayout": {
				"storage": [
					{
						"astId": 118,
						"contract": "contracts/Array.sol:DataArray",
						"label": "dynamicArray",
						"offset": 0,
						"slot": "0",
						"type": "t_array(t_uint256)dyn_storage"
					},
					{
						"astId": 151,
						"contract": "contracts/Array.sol:DataArray",
						"label": "addArray",
						"offset": 0,
						"slot": "1",
						"type": "t_array(t_address)dyn_storage"
					},
					{
						"astId": 254,
						"contract": "contracts/Array.sol:DataArray",
						"label": "byteData",
						"offset": 0,
						"slot": "2",
						"type": "t_bytes_storage"
					}
				],
				"types": {
					"t_address": {
						"encoding": "inplace",
						"label": "address",
						"numberOfBytes": "20"
					},
					"t_array(t_address)dyn_storage": {
						"base": "t_address",
						"encoding": "dynamic_array",
						"label": "address[]",
						"numberOfBytes": "32"
					},
					"t_array(t_uint256)dyn_storage": {
						"base": "t_uint256",
						"encoding": "dynamic_array",
						"label": "uint256[]",
						"numberOfBytes": "32"
					},
					"t_bytes_storage": {
						"encoding": "bytes",
						"label": "bytes",
						"numberOfBytes": "32"
					},
					"t_uint256": {
						"encoding": "inplace",
						"label": "uint256",
						"numberOfBytes": "32"
					}
				}
			},
			"userdoc": {
				"kind": "user",
				"methods": {},
				"version": 1
			}
		}
	}
}