{
	"contracts/ValueInt.sol": {
		"ValueIntOverFlow": {
			"abi": [
				{
					"inputs": [],
					"name": "add1",
					"outputs": [
						{
							"internalType": "uint8",
							"name": "",
							"type": "uint8"
						}
					],
					"stateMutability": "pure",
					"type": "function"
				},
				{
					"inputs": [],
					"name": "add2",
					"outputs": [
						{
							"internalType": "uint8",
							"name": "",
							"type": "uint8"
						}
					],
					"stateMutability": "pure",
					"type": "function"
				},
				{
					"inputs": [],
					"name": "sub1",
					"outputs": [
						{
							"internalType": "uint8",
							"name": "",
							"type": "uint8"
						}
					],
					"stateMutability": "pure",
					"type": "function"
				}
			],
			"devdoc": {
				"kind": "dev",
				"methods": {},
				"version": 1
			},
			"evm": {
				"assembly": "    /* \"contracts/ValueInt.sol\":58:1652  contract  ValueIntOverFlow {... */\n  mstore(0x40, 0x80)\n  callvalue\n  dup1\n  iszero\n  tag_1\n  jumpi\n  0x00\n  dup1\n  revert\ntag_1:\n  pop\n  dataSize(sub_0)\n  dup1\n  dataOffset(sub_0)\n  0x00\n  codecopy\n  0x00\n  return\nstop\n\nsub_0: assembly {\n        /* \"contracts/ValueInt.sol\":58:1652  contract  ValueIntOverFlow {... */\n      mstore(0x40, 0x80)\n      callvalue\n      dup1\n      iszero\n      tag_1\n      jumpi\n      0x00\n      dup1\n      revert\n    tag_1:\n      pop\n      jumpi(tag_2, lt(calldatasize, 0x04))\n      shr(0xe0, calldataload(0x00))\n      dup1\n      0x35921a\n      eq\n      tag_3\n      jumpi\n      dup1\n      0x6c1f222f\n      eq\n      tag_4\n      jumpi\n      dup1\n      0x72a099b7\n      eq\n      tag_5\n      jumpi\n    tag_2:\n      0x00\n      dup1\n      revert\n        /* \"contracts/ValueInt.sol\":365:486  function add1() public pure returns (uint8) { ... */\n    tag_3:\n      tag_6\n      tag_7\n      jump\t// in\n    tag_6:\n      mload(0x40)\n      tag_8\n      swap2\n      swap1\n      tag_9\n      jump\t// in\n    tag_8:\n      mload(0x40)\n      dup1\n      swap2\n      sub\n      swap1\n      return\n        /* \"contracts/ValueInt.sol\":492:635  function add2() public pure returns (uint8) { ... */\n    tag_4:\n      tag_10\n      tag_11\n      jump\t// in\n    tag_10:\n      mload(0x40)\n      tag_12\n      swap2\n      swap1\n      tag_9\n      jump\t// in\n    tag_12:\n      mload(0x40)\n      dup1\n      swap2\n      sub\n      swap1\n      return\n        /* \"contracts/ValueInt.sol\":641:760  function sub1() public pure returns (uint8) { ... */\n    tag_5:\n      tag_13\n      tag_14\n      jump\t// in\n    tag_13:\n      mload(0x40)\n      tag_15\n      swap2\n      swap1\n      tag_9\n      jump\t// in\n    tag_15:\n      mload(0x40)\n      dup1\n      swap2\n      sub\n      swap1\n      return\n        /* \"contracts/ValueInt.sol\":365:486  function add1() public pure returns (uint8) { ... */\n    tag_7:\n        /* \"contracts/ValueInt.sol\":402:407  uint8 */\n      0x00\n        /* \"contracts/ValueInt.sol\":420:427  uint8 x */\n      dup1\n        /* \"contracts/ValueInt.sol\":430:433  128 */\n      0x80\n        /* \"contracts/ValueInt.sol\":420:433  uint8 x = 128 */\n      swap1\n      pop\n        /* \"contracts/ValueInt.sol\":444:451  uint8 y */\n      0x00\n        /* \"contracts/ValueInt.sol\":458:459  2 */\n      0x02\n        /* \"contracts/ValueInt.sol\":454:455  x */\n      dup3\n        /* \"contracts/ValueInt.sol\":454:459  x * 2 */\n      tag_17\n      swap2\n      swap1\n      tag_18\n      jump\t// in\n    tag_17:\n        /* \"contracts/ValueInt.sol\":444:459  uint8 y = x * 2 */\n      swap1\n      pop\n        /* \"contracts/ValueInt.sol\":477:478  y */\n      dup1\n        /* \"contracts/ValueInt.sol\":470:478  return y */\n      swap3\n      pop\n      pop\n      pop\n        /* \"contracts/ValueInt.sol\":365:486  function add1() public pure returns (uint8) { ... */\n      swap1\n      jump\t// out\n        /* \"contracts/ValueInt.sol\":492:635  function add2() public pure returns (uint8) { ... */\n    tag_11:\n        /* \"contracts/ValueInt.sol\":529:534  uint8 */\n      0x00\n        /* \"contracts/ValueInt.sol\":547:554  uint8 i */\n      dup1\n        /* \"contracts/ValueInt.sol\":557:560  240 */\n      0xf0\n        /* \"contracts/ValueInt.sol\":547:560  uint8 i = 240 */\n      swap1\n      pop\n        /* \"contracts/ValueInt.sol\":571:578  uint8 j */\n      0x00\n        /* \"contracts/ValueInt.sol\":581:583  16 */\n      0x10\n        /* \"contracts/ValueInt.sol\":571:583  uint8 j = 16 */\n      swap1\n      pop\n        /* \"contracts/ValueInt.sol\":594:601  uint8 k */\n      0x00\n        /* \"contracts/ValueInt.sol\":608:609  j */\n      dup2\n        /* \"contracts/ValueInt.sol\":604:605  i */\n      dup4\n        /* \"contracts/ValueInt.sol\":604:609  i + j */\n      tag_20\n      swap2\n      swap1\n      tag_21\n      jump\t// in\n    tag_20:\n        /* \"contracts/ValueInt.sol\":594:609  uint8 k = i + j */\n      swap1\n      pop\n        /* \"contracts/ValueInt.sol\":627:628  k */\n      dup1\n        /* \"contracts/ValueInt.sol\":620:628  return k */\n      swap4\n      pop\n      pop\n      pop\n      pop\n        /* \"contracts/ValueInt.sol\":492:635  function add2() public pure returns (uint8) { ... */\n      swap1\n      jump\t// out\n        /* \"contracts/ValueInt.sol\":641:760  function sub1() public pure returns (uint8) { ... */\n    tag_14:\n        /* \"contracts/ValueInt.sol\":678:683  uint8 */\n      0x00\n        /* \"contracts/ValueInt.sol\":696:703  uint8 m */\n      dup1\n        /* \"contracts/ValueInt.sol\":706:707  1 */\n      0x01\n        /* \"contracts/ValueInt.sol\":696:707  uint8 m = 1 */\n      swap1\n      pop\n        /* \"contracts/ValueInt.sol\":718:725  uint8 n */\n      0x00\n        /* \"contracts/ValueInt.sol\":732:733  2 */\n      0x02\n        /* \"contracts/ValueInt.sol\":728:729  m */\n      dup3\n        /* \"contracts/ValueInt.sol\":728:733  m - 2 */\n      tag_23\n      swap2\n      swap1\n      tag_24\n      jump\t// in\n    tag_23:\n        /* \"contracts/ValueInt.sol\":718:733  uint8 n = m - 2 */\n      swap1\n      pop\n        /* \"contracts/ValueInt.sol\":751:752  n */\n      dup1\n        /* \"contracts/ValueInt.sol\":744:752  return n */\n      swap3\n      pop\n      pop\n      pop\n        /* \"contracts/ValueInt.sol\":641:760  function sub1() public pure returns (uint8) { ... */\n      swap1\n      jump\t// out\n        /* \"#utility.yul\":7:93   */\n    tag_25:\n        /* \"#utility.yul\":42:49   */\n      0x00\n        /* \"#utility.yul\":82:86   */\n      0xff\n        /* \"#utility.yul\":75:80   */\n      dup3\n        /* \"#utility.yul\":71:87   */\n      and\n        /* \"#utility.yul\":60:87   */\n      swap1\n      pop\n        /* \"#utility.yul\":7:93   */\n      swap2\n      swap1\n      pop\n      jump\t// out\n        /* \"#utility.yul\":99:211   */\n    tag_26:\n        /* \"#utility.yul\":182:204   */\n      tag_31\n        /* \"#utility.yul\":198:203   */\n      dup2\n        /* \"#utility.yul\":182:204   */\n      tag_25\n      jump\t// in\n    tag_31:\n        /* \"#utility.yul\":177:180   */\n      dup3\n        /* \"#utility.yul\":170:205   */\n      mstore\n        /* \"#utility.yul\":99:211   */\n      pop\n      pop\n      jump\t// out\n        /* \"#utility.yul\":217:431   */\n    tag_9:\n        /* \"#utility.yul\":306:310   */\n      0x00\n        /* \"#utility.yul\":344:346   */\n      0x20\n        /* \"#utility.yul\":333:342   */\n      dup3\n        /* \"#utility.yul\":329:347   */\n      add\n        /* \"#utility.yul\":321:347   */\n      swap1\n      pop\n        /* \"#utility.yul\":357:424   */\n      tag_33\n        /* \"#utility.yul\":421:422   */\n      0x00\n        /* \"#utility.yul\":410:419   */\n      dup4\n        /* \"#utility.yul\":406:423   */\n      add\n        /* \"#utility.yul\":397:403   */\n      dup5\n        /* \"#utility.yul\":357:424   */\n      tag_26\n      jump\t// in\n    tag_33:\n        /* \"#utility.yul\":217:431   */\n      swap3\n      swap2\n      pop\n      pop\n      jump\t// out\n        /* \"#utility.yul\":437:617   */\n    tag_27:\n        /* \"#utility.yul\":485:562   */\n      0x4e487b7100000000000000000000000000000000000000000000000000000000\n        /* \"#utility.yul\":482:483   */\n      0x00\n        /* \"#utility.yul\":475:563   */\n      mstore\n        /* \"#utility.yul\":582:586   */\n      0x11\n        /* \"#utility.yul\":579:580   */\n      0x04\n        /* \"#utility.yul\":572:587   */\n      mstore\n        /* \"#utility.yul\":606:610   */\n      0x24\n        /* \"#utility.yul\":603:604   */\n      0x00\n        /* \"#utility.yul\":596:611   */\n      revert\n        /* \"#utility.yul\":623:894   */\n    tag_18:\n        /* \"#utility.yul\":661:668   */\n      0x00\n        /* \"#utility.yul\":684:702   */\n      tag_36\n        /* \"#utility.yul\":700:701   */\n      dup3\n        /* \"#utility.yul\":684:702   */\n      tag_25\n      jump\t// in\n    tag_36:\n        /* \"#utility.yul\":679:702   */\n      swap2\n      pop\n        /* \"#utility.yul\":716:734   */\n      tag_37\n        /* \"#utility.yul\":732:733   */\n      dup4\n        /* \"#utility.yul\":716:734   */\n      tag_25\n      jump\t// in\n    tag_37:\n        /* \"#utility.yul\":711:734   */\n      swap3\n      pop\n        /* \"#utility.yul\":769:770   */\n      dup3\n        /* \"#utility.yul\":766:767   */\n      dup3\n        /* \"#utility.yul\":762:771   */\n      mul\n        /* \"#utility.yul\":791:819   */\n      tag_38\n        /* \"#utility.yul\":807:818   */\n      dup2\n        /* \"#utility.yul\":791:819   */\n      tag_25\n      jump\t// in\n    tag_38:\n        /* \"#utility.yul\":780:819   */\n      swap2\n      pop\n        /* \"#utility.yul\":851:862   */\n      dup1\n        /* \"#utility.yul\":842:849   */\n      dup3\n        /* \"#utility.yul\":839:863   */\n      eq\n        /* \"#utility.yul\":829:887   */\n      tag_39\n      jumpi\n        /* \"#utility.yul\":867:885   */\n      tag_40\n      tag_27\n      jump\t// in\n    tag_40:\n        /* \"#utility.yul\":829:887   */\n    tag_39:\n        /* \"#utility.yul\":669:894   */\n      pop\n        /* \"#utility.yul\":623:894   */\n      swap3\n      swap2\n      pop\n      pop\n      jump\t// out\n        /* \"#utility.yul\":900:1088   */\n    tag_21:\n        /* \"#utility.yul\":938:941   */\n      0x00\n        /* \"#utility.yul\":957:975   */\n      tag_42\n        /* \"#utility.yul\":973:974   */\n      dup3\n        /* \"#utility.yul\":957:975   */\n      tag_25\n      jump\t// in\n    tag_42:\n        /* \"#utility.yul\":952:975   */\n      swap2\n      pop\n        /* \"#utility.yul\":989:1007   */\n      tag_43\n        /* \"#utility.yul\":1005:1006   */\n      dup4\n        /* \"#utility.yul\":989:1007   */\n      tag_25\n      jump\t// in\n    tag_43:\n        /* \"#utility.yul\":984:1007   */\n      swap3\n      pop\n        /* \"#utility.yul\":1030:1031   */\n      dup3\n        /* \"#utility.yul\":1027:1028   */\n      dup3\n        /* \"#utility.yul\":1023:1032   */\n      add\n        /* \"#utility.yul\":1016:1032   */\n      swap1\n      pop\n        /* \"#utility.yul\":1053:1057   */\n      0xff\n        /* \"#utility.yul\":1048:1051   */\n      dup2\n        /* \"#utility.yul\":1045:1058   */\n      gt\n        /* \"#utility.yul\":1042:1081   */\n      iszero\n      tag_44\n      jumpi\n        /* \"#utility.yul\":1061:1079   */\n      tag_45\n      tag_27\n      jump\t// in\n    tag_45:\n        /* \"#utility.yul\":1042:1081   */\n    tag_44:\n        /* \"#utility.yul\":900:1088   */\n      swap3\n      swap2\n      pop\n      pop\n      jump\t// out\n        /* \"#utility.yul\":1094:1285   */\n    tag_24:\n        /* \"#utility.yul\":1132:1136   */\n      0x00\n        /* \"#utility.yul\":1152:1170   */\n      tag_47\n        /* \"#utility.yul\":1168:1169   */\n      dup3\n        /* \"#utility.yul\":1152:1170   */\n      tag_25\n      jump\t// in\n    tag_47:\n        /* \"#utility.yul\":1147:1170   */\n      swap2\n      pop\n        /* \"#utility.yul\":1184:1202   */\n      tag_48\n        /* \"#utility.yul\":1200:1201   */\n      dup4\n        /* \"#utility.yul\":1184:1202   */\n      tag_25\n      jump\t// in\n    tag_48:\n        /* \"#utility.yul\":1179:1202   */\n      swap3\n      pop\n        /* \"#utility.yul\":1226:1227   */\n      dup3\n        /* \"#utility.yul\":1223:1224   */\n      dup3\n        /* \"#utility.yul\":1219:1228   */\n      sub\n        /* \"#utility.yul\":1211:1228   */\n      swap1\n      pop\n        /* \"#utility.yul\":1250:1254   */\n      0xff\n        /* \"#utility.yul\":1244:1248   */\n      dup2\n        /* \"#utility.yul\":1241:1255   */\n      gt\n        /* \"#utility.yul\":1238:1278   */\n      iszero\n      tag_49\n      jumpi\n        /* \"#utility.yul\":1258:1276   */\n      tag_50\n      tag_27\n      jump\t// in\n    tag_50:\n        /* \"#utility.yul\":1238:1278   */\n    tag_49:\n        /* \"#utility.yul\":1094:1285   */\n      swap3\n      swap2\n      pop\n      pop\n      jump\t// out\n\n    auxdata: 0xa2646970667358221220900519e9a760531f79eaf9b7693d6c530aad40c6b32bc9eb17d59f0bd3a4797364736f6c634300081a0033\n}\n",
				"bytecode": {
					"linkReferences": {},
					"object": "6080604052348015600e575f80fd5b506102368061001c5f395ff3fe608060405234801561000f575f80fd5b506004361061003e575f3560e01c806235921a146100425780636c1f222f1461006057806372a099b71461007e575b5f80fd5b61004a61009c565b6040516100579190610116565b60405180910390f35b6100686100ba565b6040516100759190610116565b60405180910390f35b6100866100dd565b6040516100939190610116565b60405180910390f35b5f80608090505f6002826100b0919061015c565b9050809250505090565b5f8060f090505f601090505f81836100d29190610198565b905080935050505090565b5f80600190505f6002826100f191906101cc565b9050809250505090565b5f60ff82169050919050565b610110816100fb565b82525050565b5f6020820190506101295f830184610107565b92915050565b7f4e487b71000000000000000000000000000000000000000000000000000000005f52601160045260245ffd5b5f610166826100fb565b9150610171836100fb565b925082820261017f816100fb565b91508082146101915761019061012f565b5b5092915050565b5f6101a2826100fb565b91506101ad836100fb565b9250828201905060ff8111156101c6576101c561012f565b5b92915050565b5f6101d6826100fb565b91506101e1836100fb565b9250828203905060ff8111156101fa576101f961012f565b5b9291505056fea2646970667358221220900519e9a760531f79eaf9b7693d6c530aad40c6b32bc9eb17d59f0bd3a4797364736f6c634300081a0033",
					"opcodes": "PUSH1 0x80 PUSH1 0x40 MSTORE CALLVALUE DUP1 ISZERO PUSH1 0xE JUMPI PUSH0 DUP1 REVERT JUMPDEST POP PUSH2 0x236 DUP1 PUSH2 0x1C PUSH0 CODECOPY PUSH0 RETURN INVALID PUSH1 0x80 PUSH1 0x40 MSTORE CALLVALUE DUP1 ISZERO PUSH2 0xF JUMPI PUSH0 DUP1 REVERT JUMPDEST POP PUSH1 0x4 CALLDATASIZE LT PUSH2 0x3E JUMPI PUSH0 CALLDATALOAD PUSH1 0xE0 SHR DUP1 PUSH3 0x35921A EQ PUSH2 0x42 JUMPI DUP1 PUSH4 0x6C1F222F EQ PUSH2 0x60 JUMPI DUP1 PUSH4 0x72A099B7 EQ PUSH2 0x7E JUMPI JUMPDEST PUSH0 DUP1 REVERT JUMPDEST PUSH2 0x4A PUSH2 0x9C JUMP JUMPDEST PUSH1 0x40 MLOAD PUSH2 0x57 SWAP2 SWAP1 PUSH2 0x116 JUMP JUMPDEST PUSH1 0x40 MLOAD DUP1 SWAP2 SUB SWAP1 RETURN JUMPDEST PUSH2 0x68 PUSH2 0xBA JUMP JUMPDEST PUSH1 0x40 MLOAD PUSH2 0x75 SWAP2 SWAP1 PUSH2 0x116 JUMP JUMPDEST PUSH1 0x40 MLOAD DUP1 SWAP2 SUB SWAP1 RETURN JUMPDEST PUSH2 0x86 PUSH2 0xDD JUMP JUMPDEST PUSH1 0x40 MLOAD PUSH2 0x93 SWAP2 SWAP1 PUSH2 0x116 JUMP JUMPDEST PUSH1 0x40 MLOAD DUP1 SWAP2 SUB SWAP1 RETURN JUMPDEST PUSH0 DUP1 PUSH1 0x80 SWAP1 POP PUSH0 PUSH1 0x2 DUP3 PUSH2 0xB0 SWAP2 SWAP1 PUSH2 0x15C JUMP JUMPDEST SWAP1 POP DUP1 SWAP3 POP POP POP SWAP1 JUMP JUMPDEST PUSH0 DUP1 PUSH1 0xF0 SWAP1 POP PUSH0 PUSH1 0x10 SWAP1 POP PUSH0 DUP2 DUP4 PUSH2 0xD2 SWAP2 SWAP1 PUSH2 0x198 JUMP JUMPDEST SWAP1 POP DUP1 SWAP4 POP POP POP POP SWAP1 JUMP JUMPDEST PUSH0 DUP1 PUSH1 0x1 SWAP1 POP PUSH0 PUSH1 0x2 DUP3 PUSH2 0xF1 SWAP2 SWAP1 PUSH2 0x1CC JUMP JUMPDEST SWAP1 POP DUP1 SWAP3 POP POP POP SWAP1 JUMP JUMPDEST PUSH0 PUSH1 0xFF DUP3 AND SWAP1 POP SWAP2 SWAP1 POP JUMP JUMPDEST PUSH2 0x110 DUP2 PUSH2 0xFB JUMP JUMPDEST DUP3 MSTORE POP POP JUMP JUMPDEST PUSH0 PUSH1 0x20 DUP3 ADD SWAP1 POP PUSH2 0x129 PUSH0 DUP4 ADD DUP5 PUSH2 0x107 JUMP JUMPDEST SWAP3 SWAP2 POP POP JUMP JUMPDEST PUSH32 0x4E487B7100000000000000000000000000000000000000000000000000000000 PUSH0 MSTORE PUSH1 0x11 PUSH1 0x4 MSTORE PUSH1 0x24 PUSH0 REVERT JUMPDEST PUSH0 PUSH2 0x166 DUP3 PUSH2 0xFB JUMP JUMPDEST SWAP2 POP PUSH2 0x171 DUP4 PUSH2 0xFB JUMP JUMPDEST SWAP3 POP DUP3 DUP3 MUL PUSH2 0x17F DUP2 PUSH2 0xFB JUMP JUMPDEST SWAP2 POP DUP1 DUP3 EQ PUSH2 0x191 JUMPI PUSH2 0x190 PUSH2 0x12F JUMP JUMPDEST JUMPDEST POP SWAP3 SWAP2 POP POP JUMP JUMPDEST PUSH0 PUSH2 0x1A2 DUP3 PUSH2 0xFB JUMP JUMPDEST SWAP2 POP PUSH2 0x1AD DUP4 PUSH2 0xFB JUMP JUMPDEST SWAP3 POP DUP3 DUP3 ADD SWAP1 POP PUSH1 0xFF DUP2 GT ISZERO PUSH2 0x1C6 JUMPI PUSH2 0x1C5 PUSH2 0x12F JUMP JUMPDEST JUMPDEST SWAP3 SWAP2 POP POP JUMP JUMPDEST PUSH0 PUSH2 0x1D6 DUP3 PUSH2 0xFB JUMP JUMPDEST SWAP2 POP PUSH2 0x1E1 DUP4 PUSH2 0xFB JUMP JUMPDEST SWAP3 POP DUP3 DUP3 SUB SWAP1 POP PUSH1 0xFF DUP2 GT ISZERO PUSH2 0x1FA JUMPI PUSH2 0x1F9 PUSH2 0x12F JUMP JUMPDEST JUMPDEST SWAP3 SWAP2 POP POP JUMP INVALID LOG2 PUSH5 0x6970667358 0x22 SLT KECCAK256 SWAP1 SDIV NOT 0xE9 0xA7 PUSH1 0x53 0x1F PUSH26 0xEAF9B7693D6C530AAD40C6B32BC9EB17D59F0BD3A4797364736F PUSH13 0x634300081A0033000000000000 "
				},
				"gasEstimates": {
					"creation": {
						"codeDepositCost": "113200",
						"executionCost": "157",
						"totalCost": "113357"
					},
					"external": {
						"add1()": "infinite",
						"add2()": "infinite",
						"sub1()": "infinite"
					},
					"internal": {
						"add(uint256,uint256)": "infinite"
					}
				},
				"methodIdentifiers": {
					"add1()": "0035921a",
					"add2()": "6c1f222f",
					"sub1()": "72a099b7"
				}
			},
			"storageLayout": {
				"storage": [],
				"types": null
			},
			"userdoc": {
				"kind": "user",
				"methods": {},
				"version": 1
			}
		}
	}
}