{
	"contracts/ContractStructBase.sol": {
		"ContractStructBase": {
			"abi": [
				{
					"anonymous": false,
					"inputs": [
						{
							"indexed": false,
							"internalType": "address",
							"name": "sender",
							"type": "address"
						},
						{
							"indexed": false,
							"internalType": "uint256",
							"name": "newBalance",
							"type": "uint256"
						}
					],
					"name": "fallbackCalled",
					"type": "event"
				},
				{
					"anonymous": false,
					"inputs": [
						{
							"indexed": false,
							"internalType": "address",
							"name": "sender",
							"type": "address"
						},
						{
							"indexed": false,
							"internalType": "uint256",
							"name": "newBalance",
							"type": "uint256"
						}
					],
					"name": "received",
					"type": "event"
				},
				{
					"stateMutability": "payable",
					"type": "fallback"
				},
				{
					"inputs": [
						{
							"internalType": "uint256",
							"name": "x",
							"type": "uint256"
						},
						{
							"internalType": "uint256",
							"name": "y",
							"type": "uint256"
						}
					],
					"name": "add",
					"outputs": [
						{
							"internalType": "uint256",
							"name": "",
							"type": "uint256"
						},
						{
							"internalType": "uint256",
							"name": "",
							"type": "uint256"
						}
					],
					"stateMutability": "pure",
					"type": "function"
				},
				{
					"inputs": [
						{
							"internalType": "uint256",
							"name": "_id",
							"type": "uint256"
						},
						{
							"internalType": "string",
							"name": "_name",
							"type": "string"
						},
						{
							"internalType": "uint256",
							"name": "_salary",
							"type": "uint256"
						}
					],
					"name": "addUser",
					"outputs": [],
					"stateMutability": "nonpayable",
					"type": "function"
				},
				{
					"inputs": [
						{
							"internalType": "uint256",
							"name": "_id",
							"type": "uint256"
						}
					],
					"name": "getUser",
					"outputs": [
						{
							"internalType": "string",
							"name": "",
							"type": "string"
						},
						{
							"internalType": "uint256",
							"name": "",
							"type": "uint256"
						}
					],
					"stateMutability": "view",
					"type": "function"
				},
				{
					"inputs": [
						{
							"internalType": "address",
							"name": "",
							"type": "address"
						}
					],
					"name": "users",
					"outputs": [
						{
							"internalType": "uint256",
							"name": "id",
							"type": "uint256"
						},
						{
							"internalType": "string",
							"name": "name",
							"type": "string"
						},
						{
							"internalType": "uint256",
							"name": "salary",
							"type": "uint256"
						}
					],
					"stateMutability": "view",
					"type": "function"
				},
				{
					"stateMutability": "payable",
					"type": "receive"
				}
			],
			"devdoc": {
				"kind": "dev",
				"methods": {},
				"version": 1
			},
			"evm": {
				"assembly": "    /* \"contracts/ContractStructBase.sol\":89:1369  contract ContractStructBase {... */\n  mstore(0x40, 0x80)\n    /* \"contracts/ContractStructBase.sol\":135:136  0 */\n  0x00\n    /* \"contracts/ContractStructBase.sol\":124:136  uint sum = 0 */\n  dup1\n  sstore\n    /* \"contracts/ContractStructBase.sol\":89:1369  contract ContractStructBase {... */\n  callvalue\n  dup1\n  iszero\n  tag_1\n  jumpi\n  0x00\n  dup1\n  revert\ntag_1:\n  pop\n  dataSize(sub_0)\n  dup1\n  dataOffset(sub_0)\n  0x00\n  codecopy\n  0x00\n  return\nstop\n\nsub_0: assembly {\n        /* \"contracts/ContractStructBase.sol\":89:1369  contract ContractStructBase {... */\n      mstore(0x40, 0x80)\n      jumpi(tag_1, lt(calldatasize, 0x04))\n      shr(0xe0, calldataload(0x00))\n      dup1\n      0x771602f7\n      eq\n      tag_3\n      jumpi\n      dup1\n      0xa87430ba\n      eq\n      tag_4\n      jumpi\n      dup1\n      0xb0467deb\n      eq\n      tag_5\n      jumpi\n      dup1\n      0xca463c85\n      eq\n      tag_6\n      jumpi\n      jump(tag_2)\n    tag_1:\n      jumpi(tag_2, calldatasize)\n        /* \"contracts/ContractStructBase.sol\":1138:1169  received(msg.sender, msg.value) */\n      0xf11e547d796cc64acdf758e7cee90439494fd886a19159454aa61e473fdbafef\n        /* \"contracts/ContractStructBase.sol\":1147:1157  msg.sender */\n      caller\n        /* \"contracts/ContractStructBase.sol\":1159:1168  msg.value */\n      callvalue\n        /* \"contracts/ContractStructBase.sol\":1138:1169  received(msg.sender, msg.value) */\n      mload(0x40)\n      tag_9\n      swap3\n      swap2\n      swap1\n      tag_10\n      jump\t// in\n    tag_9:\n      mload(0x40)\n      dup1\n      swap2\n      sub\n      swap1\n      log1\n        /* \"contracts/ContractStructBase.sol\":89:1369  contract ContractStructBase {... */\n      stop\n    tag_2:\n        /* \"contracts/ContractStructBase.sol\":1320:1357  fallbackCalled(msg.sender, msg.value) */\n      0x49ae0d0a7cc59f733f20bb1944a3abfc8d83d39b9716280ac615250b777e40a6\n        /* \"contracts/ContractStructBase.sol\":1335:1345  msg.sender */\n      caller\n        /* \"contracts/ContractStructBase.sol\":1347:1356  msg.value */\n      callvalue\n        /* \"contracts/ContractStructBase.sol\":1320:1357  fallbackCalled(msg.sender, msg.value) */\n      mload(0x40)\n      tag_13\n      swap3\n      swap2\n      swap1\n      tag_10\n      jump\t// in\n    tag_13:\n      mload(0x40)\n      dup1\n      swap2\n      sub\n      swap1\n      log1\n        /* \"contracts/ContractStructBase.sol\":89:1369  contract ContractStructBase {... */\n      stop\n        /* \"contracts/ContractStructBase.sol\":301:401  function add(uint x, uint y) public pure returns(uint, uint) {... */\n    tag_3:\n      callvalue\n      dup1\n      iszero\n      tag_14\n      jumpi\n      0x00\n      dup1\n      revert\n    tag_14:\n      pop\n      tag_15\n      0x04\n      dup1\n      calldatasize\n      sub\n      dup2\n      add\n      swap1\n      tag_16\n      swap2\n      swap1\n      tag_17\n      jump\t// in\n    tag_16:\n      tag_18\n      jump\t// in\n    tag_15:\n      mload(0x40)\n      tag_19\n      swap3\n      swap2\n      swap1\n      tag_20\n      jump\t// in\n    tag_19:\n      mload(0x40)\n      dup1\n      swap2\n      sub\n      swap1\n      return\n        /* \"contracts/ContractStructBase.sol\":252:290  mapping (address => User) public users */\n    tag_4:\n      callvalue\n      dup1\n      iszero\n      tag_21\n      jumpi\n      0x00\n      dup1\n      revert\n    tag_21:\n      pop\n      tag_22\n      0x04\n      dup1\n      calldatasize\n      sub\n      dup2\n      add\n      swap1\n      tag_23\n      swap2\n      swap1\n      tag_24\n      jump\t// in\n    tag_23:\n      tag_25\n      jump\t// in\n    tag_22:\n      mload(0x40)\n      tag_26\n      swap4\n      swap3\n      swap2\n      swap1\n      tag_27\n      jump\t// in\n    tag_26:\n      mload(0x40)\n      dup1\n      swap2\n      sub\n      swap1\n      return\n        /* \"contracts/ContractStructBase.sol\":711:874  function getUser(uint _id) public view returns (string memory, uint) {... */\n    tag_5:\n      callvalue\n      dup1\n      iszero\n      tag_28\n      jumpi\n      0x00\n      dup1\n      revert\n    tag_28:\n      pop\n      tag_29\n      0x04\n      dup1\n      calldatasize\n      sub\n      dup2\n      add\n      swap1\n      tag_30\n      swap2\n      swap1\n      tag_31\n      jump\t// in\n    tag_30:\n      tag_32\n      jump\t// in\n    tag_29:\n      mload(0x40)\n      tag_33\n      swap3\n      swap2\n      swap1\n      tag_34\n      jump\t// in\n    tag_33:\n      mload(0x40)\n      dup1\n      swap2\n      sub\n      swap1\n      return\n        /* \"contracts/ContractStructBase.sol\":408:586  function addUser(uint _id, string memory _name, uint _salary) public {... */\n    tag_6:\n      callvalue\n      dup1\n      iszero\n      tag_35\n      jumpi\n      0x00\n      dup1\n      revert\n    tag_35:\n      pop\n      tag_36\n      0x04\n      dup1\n      calldatasize\n      sub\n      dup2\n      add\n      swap1\n      tag_37\n      swap2\n      swap1\n      tag_38\n      jump\t// in\n    tag_37:\n      tag_39\n      jump\t// in\n    tag_36:\n      stop\n        /* \"contracts/ContractStructBase.sol\":301:401  function add(uint x, uint y) public pure returns(uint, uint) {... */\n    tag_18:\n        /* \"contracts/ContractStructBase.sol\":350:354  uint */\n      0x00\n        /* \"contracts/ContractStructBase.sol\":356:360  uint */\n      dup1\n        /* \"contracts/ContractStructBase.sol\":384:385  y */\n      dup3\n        /* \"contracts/ContractStructBase.sol\":380:381  x */\n      dup5\n        /* \"contracts/ContractStructBase.sol\":380:385  x + y */\n      tag_41\n      swap2\n      swap1\n      tag_42\n      jump\t// in\n    tag_41:\n        /* \"contracts/ContractStructBase.sol\":391:392  y */\n      dup4\n        /* \"contracts/ContractStructBase.sol\":387:388  x */\n      dup6\n        /* \"contracts/ContractStructBase.sol\":387:392  x * y */\n      tag_43\n      swap2\n      swap1\n      tag_44\n      jump\t// in\n    tag_43:\n        /* \"contracts/ContractStructBase.sol\":372:393  return (x + y, x * y) */\n      swap2\n      pop\n      swap2\n      pop\n        /* \"contracts/ContractStructBase.sol\":301:401  function add(uint x, uint y) public pure returns(uint, uint) {... */\n      swap3\n      pop\n      swap3\n      swap1\n      pop\n      jump\t// out\n        /* \"contracts/ContractStructBase.sol\":252:290  mapping (address => User) public users */\n    tag_25:\n      mstore(0x20, 0x02)\n      dup1\n      0x00\n      mstore\n      keccak256(0x00, 0x40)\n      0x00\n      swap2\n      pop\n      swap1\n      pop\n      dup1\n      0x00\n      add\n      sload\n      swap1\n      dup1\n      0x01\n      add\n      dup1\n      sload\n      tag_45\n      swap1\n      tag_46\n      jump\t// in\n    tag_45:\n      dup1\n      0x1f\n      add\n      0x20\n      dup1\n      swap2\n      div\n      mul\n      0x20\n      add\n      mload(0x40)\n      swap1\n      dup2\n      add\n      0x40\n      mstore\n      dup1\n      swap3\n      swap2\n      swap1\n      dup2\n      dup2\n      mstore\n      0x20\n      add\n      dup3\n      dup1\n      sload\n      tag_47\n      swap1\n      tag_46\n      jump\t// in\n    tag_47:\n      dup1\n      iszero\n      tag_48\n      jumpi\n      dup1\n      0x1f\n      lt\n      tag_49\n      jumpi\n      0x0100\n      dup1\n      dup4\n      sload\n      div\n      mul\n      dup4\n      mstore\n      swap2\n      0x20\n      add\n      swap2\n      jump(tag_48)\n    tag_49:\n      dup3\n      add\n      swap2\n      swap1\n      0x00\n      mstore\n      keccak256(0x00, 0x20)\n      swap1\n    tag_50:\n      dup2\n      sload\n      dup2\n      mstore\n      swap1\n      0x01\n      add\n      swap1\n      0x20\n      add\n      dup1\n      dup4\n      gt\n      tag_50\n      jumpi\n      dup3\n      swap1\n      sub\n      0x1f\n      and\n      dup3\n      add\n      swap2\n    tag_48:\n      pop\n      pop\n      pop\n      pop\n      pop\n      swap1\n      dup1\n      0x02\n      add\n      sload\n      swap1\n      pop\n      dup4\n      jump\t// out\n        /* \"contracts/ContractStructBase.sol\":711:874  function getUser(uint _id) public view returns (string memory, uint) {... */\n    tag_32:\n        /* \"contracts/ContractStructBase.sol\":759:772  string memory */\n      0x60\n        /* \"contracts/ContractStructBase.sol\":774:778  uint */\n      0x00\n        /* \"contracts/ContractStructBase.sol\":790:806  User memory temp */\n      dup1\n        /* \"contracts/ContractStructBase.sol\":809:814  users */\n      0x02\n        /* \"contracts/ContractStructBase.sol\":809:826  users[msg.sender] */\n      0x00\n        /* \"contracts/ContractStructBase.sol\":815:825  msg.sender */\n      caller\n        /* \"contracts/ContractStructBase.sol\":809:826  users[msg.sender] */\n      0xffffffffffffffffffffffffffffffffffffffff\n      and\n      0xffffffffffffffffffffffffffffffffffffffff\n      and\n      dup2\n      mstore\n      0x20\n      add\n      swap1\n      dup2\n      mstore\n      0x20\n      add\n      0x00\n      keccak256\n        /* \"contracts/ContractStructBase.sol\":790:826  User memory temp = users[msg.sender] */\n      mload(0x40)\n      dup1\n      0x60\n      add\n      0x40\n      mstore\n      swap1\n      dup2\n      0x00\n      dup3\n      add\n      sload\n      dup2\n      mstore\n      0x20\n      add\n      0x01\n      dup3\n      add\n      dup1\n      sload\n      tag_52\n      swap1\n      tag_46\n      jump\t// in\n    tag_52:\n      dup1\n      0x1f\n      add\n      0x20\n      dup1\n      swap2\n      div\n      mul\n      0x20\n      add\n      mload(0x40)\n      swap1\n      dup2\n      add\n      0x40\n      mstore\n      dup1\n      swap3\n      swap2\n      swap1\n      dup2\n      dup2\n      mstore\n      0x20\n      add\n      dup3\n      dup1\n      sload\n      tag_53\n      swap1\n      tag_46\n      jump\t// in\n    tag_53:\n      dup1\n      iszero\n      tag_54\n      jumpi\n      dup1\n      0x1f\n      lt\n      tag_55\n      jumpi\n      0x0100\n      dup1\n      dup4\n      sload\n      div\n      mul\n      dup4\n      mstore\n      swap2\n      0x20\n      add\n      swap2\n      jump(tag_54)\n    tag_55:\n      dup3\n      add\n      swap2\n      swap1\n      0x00\n      mstore\n      keccak256(0x00, 0x20)\n      swap1\n    tag_56:\n      dup2\n      sload\n      dup2\n      mstore\n      swap1\n      0x01\n      add\n      swap1\n      0x20\n      add\n      dup1\n      dup4\n      gt\n      tag_56\n      jumpi\n      dup3\n      swap1\n      sub\n      0x1f\n      and\n      dup3\n      add\n      swap2\n    tag_54:\n      pop\n      pop\n      pop\n      pop\n      pop\n      dup2\n      mstore\n      0x20\n      add\n      0x02\n      dup3\n      add\n      sload\n      dup2\n      mstore\n      pop\n      pop\n      swap1\n      pop\n        /* \"contracts/ContractStructBase.sol\":844:848  temp */\n      dup1\n        /* \"contracts/ContractStructBase.sol\":844:853  temp.name */\n      0x20\n      add\n      mload\n        /* \"contracts/ContractStructBase.sol\":855:859  temp */\n      dup2\n        /* \"contracts/ContractStructBase.sol\":855:866  temp.salary */\n      0x40\n      add\n      mload\n        /* \"contracts/ContractStructBase.sol\":836:867  return (temp.name, temp.salary) */\n      swap3\n      pop\n      swap3\n      pop\n      pop\n        /* \"contracts/ContractStructBase.sol\":711:874  function getUser(uint _id) public view returns (string memory, uint) {... */\n      swap2\n      pop\n      swap2\n      jump\t// out\n        /* \"contracts/ContractStructBase.sol\":408:586  function addUser(uint _id, string memory _name, uint _salary) public {... */\n    tag_39:\n        /* \"contracts/ContractStructBase.sol\":487:494  userIds */\n      0x01\n        /* \"contracts/ContractStructBase.sol\":500:503  _id */\n      dup4\n        /* \"contracts/ContractStructBase.sol\":487:504  userIds.push(_id) */\n      swap1\n      dup1\n      0x01\n      dup2\n      sload\n      add\n      dup1\n      dup3\n      sstore\n      dup1\n      swap2\n      pop\n      pop\n      0x01\n      swap1\n      sub\n      swap1\n      0x00\n      mstore\n      keccak256(0x00, 0x20)\n      add\n      0x00\n      swap1\n      swap2\n      swap1\n      swap2\n      swap1\n      swap2\n      pop\n      sstore\n        /* \"contracts/ContractStructBase.sol\":534:579  User({id: _id, name: _name, salary: _salary}) */\n      mload(0x40)\n      dup1\n      0x60\n      add\n      0x40\n      mstore\n      dup1\n        /* \"contracts/ContractStructBase.sol\":544:547  _id */\n      dup5\n        /* \"contracts/ContractStructBase.sol\":534:579  User({id: _id, name: _name, salary: _salary}) */\n      dup2\n      mstore\n      0x20\n      add\n        /* \"contracts/ContractStructBase.sol\":555:560  _name */\n      dup4\n        /* \"contracts/ContractStructBase.sol\":534:579  User({id: _id, name: _name, salary: _salary}) */\n      dup2\n      mstore\n      0x20\n      add\n        /* \"contracts/ContractStructBase.sol\":570:577  _salary */\n      dup3\n        /* \"contracts/ContractStructBase.sol\":534:579  User({id: _id, name: _name, salary: _salary}) */\n      dup2\n      mstore\n      pop\n        /* \"contracts/ContractStructBase.sol\":514:519  users */\n      0x02\n        /* \"contracts/ContractStructBase.sol\":514:531  users[msg.sender] */\n      0x00\n        /* \"contracts/ContractStructBase.sol\":520:530  msg.sender */\n      caller\n        /* \"contracts/ContractStructBase.sol\":514:531  users[msg.sender] */\n      0xffffffffffffffffffffffffffffffffffffffff\n      and\n      0xffffffffffffffffffffffffffffffffffffffff\n      and\n      dup2\n      mstore\n      0x20\n      add\n      swap1\n      dup2\n      mstore\n      0x20\n      add\n      0x00\n      keccak256\n        /* \"contracts/ContractStructBase.sol\":514:579  users[msg.sender] = User({id: _id, name: _name, salary: _salary}) */\n      0x00\n      dup3\n      add\n      mload\n      dup2\n      0x00\n      add\n      sstore\n      0x20\n      dup3\n      add\n      mload\n      dup2\n      0x01\n      add\n      swap1\n      dup2\n      tag_59\n      swap2\n      swap1\n      tag_60\n      jump\t// in\n    tag_59:\n      pop\n      0x40\n      dup3\n      add\n      mload\n      dup2\n      0x02\n      add\n      sstore\n      swap1\n      pop\n      pop\n        /* \"contracts/ContractStructBase.sol\":408:586  function addUser(uint _id, string memory _name, uint _salary) public {... */\n      pop\n      pop\n      pop\n      jump\t// out\n        /* \"#utility.yul\":7:133   */\n    tag_61:\n        /* \"#utility.yul\":44:51   */\n      0x00\n        /* \"#utility.yul\":84:126   */\n      0xffffffffffffffffffffffffffffffffffffffff\n        /* \"#utility.yul\":77:82   */\n      dup3\n        /* \"#utility.yul\":73:127   */\n      and\n        /* \"#utility.yul\":62:127   */\n      swap1\n      pop\n        /* \"#utility.yul\":7:133   */\n      swap2\n      swap1\n      pop\n      jump\t// out\n        /* \"#utility.yul\":139:235   */\n    tag_62:\n        /* \"#utility.yul\":176:183   */\n      0x00\n        /* \"#utility.yul\":205:229   */\n      tag_107\n        /* \"#utility.yul\":223:228   */\n      dup3\n        /* \"#utility.yul\":205:229   */\n      tag_61\n      jump\t// in\n    tag_107:\n        /* \"#utility.yul\":194:229   */\n      swap1\n      pop\n        /* \"#utility.yul\":139:235   */\n      swap2\n      swap1\n      pop\n      jump\t// out\n        /* \"#utility.yul\":241:359   */\n    tag_63:\n        /* \"#utility.yul\":328:352   */\n      tag_109\n        /* \"#utility.yul\":346:351   */\n      dup2\n        /* \"#utility.yul\":328:352   */\n      tag_62\n      jump\t// in\n    tag_109:\n        /* \"#utility.yul\":323:326   */\n      dup3\n        /* \"#utility.yul\":316:353   */\n      mstore\n        /* \"#utility.yul\":241:359   */\n      pop\n      pop\n      jump\t// out\n        /* \"#utility.yul\":365:442   */\n    tag_64:\n        /* \"#utility.yul\":402:409   */\n      0x00\n        /* \"#utility.yul\":431:436   */\n      dup2\n        /* \"#utility.yul\":420:436   */\n      swap1\n      pop\n        /* \"#utility.yul\":365:442   */\n      swap2\n      swap1\n      pop\n      jump\t// out\n        /* \"#utility.yul\":448:566   */\n    tag_65:\n        /* \"#utility.yul\":535:559   */\n      tag_112\n        /* \"#utility.yul\":553:558   */\n      dup2\n        /* \"#utility.yul\":535:559   */\n      tag_64\n      jump\t// in\n    tag_112:\n        /* \"#utility.yul\":530:533   */\n      dup3\n        /* \"#utility.yul\":523:560   */\n      mstore\n        /* \"#utility.yul\":448:566   */\n      pop\n      pop\n      jump\t// out\n        /* \"#utility.yul\":572:904   */\n    tag_10:\n        /* \"#utility.yul\":693:697   */\n      0x00\n        /* \"#utility.yul\":731:733   */\n      0x40\n        /* \"#utility.yul\":720:729   */\n      dup3\n        /* \"#utility.yul\":716:734   */\n      add\n        /* \"#utility.yul\":708:734   */\n      swap1\n      pop\n        /* \"#utility.yul\":744:815   */\n      tag_114\n        /* \"#utility.yul\":812:813   */\n      0x00\n        /* \"#utility.yul\":801:810   */\n      dup4\n        /* \"#utility.yul\":797:814   */\n      add\n        /* \"#utility.yul\":788:794   */\n      dup6\n        /* \"#utility.yul\":744:815   */\n      tag_63\n      jump\t// in\n    tag_114:\n        /* \"#utility.yul\":825:897   */\n      tag_115\n        /* \"#utility.yul\":893:895   */\n      0x20\n        /* \"#utility.yul\":882:891   */\n      dup4\n        /* \"#utility.yul\":878:896   */\n      add\n        /* \"#utility.yul\":869:875   */\n      dup5\n        /* \"#utility.yul\":825:897   */\n      tag_65\n      jump\t// in\n    tag_115:\n        /* \"#utility.yul\":572:904   */\n      swap4\n      swap3\n      pop\n      pop\n      pop\n      jump\t// out\n        /* \"#utility.yul\":910:985   */\n    tag_66:\n        /* \"#utility.yul\":943:949   */\n      0x00\n        /* \"#utility.yul\":976:978   */\n      0x40\n        /* \"#utility.yul\":970:979   */\n      mload\n        /* \"#utility.yul\":960:979   */\n      swap1\n      pop\n        /* \"#utility.yul\":910:985   */\n      swap1\n      jump\t// out\n        /* \"#utility.yul\":991:1108   */\n    tag_67:\n        /* \"#utility.yul\":1100:1101   */\n      0x00\n        /* \"#utility.yul\":1097:1098   */\n      dup1\n        /* \"#utility.yul\":1090:1102   */\n      revert\n        /* \"#utility.yul\":1114:1231   */\n    tag_68:\n        /* \"#utility.yul\":1223:1224   */\n      0x00\n        /* \"#utility.yul\":1220:1221   */\n      dup1\n        /* \"#utility.yul\":1213:1225   */\n      revert\n        /* \"#utility.yul\":1237:1359   */\n    tag_69:\n        /* \"#utility.yul\":1310:1334   */\n      tag_120\n        /* \"#utility.yul\":1328:1333   */\n      dup2\n        /* \"#utility.yul\":1310:1334   */\n      tag_64\n      jump\t// in\n    tag_120:\n        /* \"#utility.yul\":1303:1308   */\n      dup2\n        /* \"#utility.yul\":1300:1335   */\n      eq\n        /* \"#utility.yul\":1290:1353   */\n      tag_121\n      jumpi\n        /* \"#utility.yul\":1349:1350   */\n      0x00\n        /* \"#utility.yul\":1346:1347   */\n      dup1\n        /* \"#utility.yul\":1339:1351   */\n      revert\n        /* \"#utility.yul\":1290:1353   */\n    tag_121:\n        /* \"#utility.yul\":1237:1359   */\n      pop\n      jump\t// out\n        /* \"#utility.yul\":1365:1504   */\n    tag_70:\n        /* \"#utility.yul\":1411:1416   */\n      0x00\n        /* \"#utility.yul\":1449:1455   */\n      dup2\n        /* \"#utility.yul\":1436:1456   */\n      calldataload\n        /* \"#utility.yul\":1427:1456   */\n      swap1\n      pop\n        /* \"#utility.yul\":1465:1498   */\n      tag_123\n        /* \"#utility.yul\":1492:1497   */\n      dup2\n        /* \"#utility.yul\":1465:1498   */\n      tag_69\n      jump\t// in\n    tag_123:\n        /* \"#utility.yul\":1365:1504   */\n      swap3\n      swap2\n      pop\n      pop\n      jump\t// out\n        /* \"#utility.yul\":1510:1984   */\n    tag_17:\n        /* \"#utility.yul\":1578:1584   */\n      0x00\n        /* \"#utility.yul\":1586:1592   */\n      dup1\n        /* \"#utility.yul\":1635:1637   */\n      0x40\n        /* \"#utility.yul\":1623:1632   */\n      dup4\n        /* \"#utility.yul\":1614:1621   */\n      dup6\n        /* \"#utility.yul\":1610:1633   */\n      sub\n        /* \"#utility.yul\":1606:1638   */\n      slt\n        /* \"#utility.yul\":1603:1722   */\n      iszero\n      tag_125\n      jumpi\n        /* \"#utility.yul\":1641:1720   */\n      tag_126\n      tag_67\n      jump\t// in\n    tag_126:\n        /* \"#utility.yul\":1603:1722   */\n    tag_125:\n        /* \"#utility.yul\":1761:1762   */\n      0x00\n        /* \"#utility.yul\":1786:1839   */\n      tag_127\n        /* \"#utility.yul\":1831:1838   */\n      dup6\n        /* \"#utility.yul\":1822:1828   */\n      dup3\n        /* \"#utility.yul\":1811:1820   */\n      dup7\n        /* \"#utility.yul\":1807:1829   */\n      add\n        /* \"#utility.yul\":1786:1839   */\n      tag_70\n      jump\t// in\n    tag_127:\n        /* \"#utility.yul\":1776:1839   */\n      swap3\n      pop\n        /* \"#utility.yul\":1732:1849   */\n      pop\n        /* \"#utility.yul\":1888:1890   */\n      0x20\n        /* \"#utility.yul\":1914:1967   */\n      tag_128\n        /* \"#utility.yul\":1959:1966   */\n      dup6\n        /* \"#utility.yul\":1950:1956   */\n      dup3\n        /* \"#utility.yul\":1939:1948   */\n      dup7\n        /* \"#utility.yul\":1935:1957   */\n      add\n        /* \"#utility.yul\":1914:1967   */\n      tag_70\n      jump\t// in\n    tag_128:\n        /* \"#utility.yul\":1904:1967   */\n      swap2\n      pop\n        /* \"#utility.yul\":1859:1977   */\n      pop\n        /* \"#utility.yul\":1510:1984   */\n      swap3\n      pop\n      swap3\n      swap1\n      pop\n      jump\t// out\n        /* \"#utility.yul\":1990:2322   */\n    tag_20:\n        /* \"#utility.yul\":2111:2115   */\n      0x00\n        /* \"#utility.yul\":2149:2151   */\n      0x40\n        /* \"#utility.yul\":2138:2147   */\n      dup3\n        /* \"#utility.yul\":2134:2152   */\n      add\n        /* \"#utility.yul\":2126:2152   */\n      swap1\n      pop\n        /* \"#utility.yul\":2162:2233   */\n      tag_130\n        /* \"#utility.yul\":2230:2231   */\n      0x00\n        /* \"#utility.yul\":2219:2228   */\n      dup4\n        /* \"#utility.yul\":2215:2232   */\n      add\n        /* \"#utility.yul\":2206:2212   */\n      dup6\n        /* \"#utility.yul\":2162:2233   */\n      tag_65\n      jump\t// in\n    tag_130:\n        /* \"#utility.yul\":2243:2315   */\n      tag_131\n        /* \"#utility.yul\":2311:2313   */\n      0x20\n        /* \"#utility.yul\":2300:2309   */\n      dup4\n        /* \"#utility.yul\":2296:2314   */\n      add\n        /* \"#utility.yul\":2287:2293   */\n      dup5\n        /* \"#utility.yul\":2243:2315   */\n      tag_65\n      jump\t// in\n    tag_131:\n        /* \"#utility.yul\":1990:2322   */\n      swap4\n      swap3\n      pop\n      pop\n      pop\n      jump\t// out\n        /* \"#utility.yul\":2328:2450   */\n    tag_71:\n        /* \"#utility.yul\":2401:2425   */\n      tag_133\n        /* \"#utility.yul\":2419:2424   */\n      dup2\n        /* \"#utility.yul\":2401:2425   */\n      tag_62\n      jump\t// in\n    tag_133:\n        /* \"#utility.yul\":2394:2399   */\n      dup2\n        /* \"#utility.yul\":2391:2426   */\n      eq\n        /* \"#utility.yul\":2381:2444   */\n      tag_134\n      jumpi\n        /* \"#utility.yul\":2440:2441   */\n      0x00\n        /* \"#utility.yul\":2437:2438   */\n      dup1\n        /* \"#utility.yul\":2430:2442   */\n      revert\n        /* \"#utility.yul\":2381:2444   */\n    tag_134:\n        /* \"#utility.yul\":2328:2450   */\n      pop\n      jump\t// out\n        /* \"#utility.yul\":2456:2595   */\n    tag_72:\n        /* \"#utility.yul\":2502:2507   */\n      0x00\n        /* \"#utility.yul\":2540:2546   */\n      dup2\n        /* \"#utility.yul\":2527:2547   */\n      calldataload\n        /* \"#utility.yul\":2518:2547   */\n      swap1\n      pop\n        /* \"#utility.yul\":2556:2589   */\n      tag_136\n        /* \"#utility.yul\":2583:2588   */\n      dup2\n        /* \"#utility.yul\":2556:2589   */\n      tag_71\n      jump\t// in\n    tag_136:\n        /* \"#utility.yul\":2456:2595   */\n      swap3\n      swap2\n      pop\n      pop\n      jump\t// out\n        /* \"#utility.yul\":2601:2930   */\n    tag_24:\n        /* \"#utility.yul\":2660:2666   */\n      0x00\n        /* \"#utility.yul\":2709:2711   */\n      0x20\n        /* \"#utility.yul\":2697:2706   */\n      dup3\n        /* \"#utility.yul\":2688:2695   */\n      dup5\n        /* \"#utility.yul\":2684:2707   */\n      sub\n        /* \"#utility.yul\":2680:2712   */\n      slt\n        /* \"#utility.yul\":2677:2796   */\n      iszero\n      tag_138\n      jumpi\n        /* \"#utility.yul\":2715:2794   */\n      tag_139\n      tag_67\n      jump\t// in\n    tag_139:\n        /* \"#utility.yul\":2677:2796   */\n    tag_138:\n        /* \"#utility.yul\":2835:2836   */\n      0x00\n        /* \"#utility.yul\":2860:2913   */\n      tag_140\n        /* \"#utility.yul\":2905:2912   */\n      dup5\n        /* \"#utility.yul\":2896:2902   */\n      dup3\n        /* \"#utility.yul\":2885:2894   */\n      dup6\n        /* \"#utility.yul\":2881:2903   */\n      add\n        /* \"#utility.yul\":2860:2913   */\n      tag_72\n      jump\t// in\n    tag_140:\n        /* \"#utility.yul\":2850:2913   */\n      swap2\n      pop\n        /* \"#utility.yul\":2806:2923   */\n      pop\n        /* \"#utility.yul\":2601:2930   */\n      swap3\n      swap2\n      pop\n      pop\n      jump\t// out\n        /* \"#utility.yul\":2936:3035   */\n    tag_73:\n        /* \"#utility.yul\":2988:2994   */\n      0x00\n        /* \"#utility.yul\":3022:3027   */\n      dup2\n        /* \"#utility.yul\":3016:3028   */\n      mload\n        /* \"#utility.yul\":3006:3028   */\n      swap1\n      pop\n        /* \"#utility.yul\":2936:3035   */\n      swap2\n      swap1\n      pop\n      jump\t// out\n        /* \"#utility.yul\":3041:3210   */\n    tag_74:\n        /* \"#utility.yul\":3125:3136   */\n      0x00\n        /* \"#utility.yul\":3159:3165   */\n      dup3\n        /* \"#utility.yul\":3154:3157   */\n      dup3\n        /* \"#utility.yul\":3147:3166   */\n      mstore\n        /* \"#utility.yul\":3199:3203   */\n      0x20\n        /* \"#utility.yul\":3194:3197   */\n      dup3\n        /* \"#utility.yul\":3190:3204   */\n      add\n        /* \"#utility.yul\":3175:3204   */\n      swap1\n      pop\n        /* \"#utility.yul\":3041:3210   */\n      swap3\n      swap2\n      pop\n      pop\n      jump\t// out\n        /* \"#utility.yul\":3216:3355   */\n    tag_75:\n        /* \"#utility.yul\":3305:3311   */\n      dup3\n        /* \"#utility.yul\":3300:3303   */\n      dup2\n        /* \"#utility.yul\":3295:3298   */\n      dup4\n        /* \"#utility.yul\":3289:3312   */\n      mcopy\n        /* \"#utility.yul\":3346:3347   */\n      0x00\n        /* \"#utility.yul\":3337:3343   */\n      dup4\n        /* \"#utility.yul\":3332:3335   */\n      dup4\n        /* \"#utility.yul\":3328:3344   */\n      add\n        /* \"#utility.yul\":3321:3348   */\n      mstore\n        /* \"#utility.yul\":3216:3355   */\n      pop\n      pop\n      pop\n      jump\t// out\n        /* \"#utility.yul\":3361:3463   */\n    tag_76:\n        /* \"#utility.yul\":3402:3408   */\n      0x00\n        /* \"#utility.yul\":3453:3455   */\n      0x1f\n        /* \"#utility.yul\":3449:3456   */\n      not\n        /* \"#utility.yul\":3444:3446   */\n      0x1f\n        /* \"#utility.yul\":3437:3442   */\n      dup4\n        /* \"#utility.yul\":3433:3447   */\n      add\n        /* \"#utility.yul\":3429:3457   */\n      and\n        /* \"#utility.yul\":3419:3457   */\n      swap1\n      pop\n        /* \"#utility.yul\":3361:3463   */\n      swap2\n      swap1\n      pop\n      jump\t// out\n        /* \"#utility.yul\":3469:3846   */\n    tag_77:\n        /* \"#utility.yul\":3557:3560   */\n      0x00\n        /* \"#utility.yul\":3585:3624   */\n      tag_146\n        /* \"#utility.yul\":3618:3623   */\n      dup3\n        /* \"#utility.yul\":3585:3624   */\n      tag_73\n      jump\t// in\n    tag_146:\n        /* \"#utility.yul\":3640:3711   */\n      tag_147\n        /* \"#utility.yul\":3704:3710   */\n      dup2\n        /* \"#utility.yul\":3699:3702   */\n      dup6\n        /* \"#utility.yul\":3640:3711   */\n      tag_74\n      jump\t// in\n    tag_147:\n        /* \"#utility.yul\":3633:3711   */\n      swap4\n      pop\n        /* \"#utility.yul\":3720:3785   */\n      tag_148\n        /* \"#utility.yul\":3778:3784   */\n      dup2\n        /* \"#utility.yul\":3773:3776   */\n      dup6\n        /* \"#utility.yul\":3766:3770   */\n      0x20\n        /* \"#utility.yul\":3759:3764   */\n      dup7\n        /* \"#utility.yul\":3755:3771   */\n      add\n        /* \"#utility.yul\":3720:3785   */\n      tag_75\n      jump\t// in\n    tag_148:\n        /* \"#utility.yul\":3810:3839   */\n      tag_149\n        /* \"#utility.yul\":3832:3838   */\n      dup2\n        /* \"#utility.yul\":3810:3839   */\n      tag_76\n      jump\t// in\n    tag_149:\n        /* \"#utility.yul\":3805:3808   */\n      dup5\n        /* \"#utility.yul\":3801:3840   */\n      add\n        /* \"#utility.yul\":3794:3840   */\n      swap2\n      pop\n        /* \"#utility.yul\":3561:3846   */\n      pop\n        /* \"#utility.yul\":3469:3846   */\n      swap3\n      swap2\n      pop\n      pop\n      jump\t// out\n        /* \"#utility.yul\":3852:4385   */\n    tag_27:\n        /* \"#utility.yul\":4021:4025   */\n      0x00\n        /* \"#utility.yul\":4059:4061   */\n      0x60\n        /* \"#utility.yul\":4048:4057   */\n      dup3\n        /* \"#utility.yul\":4044:4062   */\n      add\n        /* \"#utility.yul\":4036:4062   */\n      swap1\n      pop\n        /* \"#utility.yul\":4072:4143   */\n      tag_151\n        /* \"#utility.yul\":4140:4141   */\n      0x00\n        /* \"#utility.yul\":4129:4138   */\n      dup4\n        /* \"#utility.yul\":4125:4142   */\n      add\n        /* \"#utility.yul\":4116:4122   */\n      dup7\n        /* \"#utility.yul\":4072:4143   */\n      tag_65\n      jump\t// in\n    tag_151:\n        /* \"#utility.yul\":4190:4199   */\n      dup2\n        /* \"#utility.yul\":4184:4188   */\n      dup2\n        /* \"#utility.yul\":4180:4200   */\n      sub\n        /* \"#utility.yul\":4175:4177   */\n      0x20\n        /* \"#utility.yul\":4164:4173   */\n      dup4\n        /* \"#utility.yul\":4160:4178   */\n      add\n        /* \"#utility.yul\":4153:4201   */\n      mstore\n        /* \"#utility.yul\":4218:4296   */\n      tag_152\n        /* \"#utility.yul\":4291:4295   */\n      dup2\n        /* \"#utility.yul\":4282:4288   */\n      dup6\n        /* \"#utility.yul\":4218:4296   */\n      tag_77\n      jump\t// in\n    tag_152:\n        /* \"#utility.yul\":4210:4296   */\n      swap1\n      pop\n        /* \"#utility.yul\":4306:4378   */\n      tag_153\n        /* \"#utility.yul\":4374:4376   */\n      0x40\n        /* \"#utility.yul\":4363:4372   */\n      dup4\n        /* \"#utility.yul\":4359:4377   */\n      add\n        /* \"#utility.yul\":4350:4356   */\n      dup5\n        /* \"#utility.yul\":4306:4378   */\n      tag_65\n      jump\t// in\n    tag_153:\n        /* \"#utility.yul\":3852:4385   */\n      swap5\n      swap4\n      pop\n      pop\n      pop\n      pop\n      jump\t// out\n        /* \"#utility.yul\":4391:4720   */\n    tag_31:\n        /* \"#utility.yul\":4450:4456   */\n      0x00\n        /* \"#utility.yul\":4499:4501   */\n      0x20\n        /* \"#utility.yul\":4487:4496   */\n      dup3\n        /* \"#utility.yul\":4478:4485   */\n      dup5\n        /* \"#utility.yul\":4474:4497   */\n      sub\n        /* \"#utility.yul\":4470:4502   */\n      slt\n        /* \"#utility.yul\":4467:4586   */\n      iszero\n      tag_155\n      jumpi\n        /* \"#utility.yul\":4505:4584   */\n      tag_156\n      tag_67\n      jump\t// in\n    tag_156:\n        /* \"#utility.yul\":4467:4586   */\n    tag_155:\n        /* \"#utility.yul\":4625:4626   */\n      0x00\n        /* \"#utility.yul\":4650:4703   */\n      tag_157\n        /* \"#utility.yul\":4695:4702   */\n      dup5\n        /* \"#utility.yul\":4686:4692   */\n      dup3\n        /* \"#utility.yul\":4675:4684   */\n      dup6\n        /* \"#utility.yul\":4671:4693   */\n      add\n        /* \"#utility.yul\":4650:4703   */\n      tag_70\n      jump\t// in\n    tag_157:\n        /* \"#utility.yul\":4640:4703   */\n      swap2\n      pop\n        /* \"#utility.yul\":4596:4713   */\n      pop\n        /* \"#utility.yul\":4391:4720   */\n      swap3\n      swap2\n      pop\n      pop\n      jump\t// out\n        /* \"#utility.yul\":4726:5149   */\n    tag_34:\n        /* \"#utility.yul\":4867:4871   */\n      0x00\n        /* \"#utility.yul\":4905:4907   */\n      0x40\n        /* \"#utility.yul\":4894:4903   */\n      dup3\n        /* \"#utility.yul\":4890:4908   */\n      add\n        /* \"#utility.yul\":4882:4908   */\n      swap1\n      pop\n        /* \"#utility.yul\":4954:4963   */\n      dup2\n        /* \"#utility.yul\":4948:4952   */\n      dup2\n        /* \"#utility.yul\":4944:4964   */\n      sub\n        /* \"#utility.yul\":4940:4941   */\n      0x00\n        /* \"#utility.yul\":4929:4938   */\n      dup4\n        /* \"#utility.yul\":4925:4942   */\n      add\n        /* \"#utility.yul\":4918:4965   */\n      mstore\n        /* \"#utility.yul\":4982:5060   */\n      tag_159\n        /* \"#utility.yul\":5055:5059   */\n      dup2\n        /* \"#utility.yul\":5046:5052   */\n      dup6\n        /* \"#utility.yul\":4982:5060   */\n      tag_77\n      jump\t// in\n    tag_159:\n        /* \"#utility.yul\":4974:5060   */\n      swap1\n      pop\n        /* \"#utility.yul\":5070:5142   */\n      tag_160\n        /* \"#utility.yul\":5138:5140   */\n      0x20\n        /* \"#utility.yul\":5127:5136   */\n      dup4\n        /* \"#utility.yul\":5123:5141   */\n      add\n        /* \"#utility.yul\":5114:5120   */\n      dup5\n        /* \"#utility.yul\":5070:5142   */\n      tag_65\n      jump\t// in\n    tag_160:\n        /* \"#utility.yul\":4726:5149   */\n      swap4\n      swap3\n      pop\n      pop\n      pop\n      jump\t// out\n        /* \"#utility.yul\":5155:5272   */\n    tag_78:\n        /* \"#utility.yul\":5264:5265   */\n      0x00\n        /* \"#utility.yul\":5261:5262   */\n      dup1\n        /* \"#utility.yul\":5254:5266   */\n      revert\n        /* \"#utility.yul\":5278:5395   */\n    tag_79:\n        /* \"#utility.yul\":5387:5388   */\n      0x00\n        /* \"#utility.yul\":5384:5385   */\n      dup1\n        /* \"#utility.yul\":5377:5389   */\n      revert\n        /* \"#utility.yul\":5401:5581   */\n    tag_80:\n        /* \"#utility.yul\":5449:5526   */\n      0x4e487b7100000000000000000000000000000000000000000000000000000000\n        /* \"#utility.yul\":5446:5447   */\n      0x00\n        /* \"#utility.yul\":5439:5527   */\n      mstore\n        /* \"#utility.yul\":5546:5550   */\n      0x41\n        /* \"#utility.yul\":5543:5544   */\n      0x04\n        /* \"#utility.yul\":5536:5551   */\n      mstore\n        /* \"#utility.yul\":5570:5574   */\n      0x24\n        /* \"#utility.yul\":5567:5568   */\n      0x00\n        /* \"#utility.yul\":5560:5575   */\n      revert\n        /* \"#utility.yul\":5587:5868   */\n    tag_81:\n        /* \"#utility.yul\":5670:5697   */\n      tag_165\n        /* \"#utility.yul\":5692:5696   */\n      dup3\n        /* \"#utility.yul\":5670:5697   */\n      tag_76\n      jump\t// in\n    tag_165:\n        /* \"#utility.yul\":5662:5668   */\n      dup2\n        /* \"#utility.yul\":5658:5698   */\n      add\n        /* \"#utility.yul\":5800:5806   */\n      dup2\n        /* \"#utility.yul\":5788:5798   */\n      dup2\n        /* \"#utility.yul\":5785:5807   */\n      lt\n        /* \"#utility.yul\":5764:5782   */\n      0xffffffffffffffff\n        /* \"#utility.yul\":5752:5762   */\n      dup3\n        /* \"#utility.yul\":5749:5783   */\n      gt\n        /* \"#utility.yul\":5746:5808   */\n      or\n        /* \"#utility.yul\":5743:5831   */\n      iszero\n      tag_166\n      jumpi\n        /* \"#utility.yul\":5811:5829   */\n      tag_167\n      tag_80\n      jump\t// in\n    tag_167:\n        /* \"#utility.yul\":5743:5831   */\n    tag_166:\n        /* \"#utility.yul\":5851:5861   */\n      dup1\n        /* \"#utility.yul\":5847:5849   */\n      0x40\n        /* \"#utility.yul\":5840:5862   */\n      mstore\n        /* \"#utility.yul\":5630:5868   */\n      pop\n        /* \"#utility.yul\":5587:5868   */\n      pop\n      pop\n      jump\t// out\n        /* \"#utility.yul\":5874:6003   */\n    tag_82:\n        /* \"#utility.yul\":5908:5914   */\n      0x00\n        /* \"#utility.yul\":5935:5955   */\n      tag_169\n      tag_66\n      jump\t// in\n    tag_169:\n        /* \"#utility.yul\":5925:5955   */\n      swap1\n      pop\n        /* \"#utility.yul\":5964:5997   */\n      tag_170\n        /* \"#utility.yul\":5992:5996   */\n      dup3\n        /* \"#utility.yul\":5984:5990   */\n      dup3\n        /* \"#utility.yul\":5964:5997   */\n      tag_81\n      jump\t// in\n    tag_170:\n        /* \"#utility.yul\":5874:6003   */\n      swap2\n      swap1\n      pop\n      jump\t// out\n        /* \"#utility.yul\":6009:6317   */\n    tag_83:\n        /* \"#utility.yul\":6071:6075   */\n      0x00\n        /* \"#utility.yul\":6161:6179   */\n      0xffffffffffffffff\n        /* \"#utility.yul\":6153:6159   */\n      dup3\n        /* \"#utility.yul\":6150:6180   */\n      gt\n        /* \"#utility.yul\":6147:6203   */\n      iszero\n      tag_172\n      jumpi\n        /* \"#utility.yul\":6183:6201   */\n      tag_173\n      tag_80\n      jump\t// in\n    tag_173:\n        /* \"#utility.yul\":6147:6203   */\n    tag_172:\n        /* \"#utility.yul\":6221:6250   */\n      tag_174\n        /* \"#utility.yul\":6243:6249   */\n      dup3\n        /* \"#utility.yul\":6221:6250   */\n      tag_76\n      jump\t// in\n    tag_174:\n        /* \"#utility.yul\":6213:6250   */\n      swap1\n      pop\n        /* \"#utility.yul\":6305:6309   */\n      0x20\n        /* \"#utility.yul\":6299:6303   */\n      dup2\n        /* \"#utility.yul\":6295:6310   */\n      add\n        /* \"#utility.yul\":6287:6310   */\n      swap1\n      pop\n        /* \"#utility.yul\":6009:6317   */\n      swap2\n      swap1\n      pop\n      jump\t// out\n        /* \"#utility.yul\":6323:6471   */\n    tag_84:\n        /* \"#utility.yul\":6421:6427   */\n      dup3\n        /* \"#utility.yul\":6416:6419   */\n      dup2\n        /* \"#utility.yul\":6411:6414   */\n      dup4\n        /* \"#utility.yul\":6398:6428   */\n      calldatacopy\n        /* \"#utility.yul\":6462:6463   */\n      0x00\n        /* \"#utility.yul\":6453:6459   */\n      dup4\n        /* \"#utility.yul\":6448:6451   */\n      dup4\n        /* \"#utility.yul\":6444:6460   */\n      add\n        /* \"#utility.yul\":6437:6464   */\n      mstore\n        /* \"#utility.yul\":6323:6471   */\n      pop\n      pop\n      pop\n      jump\t// out\n        /* \"#utility.yul\":6477:6902   */\n    tag_85:\n        /* \"#utility.yul\":6555:6560   */\n      0x00\n        /* \"#utility.yul\":6580:6646   */\n      tag_177\n        /* \"#utility.yul\":6596:6645   */\n      tag_178\n        /* \"#utility.yul\":6638:6644   */\n      dup5\n        /* \"#utility.yul\":6596:6645   */\n      tag_83\n      jump\t// in\n    tag_178:\n        /* \"#utility.yul\":6580:6646   */\n      tag_82\n      jump\t// in\n    tag_177:\n        /* \"#utility.yul\":6571:6646   */\n      swap1\n      pop\n        /* \"#utility.yul\":6669:6675   */\n      dup3\n        /* \"#utility.yul\":6662:6667   */\n      dup2\n        /* \"#utility.yul\":6655:6676   */\n      mstore\n        /* \"#utility.yul\":6707:6711   */\n      0x20\n        /* \"#utility.yul\":6700:6705   */\n      dup2\n        /* \"#utility.yul\":6696:6712   */\n      add\n        /* \"#utility.yul\":6745:6748   */\n      dup5\n        /* \"#utility.yul\":6736:6742   */\n      dup5\n        /* \"#utility.yul\":6731:6734   */\n      dup5\n        /* \"#utility.yul\":6727:6743   */\n      add\n        /* \"#utility.yul\":6724:6749   */\n      gt\n        /* \"#utility.yul\":6721:6833   */\n      iszero\n      tag_179\n      jumpi\n        /* \"#utility.yul\":6752:6831   */\n      tag_180\n      tag_79\n      jump\t// in\n    tag_180:\n        /* \"#utility.yul\":6721:6833   */\n    tag_179:\n        /* \"#utility.yul\":6842:6896   */\n      tag_181\n        /* \"#utility.yul\":6889:6895   */\n      dup5\n        /* \"#utility.yul\":6884:6887   */\n      dup3\n        /* \"#utility.yul\":6879:6882   */\n      dup6\n        /* \"#utility.yul\":6842:6896   */\n      tag_84\n      jump\t// in\n    tag_181:\n        /* \"#utility.yul\":6561:6902   */\n      pop\n        /* \"#utility.yul\":6477:6902   */\n      swap4\n      swap3\n      pop\n      pop\n      pop\n      jump\t// out\n        /* \"#utility.yul\":6922:7262   */\n    tag_86:\n        /* \"#utility.yul\":6978:6983   */\n      0x00\n        /* \"#utility.yul\":7027:7030   */\n      dup3\n        /* \"#utility.yul\":7020:7024   */\n      0x1f\n        /* \"#utility.yul\":7012:7018   */\n      dup4\n        /* \"#utility.yul\":7008:7025   */\n      add\n        /* \"#utility.yul\":7004:7031   */\n      slt\n        /* \"#utility.yul\":6994:7116   */\n      tag_183\n      jumpi\n        /* \"#utility.yul\":7035:7114   */\n      tag_184\n      tag_78\n      jump\t// in\n    tag_184:\n        /* \"#utility.yul\":6994:7116   */\n    tag_183:\n        /* \"#utility.yul\":7152:7158   */\n      dup2\n        /* \"#utility.yul\":7139:7159   */\n      calldataload\n        /* \"#utility.yul\":7177:7256   */\n      tag_185\n        /* \"#utility.yul\":7252:7255   */\n      dup5\n        /* \"#utility.yul\":7244:7250   */\n      dup3\n        /* \"#utility.yul\":7237:7241   */\n      0x20\n        /* \"#utility.yul\":7229:7235   */\n      dup7\n        /* \"#utility.yul\":7225:7242   */\n      add\n        /* \"#utility.yul\":7177:7256   */\n      tag_85\n      jump\t// in\n    tag_185:\n        /* \"#utility.yul\":7168:7256   */\n      swap2\n      pop\n        /* \"#utility.yul\":6984:7262   */\n      pop\n        /* \"#utility.yul\":6922:7262   */\n      swap3\n      swap2\n      pop\n      pop\n      jump\t// out\n        /* \"#utility.yul\":7268:8067   */\n    tag_38:\n        /* \"#utility.yul\":7355:7361   */\n      0x00\n        /* \"#utility.yul\":7363:7369   */\n      dup1\n        /* \"#utility.yul\":7371:7377   */\n      0x00\n        /* \"#utility.yul\":7420:7422   */\n      0x60\n        /* \"#utility.yul\":7408:7417   */\n      dup5\n        /* \"#utility.yul\":7399:7406   */\n      dup7\n        /* \"#utility.yul\":7395:7418   */\n      sub\n        /* \"#utility.yul\":7391:7423   */\n      slt\n        /* \"#utility.yul\":7388:7507   */\n      iszero\n      tag_187\n      jumpi\n        /* \"#utility.yul\":7426:7505   */\n      tag_188\n      tag_67\n      jump\t// in\n    tag_188:\n        /* \"#utility.yul\":7388:7507   */\n    tag_187:\n        /* \"#utility.yul\":7546:7547   */\n      0x00\n        /* \"#utility.yul\":7571:7624   */\n      tag_189\n        /* \"#utility.yul\":7616:7623   */\n      dup7\n        /* \"#utility.yul\":7607:7613   */\n      dup3\n        /* \"#utility.yul\":7596:7605   */\n      dup8\n        /* \"#utility.yul\":7592:7614   */\n      add\n        /* \"#utility.yul\":7571:7624   */\n      tag_70\n      jump\t// in\n    tag_189:\n        /* \"#utility.yul\":7561:7624   */\n      swap4\n      pop\n        /* \"#utility.yul\":7517:7634   */\n      pop\n        /* \"#utility.yul\":7701:7703   */\n      0x20\n        /* \"#utility.yul\":7690:7699   */\n      dup5\n        /* \"#utility.yul\":7686:7704   */\n      add\n        /* \"#utility.yul\":7673:7705   */\n      calldataload\n        /* \"#utility.yul\":7732:7750   */\n      0xffffffffffffffff\n        /* \"#utility.yul\":7724:7730   */\n      dup2\n        /* \"#utility.yul\":7721:7751   */\n      gt\n        /* \"#utility.yul\":7718:7835   */\n      iszero\n      tag_190\n      jumpi\n        /* \"#utility.yul\":7754:7833   */\n      tag_191\n      tag_68\n      jump\t// in\n    tag_191:\n        /* \"#utility.yul\":7718:7835   */\n    tag_190:\n        /* \"#utility.yul\":7859:7922   */\n      tag_192\n        /* \"#utility.yul\":7914:7921   */\n      dup7\n        /* \"#utility.yul\":7905:7911   */\n      dup3\n        /* \"#utility.yul\":7894:7903   */\n      dup8\n        /* \"#utility.yul\":7890:7912   */\n      add\n        /* \"#utility.yul\":7859:7922   */\n      tag_86\n      jump\t// in\n    tag_192:\n        /* \"#utility.yul\":7849:7922   */\n      swap3\n      pop\n        /* \"#utility.yul\":7644:7932   */\n      pop\n        /* \"#utility.yul\":7971:7973   */\n      0x40\n        /* \"#utility.yul\":7997:8050   */\n      tag_193\n        /* \"#utility.yul\":8042:8049   */\n      dup7\n        /* \"#utility.yul\":8033:8039   */\n      dup3\n        /* \"#utility.yul\":8022:8031   */\n      dup8\n        /* \"#utility.yul\":8018:8040   */\n      add\n        /* \"#utility.yul\":7997:8050   */\n      tag_70\n      jump\t// in\n    tag_193:\n        /* \"#utility.yul\":7987:8050   */\n      swap2\n      pop\n        /* \"#utility.yul\":7942:8060   */\n      pop\n        /* \"#utility.yul\":7268:8067   */\n      swap3\n      pop\n      swap3\n      pop\n      swap3\n      jump\t// out\n        /* \"#utility.yul\":8073:8253   */\n    tag_87:\n        /* \"#utility.yul\":8121:8198   */\n      0x4e487b7100000000000000000000000000000000000000000000000000000000\n        /* \"#utility.yul\":8118:8119   */\n      0x00\n        /* \"#utility.yul\":8111:8199   */\n      mstore\n        /* \"#utility.yul\":8218:8222   */\n      0x11\n        /* \"#utility.yul\":8215:8216   */\n      0x04\n        /* \"#utility.yul\":8208:8223   */\n      mstore\n        /* \"#utility.yul\":8242:8246   */\n      0x24\n        /* \"#utility.yul\":8239:8240   */\n      0x00\n        /* \"#utility.yul\":8232:8247   */\n      revert\n        /* \"#utility.yul\":8259:8450   */\n    tag_42:\n        /* \"#utility.yul\":8299:8302   */\n      0x00\n        /* \"#utility.yul\":8318:8338   */\n      tag_196\n        /* \"#utility.yul\":8336:8337   */\n      dup3\n        /* \"#utility.yul\":8318:8338   */\n      tag_64\n      jump\t// in\n    tag_196:\n        /* \"#utility.yul\":8313:8338   */\n      swap2\n      pop\n        /* \"#utility.yul\":8352:8372   */\n      tag_197\n        /* \"#utility.yul\":8370:8371   */\n      dup4\n        /* \"#utility.yul\":8352:8372   */\n      tag_64\n      jump\t// in\n    tag_197:\n        /* \"#utility.yul\":8347:8372   */\n      swap3\n      pop\n        /* \"#utility.yul\":8395:8396   */\n      dup3\n        /* \"#utility.yul\":8392:8393   */\n      dup3\n        /* \"#utility.yul\":8388:8397   */\n      add\n        /* \"#utility.yul\":8381:8397   */\n      swap1\n      pop\n        /* \"#utility.yul\":8416:8419   */\n      dup1\n        /* \"#utility.yul\":8413:8414   */\n      dup3\n        /* \"#utility.yul\":8410:8420   */\n      gt\n        /* \"#utility.yul\":8407:8443   */\n      iszero\n      tag_198\n      jumpi\n        /* \"#utility.yul\":8423:8441   */\n      tag_199\n      tag_87\n      jump\t// in\n    tag_199:\n        /* \"#utility.yul\":8407:8443   */\n    tag_198:\n        /* \"#utility.yul\":8259:8450   */\n      swap3\n      swap2\n      pop\n      pop\n      jump\t// out\n        /* \"#utility.yul\":8456:8866   */\n    tag_44:\n        /* \"#utility.yul\":8496:8503   */\n      0x00\n        /* \"#utility.yul\":8519:8539   */\n      tag_201\n        /* \"#utility.yul\":8537:8538   */\n      dup3\n        /* \"#utility.yul\":8519:8539   */\n      tag_64\n      jump\t// in\n    tag_201:\n        /* \"#utility.yul\":8514:8539   */\n      swap2\n      pop\n        /* \"#utility.yul\":8553:8573   */\n      tag_202\n        /* \"#utility.yul\":8571:8572   */\n      dup4\n        /* \"#utility.yul\":8553:8573   */\n      tag_64\n      jump\t// in\n    tag_202:\n        /* \"#utility.yul\":8548:8573   */\n      swap3\n      pop\n        /* \"#utility.yul\":8608:8609   */\n      dup3\n        /* \"#utility.yul\":8605:8606   */\n      dup3\n        /* \"#utility.yul\":8601:8610   */\n      mul\n        /* \"#utility.yul\":8630:8660   */\n      tag_203\n        /* \"#utility.yul\":8648:8659   */\n      dup2\n        /* \"#utility.yul\":8630:8660   */\n      tag_64\n      jump\t// in\n    tag_203:\n        /* \"#utility.yul\":8619:8660   */\n      swap2\n      pop\n        /* \"#utility.yul\":8809:8810   */\n      dup3\n        /* \"#utility.yul\":8800:8807   */\n      dup3\n        /* \"#utility.yul\":8796:8811   */\n      div\n        /* \"#utility.yul\":8793:8794   */\n      dup5\n        /* \"#utility.yul\":8790:8812   */\n      eq\n        /* \"#utility.yul\":8770:8771   */\n      dup4\n        /* \"#utility.yul\":8763:8772   */\n      iszero\n        /* \"#utility.yul\":8743:8826   */\n      or\n        /* \"#utility.yul\":8720:8859   */\n      tag_204\n      jumpi\n        /* \"#utility.yul\":8839:8857   */\n      tag_205\n      tag_87\n      jump\t// in\n    tag_205:\n        /* \"#utility.yul\":8720:8859   */\n    tag_204:\n        /* \"#utility.yul\":8504:8866   */\n      pop\n        /* \"#utility.yul\":8456:8866   */\n      swap3\n      swap2\n      pop\n      pop\n      jump\t// out\n        /* \"#utility.yul\":8872:9052   */\n    tag_88:\n        /* \"#utility.yul\":8920:8997   */\n      0x4e487b7100000000000000000000000000000000000000000000000000000000\n        /* \"#utility.yul\":8917:8918   */\n      0x00\n        /* \"#utility.yul\":8910:8998   */\n      mstore\n        /* \"#utility.yul\":9017:9021   */\n      0x22\n        /* \"#utility.yul\":9014:9015   */\n      0x04\n        /* \"#utility.yul\":9007:9022   */\n      mstore\n        /* \"#utility.yul\":9041:9045   */\n      0x24\n        /* \"#utility.yul\":9038:9039   */\n      0x00\n        /* \"#utility.yul\":9031:9046   */\n      revert\n        /* \"#utility.yul\":9058:9378   */\n    tag_46:\n        /* \"#utility.yul\":9102:9108   */\n      0x00\n        /* \"#utility.yul\":9139:9140   */\n      0x02\n        /* \"#utility.yul\":9133:9137   */\n      dup3\n        /* \"#utility.yul\":9129:9141   */\n      div\n        /* \"#utility.yul\":9119:9141   */\n      swap1\n      pop\n        /* \"#utility.yul\":9186:9187   */\n      0x01\n        /* \"#utility.yul\":9180:9184   */\n      dup3\n        /* \"#utility.yul\":9176:9188   */\n      and\n        /* \"#utility.yul\":9207:9225   */\n      dup1\n        /* \"#utility.yul\":9197:9278   */\n      tag_208\n      jumpi\n        /* \"#utility.yul\":9263:9267   */\n      0x7f\n        /* \"#utility.yul\":9255:9261   */\n      dup3\n        /* \"#utility.yul\":9251:9268   */\n      and\n        /* \"#utility.yul\":9241:9268   */\n      swap2\n      pop\n        /* \"#utility.yul\":9197:9278   */\n    tag_208:\n        /* \"#utility.yul\":9325:9327   */\n      0x20\n        /* \"#utility.yul\":9317:9323   */\n      dup3\n        /* \"#utility.yul\":9314:9328   */\n      lt\n        /* \"#utility.yul\":9294:9312   */\n      dup2\n        /* \"#utility.yul\":9291:9329   */\n      sub\n        /* \"#utility.yul\":9288:9372   */\n      tag_209\n      jumpi\n        /* \"#utility.yul\":9344:9362   */\n      tag_210\n      tag_88\n      jump\t// in\n    tag_210:\n        /* \"#utility.yul\":9288:9372   */\n    tag_209:\n        /* \"#utility.yul\":9109:9378   */\n      pop\n        /* \"#utility.yul\":9058:9378   */\n      swap2\n      swap1\n      pop\n      jump\t// out\n        /* \"#utility.yul\":9384:9525   */\n    tag_89:\n        /* \"#utility.yul\":9433:9437   */\n      0x00\n        /* \"#utility.yul\":9456:9459   */\n      dup2\n        /* \"#utility.yul\":9448:9459   */\n      swap1\n      pop\n        /* \"#utility.yul\":9479:9482   */\n      dup2\n        /* \"#utility.yul\":9476:9477   */\n      0x00\n        /* \"#utility.yul\":9469:9483   */\n      mstore\n        /* \"#utility.yul\":9513:9517   */\n      0x20\n        /* \"#utility.yul\":9510:9511   */\n      0x00\n        /* \"#utility.yul\":9500:9518   */\n      keccak256\n        /* \"#utility.yul\":9492:9518   */\n      swap1\n      pop\n        /* \"#utility.yul\":9384:9525   */\n      swap2\n      swap1\n      pop\n      jump\t// out\n        /* \"#utility.yul\":9531:9624   */\n    tag_90:\n        /* \"#utility.yul\":9568:9574   */\n      0x00\n        /* \"#utility.yul\":9615:9617   */\n      0x20\n        /* \"#utility.yul\":9610:9612   */\n      0x1f\n        /* \"#utility.yul\":9603:9608   */\n      dup4\n        /* \"#utility.yul\":9599:9613   */\n      add\n        /* \"#utility.yul\":9595:9618   */\n      div\n        /* \"#utility.yul\":9585:9618   */\n      swap1\n      pop\n        /* \"#utility.yul\":9531:9624   */\n      swap2\n      swap1\n      pop\n      jump\t// out\n        /* \"#utility.yul\":9630:9737   */\n    tag_91:\n        /* \"#utility.yul\":9674:9682   */\n      0x00\n        /* \"#utility.yul\":9724:9729   */\n      dup3\n        /* \"#utility.yul\":9718:9722   */\n      dup3\n        /* \"#utility.yul\":9714:9730   */\n      shl\n        /* \"#utility.yul\":9693:9730   */\n      swap1\n      pop\n        /* \"#utility.yul\":9630:9737   */\n      swap3\n      swap2\n      pop\n      pop\n      jump\t// out\n        /* \"#utility.yul\":9743:10136   */\n    tag_92:\n        /* \"#utility.yul\":9812:9818   */\n      0x00\n        /* \"#utility.yul\":9862:9863   */\n      0x08\n        /* \"#utility.yul\":9850:9860   */\n      dup4\n        /* \"#utility.yul\":9846:9864   */\n      mul\n        /* \"#utility.yul\":9885:9982   */\n      tag_215\n        /* \"#utility.yul\":9915:9981   */\n      0xffffffffffffffffffffffffffffffffffffffffffffffffffffffffffffffff\n        /* \"#utility.yul\":9904:9913   */\n      dup3\n        /* \"#utility.yul\":9885:9982   */\n      tag_91\n      jump\t// in\n    tag_215:\n        /* \"#utility.yul\":10003:10042   */\n      tag_216\n        /* \"#utility.yul\":10033:10041   */\n      dup7\n        /* \"#utility.yul\":10022:10031   */\n      dup4\n        /* \"#utility.yul\":10003:10042   */\n      tag_91\n      jump\t// in\n    tag_216:\n        /* \"#utility.yul\":9991:10042   */\n      swap6\n      pop\n        /* \"#utility.yul\":10075:10079   */\n      dup1\n        /* \"#utility.yul\":10071:10080   */\n      not\n        /* \"#utility.yul\":10064:10069   */\n      dup5\n        /* \"#utility.yul\":10060:10081   */\n      and\n        /* \"#utility.yul\":10051:10081   */\n      swap4\n      pop\n        /* \"#utility.yul\":10124:10128   */\n      dup1\n        /* \"#utility.yul\":10114:10122   */\n      dup7\n        /* \"#utility.yul\":10110:10129   */\n      and\n        /* \"#utility.yul\":10103:10108   */\n      dup5\n        /* \"#utility.yul\":10100:10130   */\n      or\n        /* \"#utility.yul\":10090:10130   */\n      swap3\n      pop\n        /* \"#utility.yul\":9819:10136   */\n      pop\n      pop\n        /* \"#utility.yul\":9743:10136   */\n      swap4\n      swap3\n      pop\n      pop\n      pop\n      jump\t// out\n        /* \"#utility.yul\":10142:10202   */\n    tag_93:\n        /* \"#utility.yul\":10170:10173   */\n      0x00\n        /* \"#utility.yul\":10191:10196   */\n      dup2\n        /* \"#utility.yul\":10184:10196   */\n      swap1\n      pop\n        /* \"#utility.yul\":10142:10202   */\n      swap2\n      swap1\n      pop\n      jump\t// out\n        /* \"#utility.yul\":10208:10350   */\n    tag_94:\n        /* \"#utility.yul\":10258:10267   */\n      0x00\n        /* \"#utility.yul\":10291:10344   */\n      tag_219\n        /* \"#utility.yul\":10309:10343   */\n      tag_220\n        /* \"#utility.yul\":10318:10342   */\n      tag_221\n        /* \"#utility.yul\":10336:10341   */\n      dup5\n        /* \"#utility.yul\":10318:10342   */\n      tag_64\n      jump\t// in\n    tag_221:\n        /* \"#utility.yul\":10309:10343   */\n      tag_93\n      jump\t// in\n    tag_220:\n        /* \"#utility.yul\":10291:10344   */\n      tag_64\n      jump\t// in\n    tag_219:\n        /* \"#utility.yul\":10278:10344   */\n      swap1\n      pop\n        /* \"#utility.yul\":10208:10350   */\n      swap2\n      swap1\n      pop\n      jump\t// out\n        /* \"#utility.yul\":10356:10431   */\n    tag_95:\n        /* \"#utility.yul\":10399:10402   */\n      0x00\n        /* \"#utility.yul\":10420:10425   */\n      dup2\n        /* \"#utility.yul\":10413:10425   */\n      swap1\n      pop\n        /* \"#utility.yul\":10356:10431   */\n      swap2\n      swap1\n      pop\n      jump\t// out\n        /* \"#utility.yul\":10437:10706   */\n    tag_96:\n        /* \"#utility.yul\":10547:10586   */\n      tag_224\n        /* \"#utility.yul\":10578:10585   */\n      dup4\n        /* \"#utility.yul\":10547:10586   */\n      tag_94\n      jump\t// in\n    tag_224:\n        /* \"#utility.yul\":10608:10699   */\n      tag_225\n        /* \"#utility.yul\":10657:10698   */\n      tag_226\n        /* \"#utility.yul\":10681:10697   */\n      dup3\n        /* \"#utility.yul\":10657:10698   */\n      tag_95\n      jump\t// in\n    tag_226:\n        /* \"#utility.yul\":10649:10655   */\n      dup5\n        /* \"#utility.yul\":10642:10646   */\n      dup5\n        /* \"#utility.yul\":10636:10647   */\n      sload\n        /* \"#utility.yul\":10608:10699   */\n      tag_92\n      jump\t// in\n    tag_225:\n        /* \"#utility.yul\":10602:10606   */\n      dup3\n        /* \"#utility.yul\":10595:10700   */\n      sstore\n        /* \"#utility.yul\":10513:10706   */\n      pop\n        /* \"#utility.yul\":10437:10706   */\n      pop\n      pop\n      pop\n      jump\t// out\n        /* \"#utility.yul\":10712:10785   */\n    tag_97:\n        /* \"#utility.yul\":10757:10760   */\n      0x00\n        /* \"#utility.yul\":10712:10785   */\n      swap1\n      jump\t// out\n        /* \"#utility.yul\":10791:10980   */\n    tag_98:\n        /* \"#utility.yul\":10868:10900   */\n      tag_229\n      tag_97\n      jump\t// in\n    tag_229:\n        /* \"#utility.yul\":10909:10974   */\n      tag_230\n        /* \"#utility.yul\":10967:10973   */\n      dup2\n        /* \"#utility.yul\":10959:10965   */\n      dup5\n        /* \"#utility.yul\":10953:10957   */\n      dup5\n        /* \"#utility.yul\":10909:10974   */\n      tag_96\n      jump\t// in\n    tag_230:\n        /* \"#utility.yul\":10844:10980   */\n      pop\n        /* \"#utility.yul\":10791:10980   */\n      pop\n      pop\n      jump\t// out\n        /* \"#utility.yul\":10986:11172   */\n    tag_99:\n        /* \"#utility.yul\":11046:11166   */\n    tag_232:\n        /* \"#utility.yul\":11063:11066   */\n      dup2\n        /* \"#utility.yul\":11056:11061   */\n      dup2\n        /* \"#utility.yul\":11053:11067   */\n      lt\n        /* \"#utility.yul\":11046:11166   */\n      iszero\n      tag_234\n      jumpi\n        /* \"#utility.yul\":11117:11156   */\n      tag_235\n        /* \"#utility.yul\":11154:11155   */\n      0x00\n        /* \"#utility.yul\":11147:11152   */\n      dup3\n        /* \"#utility.yul\":11117:11156   */\n      tag_98\n      jump\t// in\n    tag_235:\n        /* \"#utility.yul\":11090:11091   */\n      0x01\n        /* \"#utility.yul\":11083:11088   */\n      dup2\n        /* \"#utility.yul\":11079:11092   */\n      add\n        /* \"#utility.yul\":11070:11092   */\n      swap1\n      pop\n        /* \"#utility.yul\":11046:11166   */\n      jump(tag_232)\n    tag_234:\n        /* \"#utility.yul\":10986:11172   */\n      pop\n      pop\n      jump\t// out\n        /* \"#utility.yul\":11178:11721   */\n    tag_100:\n        /* \"#utility.yul\":11279:11281   */\n      0x1f\n        /* \"#utility.yul\":11274:11277   */\n      dup3\n        /* \"#utility.yul\":11271:11282   */\n      gt\n        /* \"#utility.yul\":11268:11714   */\n      iszero\n      tag_237\n      jumpi\n        /* \"#utility.yul\":11313:11351   */\n      tag_238\n        /* \"#utility.yul\":11345:11350   */\n      dup2\n        /* \"#utility.yul\":11313:11351   */\n      tag_89\n      jump\t// in\n    tag_238:\n        /* \"#utility.yul\":11397:11426   */\n      tag_239\n        /* \"#utility.yul\":11415:11425   */\n      dup5\n        /* \"#utility.yul\":11397:11426   */\n      tag_90\n      jump\t// in\n    tag_239:\n        /* \"#utility.yul\":11387:11395   */\n      dup2\n        /* \"#utility.yul\":11383:11427   */\n      add\n        /* \"#utility.yul\":11580:11582   */\n      0x20\n        /* \"#utility.yul\":11568:11578   */\n      dup6\n        /* \"#utility.yul\":11565:11583   */\n      lt\n        /* \"#utility.yul\":11562:11611   */\n      iszero\n      tag_240\n      jumpi\n        /* \"#utility.yul\":11601:11609   */\n      dup2\n        /* \"#utility.yul\":11586:11609   */\n      swap1\n      pop\n        /* \"#utility.yul\":11562:11611   */\n    tag_240:\n        /* \"#utility.yul\":11624:11704   */\n      tag_241\n        /* \"#utility.yul\":11680:11702   */\n      tag_242\n        /* \"#utility.yul\":11698:11701   */\n      dup6\n        /* \"#utility.yul\":11680:11702   */\n      tag_90\n      jump\t// in\n    tag_242:\n        /* \"#utility.yul\":11670:11678   */\n      dup4\n        /* \"#utility.yul\":11666:11703   */\n      add\n        /* \"#utility.yul\":11653:11664   */\n      dup3\n        /* \"#utility.yul\":11624:11704   */\n      tag_99\n      jump\t// in\n    tag_241:\n        /* \"#utility.yul\":11283:11714   */\n      pop\n      pop\n        /* \"#utility.yul\":11268:11714   */\n    tag_237:\n        /* \"#utility.yul\":11178:11721   */\n      pop\n      pop\n      pop\n      jump\t// out\n        /* \"#utility.yul\":11727:11844   */\n    tag_101:\n        /* \"#utility.yul\":11781:11789   */\n      0x00\n        /* \"#utility.yul\":11831:11836   */\n      dup3\n        /* \"#utility.yul\":11825:11829   */\n      dup3\n        /* \"#utility.yul\":11821:11837   */\n      shr\n        /* \"#utility.yul\":11800:11837   */\n      swap1\n      pop\n        /* \"#utility.yul\":11727:11844   */\n      swap3\n      swap2\n      pop\n      pop\n      jump\t// out\n        /* \"#utility.yul\":11850:12019   */\n    tag_102:\n        /* \"#utility.yul\":11894:11900   */\n      0x00\n        /* \"#utility.yul\":11927:11978   */\n      tag_245\n        /* \"#utility.yul\":11975:11976   */\n      0x00\n        /* \"#utility.yul\":11971:11977   */\n      not\n        /* \"#utility.yul\":11963:11968   */\n      dup5\n        /* \"#utility.yul\":11960:11961   */\n      0x08\n        /* \"#utility.yul\":11956:11969   */\n      mul\n        /* \"#utility.yul\":11927:11978   */\n      tag_101\n      jump\t// in\n    tag_245:\n        /* \"#utility.yul\":11923:11979   */\n      not\n        /* \"#utility.yul\":12008:12012   */\n      dup1\n        /* \"#utility.yul\":12002:12006   */\n      dup4\n        /* \"#utility.yul\":11998:12013   */\n      and\n        /* \"#utility.yul\":11988:12013   */\n      swap2\n      pop\n        /* \"#utility.yul\":11901:12019   */\n      pop\n        /* \"#utility.yul\":11850:12019   */\n      swap3\n      swap2\n      pop\n      pop\n      jump\t// out\n        /* \"#utility.yul\":12024:12319   */\n    tag_103:\n        /* \"#utility.yul\":12100:12104   */\n      0x00\n        /* \"#utility.yul\":12246:12275   */\n      tag_247\n        /* \"#utility.yul\":12271:12274   */\n      dup4\n        /* \"#utility.yul\":12265:12269   */\n      dup4\n        /* \"#utility.yul\":12246:12275   */\n      tag_102\n      jump\t// in\n    tag_247:\n        /* \"#utility.yul\":12238:12275   */\n      swap2\n      pop\n        /* \"#utility.yul\":12308:12311   */\n      dup3\n        /* \"#utility.yul\":12305:12306   */\n      0x02\n        /* \"#utility.yul\":12301:12312   */\n      mul\n        /* \"#utility.yul\":12295:12299   */\n      dup3\n        /* \"#utility.yul\":12292:12313   */\n      or\n        /* \"#utility.yul\":12284:12313   */\n      swap1\n      pop\n        /* \"#utility.yul\":12024:12319   */\n      swap3\n      swap2\n      pop\n      pop\n      jump\t// out\n        /* \"#utility.yul\":12324:13719   */\n    tag_60:\n        /* \"#utility.yul\":12441:12478   */\n      tag_249\n        /* \"#utility.yul\":12474:12477   */\n      dup3\n        /* \"#utility.yul\":12441:12478   */\n      tag_73\n      jump\t// in\n    tag_249:\n        /* \"#utility.yul\":12543:12561   */\n      0xffffffffffffffff\n        /* \"#utility.yul\":12535:12541   */\n      dup2\n        /* \"#utility.yul\":12532:12562   */\n      gt\n        /* \"#utility.yul\":12529:12585   */\n      iszero\n      tag_250\n      jumpi\n        /* \"#utility.yul\":12565:12583   */\n      tag_251\n      tag_80\n      jump\t// in\n    tag_251:\n        /* \"#utility.yul\":12529:12585   */\n    tag_250:\n        /* \"#utility.yul\":12609:12647   */\n      tag_252\n        /* \"#utility.yul\":12641:12645   */\n      dup3\n        /* \"#utility.yul\":12635:12646   */\n      sload\n        /* \"#utility.yul\":12609:12647   */\n      tag_46\n      jump\t// in\n    tag_252:\n        /* \"#utility.yul\":12694:12761   */\n      tag_253\n        /* \"#utility.yul\":12754:12760   */\n      dup3\n        /* \"#utility.yul\":12746:12752   */\n      dup3\n        /* \"#utility.yul\":12740:12744   */\n      dup6\n        /* \"#utility.yul\":12694:12761   */\n      tag_100\n      jump\t// in\n    tag_253:\n        /* \"#utility.yul\":12788:12789   */\n      0x00\n        /* \"#utility.yul\":12812:12816   */\n      0x20\n        /* \"#utility.yul\":12799:12816   */\n      swap1\n      pop\n        /* \"#utility.yul\":12844:12846   */\n      0x1f\n        /* \"#utility.yul\":12836:12842   */\n      dup4\n        /* \"#utility.yul\":12833:12847   */\n      gt\n        /* \"#utility.yul\":12861:12862   */\n      0x01\n        /* \"#utility.yul\":12856:13474   */\n      dup2\n      eq\n      tag_255\n      jumpi\n        /* \"#utility.yul\":13518:13519   */\n      0x00\n        /* \"#utility.yul\":13535:13541   */\n      dup5\n        /* \"#utility.yul\":13532:13609   */\n      iszero\n      tag_256\n      jumpi\n        /* \"#utility.yul\":13584:13593   */\n      dup3\n        /* \"#utility.yul\":13579:13582   */\n      dup8\n        /* \"#utility.yul\":13575:13594   */\n      add\n        /* \"#utility.yul\":13569:13595   */\n      mload\n        /* \"#utility.yul\":13560:13595   */\n      swap1\n      pop\n        /* \"#utility.yul\":13532:13609   */\n    tag_256:\n        /* \"#utility.yul\":13635:13702   */\n      tag_257\n        /* \"#utility.yul\":13695:13701   */\n      dup6\n        /* \"#utility.yul\":13688:13693   */\n      dup3\n        /* \"#utility.yul\":13635:13702   */\n      tag_103\n      jump\t// in\n    tag_257:\n        /* \"#utility.yul\":13629:13633   */\n      dup7\n        /* \"#utility.yul\":13622:13703   */\n      sstore\n        /* \"#utility.yul\":13491:13713   */\n      pop\n        /* \"#utility.yul\":12826:13713   */\n      jump(tag_254)\n        /* \"#utility.yul\":12856:13474   */\n    tag_255:\n        /* \"#utility.yul\":12908:12912   */\n      0x1f\n        /* \"#utility.yul\":12904:12913   */\n      not\n        /* \"#utility.yul\":12896:12902   */\n      dup5\n        /* \"#utility.yul\":12892:12914   */\n      and\n        /* \"#utility.yul\":12942:12979   */\n      tag_258\n        /* \"#utility.yul\":12974:12978   */\n      dup7\n        /* \"#utility.yul\":12942:12979   */\n      tag_89\n      jump\t// in\n    tag_258:\n        /* \"#utility.yul\":13001:13002   */\n      0x00\n        /* \"#utility.yul\":13015:13223   */\n    tag_259:\n        /* \"#utility.yul\":13029:13036   */\n      dup3\n        /* \"#utility.yul\":13026:13027   */\n      dup2\n        /* \"#utility.yul\":13023:13037   */\n      lt\n        /* \"#utility.yul\":13015:13223   */\n      iszero\n      tag_261\n      jumpi\n        /* \"#utility.yul\":13108:13117   */\n      dup5\n        /* \"#utility.yul\":13103:13106   */\n      dup10\n        /* \"#utility.yul\":13099:13118   */\n      add\n        /* \"#utility.yul\":13093:13119   */\n      mload\n        /* \"#utility.yul\":13085:13091   */\n      dup3\n        /* \"#utility.yul\":13078:13120   */\n      sstore\n        /* \"#utility.yul\":13159:13160   */\n      0x01\n        /* \"#utility.yul\":13151:13157   */\n      dup3\n        /* \"#utility.yul\":13147:13161   */\n      add\n        /* \"#utility.yul\":13137:13161   */\n      swap2\n      pop\n        /* \"#utility.yul\":13206:13208   */\n      0x20\n        /* \"#utility.yul\":13195:13204   */\n      dup6\n        /* \"#utility.yul\":13191:13209   */\n      add\n        /* \"#utility.yul\":13178:13209   */\n      swap5\n      pop\n        /* \"#utility.yul\":13052:13056   */\n      0x20\n        /* \"#utility.yul\":13049:13050   */\n      dup2\n        /* \"#utility.yul\":13045:13057   */\n      add\n        /* \"#utility.yul\":13040:13057   */\n      swap1\n      pop\n        /* \"#utility.yul\":13015:13223   */\n      jump(tag_259)\n    tag_261:\n        /* \"#utility.yul\":13251:13257   */\n      dup7\n        /* \"#utility.yul\":13242:13249   */\n      dup4\n        /* \"#utility.yul\":13239:13258   */\n      lt\n        /* \"#utility.yul\":13236:13415   */\n      iszero\n      tag_262\n      jumpi\n        /* \"#utility.yul\":13309:13318   */\n      dup5\n        /* \"#utility.yul\":13304:13307   */\n      dup10\n        /* \"#utility.yul\":13300:13319   */\n      add\n        /* \"#utility.yul\":13294:13320   */\n      mload\n        /* \"#utility.yul\":13352:13400   */\n      tag_263\n        /* \"#utility.yul\":13394:13398   */\n      0x1f\n        /* \"#utility.yul\":13386:13392   */\n      dup10\n        /* \"#utility.yul\":13382:13399   */\n      and\n        /* \"#utility.yul\":13371:13380   */\n      dup3\n        /* \"#utility.yul\":13352:13400   */\n      tag_102\n      jump\t// in\n    tag_263:\n        /* \"#utility.yul\":13344:13350   */\n      dup4\n        /* \"#utility.yul\":13337:13401   */\n      sstore\n        /* \"#utility.yul\":13259:13415   */\n      pop\n        /* \"#utility.yul\":13236:13415   */\n    tag_262:\n        /* \"#utility.yul\":13461:13462   */\n      0x01\n        /* \"#utility.yul\":13457:13458   */\n      0x02\n        /* \"#utility.yul\":13449:13455   */\n      dup9\n        /* \"#utility.yul\":13445:13459   */\n      mul\n        /* \"#utility.yul\":13441:13463   */\n      add\n        /* \"#utility.yul\":13435:13439   */\n      dup9\n        /* \"#utility.yul\":13428:13464   */\n      sstore\n        /* \"#utility.yul\":12863:13474   */\n      pop\n      pop\n      pop\n        /* \"#utility.yul\":12826:13713   */\n    tag_254:\n      pop\n        /* \"#utility.yul\":12416:13719   */\n      pop\n      pop\n      pop\n        /* \"#utility.yul\":12324:13719   */\n      pop\n      pop\n      jump\t// out\n\n    auxdata: 0xa2646970667358221220e417b2eb784a9c2fb448309e6204c3a6e914e3b29f02a4327ecac21f25273bb964736f6c634300081a0033\n}\n",
				"bytecode": {
					"linkReferences": {},
					"object": "60806040525f80553480156011575f80fd5b50610bd18061001f5f395ff3fe608060405260043610610042575f3560e01c8063771602f7146100bd578063a87430ba146100fa578063b0467deb14610138578063ca463c851461017557610082565b36610082577ff11e547d796cc64acdf758e7cee90439494fd886a19159454aa61e473fdbafef3334604051610078929190610478565b60405180910390a1005b7f49ae0d0a7cc59f733f20bb1944a3abfc8d83d39b9716280ac615250b777e40a633346040516100b3929190610478565b60405180910390a1005b3480156100c8575f80fd5b506100e360048036038101906100de91906104da565b61019d565b6040516100f1929190610518565b60405180910390f35b348015610105575f80fd5b50610120600480360381019061011b9190610569565b6101c2565b60405161012f93929190610604565b60405180910390f35b348015610143575f80fd5b5061015e60048036038101906101599190610640565b61026e565b60405161016c92919061066b565b60405180910390f35b348015610180575f80fd5b5061019b600480360381019061019691906107c5565b610373565b005b5f8082846101ab919061085e565b83856101b79190610891565b915091509250929050565b6002602052805f5260405f205f91509050805f0154908060010180546101e7906108ff565b80601f0160208091040260200160405190810160405280929190818152602001828054610213906108ff565b801561025e5780601f106102355761010080835404028352916020019161025e565b820191905f5260205f20905b81548152906001019060200180831161024157829003601f168201915b5050505050908060020154905083565b60605f8060025f3373ffffffffffffffffffffffffffffffffffffffff1673ffffffffffffffffffffffffffffffffffffffff1681526020019081526020015f206040518060600160405290815f82015481526020016001820180546102d3906108ff565b80601f01602080910402602001604051908101604052809291908181526020018280546102ff906108ff565b801561034a5780601f106103215761010080835404028352916020019161034a565b820191905f5260205f20905b81548152906001019060200180831161032d57829003601f168201915b505050505081526020016002820154815250509050806020015181604001519250925050915091565b600183908060018154018082558091505060019003905f5260205f20015f909190919091505560405180606001604052808481526020018381526020018281525060025f3373ffffffffffffffffffffffffffffffffffffffff1673ffffffffffffffffffffffffffffffffffffffff1681526020019081526020015f205f820151815f0155602082015181600101908161040e9190610acc565b5060408201518160020155905050505050565b5f73ffffffffffffffffffffffffffffffffffffffff82169050919050565b5f61044a82610421565b9050919050565b61045a81610440565b82525050565b5f819050919050565b61047281610460565b82525050565b5f60408201905061048b5f830185610451565b6104986020830184610469565b9392505050565b5f604051905090565b5f80fd5b5f80fd5b6104b981610460565b81146104c3575f80fd5b50565b5f813590506104d4816104b0565b92915050565b5f80604083850312156104f0576104ef6104a8565b5b5f6104fd858286016104c6565b925050602061050e858286016104c6565b9150509250929050565b5f60408201905061052b5f830185610469565b6105386020830184610469565b9392505050565b61054881610440565b8114610552575f80fd5b50565b5f813590506105638161053f565b92915050565b5f6020828403121561057e5761057d6104a8565b5b5f61058b84828501610555565b91505092915050565b5f81519050919050565b5f82825260208201905092915050565b8281835e5f83830152505050565b5f601f19601f8301169050919050565b5f6105d682610594565b6105e0818561059e565b93506105f08185602086016105ae565b6105f9816105bc565b840191505092915050565b5f6060820190506106175f830186610469565b818103602083015261062981856105cc565b90506106386040830184610469565b949350505050565b5f60208284031215610655576106546104a8565b5b5f610662848285016104c6565b91505092915050565b5f6040820190508181035f83015261068381856105cc565b90506106926020830184610469565b9392505050565b5f80fd5b5f80fd5b7f4e487b71000000000000000000000000000000000000000000000000000000005f52604160045260245ffd5b6106d7826105bc565b810181811067ffffffffffffffff821117156106f6576106f56106a1565b5b80604052505050565b5f61070861049f565b905061071482826106ce565b919050565b5f67ffffffffffffffff821115610733576107326106a1565b5b61073c826105bc565b9050602081019050919050565b828183375f83830152505050565b5f61076961076484610719565b6106ff565b9050828152602081018484840111156107855761078461069d565b5b610790848285610749565b509392505050565b5f82601f8301126107ac576107ab610699565b5b81356107bc848260208601610757565b91505092915050565b5f805f606084860312156107dc576107db6104a8565b5b5f6107e9868287016104c6565b935050602084013567ffffffffffffffff81111561080a576108096104ac565b5b61081686828701610798565b9250506040610827868287016104c6565b9150509250925092565b7f4e487b71000000000000000000000000000000000000000000000000000000005f52601160045260245ffd5b5f61086882610460565b915061087383610460565b925082820190508082111561088b5761088a610831565b5b92915050565b5f61089b82610460565b91506108a683610460565b92508282026108b481610460565b915082820484148315176108cb576108ca610831565b5b5092915050565b7f4e487b71000000000000000000000000000000000000000000000000000000005f52602260045260245ffd5b5f600282049050600182168061091657607f821691505b602082108103610929576109286108d2565b5b50919050565b5f819050815f5260205f209050919050565b5f6020601f8301049050919050565b5f82821b905092915050565b5f6008830261098b7fffffffffffffffffffffffffffffffffffffffffffffffffffffffffffffffff82610950565b6109958683610950565b95508019841693508086168417925050509392505050565b5f819050919050565b5f6109d06109cb6109c684610460565b6109ad565b610460565b9050919050565b5f819050919050565b6109e9836109b6565b6109fd6109f5826109d7565b84845461095c565b825550505050565b5f90565b610a11610a05565b610a1c8184846109e0565b505050565b5b81811015610a3f57610a345f82610a09565b600181019050610a22565b5050565b601f821115610a8457610a558161092f565b610a5e84610941565b81016020851015610a6d578190505b610a81610a7985610941565b830182610a21565b50505b505050565b5f82821c905092915050565b5f610aa45f1984600802610a89565b1980831691505092915050565b5f610abc8383610a95565b9150826002028217905092915050565b610ad582610594565b67ffffffffffffffff811115610aee57610aed6106a1565b5b610af882546108ff565b610b03828285610a43565b5f60209050601f831160018114610b34575f8415610b22578287015190505b610b2c8582610ab1565b865550610b93565b601f198416610b428661092f565b5f5b82811015610b6957848901518255600182019150602085019450602081019050610b44565b86831015610b865784890151610b82601f891682610a95565b8355505b6001600288020188555050505b50505050505056fea2646970667358221220e417b2eb784a9c2fb448309e6204c3a6e914e3b29f02a4327ecac21f25273bb964736f6c634300081a0033",
					"opcodes": "PUSH1 0x80 PUSH1 0x40 MSTORE PUSH0 DUP1 SSTORE CALLVALUE DUP1 ISZERO PUSH1 0x11 JUMPI PUSH0 DUP1 REVERT JUMPDEST POP PUSH2 0xBD1 DUP1 PUSH2 0x1F PUSH0 CODECOPY PUSH0 RETURN INVALID PUSH1 0x80 PUSH1 0x40 MSTORE PUSH1 0x4 CALLDATASIZE LT PUSH2 0x42 JUMPI PUSH0 CALLDATALOAD PUSH1 0xE0 SHR DUP1 PUSH4 0x771602F7 EQ PUSH2 0xBD JUMPI DUP1 PUSH4 0xA87430BA EQ PUSH2 0xFA JUMPI DUP1 PUSH4 0xB0467DEB EQ PUSH2 0x138 JUMPI DUP1 PUSH4 0xCA463C85 EQ PUSH2 0x175 JUMPI PUSH2 0x82 JUMP JUMPDEST CALLDATASIZE PUSH2 0x82 JUMPI PUSH32 0xF11E547D796CC64ACDF758E7CEE90439494FD886A19159454AA61E473FDBAFEF CALLER CALLVALUE PUSH1 0x40 MLOAD PUSH2 0x78 SWAP3 SWAP2 SWAP1 PUSH2 0x478 JUMP JUMPDEST PUSH1 0x40 MLOAD DUP1 SWAP2 SUB SWAP1 LOG1 STOP JUMPDEST PUSH32 0x49AE0D0A7CC59F733F20BB1944A3ABFC8D83D39B9716280AC615250B777E40A6 CALLER CALLVALUE PUSH1 0x40 MLOAD PUSH2 0xB3 SWAP3 SWAP2 SWAP1 PUSH2 0x478 JUMP JUMPDEST PUSH1 0x40 MLOAD DUP1 SWAP2 SUB SWAP1 LOG1 STOP JUMPDEST CALLVALUE DUP1 ISZERO PUSH2 0xC8 JUMPI PUSH0 DUP1 REVERT JUMPDEST POP PUSH2 0xE3 PUSH1 0x4 DUP1 CALLDATASIZE SUB DUP2 ADD SWAP1 PUSH2 0xDE SWAP2 SWAP1 PUSH2 0x4DA JUMP JUMPDEST PUSH2 0x19D JUMP JUMPDEST PUSH1 0x40 MLOAD PUSH2 0xF1 SWAP3 SWAP2 SWAP1 PUSH2 0x518 JUMP JUMPDEST PUSH1 0x40 MLOAD DUP1 SWAP2 SUB SWAP1 RETURN JUMPDEST CALLVALUE DUP1 ISZERO PUSH2 0x105 JUMPI PUSH0 DUP1 REVERT JUMPDEST POP PUSH2 0x120 PUSH1 0x4 DUP1 CALLDATASIZE SUB DUP2 ADD SWAP1 PUSH2 0x11B SWAP2 SWAP1 PUSH2 0x569 JUMP JUMPDEST PUSH2 0x1C2 JUMP JUMPDEST PUSH1 0x40 MLOAD PUSH2 0x12F SWAP4 SWAP3 SWAP2 SWAP1 PUSH2 0x604 JUMP JUMPDEST PUSH1 0x40 MLOAD DUP1 SWAP2 SUB SWAP1 RETURN JUMPDEST CALLVALUE DUP1 ISZERO PUSH2 0x143 JUMPI PUSH0 DUP1 REVERT JUMPDEST POP PUSH2 0x15E PUSH1 0x4 DUP1 CALLDATASIZE SUB DUP2 ADD SWAP1 PUSH2 0x159 SWAP2 SWAP1 PUSH2 0x640 JUMP JUMPDEST PUSH2 0x26E JUMP JUMPDEST PUSH1 0x40 MLOAD PUSH2 0x16C SWAP3 SWAP2 SWAP1 PUSH2 0x66B JUMP JUMPDEST PUSH1 0x40 MLOAD DUP1 SWAP2 SUB SWAP1 RETURN JUMPDEST CALLVALUE DUP1 ISZERO PUSH2 0x180 JUMPI PUSH0 DUP1 REVERT JUMPDEST POP PUSH2 0x19B PUSH1 0x4 DUP1 CALLDATASIZE SUB DUP2 ADD SWAP1 PUSH2 0x196 SWAP2 SWAP1 PUSH2 0x7C5 JUMP JUMPDEST PUSH2 0x373 JUMP JUMPDEST STOP JUMPDEST PUSH0 DUP1 DUP3 DUP5 PUSH2 0x1AB SWAP2 SWAP1 PUSH2 0x85E JUMP JUMPDEST DUP4 DUP6 PUSH2 0x1B7 SWAP2 SWAP1 PUSH2 0x891 JUMP JUMPDEST SWAP2 POP SWAP2 POP SWAP3 POP SWAP3 SWAP1 POP JUMP JUMPDEST PUSH1 0x2 PUSH1 0x20 MSTORE DUP1 PUSH0 MSTORE PUSH1 0x40 PUSH0 KECCAK256 PUSH0 SWAP2 POP SWAP1 POP DUP1 PUSH0 ADD SLOAD SWAP1 DUP1 PUSH1 0x1 ADD DUP1 SLOAD PUSH2 0x1E7 SWAP1 PUSH2 0x8FF JUMP JUMPDEST DUP1 PUSH1 0x1F ADD PUSH1 0x20 DUP1 SWAP2 DIV MUL PUSH1 0x20 ADD PUSH1 0x40 MLOAD SWAP1 DUP2 ADD PUSH1 0x40 MSTORE DUP1 SWAP3 SWAP2 SWAP1 DUP2 DUP2 MSTORE PUSH1 0x20 ADD DUP3 DUP1 SLOAD PUSH2 0x213 SWAP1 PUSH2 0x8FF JUMP JUMPDEST DUP1 ISZERO PUSH2 0x25E JUMPI DUP1 PUSH1 0x1F LT PUSH2 0x235 JUMPI PUSH2 0x100 DUP1 DUP4 SLOAD DIV MUL DUP4 MSTORE SWAP2 PUSH1 0x20 ADD SWAP2 PUSH2 0x25E JUMP JUMPDEST DUP3 ADD SWAP2 SWAP1 PUSH0 MSTORE PUSH1 0x20 PUSH0 KECCAK256 SWAP1 JUMPDEST DUP2 SLOAD DUP2 MSTORE SWAP1 PUSH1 0x1 ADD SWAP1 PUSH1 0x20 ADD DUP1 DUP4 GT PUSH2 0x241 JUMPI DUP3 SWAP1 SUB PUSH1 0x1F AND DUP3 ADD SWAP2 JUMPDEST POP POP POP POP POP SWAP1 DUP1 PUSH1 0x2 ADD SLOAD SWAP1 POP DUP4 JUMP JUMPDEST PUSH1 0x60 PUSH0 DUP1 PUSH1 0x2 PUSH0 CALLER PUSH20 0xFFFFFFFFFFFFFFFFFFFFFFFFFFFFFFFFFFFFFFFF AND PUSH20 0xFFFFFFFFFFFFFFFFFFFFFFFFFFFFFFFFFFFFFFFF AND DUP2 MSTORE PUSH1 0x20 ADD SWAP1 DUP2 MSTORE PUSH1 0x20 ADD PUSH0 KECCAK256 PUSH1 0x40 MLOAD DUP1 PUSH1 0x60 ADD PUSH1 0x40 MSTORE SWAP1 DUP2 PUSH0 DUP3 ADD SLOAD DUP2 MSTORE PUSH1 0x20 ADD PUSH1 0x1 DUP3 ADD DUP1 SLOAD PUSH2 0x2D3 SWAP1 PUSH2 0x8FF JUMP JUMPDEST DUP1 PUSH1 0x1F ADD PUSH1 0x20 DUP1 SWAP2 DIV MUL PUSH1 0x20 ADD PUSH1 0x40 MLOAD SWAP1 DUP2 ADD PUSH1 0x40 MSTORE DUP1 SWAP3 SWAP2 SWAP1 DUP2 DUP2 MSTORE PUSH1 0x20 ADD DUP3 DUP1 SLOAD PUSH2 0x2FF SWAP1 PUSH2 0x8FF JUMP JUMPDEST DUP1 ISZERO PUSH2 0x34A JUMPI DUP1 PUSH1 0x1F LT PUSH2 0x321 JUMPI PUSH2 0x100 DUP1 DUP4 SLOAD DIV MUL DUP4 MSTORE SWAP2 PUSH1 0x20 ADD SWAP2 PUSH2 0x34A JUMP JUMPDEST DUP3 ADD SWAP2 SWAP1 PUSH0 MSTORE PUSH1 0x20 PUSH0 KECCAK256 SWAP1 JUMPDEST DUP2 SLOAD DUP2 MSTORE SWAP1 PUSH1 0x1 ADD SWAP1 PUSH1 0x20 ADD DUP1 DUP4 GT PUSH2 0x32D JUMPI DUP3 SWAP1 SUB PUSH1 0x1F AND DUP3 ADD SWAP2 JUMPDEST POP POP POP POP POP DUP2 MSTORE PUSH1 0x20 ADD PUSH1 0x2 DUP3 ADD SLOAD DUP2 MSTORE POP POP SWAP1 POP DUP1 PUSH1 0x20 ADD MLOAD DUP2 PUSH1 0x40 ADD MLOAD SWAP3 POP SWAP3 POP POP SWAP2 POP SWAP2 JUMP JUMPDEST PUSH1 0x1 DUP4 SWAP1 DUP1 PUSH1 0x1 DUP2 SLOAD ADD DUP1 DUP3 SSTORE DUP1 SWAP2 POP POP PUSH1 0x1 SWAP1 SUB SWAP1 PUSH0 MSTORE PUSH1 0x20 PUSH0 KECCAK256 ADD PUSH0 SWAP1 SWAP2 SWAP1 SWAP2 SWAP1 SWAP2 POP SSTORE PUSH1 0x40 MLOAD DUP1 PUSH1 0x60 ADD PUSH1 0x40 MSTORE DUP1 DUP5 DUP2 MSTORE PUSH1 0x20 ADD DUP4 DUP2 MSTORE PUSH1 0x20 ADD DUP3 DUP2 MSTORE POP PUSH1 0x2 PUSH0 CALLER PUSH20 0xFFFFFFFFFFFFFFFFFFFFFFFFFFFFFFFFFFFFFFFF AND PUSH20 0xFFFFFFFFFFFFFFFFFFFFFFFFFFFFFFFFFFFFFFFF AND DUP2 MSTORE PUSH1 0x20 ADD SWAP1 DUP2 MSTORE PUSH1 0x20 ADD PUSH0 KECCAK256 PUSH0 DUP3 ADD MLOAD DUP2 PUSH0 ADD SSTORE PUSH1 0x20 DUP3 ADD MLOAD DUP2 PUSH1 0x1 ADD SWAP1 DUP2 PUSH2 0x40E SWAP2 SWAP1 PUSH2 0xACC JUMP JUMPDEST POP PUSH1 0x40 DUP3 ADD MLOAD DUP2 PUSH1 0x2 ADD SSTORE SWAP1 POP POP POP POP POP JUMP JUMPDEST PUSH0 PUSH20 0xFFFFFFFFFFFFFFFFFFFFFFFFFFFFFFFFFFFFFFFF DUP3 AND SWAP1 POP SWAP2 SWAP1 POP JUMP JUMPDEST PUSH0 PUSH2 0x44A DUP3 PUSH2 0x421 JUMP JUMPDEST SWAP1 POP SWAP2 SWAP1 POP JUMP JUMPDEST PUSH2 0x45A DUP2 PUSH2 0x440 JUMP JUMPDEST DUP3 MSTORE POP POP JUMP JUMPDEST PUSH0 DUP2 SWAP1 POP SWAP2 SWAP1 POP JUMP JUMPDEST PUSH2 0x472 DUP2 PUSH2 0x460 JUMP JUMPDEST DUP3 MSTORE POP POP JUMP JUMPDEST PUSH0 PUSH1 0x40 DUP3 ADD SWAP1 POP PUSH2 0x48B PUSH0 DUP4 ADD DUP6 PUSH2 0x451 JUMP JUMPDEST PUSH2 0x498 PUSH1 0x20 DUP4 ADD DUP5 PUSH2 0x469 JUMP JUMPDEST SWAP4 SWAP3 POP POP POP JUMP JUMPDEST PUSH0 PUSH1 0x40 MLOAD SWAP1 POP SWAP1 JUMP JUMPDEST PUSH0 DUP1 REVERT JUMPDEST PUSH0 DUP1 REVERT JUMPDEST PUSH2 0x4B9 DUP2 PUSH2 0x460 JUMP JUMPDEST DUP2 EQ PUSH2 0x4C3 JUMPI PUSH0 DUP1 REVERT JUMPDEST POP JUMP JUMPDEST PUSH0 DUP2 CALLDATALOAD SWAP1 POP PUSH2 0x4D4 DUP2 PUSH2 0x4B0 JUMP JUMPDEST SWAP3 SWAP2 POP POP JUMP JUMPDEST PUSH0 DUP1 PUSH1 0x40 DUP4 DUP6 SUB SLT ISZERO PUSH2 0x4F0 JUMPI PUSH2 0x4EF PUSH2 0x4A8 JUMP JUMPDEST JUMPDEST PUSH0 PUSH2 0x4FD DUP6 DUP3 DUP7 ADD PUSH2 0x4C6 JUMP JUMPDEST SWAP3 POP POP PUSH1 0x20 PUSH2 0x50E DUP6 DUP3 DUP7 ADD PUSH2 0x4C6 JUMP JUMPDEST SWAP2 POP POP SWAP3 POP SWAP3 SWAP1 POP JUMP JUMPDEST PUSH0 PUSH1 0x40 DUP3 ADD SWAP1 POP PUSH2 0x52B PUSH0 DUP4 ADD DUP6 PUSH2 0x469 JUMP JUMPDEST PUSH2 0x538 PUSH1 0x20 DUP4 ADD DUP5 PUSH2 0x469 JUMP JUMPDEST SWAP4 SWAP3 POP POP POP JUMP JUMPDEST PUSH2 0x548 DUP2 PUSH2 0x440 JUMP JUMPDEST DUP2 EQ PUSH2 0x552 JUMPI PUSH0 DUP1 REVERT JUMPDEST POP JUMP JUMPDEST PUSH0 DUP2 CALLDATALOAD SWAP1 POP PUSH2 0x563 DUP2 PUSH2 0x53F JUMP JUMPDEST SWAP3 SWAP2 POP POP JUMP JUMPDEST PUSH0 PUSH1 0x20 DUP3 DUP5 SUB SLT ISZERO PUSH2 0x57E JUMPI PUSH2 0x57D PUSH2 0x4A8 JUMP JUMPDEST JUMPDEST PUSH0 PUSH2 0x58B DUP5 DUP3 DUP6 ADD PUSH2 0x555 JUMP JUMPDEST SWAP2 POP POP SWAP3 SWAP2 POP POP JUMP JUMPDEST PUSH0 DUP2 MLOAD SWAP1 POP SWAP2 SWAP1 POP JUMP JUMPDEST PUSH0 DUP3 DUP3 MSTORE PUSH1 0x20 DUP3 ADD SWAP1 POP SWAP3 SWAP2 POP POP JUMP JUMPDEST DUP3 DUP2 DUP4 MCOPY PUSH0 DUP4 DUP4 ADD MSTORE POP POP POP JUMP JUMPDEST PUSH0 PUSH1 0x1F NOT PUSH1 0x1F DUP4 ADD AND SWAP1 POP SWAP2 SWAP1 POP JUMP JUMPDEST PUSH0 PUSH2 0x5D6 DUP3 PUSH2 0x594 JUMP JUMPDEST PUSH2 0x5E0 DUP2 DUP6 PUSH2 0x59E JUMP JUMPDEST SWAP4 POP PUSH2 0x5F0 DUP2 DUP6 PUSH1 0x20 DUP7 ADD PUSH2 0x5AE JUMP JUMPDEST PUSH2 0x5F9 DUP2 PUSH2 0x5BC JUMP JUMPDEST DUP5 ADD SWAP2 POP POP SWAP3 SWAP2 POP POP JUMP JUMPDEST PUSH0 PUSH1 0x60 DUP3 ADD SWAP1 POP PUSH2 0x617 PUSH0 DUP4 ADD DUP7 PUSH2 0x469 JUMP JUMPDEST DUP2 DUP2 SUB PUSH1 0x20 DUP4 ADD MSTORE PUSH2 0x629 DUP2 DUP6 PUSH2 0x5CC JUMP JUMPDEST SWAP1 POP PUSH2 0x638 PUSH1 0x40 DUP4 ADD DUP5 PUSH2 0x469 JUMP JUMPDEST SWAP5 SWAP4 POP POP POP POP JUMP JUMPDEST PUSH0 PUSH1 0x20 DUP3 DUP5 SUB SLT ISZERO PUSH2 0x655 JUMPI PUSH2 0x654 PUSH2 0x4A8 JUMP JUMPDEST JUMPDEST PUSH0 PUSH2 0x662 DUP5 DUP3 DUP6 ADD PUSH2 0x4C6 JUMP JUMPDEST SWAP2 POP POP SWAP3 SWAP2 POP POP JUMP JUMPDEST PUSH0 PUSH1 0x40 DUP3 ADD SWAP1 POP DUP2 DUP2 SUB PUSH0 DUP4 ADD MSTORE PUSH2 0x683 DUP2 DUP6 PUSH2 0x5CC JUMP JUMPDEST SWAP1 POP PUSH2 0x692 PUSH1 0x20 DUP4 ADD DUP5 PUSH2 0x469 JUMP JUMPDEST SWAP4 SWAP3 POP POP POP JUMP JUMPDEST PUSH0 DUP1 REVERT JUMPDEST PUSH0 DUP1 REVERT JUMPDEST PUSH32 0x4E487B7100000000000000000000000000000000000000000000000000000000 PUSH0 MSTORE PUSH1 0x41 PUSH1 0x4 MSTORE PUSH1 0x24 PUSH0 REVERT JUMPDEST PUSH2 0x6D7 DUP3 PUSH2 0x5BC JUMP JUMPDEST DUP2 ADD DUP2 DUP2 LT PUSH8 0xFFFFFFFFFFFFFFFF DUP3 GT OR ISZERO PUSH2 0x6F6 JUMPI PUSH2 0x6F5 PUSH2 0x6A1 JUMP JUMPDEST JUMPDEST DUP1 PUSH1 0x40 MSTORE POP POP POP JUMP JUMPDEST PUSH0 PUSH2 0x708 PUSH2 0x49F JUMP JUMPDEST SWAP1 POP PUSH2 0x714 DUP3 DUP3 PUSH2 0x6CE JUMP JUMPDEST SWAP2 SWAP1 POP JUMP JUMPDEST PUSH0 PUSH8 0xFFFFFFFFFFFFFFFF DUP3 GT ISZERO PUSH2 0x733 JUMPI PUSH2 0x732 PUSH2 0x6A1 JUMP JUMPDEST JUMPDEST PUSH2 0x73C DUP3 PUSH2 0x5BC JUMP JUMPDEST SWAP1 POP PUSH1 0x20 DUP2 ADD SWAP1 POP SWAP2 SWAP1 POP JUMP JUMPDEST DUP3 DUP2 DUP4 CALLDATACOPY PUSH0 DUP4 DUP4 ADD MSTORE POP POP POP JUMP JUMPDEST PUSH0 PUSH2 0x769 PUSH2 0x764 DUP5 PUSH2 0x719 JUMP JUMPDEST PUSH2 0x6FF JUMP JUMPDEST SWAP1 POP DUP3 DUP2 MSTORE PUSH1 0x20 DUP2 ADD DUP5 DUP5 DUP5 ADD GT ISZERO PUSH2 0x785 JUMPI PUSH2 0x784 PUSH2 0x69D JUMP JUMPDEST JUMPDEST PUSH2 0x790 DUP5 DUP3 DUP6 PUSH2 0x749 JUMP JUMPDEST POP SWAP4 SWAP3 POP POP POP JUMP JUMPDEST PUSH0 DUP3 PUSH1 0x1F DUP4 ADD SLT PUSH2 0x7AC JUMPI PUSH2 0x7AB PUSH2 0x699 JUMP JUMPDEST JUMPDEST DUP2 CALLDATALOAD PUSH2 0x7BC DUP5 DUP3 PUSH1 0x20 DUP7 ADD PUSH2 0x757 JUMP JUMPDEST SWAP2 POP POP SWAP3 SWAP2 POP POP JUMP JUMPDEST PUSH0 DUP1 PUSH0 PUSH1 0x60 DUP5 DUP7 SUB SLT ISZERO PUSH2 0x7DC JUMPI PUSH2 0x7DB PUSH2 0x4A8 JUMP JUMPDEST JUMPDEST PUSH0 PUSH2 0x7E9 DUP7 DUP3 DUP8 ADD PUSH2 0x4C6 JUMP JUMPDEST SWAP4 POP POP PUSH1 0x20 DUP5 ADD CALLDATALOAD PUSH8 0xFFFFFFFFFFFFFFFF DUP2 GT ISZERO PUSH2 0x80A JUMPI PUSH2 0x809 PUSH2 0x4AC JUMP JUMPDEST JUMPDEST PUSH2 0x816 DUP7 DUP3 DUP8 ADD PUSH2 0x798 JUMP JUMPDEST SWAP3 POP POP PUSH1 0x40 PUSH2 0x827 DUP7 DUP3 DUP8 ADD PUSH2 0x4C6 JUMP JUMPDEST SWAP2 POP POP SWAP3 POP SWAP3 POP SWAP3 JUMP JUMPDEST PUSH32 0x4E487B7100000000000000000000000000000000000000000000000000000000 PUSH0 MSTORE PUSH1 0x11 PUSH1 0x4 MSTORE PUSH1 0x24 PUSH0 REVERT JUMPDEST PUSH0 PUSH2 0x868 DUP3 PUSH2 0x460 JUMP JUMPDEST SWAP2 POP PUSH2 0x873 DUP4 PUSH2 0x460 JUMP JUMPDEST SWAP3 POP DUP3 DUP3 ADD SWAP1 POP DUP1 DUP3 GT ISZERO PUSH2 0x88B JUMPI PUSH2 0x88A PUSH2 0x831 JUMP JUMPDEST JUMPDEST SWAP3 SWAP2 POP POP JUMP JUMPDEST PUSH0 PUSH2 0x89B DUP3 PUSH2 0x460 JUMP JUMPDEST SWAP2 POP PUSH2 0x8A6 DUP4 PUSH2 0x460 JUMP JUMPDEST SWAP3 POP DUP3 DUP3 MUL PUSH2 0x8B4 DUP2 PUSH2 0x460 JUMP JUMPDEST SWAP2 POP DUP3 DUP3 DIV DUP5 EQ DUP4 ISZERO OR PUSH2 0x8CB JUMPI PUSH2 0x8CA PUSH2 0x831 JUMP JUMPDEST JUMPDEST POP SWAP3 SWAP2 POP POP JUMP JUMPDEST PUSH32 0x4E487B7100000000000000000000000000000000000000000000000000000000 PUSH0 MSTORE PUSH1 0x22 PUSH1 0x4 MSTORE PUSH1 0x24 PUSH0 REVERT JUMPDEST PUSH0 PUSH1 0x2 DUP3 DIV SWAP1 POP PUSH1 0x1 DUP3 AND DUP1 PUSH2 0x916 JUMPI PUSH1 0x7F DUP3 AND SWAP2 POP JUMPDEST PUSH1 0x20 DUP3 LT DUP2 SUB PUSH2 0x929 JUMPI PUSH2 0x928 PUSH2 0x8D2 JUMP JUMPDEST JUMPDEST POP SWAP2 SWAP1 POP JUMP JUMPDEST PUSH0 DUP2 SWAP1 POP DUP2 PUSH0 MSTORE PUSH1 0x20 PUSH0 KECCAK256 SWAP1 POP SWAP2 SWAP1 POP JUMP JUMPDEST PUSH0 PUSH1 0x20 PUSH1 0x1F DUP4 ADD DIV SWAP1 POP SWAP2 SWAP1 POP JUMP JUMPDEST PUSH0 DUP3 DUP3 SHL SWAP1 POP SWAP3 SWAP2 POP POP JUMP JUMPDEST PUSH0 PUSH1 0x8 DUP4 MUL PUSH2 0x98B PUSH32 0xFFFFFFFFFFFFFFFFFFFFFFFFFFFFFFFFFFFFFFFFFFFFFFFFFFFFFFFFFFFFFFFF DUP3 PUSH2 0x950 JUMP JUMPDEST PUSH2 0x995 DUP7 DUP4 PUSH2 0x950 JUMP JUMPDEST SWAP6 POP DUP1 NOT DUP5 AND SWAP4 POP DUP1 DUP7 AND DUP5 OR SWAP3 POP POP POP SWAP4 SWAP3 POP POP POP JUMP JUMPDEST PUSH0 DUP2 SWAP1 POP SWAP2 SWAP1 POP JUMP JUMPDEST PUSH0 PUSH2 0x9D0 PUSH2 0x9CB PUSH2 0x9C6 DUP5 PUSH2 0x460 JUMP JUMPDEST PUSH2 0x9AD JUMP JUMPDEST PUSH2 0x460 JUMP JUMPDEST SWAP1 POP SWAP2 SWAP1 POP JUMP JUMPDEST PUSH0 DUP2 SWAP1 POP SWAP2 SWAP1 POP JUMP JUMPDEST PUSH2 0x9E9 DUP4 PUSH2 0x9B6 JUMP JUMPDEST PUSH2 0x9FD PUSH2 0x9F5 DUP3 PUSH2 0x9D7 JUMP JUMPDEST DUP5 DUP5 SLOAD PUSH2 0x95C JUMP JUMPDEST DUP3 SSTORE POP POP POP POP JUMP JUMPDEST PUSH0 SWAP1 JUMP JUMPDEST PUSH2 0xA11 PUSH2 0xA05 JUMP JUMPDEST PUSH2 0xA1C DUP2 DUP5 DUP5 PUSH2 0x9E0 JUMP JUMPDEST POP POP POP JUMP JUMPDEST JUMPDEST DUP2 DUP2 LT ISZERO PUSH2 0xA3F JUMPI PUSH2 0xA34 PUSH0 DUP3 PUSH2 0xA09 JUMP JUMPDEST PUSH1 0x1 DUP2 ADD SWAP1 POP PUSH2 0xA22 JUMP JUMPDEST POP POP JUMP JUMPDEST PUSH1 0x1F DUP3 GT ISZERO PUSH2 0xA84 JUMPI PUSH2 0xA55 DUP2 PUSH2 0x92F JUMP JUMPDEST PUSH2 0xA5E DUP5 PUSH2 0x941 JUMP JUMPDEST DUP2 ADD PUSH1 0x20 DUP6 LT ISZERO PUSH2 0xA6D JUMPI DUP2 SWAP1 POP JUMPDEST PUSH2 0xA81 PUSH2 0xA79 DUP6 PUSH2 0x941 JUMP JUMPDEST DUP4 ADD DUP3 PUSH2 0xA21 JUMP JUMPDEST POP POP JUMPDEST POP POP POP JUMP JUMPDEST PUSH0 DUP3 DUP3 SHR SWAP1 POP SWAP3 SWAP2 POP POP JUMP JUMPDEST PUSH0 PUSH2 0xAA4 PUSH0 NOT DUP5 PUSH1 0x8 MUL PUSH2 0xA89 JUMP JUMPDEST NOT DUP1 DUP4 AND SWAP2 POP POP SWAP3 SWAP2 POP POP JUMP JUMPDEST PUSH0 PUSH2 0xABC DUP4 DUP4 PUSH2 0xA95 JUMP JUMPDEST SWAP2 POP DUP3 PUSH1 0x2 MUL DUP3 OR SWAP1 POP SWAP3 SWAP2 POP POP JUMP JUMPDEST PUSH2 0xAD5 DUP3 PUSH2 0x594 JUMP JUMPDEST PUSH8 0xFFFFFFFFFFFFFFFF DUP2 GT ISZERO PUSH2 0xAEE JUMPI PUSH2 0xAED PUSH2 0x6A1 JUMP JUMPDEST JUMPDEST PUSH2 0xAF8 DUP3 SLOAD PUSH2 0x8FF JUMP JUMPDEST PUSH2 0xB03 DUP3 DUP3 DUP6 PUSH2 0xA43 JUMP JUMPDEST PUSH0 PUSH1 0x20 SWAP1 POP PUSH1 0x1F DUP4 GT PUSH1 0x1 DUP2 EQ PUSH2 0xB34 JUMPI PUSH0 DUP5 ISZERO PUSH2 0xB22 JUMPI DUP3 DUP8 ADD MLOAD SWAP1 POP JUMPDEST PUSH2 0xB2C DUP6 DUP3 PUSH2 0xAB1 JUMP JUMPDEST DUP7 SSTORE POP PUSH2 0xB93 JUMP JUMPDEST PUSH1 0x1F NOT DUP5 AND PUSH2 0xB42 DUP7 PUSH2 0x92F JUMP JUMPDEST PUSH0 JUMPDEST DUP3 DUP2 LT ISZERO PUSH2 0xB69 JUMPI DUP5 DUP10 ADD MLOAD DUP3 SSTORE PUSH1 0x1 DUP3 ADD SWAP2 POP PUSH1 0x20 DUP6 ADD SWAP5 POP PUSH1 0x20 DUP2 ADD SWAP1 POP PUSH2 0xB44 JUMP JUMPDEST DUP7 DUP4 LT ISZERO PUSH2 0xB86 JUMPI DUP5 DUP10 ADD MLOAD PUSH2 0xB82 PUSH1 0x1F DUP10 AND DUP3 PUSH2 0xA95 JUMP JUMPDEST DUP4 SSTORE POP JUMPDEST PUSH1 0x1 PUSH1 0x2 DUP9 MUL ADD DUP9 SSTORE POP POP POP JUMPDEST POP POP POP POP POP POP JUMP INVALID LOG2 PUSH5 0x6970667358 0x22 SLT KECCAK256 0xE4 OR 0xB2 0xEB PUSH25 0x4A9C2FB448309E6204C3A6E914E3B29F02A4327ECAC21F2527 EXTCODESIZE 0xB9 PUSH5 0x736F6C6343 STOP ADDMOD BYTE STOP CALLER "
				},
				"gasEstimates": {
					"creation": {
						"codeDepositCost": "605000",
						"executionCost": "5641",
						"totalCost": "610641"
					},
					"external": {
						"": "1742",
						"add(uint256,uint256)": "infinite",
						"addUser(uint256,string,uint256)": "infinite",
						"getUser(uint256)": "infinite",
						"users(address)": "infinite"
					}
				},
				"methodIdentifiers": {
					"add(uint256,uint256)": "771602f7",
					"addUser(uint256,string,uint256)": "ca463c85",
					"getUser(uint256)": "b0467deb",
					"users(address)": "a87430ba"
				}
			},
			"storageLayout": {
				"storage": [
					{
						"astId": 4,
						"contract": "contracts/ContractStructBase.sol:ContractStructBase",
						"label": "sum",
						"offset": 0,
						"slot": "0",
						"type": "t_uint256"
					},
					{
						"astId": 14,
						"contract": "contracts/ContractStructBase.sol:ContractStructBase",
						"label": "userIds",
						"offset": 0,
						"slot": "1",
						"type": "t_array(t_uint256)dyn_storage"
					},
					{
						"astId": 19,
						"contract": "contracts/ContractStructBase.sol:ContractStructBase",
						"label": "users",
						"offset": 0,
						"slot": "2",
						"type": "t_mapping(t_address,t_struct(User)11_storage)"
					}
				],
				"types": {
					"t_address": {
						"encoding": "inplace",
						"label": "address",
						"numberOfBytes": "20"
					},
					"t_array(t_uint256)dyn_storage": {
						"base": "t_uint256",
						"encoding": "dynamic_array",
						"label": "uint256[]",
						"numberOfBytes": "32"
					},
					"t_mapping(t_address,t_struct(User)11_storage)": {
						"encoding": "mapping",
						"key": "t_address",
						"label": "mapping(address => struct ContractStructBase.User)",
						"numberOfBytes": "32",
						"value": "t_struct(User)11_storage"
					},
					"t_string_storage": {
						"encoding": "bytes",
						"label": "string",
						"numberOfBytes": "32"
					},
					"t_struct(User)11_storage": {
						"encoding": "inplace",
						"label": "struct ContractStructBase.User",
						"members": [
							{
								"astId": 6,
								"contract": "contracts/ContractStructBase.sol:ContractStructBase",
								"label": "id",
								"offset": 0,
								"slot": "0",
								"type": "t_uint256"
							},
							{
								"astId": 8,
								"contract": "contracts/ContractStructBase.sol:ContractStructBase",
								"label": "name",
								"offset": 0,
								"slot": "1",
								"type": "t_string_storage"
							},
							{
								"astId": 10,
								"contract": "contracts/ContractStructBase.sol:ContractStructBase",
								"label": "salary",
								"offset": 0,
								"slot": "2",
								"type": "t_uint256"
							}
						],
						"numberOfBytes": "96"
					},
					"t_uint256": {
						"encoding": "inplace",
						"label": "uint256",
						"numberOfBytes": "32"
					}
				}
			},
			"userdoc": {
				"kind": "user",
				"methods": {},
				"version": 1
			}
		}
	}
}