{
	"contracts/VariableScope.sol": {
		"C": {
			"abi": [
				{
					"inputs": [],
					"name": "data",
					"outputs": [
						{
							"internalType": "uint256",
							"name": "",
							"type": "uint256"
						}
					],
					"stateMutability": "view",
					"type": "function"
				},
				{
					"inputs": [],
					"name": "x",
					"outputs": [
						{
							"internalType": "uint256",
							"name": "",
							"type": "uint256"
						}
					],
					"stateMutability": "nonpayable",
					"type": "function"
				}
			],
			"devdoc": {
				"kind": "dev",
				"methods": {},
				"version": 1
			},
			"evm": {
				"assembly": "    /* \"contracts/VariableScope.sol\":73:831  contract C {... */\n  mstore(0x40, 0x80)\n    /* \"contracts/VariableScope.sol\":608:610  30 */\n  0x1e\n    /* \"contracts/VariableScope.sol\":589:610  uint public data = 30 */\n  0x00\n  sstore\n    /* \"contracts/VariableScope.sol\":668:670  10 */\n  0x0a\n    /* \"contracts/VariableScope.sol\":646:670  uint internal iData = 10 */\n  0x01\n  sstore\n    /* \"contracts/VariableScope.sol\":73:831  contract C {... */\n  callvalue\n  dup1\n  iszero\n  tag_1\n  jumpi\n  0x00\n  dup1\n  revert\ntag_1:\n  pop\n  dataSize(sub_0)\n  dup1\n  dataOffset(sub_0)\n  0x00\n  codecopy\n  0x00\n  return\nstop\n\nsub_0: assembly {\n        /* \"contracts/VariableScope.sol\":73:831  contract C {... */\n      mstore(0x40, 0x80)\n      callvalue\n      dup1\n      iszero\n      tag_1\n      jumpi\n      0x00\n      dup1\n      revert\n    tag_1:\n      pop\n      jumpi(tag_2, lt(calldatasize, 0x04))\n      shr(0xe0, calldataload(0x00))\n      dup1\n      0x0c55699c\n      eq\n      tag_3\n      jumpi\n      dup1\n      0x73d4a13a\n      eq\n      tag_4\n      jumpi\n    tag_2:\n      0x00\n      dup1\n      revert\n        /* \"contracts/VariableScope.sol\":703:829  function x() public returns (uint) {... */\n    tag_3:\n      tag_5\n      tag_6\n      jump\t// in\n    tag_5:\n      mload(0x40)\n      tag_7\n      swap2\n      swap1\n      tag_8\n      jump\t// in\n    tag_7:\n      mload(0x40)\n      dup1\n      swap2\n      sub\n      swap1\n      return\n        /* \"contracts/VariableScope.sol\":589:610  uint public data = 30 */\n    tag_4:\n      tag_9\n      tag_10\n      jump\t// in\n    tag_9:\n      mload(0x40)\n      tag_11\n      swap2\n      swap1\n      tag_8\n      jump\t// in\n    tag_11:\n      mload(0x40)\n      dup1\n      swap2\n      sub\n      swap1\n      return\n        /* \"contracts/VariableScope.sol\":703:829  function x() public returns (uint) {... */\n    tag_6:\n        /* \"contracts/VariableScope.sol\":732:736  uint */\n      0x00\n        /* \"contracts/VariableScope.sol\":755:756  3 */\n      0x03\n        /* \"contracts/VariableScope.sol\":748:752  data */\n      0x00\n        /* \"contracts/VariableScope.sol\":748:756  data = 3 */\n      dup2\n      swap1\n      sstore\n      pop\n        /* \"contracts/VariableScope.sol\":818:822  data */\n      sload(0x00)\n        /* \"contracts/VariableScope.sol\":811:822  return data */\n      swap1\n      pop\n        /* \"contracts/VariableScope.sol\":703:829  function x() public returns (uint) {... */\n      swap1\n      jump\t// out\n        /* \"contracts/VariableScope.sol\":589:610  uint public data = 30 */\n    tag_10:\n      sload(0x00)\n      dup2\n      jump\t// out\n        /* \"#utility.yul\":7:84   */\n    tag_13:\n        /* \"#utility.yul\":44:51   */\n      0x00\n        /* \"#utility.yul\":73:78   */\n      dup2\n        /* \"#utility.yul\":62:78   */\n      swap1\n      pop\n        /* \"#utility.yul\":7:84   */\n      swap2\n      swap1\n      pop\n      jump\t// out\n        /* \"#utility.yul\":90:208   */\n    tag_14:\n        /* \"#utility.yul\":177:201   */\n      tag_18\n        /* \"#utility.yul\":195:200   */\n      dup2\n        /* \"#utility.yul\":177:201   */\n      tag_13\n      jump\t// in\n    tag_18:\n        /* \"#utility.yul\":172:175   */\n      dup3\n        /* \"#utility.yul\":165:202   */\n      mstore\n        /* \"#utility.yul\":90:208   */\n      pop\n      pop\n      jump\t// out\n        /* \"#utility.yul\":214:436   */\n    tag_8:\n        /* \"#utility.yul\":307:311   */\n      0x00\n        /* \"#utility.yul\":345:347   */\n      0x20\n        /* \"#utility.yul\":334:343   */\n      dup3\n        /* \"#utility.yul\":330:348   */\n      add\n        /* \"#utility.yul\":322:348   */\n      swap1\n      pop\n        /* \"#utility.yul\":358:429   */\n      tag_20\n        /* \"#utility.yul\":426:427   */\n      0x00\n        /* \"#utility.yul\":415:424   */\n      dup4\n        /* \"#utility.yul\":411:428   */\n      add\n        /* \"#utility.yul\":402:408   */\n      dup5\n        /* \"#utility.yul\":358:429   */\n      tag_14\n      jump\t// in\n    tag_20:\n        /* \"#utility.yul\":214:436   */\n      swap3\n      swap2\n      pop\n      pop\n      jump\t// out\n\n    auxdata: 0xa2646970667358221220c4d8f4f890861d267f61dda4001bc1d25ae4d5d116266c2a732a905958b518b564736f6c634300081a0033\n}\n",
				"bytecode": {
					"linkReferences": {},
					"object": "6080604052601e5f55600a6001553480156017575f80fd5b5060df806100245f395ff3fe6080604052348015600e575f80fd5b50600436106030575f3560e01c80630c55699c14603457806373d4a13a14604e575b5f80fd5b603a6068565b604051604591906092565b60405180910390f35b60546077565b604051605f91906092565b60405180910390f35b5f60035f819055505f54905090565b5f5481565b5f819050919050565b608c81607c565b82525050565b5f60208201905060a35f8301846085565b9291505056fea2646970667358221220c4d8f4f890861d267f61dda4001bc1d25ae4d5d116266c2a732a905958b518b564736f6c634300081a0033",
					"opcodes": "PUSH1 0x80 PUSH1 0x40 MSTORE PUSH1 0x1E PUSH0 SSTORE PUSH1 0xA PUSH1 0x1 SSTORE CALLVALUE DUP1 ISZERO PUSH1 0x17 JUMPI PUSH0 DUP1 REVERT JUMPDEST POP PUSH1 0xDF DUP1 PUSH2 0x24 PUSH0 CODECOPY PUSH0 RETURN INVALID PUSH1 0x80 PUSH1 0x40 MSTORE CALLVALUE DUP1 ISZERO PUSH1 0xE JUMPI PUSH0 DUP1 REVERT JUMPDEST POP PUSH1 0x4 CALLDATASIZE LT PUSH1 0x30 JUMPI PUSH0 CALLDATALOAD PUSH1 0xE0 SHR DUP1 PUSH4 0xC55699C EQ PUSH1 0x34 JUMPI DUP1 PUSH4 0x73D4A13A EQ PUSH1 0x4E JUMPI JUMPDEST PUSH0 DUP1 REVERT JUMPDEST PUSH1 0x3A PUSH1 0x68 JUMP JUMPDEST PUSH1 0x40 MLOAD PUSH1 0x45 SWAP2 SWAP1 PUSH1 0x92 JUMP JUMPDEST PUSH1 0x40 MLOAD DUP1 SWAP2 SUB SWAP1 RETURN JUMPDEST PUSH1 0x54 PUSH1 0x77 JUMP JUMPDEST PUSH1 0x40 MLOAD PUSH1 0x5F SWAP2 SWAP1 PUSH1 0x92 JUMP JUMPDEST PUSH1 0x40 MLOAD DUP1 SWAP2 SUB SWAP1 RETURN JUMPDEST PUSH0 PUSH1 0x3 PUSH0 DUP2 SWAP1 SSTORE POP PUSH0 SLOAD SWAP1 POP SWAP1 JUMP JUMPDEST PUSH0 SLOAD DUP2 JUMP JUMPDEST PUSH0 DUP2 SWAP1 POP SWAP2 SWAP1 POP JUMP JUMPDEST PUSH1 0x8C DUP2 PUSH1 0x7C JUMP JUMPDEST DUP3 MSTORE POP POP JUMP JUMPDEST PUSH0 PUSH1 0x20 DUP3 ADD SWAP1 POP PUSH1 0xA3 PUSH0 DUP4 ADD DUP5 PUSH1 0x85 JUMP JUMPDEST SWAP3 SWAP2 POP POP JUMP INVALID LOG2 PUSH5 0x6970667358 0x22 SLT KECCAK256 0xC4 0xD8 DELEGATECALL 0xF8 SWAP1 DUP7 SAR 0x26 PUSH32 0x61DDA4001BC1D25AE4D5D116266C2A732A905958B518B564736F6C634300081A STOP CALLER "
				},
				"gasEstimates": {
					"creation": {
						"codeDepositCost": "44600",
						"executionCost": "44302",
						"totalCost": "88902"
					},
					"external": {
						"data()": "2424",
						"x()": "24522"
					}
				},
				"methodIdentifiers": {
					"data()": "73d4a13a",
					"x()": "0c55699c"
				}
			},
			"storageLayout": {
				"storage": [
					{
						"astId": 4,
						"contract": "contracts/VariableScope.sol:C",
						"label": "data",
						"offset": 0,
						"slot": "0",
						"type": "t_uint256"
					},
					{
						"astId": 7,
						"contract": "contracts/VariableScope.sol:C",
						"label": "iData",
						"offset": 0,
						"slot": "1",
						"type": "t_uint256"
					}
				],
				"types": {
					"t_uint256": {
						"encoding": "inplace",
						"label": "uint256",
						"numberOfBytes": "32"
					}
				}
			},
			"userdoc": {
				"kind": "user",
				"methods": {},
				"version": 1
			}
		}
	}
}