{
	"contracts/GlobalVariableApi.sol": {
		"hashFunction": {
			"abi": [
				{
					"inputs": [],
					"name": "a",
					"outputs": [
						{
							"internalType": "uint256",
							"name": "",
							"type": "uint256"
						}
					],
					"stateMutability": "view",
					"type": "function"
				},
				{
					"inputs": [],
					"name": "b",
					"outputs": [
						{
							"internalType": "uint256",
							"name": "",
							"type": "uint256"
						}
					],
					"stateMutability": "view",
					"type": "function"
				},
				{
					"inputs": [],
					"name": "c",
					"outputs": [
						{
							"internalType": "bytes32",
							"name": "",
							"type": "bytes32"
						}
					],
					"stateMutability": "view",
					"type": "function"
				},
				{
					"inputs": [],
					"name": "d",
					"outputs": [
						{
							"internalType": "bytes32",
							"name": "",
							"type": "bytes32"
						}
					],
					"stateMutability": "view",
					"type": "function"
				},
				{
					"inputs": [],
					"name": "e",
					"outputs": [
						{
							"internalType": "bytes20",
							"name": "",
							"type": "bytes20"
						}
					],
					"stateMutability": "view",
					"type": "function"
				}
			],
			"devdoc": {
				"kind": "dev",
				"methods": {},
				"version": 1
			},
			"evm": {
				"assembly": "    /* \"contracts/GlobalVariableApi.sol\":3274:4490  contract hashFunction {... */\n  mstore(0x40, 0x80)\n    /* \"contracts/GlobalVariableApi.sol\":3509:3510  8 */\n  0x08\n    /* \"contracts/GlobalVariableApi.sol\":3495:3511  addmod(10, 2, 8) */\n  dup1\n  tag_1\n  jumpi\n  tag_2\n  tag_3\n  jump\t// in\ntag_2:\ntag_1:\n    /* \"contracts/GlobalVariableApi.sol\":3506:3507  2 */\n  0x02\n    /* \"contracts/GlobalVariableApi.sol\":3502:3504  10 */\n  0x0a\n    /* \"contracts/GlobalVariableApi.sol\":3495:3511  addmod(10, 2, 8) */\n  addmod\n    /* \"contracts/GlobalVariableApi.sol\":3479:3511  uint public a = addmod(10, 2, 8) */\n  0x00\n  sstore\n    /* \"contracts/GlobalVariableApi.sol\":3694:3696  60 */\n  0x3c\n    /* \"contracts/GlobalVariableApi.sol\":3680:3697  mulmod(10, 2, 60) */\n  dup1\n  tag_4\n  jumpi\n  tag_5\n  tag_3\n  jump\t// in\ntag_5:\ntag_4:\n    /* \"contracts/GlobalVariableApi.sol\":3691:3692  2 */\n  0x02\n    /* \"contracts/GlobalVariableApi.sol\":3687:3689  10 */\n  0x0a\n    /* \"contracts/GlobalVariableApi.sol\":3680:3697  mulmod(10, 2, 60) */\n  mulmod\n    /* \"contracts/GlobalVariableApi.sol\":3664:3697  uint public b = mulmod(10, 2, 60) */\n  0x01\n  sstore\n    /* \"contracts/GlobalVariableApi.sol\":3897:3920  abi.encodePacked(\"lsy\") */\n  add(0x20, mload(0x40))\n  tag_6\n  swap1\n  tag_7\n  jump\t// in\ntag_6:\n  mload(0x40)\n  0x20\n  dup2\n  dup4\n  sub\n  sub\n  dup2\n  mstore\n  swap1\n  0x40\n  mstore\n    /* \"contracts/GlobalVariableApi.sol\":3887:3921  keccak256(abi.encodePacked(\"lsy\")) */\n  dup1\n  mload\n  swap1\n  0x20\n  add\n  keccak256\n    /* \"contracts/GlobalVariableApi.sol\":3868:3921  bytes32 public c = keccak256(abi.encodePacked(\"lsy\")) */\n  0x02\n  sstore\n    /* \"contracts/GlobalVariableApi.sol\":4023:4054  sha256(abi.encodePacked(\"lsy\")) */\n  0x02\n    /* \"contracts/GlobalVariableApi.sol\":4030:4053  abi.encodePacked(\"lsy\") */\n  add(0x20, mload(0x40))\n  tag_8\n  swap1\n  tag_7\n  jump\t// in\ntag_8:\n  mload(0x40)\n  0x20\n  dup2\n  dup4\n  sub\n  sub\n  dup2\n  mstore\n  swap1\n  0x40\n  mstore\n    /* \"contracts/GlobalVariableApi.sol\":4023:4054  sha256(abi.encodePacked(\"lsy\")) */\n  mload(0x40)\n  tag_9\n  swap2\n  swap1\n  tag_10\n  jump\t// in\ntag_9:\n  0x20\n  mload(0x40)\n  dup1\n  dup4\n  sub\n  dup2\n  dup6\n  gas\n  staticcall\n  iszero\n  dup1\n  iszero\n  tag_12\n  jumpi\n  returndatasize\n  0x00\n  dup1\n  returndatacopy\n  revert(0x00, returndatasize)\ntag_12:\n  pop\n  pop\n  pop\n  mload(0x40)\n  returndatasize\n  not(0x1f)\n  0x1f\n  dup3\n  add\n  and\n  dup3\n  add\n  dup1\n  0x40\n  mstore\n  pop\n  dup2\n  add\n  swap1\n  tag_13\n  swap2\n  swap1\n  tag_14\n  jump\t// in\ntag_13:\n    /* \"contracts/GlobalVariableApi.sol\":4004:4054  bytes32 public d = sha256(abi.encodePacked(\"lsy\")) */\n  0x03\n  sstore\n    /* \"contracts/GlobalVariableApi.sol\":4199:4233  ripemd160(abi.encodePacked(\"lsy\")) */\n  0x03\n    /* \"contracts/GlobalVariableApi.sol\":4209:4232  abi.encodePacked(\"lsy\") */\n  add(0x20, mload(0x40))\n  tag_15\n  swap1\n  tag_7\n  jump\t// in\ntag_15:\n  mload(0x40)\n  0x20\n  dup2\n  dup4\n  sub\n  sub\n  dup2\n  mstore\n  swap1\n  0x40\n  mstore\n    /* \"contracts/GlobalVariableApi.sol\":4199:4233  ripemd160(abi.encodePacked(\"lsy\")) */\n  mload(0x40)\n  tag_16\n  swap2\n  swap1\n  tag_10\n  jump\t// in\ntag_16:\n  0x20\n  mload(0x40)\n  dup1\n  dup4\n  sub\n  dup2\n  dup6\n  gas\n  staticcall\n  iszero\n  dup1\n  iszero\n  tag_18\n  jumpi\n  returndatasize\n  0x00\n  dup1\n  returndatacopy\n  revert(0x00, returndatasize)\ntag_18:\n  pop\n  pop\n  pop\n  shl(0x60, mload(mload(0x40)))\n    /* \"contracts/GlobalVariableApi.sol\":4180:4233  bytes20 public e = ripemd160(abi.encodePacked(\"lsy\")) */\n  0x04\n  exp(0x0100, 0x00)\n  dup2\n  sload\n  dup2\n  0xffffffffffffffffffffffffffffffffffffffff\n  mul\n  not\n  and\n  swap1\n  dup4\n  0x60\n  shr\n  mul\n  or\n  swap1\n  sstore\n  pop\n    /* \"contracts/GlobalVariableApi.sol\":3274:4490  contract hashFunction {... */\n  callvalue\n  dup1\n  iszero\n  tag_19\n  jumpi\n  0x00\n  dup1\n  revert\ntag_19:\n  pop\n  jump(tag_20)\n    /* \"#utility.yul\":7:187   */\ntag_3:\n    /* \"#utility.yul\":55:132   */\n  0x4e487b7100000000000000000000000000000000000000000000000000000000\n    /* \"#utility.yul\":52:53   */\n  0x00\n    /* \"#utility.yul\":45:133   */\n  mstore\n    /* \"#utility.yul\":152:156   */\n  0x12\n    /* \"#utility.yul\":149:150   */\n  0x04\n    /* \"#utility.yul\":142:157   */\n  mstore\n    /* \"#utility.yul\":176:180   */\n  0x24\n    /* \"#utility.yul\":173:174   */\n  0x00\n    /* \"#utility.yul\":166:181   */\n  revert\n    /* \"#utility.yul\":193:341   */\ntag_21:\n    /* \"#utility.yul\":295:306   */\n  0x00\n    /* \"#utility.yul\":332:335   */\n  dup2\n    /* \"#utility.yul\":317:335   */\n  swap1\n  pop\n    /* \"#utility.yul\":193:341   */\n  swap3\n  swap2\n  pop\n  pop\n  jump\t// out\n    /* \"#utility.yul\":347:500   */\ntag_22:\n    /* \"#utility.yul\":487:492   */\n  0x6c73790000000000000000000000000000000000000000000000000000000000\n    /* \"#utility.yul\":483:484   */\n  0x00\n    /* \"#utility.yul\":475:481   */\n  dup3\n    /* \"#utility.yul\":471:485   */\n  add\n    /* \"#utility.yul\":464:493   */\n  mstore\n    /* \"#utility.yul\":347:500   */\n  pop\n  jump\t// out\n    /* \"#utility.yul\":506:906   */\ntag_23:\n    /* \"#utility.yul\":666:669   */\n  0x00\n    /* \"#utility.yul\":687:771   */\n  tag_39\n    /* \"#utility.yul\":769:770   */\n  0x03\n    /* \"#utility.yul\":764:767   */\n  dup4\n    /* \"#utility.yul\":687:771   */\n  tag_21\n  jump\t// in\ntag_39:\n    /* \"#utility.yul\":680:771   */\n  swap2\n  pop\n    /* \"#utility.yul\":780:873   */\n  tag_40\n    /* \"#utility.yul\":869:872   */\n  dup3\n    /* \"#utility.yul\":780:873   */\n  tag_22\n  jump\t// in\ntag_40:\n    /* \"#utility.yul\":898:899   */\n  0x03\n    /* \"#utility.yul\":893:896   */\n  dup3\n    /* \"#utility.yul\":889:900   */\n  add\n    /* \"#utility.yul\":882:900   */\n  swap1\n  pop\n    /* \"#utility.yul\":506:906   */\n  swap2\n  swap1\n  pop\n  jump\t// out\n    /* \"#utility.yul\":912:1293   */\ntag_7:\n    /* \"#utility.yul\":1097:1100   */\n  0x00\n    /* \"#utility.yul\":1119:1267   */\n  tag_42\n    /* \"#utility.yul\":1263:1266   */\n  dup3\n    /* \"#utility.yul\":1119:1267   */\n  tag_23\n  jump\t// in\ntag_42:\n    /* \"#utility.yul\":1112:1267   */\n  swap2\n  pop\n    /* \"#utility.yul\":1284:1287   */\n  dup2\n    /* \"#utility.yul\":1277:1287   */\n  swap1\n  pop\n    /* \"#utility.yul\":912:1293   */\n  swap2\n  swap1\n  pop\n  jump\t// out\n    /* \"#utility.yul\":1299:1397   */\ntag_24:\n    /* \"#utility.yul\":1350:1356   */\n  0x00\n    /* \"#utility.yul\":1384:1389   */\n  dup2\n    /* \"#utility.yul\":1378:1390   */\n  mload\n    /* \"#utility.yul\":1368:1390   */\n  swap1\n  pop\n    /* \"#utility.yul\":1299:1397   */\n  swap2\n  swap1\n  pop\n  jump\t// out\n    /* \"#utility.yul\":1403:1550   */\ntag_25:\n    /* \"#utility.yul\":1504:1515   */\n  0x00\n    /* \"#utility.yul\":1541:1544   */\n  dup2\n    /* \"#utility.yul\":1526:1544   */\n  swap1\n  pop\n    /* \"#utility.yul\":1403:1550   */\n  swap3\n  swap2\n  pop\n  pop\n  jump\t// out\n    /* \"#utility.yul\":1556:1695   */\ntag_26:\n    /* \"#utility.yul\":1645:1651   */\n  dup3\n    /* \"#utility.yul\":1640:1643   */\n  dup2\n    /* \"#utility.yul\":1635:1638   */\n  dup4\n    /* \"#utility.yul\":1629:1652   */\n  mcopy\n    /* \"#utility.yul\":1686:1687   */\n  0x00\n    /* \"#utility.yul\":1677:1683   */\n  dup4\n    /* \"#utility.yul\":1672:1675   */\n  dup4\n    /* \"#utility.yul\":1668:1684   */\n  add\n    /* \"#utility.yul\":1661:1688   */\n  mstore\n    /* \"#utility.yul\":1556:1695   */\n  pop\n  pop\n  pop\n  jump\t// out\n    /* \"#utility.yul\":1701:2087   */\ntag_27:\n    /* \"#utility.yul\":1805:1808   */\n  0x00\n    /* \"#utility.yul\":1833:1871   */\n  tag_47\n    /* \"#utility.yul\":1865:1870   */\n  dup3\n    /* \"#utility.yul\":1833:1871   */\n  tag_24\n  jump\t// in\ntag_47:\n    /* \"#utility.yul\":1887:1975   */\n  tag_48\n    /* \"#utility.yul\":1968:1974   */\n  dup2\n    /* \"#utility.yul\":1963:1966   */\n  dup6\n    /* \"#utility.yul\":1887:1975   */\n  tag_25\n  jump\t// in\ntag_48:\n    /* \"#utility.yul\":1880:1975   */\n  swap4\n  pop\n    /* \"#utility.yul\":1984:2049   */\n  tag_49\n    /* \"#utility.yul\":2042:2048   */\n  dup2\n    /* \"#utility.yul\":2037:2040   */\n  dup6\n    /* \"#utility.yul\":2030:2034   */\n  0x20\n    /* \"#utility.yul\":2023:2028   */\n  dup7\n    /* \"#utility.yul\":2019:2035   */\n  add\n    /* \"#utility.yul\":1984:2049   */\n  tag_26\n  jump\t// in\ntag_49:\n    /* \"#utility.yul\":2074:2080   */\n  dup1\n    /* \"#utility.yul\":2069:2072   */\n  dup5\n    /* \"#utility.yul\":2065:2081   */\n  add\n    /* \"#utility.yul\":2058:2081   */\n  swap2\n  pop\n    /* \"#utility.yul\":1809:2087   */\n  pop\n    /* \"#utility.yul\":1701:2087   */\n  swap3\n  swap2\n  pop\n  pop\n  jump\t// out\n    /* \"#utility.yul\":2093:2364   */\ntag_10:\n    /* \"#utility.yul\":2223:2226   */\n  0x00\n    /* \"#utility.yul\":2245:2338   */\n  tag_51\n    /* \"#utility.yul\":2334:2337   */\n  dup3\n    /* \"#utility.yul\":2325:2331   */\n  dup5\n    /* \"#utility.yul\":2245:2338   */\n  tag_27\n  jump\t// in\ntag_51:\n    /* \"#utility.yul\":2238:2338   */\n  swap2\n  pop\n    /* \"#utility.yul\":2355:2358   */\n  dup2\n    /* \"#utility.yul\":2348:2358   */\n  swap1\n  pop\n    /* \"#utility.yul\":2093:2364   */\n  swap3\n  swap2\n  pop\n  pop\n  jump\t// out\n    /* \"#utility.yul\":2451:2568   */\ntag_29:\n    /* \"#utility.yul\":2560:2561   */\n  0x00\n    /* \"#utility.yul\":2557:2558   */\n  dup1\n    /* \"#utility.yul\":2550:2562   */\n  revert\n    /* \"#utility.yul\":2697:2774   */\ntag_31:\n    /* \"#utility.yul\":2734:2741   */\n  0x00\n    /* \"#utility.yul\":2763:2768   */\n  dup2\n    /* \"#utility.yul\":2752:2768   */\n  swap1\n  pop\n    /* \"#utility.yul\":2697:2774   */\n  swap2\n  swap1\n  pop\n  jump\t// out\n    /* \"#utility.yul\":2780:2902   */\ntag_32:\n    /* \"#utility.yul\":2853:2877   */\n  tag_57\n    /* \"#utility.yul\":2871:2876   */\n  dup2\n    /* \"#utility.yul\":2853:2877   */\n  tag_31\n  jump\t// in\ntag_57:\n    /* \"#utility.yul\":2846:2851   */\n  dup2\n    /* \"#utility.yul\":2843:2878   */\n  eq\n    /* \"#utility.yul\":2833:2896   */\n  tag_58\n  jumpi\n    /* \"#utility.yul\":2892:2893   */\n  0x00\n    /* \"#utility.yul\":2889:2890   */\n  dup1\n    /* \"#utility.yul\":2882:2894   */\n  revert\n    /* \"#utility.yul\":2833:2896   */\ntag_58:\n    /* \"#utility.yul\":2780:2902   */\n  pop\n  jump\t// out\n    /* \"#utility.yul\":2908:3051   */\ntag_33:\n    /* \"#utility.yul\":2965:2970   */\n  0x00\n    /* \"#utility.yul\":2996:3002   */\n  dup2\n    /* \"#utility.yul\":2990:3003   */\n  mload\n    /* \"#utility.yul\":2981:3003   */\n  swap1\n  pop\n    /* \"#utility.yul\":3012:3045   */\n  tag_60\n    /* \"#utility.yul\":3039:3044   */\n  dup2\n    /* \"#utility.yul\":3012:3045   */\n  tag_32\n  jump\t// in\ntag_60:\n    /* \"#utility.yul\":2908:3051   */\n  swap3\n  swap2\n  pop\n  pop\n  jump\t// out\n    /* \"#utility.yul\":3057:3408   */\ntag_14:\n    /* \"#utility.yul\":3127:3133   */\n  0x00\n    /* \"#utility.yul\":3176:3178   */\n  0x20\n    /* \"#utility.yul\":3164:3173   */\n  dup3\n    /* \"#utility.yul\":3155:3162   */\n  dup5\n    /* \"#utility.yul\":3151:3174   */\n  sub\n    /* \"#utility.yul\":3147:3179   */\n  slt\n    /* \"#utility.yul\":3144:3263   */\n  iszero\n  tag_62\n  jumpi\n    /* \"#utility.yul\":3182:3261   */\n  tag_63\n  tag_29\n  jump\t// in\ntag_63:\n    /* \"#utility.yul\":3144:3263   */\ntag_62:\n    /* \"#utility.yul\":3302:3303   */\n  0x00\n    /* \"#utility.yul\":3327:3391   */\n  tag_64\n    /* \"#utility.yul\":3383:3390   */\n  dup5\n    /* \"#utility.yul\":3374:3380   */\n  dup3\n    /* \"#utility.yul\":3363:3372   */\n  dup6\n    /* \"#utility.yul\":3359:3381   */\n  add\n    /* \"#utility.yul\":3327:3391   */\n  tag_33\n  jump\t// in\ntag_64:\n    /* \"#utility.yul\":3317:3391   */\n  swap2\n  pop\n    /* \"#utility.yul\":3273:3401   */\n  pop\n    /* \"#utility.yul\":3057:3408   */\n  swap3\n  swap2\n  pop\n  pop\n  jump\t// out\n    /* \"contracts/GlobalVariableApi.sol\":3274:4490  contract hashFunction {... */\ntag_20:\n  dataSize(sub_0)\n  dup1\n  dataOffset(sub_0)\n  0x00\n  codecopy\n  0x00\n  return\nstop\n\nsub_0: assembly {\n        /* \"contracts/GlobalVariableApi.sol\":3274:4490  contract hashFunction {... */\n      mstore(0x40, 0x80)\n      callvalue\n      dup1\n      iszero\n      tag_1\n      jumpi\n      0x00\n      dup1\n      revert\n    tag_1:\n      pop\n      jumpi(tag_2, lt(calldatasize, 0x04))\n      shr(0xe0, calldataload(0x00))\n      dup1\n      0x0dbe671f\n      eq\n      tag_3\n      jumpi\n      dup1\n      0x4df7e3d0\n      eq\n      tag_4\n      jumpi\n      dup1\n      0x8a054ac2\n      eq\n      tag_5\n      jumpi\n      dup1\n      0xc3da42b8\n      eq\n      tag_6\n      jumpi\n      dup1\n      0xffae15ba\n      eq\n      tag_7\n      jumpi\n    tag_2:\n      0x00\n      dup1\n      revert\n        /* \"contracts/GlobalVariableApi.sol\":3479:3511  uint public a = addmod(10, 2, 8) */\n    tag_3:\n      tag_8\n      tag_9\n      jump\t// in\n    tag_8:\n      mload(0x40)\n      tag_10\n      swap2\n      swap1\n      tag_11\n      jump\t// in\n    tag_10:\n      mload(0x40)\n      dup1\n      swap2\n      sub\n      swap1\n      return\n        /* \"contracts/GlobalVariableApi.sol\":3664:3697  uint public b = mulmod(10, 2, 60) */\n    tag_4:\n      tag_12\n      tag_13\n      jump\t// in\n    tag_12:\n      mload(0x40)\n      tag_14\n      swap2\n      swap1\n      tag_11\n      jump\t// in\n    tag_14:\n      mload(0x40)\n      dup1\n      swap2\n      sub\n      swap1\n      return\n        /* \"contracts/GlobalVariableApi.sol\":4004:4054  bytes32 public d = sha256(abi.encodePacked(\"lsy\")) */\n    tag_5:\n      tag_15\n      tag_16\n      jump\t// in\n    tag_15:\n      mload(0x40)\n      tag_17\n      swap2\n      swap1\n      tag_18\n      jump\t// in\n    tag_17:\n      mload(0x40)\n      dup1\n      swap2\n      sub\n      swap1\n      return\n        /* \"contracts/GlobalVariableApi.sol\":3868:3921  bytes32 public c = keccak256(abi.encodePacked(\"lsy\")) */\n    tag_6:\n      tag_19\n      tag_20\n      jump\t// in\n    tag_19:\n      mload(0x40)\n      tag_21\n      swap2\n      swap1\n      tag_18\n      jump\t// in\n    tag_21:\n      mload(0x40)\n      dup1\n      swap2\n      sub\n      swap1\n      return\n        /* \"contracts/GlobalVariableApi.sol\":4180:4233  bytes20 public e = ripemd160(abi.encodePacked(\"lsy\")) */\n    tag_7:\n      tag_22\n      tag_23\n      jump\t// in\n    tag_22:\n      mload(0x40)\n      tag_24\n      swap2\n      swap1\n      tag_25\n      jump\t// in\n    tag_24:\n      mload(0x40)\n      dup1\n      swap2\n      sub\n      swap1\n      return\n        /* \"contracts/GlobalVariableApi.sol\":3479:3511  uint public a = addmod(10, 2, 8) */\n    tag_9:\n      sload(0x00)\n      dup2\n      jump\t// out\n        /* \"contracts/GlobalVariableApi.sol\":3664:3697  uint public b = mulmod(10, 2, 60) */\n    tag_13:\n      sload(0x01)\n      dup2\n      jump\t// out\n        /* \"contracts/GlobalVariableApi.sol\":4004:4054  bytes32 public d = sha256(abi.encodePacked(\"lsy\")) */\n    tag_16:\n      sload(0x03)\n      dup2\n      jump\t// out\n        /* \"contracts/GlobalVariableApi.sol\":3868:3921  bytes32 public c = keccak256(abi.encodePacked(\"lsy\")) */\n    tag_20:\n      sload(0x02)\n      dup2\n      jump\t// out\n        /* \"contracts/GlobalVariableApi.sol\":4180:4233  bytes20 public e = ripemd160(abi.encodePacked(\"lsy\")) */\n    tag_23:\n      0x04\n      0x00\n      swap1\n      sload\n      swap1\n      0x0100\n      exp\n      swap1\n      div\n      0x60\n      shl\n      dup2\n      jump\t// out\n        /* \"#utility.yul\":7:84   */\n    tag_26:\n        /* \"#utility.yul\":44:51   */\n      0x00\n        /* \"#utility.yul\":73:78   */\n      dup2\n        /* \"#utility.yul\":62:78   */\n      swap1\n      pop\n        /* \"#utility.yul\":7:84   */\n      swap2\n      swap1\n      pop\n      jump\t// out\n        /* \"#utility.yul\":90:208   */\n    tag_27:\n        /* \"#utility.yul\":177:201   */\n      tag_35\n        /* \"#utility.yul\":195:200   */\n      dup2\n        /* \"#utility.yul\":177:201   */\n      tag_26\n      jump\t// in\n    tag_35:\n        /* \"#utility.yul\":172:175   */\n      dup3\n        /* \"#utility.yul\":165:202   */\n      mstore\n        /* \"#utility.yul\":90:208   */\n      pop\n      pop\n      jump\t// out\n        /* \"#utility.yul\":214:436   */\n    tag_11:\n        /* \"#utility.yul\":307:311   */\n      0x00\n        /* \"#utility.yul\":345:347   */\n      0x20\n        /* \"#utility.yul\":334:343   */\n      dup3\n        /* \"#utility.yul\":330:348   */\n      add\n        /* \"#utility.yul\":322:348   */\n      swap1\n      pop\n        /* \"#utility.yul\":358:429   */\n      tag_37\n        /* \"#utility.yul\":426:427   */\n      0x00\n        /* \"#utility.yul\":415:424   */\n      dup4\n        /* \"#utility.yul\":411:428   */\n      add\n        /* \"#utility.yul\":402:408   */\n      dup5\n        /* \"#utility.yul\":358:429   */\n      tag_27\n      jump\t// in\n    tag_37:\n        /* \"#utility.yul\":214:436   */\n      swap3\n      swap2\n      pop\n      pop\n      jump\t// out\n        /* \"#utility.yul\":442:519   */\n    tag_28:\n        /* \"#utility.yul\":479:486   */\n      0x00\n        /* \"#utility.yul\":508:513   */\n      dup2\n        /* \"#utility.yul\":497:513   */\n      swap1\n      pop\n        /* \"#utility.yul\":442:519   */\n      swap2\n      swap1\n      pop\n      jump\t// out\n        /* \"#utility.yul\":525:643   */\n    tag_29:\n        /* \"#utility.yul\":612:636   */\n      tag_40\n        /* \"#utility.yul\":630:635   */\n      dup2\n        /* \"#utility.yul\":612:636   */\n      tag_28\n      jump\t// in\n    tag_40:\n        /* \"#utility.yul\":607:610   */\n      dup3\n        /* \"#utility.yul\":600:637   */\n      mstore\n        /* \"#utility.yul\":525:643   */\n      pop\n      pop\n      jump\t// out\n        /* \"#utility.yul\":649:871   */\n    tag_18:\n        /* \"#utility.yul\":742:746   */\n      0x00\n        /* \"#utility.yul\":780:782   */\n      0x20\n        /* \"#utility.yul\":769:778   */\n      dup3\n        /* \"#utility.yul\":765:783   */\n      add\n        /* \"#utility.yul\":757:783   */\n      swap1\n      pop\n        /* \"#utility.yul\":793:864   */\n      tag_42\n        /* \"#utility.yul\":861:862   */\n      0x00\n        /* \"#utility.yul\":850:859   */\n      dup4\n        /* \"#utility.yul\":846:863   */\n      add\n        /* \"#utility.yul\":837:843   */\n      dup5\n        /* \"#utility.yul\":793:864   */\n      tag_29\n      jump\t// in\n    tag_42:\n        /* \"#utility.yul\":649:871   */\n      swap3\n      swap2\n      pop\n      pop\n      jump\t// out\n        /* \"#utility.yul\":877:1027   */\n    tag_30:\n        /* \"#utility.yul\":914:921   */\n      0x00\n        /* \"#utility.yul\":954:1020   */\n      0xffffffffffffffffffffffffffffffffffffffff000000000000000000000000\n        /* \"#utility.yul\":947:952   */\n      dup3\n        /* \"#utility.yul\":943:1021   */\n      and\n        /* \"#utility.yul\":932:1021   */\n      swap1\n      pop\n        /* \"#utility.yul\":877:1027   */\n      swap2\n      swap1\n      pop\n      jump\t// out\n        /* \"#utility.yul\":1033:1151   */\n    tag_31:\n        /* \"#utility.yul\":1120:1144   */\n      tag_45\n        /* \"#utility.yul\":1138:1143   */\n      dup2\n        /* \"#utility.yul\":1120:1144   */\n      tag_30\n      jump\t// in\n    tag_45:\n        /* \"#utility.yul\":1115:1118   */\n      dup3\n        /* \"#utility.yul\":1108:1145   */\n      mstore\n        /* \"#utility.yul\":1033:1151   */\n      pop\n      pop\n      jump\t// out\n        /* \"#utility.yul\":1157:1379   */\n    tag_25:\n        /* \"#utility.yul\":1250:1254   */\n      0x00\n        /* \"#utility.yul\":1288:1290   */\n      0x20\n        /* \"#utility.yul\":1277:1286   */\n      dup3\n        /* \"#utility.yul\":1273:1291   */\n      add\n        /* \"#utility.yul\":1265:1291   */\n      swap1\n      pop\n        /* \"#utility.yul\":1301:1372   */\n      tag_47\n        /* \"#utility.yul\":1369:1370   */\n      0x00\n        /* \"#utility.yul\":1358:1367   */\n      dup4\n        /* \"#utility.yul\":1354:1371   */\n      add\n        /* \"#utility.yul\":1345:1351   */\n      dup5\n        /* \"#utility.yul\":1301:1372   */\n      tag_31\n      jump\t// in\n    tag_47:\n        /* \"#utility.yul\":1157:1379   */\n      swap3\n      swap2\n      pop\n      pop\n      jump\t// out\n\n    auxdata: 0xa2646970667358221220f8980abbc700507c82d195fc3ff56b37add51ee66f6ed7bc6a4f8c6c1997893964736f6c634300081a0033\n}\n",
				"bytecode": {
					"linkReferences": {},
					"object": "608060405260088061001457610013610158565b5b6002600a085f55603c8061002b5761002a610158565b5b6002600a09600155604051602001610042906101d9565b60405160208183030381529060405280519060200120600255600260405160200161006c906101d9565b604051602081830303815290604052604051610088919061023f565b602060405180830381855afa1580156100a3573d5f803e3d5ffd5b5050506040513d601f19601f820116820180604052508101906100c6919061028c565b60035560036040516020016100da906101d9565b6040516020818303038152906040526040516100f6919061023f565b602060405180830381855afa158015610111573d5f803e3d5ffd5b5050506040515160601b60045f6101000a81548173ffffffffffffffffffffffffffffffffffffffff021916908360601c0217905550348015610152575f80fd5b506102b7565b7f4e487b71000000000000000000000000000000000000000000000000000000005f52601260045260245ffd5b5f81905092915050565b7f6c737900000000000000000000000000000000000000000000000000000000005f82015250565b5f6101c3600383610185565b91506101ce8261018f565b600382019050919050565b5f6101e3826101b7565b9150819050919050565b5f81519050919050565b5f81905092915050565b8281835e5f83830152505050565b5f610219826101ed565b61022381856101f7565b9350610233818560208601610201565b80840191505092915050565b5f61024a828461020f565b915081905092915050565b5f80fd5b5f819050919050565b61026b81610259565b8114610275575f80fd5b50565b5f8151905061028681610262565b92915050565b5f602082840312156102a1576102a0610255565b5b5f6102ae84828501610278565b91505092915050565b610203806102c45f395ff3fe608060405234801561000f575f80fd5b5060043610610055575f3560e01c80630dbe671f146100595780634df7e3d0146100775780638a054ac214610095578063c3da42b8146100b3578063ffae15ba146100d1575b5f80fd5b6100616100ef565b60405161006e9190610130565b60405180910390f35b61007f6100f4565b60405161008c9190610130565b60405180910390f35b61009d6100fa565b6040516100aa9190610161565b60405180910390f35b6100bb610100565b6040516100c89190610161565b60405180910390f35b6100d9610106565b6040516100e691906101b4565b60405180910390f35b5f5481565b60015481565b60035481565b60025481565b60045f9054906101000a900460601b81565b5f819050919050565b61012a81610118565b82525050565b5f6020820190506101435f830184610121565b92915050565b5f819050919050565b61015b81610149565b82525050565b5f6020820190506101745f830184610152565b92915050565b5f7fffffffffffffffffffffffffffffffffffffffff00000000000000000000000082169050919050565b6101ae8161017a565b82525050565b5f6020820190506101c75f8301846101a5565b9291505056fea2646970667358221220f8980abbc700507c82d195fc3ff56b37add51ee66f6ed7bc6a4f8c6c1997893964736f6c634300081a0033",
					"opcodes": "PUSH1 0x80 PUSH1 0x40 MSTORE PUSH1 0x8 DUP1 PUSH2 0x14 JUMPI PUSH2 0x13 PUSH2 0x158 JUMP JUMPDEST JUMPDEST PUSH1 0x2 PUSH1 0xA ADDMOD PUSH0 SSTORE PUSH1 0x3C DUP1 PUSH2 0x2B JUMPI PUSH2 0x2A PUSH2 0x158 JUMP JUMPDEST JUMPDEST PUSH1 0x2 PUSH1 0xA MULMOD PUSH1 0x1 SSTORE PUSH1 0x40 MLOAD PUSH1 0x20 ADD PUSH2 0x42 SWAP1 PUSH2 0x1D9 JUMP JUMPDEST PUSH1 0x40 MLOAD PUSH1 0x20 DUP2 DUP4 SUB SUB DUP2 MSTORE SWAP1 PUSH1 0x40 MSTORE DUP1 MLOAD SWAP1 PUSH1 0x20 ADD KECCAK256 PUSH1 0x2 SSTORE PUSH1 0x2 PUSH1 0x40 MLOAD PUSH1 0x20 ADD PUSH2 0x6C SWAP1 PUSH2 0x1D9 JUMP JUMPDEST PUSH1 0x40 MLOAD PUSH1 0x20 DUP2 DUP4 SUB SUB DUP2 MSTORE SWAP1 PUSH1 0x40 MSTORE PUSH1 0x40 MLOAD PUSH2 0x88 SWAP2 SWAP1 PUSH2 0x23F JUMP JUMPDEST PUSH1 0x20 PUSH1 0x40 MLOAD DUP1 DUP4 SUB DUP2 DUP6 GAS STATICCALL ISZERO DUP1 ISZERO PUSH2 0xA3 JUMPI RETURNDATASIZE PUSH0 DUP1 RETURNDATACOPY RETURNDATASIZE PUSH0 REVERT JUMPDEST POP POP POP PUSH1 0x40 MLOAD RETURNDATASIZE PUSH1 0x1F NOT PUSH1 0x1F DUP3 ADD AND DUP3 ADD DUP1 PUSH1 0x40 MSTORE POP DUP2 ADD SWAP1 PUSH2 0xC6 SWAP2 SWAP1 PUSH2 0x28C JUMP JUMPDEST PUSH1 0x3 SSTORE PUSH1 0x3 PUSH1 0x40 MLOAD PUSH1 0x20 ADD PUSH2 0xDA SWAP1 PUSH2 0x1D9 JUMP JUMPDEST PUSH1 0x40 MLOAD PUSH1 0x20 DUP2 DUP4 SUB SUB DUP2 MSTORE SWAP1 PUSH1 0x40 MSTORE PUSH1 0x40 MLOAD PUSH2 0xF6 SWAP2 SWAP1 PUSH2 0x23F JUMP JUMPDEST PUSH1 0x20 PUSH1 0x40 MLOAD DUP1 DUP4 SUB DUP2 DUP6 GAS STATICCALL ISZERO DUP1 ISZERO PUSH2 0x111 JUMPI RETURNDATASIZE PUSH0 DUP1 RETURNDATACOPY RETURNDATASIZE PUSH0 REVERT JUMPDEST POP POP POP PUSH1 0x40 MLOAD MLOAD PUSH1 0x60 SHL PUSH1 0x4 PUSH0 PUSH2 0x100 EXP DUP2 SLOAD DUP2 PUSH20 0xFFFFFFFFFFFFFFFFFFFFFFFFFFFFFFFFFFFFFFFF MUL NOT AND SWAP1 DUP4 PUSH1 0x60 SHR MUL OR SWAP1 SSTORE POP CALLVALUE DUP1 ISZERO PUSH2 0x152 JUMPI PUSH0 DUP1 REVERT JUMPDEST POP PUSH2 0x2B7 JUMP JUMPDEST PUSH32 0x4E487B7100000000000000000000000000000000000000000000000000000000 PUSH0 MSTORE PUSH1 0x12 PUSH1 0x4 MSTORE PUSH1 0x24 PUSH0 REVERT JUMPDEST PUSH0 DUP2 SWAP1 POP SWAP3 SWAP2 POP POP JUMP JUMPDEST PUSH32 0x6C73790000000000000000000000000000000000000000000000000000000000 PUSH0 DUP3 ADD MSTORE POP JUMP JUMPDEST PUSH0 PUSH2 0x1C3 PUSH1 0x3 DUP4 PUSH2 0x185 JUMP JUMPDEST SWAP2 POP PUSH2 0x1CE DUP3 PUSH2 0x18F JUMP JUMPDEST PUSH1 0x3 DUP3 ADD SWAP1 POP SWAP2 SWAP1 POP JUMP JUMPDEST PUSH0 PUSH2 0x1E3 DUP3 PUSH2 0x1B7 JUMP JUMPDEST SWAP2 POP DUP2 SWAP1 POP SWAP2 SWAP1 POP JUMP JUMPDEST PUSH0 DUP2 MLOAD SWAP1 POP SWAP2 SWAP1 POP JUMP JUMPDEST PUSH0 DUP2 SWAP1 POP SWAP3 SWAP2 POP POP JUMP JUMPDEST DUP3 DUP2 DUP4 MCOPY PUSH0 DUP4 DUP4 ADD MSTORE POP POP POP JUMP JUMPDEST PUSH0 PUSH2 0x219 DUP3 PUSH2 0x1ED JUMP JUMPDEST PUSH2 0x223 DUP2 DUP6 PUSH2 0x1F7 JUMP JUMPDEST SWAP4 POP PUSH2 0x233 DUP2 DUP6 PUSH1 0x20 DUP7 ADD PUSH2 0x201 JUMP JUMPDEST DUP1 DUP5 ADD SWAP2 POP POP SWAP3 SWAP2 POP POP JUMP JUMPDEST PUSH0 PUSH2 0x24A DUP3 DUP5 PUSH2 0x20F JUMP JUMPDEST SWAP2 POP DUP2 SWAP1 POP SWAP3 SWAP2 POP POP JUMP JUMPDEST PUSH0 DUP1 REVERT JUMPDEST PUSH0 DUP2 SWAP1 POP SWAP2 SWAP1 POP JUMP JUMPDEST PUSH2 0x26B DUP2 PUSH2 0x259 JUMP JUMPDEST DUP2 EQ PUSH2 0x275 JUMPI PUSH0 DUP1 REVERT JUMPDEST POP JUMP JUMPDEST PUSH0 DUP2 MLOAD SWAP1 POP PUSH2 0x286 DUP2 PUSH2 0x262 JUMP JUMPDEST SWAP3 SWAP2 POP POP JUMP JUMPDEST PUSH0 PUSH1 0x20 DUP3 DUP5 SUB SLT ISZERO PUSH2 0x2A1 JUMPI PUSH2 0x2A0 PUSH2 0x255 JUMP JUMPDEST JUMPDEST PUSH0 PUSH2 0x2AE DUP5 DUP3 DUP6 ADD PUSH2 0x278 JUMP JUMPDEST SWAP2 POP POP SWAP3 SWAP2 POP POP JUMP JUMPDEST PUSH2 0x203 DUP1 PUSH2 0x2C4 PUSH0 CODECOPY PUSH0 RETURN INVALID PUSH1 0x80 PUSH1 0x40 MSTORE CALLVALUE DUP1 ISZERO PUSH2 0xF JUMPI PUSH0 DUP1 REVERT JUMPDEST POP PUSH1 0x4 CALLDATASIZE LT PUSH2 0x55 JUMPI PUSH0 CALLDATALOAD PUSH1 0xE0 SHR DUP1 PUSH4 0xDBE671F EQ PUSH2 0x59 JUMPI DUP1 PUSH4 0x4DF7E3D0 EQ PUSH2 0x77 JUMPI DUP1 PUSH4 0x8A054AC2 EQ PUSH2 0x95 JUMPI DUP1 PUSH4 0xC3DA42B8 EQ PUSH2 0xB3 JUMPI DUP1 PUSH4 0xFFAE15BA EQ PUSH2 0xD1 JUMPI JUMPDEST PUSH0 DUP1 REVERT JUMPDEST PUSH2 0x61 PUSH2 0xEF JUMP JUMPDEST PUSH1 0x40 MLOAD PUSH2 0x6E SWAP2 SWAP1 PUSH2 0x130 JUMP JUMPDEST PUSH1 0x40 MLOAD DUP1 SWAP2 SUB SWAP1 RETURN JUMPDEST PUSH2 0x7F PUSH2 0xF4 JUMP JUMPDEST PUSH1 0x40 MLOAD PUSH2 0x8C SWAP2 SWAP1 PUSH2 0x130 JUMP JUMPDEST PUSH1 0x40 MLOAD DUP1 SWAP2 SUB SWAP1 RETURN JUMPDEST PUSH2 0x9D PUSH2 0xFA JUMP JUMPDEST PUSH1 0x40 MLOAD PUSH2 0xAA SWAP2 SWAP1 PUSH2 0x161 JUMP JUMPDEST PUSH1 0x40 MLOAD DUP1 SWAP2 SUB SWAP1 RETURN JUMPDEST PUSH2 0xBB PUSH2 0x100 JUMP JUMPDEST PUSH1 0x40 MLOAD PUSH2 0xC8 SWAP2 SWAP1 PUSH2 0x161 JUMP JUMPDEST PUSH1 0x40 MLOAD DUP1 SWAP2 SUB SWAP1 RETURN JUMPDEST PUSH2 0xD9 PUSH2 0x106 JUMP JUMPDEST PUSH1 0x40 MLOAD PUSH2 0xE6 SWAP2 SWAP1 PUSH2 0x1B4 JUMP JUMPDEST PUSH1 0x40 MLOAD DUP1 SWAP2 SUB SWAP1 RETURN JUMPDEST PUSH0 SLOAD DUP2 JUMP JUMPDEST PUSH1 0x1 SLOAD DUP2 JUMP JUMPDEST PUSH1 0x3 SLOAD DUP2 JUMP JUMPDEST PUSH1 0x2 SLOAD DUP2 JUMP JUMPDEST PUSH1 0x4 PUSH0 SWAP1 SLOAD SWAP1 PUSH2 0x100 EXP SWAP1 DIV PUSH1 0x60 SHL DUP2 JUMP JUMPDEST PUSH0 DUP2 SWAP1 POP SWAP2 SWAP1 POP JUMP JUMPDEST PUSH2 0x12A DUP2 PUSH2 0x118 JUMP JUMPDEST DUP3 MSTORE POP POP JUMP JUMPDEST PUSH0 PUSH1 0x20 DUP3 ADD SWAP1 POP PUSH2 0x143 PUSH0 DUP4 ADD DUP5 PUSH2 0x121 JUMP JUMPDEST SWAP3 SWAP2 POP POP JUMP JUMPDEST PUSH0 DUP2 SWAP1 POP SWAP2 SWAP1 POP JUMP JUMPDEST PUSH2 0x15B DUP2 PUSH2 0x149 JUMP JUMPDEST DUP3 MSTORE POP POP JUMP JUMPDEST PUSH0 PUSH1 0x20 DUP3 ADD SWAP1 POP PUSH2 0x174 PUSH0 DUP4 ADD DUP5 PUSH2 0x152 JUMP JUMPDEST SWAP3 SWAP2 POP POP JUMP JUMPDEST PUSH0 PUSH32 0xFFFFFFFFFFFFFFFFFFFFFFFFFFFFFFFFFFFFFFFF000000000000000000000000 DUP3 AND SWAP1 POP SWAP2 SWAP1 POP JUMP JUMPDEST PUSH2 0x1AE DUP2 PUSH2 0x17A JUMP JUMPDEST DUP3 MSTORE POP POP JUMP JUMPDEST PUSH0 PUSH1 0x20 DUP3 ADD SWAP1 POP PUSH2 0x1C7 PUSH0 DUP4 ADD DUP5 PUSH2 0x1A5 JUMP JUMPDEST SWAP3 SWAP2 POP POP JUMP INVALID LOG2 PUSH5 0x6970667358 0x22 SLT KECCAK256 0xF8 SWAP9 EXP 0xBB 0xC7 STOP POP PUSH29 0x82D195FC3FF56B37ADD51EE66F6ED7BC6A4F8C6C1997893964736F6C63 NUMBER STOP ADDMOD BYTE STOP CALLER "
				},
				"gasEstimates": {
					"creation": {
						"codeDepositCost": "103000",
						"executionCost": "infinite",
						"totalCost": "infinite"
					},
					"external": {
						"a()": "2402",
						"b()": "2425",
						"c()": "2469",
						"d()": "2447",
						"e()": "2532"
					}
				},
				"methodIdentifiers": {
					"a()": "0dbe671f",
					"b()": "4df7e3d0",
					"c()": "c3da42b8",
					"d()": "8a054ac2",
					"e()": "ffae15ba"
				}
			},
			"storageLayout": {
				"storage": [
					{
						"astId": 114,
						"contract": "contracts/GlobalVariableApi.sol:hashFunction",
						"label": "a",
						"offset": 0,
						"slot": "0",
						"type": "t_uint256"
					},
					{
						"astId": 121,
						"contract": "contracts/GlobalVariableApi.sol:hashFunction",
						"label": "b",
						"offset": 0,
						"slot": "1",
						"type": "t_uint256"
					},
					{
						"astId": 129,
						"contract": "contracts/GlobalVariableApi.sol:hashFunction",
						"label": "c",
						"offset": 0,
						"slot": "2",
						"type": "t_bytes32"
					},
					{
						"astId": 137,
						"contract": "contracts/GlobalVariableApi.sol:hashFunction",
						"label": "d",
						"offset": 0,
						"slot": "3",
						"type": "t_bytes32"
					},
					{
						"astId": 145,
						"contract": "contracts/GlobalVariableApi.sol:hashFunction",
						"label": "e",
						"offset": 0,
						"slot": "4",
						"type": "t_bytes20"
					}
				],
				"types": {
					"t_bytes20": {
						"encoding": "inplace",
						"label": "bytes20",
						"numberOfBytes": "20"
					},
					"t_bytes32": {
						"encoding": "inplace",
						"label": "bytes32",
						"numberOfBytes": "32"
					},
					"t_uint256": {
						"encoding": "inplace",
						"label": "uint256",
						"numberOfBytes": "32"
					}
				}
			},
			"userdoc": {
				"kind": "user",
				"methods": {},
				"version": 1
			}
		}
	}
}