{
	"contracts/GlobalVariableApi.sol": {
		"MultiStageTimeLock": {
			"abi": [
				{
					"inputs": [
						{
							"internalType": "uint256",
							"name": "_stage1Lock",
							"type": "uint256"
						},
						{
							"internalType": "uint256",
							"name": "_stage2Lock",
							"type": "uint256"
						}
					],
					"stateMutability": "nonpayable",
					"type": "constructor"
				},
				{
					"inputs": [],
					"name": "owner",
					"outputs": [
						{
							"internalType": "address",
							"name": "",
							"type": "address"
						}
					],
					"stateMutability": "view",
					"type": "function"
				},
				{
					"inputs": [],
					"name": "stage1UnlockTime",
					"outputs": [
						{
							"internalType": "uint256",
							"name": "",
							"type": "uint256"
						}
					],
					"stateMutability": "view",
					"type": "function"
				},
				{
					"inputs": [],
					"name": "stage2UnlockTime",
					"outputs": [
						{
							"internalType": "uint256",
							"name": "",
							"type": "uint256"
						}
					],
					"stateMutability": "view",
					"type": "function"
				},
				{
					"inputs": [],
					"name": "withdrawStage1",
					"outputs": [],
					"stateMutability": "nonpayable",
					"type": "function"
				},
				{
					"inputs": [],
					"name": "withdrawStage2",
					"outputs": [],
					"stateMutability": "nonpayable",
					"type": "function"
				}
			],
			"devdoc": {
				"kind": "dev",
				"methods": {},
				"version": 1
			},
			"evm": {
				"assembly": "    /* \"contracts/GlobalVariableApi.sol\":6835:7717  contract MultiStageTimeLock { ... */\n  mstore(0x40, 0x80)\n    /* \"contracts/GlobalVariableApi.sol\":6968:7243  constructor(uint _stage1Lock, uint _stage2Lock) {... */\n  callvalue\n  dup1\n  iszero\n  tag_1\n  jumpi\n  0x00\n  dup1\n  revert\ntag_1:\n  pop\n  mload(0x40)\n  sub(codesize, bytecodeSize)\n  dup1\n  bytecodeSize\n  dup4\n  codecopy\n  dup2\n  dup2\n  add\n  0x40\n  mstore\n  dup2\n  add\n  swap1\n  tag_2\n  swap2\n  swap1\n  tag_3\n  jump\t// in\ntag_2:\n    /* \"contracts/GlobalVariableApi.sol\":7034:7044  msg.sender */\n  caller\n    /* \"contracts/GlobalVariableApi.sol\":7026:7031  owner */\n  0x02\n  0x00\n    /* \"contracts/GlobalVariableApi.sol\":7026:7044  owner = msg.sender */\n  0x0100\n  exp\n  dup2\n  sload\n  dup2\n  0xffffffffffffffffffffffffffffffffffffffff\n  mul\n  not\n  and\n  swap1\n  dup4\n  0xffffffffffffffffffffffffffffffffffffffff\n  and\n  mul\n  or\n  swap1\n  sstore\n  pop\n    /* \"contracts/GlobalVariableApi.sol\":7105:7111  1 days */\n  0x015180\n    /* \"contracts/GlobalVariableApi.sol\":7091:7102  _stage1Lock */\n  dup3\n    /* \"contracts/GlobalVariableApi.sol\":7091:7111  _stage1Lock * 1 days */\n  tag_6\n  swap2\n  swap1\n  tag_7\n  jump\t// in\ntag_6:\n    /* \"contracts/GlobalVariableApi.sol\":7073:7088  block.timestamp */\n  timestamp\n    /* \"contracts/GlobalVariableApi.sol\":7073:7111  block.timestamp + _stage1Lock * 1 days */\n  tag_8\n  swap2\n  swap1\n  tag_9\n  jump\t// in\ntag_8:\n    /* \"contracts/GlobalVariableApi.sol\":7054:7070  stage1UnlockTime */\n  0x00\n    /* \"contracts/GlobalVariableApi.sol\":7054:7111  stage1UnlockTime = block.timestamp + _stage1Lock * 1 days */\n  dup2\n  swap1\n  sstore\n  pop\n    /* \"contracts/GlobalVariableApi.sol\":7201:7207  1 days */\n  0x015180\n    /* \"contracts/GlobalVariableApi.sol\":7187:7198  _stage2Lock */\n  dup2\n    /* \"contracts/GlobalVariableApi.sol\":7187:7207  _stage2Lock * 1 days */\n  tag_10\n  swap2\n  swap1\n  tag_7\n  jump\t// in\ntag_10:\n    /* \"contracts/GlobalVariableApi.sol\":7169:7184  block.timestamp */\n  timestamp\n    /* \"contracts/GlobalVariableApi.sol\":7169:7207  block.timestamp + _stage2Lock * 1 days */\n  tag_11\n  swap2\n  swap1\n  tag_9\n  jump\t// in\ntag_11:\n    /* \"contracts/GlobalVariableApi.sol\":7150:7166  stage2UnlockTime */\n  0x01\n    /* \"contracts/GlobalVariableApi.sol\":7150:7207  stage2UnlockTime = block.timestamp + _stage2Lock * 1 days */\n  dup2\n  swap1\n  sstore\n  pop\n    /* \"contracts/GlobalVariableApi.sol\":6968:7243  constructor(uint _stage1Lock, uint _stage2Lock) {... */\n  pop\n  pop\n    /* \"contracts/GlobalVariableApi.sol\":6835:7717  contract MultiStageTimeLock { ... */\n  jump(tag_12)\n    /* \"#utility.yul\":88:205   */\ntag_14:\n    /* \"#utility.yul\":197:198   */\n  0x00\n    /* \"#utility.yul\":194:195   */\n  dup1\n    /* \"#utility.yul\":187:199   */\n  revert\n    /* \"#utility.yul\":334:411   */\ntag_16:\n    /* \"#utility.yul\":371:378   */\n  0x00\n    /* \"#utility.yul\":400:405   */\n  dup2\n    /* \"#utility.yul\":389:405   */\n  swap1\n  pop\n    /* \"#utility.yul\":334:411   */\n  swap2\n  swap1\n  pop\n  jump\t// out\n    /* \"#utility.yul\":417:539   */\ntag_17:\n    /* \"#utility.yul\":490:514   */\n  tag_26\n    /* \"#utility.yul\":508:513   */\n  dup2\n    /* \"#utility.yul\":490:514   */\n  tag_16\n  jump\t// in\ntag_26:\n    /* \"#utility.yul\":483:488   */\n  dup2\n    /* \"#utility.yul\":480:515   */\n  eq\n    /* \"#utility.yul\":470:533   */\n  tag_27\n  jumpi\n    /* \"#utility.yul\":529:530   */\n  0x00\n    /* \"#utility.yul\":526:527   */\n  dup1\n    /* \"#utility.yul\":519:531   */\n  revert\n    /* \"#utility.yul\":470:533   */\ntag_27:\n    /* \"#utility.yul\":417:539   */\n  pop\n  jump\t// out\n    /* \"#utility.yul\":545:688   */\ntag_18:\n    /* \"#utility.yul\":602:607   */\n  0x00\n    /* \"#utility.yul\":633:639   */\n  dup2\n    /* \"#utility.yul\":627:640   */\n  mload\n    /* \"#utility.yul\":618:640   */\n  swap1\n  pop\n    /* \"#utility.yul\":649:682   */\n  tag_29\n    /* \"#utility.yul\":676:681   */\n  dup2\n    /* \"#utility.yul\":649:682   */\n  tag_17\n  jump\t// in\ntag_29:\n    /* \"#utility.yul\":545:688   */\n  swap3\n  swap2\n  pop\n  pop\n  jump\t// out\n    /* \"#utility.yul\":694:1201   */\ntag_3:\n    /* \"#utility.yul\":773:779   */\n  0x00\n    /* \"#utility.yul\":781:787   */\n  dup1\n    /* \"#utility.yul\":830:832   */\n  0x40\n    /* \"#utility.yul\":818:827   */\n  dup4\n    /* \"#utility.yul\":809:816   */\n  dup6\n    /* \"#utility.yul\":805:828   */\n  sub\n    /* \"#utility.yul\":801:833   */\n  slt\n    /* \"#utility.yul\":798:917   */\n  iszero\n  tag_31\n  jumpi\n    /* \"#utility.yul\":836:915   */\n  tag_32\n  tag_14\n  jump\t// in\ntag_32:\n    /* \"#utility.yul\":798:917   */\ntag_31:\n    /* \"#utility.yul\":956:957   */\n  0x00\n    /* \"#utility.yul\":981:1045   */\n  tag_33\n    /* \"#utility.yul\":1037:1044   */\n  dup6\n    /* \"#utility.yul\":1028:1034   */\n  dup3\n    /* \"#utility.yul\":1017:1026   */\n  dup7\n    /* \"#utility.yul\":1013:1035   */\n  add\n    /* \"#utility.yul\":981:1045   */\n  tag_18\n  jump\t// in\ntag_33:\n    /* \"#utility.yul\":971:1045   */\n  swap3\n  pop\n    /* \"#utility.yul\":927:1055   */\n  pop\n    /* \"#utility.yul\":1094:1096   */\n  0x20\n    /* \"#utility.yul\":1120:1184   */\n  tag_34\n    /* \"#utility.yul\":1176:1183   */\n  dup6\n    /* \"#utility.yul\":1167:1173   */\n  dup3\n    /* \"#utility.yul\":1156:1165   */\n  dup7\n    /* \"#utility.yul\":1152:1174   */\n  add\n    /* \"#utility.yul\":1120:1184   */\n  tag_18\n  jump\t// in\ntag_34:\n    /* \"#utility.yul\":1110:1184   */\n  swap2\n  pop\n    /* \"#utility.yul\":1065:1194   */\n  pop\n    /* \"#utility.yul\":694:1201   */\n  swap3\n  pop\n  swap3\n  swap1\n  pop\n  jump\t// out\n    /* \"#utility.yul\":1207:1387   */\ntag_19:\n    /* \"#utility.yul\":1255:1332   */\n  0x4e487b7100000000000000000000000000000000000000000000000000000000\n    /* \"#utility.yul\":1252:1253   */\n  0x00\n    /* \"#utility.yul\":1245:1333   */\n  mstore\n    /* \"#utility.yul\":1352:1356   */\n  0x11\n    /* \"#utility.yul\":1349:1350   */\n  0x04\n    /* \"#utility.yul\":1342:1357   */\n  mstore\n    /* \"#utility.yul\":1376:1380   */\n  0x24\n    /* \"#utility.yul\":1373:1374   */\n  0x00\n    /* \"#utility.yul\":1366:1381   */\n  revert\n    /* \"#utility.yul\":1393:1803   */\ntag_7:\n    /* \"#utility.yul\":1433:1440   */\n  0x00\n    /* \"#utility.yul\":1456:1476   */\n  tag_37\n    /* \"#utility.yul\":1474:1475   */\n  dup3\n    /* \"#utility.yul\":1456:1476   */\n  tag_16\n  jump\t// in\ntag_37:\n    /* \"#utility.yul\":1451:1476   */\n  swap2\n  pop\n    /* \"#utility.yul\":1490:1510   */\n  tag_38\n    /* \"#utility.yul\":1508:1509   */\n  dup4\n    /* \"#utility.yul\":1490:1510   */\n  tag_16\n  jump\t// in\ntag_38:\n    /* \"#utility.yul\":1485:1510   */\n  swap3\n  pop\n    /* \"#utility.yul\":1545:1546   */\n  dup3\n    /* \"#utility.yul\":1542:1543   */\n  dup3\n    /* \"#utility.yul\":1538:1547   */\n  mul\n    /* \"#utility.yul\":1567:1597   */\n  tag_39\n    /* \"#utility.yul\":1585:1596   */\n  dup2\n    /* \"#utility.yul\":1567:1597   */\n  tag_16\n  jump\t// in\ntag_39:\n    /* \"#utility.yul\":1556:1597   */\n  swap2\n  pop\n    /* \"#utility.yul\":1746:1747   */\n  dup3\n    /* \"#utility.yul\":1737:1744   */\n  dup3\n    /* \"#utility.yul\":1733:1748   */\n  div\n    /* \"#utility.yul\":1730:1731   */\n  dup5\n    /* \"#utility.yul\":1727:1749   */\n  eq\n    /* \"#utility.yul\":1707:1708   */\n  dup4\n    /* \"#utility.yul\":1700:1709   */\n  iszero\n    /* \"#utility.yul\":1680:1763   */\n  or\n    /* \"#utility.yul\":1657:1796   */\n  tag_40\n  jumpi\n    /* \"#utility.yul\":1776:1794   */\n  tag_41\n  tag_19\n  jump\t// in\ntag_41:\n    /* \"#utility.yul\":1657:1796   */\ntag_40:\n    /* \"#utility.yul\":1441:1803   */\n  pop\n    /* \"#utility.yul\":1393:1803   */\n  swap3\n  swap2\n  pop\n  pop\n  jump\t// out\n    /* \"#utility.yul\":1809:2000   */\ntag_9:\n    /* \"#utility.yul\":1849:1852   */\n  0x00\n    /* \"#utility.yul\":1868:1888   */\n  tag_43\n    /* \"#utility.yul\":1886:1887   */\n  dup3\n    /* \"#utility.yul\":1868:1888   */\n  tag_16\n  jump\t// in\ntag_43:\n    /* \"#utility.yul\":1863:1888   */\n  swap2\n  pop\n    /* \"#utility.yul\":1902:1922   */\n  tag_44\n    /* \"#utility.yul\":1920:1921   */\n  dup4\n    /* \"#utility.yul\":1902:1922   */\n  tag_16\n  jump\t// in\ntag_44:\n    /* \"#utility.yul\":1897:1922   */\n  swap3\n  pop\n    /* \"#utility.yul\":1945:1946   */\n  dup3\n    /* \"#utility.yul\":1942:1943   */\n  dup3\n    /* \"#utility.yul\":1938:1947   */\n  add\n    /* \"#utility.yul\":1931:1947   */\n  swap1\n  pop\n    /* \"#utility.yul\":1966:1969   */\n  dup1\n    /* \"#utility.yul\":1963:1964   */\n  dup3\n    /* \"#utility.yul\":1960:1970   */\n  gt\n    /* \"#utility.yul\":1957:1993   */\n  iszero\n  tag_45\n  jumpi\n    /* \"#utility.yul\":1973:1991   */\n  tag_46\n  tag_19\n  jump\t// in\ntag_46:\n    /* \"#utility.yul\":1957:1993   */\ntag_45:\n    /* \"#utility.yul\":1809:2000   */\n  swap3\n  swap2\n  pop\n  pop\n  jump\t// out\n    /* \"contracts/GlobalVariableApi.sol\":6835:7717  contract MultiStageTimeLock { ... */\ntag_12:\n  dataSize(sub_0)\n  dup1\n  dataOffset(sub_0)\n  0x00\n  codecopy\n  0x00\n  return\nstop\n\nsub_0: assembly {\n        /* \"contracts/GlobalVariableApi.sol\":6835:7717  contract MultiStageTimeLock { ... */\n      mstore(0x40, 0x80)\n      callvalue\n      dup1\n      iszero\n      tag_1\n      jumpi\n      0x00\n      dup1\n      revert\n    tag_1:\n      pop\n      jumpi(tag_2, lt(calldatasize, 0x04))\n      shr(0xe0, calldataload(0x00))\n      dup1\n      0x68efabc0\n      eq\n      tag_3\n      jumpi\n      dup1\n      0x70d1c571\n      eq\n      tag_4\n      jumpi\n      dup1\n      0x889ec605\n      eq\n      tag_5\n      jumpi\n      dup1\n      0x8da5cb5b\n      eq\n      tag_6\n      jumpi\n      dup1\n      0x9fcb6c61\n      eq\n      tag_7\n      jumpi\n    tag_2:\n      0x00\n      dup1\n      revert\n        /* \"contracts/GlobalVariableApi.sol\":7484:7715  function withdrawStage2() public {... */\n    tag_3:\n      tag_8\n      tag_9\n      jump\t// in\n    tag_8:\n      stop\n        /* \"contracts/GlobalVariableApi.sol\":6871:6899  uint public stage1UnlockTime */\n    tag_4:\n      tag_10\n      tag_11\n      jump\t// in\n    tag_10:\n      mload(0x40)\n      tag_12\n      swap2\n      swap1\n      tag_13\n      jump\t// in\n    tag_12:\n      mload(0x40)\n      dup1\n      swap2\n      sub\n      swap1\n      return\n        /* \"contracts/GlobalVariableApi.sol\":7248:7479  function withdrawStage1() public {... */\n    tag_5:\n      tag_14\n      tag_15\n      jump\t// in\n    tag_14:\n      stop\n        /* \"contracts/GlobalVariableApi.sol\":6941:6961  address public owner */\n    tag_6:\n      tag_16\n      tag_17\n      jump\t// in\n    tag_16:\n      mload(0x40)\n      tag_18\n      swap2\n      swap1\n      tag_19\n      jump\t// in\n    tag_18:\n      mload(0x40)\n      dup1\n      swap2\n      sub\n      swap1\n      return\n        /* \"contracts/GlobalVariableApi.sol\":6906:6934  uint public stage2UnlockTime */\n    tag_7:\n      tag_20\n      tag_21\n      jump\t// in\n    tag_20:\n      mload(0x40)\n      tag_22\n      swap2\n      swap1\n      tag_13\n      jump\t// in\n    tag_22:\n      mload(0x40)\n      dup1\n      swap2\n      sub\n      swap1\n      return\n        /* \"contracts/GlobalVariableApi.sol\":7484:7715  function withdrawStage2() public {... */\n    tag_9:\n        /* \"contracts/GlobalVariableApi.sol\":7554:7570  stage2UnlockTime */\n      sload(0x01)\n        /* \"contracts/GlobalVariableApi.sol\":7535:7550  block.timestamp */\n      timestamp\n        /* \"contracts/GlobalVariableApi.sol\":7535:7570  block.timestamp >= stage2UnlockTime */\n      lt\n      iszero\n        /* \"contracts/GlobalVariableApi.sol\":7527:7600  require(block.timestamp >= stage2UnlockTime, \"Stage 2 funds are locked.\") */\n      tag_24\n      jumpi\n      mload(0x40)\n      0x08c379a000000000000000000000000000000000000000000000000000000000\n      dup2\n      mstore\n      0x04\n      add\n      tag_25\n      swap1\n      tag_26\n      jump\t// in\n    tag_25:\n      mload(0x40)\n      dup1\n      swap2\n      sub\n      swap1\n      revert\n    tag_24:\n        /* \"contracts/GlobalVariableApi.sol\":7632:7637  owner */\n      0x02\n      0x00\n      swap1\n      sload\n      swap1\n      0x0100\n      exp\n      swap1\n      div\n      0xffffffffffffffffffffffffffffffffffffffff\n      and\n        /* \"contracts/GlobalVariableApi.sol\":7618:7637  msg.sender == owner */\n      0xffffffffffffffffffffffffffffffffffffffff\n      and\n        /* \"contracts/GlobalVariableApi.sol\":7618:7628  msg.sender */\n      caller\n        /* \"contracts/GlobalVariableApi.sol\":7618:7637  msg.sender == owner */\n      0xffffffffffffffffffffffffffffffffffffffff\n      and\n      eq\n        /* \"contracts/GlobalVariableApi.sol\":7610:7666  require(msg.sender == owner, \"Only owner can withdraw.\") */\n      tag_27\n      jumpi\n      mload(0x40)\n      0x08c379a000000000000000000000000000000000000000000000000000000000\n      dup2\n      mstore\n      0x04\n      add\n      tag_28\n      swap1\n      tag_29\n      jump\t// in\n    tag_28:\n      mload(0x40)\n      dup1\n      swap2\n      sub\n      swap1\n      revert\n    tag_27:\n        /* \"contracts/GlobalVariableApi.sol\":7484:7715  function withdrawStage2() public {... */\n      jump\t// out\n        /* \"contracts/GlobalVariableApi.sol\":6871:6899  uint public stage1UnlockTime */\n    tag_11:\n      sload(0x00)\n      dup2\n      jump\t// out\n        /* \"contracts/GlobalVariableApi.sol\":7248:7479  function withdrawStage1() public {... */\n    tag_15:\n        /* \"contracts/GlobalVariableApi.sol\":7318:7334  stage1UnlockTime */\n      sload(0x00)\n        /* \"contracts/GlobalVariableApi.sol\":7299:7314  block.timestamp */\n      timestamp\n        /* \"contracts/GlobalVariableApi.sol\":7299:7334  block.timestamp >= stage1UnlockTime */\n      lt\n      iszero\n        /* \"contracts/GlobalVariableApi.sol\":7291:7364  require(block.timestamp >= stage1UnlockTime, \"Stage 1 funds are locked.\") */\n      tag_31\n      jumpi\n      mload(0x40)\n      0x08c379a000000000000000000000000000000000000000000000000000000000\n      dup2\n      mstore\n      0x04\n      add\n      tag_32\n      swap1\n      tag_33\n      jump\t// in\n    tag_32:\n      mload(0x40)\n      dup1\n      swap2\n      sub\n      swap1\n      revert\n    tag_31:\n        /* \"contracts/GlobalVariableApi.sol\":7396:7401  owner */\n      0x02\n      0x00\n      swap1\n      sload\n      swap1\n      0x0100\n      exp\n      swap1\n      div\n      0xffffffffffffffffffffffffffffffffffffffff\n      and\n        /* \"contracts/GlobalVariableApi.sol\":7382:7401  msg.sender == owner */\n      0xffffffffffffffffffffffffffffffffffffffff\n      and\n        /* \"contracts/GlobalVariableApi.sol\":7382:7392  msg.sender */\n      caller\n        /* \"contracts/GlobalVariableApi.sol\":7382:7401  msg.sender == owner */\n      0xffffffffffffffffffffffffffffffffffffffff\n      and\n      eq\n        /* \"contracts/GlobalVariableApi.sol\":7374:7430  require(msg.sender == owner, \"Only owner can withdraw.\") */\n      tag_34\n      jumpi\n      mload(0x40)\n      0x08c379a000000000000000000000000000000000000000000000000000000000\n      dup2\n      mstore\n      0x04\n      add\n      tag_35\n      swap1\n      tag_29\n      jump\t// in\n    tag_35:\n      mload(0x40)\n      dup1\n      swap2\n      sub\n      swap1\n      revert\n    tag_34:\n        /* \"contracts/GlobalVariableApi.sol\":7248:7479  function withdrawStage1() public {... */\n      jump\t// out\n        /* \"contracts/GlobalVariableApi.sol\":6941:6961  address public owner */\n    tag_17:\n      0x02\n      0x00\n      swap1\n      sload\n      swap1\n      0x0100\n      exp\n      swap1\n      div\n      0xffffffffffffffffffffffffffffffffffffffff\n      and\n      dup2\n      jump\t// out\n        /* \"contracts/GlobalVariableApi.sol\":6906:6934  uint public stage2UnlockTime */\n    tag_21:\n      sload(0x01)\n      dup2\n      jump\t// out\n        /* \"#utility.yul\":7:84   */\n    tag_36:\n        /* \"#utility.yul\":44:51   */\n      0x00\n        /* \"#utility.yul\":73:78   */\n      dup2\n        /* \"#utility.yul\":62:78   */\n      swap1\n      pop\n        /* \"#utility.yul\":7:84   */\n      swap2\n      swap1\n      pop\n      jump\t// out\n        /* \"#utility.yul\":90:208   */\n    tag_37:\n        /* \"#utility.yul\":177:201   */\n      tag_51\n        /* \"#utility.yul\":195:200   */\n      dup2\n        /* \"#utility.yul\":177:201   */\n      tag_36\n      jump\t// in\n    tag_51:\n        /* \"#utility.yul\":172:175   */\n      dup3\n        /* \"#utility.yul\":165:202   */\n      mstore\n        /* \"#utility.yul\":90:208   */\n      pop\n      pop\n      jump\t// out\n        /* \"#utility.yul\":214:436   */\n    tag_13:\n        /* \"#utility.yul\":307:311   */\n      0x00\n        /* \"#utility.yul\":345:347   */\n      0x20\n        /* \"#utility.yul\":334:343   */\n      dup3\n        /* \"#utility.yul\":330:348   */\n      add\n        /* \"#utility.yul\":322:348   */\n      swap1\n      pop\n        /* \"#utility.yul\":358:429   */\n      tag_53\n        /* \"#utility.yul\":426:427   */\n      0x00\n        /* \"#utility.yul\":415:424   */\n      dup4\n        /* \"#utility.yul\":411:428   */\n      add\n        /* \"#utility.yul\":402:408   */\n      dup5\n        /* \"#utility.yul\":358:429   */\n      tag_37\n      jump\t// in\n    tag_53:\n        /* \"#utility.yul\":214:436   */\n      swap3\n      swap2\n      pop\n      pop\n      jump\t// out\n        /* \"#utility.yul\":442:568   */\n    tag_38:\n        /* \"#utility.yul\":479:486   */\n      0x00\n        /* \"#utility.yul\":519:561   */\n      0xffffffffffffffffffffffffffffffffffffffff\n        /* \"#utility.yul\":512:517   */\n      dup3\n        /* \"#utility.yul\":508:562   */\n      and\n        /* \"#utility.yul\":497:562   */\n      swap1\n      pop\n        /* \"#utility.yul\":442:568   */\n      swap2\n      swap1\n      pop\n      jump\t// out\n        /* \"#utility.yul\":574:670   */\n    tag_39:\n        /* \"#utility.yul\":611:618   */\n      0x00\n        /* \"#utility.yul\":640:664   */\n      tag_56\n        /* \"#utility.yul\":658:663   */\n      dup3\n        /* \"#utility.yul\":640:664   */\n      tag_38\n      jump\t// in\n    tag_56:\n        /* \"#utility.yul\":629:664   */\n      swap1\n      pop\n        /* \"#utility.yul\":574:670   */\n      swap2\n      swap1\n      pop\n      jump\t// out\n        /* \"#utility.yul\":676:794   */\n    tag_40:\n        /* \"#utility.yul\":763:787   */\n      tag_58\n        /* \"#utility.yul\":781:786   */\n      dup2\n        /* \"#utility.yul\":763:787   */\n      tag_39\n      jump\t// in\n    tag_58:\n        /* \"#utility.yul\":758:761   */\n      dup3\n        /* \"#utility.yul\":751:788   */\n      mstore\n        /* \"#utility.yul\":676:794   */\n      pop\n      pop\n      jump\t// out\n        /* \"#utility.yul\":800:1022   */\n    tag_19:\n        /* \"#utility.yul\":893:897   */\n      0x00\n        /* \"#utility.yul\":931:933   */\n      0x20\n        /* \"#utility.yul\":920:929   */\n      dup3\n        /* \"#utility.yul\":916:934   */\n      add\n        /* \"#utility.yul\":908:934   */\n      swap1\n      pop\n        /* \"#utility.yul\":944:1015   */\n      tag_60\n        /* \"#utility.yul\":1012:1013   */\n      0x00\n        /* \"#utility.yul\":1001:1010   */\n      dup4\n        /* \"#utility.yul\":997:1014   */\n      add\n        /* \"#utility.yul\":988:994   */\n      dup5\n        /* \"#utility.yul\":944:1015   */\n      tag_40\n      jump\t// in\n    tag_60:\n        /* \"#utility.yul\":800:1022   */\n      swap3\n      swap2\n      pop\n      pop\n      jump\t// out\n        /* \"#utility.yul\":1028:1197   */\n    tag_41:\n        /* \"#utility.yul\":1112:1123   */\n      0x00\n        /* \"#utility.yul\":1146:1152   */\n      dup3\n        /* \"#utility.yul\":1141:1144   */\n      dup3\n        /* \"#utility.yul\":1134:1153   */\n      mstore\n        /* \"#utility.yul\":1186:1190   */\n      0x20\n        /* \"#utility.yul\":1181:1184   */\n      dup3\n        /* \"#utility.yul\":1177:1191   */\n      add\n        /* \"#utility.yul\":1162:1191   */\n      swap1\n      pop\n        /* \"#utility.yul\":1028:1197   */\n      swap3\n      swap2\n      pop\n      pop\n      jump\t// out\n        /* \"#utility.yul\":1203:1378   */\n    tag_42:\n        /* \"#utility.yul\":1343:1370   */\n      0x537461676520322066756e647320617265206c6f636b65642e00000000000000\n        /* \"#utility.yul\":1339:1340   */\n      0x00\n        /* \"#utility.yul\":1331:1337   */\n      dup3\n        /* \"#utility.yul\":1327:1341   */\n      add\n        /* \"#utility.yul\":1320:1371   */\n      mstore\n        /* \"#utility.yul\":1203:1378   */\n      pop\n      jump\t// out\n        /* \"#utility.yul\":1384:1750   */\n    tag_43:\n        /* \"#utility.yul\":1526:1529   */\n      0x00\n        /* \"#utility.yul\":1547:1614   */\n      tag_64\n        /* \"#utility.yul\":1611:1613   */\n      0x19\n        /* \"#utility.yul\":1606:1609   */\n      dup4\n        /* \"#utility.yul\":1547:1614   */\n      tag_41\n      jump\t// in\n    tag_64:\n        /* \"#utility.yul\":1540:1614   */\n      swap2\n      pop\n        /* \"#utility.yul\":1623:1716   */\n      tag_65\n        /* \"#utility.yul\":1712:1715   */\n      dup3\n        /* \"#utility.yul\":1623:1716   */\n      tag_42\n      jump\t// in\n    tag_65:\n        /* \"#utility.yul\":1741:1743   */\n      0x20\n        /* \"#utility.yul\":1736:1739   */\n      dup3\n        /* \"#utility.yul\":1732:1744   */\n      add\n        /* \"#utility.yul\":1725:1744   */\n      swap1\n      pop\n        /* \"#utility.yul\":1384:1750   */\n      swap2\n      swap1\n      pop\n      jump\t// out\n        /* \"#utility.yul\":1756:2175   */\n    tag_26:\n        /* \"#utility.yul\":1922:1926   */\n      0x00\n        /* \"#utility.yul\":1960:1962   */\n      0x20\n        /* \"#utility.yul\":1949:1958   */\n      dup3\n        /* \"#utility.yul\":1945:1963   */\n      add\n        /* \"#utility.yul\":1937:1963   */\n      swap1\n      pop\n        /* \"#utility.yul\":2009:2018   */\n      dup2\n        /* \"#utility.yul\":2003:2007   */\n      dup2\n        /* \"#utility.yul\":1999:2019   */\n      sub\n        /* \"#utility.yul\":1995:1996   */\n      0x00\n        /* \"#utility.yul\":1984:1993   */\n      dup4\n        /* \"#utility.yul\":1980:1997   */\n      add\n        /* \"#utility.yul\":1973:2020   */\n      mstore\n        /* \"#utility.yul\":2037:2168   */\n      tag_67\n        /* \"#utility.yul\":2163:2167   */\n      dup2\n        /* \"#utility.yul\":2037:2168   */\n      tag_43\n      jump\t// in\n    tag_67:\n        /* \"#utility.yul\":2029:2168   */\n      swap1\n      pop\n        /* \"#utility.yul\":1756:2175   */\n      swap2\n      swap1\n      pop\n      jump\t// out\n        /* \"#utility.yul\":2181:2355   */\n    tag_44:\n        /* \"#utility.yul\":2321:2347   */\n      0x4f6e6c79206f776e65722063616e2077697468647261772e0000000000000000\n        /* \"#utility.yul\":2317:2318   */\n      0x00\n        /* \"#utility.yul\":2309:2315   */\n      dup3\n        /* \"#utility.yul\":2305:2319   */\n      add\n        /* \"#utility.yul\":2298:2348   */\n      mstore\n        /* \"#utility.yul\":2181:2355   */\n      pop\n      jump\t// out\n        /* \"#utility.yul\":2361:2727   */\n    tag_45:\n        /* \"#utility.yul\":2503:2506   */\n      0x00\n        /* \"#utility.yul\":2524:2591   */\n      tag_70\n        /* \"#utility.yul\":2588:2590   */\n      0x18\n        /* \"#utility.yul\":2583:2586   */\n      dup4\n        /* \"#utility.yul\":2524:2591   */\n      tag_41\n      jump\t// in\n    tag_70:\n        /* \"#utility.yul\":2517:2591   */\n      swap2\n      pop\n        /* \"#utility.yul\":2600:2693   */\n      tag_71\n        /* \"#utility.yul\":2689:2692   */\n      dup3\n        /* \"#utility.yul\":2600:2693   */\n      tag_44\n      jump\t// in\n    tag_71:\n        /* \"#utility.yul\":2718:2720   */\n      0x20\n        /* \"#utility.yul\":2713:2716   */\n      dup3\n        /* \"#utility.yul\":2709:2721   */\n      add\n        /* \"#utility.yul\":2702:2721   */\n      swap1\n      pop\n        /* \"#utility.yul\":2361:2727   */\n      swap2\n      swap1\n      pop\n      jump\t// out\n        /* \"#utility.yul\":2733:3152   */\n    tag_29:\n        /* \"#utility.yul\":2899:2903   */\n      0x00\n        /* \"#utility.yul\":2937:2939   */\n      0x20\n        /* \"#utility.yul\":2926:2935   */\n      dup3\n        /* \"#utility.yul\":2922:2940   */\n      add\n        /* \"#utility.yul\":2914:2940   */\n      swap1\n      pop\n        /* \"#utility.yul\":2986:2995   */\n      dup2\n        /* \"#utility.yul\":2980:2984   */\n      dup2\n        /* \"#utility.yul\":2976:2996   */\n      sub\n        /* \"#utility.yul\":2972:2973   */\n      0x00\n        /* \"#utility.yul\":2961:2970   */\n      dup4\n        /* \"#utility.yul\":2957:2974   */\n      add\n        /* \"#utility.yul\":2950:2997   */\n      mstore\n        /* \"#utility.yul\":3014:3145   */\n      tag_73\n        /* \"#utility.yul\":3140:3144   */\n      dup2\n        /* \"#utility.yul\":3014:3145   */\n      tag_45\n      jump\t// in\n    tag_73:\n        /* \"#utility.yul\":3006:3145   */\n      swap1\n      pop\n        /* \"#utility.yul\":2733:3152   */\n      swap2\n      swap1\n      pop\n      jump\t// out\n        /* \"#utility.yul\":3158:3333   */\n    tag_46:\n        /* \"#utility.yul\":3298:3325   */\n      0x537461676520312066756e647320617265206c6f636b65642e00000000000000\n        /* \"#utility.yul\":3294:3295   */\n      0x00\n        /* \"#utility.yul\":3286:3292   */\n      dup3\n        /* \"#utility.yul\":3282:3296   */\n      add\n        /* \"#utility.yul\":3275:3326   */\n      mstore\n        /* \"#utility.yul\":3158:3333   */\n      pop\n      jump\t// out\n        /* \"#utility.yul\":3339:3705   */\n    tag_47:\n        /* \"#utility.yul\":3481:3484   */\n      0x00\n        /* \"#utility.yul\":3502:3569   */\n      tag_76\n        /* \"#utility.yul\":3566:3568   */\n      0x19\n        /* \"#utility.yul\":3561:3564   */\n      dup4\n        /* \"#utility.yul\":3502:3569   */\n      tag_41\n      jump\t// in\n    tag_76:\n        /* \"#utility.yul\":3495:3569   */\n      swap2\n      pop\n        /* \"#utility.yul\":3578:3671   */\n      tag_77\n        /* \"#utility.yul\":3667:3670   */\n      dup3\n        /* \"#utility.yul\":3578:3671   */\n      tag_46\n      jump\t// in\n    tag_77:\n        /* \"#utility.yul\":3696:3698   */\n      0x20\n        /* \"#utility.yul\":3691:3694   */\n      dup3\n        /* \"#utility.yul\":3687:3699   */\n      add\n        /* \"#utility.yul\":3680:3699   */\n      swap1\n      pop\n        /* \"#utility.yul\":3339:3705   */\n      swap2\n      swap1\n      pop\n      jump\t// out\n        /* \"#utility.yul\":3711:4130   */\n    tag_33:\n        /* \"#utility.yul\":3877:3881   */\n      0x00\n        /* \"#utility.yul\":3915:3917   */\n      0x20\n        /* \"#utility.yul\":3904:3913   */\n      dup3\n        /* \"#utility.yul\":3900:3918   */\n      add\n        /* \"#utility.yul\":3892:3918   */\n      swap1\n      pop\n        /* \"#utility.yul\":3964:3973   */\n      dup2\n        /* \"#utility.yul\":3958:3962   */\n      dup2\n        /* \"#utility.yul\":3954:3974   */\n      sub\n        /* \"#utility.yul\":3950:3951   */\n      0x00\n        /* \"#utility.yul\":3939:3948   */\n      dup4\n        /* \"#utility.yul\":3935:3952   */\n      add\n        /* \"#utility.yul\":3928:3975   */\n      mstore\n        /* \"#utility.yul\":3992:4123   */\n      tag_79\n        /* \"#utility.yul\":4118:4122   */\n      dup2\n        /* \"#utility.yul\":3992:4123   */\n      tag_47\n      jump\t// in\n    tag_79:\n        /* \"#utility.yul\":3984:4123   */\n      swap1\n      pop\n        /* \"#utility.yul\":3711:4130   */\n      swap2\n      swap1\n      pop\n      jump\t// out\n\n    auxdata: 0xa2646970667358221220d8284985ed4aca99832f72d9914e18eecc17e377ae6b808e3fd792afab5757ee64736f6c634300081a0033\n}\n",
				"bytecode": {
					"linkReferences": {},
					"object": "608060405234801561000f575f80fd5b50604051610683380380610683833981810160405281019061003191906100ee565b3360025f6101000a81548173ffffffffffffffffffffffffffffffffffffffff021916908373ffffffffffffffffffffffffffffffffffffffff16021790555062015180826100809190610159565b4261008b919061019a565b5f81905550620151808161009f9190610159565b426100aa919061019a565b60018190555050506101cd565b5f80fd5b5f819050919050565b6100cd816100bb565b81146100d7575f80fd5b50565b5f815190506100e8816100c4565b92915050565b5f8060408385031215610104576101036100b7565b5b5f610111858286016100da565b9250506020610122858286016100da565b9150509250929050565b7f4e487b71000000000000000000000000000000000000000000000000000000005f52601160045260245ffd5b5f610163826100bb565b915061016e836100bb565b925082820261017c816100bb565b915082820484148315176101935761019261012c565b5b5092915050565b5f6101a4826100bb565b91506101af836100bb565b92508282019050808211156101c7576101c661012c565b5b92915050565b6104a9806101da5f395ff3fe608060405234801561000f575f80fd5b5060043610610055575f3560e01c806368efabc01461005957806370d1c57114610063578063889ec605146100815780638da5cb5b1461008b5780639fcb6c61146100a9575b5f80fd5b6100616100c7565b005b61006b61019d565b60405161007891906102ba565b60405180910390f35b6100896101a2565b005b610093610277565b6040516100a09190610312565b60405180910390f35b6100b161029c565b6040516100be91906102ba565b60405180910390f35b60015442101561010c576040517f08c379a000000000000000000000000000000000000000000000000000000000815260040161010390610385565b60405180910390fd5b60025f9054906101000a900473ffffffffffffffffffffffffffffffffffffffff1673ffffffffffffffffffffffffffffffffffffffff163373ffffffffffffffffffffffffffffffffffffffff161461019b576040517f08c379a0000000000000000000000000000000000000000000000000000000008152600401610192906103ed565b60405180910390fd5b565b5f5481565b5f544210156101e6576040517f08c379a00000000000000000000000000000000000000000000000000000000081526004016101dd90610455565b60405180910390fd5b60025f9054906101000a900473ffffffffffffffffffffffffffffffffffffffff1673ffffffffffffffffffffffffffffffffffffffff163373ffffffffffffffffffffffffffffffffffffffff1614610275576040517f08c379a000000000000000000000000000000000000000000000000000000000815260040161026c906103ed565b60405180910390fd5b565b60025f9054906101000a900473ffffffffffffffffffffffffffffffffffffffff1681565b60015481565b5f819050919050565b6102b4816102a2565b82525050565b5f6020820190506102cd5f8301846102ab565b92915050565b5f73ffffffffffffffffffffffffffffffffffffffff82169050919050565b5f6102fc826102d3565b9050919050565b61030c816102f2565b82525050565b5f6020820190506103255f830184610303565b92915050565b5f82825260208201905092915050565b7f537461676520322066756e647320617265206c6f636b65642e000000000000005f82015250565b5f61036f60198361032b565b915061037a8261033b565b602082019050919050565b5f6020820190508181035f83015261039c81610363565b9050919050565b7f4f6e6c79206f776e65722063616e2077697468647261772e00000000000000005f82015250565b5f6103d760188361032b565b91506103e2826103a3565b602082019050919050565b5f6020820190508181035f830152610404816103cb565b9050919050565b7f537461676520312066756e647320617265206c6f636b65642e000000000000005f82015250565b5f61043f60198361032b565b915061044a8261040b565b602082019050919050565b5f6020820190508181035f83015261046c81610433565b905091905056fea2646970667358221220d8284985ed4aca99832f72d9914e18eecc17e377ae6b808e3fd792afab5757ee64736f6c634300081a0033",
					"opcodes": "PUSH1 0x80 PUSH1 0x40 MSTORE CALLVALUE DUP1 ISZERO PUSH2 0xF JUMPI PUSH0 DUP1 REVERT JUMPDEST POP PUSH1 0x40 MLOAD PUSH2 0x683 CODESIZE SUB DUP1 PUSH2 0x683 DUP4 CODECOPY DUP2 DUP2 ADD PUSH1 0x40 MSTORE DUP2 ADD SWAP1 PUSH2 0x31 SWAP2 SWAP1 PUSH2 0xEE JUMP JUMPDEST CALLER PUSH1 0x2 PUSH0 PUSH2 0x100 EXP DUP2 SLOAD DUP2 PUSH20 0xFFFFFFFFFFFFFFFFFFFFFFFFFFFFFFFFFFFFFFFF MUL NOT AND SWAP1 DUP4 PUSH20 0xFFFFFFFFFFFFFFFFFFFFFFFFFFFFFFFFFFFFFFFF AND MUL OR SWAP1 SSTORE POP PUSH3 0x15180 DUP3 PUSH2 0x80 SWAP2 SWAP1 PUSH2 0x159 JUMP JUMPDEST TIMESTAMP PUSH2 0x8B SWAP2 SWAP1 PUSH2 0x19A JUMP JUMPDEST PUSH0 DUP2 SWAP1 SSTORE POP PUSH3 0x15180 DUP2 PUSH2 0x9F SWAP2 SWAP1 PUSH2 0x159 JUMP JUMPDEST TIMESTAMP PUSH2 0xAA SWAP2 SWAP1 PUSH2 0x19A JUMP JUMPDEST PUSH1 0x1 DUP2 SWAP1 SSTORE POP POP POP PUSH2 0x1CD JUMP JUMPDEST PUSH0 DUP1 REVERT JUMPDEST PUSH0 DUP2 SWAP1 POP SWAP2 SWAP1 POP JUMP JUMPDEST PUSH2 0xCD DUP2 PUSH2 0xBB JUMP JUMPDEST DUP2 EQ PUSH2 0xD7 JUMPI PUSH0 DUP1 REVERT JUMPDEST POP JUMP JUMPDEST PUSH0 DUP2 MLOAD SWAP1 POP PUSH2 0xE8 DUP2 PUSH2 0xC4 JUMP JUMPDEST SWAP3 SWAP2 POP POP JUMP JUMPDEST PUSH0 DUP1 PUSH1 0x40 DUP4 DUP6 SUB SLT ISZERO PUSH2 0x104 JUMPI PUSH2 0x103 PUSH2 0xB7 JUMP JUMPDEST JUMPDEST PUSH0 PUSH2 0x111 DUP6 DUP3 DUP7 ADD PUSH2 0xDA JUMP JUMPDEST SWAP3 POP POP PUSH1 0x20 PUSH2 0x122 DUP6 DUP3 DUP7 ADD PUSH2 0xDA JUMP JUMPDEST SWAP2 POP POP SWAP3 POP SWAP3 SWAP1 POP JUMP JUMPDEST PUSH32 0x4E487B7100000000000000000000000000000000000000000000000000000000 PUSH0 MSTORE PUSH1 0x11 PUSH1 0x4 MSTORE PUSH1 0x24 PUSH0 REVERT JUMPDEST PUSH0 PUSH2 0x163 DUP3 PUSH2 0xBB JUMP JUMPDEST SWAP2 POP PUSH2 0x16E DUP4 PUSH2 0xBB JUMP JUMPDEST SWAP3 POP DUP3 DUP3 MUL PUSH2 0x17C DUP2 PUSH2 0xBB JUMP JUMPDEST SWAP2 POP DUP3 DUP3 DIV DUP5 EQ DUP4 ISZERO OR PUSH2 0x193 JUMPI PUSH2 0x192 PUSH2 0x12C JUMP JUMPDEST JUMPDEST POP SWAP3 SWAP2 POP POP JUMP JUMPDEST PUSH0 PUSH2 0x1A4 DUP3 PUSH2 0xBB JUMP JUMPDEST SWAP2 POP PUSH2 0x1AF DUP4 PUSH2 0xBB JUMP JUMPDEST SWAP3 POP DUP3 DUP3 ADD SWAP1 POP DUP1 DUP3 GT ISZERO PUSH2 0x1C7 JUMPI PUSH2 0x1C6 PUSH2 0x12C JUMP JUMPDEST JUMPDEST SWAP3 SWAP2 POP POP JUMP JUMPDEST PUSH2 0x4A9 DUP1 PUSH2 0x1DA PUSH0 CODECOPY PUSH0 RETURN INVALID PUSH1 0x80 PUSH1 0x40 MSTORE CALLVALUE DUP1 ISZERO PUSH2 0xF JUMPI PUSH0 DUP1 REVERT JUMPDEST POP PUSH1 0x4 CALLDATASIZE LT PUSH2 0x55 JUMPI PUSH0 CALLDATALOAD PUSH1 0xE0 SHR DUP1 PUSH4 0x68EFABC0 EQ PUSH2 0x59 JUMPI DUP1 PUSH4 0x70D1C571 EQ PUSH2 0x63 JUMPI DUP1 PUSH4 0x889EC605 EQ PUSH2 0x81 JUMPI DUP1 PUSH4 0x8DA5CB5B EQ PUSH2 0x8B JUMPI DUP1 PUSH4 0x9FCB6C61 EQ PUSH2 0xA9 JUMPI JUMPDEST PUSH0 DUP1 REVERT JUMPDEST PUSH2 0x61 PUSH2 0xC7 JUMP JUMPDEST STOP JUMPDEST PUSH2 0x6B PUSH2 0x19D JUMP JUMPDEST PUSH1 0x40 MLOAD PUSH2 0x78 SWAP2 SWAP1 PUSH2 0x2BA JUMP JUMPDEST PUSH1 0x40 MLOAD DUP1 SWAP2 SUB SWAP1 RETURN JUMPDEST PUSH2 0x89 PUSH2 0x1A2 JUMP JUMPDEST STOP JUMPDEST PUSH2 0x93 PUSH2 0x277 JUMP JUMPDEST PUSH1 0x40 MLOAD PUSH2 0xA0 SWAP2 SWAP1 PUSH2 0x312 JUMP JUMPDEST PUSH1 0x40 MLOAD DUP1 SWAP2 SUB SWAP1 RETURN JUMPDEST PUSH2 0xB1 PUSH2 0x29C JUMP JUMPDEST PUSH1 0x40 MLOAD PUSH2 0xBE SWAP2 SWAP1 PUSH2 0x2BA JUMP JUMPDEST PUSH1 0x40 MLOAD DUP1 SWAP2 SUB SWAP1 RETURN JUMPDEST PUSH1 0x1 SLOAD TIMESTAMP LT ISZERO PUSH2 0x10C JUMPI PUSH1 0x40 MLOAD PUSH32 0x8C379A000000000000000000000000000000000000000000000000000000000 DUP2 MSTORE PUSH1 0x4 ADD PUSH2 0x103 SWAP1 PUSH2 0x385 JUMP JUMPDEST PUSH1 0x40 MLOAD DUP1 SWAP2 SUB SWAP1 REVERT JUMPDEST PUSH1 0x2 PUSH0 SWAP1 SLOAD SWAP1 PUSH2 0x100 EXP SWAP1 DIV PUSH20 0xFFFFFFFFFFFFFFFFFFFFFFFFFFFFFFFFFFFFFFFF AND PUSH20 0xFFFFFFFFFFFFFFFFFFFFFFFFFFFFFFFFFFFFFFFF AND CALLER PUSH20 0xFFFFFFFFFFFFFFFFFFFFFFFFFFFFFFFFFFFFFFFF AND EQ PUSH2 0x19B JUMPI PUSH1 0x40 MLOAD PUSH32 0x8C379A000000000000000000000000000000000000000000000000000000000 DUP2 MSTORE PUSH1 0x4 ADD PUSH2 0x192 SWAP1 PUSH2 0x3ED JUMP JUMPDEST PUSH1 0x40 MLOAD DUP1 SWAP2 SUB SWAP1 REVERT JUMPDEST JUMP JUMPDEST PUSH0 SLOAD DUP2 JUMP JUMPDEST PUSH0 SLOAD TIMESTAMP LT ISZERO PUSH2 0x1E6 JUMPI PUSH1 0x40 MLOAD PUSH32 0x8C379A000000000000000000000000000000000000000000000000000000000 DUP2 MSTORE PUSH1 0x4 ADD PUSH2 0x1DD SWAP1 PUSH2 0x455 JUMP JUMPDEST PUSH1 0x40 MLOAD DUP1 SWAP2 SUB SWAP1 REVERT JUMPDEST PUSH1 0x2 PUSH0 SWAP1 SLOAD SWAP1 PUSH2 0x100 EXP SWAP1 DIV PUSH20 0xFFFFFFFFFFFFFFFFFFFFFFFFFFFFFFFFFFFFFFFF AND PUSH20 0xFFFFFFFFFFFFFFFFFFFFFFFFFFFFFFFFFFFFFFFF AND CALLER PUSH20 0xFFFFFFFFFFFFFFFFFFFFFFFFFFFFFFFFFFFFFFFF AND EQ PUSH2 0x275 JUMPI PUSH1 0x40 MLOAD PUSH32 0x8C379A000000000000000000000000000000000000000000000000000000000 DUP2 MSTORE PUSH1 0x4 ADD PUSH2 0x26C SWAP1 PUSH2 0x3ED JUMP JUMPDEST PUSH1 0x40 MLOAD DUP1 SWAP2 SUB SWAP1 REVERT JUMPDEST JUMP JUMPDEST PUSH1 0x2 PUSH0 SWAP1 SLOAD SWAP1 PUSH2 0x100 EXP SWAP1 DIV PUSH20 0xFFFFFFFFFFFFFFFFFFFFFFFFFFFFFFFFFFFFFFFF AND DUP2 JUMP JUMPDEST PUSH1 0x1 SLOAD DUP2 JUMP JUMPDEST PUSH0 DUP2 SWAP1 POP SWAP2 SWAP1 POP JUMP JUMPDEST PUSH2 0x2B4 DUP2 PUSH2 0x2A2 JUMP JUMPDEST DUP3 MSTORE POP POP JUMP JUMPDEST PUSH0 PUSH1 0x20 DUP3 ADD SWAP1 POP PUSH2 0x2CD PUSH0 DUP4 ADD DUP5 PUSH2 0x2AB JUMP JUMPDEST SWAP3 SWAP2 POP POP JUMP JUMPDEST PUSH0 PUSH20 0xFFFFFFFFFFFFFFFFFFFFFFFFFFFFFFFFFFFFFFFF DUP3 AND SWAP1 POP SWAP2 SWAP1 POP JUMP JUMPDEST PUSH0 PUSH2 0x2FC DUP3 PUSH2 0x2D3 JUMP JUMPDEST SWAP1 POP SWAP2 SWAP1 POP JUMP JUMPDEST PUSH2 0x30C DUP2 PUSH2 0x2F2 JUMP JUMPDEST DUP3 MSTORE POP POP JUMP JUMPDEST PUSH0 PUSH1 0x20 DUP3 ADD SWAP1 POP PUSH2 0x325 PUSH0 DUP4 ADD DUP5 PUSH2 0x303 JUMP JUMPDEST SWAP3 SWAP2 POP POP JUMP JUMPDEST PUSH0 DUP3 DUP3 MSTORE PUSH1 0x20 DUP3 ADD SWAP1 POP SWAP3 SWAP2 POP POP JUMP JUMPDEST PUSH32 0x537461676520322066756E647320617265206C6F636B65642E00000000000000 PUSH0 DUP3 ADD MSTORE POP JUMP JUMPDEST PUSH0 PUSH2 0x36F PUSH1 0x19 DUP4 PUSH2 0x32B JUMP JUMPDEST SWAP2 POP PUSH2 0x37A DUP3 PUSH2 0x33B JUMP JUMPDEST PUSH1 0x20 DUP3 ADD SWAP1 POP SWAP2 SWAP1 POP JUMP JUMPDEST PUSH0 PUSH1 0x20 DUP3 ADD SWAP1 POP DUP2 DUP2 SUB PUSH0 DUP4 ADD MSTORE PUSH2 0x39C DUP2 PUSH2 0x363 JUMP JUMPDEST SWAP1 POP SWAP2 SWAP1 POP JUMP JUMPDEST PUSH32 0x4F6E6C79206F776E65722063616E2077697468647261772E0000000000000000 PUSH0 DUP3 ADD MSTORE POP JUMP JUMPDEST PUSH0 PUSH2 0x3D7 PUSH1 0x18 DUP4 PUSH2 0x32B JUMP JUMPDEST SWAP2 POP PUSH2 0x3E2 DUP3 PUSH2 0x3A3 JUMP JUMPDEST PUSH1 0x20 DUP3 ADD SWAP1 POP SWAP2 SWAP1 POP JUMP JUMPDEST PUSH0 PUSH1 0x20 DUP3 ADD SWAP1 POP DUP2 DUP2 SUB PUSH0 DUP4 ADD MSTORE PUSH2 0x404 DUP2 PUSH2 0x3CB JUMP JUMPDEST SWAP1 POP SWAP2 SWAP1 POP JUMP JUMPDEST PUSH32 0x537461676520312066756E647320617265206C6F636B65642E00000000000000 PUSH0 DUP3 ADD MSTORE POP JUMP JUMPDEST PUSH0 PUSH2 0x43F PUSH1 0x19 DUP4 PUSH2 0x32B JUMP JUMPDEST SWAP2 POP PUSH2 0x44A DUP3 PUSH2 0x40B JUMP JUMPDEST PUSH1 0x20 DUP3 ADD SWAP1 POP SWAP2 SWAP1 POP JUMP JUMPDEST PUSH0 PUSH1 0x20 DUP3 ADD SWAP1 POP DUP2 DUP2 SUB PUSH0 DUP4 ADD MSTORE PUSH2 0x46C DUP2 PUSH2 0x433 JUMP JUMPDEST SWAP1 POP SWAP2 SWAP1 POP JUMP INVALID LOG2 PUSH5 0x6970667358 0x22 SLT KECCAK256 0xD8 0x28 BLOBHASH DUP6 0xED BLOBBASEFEE 0xCA SWAP10 DUP4 0x2F PUSH19 0xD9914E18EECC17E377AE6B808E3FD792AFAB57 JUMPI 0xEE PUSH5 0x736F6C6343 STOP ADDMOD BYTE STOP CALLER "
				},
				"gasEstimates": {
					"creation": {
						"codeDepositCost": "238600",
						"executionCost": "infinite",
						"totalCost": "infinite"
					},
					"external": {
						"owner()": "2552",
						"stage1UnlockTime()": "2424",
						"stage2UnlockTime()": "2491",
						"withdrawStage1()": "4742",
						"withdrawStage2()": "4699"
					}
				},
				"methodIdentifiers": {
					"owner()": "8da5cb5b",
					"stage1UnlockTime()": "70d1c571",
					"stage2UnlockTime()": "9fcb6c61",
					"withdrawStage1()": "889ec605",
					"withdrawStage2()": "68efabc0"
				}
			},
			"storageLayout": {
				"storage": [
					{
						"astId": 193,
						"contract": "contracts/GlobalVariableApi.sol:MultiStageTimeLock",
						"label": "stage1UnlockTime",
						"offset": 0,
						"slot": "0",
						"type": "t_uint256"
					},
					{
						"astId": 195,
						"contract": "contracts/GlobalVariableApi.sol:MultiStageTimeLock",
						"label": "stage2UnlockTime",
						"offset": 0,
						"slot": "1",
						"type": "t_uint256"
					},
					{
						"astId": 197,
						"contract": "contracts/GlobalVariableApi.sol:MultiStageTimeLock",
						"label": "owner",
						"offset": 0,
						"slot": "2",
						"type": "t_address"
					}
				],
				"types": {
					"t_address": {
						"encoding": "inplace",
						"label": "address",
						"numberOfBytes": "20"
					},
					"t_uint256": {
						"encoding": "inplace",
						"label": "uint256",
						"numberOfBytes": "32"
					}
				}
			},
			"userdoc": {
				"kind": "user",
				"methods": {},
				"version": 1
			}
		}
	}
}