{
	"contracts/Struct.sol": {
		"ProductsExample": {
			"abi": [
				{
					"inputs": [
						{
							"internalType": "uint256",
							"name": "_id",
							"type": "uint256"
						},
						{
							"internalType": "string",
							"name": "_name",
							"type": "string"
						},
						{
							"internalType": "uint256",
							"name": "_price",
							"type": "uint256"
						},
						{
							"internalType": "uint256",
							"name": "_stock",
							"type": "uint256"
						}
					],
					"name": "addProduct",
					"outputs": [],
					"stateMutability": "nonpayable",
					"type": "function"
				},
				{
					"inputs": [
						{
							"internalType": "uint256",
							"name": "_id",
							"type": "uint256"
						}
					],
					"name": "getProduct",
					"outputs": [
						{
							"internalType": "string",
							"name": "",
							"type": "string"
						},
						{
							"internalType": "uint256",
							"name": "",
							"type": "uint256"
						},
						{
							"internalType": "uint256",
							"name": "",
							"type": "uint256"
						}
					],
					"stateMutability": "view",
					"type": "function"
				},
				{
					"inputs": [],
					"name": "productCount",
					"outputs": [
						{
							"internalType": "uint256",
							"name": "",
							"type": "uint256"
						}
					],
					"stateMutability": "view",
					"type": "function"
				},
				{
					"inputs": [
						{
							"internalType": "uint256",
							"name": "",
							"type": "uint256"
						}
					],
					"name": "products",
					"outputs": [
						{
							"internalType": "uint256",
							"name": "id",
							"type": "uint256"
						},
						{
							"internalType": "string",
							"name": "name",
							"type": "string"
						},
						{
							"internalType": "uint256",
							"name": "price",
							"type": "uint256"
						},
						{
							"internalType": "uint256",
							"name": "stock",
							"type": "uint256"
						}
					],
					"stateMutability": "view",
					"type": "function"
				},
				{
					"inputs": [
						{
							"internalType": "uint256",
							"name": "_id",
							"type": "uint256"
						},
						{
							"internalType": "uint256",
							"name": "_stock",
							"type": "uint256"
						}
					],
					"name": "updateProductStock",
					"outputs": [],
					"stateMutability": "nonpayable",
					"type": "function"
				}
			],
			"devdoc": {
				"kind": "dev",
				"methods": {},
				"version": 1
			},
			"evm": {
				"assembly": "    /* \"contracts/Struct.sol\":1358:2196  contract ProductsExample {... */\n  mstore(0x40, 0x80)\n  callvalue\n  dup1\n  iszero\n  tag_1\n  jumpi\n  0x00\n  dup1\n  revert\ntag_1:\n  pop\n  dataSize(sub_0)\n  dup1\n  dataOffset(sub_0)\n  0x00\n  codecopy\n  0x00\n  return\nstop\n\nsub_0: assembly {\n        /* \"contracts/Struct.sol\":1358:2196  contract ProductsExample {... */\n      mstore(0x40, 0x80)\n      callvalue\n      dup1\n      iszero\n      tag_1\n      jumpi\n      0x00\n      dup1\n      revert\n    tag_1:\n      pop\n      jumpi(tag_2, lt(calldatasize, 0x04))\n      shr(0xe0, calldataload(0x00))\n      dup1\n      0x7acc0b20\n      eq\n      tag_3\n      jumpi\n      dup1\n      0xb9db15b4\n      eq\n      tag_4\n      jumpi\n      dup1\n      0xc27ed2a2\n      eq\n      tag_5\n      jumpi\n      dup1\n      0xe0f6ef87\n      eq\n      tag_6\n      jumpi\n      dup1\n      0xfd231411\n      eq\n      tag_7\n      jumpi\n    tag_2:\n      0x00\n      dup1\n      revert\n        /* \"contracts/Struct.sol\":1560:1601  mapping (uint => Product) public products */\n    tag_3:\n      tag_8\n      0x04\n      dup1\n      calldatasize\n      sub\n      dup2\n      add\n      swap1\n      tag_9\n      swap2\n      swap1\n      tag_10\n      jump\t// in\n    tag_9:\n      tag_11\n      jump\t// in\n    tag_8:\n      mload(0x40)\n      tag_12\n      swap5\n      swap4\n      swap3\n      swap2\n      swap1\n      tag_13\n      jump\t// in\n    tag_12:\n      mload(0x40)\n      dup1\n      swap2\n      sub\n      swap1\n      return\n        /* \"contracts/Struct.sol\":2023:2193  function getProduct(uint _id) public view returns(string memory, uint, uint) {... */\n    tag_4:\n      tag_14\n      0x04\n      dup1\n      calldatasize\n      sub\n      dup2\n      add\n      swap1\n      tag_15\n      swap2\n      swap1\n      tag_10\n      jump\t// in\n    tag_15:\n      tag_16\n      jump\t// in\n    tag_14:\n      mload(0x40)\n      tag_17\n      swap4\n      swap3\n      swap2\n      swap1\n      tag_18\n      jump\t// in\n    tag_17:\n      mload(0x40)\n      dup1\n      swap2\n      sub\n      swap1\n      return\n        /* \"contracts/Struct.sol\":1657:1833  function addProduct(uint _id, string memory _name, uint _price, uint _stock) public {... */\n    tag_5:\n      tag_19\n      0x04\n      dup1\n      calldatasize\n      sub\n      dup2\n      add\n      swap1\n      tag_20\n      swap2\n      swap1\n      tag_21\n      jump\t// in\n    tag_20:\n      tag_22\n      jump\t// in\n    tag_19:\n      stop\n        /* \"contracts/Struct.sol\":1607:1631  uint public productCount */\n    tag_6:\n      tag_23\n      tag_24\n      jump\t// in\n    tag_23:\n      mload(0x40)\n      tag_25\n      swap2\n      swap1\n      tag_26\n      jump\t// in\n    tag_25:\n      mload(0x40)\n      dup1\n      swap2\n      sub\n      swap1\n      return\n        /* \"contracts/Struct.sol\":1858:1992  function updateProductStock(uint _id, uint _stock) public {... */\n    tag_7:\n      tag_27\n      0x04\n      dup1\n      calldatasize\n      sub\n      dup2\n      add\n      swap1\n      tag_28\n      swap2\n      swap1\n      tag_29\n      jump\t// in\n    tag_28:\n      tag_30\n      jump\t// in\n    tag_27:\n      stop\n        /* \"contracts/Struct.sol\":1560:1601  mapping (uint => Product) public products */\n    tag_11:\n      mstore(0x20, 0x00)\n      dup1\n      0x00\n      mstore\n      keccak256(0x00, 0x40)\n      0x00\n      swap2\n      pop\n      swap1\n      pop\n      dup1\n      0x00\n      add\n      sload\n      swap1\n      dup1\n      0x01\n      add\n      dup1\n      sload\n      tag_31\n      swap1\n      tag_32\n      jump\t// in\n    tag_31:\n      dup1\n      0x1f\n      add\n      0x20\n      dup1\n      swap2\n      div\n      mul\n      0x20\n      add\n      mload(0x40)\n      swap1\n      dup2\n      add\n      0x40\n      mstore\n      dup1\n      swap3\n      swap2\n      swap1\n      dup2\n      dup2\n      mstore\n      0x20\n      add\n      dup3\n      dup1\n      sload\n      tag_33\n      swap1\n      tag_32\n      jump\t// in\n    tag_33:\n      dup1\n      iszero\n      tag_34\n      jumpi\n      dup1\n      0x1f\n      lt\n      tag_35\n      jumpi\n      0x0100\n      dup1\n      dup4\n      sload\n      div\n      mul\n      dup4\n      mstore\n      swap2\n      0x20\n      add\n      swap2\n      jump(tag_34)\n    tag_35:\n      dup3\n      add\n      swap2\n      swap1\n      0x00\n      mstore\n      keccak256(0x00, 0x20)\n      swap1\n    tag_36:\n      dup2\n      sload\n      dup2\n      mstore\n      swap1\n      0x01\n      add\n      swap1\n      0x20\n      add\n      dup1\n      dup4\n      gt\n      tag_36\n      jumpi\n      dup3\n      swap1\n      sub\n      0x1f\n      and\n      dup3\n      add\n      swap2\n    tag_34:\n      pop\n      pop\n      pop\n      pop\n      pop\n      swap1\n      dup1\n      0x02\n      add\n      sload\n      swap1\n      dup1\n      0x03\n      add\n      sload\n      swap1\n      pop\n      dup5\n      jump\t// out\n        /* \"contracts/Struct.sol\":2023:2193  function getProduct(uint _id) public view returns(string memory, uint, uint) {... */\n    tag_16:\n        /* \"contracts/Struct.sol\":2073:2086  string memory */\n      0x60\n        /* \"contracts/Struct.sol\":2088:2092  uint */\n      0x00\n        /* \"contracts/Struct.sol\":2094:2098  uint */\n      dup1\n        /* \"contracts/Struct.sol\":2110:2127  Product storage p */\n      0x00\n        /* \"contracts/Struct.sol\":2130:2138  products */\n      dup1\n        /* \"contracts/Struct.sol\":2130:2143  products[_id] */\n      0x00\n        /* \"contracts/Struct.sol\":2139:2142  _id */\n      dup7\n        /* \"contracts/Struct.sol\":2130:2143  products[_id] */\n      dup2\n      mstore\n      0x20\n      add\n      swap1\n      dup2\n      mstore\n      0x20\n      add\n      0x00\n      keccak256\n        /* \"contracts/Struct.sol\":2110:2143  Product storage p = products[_id] */\n      swap1\n      pop\n        /* \"contracts/Struct.sol\":2161:2162  p */\n      dup1\n        /* \"contracts/Struct.sol\":2161:2167  p.name */\n      0x01\n      add\n        /* \"contracts/Struct.sol\":2169:2170  p */\n      dup2\n        /* \"contracts/Struct.sol\":2169:2176  p.price */\n      0x02\n      add\n      sload\n        /* \"contracts/Struct.sol\":2178:2179  p */\n      dup3\n        /* \"contracts/Struct.sol\":2178:2185  p.stock */\n      0x03\n      add\n      sload\n        /* \"contracts/Struct.sol\":2153:2186  return (p.name, p.price, p.stock) */\n      dup3\n      dup1\n      sload\n      tag_38\n      swap1\n      tag_32\n      jump\t// in\n    tag_38:\n      dup1\n      0x1f\n      add\n      0x20\n      dup1\n      swap2\n      div\n      mul\n      0x20\n      add\n      mload(0x40)\n      swap1\n      dup2\n      add\n      0x40\n      mstore\n      dup1\n      swap3\n      swap2\n      swap1\n      dup2\n      dup2\n      mstore\n      0x20\n      add\n      dup3\n      dup1\n      sload\n      tag_39\n      swap1\n      tag_32\n      jump\t// in\n    tag_39:\n      dup1\n      iszero\n      tag_40\n      jumpi\n      dup1\n      0x1f\n      lt\n      tag_41\n      jumpi\n      0x0100\n      dup1\n      dup4\n      sload\n      div\n      mul\n      dup4\n      mstore\n      swap2\n      0x20\n      add\n      swap2\n      jump(tag_40)\n    tag_41:\n      dup3\n      add\n      swap2\n      swap1\n      0x00\n      mstore\n      keccak256(0x00, 0x20)\n      swap1\n    tag_42:\n      dup2\n      sload\n      dup2\n      mstore\n      swap1\n      0x01\n      add\n      swap1\n      0x20\n      add\n      dup1\n      dup4\n      gt\n      tag_42\n      jumpi\n      dup3\n      swap1\n      sub\n      0x1f\n      and\n      dup3\n      add\n      swap2\n    tag_40:\n      pop\n      pop\n      pop\n      pop\n      pop\n      swap3\n      pop\n      swap4\n      pop\n      swap4\n      pop\n      swap4\n      pop\n      pop\n        /* \"contracts/Struct.sol\":2023:2193  function getProduct(uint _id) public view returns(string memory, uint, uint) {... */\n      swap2\n      swap4\n      swap1\n      swap3\n      pop\n      jump\t// out\n        /* \"contracts/Struct.sol\":1657:1833  function addProduct(uint _id, string memory _name, uint _price, uint _stock) public {... */\n    tag_22:\n        /* \"contracts/Struct.sol\":1751:1763  productCount */\n      0x01\n      0x00\n        /* \"contracts/Struct.sol\":1751:1765  productCount++ */\n      dup2\n      sload\n      dup1\n      swap3\n      swap2\n      swap1\n      tag_44\n      swap1\n      tag_45\n      jump\t// in\n    tag_44:\n      swap2\n      swap1\n      pop\n      sstore\n      pop\n        /* \"contracts/Struct.sol\":1791:1826  Product(_id, _name, _price, _stock) */\n      mload(0x40)\n      dup1\n      0x80\n      add\n      0x40\n      mstore\n      dup1\n        /* \"contracts/Struct.sol\":1799:1802  _id */\n      dup6\n        /* \"contracts/Struct.sol\":1791:1826  Product(_id, _name, _price, _stock) */\n      dup2\n      mstore\n      0x20\n      add\n        /* \"contracts/Struct.sol\":1804:1809  _name */\n      dup5\n        /* \"contracts/Struct.sol\":1791:1826  Product(_id, _name, _price, _stock) */\n      dup2\n      mstore\n      0x20\n      add\n        /* \"contracts/Struct.sol\":1811:1817  _price */\n      dup4\n        /* \"contracts/Struct.sol\":1791:1826  Product(_id, _name, _price, _stock) */\n      dup2\n      mstore\n      0x20\n      add\n        /* \"contracts/Struct.sol\":1819:1825  _stock */\n      dup3\n        /* \"contracts/Struct.sol\":1791:1826  Product(_id, _name, _price, _stock) */\n      dup2\n      mstore\n      pop\n        /* \"contracts/Struct.sol\":1775:1783  products */\n      0x00\n        /* \"contracts/Struct.sol\":1775:1788  products[_id] */\n      dup1\n        /* \"contracts/Struct.sol\":1784:1787  _id */\n      dup7\n        /* \"contracts/Struct.sol\":1775:1788  products[_id] */\n      dup2\n      mstore\n      0x20\n      add\n      swap1\n      dup2\n      mstore\n      0x20\n      add\n      0x00\n      keccak256\n        /* \"contracts/Struct.sol\":1775:1826  products[_id] = Product(_id, _name, _price, _stock) */\n      0x00\n      dup3\n      add\n      mload\n      dup2\n      0x00\n      add\n      sstore\n      0x20\n      dup3\n      add\n      mload\n      dup2\n      0x01\n      add\n      swap1\n      dup2\n      tag_46\n      swap2\n      swap1\n      tag_47\n      jump\t// in\n    tag_46:\n      pop\n      0x40\n      dup3\n      add\n      mload\n      dup2\n      0x02\n      add\n      sstore\n      0x60\n      dup3\n      add\n      mload\n      dup2\n      0x03\n      add\n      sstore\n      swap1\n      pop\n      pop\n        /* \"contracts/Struct.sol\":1657:1833  function addProduct(uint _id, string memory _name, uint _price, uint _stock) public {... */\n      pop\n      pop\n      pop\n      pop\n      jump\t// out\n        /* \"contracts/Struct.sol\":1607:1631  uint public productCount */\n    tag_24:\n      sload(0x01)\n      dup2\n      jump\t// out\n        /* \"contracts/Struct.sol\":1858:1992  function updateProductStock(uint _id, uint _stock) public {... */\n    tag_30:\n        /* \"contracts/Struct.sol\":1926:1943  Product storage p */\n      0x00\n        /* \"contracts/Struct.sol\":1946:1954  products */\n      dup1\n        /* \"contracts/Struct.sol\":1946:1959  products[_id] */\n      0x00\n        /* \"contracts/Struct.sol\":1955:1958  _id */\n      dup5\n        /* \"contracts/Struct.sol\":1946:1959  products[_id] */\n      dup2\n      mstore\n      0x20\n      add\n      swap1\n      dup2\n      mstore\n      0x20\n      add\n      0x00\n      keccak256\n        /* \"contracts/Struct.sol\":1926:1959  Product storage p = products[_id] */\n      swap1\n      pop\n        /* \"contracts/Struct.sol\":1979:1985  _stock */\n      dup2\n        /* \"contracts/Struct.sol\":1969:1970  p */\n      dup2\n        /* \"contracts/Struct.sol\":1969:1976  p.stock */\n      0x03\n      add\n        /* \"contracts/Struct.sol\":1969:1985  p.stock = _stock */\n      dup2\n      swap1\n      sstore\n      pop\n        /* \"contracts/Struct.sol\":1916:1992  {... */\n      pop\n        /* \"contracts/Struct.sol\":1858:1992  function updateProductStock(uint _id, uint _stock) public {... */\n      pop\n      pop\n      jump\t// out\n        /* \"#utility.yul\":7:82   */\n    tag_49:\n        /* \"#utility.yul\":40:46   */\n      0x00\n        /* \"#utility.yul\":73:75   */\n      0x40\n        /* \"#utility.yul\":67:76   */\n      mload\n        /* \"#utility.yul\":57:76   */\n      swap1\n      pop\n        /* \"#utility.yul\":7:82   */\n      swap1\n      jump\t// out\n        /* \"#utility.yul\":88:205   */\n    tag_50:\n        /* \"#utility.yul\":197:198   */\n      0x00\n        /* \"#utility.yul\":194:195   */\n      dup1\n        /* \"#utility.yul\":187:199   */\n      revert\n        /* \"#utility.yul\":211:328   */\n    tag_51:\n        /* \"#utility.yul\":320:321   */\n      0x00\n        /* \"#utility.yul\":317:318   */\n      dup1\n        /* \"#utility.yul\":310:322   */\n      revert\n        /* \"#utility.yul\":334:411   */\n    tag_52:\n        /* \"#utility.yul\":371:378   */\n      0x00\n        /* \"#utility.yul\":400:405   */\n      dup2\n        /* \"#utility.yul\":389:405   */\n      swap1\n      pop\n        /* \"#utility.yul\":334:411   */\n      swap2\n      swap1\n      pop\n      jump\t// out\n        /* \"#utility.yul\":417:539   */\n    tag_53:\n        /* \"#utility.yul\":490:514   */\n      tag_93\n        /* \"#utility.yul\":508:513   */\n      dup2\n        /* \"#utility.yul\":490:514   */\n      tag_52\n      jump\t// in\n    tag_93:\n        /* \"#utility.yul\":483:488   */\n      dup2\n        /* \"#utility.yul\":480:515   */\n      eq\n        /* \"#utility.yul\":470:533   */\n      tag_94\n      jumpi\n        /* \"#utility.yul\":529:530   */\n      0x00\n        /* \"#utility.yul\":526:527   */\n      dup1\n        /* \"#utility.yul\":519:531   */\n      revert\n        /* \"#utility.yul\":470:533   */\n    tag_94:\n        /* \"#utility.yul\":417:539   */\n      pop\n      jump\t// out\n        /* \"#utility.yul\":545:684   */\n    tag_54:\n        /* \"#utility.yul\":591:596   */\n      0x00\n        /* \"#utility.yul\":629:635   */\n      dup2\n        /* \"#utility.yul\":616:636   */\n      calldataload\n        /* \"#utility.yul\":607:636   */\n      swap1\n      pop\n        /* \"#utility.yul\":645:678   */\n      tag_96\n        /* \"#utility.yul\":672:677   */\n      dup2\n        /* \"#utility.yul\":645:678   */\n      tag_53\n      jump\t// in\n    tag_96:\n        /* \"#utility.yul\":545:684   */\n      swap3\n      swap2\n      pop\n      pop\n      jump\t// out\n        /* \"#utility.yul\":690:1019   */\n    tag_10:\n        /* \"#utility.yul\":749:755   */\n      0x00\n        /* \"#utility.yul\":798:800   */\n      0x20\n        /* \"#utility.yul\":786:795   */\n      dup3\n        /* \"#utility.yul\":777:784   */\n      dup5\n        /* \"#utility.yul\":773:796   */\n      sub\n        /* \"#utility.yul\":769:801   */\n      slt\n        /* \"#utility.yul\":766:885   */\n      iszero\n      tag_98\n      jumpi\n        /* \"#utility.yul\":804:883   */\n      tag_99\n      tag_50\n      jump\t// in\n    tag_99:\n        /* \"#utility.yul\":766:885   */\n    tag_98:\n        /* \"#utility.yul\":924:925   */\n      0x00\n        /* \"#utility.yul\":949:1002   */\n      tag_100\n        /* \"#utility.yul\":994:1001   */\n      dup5\n        /* \"#utility.yul\":985:991   */\n      dup3\n        /* \"#utility.yul\":974:983   */\n      dup6\n        /* \"#utility.yul\":970:992   */\n      add\n        /* \"#utility.yul\":949:1002   */\n      tag_54\n      jump\t// in\n    tag_100:\n        /* \"#utility.yul\":939:1002   */\n      swap2\n      pop\n        /* \"#utility.yul\":895:1012   */\n      pop\n        /* \"#utility.yul\":690:1019   */\n      swap3\n      swap2\n      pop\n      pop\n      jump\t// out\n        /* \"#utility.yul\":1025:1143   */\n    tag_55:\n        /* \"#utility.yul\":1112:1136   */\n      tag_102\n        /* \"#utility.yul\":1130:1135   */\n      dup2\n        /* \"#utility.yul\":1112:1136   */\n      tag_52\n      jump\t// in\n    tag_102:\n        /* \"#utility.yul\":1107:1110   */\n      dup3\n        /* \"#utility.yul\":1100:1137   */\n      mstore\n        /* \"#utility.yul\":1025:1143   */\n      pop\n      pop\n      jump\t// out\n        /* \"#utility.yul\":1149:1248   */\n    tag_56:\n        /* \"#utility.yul\":1201:1207   */\n      0x00\n        /* \"#utility.yul\":1235:1240   */\n      dup2\n        /* \"#utility.yul\":1229:1241   */\n      mload\n        /* \"#utility.yul\":1219:1241   */\n      swap1\n      pop\n        /* \"#utility.yul\":1149:1248   */\n      swap2\n      swap1\n      pop\n      jump\t// out\n        /* \"#utility.yul\":1254:1423   */\n    tag_57:\n        /* \"#utility.yul\":1338:1349   */\n      0x00\n        /* \"#utility.yul\":1372:1378   */\n      dup3\n        /* \"#utility.yul\":1367:1370   */\n      dup3\n        /* \"#utility.yul\":1360:1379   */\n      mstore\n        /* \"#utility.yul\":1412:1416   */\n      0x20\n        /* \"#utility.yul\":1407:1410   */\n      dup3\n        /* \"#utility.yul\":1403:1417   */\n      add\n        /* \"#utility.yul\":1388:1417   */\n      swap1\n      pop\n        /* \"#utility.yul\":1254:1423   */\n      swap3\n      swap2\n      pop\n      pop\n      jump\t// out\n        /* \"#utility.yul\":1429:1568   */\n    tag_58:\n        /* \"#utility.yul\":1518:1524   */\n      dup3\n        /* \"#utility.yul\":1513:1516   */\n      dup2\n        /* \"#utility.yul\":1508:1511   */\n      dup4\n        /* \"#utility.yul\":1502:1525   */\n      mcopy\n        /* \"#utility.yul\":1559:1560   */\n      0x00\n        /* \"#utility.yul\":1550:1556   */\n      dup4\n        /* \"#utility.yul\":1545:1548   */\n      dup4\n        /* \"#utility.yul\":1541:1557   */\n      add\n        /* \"#utility.yul\":1534:1561   */\n      mstore\n        /* \"#utility.yul\":1429:1568   */\n      pop\n      pop\n      pop\n      jump\t// out\n        /* \"#utility.yul\":1574:1676   */\n    tag_59:\n        /* \"#utility.yul\":1615:1621   */\n      0x00\n        /* \"#utility.yul\":1666:1668   */\n      0x1f\n        /* \"#utility.yul\":1662:1669   */\n      not\n        /* \"#utility.yul\":1657:1659   */\n      0x1f\n        /* \"#utility.yul\":1650:1655   */\n      dup4\n        /* \"#utility.yul\":1646:1660   */\n      add\n        /* \"#utility.yul\":1642:1670   */\n      and\n        /* \"#utility.yul\":1632:1670   */\n      swap1\n      pop\n        /* \"#utility.yul\":1574:1676   */\n      swap2\n      swap1\n      pop\n      jump\t// out\n        /* \"#utility.yul\":1682:2059   */\n    tag_60:\n        /* \"#utility.yul\":1770:1773   */\n      0x00\n        /* \"#utility.yul\":1798:1837   */\n      tag_108\n        /* \"#utility.yul\":1831:1836   */\n      dup3\n        /* \"#utility.yul\":1798:1837   */\n      tag_56\n      jump\t// in\n    tag_108:\n        /* \"#utility.yul\":1853:1924   */\n      tag_109\n        /* \"#utility.yul\":1917:1923   */\n      dup2\n        /* \"#utility.yul\":1912:1915   */\n      dup6\n        /* \"#utility.yul\":1853:1924   */\n      tag_57\n      jump\t// in\n    tag_109:\n        /* \"#utility.yul\":1846:1924   */\n      swap4\n      pop\n        /* \"#utility.yul\":1933:1998   */\n      tag_110\n        /* \"#utility.yul\":1991:1997   */\n      dup2\n        /* \"#utility.yul\":1986:1989   */\n      dup6\n        /* \"#utility.yul\":1979:1983   */\n      0x20\n        /* \"#utility.yul\":1972:1977   */\n      dup7\n        /* \"#utility.yul\":1968:1984   */\n      add\n        /* \"#utility.yul\":1933:1998   */\n      tag_58\n      jump\t// in\n    tag_110:\n        /* \"#utility.yul\":2023:2052   */\n      tag_111\n        /* \"#utility.yul\":2045:2051   */\n      dup2\n        /* \"#utility.yul\":2023:2052   */\n      tag_59\n      jump\t// in\n    tag_111:\n        /* \"#utility.yul\":2018:2021   */\n      dup5\n        /* \"#utility.yul\":2014:2053   */\n      add\n        /* \"#utility.yul\":2007:2053   */\n      swap2\n      pop\n        /* \"#utility.yul\":1774:2059   */\n      pop\n        /* \"#utility.yul\":1682:2059   */\n      swap3\n      swap2\n      pop\n      pop\n      jump\t// out\n        /* \"#utility.yul\":2065:2709   */\n    tag_13:\n        /* \"#utility.yul\":2262:2266   */\n      0x00\n        /* \"#utility.yul\":2300:2303   */\n      0x80\n        /* \"#utility.yul\":2289:2298   */\n      dup3\n        /* \"#utility.yul\":2285:2304   */\n      add\n        /* \"#utility.yul\":2277:2304   */\n      swap1\n      pop\n        /* \"#utility.yul\":2314:2385   */\n      tag_113\n        /* \"#utility.yul\":2382:2383   */\n      0x00\n        /* \"#utility.yul\":2371:2380   */\n      dup4\n        /* \"#utility.yul\":2367:2384   */\n      add\n        /* \"#utility.yul\":2358:2364   */\n      dup8\n        /* \"#utility.yul\":2314:2385   */\n      tag_55\n      jump\t// in\n    tag_113:\n        /* \"#utility.yul\":2432:2441   */\n      dup2\n        /* \"#utility.yul\":2426:2430   */\n      dup2\n        /* \"#utility.yul\":2422:2442   */\n      sub\n        /* \"#utility.yul\":2417:2419   */\n      0x20\n        /* \"#utility.yul\":2406:2415   */\n      dup4\n        /* \"#utility.yul\":2402:2420   */\n      add\n        /* \"#utility.yul\":2395:2443   */\n      mstore\n        /* \"#utility.yul\":2460:2538   */\n      tag_114\n        /* \"#utility.yul\":2533:2537   */\n      dup2\n        /* \"#utility.yul\":2524:2530   */\n      dup7\n        /* \"#utility.yul\":2460:2538   */\n      tag_60\n      jump\t// in\n    tag_114:\n        /* \"#utility.yul\":2452:2538   */\n      swap1\n      pop\n        /* \"#utility.yul\":2548:2620   */\n      tag_115\n        /* \"#utility.yul\":2616:2618   */\n      0x40\n        /* \"#utility.yul\":2605:2614   */\n      dup4\n        /* \"#utility.yul\":2601:2619   */\n      add\n        /* \"#utility.yul\":2592:2598   */\n      dup6\n        /* \"#utility.yul\":2548:2620   */\n      tag_55\n      jump\t// in\n    tag_115:\n        /* \"#utility.yul\":2630:2702   */\n      tag_116\n        /* \"#utility.yul\":2698:2700   */\n      0x60\n        /* \"#utility.yul\":2687:2696   */\n      dup4\n        /* \"#utility.yul\":2683:2701   */\n      add\n        /* \"#utility.yul\":2674:2680   */\n      dup5\n        /* \"#utility.yul\":2630:2702   */\n      tag_55\n      jump\t// in\n    tag_116:\n        /* \"#utility.yul\":2065:2709   */\n      swap6\n      swap5\n      pop\n      pop\n      pop\n      pop\n      pop\n      jump\t// out\n        /* \"#utility.yul\":2715:3248   */\n    tag_18:\n        /* \"#utility.yul\":2884:2888   */\n      0x00\n        /* \"#utility.yul\":2922:2924   */\n      0x60\n        /* \"#utility.yul\":2911:2920   */\n      dup3\n        /* \"#utility.yul\":2907:2925   */\n      add\n        /* \"#utility.yul\":2899:2925   */\n      swap1\n      pop\n        /* \"#utility.yul\":2971:2980   */\n      dup2\n        /* \"#utility.yul\":2965:2969   */\n      dup2\n        /* \"#utility.yul\":2961:2981   */\n      sub\n        /* \"#utility.yul\":2957:2958   */\n      0x00\n        /* \"#utility.yul\":2946:2955   */\n      dup4\n        /* \"#utility.yul\":2942:2959   */\n      add\n        /* \"#utility.yul\":2935:2982   */\n      mstore\n        /* \"#utility.yul\":2999:3077   */\n      tag_118\n        /* \"#utility.yul\":3072:3076   */\n      dup2\n        /* \"#utility.yul\":3063:3069   */\n      dup7\n        /* \"#utility.yul\":2999:3077   */\n      tag_60\n      jump\t// in\n    tag_118:\n        /* \"#utility.yul\":2991:3077   */\n      swap1\n      pop\n        /* \"#utility.yul\":3087:3159   */\n      tag_119\n        /* \"#utility.yul\":3155:3157   */\n      0x20\n        /* \"#utility.yul\":3144:3153   */\n      dup4\n        /* \"#utility.yul\":3140:3158   */\n      add\n        /* \"#utility.yul\":3131:3137   */\n      dup6\n        /* \"#utility.yul\":3087:3159   */\n      tag_55\n      jump\t// in\n    tag_119:\n        /* \"#utility.yul\":3169:3241   */\n      tag_120\n        /* \"#utility.yul\":3237:3239   */\n      0x40\n        /* \"#utility.yul\":3226:3235   */\n      dup4\n        /* \"#utility.yul\":3222:3240   */\n      add\n        /* \"#utility.yul\":3213:3219   */\n      dup5\n        /* \"#utility.yul\":3169:3241   */\n      tag_55\n      jump\t// in\n    tag_120:\n        /* \"#utility.yul\":2715:3248   */\n      swap5\n      swap4\n      pop\n      pop\n      pop\n      pop\n      jump\t// out\n        /* \"#utility.yul\":3254:3371   */\n    tag_61:\n        /* \"#utility.yul\":3363:3364   */\n      0x00\n        /* \"#utility.yul\":3360:3361   */\n      dup1\n        /* \"#utility.yul\":3353:3365   */\n      revert\n        /* \"#utility.yul\":3377:3494   */\n    tag_62:\n        /* \"#utility.yul\":3486:3487   */\n      0x00\n        /* \"#utility.yul\":3483:3484   */\n      dup1\n        /* \"#utility.yul\":3476:3488   */\n      revert\n        /* \"#utility.yul\":3500:3680   */\n    tag_63:\n        /* \"#utility.yul\":3548:3625   */\n      0x4e487b7100000000000000000000000000000000000000000000000000000000\n        /* \"#utility.yul\":3545:3546   */\n      0x00\n        /* \"#utility.yul\":3538:3626   */\n      mstore\n        /* \"#utility.yul\":3645:3649   */\n      0x41\n        /* \"#utility.yul\":3642:3643   */\n      0x04\n        /* \"#utility.yul\":3635:3650   */\n      mstore\n        /* \"#utility.yul\":3669:3673   */\n      0x24\n        /* \"#utility.yul\":3666:3667   */\n      0x00\n        /* \"#utility.yul\":3659:3674   */\n      revert\n        /* \"#utility.yul\":3686:3967   */\n    tag_64:\n        /* \"#utility.yul\":3769:3796   */\n      tag_125\n        /* \"#utility.yul\":3791:3795   */\n      dup3\n        /* \"#utility.yul\":3769:3796   */\n      tag_59\n      jump\t// in\n    tag_125:\n        /* \"#utility.yul\":3761:3767   */\n      dup2\n        /* \"#utility.yul\":3757:3797   */\n      add\n        /* \"#utility.yul\":3899:3905   */\n      dup2\n        /* \"#utility.yul\":3887:3897   */\n      dup2\n        /* \"#utility.yul\":3884:3906   */\n      lt\n        /* \"#utility.yul\":3863:3881   */\n      0xffffffffffffffff\n        /* \"#utility.yul\":3851:3861   */\n      dup3\n        /* \"#utility.yul\":3848:3882   */\n      gt\n        /* \"#utility.yul\":3845:3907   */\n      or\n        /* \"#utility.yul\":3842:3930   */\n      iszero\n      tag_126\n      jumpi\n        /* \"#utility.yul\":3910:3928   */\n      tag_127\n      tag_63\n      jump\t// in\n    tag_127:\n        /* \"#utility.yul\":3842:3930   */\n    tag_126:\n        /* \"#utility.yul\":3950:3960   */\n      dup1\n        /* \"#utility.yul\":3946:3948   */\n      0x40\n        /* \"#utility.yul\":3939:3961   */\n      mstore\n        /* \"#utility.yul\":3729:3967   */\n      pop\n        /* \"#utility.yul\":3686:3967   */\n      pop\n      pop\n      jump\t// out\n        /* \"#utility.yul\":3973:4102   */\n    tag_65:\n        /* \"#utility.yul\":4007:4013   */\n      0x00\n        /* \"#utility.yul\":4034:4054   */\n      tag_129\n      tag_49\n      jump\t// in\n    tag_129:\n        /* \"#utility.yul\":4024:4054   */\n      swap1\n      pop\n        /* \"#utility.yul\":4063:4096   */\n      tag_130\n        /* \"#utility.yul\":4091:4095   */\n      dup3\n        /* \"#utility.yul\":4083:4089   */\n      dup3\n        /* \"#utility.yul\":4063:4096   */\n      tag_64\n      jump\t// in\n    tag_130:\n        /* \"#utility.yul\":3973:4102   */\n      swap2\n      swap1\n      pop\n      jump\t// out\n        /* \"#utility.yul\":4108:4416   */\n    tag_66:\n        /* \"#utility.yul\":4170:4174   */\n      0x00\n        /* \"#utility.yul\":4260:4278   */\n      0xffffffffffffffff\n        /* \"#utility.yul\":4252:4258   */\n      dup3\n        /* \"#utility.yul\":4249:4279   */\n      gt\n        /* \"#utility.yul\":4246:4302   */\n      iszero\n      tag_132\n      jumpi\n        /* \"#utility.yul\":4282:4300   */\n      tag_133\n      tag_63\n      jump\t// in\n    tag_133:\n        /* \"#utility.yul\":4246:4302   */\n    tag_132:\n        /* \"#utility.yul\":4320:4349   */\n      tag_134\n        /* \"#utility.yul\":4342:4348   */\n      dup3\n        /* \"#utility.yul\":4320:4349   */\n      tag_59\n      jump\t// in\n    tag_134:\n        /* \"#utility.yul\":4312:4349   */\n      swap1\n      pop\n        /* \"#utility.yul\":4404:4408   */\n      0x20\n        /* \"#utility.yul\":4398:4402   */\n      dup2\n        /* \"#utility.yul\":4394:4409   */\n      add\n        /* \"#utility.yul\":4386:4409   */\n      swap1\n      pop\n        /* \"#utility.yul\":4108:4416   */\n      swap2\n      swap1\n      pop\n      jump\t// out\n        /* \"#utility.yul\":4422:4570   */\n    tag_67:\n        /* \"#utility.yul\":4520:4526   */\n      dup3\n        /* \"#utility.yul\":4515:4518   */\n      dup2\n        /* \"#utility.yul\":4510:4513   */\n      dup4\n        /* \"#utility.yul\":4497:4527   */\n      calldatacopy\n        /* \"#utility.yul\":4561:4562   */\n      0x00\n        /* \"#utility.yul\":4552:4558   */\n      dup4\n        /* \"#utility.yul\":4547:4550   */\n      dup4\n        /* \"#utility.yul\":4543:4559   */\n      add\n        /* \"#utility.yul\":4536:4563   */\n      mstore\n        /* \"#utility.yul\":4422:4570   */\n      pop\n      pop\n      pop\n      jump\t// out\n        /* \"#utility.yul\":4576:5001   */\n    tag_68:\n        /* \"#utility.yul\":4654:4659   */\n      0x00\n        /* \"#utility.yul\":4679:4745   */\n      tag_137\n        /* \"#utility.yul\":4695:4744   */\n      tag_138\n        /* \"#utility.yul\":4737:4743   */\n      dup5\n        /* \"#utility.yul\":4695:4744   */\n      tag_66\n      jump\t// in\n    tag_138:\n        /* \"#utility.yul\":4679:4745   */\n      tag_65\n      jump\t// in\n    tag_137:\n        /* \"#utility.yul\":4670:4745   */\n      swap1\n      pop\n        /* \"#utility.yul\":4768:4774   */\n      dup3\n        /* \"#utility.yul\":4761:4766   */\n      dup2\n        /* \"#utility.yul\":4754:4775   */\n      mstore\n        /* \"#utility.yul\":4806:4810   */\n      0x20\n        /* \"#utility.yul\":4799:4804   */\n      dup2\n        /* \"#utility.yul\":4795:4811   */\n      add\n        /* \"#utility.yul\":4844:4847   */\n      dup5\n        /* \"#utility.yul\":4835:4841   */\n      dup5\n        /* \"#utility.yul\":4830:4833   */\n      dup5\n        /* \"#utility.yul\":4826:4842   */\n      add\n        /* \"#utility.yul\":4823:4848   */\n      gt\n        /* \"#utility.yul\":4820:4932   */\n      iszero\n      tag_139\n      jumpi\n        /* \"#utility.yul\":4851:4930   */\n      tag_140\n      tag_62\n      jump\t// in\n    tag_140:\n        /* \"#utility.yul\":4820:4932   */\n    tag_139:\n        /* \"#utility.yul\":4941:4995   */\n      tag_141\n        /* \"#utility.yul\":4988:4994   */\n      dup5\n        /* \"#utility.yul\":4983:4986   */\n      dup3\n        /* \"#utility.yul\":4978:4981   */\n      dup6\n        /* \"#utility.yul\":4941:4995   */\n      tag_67\n      jump\t// in\n    tag_141:\n        /* \"#utility.yul\":4660:5001   */\n      pop\n        /* \"#utility.yul\":4576:5001   */\n      swap4\n      swap3\n      pop\n      pop\n      pop\n      jump\t// out\n        /* \"#utility.yul\":5021:5361   */\n    tag_69:\n        /* \"#utility.yul\":5077:5082   */\n      0x00\n        /* \"#utility.yul\":5126:5129   */\n      dup3\n        /* \"#utility.yul\":5119:5123   */\n      0x1f\n        /* \"#utility.yul\":5111:5117   */\n      dup4\n        /* \"#utility.yul\":5107:5124   */\n      add\n        /* \"#utility.yul\":5103:5130   */\n      slt\n        /* \"#utility.yul\":5093:5215   */\n      tag_143\n      jumpi\n        /* \"#utility.yul\":5134:5213   */\n      tag_144\n      tag_61\n      jump\t// in\n    tag_144:\n        /* \"#utility.yul\":5093:5215   */\n    tag_143:\n        /* \"#utility.yul\":5251:5257   */\n      dup2\n        /* \"#utility.yul\":5238:5258   */\n      calldataload\n        /* \"#utility.yul\":5276:5355   */\n      tag_145\n        /* \"#utility.yul\":5351:5354   */\n      dup5\n        /* \"#utility.yul\":5343:5349   */\n      dup3\n        /* \"#utility.yul\":5336:5340   */\n      0x20\n        /* \"#utility.yul\":5328:5334   */\n      dup7\n        /* \"#utility.yul\":5324:5341   */\n      add\n        /* \"#utility.yul\":5276:5355   */\n      tag_68\n      jump\t// in\n    tag_145:\n        /* \"#utility.yul\":5267:5355   */\n      swap2\n      pop\n        /* \"#utility.yul\":5083:5361   */\n      pop\n        /* \"#utility.yul\":5021:5361   */\n      swap3\n      swap2\n      pop\n      pop\n      jump\t// out\n        /* \"#utility.yul\":5367:6312   */\n    tag_21:\n        /* \"#utility.yul\":5463:5469   */\n      0x00\n        /* \"#utility.yul\":5471:5477   */\n      dup1\n        /* \"#utility.yul\":5479:5485   */\n      0x00\n        /* \"#utility.yul\":5487:5493   */\n      dup1\n        /* \"#utility.yul\":5536:5539   */\n      0x80\n        /* \"#utility.yul\":5524:5533   */\n      dup6\n        /* \"#utility.yul\":5515:5522   */\n      dup8\n        /* \"#utility.yul\":5511:5534   */\n      sub\n        /* \"#utility.yul\":5507:5540   */\n      slt\n        /* \"#utility.yul\":5504:5624   */\n      iszero\n      tag_147\n      jumpi\n        /* \"#utility.yul\":5543:5622   */\n      tag_148\n      tag_50\n      jump\t// in\n    tag_148:\n        /* \"#utility.yul\":5504:5624   */\n    tag_147:\n        /* \"#utility.yul\":5663:5664   */\n      0x00\n        /* \"#utility.yul\":5688:5741   */\n      tag_149\n        /* \"#utility.yul\":5733:5740   */\n      dup8\n        /* \"#utility.yul\":5724:5730   */\n      dup3\n        /* \"#utility.yul\":5713:5722   */\n      dup9\n        /* \"#utility.yul\":5709:5731   */\n      add\n        /* \"#utility.yul\":5688:5741   */\n      tag_54\n      jump\t// in\n    tag_149:\n        /* \"#utility.yul\":5678:5741   */\n      swap5\n      pop\n        /* \"#utility.yul\":5634:5751   */\n      pop\n        /* \"#utility.yul\":5818:5820   */\n      0x20\n        /* \"#utility.yul\":5807:5816   */\n      dup6\n        /* \"#utility.yul\":5803:5821   */\n      add\n        /* \"#utility.yul\":5790:5822   */\n      calldataload\n        /* \"#utility.yul\":5849:5867   */\n      0xffffffffffffffff\n        /* \"#utility.yul\":5841:5847   */\n      dup2\n        /* \"#utility.yul\":5838:5868   */\n      gt\n        /* \"#utility.yul\":5835:5952   */\n      iszero\n      tag_150\n      jumpi\n        /* \"#utility.yul\":5871:5950   */\n      tag_151\n      tag_51\n      jump\t// in\n    tag_151:\n        /* \"#utility.yul\":5835:5952   */\n    tag_150:\n        /* \"#utility.yul\":5976:6039   */\n      tag_152\n        /* \"#utility.yul\":6031:6038   */\n      dup8\n        /* \"#utility.yul\":6022:6028   */\n      dup3\n        /* \"#utility.yul\":6011:6020   */\n      dup9\n        /* \"#utility.yul\":6007:6029   */\n      add\n        /* \"#utility.yul\":5976:6039   */\n      tag_69\n      jump\t// in\n    tag_152:\n        /* \"#utility.yul\":5966:6039   */\n      swap4\n      pop\n        /* \"#utility.yul\":5761:6049   */\n      pop\n        /* \"#utility.yul\":6088:6090   */\n      0x40\n        /* \"#utility.yul\":6114:6167   */\n      tag_153\n        /* \"#utility.yul\":6159:6166   */\n      dup8\n        /* \"#utility.yul\":6150:6156   */\n      dup3\n        /* \"#utility.yul\":6139:6148   */\n      dup9\n        /* \"#utility.yul\":6135:6157   */\n      add\n        /* \"#utility.yul\":6114:6167   */\n      tag_54\n      jump\t// in\n    tag_153:\n        /* \"#utility.yul\":6104:6167   */\n      swap3\n      pop\n        /* \"#utility.yul\":6059:6177   */\n      pop\n        /* \"#utility.yul\":6216:6218   */\n      0x60\n        /* \"#utility.yul\":6242:6295   */\n      tag_154\n        /* \"#utility.yul\":6287:6294   */\n      dup8\n        /* \"#utility.yul\":6278:6284   */\n      dup3\n        /* \"#utility.yul\":6267:6276   */\n      dup9\n        /* \"#utility.yul\":6263:6285   */\n      add\n        /* \"#utility.yul\":6242:6295   */\n      tag_54\n      jump\t// in\n    tag_154:\n        /* \"#utility.yul\":6232:6295   */\n      swap2\n      pop\n        /* \"#utility.yul\":6187:6305   */\n      pop\n        /* \"#utility.yul\":5367:6312   */\n      swap3\n      swap6\n      swap2\n      swap5\n      pop\n      swap3\n      pop\n      jump\t// out\n        /* \"#utility.yul\":6318:6540   */\n    tag_26:\n        /* \"#utility.yul\":6411:6415   */\n      0x00\n        /* \"#utility.yul\":6449:6451   */\n      0x20\n        /* \"#utility.yul\":6438:6447   */\n      dup3\n        /* \"#utility.yul\":6434:6452   */\n      add\n        /* \"#utility.yul\":6426:6452   */\n      swap1\n      pop\n        /* \"#utility.yul\":6462:6533   */\n      tag_156\n        /* \"#utility.yul\":6530:6531   */\n      0x00\n        /* \"#utility.yul\":6519:6528   */\n      dup4\n        /* \"#utility.yul\":6515:6532   */\n      add\n        /* \"#utility.yul\":6506:6512   */\n      dup5\n        /* \"#utility.yul\":6462:6533   */\n      tag_55\n      jump\t// in\n    tag_156:\n        /* \"#utility.yul\":6318:6540   */\n      swap3\n      swap2\n      pop\n      pop\n      jump\t// out\n        /* \"#utility.yul\":6546:7020   */\n    tag_29:\n        /* \"#utility.yul\":6614:6620   */\n      0x00\n        /* \"#utility.yul\":6622:6628   */\n      dup1\n        /* \"#utility.yul\":6671:6673   */\n      0x40\n        /* \"#utility.yul\":6659:6668   */\n      dup4\n        /* \"#utility.yul\":6650:6657   */\n      dup6\n        /* \"#utility.yul\":6646:6669   */\n      sub\n        /* \"#utility.yul\":6642:6674   */\n      slt\n        /* \"#utility.yul\":6639:6758   */\n      iszero\n      tag_158\n      jumpi\n        /* \"#utility.yul\":6677:6756   */\n      tag_159\n      tag_50\n      jump\t// in\n    tag_159:\n        /* \"#utility.yul\":6639:6758   */\n    tag_158:\n        /* \"#utility.yul\":6797:6798   */\n      0x00\n        /* \"#utility.yul\":6822:6875   */\n      tag_160\n        /* \"#utility.yul\":6867:6874   */\n      dup6\n        /* \"#utility.yul\":6858:6864   */\n      dup3\n        /* \"#utility.yul\":6847:6856   */\n      dup7\n        /* \"#utility.yul\":6843:6865   */\n      add\n        /* \"#utility.yul\":6822:6875   */\n      tag_54\n      jump\t// in\n    tag_160:\n        /* \"#utility.yul\":6812:6875   */\n      swap3\n      pop\n        /* \"#utility.yul\":6768:6885   */\n      pop\n        /* \"#utility.yul\":6924:6926   */\n      0x20\n        /* \"#utility.yul\":6950:7003   */\n      tag_161\n        /* \"#utility.yul\":6995:7002   */\n      dup6\n        /* \"#utility.yul\":6986:6992   */\n      dup3\n        /* \"#utility.yul\":6975:6984   */\n      dup7\n        /* \"#utility.yul\":6971:6993   */\n      add\n        /* \"#utility.yul\":6950:7003   */\n      tag_54\n      jump\t// in\n    tag_161:\n        /* \"#utility.yul\":6940:7003   */\n      swap2\n      pop\n        /* \"#utility.yul\":6895:7013   */\n      pop\n        /* \"#utility.yul\":6546:7020   */\n      swap3\n      pop\n      swap3\n      swap1\n      pop\n      jump\t// out\n        /* \"#utility.yul\":7026:7206   */\n    tag_70:\n        /* \"#utility.yul\":7074:7151   */\n      0x4e487b7100000000000000000000000000000000000000000000000000000000\n        /* \"#utility.yul\":7071:7072   */\n      0x00\n        /* \"#utility.yul\":7064:7152   */\n      mstore\n        /* \"#utility.yul\":7171:7175   */\n      0x22\n        /* \"#utility.yul\":7168:7169   */\n      0x04\n        /* \"#utility.yul\":7161:7176   */\n      mstore\n        /* \"#utility.yul\":7195:7199   */\n      0x24\n        /* \"#utility.yul\":7192:7193   */\n      0x00\n        /* \"#utility.yul\":7185:7200   */\n      revert\n        /* \"#utility.yul\":7212:7532   */\n    tag_32:\n        /* \"#utility.yul\":7256:7262   */\n      0x00\n        /* \"#utility.yul\":7293:7294   */\n      0x02\n        /* \"#utility.yul\":7287:7291   */\n      dup3\n        /* \"#utility.yul\":7283:7295   */\n      div\n        /* \"#utility.yul\":7273:7295   */\n      swap1\n      pop\n        /* \"#utility.yul\":7340:7341   */\n      0x01\n        /* \"#utility.yul\":7334:7338   */\n      dup3\n        /* \"#utility.yul\":7330:7342   */\n      and\n        /* \"#utility.yul\":7361:7379   */\n      dup1\n        /* \"#utility.yul\":7351:7432   */\n      tag_164\n      jumpi\n        /* \"#utility.yul\":7417:7421   */\n      0x7f\n        /* \"#utility.yul\":7409:7415   */\n      dup3\n        /* \"#utility.yul\":7405:7422   */\n      and\n        /* \"#utility.yul\":7395:7422   */\n      swap2\n      pop\n        /* \"#utility.yul\":7351:7432   */\n    tag_164:\n        /* \"#utility.yul\":7479:7481   */\n      0x20\n        /* \"#utility.yul\":7471:7477   */\n      dup3\n        /* \"#utility.yul\":7468:7482   */\n      lt\n        /* \"#utility.yul\":7448:7466   */\n      dup2\n        /* \"#utility.yul\":7445:7483   */\n      sub\n        /* \"#utility.yul\":7442:7526   */\n      tag_165\n      jumpi\n        /* \"#utility.yul\":7498:7516   */\n      tag_166\n      tag_70\n      jump\t// in\n    tag_166:\n        /* \"#utility.yul\":7442:7526   */\n    tag_165:\n        /* \"#utility.yul\":7263:7532   */\n      pop\n        /* \"#utility.yul\":7212:7532   */\n      swap2\n      swap1\n      pop\n      jump\t// out\n        /* \"#utility.yul\":7538:7718   */\n    tag_71:\n        /* \"#utility.yul\":7586:7663   */\n      0x4e487b7100000000000000000000000000000000000000000000000000000000\n        /* \"#utility.yul\":7583:7584   */\n      0x00\n        /* \"#utility.yul\":7576:7664   */\n      mstore\n        /* \"#utility.yul\":7683:7687   */\n      0x11\n        /* \"#utility.yul\":7680:7681   */\n      0x04\n        /* \"#utility.yul\":7673:7688   */\n      mstore\n        /* \"#utility.yul\":7707:7711   */\n      0x24\n        /* \"#utility.yul\":7704:7705   */\n      0x00\n        /* \"#utility.yul\":7697:7712   */\n      revert\n        /* \"#utility.yul\":7724:7957   */\n    tag_45:\n        /* \"#utility.yul\":7763:7766   */\n      0x00\n        /* \"#utility.yul\":7786:7810   */\n      tag_169\n        /* \"#utility.yul\":7804:7809   */\n      dup3\n        /* \"#utility.yul\":7786:7810   */\n      tag_52\n      jump\t// in\n    tag_169:\n        /* \"#utility.yul\":7777:7810   */\n      swap2\n      pop\n        /* \"#utility.yul\":7832:7898   */\n      0xffffffffffffffffffffffffffffffffffffffffffffffffffffffffffffffff\n        /* \"#utility.yul\":7825:7830   */\n      dup3\n        /* \"#utility.yul\":7822:7899   */\n      sub\n        /* \"#utility.yul\":7819:7922   */\n      tag_170\n      jumpi\n        /* \"#utility.yul\":7902:7920   */\n      tag_171\n      tag_71\n      jump\t// in\n    tag_171:\n        /* \"#utility.yul\":7819:7922   */\n    tag_170:\n        /* \"#utility.yul\":7949:7950   */\n      0x01\n        /* \"#utility.yul\":7942:7947   */\n      dup3\n        /* \"#utility.yul\":7938:7951   */\n      add\n        /* \"#utility.yul\":7931:7951   */\n      swap1\n      pop\n        /* \"#utility.yul\":7724:7957   */\n      swap2\n      swap1\n      pop\n      jump\t// out\n        /* \"#utility.yul\":7963:8104   */\n    tag_72:\n        /* \"#utility.yul\":8012:8016   */\n      0x00\n        /* \"#utility.yul\":8035:8038   */\n      dup2\n        /* \"#utility.yul\":8027:8038   */\n      swap1\n      pop\n        /* \"#utility.yul\":8058:8061   */\n      dup2\n        /* \"#utility.yul\":8055:8056   */\n      0x00\n        /* \"#utility.yul\":8048:8062   */\n      mstore\n        /* \"#utility.yul\":8092:8096   */\n      0x20\n        /* \"#utility.yul\":8089:8090   */\n      0x00\n        /* \"#utility.yul\":8079:8097   */\n      keccak256\n        /* \"#utility.yul\":8071:8097   */\n      swap1\n      pop\n        /* \"#utility.yul\":7963:8104   */\n      swap2\n      swap1\n      pop\n      jump\t// out\n        /* \"#utility.yul\":8110:8203   */\n    tag_73:\n        /* \"#utility.yul\":8147:8153   */\n      0x00\n        /* \"#utility.yul\":8194:8196   */\n      0x20\n        /* \"#utility.yul\":8189:8191   */\n      0x1f\n        /* \"#utility.yul\":8182:8187   */\n      dup4\n        /* \"#utility.yul\":8178:8192   */\n      add\n        /* \"#utility.yul\":8174:8197   */\n      div\n        /* \"#utility.yul\":8164:8197   */\n      swap1\n      pop\n        /* \"#utility.yul\":8110:8203   */\n      swap2\n      swap1\n      pop\n      jump\t// out\n        /* \"#utility.yul\":8209:8316   */\n    tag_74:\n        /* \"#utility.yul\":8253:8261   */\n      0x00\n        /* \"#utility.yul\":8303:8308   */\n      dup3\n        /* \"#utility.yul\":8297:8301   */\n      dup3\n        /* \"#utility.yul\":8293:8309   */\n      shl\n        /* \"#utility.yul\":8272:8309   */\n      swap1\n      pop\n        /* \"#utility.yul\":8209:8316   */\n      swap3\n      swap2\n      pop\n      pop\n      jump\t// out\n        /* \"#utility.yul\":8322:8715   */\n    tag_75:\n        /* \"#utility.yul\":8391:8397   */\n      0x00\n        /* \"#utility.yul\":8441:8442   */\n      0x08\n        /* \"#utility.yul\":8429:8439   */\n      dup4\n        /* \"#utility.yul\":8425:8443   */\n      mul\n        /* \"#utility.yul\":8464:8561   */\n      tag_176\n        /* \"#utility.yul\":8494:8560   */\n      0xffffffffffffffffffffffffffffffffffffffffffffffffffffffffffffffff\n        /* \"#utility.yul\":8483:8492   */\n      dup3\n        /* \"#utility.yul\":8464:8561   */\n      tag_74\n      jump\t// in\n    tag_176:\n        /* \"#utility.yul\":8582:8621   */\n      tag_177\n        /* \"#utility.yul\":8612:8620   */\n      dup7\n        /* \"#utility.yul\":8601:8610   */\n      dup4\n        /* \"#utility.yul\":8582:8621   */\n      tag_74\n      jump\t// in\n    tag_177:\n        /* \"#utility.yul\":8570:8621   */\n      swap6\n      pop\n        /* \"#utility.yul\":8654:8658   */\n      dup1\n        /* \"#utility.yul\":8650:8659   */\n      not\n        /* \"#utility.yul\":8643:8648   */\n      dup5\n        /* \"#utility.yul\":8639:8660   */\n      and\n        /* \"#utility.yul\":8630:8660   */\n      swap4\n      pop\n        /* \"#utility.yul\":8703:8707   */\n      dup1\n        /* \"#utility.yul\":8693:8701   */\n      dup7\n        /* \"#utility.yul\":8689:8708   */\n      and\n        /* \"#utility.yul\":8682:8687   */\n      dup5\n        /* \"#utility.yul\":8679:8709   */\n      or\n        /* \"#utility.yul\":8669:8709   */\n      swap3\n      pop\n        /* \"#utility.yul\":8398:8715   */\n      pop\n      pop\n        /* \"#utility.yul\":8322:8715   */\n      swap4\n      swap3\n      pop\n      pop\n      pop\n      jump\t// out\n        /* \"#utility.yul\":8721:8781   */\n    tag_76:\n        /* \"#utility.yul\":8749:8752   */\n      0x00\n        /* \"#utility.yul\":8770:8775   */\n      dup2\n        /* \"#utility.yul\":8763:8775   */\n      swap1\n      pop\n        /* \"#utility.yul\":8721:8781   */\n      swap2\n      swap1\n      pop\n      jump\t// out\n        /* \"#utility.yul\":8787:8929   */\n    tag_77:\n        /* \"#utility.yul\":8837:8846   */\n      0x00\n        /* \"#utility.yul\":8870:8923   */\n      tag_180\n        /* \"#utility.yul\":8888:8922   */\n      tag_181\n        /* \"#utility.yul\":8897:8921   */\n      tag_182\n        /* \"#utility.yul\":8915:8920   */\n      dup5\n        /* \"#utility.yul\":8897:8921   */\n      tag_52\n      jump\t// in\n    tag_182:\n        /* \"#utility.yul\":8888:8922   */\n      tag_76\n      jump\t// in\n    tag_181:\n        /* \"#utility.yul\":8870:8923   */\n      tag_52\n      jump\t// in\n    tag_180:\n        /* \"#utility.yul\":8857:8923   */\n      swap1\n      pop\n        /* \"#utility.yul\":8787:8929   */\n      swap2\n      swap1\n      pop\n      jump\t// out\n        /* \"#utility.yul\":8935:9010   */\n    tag_78:\n        /* \"#utility.yul\":8978:8981   */\n      0x00\n        /* \"#utility.yul\":8999:9004   */\n      dup2\n        /* \"#utility.yul\":8992:9004   */\n      swap1\n      pop\n        /* \"#utility.yul\":8935:9010   */\n      swap2\n      swap1\n      pop\n      jump\t// out\n        /* \"#utility.yul\":9016:9285   */\n    tag_79:\n        /* \"#utility.yul\":9126:9165   */\n      tag_185\n        /* \"#utility.yul\":9157:9164   */\n      dup4\n        /* \"#utility.yul\":9126:9165   */\n      tag_77\n      jump\t// in\n    tag_185:\n        /* \"#utility.yul\":9187:9278   */\n      tag_186\n        /* \"#utility.yul\":9236:9277   */\n      tag_187\n        /* \"#utility.yul\":9260:9276   */\n      dup3\n        /* \"#utility.yul\":9236:9277   */\n      tag_78\n      jump\t// in\n    tag_187:\n        /* \"#utility.yul\":9228:9234   */\n      dup5\n        /* \"#utility.yul\":9221:9225   */\n      dup5\n        /* \"#utility.yul\":9215:9226   */\n      sload\n        /* \"#utility.yul\":9187:9278   */\n      tag_75\n      jump\t// in\n    tag_186:\n        /* \"#utility.yul\":9181:9185   */\n      dup3\n        /* \"#utility.yul\":9174:9279   */\n      sstore\n        /* \"#utility.yul\":9092:9285   */\n      pop\n        /* \"#utility.yul\":9016:9285   */\n      pop\n      pop\n      pop\n      jump\t// out\n        /* \"#utility.yul\":9291:9364   */\n    tag_80:\n        /* \"#utility.yul\":9336:9339   */\n      0x00\n        /* \"#utility.yul\":9291:9364   */\n      swap1\n      jump\t// out\n        /* \"#utility.yul\":9370:9559   */\n    tag_81:\n        /* \"#utility.yul\":9447:9479   */\n      tag_190\n      tag_80\n      jump\t// in\n    tag_190:\n        /* \"#utility.yul\":9488:9553   */\n      tag_191\n        /* \"#utility.yul\":9546:9552   */\n      dup2\n        /* \"#utility.yul\":9538:9544   */\n      dup5\n        /* \"#utility.yul\":9532:9536   */\n      dup5\n        /* \"#utility.yul\":9488:9553   */\n      tag_79\n      jump\t// in\n    tag_191:\n        /* \"#utility.yul\":9423:9559   */\n      pop\n        /* \"#utility.yul\":9370:9559   */\n      pop\n      pop\n      jump\t// out\n        /* \"#utility.yul\":9565:9751   */\n    tag_82:\n        /* \"#utility.yul\":9625:9745   */\n    tag_193:\n        /* \"#utility.yul\":9642:9645   */\n      dup2\n        /* \"#utility.yul\":9635:9640   */\n      dup2\n        /* \"#utility.yul\":9632:9646   */\n      lt\n        /* \"#utility.yul\":9625:9745   */\n      iszero\n      tag_195\n      jumpi\n        /* \"#utility.yul\":9696:9735   */\n      tag_196\n        /* \"#utility.yul\":9733:9734   */\n      0x00\n        /* \"#utility.yul\":9726:9731   */\n      dup3\n        /* \"#utility.yul\":9696:9735   */\n      tag_81\n      jump\t// in\n    tag_196:\n        /* \"#utility.yul\":9669:9670   */\n      0x01\n        /* \"#utility.yul\":9662:9667   */\n      dup2\n        /* \"#utility.yul\":9658:9671   */\n      add\n        /* \"#utility.yul\":9649:9671   */\n      swap1\n      pop\n        /* \"#utility.yul\":9625:9745   */\n      jump(tag_193)\n    tag_195:\n        /* \"#utility.yul\":9565:9751   */\n      pop\n      pop\n      jump\t// out\n        /* \"#utility.yul\":9757:10300   */\n    tag_83:\n        /* \"#utility.yul\":9858:9860   */\n      0x1f\n        /* \"#utility.yul\":9853:9856   */\n      dup3\n        /* \"#utility.yul\":9850:9861   */\n      gt\n        /* \"#utility.yul\":9847:10293   */\n      iszero\n      tag_198\n      jumpi\n        /* \"#utility.yul\":9892:9930   */\n      tag_199\n        /* \"#utility.yul\":9924:9929   */\n      dup2\n        /* \"#utility.yul\":9892:9930   */\n      tag_72\n      jump\t// in\n    tag_199:\n        /* \"#utility.yul\":9976:10005   */\n      tag_200\n        /* \"#utility.yul\":9994:10004   */\n      dup5\n        /* \"#utility.yul\":9976:10005   */\n      tag_73\n      jump\t// in\n    tag_200:\n        /* \"#utility.yul\":9966:9974   */\n      dup2\n        /* \"#utility.yul\":9962:10006   */\n      add\n        /* \"#utility.yul\":10159:10161   */\n      0x20\n        /* \"#utility.yul\":10147:10157   */\n      dup6\n        /* \"#utility.yul\":10144:10162   */\n      lt\n        /* \"#utility.yul\":10141:10190   */\n      iszero\n      tag_201\n      jumpi\n        /* \"#utility.yul\":10180:10188   */\n      dup2\n        /* \"#utility.yul\":10165:10188   */\n      swap1\n      pop\n        /* \"#utility.yul\":10141:10190   */\n    tag_201:\n        /* \"#utility.yul\":10203:10283   */\n      tag_202\n        /* \"#utility.yul\":10259:10281   */\n      tag_203\n        /* \"#utility.yul\":10277:10280   */\n      dup6\n        /* \"#utility.yul\":10259:10281   */\n      tag_73\n      jump\t// in\n    tag_203:\n        /* \"#utility.yul\":10249:10257   */\n      dup4\n        /* \"#utility.yul\":10245:10282   */\n      add\n        /* \"#utility.yul\":10232:10243   */\n      dup3\n        /* \"#utility.yul\":10203:10283   */\n      tag_82\n      jump\t// in\n    tag_202:\n        /* \"#utility.yul\":9862:10293   */\n      pop\n      pop\n        /* \"#utility.yul\":9847:10293   */\n    tag_198:\n        /* \"#utility.yul\":9757:10300   */\n      pop\n      pop\n      pop\n      jump\t// out\n        /* \"#utility.yul\":10306:10423   */\n    tag_84:\n        /* \"#utility.yul\":10360:10368   */\n      0x00\n        /* \"#utility.yul\":10410:10415   */\n      dup3\n        /* \"#utility.yul\":10404:10408   */\n      dup3\n        /* \"#utility.yul\":10400:10416   */\n      shr\n        /* \"#utility.yul\":10379:10416   */\n      swap1\n      pop\n        /* \"#utility.yul\":10306:10423   */\n      swap3\n      swap2\n      pop\n      pop\n      jump\t// out\n        /* \"#utility.yul\":10429:10598   */\n    tag_85:\n        /* \"#utility.yul\":10473:10479   */\n      0x00\n        /* \"#utility.yul\":10506:10557   */\n      tag_206\n        /* \"#utility.yul\":10554:10555   */\n      0x00\n        /* \"#utility.yul\":10550:10556   */\n      not\n        /* \"#utility.yul\":10542:10547   */\n      dup5\n        /* \"#utility.yul\":10539:10540   */\n      0x08\n        /* \"#utility.yul\":10535:10548   */\n      mul\n        /* \"#utility.yul\":10506:10557   */\n      tag_84\n      jump\t// in\n    tag_206:\n        /* \"#utility.yul\":10502:10558   */\n      not\n        /* \"#utility.yul\":10587:10591   */\n      dup1\n        /* \"#utility.yul\":10581:10585   */\n      dup4\n        /* \"#utility.yul\":10577:10592   */\n      and\n        /* \"#utility.yul\":10567:10592   */\n      swap2\n      pop\n        /* \"#utility.yul\":10480:10598   */\n      pop\n        /* \"#utility.yul\":10429:10598   */\n      swap3\n      swap2\n      pop\n      pop\n      jump\t// out\n        /* \"#utility.yul\":10603:10898   */\n    tag_86:\n        /* \"#utility.yul\":10679:10683   */\n      0x00\n        /* \"#utility.yul\":10825:10854   */\n      tag_208\n        /* \"#utility.yul\":10850:10853   */\n      dup4\n        /* \"#utility.yul\":10844:10848   */\n      dup4\n        /* \"#utility.yul\":10825:10854   */\n      tag_85\n      jump\t// in\n    tag_208:\n        /* \"#utility.yul\":10817:10854   */\n      swap2\n      pop\n        /* \"#utility.yul\":10887:10890   */\n      dup3\n        /* \"#utility.yul\":10884:10885   */\n      0x02\n        /* \"#utility.yul\":10880:10891   */\n      mul\n        /* \"#utility.yul\":10874:10878   */\n      dup3\n        /* \"#utility.yul\":10871:10892   */\n      or\n        /* \"#utility.yul\":10863:10892   */\n      swap1\n      pop\n        /* \"#utility.yul\":10603:10898   */\n      swap3\n      swap2\n      pop\n      pop\n      jump\t// out\n        /* \"#utility.yul\":10903:12298   */\n    tag_47:\n        /* \"#utility.yul\":11020:11057   */\n      tag_210\n        /* \"#utility.yul\":11053:11056   */\n      dup3\n        /* \"#utility.yul\":11020:11057   */\n      tag_56\n      jump\t// in\n    tag_210:\n        /* \"#utility.yul\":11122:11140   */\n      0xffffffffffffffff\n        /* \"#utility.yul\":11114:11120   */\n      dup2\n        /* \"#utility.yul\":11111:11141   */\n      gt\n        /* \"#utility.yul\":11108:11164   */\n      iszero\n      tag_211\n      jumpi\n        /* \"#utility.yul\":11144:11162   */\n      tag_212\n      tag_63\n      jump\t// in\n    tag_212:\n        /* \"#utility.yul\":11108:11164   */\n    tag_211:\n        /* \"#utility.yul\":11188:11226   */\n      tag_213\n        /* \"#utility.yul\":11220:11224   */\n      dup3\n        /* \"#utility.yul\":11214:11225   */\n      sload\n        /* \"#utility.yul\":11188:11226   */\n      tag_32\n      jump\t// in\n    tag_213:\n        /* \"#utility.yul\":11273:11340   */\n      tag_214\n        /* \"#utility.yul\":11333:11339   */\n      dup3\n        /* \"#utility.yul\":11325:11331   */\n      dup3\n        /* \"#utility.yul\":11319:11323   */\n      dup6\n        /* \"#utility.yul\":11273:11340   */\n      tag_83\n      jump\t// in\n    tag_214:\n        /* \"#utility.yul\":11367:11368   */\n      0x00\n        /* \"#utility.yul\":11391:11395   */\n      0x20\n        /* \"#utility.yul\":11378:11395   */\n      swap1\n      pop\n        /* \"#utility.yul\":11423:11425   */\n      0x1f\n        /* \"#utility.yul\":11415:11421   */\n      dup4\n        /* \"#utility.yul\":11412:11426   */\n      gt\n        /* \"#utility.yul\":11440:11441   */\n      0x01\n        /* \"#utility.yul\":11435:12053   */\n      dup2\n      eq\n      tag_216\n      jumpi\n        /* \"#utility.yul\":12097:12098   */\n      0x00\n        /* \"#utility.yul\":12114:12120   */\n      dup5\n        /* \"#utility.yul\":12111:12188   */\n      iszero\n      tag_217\n      jumpi\n        /* \"#utility.yul\":12163:12172   */\n      dup3\n        /* \"#utility.yul\":12158:12161   */\n      dup8\n        /* \"#utility.yul\":12154:12173   */\n      add\n        /* \"#utility.yul\":12148:12174   */\n      mload\n        /* \"#utility.yul\":12139:12174   */\n      swap1\n      pop\n        /* \"#utility.yul\":12111:12188   */\n    tag_217:\n        /* \"#utility.yul\":12214:12281   */\n      tag_218\n        /* \"#utility.yul\":12274:12280   */\n      dup6\n        /* \"#utility.yul\":12267:12272   */\n      dup3\n        /* \"#utility.yul\":12214:12281   */\n      tag_86\n      jump\t// in\n    tag_218:\n        /* \"#utility.yul\":12208:12212   */\n      dup7\n        /* \"#utility.yul\":12201:12282   */\n      sstore\n        /* \"#utility.yul\":12070:12292   */\n      pop\n        /* \"#utility.yul\":11405:12292   */\n      jump(tag_215)\n        /* \"#utility.yul\":11435:12053   */\n    tag_216:\n        /* \"#utility.yul\":11487:11491   */\n      0x1f\n        /* \"#utility.yul\":11483:11492   */\n      not\n        /* \"#utility.yul\":11475:11481   */\n      dup5\n        /* \"#utility.yul\":11471:11493   */\n      and\n        /* \"#utility.yul\":11521:11558   */\n      tag_219\n        /* \"#utility.yul\":11553:11557   */\n      dup7\n        /* \"#utility.yul\":11521:11558   */\n      tag_72\n      jump\t// in\n    tag_219:\n        /* \"#utility.yul\":11580:11581   */\n      0x00\n        /* \"#utility.yul\":11594:11802   */\n    tag_220:\n        /* \"#utility.yul\":11608:11615   */\n      dup3\n        /* \"#utility.yul\":11605:11606   */\n      dup2\n        /* \"#utility.yul\":11602:11616   */\n      lt\n        /* \"#utility.yul\":11594:11802   */\n      iszero\n      tag_222\n      jumpi\n        /* \"#utility.yul\":11687:11696   */\n      dup5\n        /* \"#utility.yul\":11682:11685   */\n      dup10\n        /* \"#utility.yul\":11678:11697   */\n      add\n        /* \"#utility.yul\":11672:11698   */\n      mload\n        /* \"#utility.yul\":11664:11670   */\n      dup3\n        /* \"#utility.yul\":11657:11699   */\n      sstore\n        /* \"#utility.yul\":11738:11739   */\n      0x01\n        /* \"#utility.yul\":11730:11736   */\n      dup3\n        /* \"#utility.yul\":11726:11740   */\n      add\n        /* \"#utility.yul\":11716:11740   */\n      swap2\n      pop\n        /* \"#utility.yul\":11785:11787   */\n      0x20\n        /* \"#utility.yul\":11774:11783   */\n      dup6\n        /* \"#utility.yul\":11770:11788   */\n      add\n        /* \"#utility.yul\":11757:11788   */\n      swap5\n      pop\n        /* \"#utility.yul\":11631:11635   */\n      0x20\n        /* \"#utility.yul\":11628:11629   */\n      dup2\n        /* \"#utility.yul\":11624:11636   */\n      add\n        /* \"#utility.yul\":11619:11636   */\n      swap1\n      pop\n        /* \"#utility.yul\":11594:11802   */\n      jump(tag_220)\n    tag_222:\n        /* \"#utility.yul\":11830:11836   */\n      dup7\n        /* \"#utility.yul\":11821:11828   */\n      dup4\n        /* \"#utility.yul\":11818:11837   */\n      lt\n        /* \"#utility.yul\":11815:11994   */\n      iszero\n      tag_223\n      jumpi\n        /* \"#utility.yul\":11888:11897   */\n      dup5\n        /* \"#utility.yul\":11883:11886   */\n      dup10\n        /* \"#utility.yul\":11879:11898   */\n      add\n        /* \"#utility.yul\":11873:11899   */\n      mload\n        /* \"#utility.yul\":11931:11979   */\n      tag_224\n        /* \"#utility.yul\":11973:11977   */\n      0x1f\n        /* \"#utility.yul\":11965:11971   */\n      dup10\n        /* \"#utility.yul\":11961:11978   */\n      and\n        /* \"#utility.yul\":11950:11959   */\n      dup3\n        /* \"#utility.yul\":11931:11979   */\n      tag_85\n      jump\t// in\n    tag_224:\n        /* \"#utility.yul\":11923:11929   */\n      dup4\n        /* \"#utility.yul\":11916:11980   */\n      sstore\n        /* \"#utility.yul\":11838:11994   */\n      pop\n        /* \"#utility.yul\":11815:11994   */\n    tag_223:\n        /* \"#utility.yul\":12040:12041   */\n      0x01\n        /* \"#utility.yul\":12036:12037   */\n      0x02\n        /* \"#utility.yul\":12028:12034   */\n      dup9\n        /* \"#utility.yul\":12024:12038   */\n      mul\n        /* \"#utility.yul\":12020:12042   */\n      add\n        /* \"#utility.yul\":12014:12018   */\n      dup9\n        /* \"#utility.yul\":12007:12043   */\n      sstore\n        /* \"#utility.yul\":11442:12053   */\n      pop\n      pop\n      pop\n        /* \"#utility.yul\":11405:12292   */\n    tag_215:\n      pop\n        /* \"#utility.yul\":10995:12298   */\n      pop\n      pop\n      pop\n        /* \"#utility.yul\":10903:12298   */\n      pop\n      pop\n      jump\t// out\n\n    auxdata: 0xa2646970667358221220580bcf4caa9b5c85f4d2c031a69fd81d95842ce96ab250b9dc2623e17211990b64736f6c634300081a0033\n}\n",
				"bytecode": {
					"linkReferences": {},
					"object": "6080604052348015600e575f80fd5b50610a168061001c5f395ff3fe608060405234801561000f575f80fd5b5060043610610055575f3560e01c80637acc0b2014610059578063b9db15b41461008c578063c27ed2a2146100be578063e0f6ef87146100da578063fd231411146100f8575b5f80fd5b610073600480360381019061006e9190610370565b610114565b604051610083949392919061041a565b60405180910390f35b6100a660048036038101906100a19190610370565b6101c5565b6040516100b593929190610464565b60405180910390f35b6100d860048036038101906100d391906105cc565b610282565b005b6100e2610305565b6040516100ef919061064c565b60405180910390f35b610112600480360381019061010d9190610665565b61030b565b005b5f602052805f5260405f205f91509050805f015490806001018054610138906106d0565b80601f0160208091040260200160405190810160405280929190818152602001828054610164906106d0565b80156101af5780601f10610186576101008083540402835291602001916101af565b820191905f5260205f20905b81548152906001019060200180831161019257829003601f168201915b5050505050908060020154908060030154905084565b60605f805f805f8681526020019081526020015f20905080600101816002015482600301548280546101f6906106d0565b80601f0160208091040260200160405190810160405280929190818152602001828054610222906106d0565b801561026d5780601f106102445761010080835404028352916020019161026d565b820191905f5260205f20905b81548152906001019060200180831161025057829003601f168201915b50505050509250935093509350509193909250565b60015f8154809291906102949061072d565b91905055506040518060800160405280858152602001848152602001838152602001828152505f808681526020019081526020015f205f820151815f015560208201518160010190816102e79190610911565b50604082015181600201556060820151816003015590505050505050565b60015481565b5f805f8481526020019081526020015f209050818160030181905550505050565b5f604051905090565b5f80fd5b5f80fd5b5f819050919050565b61034f8161033d565b8114610359575f80fd5b50565b5f8135905061036a81610346565b92915050565b5f6020828403121561038557610384610335565b5b5f6103928482850161035c565b91505092915050565b6103a48161033d565b82525050565b5f81519050919050565b5f82825260208201905092915050565b8281835e5f83830152505050565b5f601f19601f8301169050919050565b5f6103ec826103aa565b6103f681856103b4565b93506104068185602086016103c4565b61040f816103d2565b840191505092915050565b5f60808201905061042d5f83018761039b565b818103602083015261043f81866103e2565b905061044e604083018561039b565b61045b606083018461039b565b95945050505050565b5f6060820190508181035f83015261047c81866103e2565b905061048b602083018561039b565b610498604083018461039b565b949350505050565b5f80fd5b5f80fd5b7f4e487b71000000000000000000000000000000000000000000000000000000005f52604160045260245ffd5b6104de826103d2565b810181811067ffffffffffffffff821117156104fd576104fc6104a8565b5b80604052505050565b5f61050f61032c565b905061051b82826104d5565b919050565b5f67ffffffffffffffff82111561053a576105396104a8565b5b610543826103d2565b9050602081019050919050565b828183375f83830152505050565b5f61057061056b84610520565b610506565b90508281526020810184848401111561058c5761058b6104a4565b5b610597848285610550565b509392505050565b5f82601f8301126105b3576105b26104a0565b5b81356105c384826020860161055e565b91505092915050565b5f805f80608085870312156105e4576105e3610335565b5b5f6105f18782880161035c565b945050602085013567ffffffffffffffff81111561061257610611610339565b5b61061e8782880161059f565b935050604061062f8782880161035c565b92505060606106408782880161035c565b91505092959194509250565b5f60208201905061065f5f83018461039b565b92915050565b5f806040838503121561067b5761067a610335565b5b5f6106888582860161035c565b92505060206106998582860161035c565b9150509250929050565b7f4e487b71000000000000000000000000000000000000000000000000000000005f52602260045260245ffd5b5f60028204905060018216806106e757607f821691505b6020821081036106fa576106f96106a3565b5b50919050565b7f4e487b71000000000000000000000000000000000000000000000000000000005f52601160045260245ffd5b5f6107378261033d565b91507fffffffffffffffffffffffffffffffffffffffffffffffffffffffffffffffff820361076957610768610700565b5b600182019050919050565b5f819050815f5260205f209050919050565b5f6020601f8301049050919050565b5f82821b905092915050565b5f600883026107d07fffffffffffffffffffffffffffffffffffffffffffffffffffffffffffffffff82610795565b6107da8683610795565b95508019841693508086168417925050509392505050565b5f819050919050565b5f61081561081061080b8461033d565b6107f2565b61033d565b9050919050565b5f819050919050565b61082e836107fb565b61084261083a8261081c565b8484546107a1565b825550505050565b5f90565b61085661084a565b610861818484610825565b505050565b5b81811015610884576108795f8261084e565b600181019050610867565b5050565b601f8211156108c95761089a81610774565b6108a384610786565b810160208510156108b2578190505b6108c66108be85610786565b830182610866565b50505b505050565b5f82821c905092915050565b5f6108e95f19846008026108ce565b1980831691505092915050565b5f61090183836108da565b9150826002028217905092915050565b61091a826103aa565b67ffffffffffffffff811115610933576109326104a8565b5b61093d82546106d0565b610948828285610888565b5f60209050601f831160018114610979575f8415610967578287015190505b61097185826108f6565b8655506109d8565b601f19841661098786610774565b5f5b828110156109ae57848901518255600182019150602085019450602081019050610989565b868310156109cb57848901516109c7601f8916826108da565b8355505b6001600288020188555050505b50505050505056fea2646970667358221220580bcf4caa9b5c85f4d2c031a69fd81d95842ce96ab250b9dc2623e17211990b64736f6c634300081a0033",
					"opcodes": "PUSH1 0x80 PUSH1 0x40 MSTORE CALLVALUE DUP1 ISZERO PUSH1 0xE JUMPI PUSH0 DUP1 REVERT JUMPDEST POP PUSH2 0xA16 DUP1 PUSH2 0x1C PUSH0 CODECOPY PUSH0 RETURN INVALID PUSH1 0x80 PUSH1 0x40 MSTORE CALLVALUE DUP1 ISZERO PUSH2 0xF JUMPI PUSH0 DUP1 REVERT JUMPDEST POP PUSH1 0x4 CALLDATASIZE LT PUSH2 0x55 JUMPI PUSH0 CALLDATALOAD PUSH1 0xE0 SHR DUP1 PUSH4 0x7ACC0B20 EQ PUSH2 0x59 JUMPI DUP1 PUSH4 0xB9DB15B4 EQ PUSH2 0x8C JUMPI DUP1 PUSH4 0xC27ED2A2 EQ PUSH2 0xBE JUMPI DUP1 PUSH4 0xE0F6EF87 EQ PUSH2 0xDA JUMPI DUP1 PUSH4 0xFD231411 EQ PUSH2 0xF8 JUMPI JUMPDEST PUSH0 DUP1 REVERT JUMPDEST PUSH2 0x73 PUSH1 0x4 DUP1 CALLDATASIZE SUB DUP2 ADD SWAP1 PUSH2 0x6E SWAP2 SWAP1 PUSH2 0x370 JUMP JUMPDEST PUSH2 0x114 JUMP JUMPDEST PUSH1 0x40 MLOAD PUSH2 0x83 SWAP5 SWAP4 SWAP3 SWAP2 SWAP1 PUSH2 0x41A JUMP JUMPDEST PUSH1 0x40 MLOAD DUP1 SWAP2 SUB SWAP1 RETURN JUMPDEST PUSH2 0xA6 PUSH1 0x4 DUP1 CALLDATASIZE SUB DUP2 ADD SWAP1 PUSH2 0xA1 SWAP2 SWAP1 PUSH2 0x370 JUMP JUMPDEST PUSH2 0x1C5 JUMP JUMPDEST PUSH1 0x40 MLOAD PUSH2 0xB5 SWAP4 SWAP3 SWAP2 SWAP1 PUSH2 0x464 JUMP JUMPDEST PUSH1 0x40 MLOAD DUP1 SWAP2 SUB SWAP1 RETURN JUMPDEST PUSH2 0xD8 PUSH1 0x4 DUP1 CALLDATASIZE SUB DUP2 ADD SWAP1 PUSH2 0xD3 SWAP2 SWAP1 PUSH2 0x5CC JUMP JUMPDEST PUSH2 0x282 JUMP JUMPDEST STOP JUMPDEST PUSH2 0xE2 PUSH2 0x305 JUMP JUMPDEST PUSH1 0x40 MLOAD PUSH2 0xEF SWAP2 SWAP1 PUSH2 0x64C JUMP JUMPDEST PUSH1 0x40 MLOAD DUP1 SWAP2 SUB SWAP1 RETURN JUMPDEST PUSH2 0x112 PUSH1 0x4 DUP1 CALLDATASIZE SUB DUP2 ADD SWAP1 PUSH2 0x10D SWAP2 SWAP1 PUSH2 0x665 JUMP JUMPDEST PUSH2 0x30B JUMP JUMPDEST STOP JUMPDEST PUSH0 PUSH1 0x20 MSTORE DUP1 PUSH0 MSTORE PUSH1 0x40 PUSH0 KECCAK256 PUSH0 SWAP2 POP SWAP1 POP DUP1 PUSH0 ADD SLOAD SWAP1 DUP1 PUSH1 0x1 ADD DUP1 SLOAD PUSH2 0x138 SWAP1 PUSH2 0x6D0 JUMP JUMPDEST DUP1 PUSH1 0x1F ADD PUSH1 0x20 DUP1 SWAP2 DIV MUL PUSH1 0x20 ADD PUSH1 0x40 MLOAD SWAP1 DUP2 ADD PUSH1 0x40 MSTORE DUP1 SWAP3 SWAP2 SWAP1 DUP2 DUP2 MSTORE PUSH1 0x20 ADD DUP3 DUP1 SLOAD PUSH2 0x164 SWAP1 PUSH2 0x6D0 JUMP JUMPDEST DUP1 ISZERO PUSH2 0x1AF JUMPI DUP1 PUSH1 0x1F LT PUSH2 0x186 JUMPI PUSH2 0x100 DUP1 DUP4 SLOAD DIV MUL DUP4 MSTORE SWAP2 PUSH1 0x20 ADD SWAP2 PUSH2 0x1AF JUMP JUMPDEST DUP3 ADD SWAP2 SWAP1 PUSH0 MSTORE PUSH1 0x20 PUSH0 KECCAK256 SWAP1 JUMPDEST DUP2 SLOAD DUP2 MSTORE SWAP1 PUSH1 0x1 ADD SWAP1 PUSH1 0x20 ADD DUP1 DUP4 GT PUSH2 0x192 JUMPI DUP3 SWAP1 SUB PUSH1 0x1F AND DUP3 ADD SWAP2 JUMPDEST POP POP POP POP POP SWAP1 DUP1 PUSH1 0x2 ADD SLOAD SWAP1 DUP1 PUSH1 0x3 ADD SLOAD SWAP1 POP DUP5 JUMP JUMPDEST PUSH1 0x60 PUSH0 DUP1 PUSH0 DUP1 PUSH0 DUP7 DUP2 MSTORE PUSH1 0x20 ADD SWAP1 DUP2 MSTORE PUSH1 0x20 ADD PUSH0 KECCAK256 SWAP1 POP DUP1 PUSH1 0x1 ADD DUP2 PUSH1 0x2 ADD SLOAD DUP3 PUSH1 0x3 ADD SLOAD DUP3 DUP1 SLOAD PUSH2 0x1F6 SWAP1 PUSH2 0x6D0 JUMP JUMPDEST DUP1 PUSH1 0x1F ADD PUSH1 0x20 DUP1 SWAP2 DIV MUL PUSH1 0x20 ADD PUSH1 0x40 MLOAD SWAP1 DUP2 ADD PUSH1 0x40 MSTORE DUP1 SWAP3 SWAP2 SWAP1 DUP2 DUP2 MSTORE PUSH1 0x20 ADD DUP3 DUP1 SLOAD PUSH2 0x222 SWAP1 PUSH2 0x6D0 JUMP JUMPDEST DUP1 ISZERO PUSH2 0x26D JUMPI DUP1 PUSH1 0x1F LT PUSH2 0x244 JUMPI PUSH2 0x100 DUP1 DUP4 SLOAD DIV MUL DUP4 MSTORE SWAP2 PUSH1 0x20 ADD SWAP2 PUSH2 0x26D JUMP JUMPDEST DUP3 ADD SWAP2 SWAP1 PUSH0 MSTORE PUSH1 0x20 PUSH0 KECCAK256 SWAP1 JUMPDEST DUP2 SLOAD DUP2 MSTORE SWAP1 PUSH1 0x1 ADD SWAP1 PUSH1 0x20 ADD DUP1 DUP4 GT PUSH2 0x250 JUMPI DUP3 SWAP1 SUB PUSH1 0x1F AND DUP3 ADD SWAP2 JUMPDEST POP POP POP POP POP SWAP3 POP SWAP4 POP SWAP4 POP SWAP4 POP POP SWAP2 SWAP4 SWAP1 SWAP3 POP JUMP JUMPDEST PUSH1 0x1 PUSH0 DUP2 SLOAD DUP1 SWAP3 SWAP2 SWAP1 PUSH2 0x294 SWAP1 PUSH2 0x72D JUMP JUMPDEST SWAP2 SWAP1 POP SSTORE POP PUSH1 0x40 MLOAD DUP1 PUSH1 0x80 ADD PUSH1 0x40 MSTORE DUP1 DUP6 DUP2 MSTORE PUSH1 0x20 ADD DUP5 DUP2 MSTORE PUSH1 0x20 ADD DUP4 DUP2 MSTORE PUSH1 0x20 ADD DUP3 DUP2 MSTORE POP PUSH0 DUP1 DUP7 DUP2 MSTORE PUSH1 0x20 ADD SWAP1 DUP2 MSTORE PUSH1 0x20 ADD PUSH0 KECCAK256 PUSH0 DUP3 ADD MLOAD DUP2 PUSH0 ADD SSTORE PUSH1 0x20 DUP3 ADD MLOAD DUP2 PUSH1 0x1 ADD SWAP1 DUP2 PUSH2 0x2E7 SWAP2 SWAP1 PUSH2 0x911 JUMP JUMPDEST POP PUSH1 0x40 DUP3 ADD MLOAD DUP2 PUSH1 0x2 ADD SSTORE PUSH1 0x60 DUP3 ADD MLOAD DUP2 PUSH1 0x3 ADD SSTORE SWAP1 POP POP POP POP POP POP JUMP JUMPDEST PUSH1 0x1 SLOAD DUP2 JUMP JUMPDEST PUSH0 DUP1 PUSH0 DUP5 DUP2 MSTORE PUSH1 0x20 ADD SWAP1 DUP2 MSTORE PUSH1 0x20 ADD PUSH0 KECCAK256 SWAP1 POP DUP2 DUP2 PUSH1 0x3 ADD DUP2 SWAP1 SSTORE POP POP POP POP JUMP JUMPDEST PUSH0 PUSH1 0x40 MLOAD SWAP1 POP SWAP1 JUMP JUMPDEST PUSH0 DUP1 REVERT JUMPDEST PUSH0 DUP1 REVERT JUMPDEST PUSH0 DUP2 SWAP1 POP SWAP2 SWAP1 POP JUMP JUMPDEST PUSH2 0x34F DUP2 PUSH2 0x33D JUMP JUMPDEST DUP2 EQ PUSH2 0x359 JUMPI PUSH0 DUP1 REVERT JUMPDEST POP JUMP JUMPDEST PUSH0 DUP2 CALLDATALOAD SWAP1 POP PUSH2 0x36A DUP2 PUSH2 0x346 JUMP JUMPDEST SWAP3 SWAP2 POP POP JUMP JUMPDEST PUSH0 PUSH1 0x20 DUP3 DUP5 SUB SLT ISZERO PUSH2 0x385 JUMPI PUSH2 0x384 PUSH2 0x335 JUMP JUMPDEST JUMPDEST PUSH0 PUSH2 0x392 DUP5 DUP3 DUP6 ADD PUSH2 0x35C JUMP JUMPDEST SWAP2 POP POP SWAP3 SWAP2 POP POP JUMP JUMPDEST PUSH2 0x3A4 DUP2 PUSH2 0x33D JUMP JUMPDEST DUP3 MSTORE POP POP JUMP JUMPDEST PUSH0 DUP2 MLOAD SWAP1 POP SWAP2 SWAP1 POP JUMP JUMPDEST PUSH0 DUP3 DUP3 MSTORE PUSH1 0x20 DUP3 ADD SWAP1 POP SWAP3 SWAP2 POP POP JUMP JUMPDEST DUP3 DUP2 DUP4 MCOPY PUSH0 DUP4 DUP4 ADD MSTORE POP POP POP JUMP JUMPDEST PUSH0 PUSH1 0x1F NOT PUSH1 0x1F DUP4 ADD AND SWAP1 POP SWAP2 SWAP1 POP JUMP JUMPDEST PUSH0 PUSH2 0x3EC DUP3 PUSH2 0x3AA JUMP JUMPDEST PUSH2 0x3F6 DUP2 DUP6 PUSH2 0x3B4 JUMP JUMPDEST SWAP4 POP PUSH2 0x406 DUP2 DUP6 PUSH1 0x20 DUP7 ADD PUSH2 0x3C4 JUMP JUMPDEST PUSH2 0x40F DUP2 PUSH2 0x3D2 JUMP JUMPDEST DUP5 ADD SWAP2 POP POP SWAP3 SWAP2 POP POP JUMP JUMPDEST PUSH0 PUSH1 0x80 DUP3 ADD SWAP1 POP PUSH2 0x42D PUSH0 DUP4 ADD DUP8 PUSH2 0x39B JUMP JUMPDEST DUP2 DUP2 SUB PUSH1 0x20 DUP4 ADD MSTORE PUSH2 0x43F DUP2 DUP7 PUSH2 0x3E2 JUMP JUMPDEST SWAP1 POP PUSH2 0x44E PUSH1 0x40 DUP4 ADD DUP6 PUSH2 0x39B JUMP JUMPDEST PUSH2 0x45B PUSH1 0x60 DUP4 ADD DUP5 PUSH2 0x39B JUMP JUMPDEST SWAP6 SWAP5 POP POP POP POP POP JUMP JUMPDEST PUSH0 PUSH1 0x60 DUP3 ADD SWAP1 POP DUP2 DUP2 SUB PUSH0 DUP4 ADD MSTORE PUSH2 0x47C DUP2 DUP7 PUSH2 0x3E2 JUMP JUMPDEST SWAP1 POP PUSH2 0x48B PUSH1 0x20 DUP4 ADD DUP6 PUSH2 0x39B JUMP JUMPDEST PUSH2 0x498 PUSH1 0x40 DUP4 ADD DUP5 PUSH2 0x39B JUMP JUMPDEST SWAP5 SWAP4 POP POP POP POP JUMP JUMPDEST PUSH0 DUP1 REVERT JUMPDEST PUSH0 DUP1 REVERT JUMPDEST PUSH32 0x4E487B7100000000000000000000000000000000000000000000000000000000 PUSH0 MSTORE PUSH1 0x41 PUSH1 0x4 MSTORE PUSH1 0x24 PUSH0 REVERT JUMPDEST PUSH2 0x4DE DUP3 PUSH2 0x3D2 JUMP JUMPDEST DUP2 ADD DUP2 DUP2 LT PUSH8 0xFFFFFFFFFFFFFFFF DUP3 GT OR ISZERO PUSH2 0x4FD JUMPI PUSH2 0x4FC PUSH2 0x4A8 JUMP JUMPDEST JUMPDEST DUP1 PUSH1 0x40 MSTORE POP POP POP JUMP JUMPDEST PUSH0 PUSH2 0x50F PUSH2 0x32C JUMP JUMPDEST SWAP1 POP PUSH2 0x51B DUP3 DUP3 PUSH2 0x4D5 JUMP JUMPDEST SWAP2 SWAP1 POP JUMP JUMPDEST PUSH0 PUSH8 0xFFFFFFFFFFFFFFFF DUP3 GT ISZERO PUSH2 0x53A JUMPI PUSH2 0x539 PUSH2 0x4A8 JUMP JUMPDEST JUMPDEST PUSH2 0x543 DUP3 PUSH2 0x3D2 JUMP JUMPDEST SWAP1 POP PUSH1 0x20 DUP2 ADD SWAP1 POP SWAP2 SWAP1 POP JUMP JUMPDEST DUP3 DUP2 DUP4 CALLDATACOPY PUSH0 DUP4 DUP4 ADD MSTORE POP POP POP JUMP JUMPDEST PUSH0 PUSH2 0x570 PUSH2 0x56B DUP5 PUSH2 0x520 JUMP JUMPDEST PUSH2 0x506 JUMP JUMPDEST SWAP1 POP DUP3 DUP2 MSTORE PUSH1 0x20 DUP2 ADD DUP5 DUP5 DUP5 ADD GT ISZERO PUSH2 0x58C JUMPI PUSH2 0x58B PUSH2 0x4A4 JUMP JUMPDEST JUMPDEST PUSH2 0x597 DUP5 DUP3 DUP6 PUSH2 0x550 JUMP JUMPDEST POP SWAP4 SWAP3 POP POP POP JUMP JUMPDEST PUSH0 DUP3 PUSH1 0x1F DUP4 ADD SLT PUSH2 0x5B3 JUMPI PUSH2 0x5B2 PUSH2 0x4A0 JUMP JUMPDEST JUMPDEST DUP2 CALLDATALOAD PUSH2 0x5C3 DUP5 DUP3 PUSH1 0x20 DUP7 ADD PUSH2 0x55E JUMP JUMPDEST SWAP2 POP POP SWAP3 SWAP2 POP POP JUMP JUMPDEST PUSH0 DUP1 PUSH0 DUP1 PUSH1 0x80 DUP6 DUP8 SUB SLT ISZERO PUSH2 0x5E4 JUMPI PUSH2 0x5E3 PUSH2 0x335 JUMP JUMPDEST JUMPDEST PUSH0 PUSH2 0x5F1 DUP8 DUP3 DUP9 ADD PUSH2 0x35C JUMP JUMPDEST SWAP5 POP POP PUSH1 0x20 DUP6 ADD CALLDATALOAD PUSH8 0xFFFFFFFFFFFFFFFF DUP2 GT ISZERO PUSH2 0x612 JUMPI PUSH2 0x611 PUSH2 0x339 JUMP JUMPDEST JUMPDEST PUSH2 0x61E DUP8 DUP3 DUP9 ADD PUSH2 0x59F JUMP JUMPDEST SWAP4 POP POP PUSH1 0x40 PUSH2 0x62F DUP8 DUP3 DUP9 ADD PUSH2 0x35C JUMP JUMPDEST SWAP3 POP POP PUSH1 0x60 PUSH2 0x640 DUP8 DUP3 DUP9 ADD PUSH2 0x35C JUMP JUMPDEST SWAP2 POP POP SWAP3 SWAP6 SWAP2 SWAP5 POP SWAP3 POP JUMP JUMPDEST PUSH0 PUSH1 0x20 DUP3 ADD SWAP1 POP PUSH2 0x65F PUSH0 DUP4 ADD DUP5 PUSH2 0x39B JUMP JUMPDEST SWAP3 SWAP2 POP POP JUMP JUMPDEST PUSH0 DUP1 PUSH1 0x40 DUP4 DUP6 SUB SLT ISZERO PUSH2 0x67B JUMPI PUSH2 0x67A PUSH2 0x335 JUMP JUMPDEST JUMPDEST PUSH0 PUSH2 0x688 DUP6 DUP3 DUP7 ADD PUSH2 0x35C JUMP JUMPDEST SWAP3 POP POP PUSH1 0x20 PUSH2 0x699 DUP6 DUP3 DUP7 ADD PUSH2 0x35C JUMP JUMPDEST SWAP2 POP POP SWAP3 POP SWAP3 SWAP1 POP JUMP JUMPDEST PUSH32 0x4E487B7100000000000000000000000000000000000000000000000000000000 PUSH0 MSTORE PUSH1 0x22 PUSH1 0x4 MSTORE PUSH1 0x24 PUSH0 REVERT JUMPDEST PUSH0 PUSH1 0x2 DUP3 DIV SWAP1 POP PUSH1 0x1 DUP3 AND DUP1 PUSH2 0x6E7 JUMPI PUSH1 0x7F DUP3 AND SWAP2 POP JUMPDEST PUSH1 0x20 DUP3 LT DUP2 SUB PUSH2 0x6FA JUMPI PUSH2 0x6F9 PUSH2 0x6A3 JUMP JUMPDEST JUMPDEST POP SWAP2 SWAP1 POP JUMP JUMPDEST PUSH32 0x4E487B7100000000000000000000000000000000000000000000000000000000 PUSH0 MSTORE PUSH1 0x11 PUSH1 0x4 MSTORE PUSH1 0x24 PUSH0 REVERT JUMPDEST PUSH0 PUSH2 0x737 DUP3 PUSH2 0x33D JUMP JUMPDEST SWAP2 POP PUSH32 0xFFFFFFFFFFFFFFFFFFFFFFFFFFFFFFFFFFFFFFFFFFFFFFFFFFFFFFFFFFFFFFFF DUP3 SUB PUSH2 0x769 JUMPI PUSH2 0x768 PUSH2 0x700 JUMP JUMPDEST JUMPDEST PUSH1 0x1 DUP3 ADD SWAP1 POP SWAP2 SWAP1 POP JUMP JUMPDEST PUSH0 DUP2 SWAP1 POP DUP2 PUSH0 MSTORE PUSH1 0x20 PUSH0 KECCAK256 SWAP1 POP SWAP2 SWAP1 POP JUMP JUMPDEST PUSH0 PUSH1 0x20 PUSH1 0x1F DUP4 ADD DIV SWAP1 POP SWAP2 SWAP1 POP JUMP JUMPDEST PUSH0 DUP3 DUP3 SHL SWAP1 POP SWAP3 SWAP2 POP POP JUMP JUMPDEST PUSH0 PUSH1 0x8 DUP4 MUL PUSH2 0x7D0 PUSH32 0xFFFFFFFFFFFFFFFFFFFFFFFFFFFFFFFFFFFFFFFFFFFFFFFFFFFFFFFFFFFFFFFF DUP3 PUSH2 0x795 JUMP JUMPDEST PUSH2 0x7DA DUP7 DUP4 PUSH2 0x795 JUMP JUMPDEST SWAP6 POP DUP1 NOT DUP5 AND SWAP4 POP DUP1 DUP7 AND DUP5 OR SWAP3 POP POP POP SWAP4 SWAP3 POP POP POP JUMP JUMPDEST PUSH0 DUP2 SWAP1 POP SWAP2 SWAP1 POP JUMP JUMPDEST PUSH0 PUSH2 0x815 PUSH2 0x810 PUSH2 0x80B DUP5 PUSH2 0x33D JUMP JUMPDEST PUSH2 0x7F2 JUMP JUMPDEST PUSH2 0x33D JUMP JUMPDEST SWAP1 POP SWAP2 SWAP1 POP JUMP JUMPDEST PUSH0 DUP2 SWAP1 POP SWAP2 SWAP1 POP JUMP JUMPDEST PUSH2 0x82E DUP4 PUSH2 0x7FB JUMP JUMPDEST PUSH2 0x842 PUSH2 0x83A DUP3 PUSH2 0x81C JUMP JUMPDEST DUP5 DUP5 SLOAD PUSH2 0x7A1 JUMP JUMPDEST DUP3 SSTORE POP POP POP POP JUMP JUMPDEST PUSH0 SWAP1 JUMP JUMPDEST PUSH2 0x856 PUSH2 0x84A JUMP JUMPDEST PUSH2 0x861 DUP2 DUP5 DUP5 PUSH2 0x825 JUMP JUMPDEST POP POP POP JUMP JUMPDEST JUMPDEST DUP2 DUP2 LT ISZERO PUSH2 0x884 JUMPI PUSH2 0x879 PUSH0 DUP3 PUSH2 0x84E JUMP JUMPDEST PUSH1 0x1 DUP2 ADD SWAP1 POP PUSH2 0x867 JUMP JUMPDEST POP POP JUMP JUMPDEST PUSH1 0x1F DUP3 GT ISZERO PUSH2 0x8C9 JUMPI PUSH2 0x89A DUP2 PUSH2 0x774 JUMP JUMPDEST PUSH2 0x8A3 DUP5 PUSH2 0x786 JUMP JUMPDEST DUP2 ADD PUSH1 0x20 DUP6 LT ISZERO PUSH2 0x8B2 JUMPI DUP2 SWAP1 POP JUMPDEST PUSH2 0x8C6 PUSH2 0x8BE DUP6 PUSH2 0x786 JUMP JUMPDEST DUP4 ADD DUP3 PUSH2 0x866 JUMP JUMPDEST POP POP JUMPDEST POP POP POP JUMP JUMPDEST PUSH0 DUP3 DUP3 SHR SWAP1 POP SWAP3 SWAP2 POP POP JUMP JUMPDEST PUSH0 PUSH2 0x8E9 PUSH0 NOT DUP5 PUSH1 0x8 MUL PUSH2 0x8CE JUMP JUMPDEST NOT DUP1 DUP4 AND SWAP2 POP POP SWAP3 SWAP2 POP POP JUMP JUMPDEST PUSH0 PUSH2 0x901 DUP4 DUP4 PUSH2 0x8DA JUMP JUMPDEST SWAP2 POP DUP3 PUSH1 0x2 MUL DUP3 OR SWAP1 POP SWAP3 SWAP2 POP POP JUMP JUMPDEST PUSH2 0x91A DUP3 PUSH2 0x3AA JUMP JUMPDEST PUSH8 0xFFFFFFFFFFFFFFFF DUP2 GT ISZERO PUSH2 0x933 JUMPI PUSH2 0x932 PUSH2 0x4A8 JUMP JUMPDEST JUMPDEST PUSH2 0x93D DUP3 SLOAD PUSH2 0x6D0 JUMP JUMPDEST PUSH2 0x948 DUP3 DUP3 DUP6 PUSH2 0x888 JUMP JUMPDEST PUSH0 PUSH1 0x20 SWAP1 POP PUSH1 0x1F DUP4 GT PUSH1 0x1 DUP2 EQ PUSH2 0x979 JUMPI PUSH0 DUP5 ISZERO PUSH2 0x967 JUMPI DUP3 DUP8 ADD MLOAD SWAP1 POP JUMPDEST PUSH2 0x971 DUP6 DUP3 PUSH2 0x8F6 JUMP JUMPDEST DUP7 SSTORE POP PUSH2 0x9D8 JUMP JUMPDEST PUSH1 0x1F NOT DUP5 AND PUSH2 0x987 DUP7 PUSH2 0x774 JUMP JUMPDEST PUSH0 JUMPDEST DUP3 DUP2 LT ISZERO PUSH2 0x9AE JUMPI DUP5 DUP10 ADD MLOAD DUP3 SSTORE PUSH1 0x1 DUP3 ADD SWAP2 POP PUSH1 0x20 DUP6 ADD SWAP5 POP PUSH1 0x20 DUP2 ADD SWAP1 POP PUSH2 0x989 JUMP JUMPDEST DUP7 DUP4 LT ISZERO PUSH2 0x9CB JUMPI DUP5 DUP10 ADD MLOAD PUSH2 0x9C7 PUSH1 0x1F DUP10 AND DUP3 PUSH2 0x8DA JUMP JUMPDEST DUP4 SSTORE POP JUMPDEST PUSH1 0x1 PUSH1 0x2 DUP9 MUL ADD DUP9 SSTORE POP POP POP JUMPDEST POP POP POP POP POP POP JUMP INVALID LOG2 PUSH5 0x6970667358 0x22 SLT KECCAK256 PC SIGNEXTEND 0xCF 0x4C 0xAA SWAP12 TLOAD DUP6 DELEGATECALL 0xD2 0xC0 BALANCE 0xA6 SWAP16 0xD8 SAR SWAP6 DUP5 0x2C 0xE9 PUSH11 0xB250B9DC2623E17211990B PUSH5 0x736F6C6343 STOP ADDMOD BYTE STOP CALLER "
				},
				"gasEstimates": {
					"creation": {
						"codeDepositCost": "516400",
						"executionCost": "547",
						"totalCost": "516947"
					},
					"external": {
						"addProduct(uint256,string,uint256,uint256)": "infinite",
						"getProduct(uint256)": "infinite",
						"productCount()": "2469",
						"products(uint256)": "infinite",
						"updateProductStock(uint256,uint256)": "infinite"
					}
				},
				"methodIdentifiers": {
					"addProduct(uint256,string,uint256,uint256)": "c27ed2a2",
					"getProduct(uint256)": "b9db15b4",
					"productCount()": "e0f6ef87",
					"products(uint256)": "7acc0b20",
					"updateProductStock(uint256,uint256)": "fd231411"
				}
			},
			"storageLayout": {
				"storage": [
					{
						"astId": 97,
						"contract": "contracts/Struct.sol:ProductsExample",
						"label": "products",
						"offset": 0,
						"slot": "0",
						"type": "t_mapping(t_uint256,t_struct(Product)92_storage)"
					},
					{
						"astId": 99,
						"contract": "contracts/Struct.sol:ProductsExample",
						"label": "productCount",
						"offset": 0,
						"slot": "1",
						"type": "t_uint256"
					}
				],
				"types": {
					"t_mapping(t_uint256,t_struct(Product)92_storage)": {
						"encoding": "mapping",
						"key": "t_uint256",
						"label": "mapping(uint256 => struct ProductsExample.Product)",
						"numberOfBytes": "32",
						"value": "t_struct(Product)92_storage"
					},
					"t_string_storage": {
						"encoding": "bytes",
						"label": "string",
						"numberOfBytes": "32"
					},
					"t_struct(Product)92_storage": {
						"encoding": "inplace",
						"label": "struct ProductsExample.Product",
						"members": [
							{
								"astId": 85,
								"contract": "contracts/Struct.sol:ProductsExample",
								"label": "id",
								"offset": 0,
								"slot": "0",
								"type": "t_uint256"
							},
							{
								"astId": 87,
								"contract": "contracts/Struct.sol:ProductsExample",
								"label": "name",
								"offset": 0,
								"slot": "1",
								"type": "t_string_storage"
							},
							{
								"astId": 89,
								"contract": "contracts/Struct.sol:ProductsExample",
								"label": "price",
								"offset": 0,
								"slot": "2",
								"type": "t_uint256"
							},
							{
								"astId": 91,
								"contract": "contracts/Struct.sol:ProductsExample",
								"label": "stock",
								"offset": 0,
								"slot": "3",
								"type": "t_uint256"
							}
						],
						"numberOfBytes": "128"
					},
					"t_uint256": {
						"encoding": "inplace",
						"label": "uint256",
						"numberOfBytes": "32"
					}
				}
			},
			"userdoc": {
				"kind": "user",
				"methods": {},
				"version": 1
			}
		}
	}
}