{
	"contracts/03/ERC165.sol": {
		"ERC165Registry": {
			"abi": [
				{
					"inputs": [],
					"stateMutability": "nonpayable",
					"type": "constructor"
				},
				{
					"inputs": [
						{
							"internalType": "bytes4",
							"name": "interfaceId",
							"type": "bytes4"
						}
					],
					"name": "register",
					"outputs": [],
					"stateMutability": "nonpayable",
					"type": "function"
				},
				{
					"inputs": [
						{
							"internalType": "bytes4",
							"name": "interfaceId",
							"type": "bytes4"
						}
					],
					"name": "remove",
					"outputs": [],
					"stateMutability": "nonpayable",
					"type": "function"
				},
				{
					"inputs": [
						{
							"internalType": "bytes4",
							"name": "interfaceId",
							"type": "bytes4"
						}
					],
					"name": "supportsInterface",
					"outputs": [
						{
							"internalType": "bool",
							"name": "",
							"type": "bool"
						}
					],
					"stateMutability": "view",
					"type": "function"
				}
			],
			"devdoc": {
				"kind": "dev",
				"methods": {},
				"version": 1
			},
			"evm": {
				"assembly": "    /* \"contracts/03/ERC165.sol\":455:1769  contract ERC165Registry is IERC165 {... */\n  mstore(0x40, 0x80)\n    /* \"contracts/03/ERC165.sol\":621:680  constructor() {... */\n  callvalue\n  dup1\n  iszero\n  tag_1\n  jumpi\n  0x00\n  dup1\n  revert\ntag_1:\n  pop\n    /* \"contracts/03/ERC165.sol\":644:673  register(INTERFACE_ERC165_ID) */\n  tag_4\n    /* \"contracts/03/ERC165.sol\":543:553  0x01ffc9a7 */\n  0x01ffc9a7\n    /* \"contracts/03/ERC165.sol\":653:672  INTERFACE_ERC165_ID */\n  0xe0\n  shl\n    /* \"contracts/03/ERC165.sol\":644:652  register */\n  shl(0x20, tag_5)\n    /* \"contracts/03/ERC165.sol\":644:673  register(INTERFACE_ERC165_ID) */\n  0x20\n  shr\n  jump\t// in\ntag_4:\n    /* \"contracts/03/ERC165.sol\":455:1769  contract ERC165Registry is IERC165 {... */\n  jump(tag_6)\n    /* \"contracts/03/ERC165.sol\":1345:1545  function register(bytes4 interfaceId) public {... */\ntag_5:\n    /* \"contracts/03/ERC165.sol\":1409:1439  supportsInterface(interfaceId) */\n  tag_8\n    /* \"contracts/03/ERC165.sol\":1427:1438  interfaceId */\n  dup2\n    /* \"contracts/03/ERC165.sol\":1409:1426  supportsInterface */\n  shl(0x20, tag_9)\n    /* \"contracts/03/ERC165.sol\":1409:1439  supportsInterface(interfaceId) */\n  0x20\n  shr\n  jump\t// in\ntag_8:\n    /* \"contracts/03/ERC165.sol\":1408:1439  !supportsInterface(interfaceId) */\n  iszero\n    /* \"contracts/03/ERC165.sol\":1400:1487  require(!supportsInterface(interfaceId), \"Registering already registered interface id\") */\n  tag_10\n  jumpi\n  mload(0x40)\n  0x08c379a000000000000000000000000000000000000000000000000000000000\n  dup2\n  mstore\n  0x04\n  add\n  tag_11\n  swap1\n  tag_12\n  jump\t// in\ntag_11:\n  mload(0x40)\n  dup1\n  swap2\n  sub\n  swap1\n  revert\ntag_10:\n    /* \"contracts/03/ERC165.sol\":1534:1538  true */\n  0x01\n    /* \"contracts/03/ERC165.sol\":1497:1518  _supportedInterfaceId */\n  0x00\n    /* \"contracts/03/ERC165.sol\":1497:1531  _supportedInterfaceId[interfaceId] */\n  dup1\n    /* \"contracts/03/ERC165.sol\":1519:1530  interfaceId */\n  dup4\n    /* \"contracts/03/ERC165.sol\":1497:1531  _supportedInterfaceId[interfaceId] */\n  not(0xffffffffffffffffffffffffffffffffffffffffffffffffffffffff)\n  and\n  not(0xffffffffffffffffffffffffffffffffffffffffffffffffffffffff)\n  and\n  dup2\n  mstore\n  0x20\n  add\n  swap1\n  dup2\n  mstore\n  0x20\n  add\n  0x00\n  keccak256\n  0x00\n    /* \"contracts/03/ERC165.sol\":1497:1538  _supportedInterfaceId[interfaceId] = true */\n  0x0100\n  exp\n  dup2\n  sload\n  dup2\n  0xff\n  mul\n  not\n  and\n  swap1\n  dup4\n  iszero\n  iszero\n  mul\n  or\n  swap1\n  sstore\n  pop\n    /* \"contracts/03/ERC165.sol\":1345:1545  function register(bytes4 interfaceId) public {... */\n  pop\n  jump\t// out\n    /* \"contracts/03/ERC165.sol\":1130:1339  function supportsInterface(bytes4 interfaceId) public view override returns (bool) {... */\ntag_9:\n    /* \"contracts/03/ERC165.sol\":1207:1211  bool */\n  0x00\n    /* \"contracts/03/ERC165.sol\":1223:1235  bool support */\n  dup1\n    /* \"contracts/03/ERC165.sol\":1238:1259  _supportedInterfaceId */\n  0x00\n    /* \"contracts/03/ERC165.sol\":1238:1272  _supportedInterfaceId[interfaceId] */\n  dup1\n    /* \"contracts/03/ERC165.sol\":1260:1271  interfaceId */\n  dup5\n    /* \"contracts/03/ERC165.sol\":1238:1272  _supportedInterfaceId[interfaceId] */\n  not(0xffffffffffffffffffffffffffffffffffffffffffffffffffffffff)\n  and\n  not(0xffffffffffffffffffffffffffffffffffffffffffffffffffffffff)\n  and\n  dup2\n  mstore\n  0x20\n  add\n  swap1\n  dup2\n  mstore\n  0x20\n  add\n  0x00\n  keccak256\n  0x00\n  swap1\n  sload\n  swap1\n  0x0100\n  exp\n  swap1\n  div\n  0xff\n  and\n    /* \"contracts/03/ERC165.sol\":1223:1272  bool support = _supportedInterfaceId[interfaceId] */\n  swap1\n  pop\n    /* \"contracts/03/ERC165.sol\":1325:1332  support */\n  dup1\n    /* \"contracts/03/ERC165.sol\":1318:1332  return support */\n  swap2\n  pop\n  pop\n    /* \"contracts/03/ERC165.sol\":1130:1339  function supportsInterface(bytes4 interfaceId) public view override returns (bool) {... */\n  swap2\n  swap1\n  pop\n  jump\t// out\n    /* \"#utility.yul\":7:176   */\ntag_14:\n    /* \"#utility.yul\":91:102   */\n  0x00\n    /* \"#utility.yul\":125:131   */\n  dup3\n    /* \"#utility.yul\":120:123   */\n  dup3\n    /* \"#utility.yul\":113:132   */\n  mstore\n    /* \"#utility.yul\":165:169   */\n  0x20\n    /* \"#utility.yul\":160:163   */\n  dup3\n    /* \"#utility.yul\":156:170   */\n  add\n    /* \"#utility.yul\":141:170   */\n  swap1\n  pop\n    /* \"#utility.yul\":7:176   */\n  swap3\n  swap2\n  pop\n  pop\n  jump\t// out\n    /* \"#utility.yul\":182:412   */\ntag_15:\n    /* \"#utility.yul\":322:356   */\n  0x5265676973746572696e6720616c726561647920726567697374657265642069\n    /* \"#utility.yul\":318:319   */\n  0x00\n    /* \"#utility.yul\":310:316   */\n  dup3\n    /* \"#utility.yul\":306:320   */\n  add\n    /* \"#utility.yul\":299:357   */\n  mstore\n    /* \"#utility.yul\":391:404   */\n  0x6e74657266616365206964000000000000000000000000000000000000000000\n    /* \"#utility.yul\":386:388   */\n  0x20\n    /* \"#utility.yul\":378:384   */\n  dup3\n    /* \"#utility.yul\":374:389   */\n  add\n    /* \"#utility.yul\":367:405   */\n  mstore\n    /* \"#utility.yul\":182:412   */\n  pop\n  jump\t// out\n    /* \"#utility.yul\":418:784   */\ntag_16:\n    /* \"#utility.yul\":560:563   */\n  0x00\n    /* \"#utility.yul\":581:648   */\n  tag_21\n    /* \"#utility.yul\":645:647   */\n  0x2b\n    /* \"#utility.yul\":640:643   */\n  dup4\n    /* \"#utility.yul\":581:648   */\n  tag_14\n  jump\t// in\ntag_21:\n    /* \"#utility.yul\":574:648   */\n  swap2\n  pop\n    /* \"#utility.yul\":657:750   */\n  tag_22\n    /* \"#utility.yul\":746:749   */\n  dup3\n    /* \"#utility.yul\":657:750   */\n  tag_15\n  jump\t// in\ntag_22:\n    /* \"#utility.yul\":775:777   */\n  0x40\n    /* \"#utility.yul\":770:773   */\n  dup3\n    /* \"#utility.yul\":766:778   */\n  add\n    /* \"#utility.yul\":759:778   */\n  swap1\n  pop\n    /* \"#utility.yul\":418:784   */\n  swap2\n  swap1\n  pop\n  jump\t// out\n    /* \"#utility.yul\":790:1209   */\ntag_12:\n    /* \"#utility.yul\":956:960   */\n  0x00\n    /* \"#utility.yul\":994:996   */\n  0x20\n    /* \"#utility.yul\":983:992   */\n  dup3\n    /* \"#utility.yul\":979:997   */\n  add\n    /* \"#utility.yul\":971:997   */\n  swap1\n  pop\n    /* \"#utility.yul\":1043:1052   */\n  dup2\n    /* \"#utility.yul\":1037:1041   */\n  dup2\n    /* \"#utility.yul\":1033:1053   */\n  sub\n    /* \"#utility.yul\":1029:1030   */\n  0x00\n    /* \"#utility.yul\":1018:1027   */\n  dup4\n    /* \"#utility.yul\":1014:1031   */\n  add\n    /* \"#utility.yul\":1007:1054   */\n  mstore\n    /* \"#utility.yul\":1071:1202   */\n  tag_24\n    /* \"#utility.yul\":1197:1201   */\n  dup2\n    /* \"#utility.yul\":1071:1202   */\n  tag_16\n  jump\t// in\ntag_24:\n    /* \"#utility.yul\":1063:1202   */\n  swap1\n  pop\n    /* \"#utility.yul\":790:1209   */\n  swap2\n  swap1\n  pop\n  jump\t// out\n    /* \"contracts/03/ERC165.sol\":455:1769  contract ERC165Registry is IERC165 {... */\ntag_6:\n  dataSize(sub_0)\n  dup1\n  dataOffset(sub_0)\n  0x00\n  codecopy\n  0x00\n  return\nstop\n\nsub_0: assembly {\n        /* \"contracts/03/ERC165.sol\":455:1769  contract ERC165Registry is IERC165 {... */\n      mstore(0x40, 0x80)\n      callvalue\n      dup1\n      iszero\n      tag_1\n      jumpi\n      0x00\n      dup1\n      revert\n    tag_1:\n      pop\n      jumpi(tag_2, lt(calldatasize, 0x04))\n      shr(0xe0, calldataload(0x00))\n      dup1\n      0x01ffc9a7\n      eq\n      tag_3\n      jumpi\n      dup1\n      0xd6fb295f\n      eq\n      tag_4\n      jumpi\n      dup1\n      0xe7453ebc\n      eq\n      tag_5\n      jumpi\n    tag_2:\n      0x00\n      dup1\n      revert\n        /* \"contracts/03/ERC165.sol\":1130:1339  function supportsInterface(bytes4 interfaceId) public view override returns (bool) {... */\n    tag_3:\n      tag_6\n      0x04\n      dup1\n      calldatasize\n      sub\n      dup2\n      add\n      swap1\n      tag_7\n      swap2\n      swap1\n      tag_8\n      jump\t// in\n    tag_7:\n      tag_9\n      jump\t// in\n    tag_6:\n      mload(0x40)\n      tag_10\n      swap2\n      swap1\n      tag_11\n      jump\t// in\n    tag_10:\n      mload(0x40)\n      dup1\n      swap2\n      sub\n      swap1\n      return\n        /* \"contracts/03/ERC165.sol\":1345:1545  function register(bytes4 interfaceId) public {... */\n    tag_4:\n      tag_12\n      0x04\n      dup1\n      calldatasize\n      sub\n      dup2\n      add\n      swap1\n      tag_13\n      swap2\n      swap1\n      tag_8\n      jump\t// in\n    tag_13:\n      tag_14\n      jump\t// in\n    tag_12:\n      stop\n        /* \"contracts/03/ERC165.sol\":1551:1766  function remove(bytes4 interfaceId) public {... */\n    tag_5:\n      tag_15\n      0x04\n      dup1\n      calldatasize\n      sub\n      dup2\n      add\n      swap1\n      tag_16\n      swap2\n      swap1\n      tag_8\n      jump\t// in\n    tag_16:\n      tag_17\n      jump\t// in\n    tag_15:\n      stop\n        /* \"contracts/03/ERC165.sol\":1130:1339  function supportsInterface(bytes4 interfaceId) public view override returns (bool) {... */\n    tag_9:\n        /* \"contracts/03/ERC165.sol\":1207:1211  bool */\n      0x00\n        /* \"contracts/03/ERC165.sol\":1223:1235  bool support */\n      dup1\n        /* \"contracts/03/ERC165.sol\":1238:1259  _supportedInterfaceId */\n      0x00\n        /* \"contracts/03/ERC165.sol\":1238:1272  _supportedInterfaceId[interfaceId] */\n      dup1\n        /* \"contracts/03/ERC165.sol\":1260:1271  interfaceId */\n      dup5\n        /* \"contracts/03/ERC165.sol\":1238:1272  _supportedInterfaceId[interfaceId] */\n      not(0xffffffffffffffffffffffffffffffffffffffffffffffffffffffff)\n      and\n      not(0xffffffffffffffffffffffffffffffffffffffffffffffffffffffff)\n      and\n      dup2\n      mstore\n      0x20\n      add\n      swap1\n      dup2\n      mstore\n      0x20\n      add\n      0x00\n      keccak256\n      0x00\n      swap1\n      sload\n      swap1\n      0x0100\n      exp\n      swap1\n      div\n      0xff\n      and\n        /* \"contracts/03/ERC165.sol\":1223:1272  bool support = _supportedInterfaceId[interfaceId] */\n      swap1\n      pop\n        /* \"contracts/03/ERC165.sol\":1325:1332  support */\n      dup1\n        /* \"contracts/03/ERC165.sol\":1318:1332  return support */\n      swap2\n      pop\n      pop\n        /* \"contracts/03/ERC165.sol\":1130:1339  function supportsInterface(bytes4 interfaceId) public view override returns (bool) {... */\n      swap2\n      swap1\n      pop\n      jump\t// out\n        /* \"contracts/03/ERC165.sol\":1345:1545  function register(bytes4 interfaceId) public {... */\n    tag_14:\n        /* \"contracts/03/ERC165.sol\":1409:1439  supportsInterface(interfaceId) */\n      tag_20\n        /* \"contracts/03/ERC165.sol\":1427:1438  interfaceId */\n      dup2\n        /* \"contracts/03/ERC165.sol\":1409:1426  supportsInterface */\n      tag_9\n        /* \"contracts/03/ERC165.sol\":1409:1439  supportsInterface(interfaceId) */\n      jump\t// in\n    tag_20:\n        /* \"contracts/03/ERC165.sol\":1408:1439  !supportsInterface(interfaceId) */\n      iszero\n        /* \"contracts/03/ERC165.sol\":1400:1487  require(!supportsInterface(interfaceId), \"Registering already registered interface id\") */\n      tag_21\n      jumpi\n      mload(0x40)\n      0x08c379a000000000000000000000000000000000000000000000000000000000\n      dup2\n      mstore\n      0x04\n      add\n      tag_22\n      swap1\n      tag_23\n      jump\t// in\n    tag_22:\n      mload(0x40)\n      dup1\n      swap2\n      sub\n      swap1\n      revert\n    tag_21:\n        /* \"contracts/03/ERC165.sol\":1534:1538  true */\n      0x01\n        /* \"contracts/03/ERC165.sol\":1497:1518  _supportedInterfaceId */\n      0x00\n        /* \"contracts/03/ERC165.sol\":1497:1531  _supportedInterfaceId[interfaceId] */\n      dup1\n        /* \"contracts/03/ERC165.sol\":1519:1530  interfaceId */\n      dup4\n        /* \"contracts/03/ERC165.sol\":1497:1531  _supportedInterfaceId[interfaceId] */\n      not(0xffffffffffffffffffffffffffffffffffffffffffffffffffffffff)\n      and\n      not(0xffffffffffffffffffffffffffffffffffffffffffffffffffffffff)\n      and\n      dup2\n      mstore\n      0x20\n      add\n      swap1\n      dup2\n      mstore\n      0x20\n      add\n      0x00\n      keccak256\n      0x00\n        /* \"contracts/03/ERC165.sol\":1497:1538  _supportedInterfaceId[interfaceId] = true */\n      0x0100\n      exp\n      dup2\n      sload\n      dup2\n      0xff\n      mul\n      not\n      and\n      swap1\n      dup4\n      iszero\n      iszero\n      mul\n      or\n      swap1\n      sstore\n      pop\n        /* \"contracts/03/ERC165.sol\":1345:1545  function register(bytes4 interfaceId) public {... */\n      pop\n      jump\t// out\n        /* \"contracts/03/ERC165.sol\":1551:1766  function remove(bytes4 interfaceId) public {... */\n    tag_17:\n        /* \"contracts/03/ERC165.sol\":1612:1633  _supportedInterfaceId */\n      0x00\n        /* \"contracts/03/ERC165.sol\":1612:1646  _supportedInterfaceId[interfaceId] */\n      dup1\n        /* \"contracts/03/ERC165.sol\":1634:1645  interfaceId */\n      dup3\n        /* \"contracts/03/ERC165.sol\":1612:1646  _supportedInterfaceId[interfaceId] */\n      not(0xffffffffffffffffffffffffffffffffffffffffffffffffffffffff)\n      and\n      not(0xffffffffffffffffffffffffffffffffffffffffffffffffffffffff)\n      and\n      dup2\n      mstore\n      0x20\n      add\n      swap1\n      dup2\n      mstore\n      0x20\n      add\n      0x00\n      keccak256\n      0x00\n      swap1\n      sload\n      swap1\n      0x0100\n      exp\n      swap1\n      div\n      0xff\n      and\n        /* \"contracts/03/ERC165.sol\":1604:1692  require(_supportedInterfaceId[interfaceId], \"Unregistering not-registered interface id\") */\n      tag_25\n      jumpi\n      mload(0x40)\n      0x08c379a000000000000000000000000000000000000000000000000000000000\n      dup2\n      mstore\n      0x04\n      add\n      tag_26\n      swap1\n      tag_27\n      jump\t// in\n    tag_26:\n      mload(0x40)\n      dup1\n      swap2\n      sub\n      swap1\n      revert\n    tag_25:\n        /* \"contracts/03/ERC165.sol\":1709:1730  _supportedInterfaceId */\n      0x00\n        /* \"contracts/03/ERC165.sol\":1709:1743  _supportedInterfaceId[interfaceId] */\n      dup1\n        /* \"contracts/03/ERC165.sol\":1731:1742  interfaceId */\n      dup3\n        /* \"contracts/03/ERC165.sol\":1709:1743  _supportedInterfaceId[interfaceId] */\n      not(0xffffffffffffffffffffffffffffffffffffffffffffffffffffffff)\n      and\n      not(0xffffffffffffffffffffffffffffffffffffffffffffffffffffffff)\n      and\n      dup2\n      mstore\n      0x20\n      add\n      swap1\n      dup2\n      mstore\n      0x20\n      add\n      0x00\n      keccak256\n      0x00\n        /* \"contracts/03/ERC165.sol\":1702:1743  delete _supportedInterfaceId[interfaceId] */\n      0x0100\n      exp\n      dup2\n      sload\n      swap1\n      0xff\n      mul\n      not\n      and\n      swap1\n      sstore\n        /* \"contracts/03/ERC165.sol\":1551:1766  function remove(bytes4 interfaceId) public {... */\n      pop\n      jump\t// out\n        /* \"#utility.yul\":88:205   */\n    tag_29:\n        /* \"#utility.yul\":197:198   */\n      0x00\n        /* \"#utility.yul\":194:195   */\n      dup1\n        /* \"#utility.yul\":187:199   */\n      revert\n        /* \"#utility.yul\":334:483   */\n    tag_31:\n        /* \"#utility.yul\":370:377   */\n      0x00\n        /* \"#utility.yul\":410:476   */\n      0xffffffff00000000000000000000000000000000000000000000000000000000\n        /* \"#utility.yul\":403:408   */\n      dup3\n        /* \"#utility.yul\":399:477   */\n      and\n        /* \"#utility.yul\":388:477   */\n      swap1\n      pop\n        /* \"#utility.yul\":334:483   */\n      swap2\n      swap1\n      pop\n      jump\t// out\n        /* \"#utility.yul\":489:609   */\n    tag_32:\n        /* \"#utility.yul\":561:584   */\n      tag_47\n        /* \"#utility.yul\":578:583   */\n      dup2\n        /* \"#utility.yul\":561:584   */\n      tag_31\n      jump\t// in\n    tag_47:\n        /* \"#utility.yul\":554:559   */\n      dup2\n        /* \"#utility.yul\":551:585   */\n      eq\n        /* \"#utility.yul\":541:603   */\n      tag_48\n      jumpi\n        /* \"#utility.yul\":599:600   */\n      0x00\n        /* \"#utility.yul\":596:597   */\n      dup1\n        /* \"#utility.yul\":589:601   */\n      revert\n        /* \"#utility.yul\":541:603   */\n    tag_48:\n        /* \"#utility.yul\":489:609   */\n      pop\n      jump\t// out\n        /* \"#utility.yul\":615:752   */\n    tag_33:\n        /* \"#utility.yul\":660:665   */\n      0x00\n        /* \"#utility.yul\":698:704   */\n      dup2\n        /* \"#utility.yul\":685:705   */\n      calldataload\n        /* \"#utility.yul\":676:705   */\n      swap1\n      pop\n        /* \"#utility.yul\":714:746   */\n      tag_50\n        /* \"#utility.yul\":740:745   */\n      dup2\n        /* \"#utility.yul\":714:746   */\n      tag_32\n      jump\t// in\n    tag_50:\n        /* \"#utility.yul\":615:752   */\n      swap3\n      swap2\n      pop\n      pop\n      jump\t// out\n        /* \"#utility.yul\":758:1085   */\n    tag_8:\n        /* \"#utility.yul\":816:822   */\n      0x00\n        /* \"#utility.yul\":865:867   */\n      0x20\n        /* \"#utility.yul\":853:862   */\n      dup3\n        /* \"#utility.yul\":844:851   */\n      dup5\n        /* \"#utility.yul\":840:863   */\n      sub\n        /* \"#utility.yul\":836:868   */\n      slt\n        /* \"#utility.yul\":833:952   */\n      iszero\n      tag_52\n      jumpi\n        /* \"#utility.yul\":871:950   */\n      tag_53\n      tag_29\n      jump\t// in\n    tag_53:\n        /* \"#utility.yul\":833:952   */\n    tag_52:\n        /* \"#utility.yul\":991:992   */\n      0x00\n        /* \"#utility.yul\":1016:1068   */\n      tag_54\n        /* \"#utility.yul\":1060:1067   */\n      dup5\n        /* \"#utility.yul\":1051:1057   */\n      dup3\n        /* \"#utility.yul\":1040:1049   */\n      dup6\n        /* \"#utility.yul\":1036:1058   */\n      add\n        /* \"#utility.yul\":1016:1068   */\n      tag_33\n      jump\t// in\n    tag_54:\n        /* \"#utility.yul\":1006:1068   */\n      swap2\n      pop\n        /* \"#utility.yul\":962:1078   */\n      pop\n        /* \"#utility.yul\":758:1085   */\n      swap3\n      swap2\n      pop\n      pop\n      jump\t// out\n        /* \"#utility.yul\":1091:1181   */\n    tag_34:\n        /* \"#utility.yul\":1125:1132   */\n      0x00\n        /* \"#utility.yul\":1168:1173   */\n      dup2\n        /* \"#utility.yul\":1161:1174   */\n      iszero\n        /* \"#utility.yul\":1154:1175   */\n      iszero\n        /* \"#utility.yul\":1143:1175   */\n      swap1\n      pop\n        /* \"#utility.yul\":1091:1181   */\n      swap2\n      swap1\n      pop\n      jump\t// out\n        /* \"#utility.yul\":1187:1296   */\n    tag_35:\n        /* \"#utility.yul\":1268:1289   */\n      tag_57\n        /* \"#utility.yul\":1283:1288   */\n      dup2\n        /* \"#utility.yul\":1268:1289   */\n      tag_34\n      jump\t// in\n    tag_57:\n        /* \"#utility.yul\":1263:1266   */\n      dup3\n        /* \"#utility.yul\":1256:1290   */\n      mstore\n        /* \"#utility.yul\":1187:1296   */\n      pop\n      pop\n      jump\t// out\n        /* \"#utility.yul\":1302:1512   */\n    tag_11:\n        /* \"#utility.yul\":1389:1393   */\n      0x00\n        /* \"#utility.yul\":1427:1429   */\n      0x20\n        /* \"#utility.yul\":1416:1425   */\n      dup3\n        /* \"#utility.yul\":1412:1430   */\n      add\n        /* \"#utility.yul\":1404:1430   */\n      swap1\n      pop\n        /* \"#utility.yul\":1440:1505   */\n      tag_59\n        /* \"#utility.yul\":1502:1503   */\n      0x00\n        /* \"#utility.yul\":1491:1500   */\n      dup4\n        /* \"#utility.yul\":1487:1504   */\n      add\n        /* \"#utility.yul\":1478:1484   */\n      dup5\n        /* \"#utility.yul\":1440:1505   */\n      tag_35\n      jump\t// in\n    tag_59:\n        /* \"#utility.yul\":1302:1512   */\n      swap3\n      swap2\n      pop\n      pop\n      jump\t// out\n        /* \"#utility.yul\":1518:1687   */\n    tag_36:\n        /* \"#utility.yul\":1602:1613   */\n      0x00\n        /* \"#utility.yul\":1636:1642   */\n      dup3\n        /* \"#utility.yul\":1631:1634   */\n      dup3\n        /* \"#utility.yul\":1624:1643   */\n      mstore\n        /* \"#utility.yul\":1676:1680   */\n      0x20\n        /* \"#utility.yul\":1671:1674   */\n      dup3\n        /* \"#utility.yul\":1667:1681   */\n      add\n        /* \"#utility.yul\":1652:1681   */\n      swap1\n      pop\n        /* \"#utility.yul\":1518:1687   */\n      swap3\n      swap2\n      pop\n      pop\n      jump\t// out\n        /* \"#utility.yul\":1693:1923   */\n    tag_37:\n        /* \"#utility.yul\":1833:1867   */\n      0x5265676973746572696e6720616c726561647920726567697374657265642069\n        /* \"#utility.yul\":1829:1830   */\n      0x00\n        /* \"#utility.yul\":1821:1827   */\n      dup3\n        /* \"#utility.yul\":1817:1831   */\n      add\n        /* \"#utility.yul\":1810:1868   */\n      mstore\n        /* \"#utility.yul\":1902:1915   */\n      0x6e74657266616365206964000000000000000000000000000000000000000000\n        /* \"#utility.yul\":1897:1899   */\n      0x20\n        /* \"#utility.yul\":1889:1895   */\n      dup3\n        /* \"#utility.yul\":1885:1900   */\n      add\n        /* \"#utility.yul\":1878:1916   */\n      mstore\n        /* \"#utility.yul\":1693:1923   */\n      pop\n      jump\t// out\n        /* \"#utility.yul\":1929:2295   */\n    tag_38:\n        /* \"#utility.yul\":2071:2074   */\n      0x00\n        /* \"#utility.yul\":2092:2159   */\n      tag_63\n        /* \"#utility.yul\":2156:2158   */\n      0x2b\n        /* \"#utility.yul\":2151:2154   */\n      dup4\n        /* \"#utility.yul\":2092:2159   */\n      tag_36\n      jump\t// in\n    tag_63:\n        /* \"#utility.yul\":2085:2159   */\n      swap2\n      pop\n        /* \"#utility.yul\":2168:2261   */\n      tag_64\n        /* \"#utility.yul\":2257:2260   */\n      dup3\n        /* \"#utility.yul\":2168:2261   */\n      tag_37\n      jump\t// in\n    tag_64:\n        /* \"#utility.yul\":2286:2288   */\n      0x40\n        /* \"#utility.yul\":2281:2284   */\n      dup3\n        /* \"#utility.yul\":2277:2289   */\n      add\n        /* \"#utility.yul\":2270:2289   */\n      swap1\n      pop\n        /* \"#utility.yul\":1929:2295   */\n      swap2\n      swap1\n      pop\n      jump\t// out\n        /* \"#utility.yul\":2301:2720   */\n    tag_23:\n        /* \"#utility.yul\":2467:2471   */\n      0x00\n        /* \"#utility.yul\":2505:2507   */\n      0x20\n        /* \"#utility.yul\":2494:2503   */\n      dup3\n        /* \"#utility.yul\":2490:2508   */\n      add\n        /* \"#utility.yul\":2482:2508   */\n      swap1\n      pop\n        /* \"#utility.yul\":2554:2563   */\n      dup2\n        /* \"#utility.yul\":2548:2552   */\n      dup2\n        /* \"#utility.yul\":2544:2564   */\n      sub\n        /* \"#utility.yul\":2540:2541   */\n      0x00\n        /* \"#utility.yul\":2529:2538   */\n      dup4\n        /* \"#utility.yul\":2525:2542   */\n      add\n        /* \"#utility.yul\":2518:2565   */\n      mstore\n        /* \"#utility.yul\":2582:2713   */\n      tag_66\n        /* \"#utility.yul\":2708:2712   */\n      dup2\n        /* \"#utility.yul\":2582:2713   */\n      tag_38\n      jump\t// in\n    tag_66:\n        /* \"#utility.yul\":2574:2713   */\n      swap1\n      pop\n        /* \"#utility.yul\":2301:2720   */\n      swap2\n      swap1\n      pop\n      jump\t// out\n        /* \"#utility.yul\":2726:2954   */\n    tag_39:\n        /* \"#utility.yul\":2866:2900   */\n      0x556e7265676973746572696e67206e6f742d7265676973746572656420696e74\n        /* \"#utility.yul\":2862:2863   */\n      0x00\n        /* \"#utility.yul\":2854:2860   */\n      dup3\n        /* \"#utility.yul\":2850:2864   */\n      add\n        /* \"#utility.yul\":2843:2901   */\n      mstore\n        /* \"#utility.yul\":2935:2946   */\n      0x6572666163652069640000000000000000000000000000000000000000000000\n        /* \"#utility.yul\":2930:2932   */\n      0x20\n        /* \"#utility.yul\":2922:2928   */\n      dup3\n        /* \"#utility.yul\":2918:2933   */\n      add\n        /* \"#utility.yul\":2911:2947   */\n      mstore\n        /* \"#utility.yul\":2726:2954   */\n      pop\n      jump\t// out\n        /* \"#utility.yul\":2960:3326   */\n    tag_40:\n        /* \"#utility.yul\":3102:3105   */\n      0x00\n        /* \"#utility.yul\":3123:3190   */\n      tag_69\n        /* \"#utility.yul\":3187:3189   */\n      0x29\n        /* \"#utility.yul\":3182:3185   */\n      dup4\n        /* \"#utility.yul\":3123:3190   */\n      tag_36\n      jump\t// in\n    tag_69:\n        /* \"#utility.yul\":3116:3190   */\n      swap2\n      pop\n        /* \"#utility.yul\":3199:3292   */\n      tag_70\n        /* \"#utility.yul\":3288:3291   */\n      dup3\n        /* \"#utility.yul\":3199:3292   */\n      tag_39\n      jump\t// in\n    tag_70:\n        /* \"#utility.yul\":3317:3319   */\n      0x40\n        /* \"#utility.yul\":3312:3315   */\n      dup3\n        /* \"#utility.yul\":3308:3320   */\n      add\n        /* \"#utility.yul\":3301:3320   */\n      swap1\n      pop\n        /* \"#utility.yul\":2960:3326   */\n      swap2\n      swap1\n      pop\n      jump\t// out\n        /* \"#utility.yul\":3332:3751   */\n    tag_27:\n        /* \"#utility.yul\":3498:3502   */\n      0x00\n        /* \"#utility.yul\":3536:3538   */\n      0x20\n        /* \"#utility.yul\":3525:3534   */\n      dup3\n        /* \"#utility.yul\":3521:3539   */\n      add\n        /* \"#utility.yul\":3513:3539   */\n      swap1\n      pop\n        /* \"#utility.yul\":3585:3594   */\n      dup2\n        /* \"#utility.yul\":3579:3583   */\n      dup2\n        /* \"#utility.yul\":3575:3595   */\n      sub\n        /* \"#utility.yul\":3571:3572   */\n      0x00\n        /* \"#utility.yul\":3560:3569   */\n      dup4\n        /* \"#utility.yul\":3556:3573   */\n      add\n        /* \"#utility.yul\":3549:3596   */\n      mstore\n        /* \"#utility.yul\":3613:3744   */\n      tag_72\n        /* \"#utility.yul\":3739:3743   */\n      dup2\n        /* \"#utility.yul\":3613:3744   */\n      tag_40\n      jump\t// in\n    tag_72:\n        /* \"#utility.yul\":3605:3744   */\n      swap1\n      pop\n        /* \"#utility.yul\":3332:3751   */\n      swap2\n      swap1\n      pop\n      jump\t// out\n\n    auxdata: 0xa26469706673582212201f2ac85b0b7247250f66ea4c1c471335f038e169da142cb350f192616af1e10b64736f6c634300081a0033\n}\n",
				"bytecode": {
					"linkReferences": {},
					"object": "608060405234801561000f575f80fd5b506100266301ffc9a760e01b61002b60201b60201c565b6101e9565b61003a816100e360201b60201c565b1561007a576040517f08c379a0000000000000000000000000000000000000000000000000000000008152600401610071906101cb565b60405180910390fd5b60015f80837bffffffffffffffffffffffffffffffffffffffffffffffffffffffff19167bffffffffffffffffffffffffffffffffffffffffffffffffffffffff191681526020019081526020015f205f6101000a81548160ff02191690831515021790555050565b5f805f80847bffffffffffffffffffffffffffffffffffffffffffffffffffffffff19167bffffffffffffffffffffffffffffffffffffffffffffffffffffffff191681526020019081526020015f205f9054906101000a900460ff16905080915050919050565b5f82825260208201905092915050565b7f5265676973746572696e6720616c7265616479207265676973746572656420695f8201527f6e74657266616365206964000000000000000000000000000000000000000000602082015250565b5f6101b5602b8361014b565b91506101c08261015b565b604082019050919050565b5f6020820190508181035f8301526101e2816101a9565b9050919050565b6104d8806101f65f395ff3fe608060405234801561000f575f80fd5b506004361061003f575f3560e01c806301ffc9a714610043578063d6fb295f14610073578063e7453ebc1461008f575b5f80fd5b61005d60048036038101906100589190610318565b6100ab565b60405161006a919061035d565b60405180910390f35b61008d60048036038101906100889190610318565b610113565b005b6100a960048036038101906100a49190610318565b6101c5565b005b5f805f80847bffffffffffffffffffffffffffffffffffffffffffffffffffffffff19167bffffffffffffffffffffffffffffffffffffffffffffffffffffffff191681526020019081526020015f205f9054906101000a900460ff16905080915050919050565b61011c816100ab565b1561015c576040517f08c379a0000000000000000000000000000000000000000000000000000000008152600401610153906103f6565b60405180910390fd5b60015f80837bffffffffffffffffffffffffffffffffffffffffffffffffffffffff19167bffffffffffffffffffffffffffffffffffffffffffffffffffffffff191681526020019081526020015f205f6101000a81548160ff02191690831515021790555050565b5f80827bffffffffffffffffffffffffffffffffffffffffffffffffffffffff19167bffffffffffffffffffffffffffffffffffffffffffffffffffffffff191681526020019081526020015f205f9054906101000a900460ff1661025f576040517f08c379a000000000000000000000000000000000000000000000000000000000815260040161025690610484565b60405180910390fd5b5f80827bffffffffffffffffffffffffffffffffffffffffffffffffffffffff19167bffffffffffffffffffffffffffffffffffffffffffffffffffffffff191681526020019081526020015f205f6101000a81549060ff021916905550565b5f80fd5b5f7fffffffff0000000000000000000000000000000000000000000000000000000082169050919050565b6102f7816102c3565b8114610301575f80fd5b50565b5f81359050610312816102ee565b92915050565b5f6020828403121561032d5761032c6102bf565b5b5f61033a84828501610304565b91505092915050565b5f8115159050919050565b61035781610343565b82525050565b5f6020820190506103705f83018461034e565b92915050565b5f82825260208201905092915050565b7f5265676973746572696e6720616c7265616479207265676973746572656420695f8201527f6e74657266616365206964000000000000000000000000000000000000000000602082015250565b5f6103e0602b83610376565b91506103eb82610386565b604082019050919050565b5f6020820190508181035f83015261040d816103d4565b9050919050565b7f556e7265676973746572696e67206e6f742d7265676973746572656420696e745f8201527f6572666163652069640000000000000000000000000000000000000000000000602082015250565b5f61046e602983610376565b915061047982610414565b604082019050919050565b5f6020820190508181035f83015261049b81610462565b905091905056fea26469706673582212201f2ac85b0b7247250f66ea4c1c471335f038e169da142cb350f192616af1e10b64736f6c634300081a0033",
					"opcodes": "PUSH1 0x80 PUSH1 0x40 MSTORE CALLVALUE DUP1 ISZERO PUSH2 0xF JUMPI PUSH0 DUP1 REVERT JUMPDEST POP PUSH2 0x26 PUSH4 0x1FFC9A7 PUSH1 0xE0 SHL PUSH2 0x2B PUSH1 0x20 SHL PUSH1 0x20 SHR JUMP JUMPDEST PUSH2 0x1E9 JUMP JUMPDEST PUSH2 0x3A DUP2 PUSH2 0xE3 PUSH1 0x20 SHL PUSH1 0x20 SHR JUMP JUMPDEST ISZERO PUSH2 0x7A JUMPI PUSH1 0x40 MLOAD PUSH32 0x8C379A000000000000000000000000000000000000000000000000000000000 DUP2 MSTORE PUSH1 0x4 ADD PUSH2 0x71 SWAP1 PUSH2 0x1CB JUMP JUMPDEST PUSH1 0x40 MLOAD DUP1 SWAP2 SUB SWAP1 REVERT JUMPDEST PUSH1 0x1 PUSH0 DUP1 DUP4 PUSH28 0xFFFFFFFFFFFFFFFFFFFFFFFFFFFFFFFFFFFFFFFFFFFFFFFFFFFFFFFF NOT AND PUSH28 0xFFFFFFFFFFFFFFFFFFFFFFFFFFFFFFFFFFFFFFFFFFFFFFFFFFFFFFFF NOT AND DUP2 MSTORE PUSH1 0x20 ADD SWAP1 DUP2 MSTORE PUSH1 0x20 ADD PUSH0 KECCAK256 PUSH0 PUSH2 0x100 EXP DUP2 SLOAD DUP2 PUSH1 0xFF MUL NOT AND SWAP1 DUP4 ISZERO ISZERO MUL OR SWAP1 SSTORE POP POP JUMP JUMPDEST PUSH0 DUP1 PUSH0 DUP1 DUP5 PUSH28 0xFFFFFFFFFFFFFFFFFFFFFFFFFFFFFFFFFFFFFFFFFFFFFFFFFFFFFFFF NOT AND PUSH28 0xFFFFFFFFFFFFFFFFFFFFFFFFFFFFFFFFFFFFFFFFFFFFFFFFFFFFFFFF NOT AND DUP2 MSTORE PUSH1 0x20 ADD SWAP1 DUP2 MSTORE PUSH1 0x20 ADD PUSH0 KECCAK256 PUSH0 SWAP1 SLOAD SWAP1 PUSH2 0x100 EXP SWAP1 DIV PUSH1 0xFF AND SWAP1 POP DUP1 SWAP2 POP POP SWAP2 SWAP1 POP JUMP JUMPDEST PUSH0 DUP3 DUP3 MSTORE PUSH1 0x20 DUP3 ADD SWAP1 POP SWAP3 SWAP2 POP POP JUMP JUMPDEST PUSH32 0x5265676973746572696E6720616C726561647920726567697374657265642069 PUSH0 DUP3 ADD MSTORE PUSH32 0x6E74657266616365206964000000000000000000000000000000000000000000 PUSH1 0x20 DUP3 ADD MSTORE POP JUMP JUMPDEST PUSH0 PUSH2 0x1B5 PUSH1 0x2B DUP4 PUSH2 0x14B JUMP JUMPDEST SWAP2 POP PUSH2 0x1C0 DUP3 PUSH2 0x15B JUMP JUMPDEST PUSH1 0x40 DUP3 ADD SWAP1 POP SWAP2 SWAP1 POP JUMP JUMPDEST PUSH0 PUSH1 0x20 DUP3 ADD SWAP1 POP DUP2 DUP2 SUB PUSH0 DUP4 ADD MSTORE PUSH2 0x1E2 DUP2 PUSH2 0x1A9 JUMP JUMPDEST SWAP1 POP SWAP2 SWAP1 POP JUMP JUMPDEST PUSH2 0x4D8 DUP1 PUSH2 0x1F6 PUSH0 CODECOPY PUSH0 RETURN INVALID PUSH1 0x80 PUSH1 0x40 MSTORE CALLVALUE DUP1 ISZERO PUSH2 0xF JUMPI PUSH0 DUP1 REVERT JUMPDEST POP PUSH1 0x4 CALLDATASIZE LT PUSH2 0x3F JUMPI PUSH0 CALLDATALOAD PUSH1 0xE0 SHR DUP1 PUSH4 0x1FFC9A7 EQ PUSH2 0x43 JUMPI DUP1 PUSH4 0xD6FB295F EQ PUSH2 0x73 JUMPI DUP1 PUSH4 0xE7453EBC EQ PUSH2 0x8F JUMPI JUMPDEST PUSH0 DUP1 REVERT JUMPDEST PUSH2 0x5D PUSH1 0x4 DUP1 CALLDATASIZE SUB DUP2 ADD SWAP1 PUSH2 0x58 SWAP2 SWAP1 PUSH2 0x318 JUMP JUMPDEST PUSH2 0xAB JUMP JUMPDEST PUSH1 0x40 MLOAD PUSH2 0x6A SWAP2 SWAP1 PUSH2 0x35D JUMP JUMPDEST PUSH1 0x40 MLOAD DUP1 SWAP2 SUB SWAP1 RETURN JUMPDEST PUSH2 0x8D PUSH1 0x4 DUP1 CALLDATASIZE SUB DUP2 ADD SWAP1 PUSH2 0x88 SWAP2 SWAP1 PUSH2 0x318 JUMP JUMPDEST PUSH2 0x113 JUMP JUMPDEST STOP JUMPDEST PUSH2 0xA9 PUSH1 0x4 DUP1 CALLDATASIZE SUB DUP2 ADD SWAP1 PUSH2 0xA4 SWAP2 SWAP1 PUSH2 0x318 JUMP JUMPDEST PUSH2 0x1C5 JUMP JUMPDEST STOP JUMPDEST PUSH0 DUP1 PUSH0 DUP1 DUP5 PUSH28 0xFFFFFFFFFFFFFFFFFFFFFFFFFFFFFFFFFFFFFFFFFFFFFFFFFFFFFFFF NOT AND PUSH28 0xFFFFFFFFFFFFFFFFFFFFFFFFFFFFFFFFFFFFFFFFFFFFFFFFFFFFFFFF NOT AND DUP2 MSTORE PUSH1 0x20 ADD SWAP1 DUP2 MSTORE PUSH1 0x20 ADD PUSH0 KECCAK256 PUSH0 SWAP1 SLOAD SWAP1 PUSH2 0x100 EXP SWAP1 DIV PUSH1 0xFF AND SWAP1 POP DUP1 SWAP2 POP POP SWAP2 SWAP1 POP JUMP JUMPDEST PUSH2 0x11C DUP2 PUSH2 0xAB JUMP JUMPDEST ISZERO PUSH2 0x15C JUMPI PUSH1 0x40 MLOAD PUSH32 0x8C379A000000000000000000000000000000000000000000000000000000000 DUP2 MSTORE PUSH1 0x4 ADD PUSH2 0x153 SWAP1 PUSH2 0x3F6 JUMP JUMPDEST PUSH1 0x40 MLOAD DUP1 SWAP2 SUB SWAP1 REVERT JUMPDEST PUSH1 0x1 PUSH0 DUP1 DUP4 PUSH28 0xFFFFFFFFFFFFFFFFFFFFFFFFFFFFFFFFFFFFFFFFFFFFFFFFFFFFFFFF NOT AND PUSH28 0xFFFFFFFFFFFFFFFFFFFFFFFFFFFFFFFFFFFFFFFFFFFFFFFFFFFFFFFF NOT AND DUP2 MSTORE PUSH1 0x20 ADD SWAP1 DUP2 MSTORE PUSH1 0x20 ADD PUSH0 KECCAK256 PUSH0 PUSH2 0x100 EXP DUP2 SLOAD DUP2 PUSH1 0xFF MUL NOT AND SWAP1 DUP4 ISZERO ISZERO MUL OR SWAP1 SSTORE POP POP JUMP JUMPDEST PUSH0 DUP1 DUP3 PUSH28 0xFFFFFFFFFFFFFFFFFFFFFFFFFFFFFFFFFFFFFFFFFFFFFFFFFFFFFFFF NOT AND PUSH28 0xFFFFFFFFFFFFFFFFFFFFFFFFFFFFFFFFFFFFFFFFFFFFFFFFFFFFFFFF NOT AND DUP2 MSTORE PUSH1 0x20 ADD SWAP1 DUP2 MSTORE PUSH1 0x20 ADD PUSH0 KECCAK256 PUSH0 SWAP1 SLOAD SWAP1 PUSH2 0x100 EXP SWAP1 DIV PUSH1 0xFF AND PUSH2 0x25F JUMPI PUSH1 0x40 MLOAD PUSH32 0x8C379A000000000000000000000000000000000000000000000000000000000 DUP2 MSTORE PUSH1 0x4 ADD PUSH2 0x256 SWAP1 PUSH2 0x484 JUMP JUMPDEST PUSH1 0x40 MLOAD DUP1 SWAP2 SUB SWAP1 REVERT JUMPDEST PUSH0 DUP1 DUP3 PUSH28 0xFFFFFFFFFFFFFFFFFFFFFFFFFFFFFFFFFFFFFFFFFFFFFFFFFFFFFFFF NOT AND PUSH28 0xFFFFFFFFFFFFFFFFFFFFFFFFFFFFFFFFFFFFFFFFFFFFFFFFFFFFFFFF NOT AND DUP2 MSTORE PUSH1 0x20 ADD SWAP1 DUP2 MSTORE PUSH1 0x20 ADD PUSH0 KECCAK256 PUSH0 PUSH2 0x100 EXP DUP2 SLOAD SWAP1 PUSH1 0xFF MUL NOT AND SWAP1 SSTORE POP JUMP JUMPDEST PUSH0 DUP1 REVERT JUMPDEST PUSH0 PUSH32 0xFFFFFFFF00000000000000000000000000000000000000000000000000000000 DUP3 AND SWAP1 POP SWAP2 SWAP1 POP JUMP JUMPDEST PUSH2 0x2F7 DUP2 PUSH2 0x2C3 JUMP JUMPDEST DUP2 EQ PUSH2 0x301 JUMPI PUSH0 DUP1 REVERT JUMPDEST POP JUMP JUMPDEST PUSH0 DUP2 CALLDATALOAD SWAP1 POP PUSH2 0x312 DUP2 PUSH2 0x2EE JUMP JUMPDEST SWAP3 SWAP2 POP POP JUMP JUMPDEST PUSH0 PUSH1 0x20 DUP3 DUP5 SUB SLT ISZERO PUSH2 0x32D JUMPI PUSH2 0x32C PUSH2 0x2BF JUMP JUMPDEST JUMPDEST PUSH0 PUSH2 0x33A DUP5 DUP3 DUP6 ADD PUSH2 0x304 JUMP JUMPDEST SWAP2 POP POP SWAP3 SWAP2 POP POP JUMP JUMPDEST PUSH0 DUP2 ISZERO ISZERO SWAP1 POP SWAP2 SWAP1 POP JUMP JUMPDEST PUSH2 0x357 DUP2 PUSH2 0x343 JUMP JUMPDEST DUP3 MSTORE POP POP JUMP JUMPDEST PUSH0 PUSH1 0x20 DUP3 ADD SWAP1 POP PUSH2 0x370 PUSH0 DUP4 ADD DUP5 PUSH2 0x34E JUMP JUMPDEST SWAP3 SWAP2 POP POP JUMP JUMPDEST PUSH0 DUP3 DUP3 MSTORE PUSH1 0x20 DUP3 ADD SWAP1 POP SWAP3 SWAP2 POP POP JUMP JUMPDEST PUSH32 0x5265676973746572696E6720616C726561647920726567697374657265642069 PUSH0 DUP3 ADD MSTORE PUSH32 0x6E74657266616365206964000000000000000000000000000000000000000000 PUSH1 0x20 DUP3 ADD MSTORE POP JUMP JUMPDEST PUSH0 PUSH2 0x3E0 PUSH1 0x2B DUP4 PUSH2 0x376 JUMP JUMPDEST SWAP2 POP PUSH2 0x3EB DUP3 PUSH2 0x386 JUMP JUMPDEST PUSH1 0x40 DUP3 ADD SWAP1 POP SWAP2 SWAP1 POP JUMP JUMPDEST PUSH0 PUSH1 0x20 DUP3 ADD SWAP1 POP DUP2 DUP2 SUB PUSH0 DUP4 ADD MSTORE PUSH2 0x40D DUP2 PUSH2 0x3D4 JUMP JUMPDEST SWAP1 POP SWAP2 SWAP1 POP JUMP JUMPDEST PUSH32 0x556E7265676973746572696E67206E6F742D7265676973746572656420696E74 PUSH0 DUP3 ADD MSTORE PUSH32 0x6572666163652069640000000000000000000000000000000000000000000000 PUSH1 0x20 DUP3 ADD MSTORE POP JUMP JUMPDEST PUSH0 PUSH2 0x46E PUSH1 0x29 DUP4 PUSH2 0x376 JUMP JUMPDEST SWAP2 POP PUSH2 0x479 DUP3 PUSH2 0x414 JUMP JUMPDEST PUSH1 0x40 DUP3 ADD SWAP1 POP SWAP2 SWAP1 POP JUMP JUMPDEST PUSH0 PUSH1 0x20 DUP3 ADD SWAP1 POP DUP2 DUP2 SUB PUSH0 DUP4 ADD MSTORE PUSH2 0x49B DUP2 PUSH2 0x462 JUMP JUMPDEST SWAP1 POP SWAP2 SWAP1 POP JUMP INVALID LOG2 PUSH5 0x6970667358 0x22 SLT KECCAK256 0x1F 0x2A 0xC8 JUMPDEST SIGNEXTEND PUSH19 0x47250F66EA4C1C471335F038E169DA142CB350 CALL SWAP3 PUSH2 0x6AF1 0xE1 SIGNEXTEND PUSH5 0x736F6C6343 STOP ADDMOD BYTE STOP CALLER "
				},
				"gasEstimates": {
					"creation": {
						"codeDepositCost": "248000",
						"executionCost": "infinite",
						"totalCost": "infinite"
					},
					"external": {
						"register(bytes4)": "27071",
						"remove(bytes4)": "27010",
						"supportsInterface(bytes4)": "2825"
					}
				},
				"methodIdentifiers": {
					"register(bytes4)": "d6fb295f",
					"remove(bytes4)": "e7453ebc",
					"supportsInterface(bytes4)": "01ffc9a7"
				}
			},
			"storageLayout": {
				"storage": [
					{
						"astId": 18,
						"contract": "contracts/03/ERC165.sol:ERC165Registry",
						"label": "_supportedInterfaceId",
						"offset": 0,
						"slot": "0",
						"type": "t_mapping(t_bytes4,t_bool)"
					}
				],
				"types": {
					"t_bool": {
						"encoding": "inplace",
						"label": "bool",
						"numberOfBytes": "1"
					},
					"t_bytes4": {
						"encoding": "inplace",
						"label": "bytes4",
						"numberOfBytes": "4"
					},
					"t_mapping(t_bytes4,t_bool)": {
						"encoding": "mapping",
						"key": "t_bytes4",
						"label": "mapping(bytes4 => bool)",
						"numberOfBytes": "32",
						"value": "t_bool"
					}
				}
			},
			"userdoc": {
				"kind": "user",
				"methods": {},
				"version": 1
			}
		}
	}
}