{
	"contracts/03/ERC165Check.sol": {
		"ERC165Checker": {
			"abi": [
				{
					"inputs": [
						{
							"internalType": "address",
							"name": "contractAddress",
							"type": "address"
						}
					],
					"name": "checkERC165",
					"outputs": [
						{
							"internalType": "bool",
							"name": "",
							"type": "bool"
						}
					],
					"stateMutability": "view",
					"type": "function"
				}
			],
			"devdoc": {
				"kind": "dev",
				"methods": {},
				"version": 1
			},
			"evm": {
				"assembly": "    /* \"contracts/03/ERC165Check.sol\":154:1213  contract ERC165Checker {... */\n  mstore(0x40, 0x80)\n  callvalue\n  dup1\n  iszero\n  tag_1\n  jumpi\n  0x00\n  dup1\n  revert\ntag_1:\n  pop\n  dataSize(sub_0)\n  dup1\n  dataOffset(sub_0)\n  0x00\n  codecopy\n  0x00\n  return\nstop\n\nsub_0: assembly {\n        /* \"contracts/03/ERC165Check.sol\":154:1213  contract ERC165Checker {... */\n      mstore(0x40, 0x80)\n      callvalue\n      dup1\n      iszero\n      tag_1\n      jumpi\n      0x00\n      dup1\n      revert\n    tag_1:\n      pop\n      jumpi(tag_2, lt(calldatasize, 0x04))\n      shr(0xe0, calldataload(0x00))\n      dup1\n      0x7c62cef5\n      eq\n      tag_3\n      jumpi\n    tag_2:\n      0x00\n      dup1\n      revert\n        /* \"contracts/03/ERC165Check.sol\":189:1206  function checkERC165(address contractAddress) public view returns (bool) {... */\n    tag_3:\n      tag_4\n      0x04\n      dup1\n      calldatasize\n      sub\n      dup2\n      add\n      swap1\n      tag_5\n      swap2\n      swap1\n      tag_6\n      jump\t// in\n    tag_5:\n      tag_7\n      jump\t// in\n    tag_4:\n      mload(0x40)\n      tag_8\n      swap2\n      swap1\n      tag_9\n      jump\t// in\n    tag_8:\n      mload(0x40)\n      dup1\n      swap2\n      sub\n      swap1\n      return\n    tag_7:\n        /* \"contracts/03/ERC165Check.sol\":256:260  bool */\n      0x00\n        /* \"contracts/03/ERC165Check.sol\":333:345  bool success */\n      dup1\n        /* \"contracts/03/ERC165Check.sol\":347:366  bytes memory result */\n      0x00\n        /* \"contracts/03/ERC165Check.sol\":370:385  contractAddress */\n      dup4\n        /* \"contracts/03/ERC165Check.sol\":370:396  contractAddress.staticcall */\n      0xffffffffffffffffffffffffffffffffffffffff\n      and\n        /* \"contracts/03/ERC165Check.sol\":433:467  IERC165.supportsInterface.selector */\n      shl(0xe0, 0x01ffc9a7)\n        /* \"contracts/03/ERC165Check.sol\":469:479  0x01ffc9a7 */\n      0x01ffc9a7\n        /* \"contracts/03/ERC165Check.sol\":410:480  abi.encodeWithSelector(IERC165.supportsInterface.selector, 0x01ffc9a7) */\n      add(0x24, mload(0x40))\n      tag_11\n      swap2\n      swap1\n      tag_12\n      jump\t// in\n    tag_11:\n      mload(0x40)\n      0x20\n      dup2\n      dup4\n      sub\n      sub\n      dup2\n      mstore\n      swap1\n      0x40\n      mstore\n      swap1\n      not(0xffffffffffffffffffffffffffffffffffffffffffffffffffffffff)\n      and\n      0x20\n      dup3\n      add\n      dup1\n      mload\n      0xffffffffffffffffffffffffffffffffffffffffffffffffffffffff\n      dup4\n      dup2\n      dup4\n      and\n      or\n      dup4\n      mstore\n      pop\n      pop\n      pop\n      pop\n        /* \"contracts/03/ERC165Check.sol\":370:490  contractAddress.staticcall(... */\n      mload(0x40)\n      tag_13\n      swap2\n      swap1\n      tag_14\n      jump\t// in\n    tag_13:\n      0x00\n      mload(0x40)\n      dup1\n      dup4\n      sub\n      dup2\n      dup6\n      gas\n      staticcall\n      swap2\n      pop\n      pop\n      returndatasize\n      dup1\n      0x00\n      dup2\n      eq\n      tag_17\n      jumpi\n      mload(0x40)\n      swap2\n      pop\n      and(add(returndatasize, 0x3f), not(0x1f))\n      dup3\n      add\n      0x40\n      mstore\n      returndatasize\n      dup3\n      mstore\n      returndatasize\n      0x00\n      0x20\n      dup5\n      add\n      returndatacopy\n      jump(tag_16)\n    tag_17:\n      0x60\n      swap2\n      pop\n    tag_16:\n      pop\n        /* \"contracts/03/ERC165Check.sol\":332:490  (bool success, bytes memory result) = contractAddress.staticcall(... */\n      swap2\n      pop\n      swap2\n      pop\n        /* \"contracts/03/ERC165Check.sol\":506:513  success */\n      dup2\n        /* \"contracts/03/ERC165Check.sol\":505:513  !success */\n      iszero\n        /* \"contracts/03/ERC165Check.sol\":505:535  !success || result.length < 32 */\n      dup1\n      tag_18\n      jumpi\n      pop\n        /* \"contracts/03/ERC165Check.sol\":533:535  32 */\n      0x20\n        /* \"contracts/03/ERC165Check.sol\":517:523  result */\n      dup2\n        /* \"contracts/03/ERC165Check.sol\":517:530  result.length */\n      mload\n        /* \"contracts/03/ERC165Check.sol\":517:535  result.length < 32 */\n      lt\n        /* \"contracts/03/ERC165Check.sol\":505:535  !success || result.length < 32 */\n    tag_18:\n        /* \"contracts/03/ERC165Check.sol\":501:595  if (!success || result.length < 32) {... */\n      iszero\n      tag_19\n      jumpi\n        /* \"contracts/03/ERC165Check.sol\":558:563  false */\n      0x00\n        /* \"contracts/03/ERC165Check.sol\":551:563  return false */\n      swap3\n      pop\n      pop\n      pop\n      jump(tag_10)\n        /* \"contracts/03/ERC165Check.sol\":501:595  if (!success || result.length < 32) {... */\n    tag_19:\n        /* \"contracts/03/ERC165Check.sol\":605:624  bool supportsERC165 */\n      0x00\n        /* \"contracts/03/ERC165Check.sol\":638:644  result */\n      dup2\n        /* \"contracts/03/ERC165Check.sol\":627:653  abi.decode(result, (bool)) */\n      dup1\n      0x20\n      add\n      swap1\n      mload\n      dup2\n      add\n      swap1\n      tag_20\n      swap2\n      swap1\n      tag_21\n      jump\t// in\n    tag_20:\n        /* \"contracts/03/ERC165Check.sol\":605:653  bool supportsERC165 = abi.decode(result, (bool)) */\n      swap1\n      pop\n        /* \"contracts/03/ERC165Check.sol\":668:682  supportsERC165 */\n      dup1\n        /* \"contracts/03/ERC165Check.sol\":663:767  if (!supportsERC165) {... */\n      tag_22\n      jumpi\n        /* \"contracts/03/ERC165Check.sol\":705:710  false */\n      0x00\n        /* \"contracts/03/ERC165Check.sol\":698:710  return false */\n      swap4\n      pop\n      pop\n      pop\n      pop\n      jump(tag_10)\n        /* \"contracts/03/ERC165Check.sol\":663:767  if (!supportsERC165) {... */\n    tag_22:\n        /* \"contracts/03/ERC165Check.sol\":857:872  contractAddress */\n      dup5\n        /* \"contracts/03/ERC165Check.sol\":857:883  contractAddress.staticcall */\n      0xffffffffffffffffffffffffffffffffffffffff\n      and\n        /* \"contracts/03/ERC165Check.sol\":920:954  IERC165.supportsInterface.selector */\n      shl(0xe0, 0x01ffc9a7)\n        /* \"contracts/03/ERC165Check.sol\":956:966  0xffffffff */\n      0xffffffff\n        /* \"contracts/03/ERC165Check.sol\":897:967  abi.encodeWithSelector(IERC165.supportsInterface.selector, 0xffffffff) */\n      add(0x24, mload(0x40))\n      tag_23\n      swap2\n      swap1\n      tag_24\n      jump\t// in\n    tag_23:\n      mload(0x40)\n      0x20\n      dup2\n      dup4\n      sub\n      sub\n      dup2\n      mstore\n      swap1\n      0x40\n      mstore\n      swap1\n      not(0xffffffffffffffffffffffffffffffffffffffffffffffffffffffff)\n      and\n      0x20\n      dup3\n      add\n      dup1\n      mload\n      0xffffffffffffffffffffffffffffffffffffffffffffffffffffffff\n      dup4\n      dup2\n      dup4\n      and\n      or\n      dup4\n      mstore\n      pop\n      pop\n      pop\n      pop\n        /* \"contracts/03/ERC165Check.sol\":857:977  contractAddress.staticcall(... */\n      mload(0x40)\n      tag_25\n      swap2\n      swap1\n      tag_14\n      jump\t// in\n    tag_25:\n      0x00\n      mload(0x40)\n      dup1\n      dup4\n      sub\n      dup2\n      dup6\n      gas\n      staticcall\n      swap2\n      pop\n      pop\n      returndatasize\n      dup1\n      0x00\n      dup2\n      eq\n      tag_28\n      jumpi\n      mload(0x40)\n      swap2\n      pop\n      and(add(returndatasize, 0x3f), not(0x1f))\n      dup3\n      add\n      0x40\n      mstore\n      returndatasize\n      dup3\n      mstore\n      returndatasize\n      0x00\n      0x20\n      dup5\n      add\n      returndatacopy\n      jump(tag_27)\n    tag_28:\n      0x60\n      swap2\n      pop\n    tag_27:\n      pop\n        /* \"contracts/03/ERC165Check.sol\":837:977  (success, result) = contractAddress.staticcall(... */\n      dup1\n      swap4\n      pop\n      dup2\n      swap5\n      pop\n      pop\n      pop\n        /* \"contracts/03/ERC165Check.sol\":993:1000  success */\n      dup3\n        /* \"contracts/03/ERC165Check.sol\":992:1000  !success */\n      iszero\n        /* \"contracts/03/ERC165Check.sol\":992:1022  !success || result.length < 32 */\n      dup1\n      tag_29\n      jumpi\n      pop\n        /* \"contracts/03/ERC165Check.sol\":1020:1022  32 */\n      0x20\n        /* \"contracts/03/ERC165Check.sol\":1004:1010  result */\n      dup3\n        /* \"contracts/03/ERC165Check.sol\":1004:1017  result.length */\n      mload\n        /* \"contracts/03/ERC165Check.sol\":1004:1022  result.length < 32 */\n      lt\n        /* \"contracts/03/ERC165Check.sol\":992:1022  !success || result.length < 32 */\n    tag_29:\n        /* \"contracts/03/ERC165Check.sol\":992:1052  !success || result.length < 32 || abi.decode(result, (bool)) */\n      dup1\n      tag_30\n      jumpi\n      pop\n        /* \"contracts/03/ERC165Check.sol\":1037:1043  result */\n      dup2\n        /* \"contracts/03/ERC165Check.sol\":1026:1052  abi.decode(result, (bool)) */\n      dup1\n      0x20\n      add\n      swap1\n      mload\n      dup2\n      add\n      swap1\n      tag_31\n      swap2\n      swap1\n      tag_21\n      jump\t// in\n    tag_31:\n        /* \"contracts/03/ERC165Check.sol\":992:1052  !success || result.length < 32 || abi.decode(result, (bool)) */\n    tag_30:\n        /* \"contracts/03/ERC165Check.sol\":988:1140  if (!success || result.length < 32 || abi.decode(result, (bool))) {... */\n      iszero\n      tag_32\n      jumpi\n        /* \"contracts/03/ERC165Check.sol\":1075:1080  false */\n      0x00\n        /* \"contracts/03/ERC165Check.sol\":1068:1080  return false */\n      swap4\n      pop\n      pop\n      pop\n      pop\n      jump(tag_10)\n        /* \"contracts/03/ERC165Check.sol\":988:1140  if (!success || result.length < 32 || abi.decode(result, (bool))) {... */\n    tag_32:\n        /* \"contracts/03/ERC165Check.sol\":1195:1199  true */\n      0x01\n        /* \"contracts/03/ERC165Check.sol\":1188:1199  return true */\n      swap4\n      pop\n      pop\n      pop\n      pop\n        /* \"contracts/03/ERC165Check.sol\":189:1206  function checkERC165(address contractAddress) public view returns (bool) {... */\n    tag_10:\n      swap2\n      swap1\n      pop\n      jump\t// out\n        /* \"#utility.yul\":88:205   */\n    tag_34:\n        /* \"#utility.yul\":197:198   */\n      0x00\n        /* \"#utility.yul\":194:195   */\n      dup1\n        /* \"#utility.yul\":187:199   */\n      revert\n        /* \"#utility.yul\":334:460   */\n    tag_36:\n        /* \"#utility.yul\":371:378   */\n      0x00\n        /* \"#utility.yul\":411:453   */\n      0xffffffffffffffffffffffffffffffffffffffff\n        /* \"#utility.yul\":404:409   */\n      dup3\n        /* \"#utility.yul\":400:454   */\n      and\n        /* \"#utility.yul\":389:454   */\n      swap1\n      pop\n        /* \"#utility.yul\":334:460   */\n      swap2\n      swap1\n      pop\n      jump\t// out\n        /* \"#utility.yul\":466:562   */\n    tag_37:\n        /* \"#utility.yul\":503:510   */\n      0x00\n        /* \"#utility.yul\":532:556   */\n      tag_62\n        /* \"#utility.yul\":550:555   */\n      dup3\n        /* \"#utility.yul\":532:556   */\n      tag_36\n      jump\t// in\n    tag_62:\n        /* \"#utility.yul\":521:556   */\n      swap1\n      pop\n        /* \"#utility.yul\":466:562   */\n      swap2\n      swap1\n      pop\n      jump\t// out\n        /* \"#utility.yul\":568:690   */\n    tag_38:\n        /* \"#utility.yul\":641:665   */\n      tag_64\n        /* \"#utility.yul\":659:664   */\n      dup2\n        /* \"#utility.yul\":641:665   */\n      tag_37\n      jump\t// in\n    tag_64:\n        /* \"#utility.yul\":634:639   */\n      dup2\n        /* \"#utility.yul\":631:666   */\n      eq\n        /* \"#utility.yul\":621:684   */\n      tag_65\n      jumpi\n        /* \"#utility.yul\":680:681   */\n      0x00\n        /* \"#utility.yul\":677:678   */\n      dup1\n        /* \"#utility.yul\":670:682   */\n      revert\n        /* \"#utility.yul\":621:684   */\n    tag_65:\n        /* \"#utility.yul\":568:690   */\n      pop\n      jump\t// out\n        /* \"#utility.yul\":696:835   */\n    tag_39:\n        /* \"#utility.yul\":742:747   */\n      0x00\n        /* \"#utility.yul\":780:786   */\n      dup2\n        /* \"#utility.yul\":767:787   */\n      calldataload\n        /* \"#utility.yul\":758:787   */\n      swap1\n      pop\n        /* \"#utility.yul\":796:829   */\n      tag_67\n        /* \"#utility.yul\":823:828   */\n      dup2\n        /* \"#utility.yul\":796:829   */\n      tag_38\n      jump\t// in\n    tag_67:\n        /* \"#utility.yul\":696:835   */\n      swap3\n      swap2\n      pop\n      pop\n      jump\t// out\n        /* \"#utility.yul\":841:1170   */\n    tag_6:\n        /* \"#utility.yul\":900:906   */\n      0x00\n        /* \"#utility.yul\":949:951   */\n      0x20\n        /* \"#utility.yul\":937:946   */\n      dup3\n        /* \"#utility.yul\":928:935   */\n      dup5\n        /* \"#utility.yul\":924:947   */\n      sub\n        /* \"#utility.yul\":920:952   */\n      slt\n        /* \"#utility.yul\":917:1036   */\n      iszero\n      tag_69\n      jumpi\n        /* \"#utility.yul\":955:1034   */\n      tag_70\n      tag_34\n      jump\t// in\n    tag_70:\n        /* \"#utility.yul\":917:1036   */\n    tag_69:\n        /* \"#utility.yul\":1075:1076   */\n      0x00\n        /* \"#utility.yul\":1100:1153   */\n      tag_71\n        /* \"#utility.yul\":1145:1152   */\n      dup5\n        /* \"#utility.yul\":1136:1142   */\n      dup3\n        /* \"#utility.yul\":1125:1134   */\n      dup6\n        /* \"#utility.yul\":1121:1143   */\n      add\n        /* \"#utility.yul\":1100:1153   */\n      tag_39\n      jump\t// in\n    tag_71:\n        /* \"#utility.yul\":1090:1153   */\n      swap2\n      pop\n        /* \"#utility.yul\":1046:1163   */\n      pop\n        /* \"#utility.yul\":841:1170   */\n      swap3\n      swap2\n      pop\n      pop\n      jump\t// out\n        /* \"#utility.yul\":1176:1266   */\n    tag_40:\n        /* \"#utility.yul\":1210:1217   */\n      0x00\n        /* \"#utility.yul\":1253:1258   */\n      dup2\n        /* \"#utility.yul\":1246:1259   */\n      iszero\n        /* \"#utility.yul\":1239:1260   */\n      iszero\n        /* \"#utility.yul\":1228:1260   */\n      swap1\n      pop\n        /* \"#utility.yul\":1176:1266   */\n      swap2\n      swap1\n      pop\n      jump\t// out\n        /* \"#utility.yul\":1272:1381   */\n    tag_41:\n        /* \"#utility.yul\":1353:1374   */\n      tag_74\n        /* \"#utility.yul\":1368:1373   */\n      dup2\n        /* \"#utility.yul\":1353:1374   */\n      tag_40\n      jump\t// in\n    tag_74:\n        /* \"#utility.yul\":1348:1351   */\n      dup3\n        /* \"#utility.yul\":1341:1375   */\n      mstore\n        /* \"#utility.yul\":1272:1381   */\n      pop\n      pop\n      jump\t// out\n        /* \"#utility.yul\":1387:1597   */\n    tag_9:\n        /* \"#utility.yul\":1474:1478   */\n      0x00\n        /* \"#utility.yul\":1512:1514   */\n      0x20\n        /* \"#utility.yul\":1501:1510   */\n      dup3\n        /* \"#utility.yul\":1497:1515   */\n      add\n        /* \"#utility.yul\":1489:1515   */\n      swap1\n      pop\n        /* \"#utility.yul\":1525:1590   */\n      tag_76\n        /* \"#utility.yul\":1587:1588   */\n      0x00\n        /* \"#utility.yul\":1576:1585   */\n      dup4\n        /* \"#utility.yul\":1572:1589   */\n      add\n        /* \"#utility.yul\":1563:1569   */\n      dup5\n        /* \"#utility.yul\":1525:1590   */\n      tag_41\n      jump\t// in\n    tag_76:\n        /* \"#utility.yul\":1387:1597   */\n      swap3\n      swap2\n      pop\n      pop\n      jump\t// out\n        /* \"#utility.yul\":1603:1695   */\n    tag_42:\n        /* \"#utility.yul\":1655:1662   */\n      0x00\n        /* \"#utility.yul\":1684:1689   */\n      dup2\n        /* \"#utility.yul\":1673:1689   */\n      swap1\n      pop\n        /* \"#utility.yul\":1603:1695   */\n      swap2\n      swap1\n      pop\n      jump\t// out\n        /* \"#utility.yul\":1701:1794   */\n    tag_43:\n        /* \"#utility.yul\":1737:1744   */\n      0x00\n        /* \"#utility.yul\":1777:1787   */\n      0xffffffff\n        /* \"#utility.yul\":1770:1775   */\n      dup3\n        /* \"#utility.yul\":1766:1788   */\n      and\n        /* \"#utility.yul\":1755:1788   */\n      swap1\n      pop\n        /* \"#utility.yul\":1701:1794   */\n      swap2\n      swap1\n      pop\n      jump\t// out\n        /* \"#utility.yul\":1800:1860   */\n    tag_44:\n        /* \"#utility.yul\":1828:1831   */\n      0x00\n        /* \"#utility.yul\":1849:1854   */\n      dup2\n        /* \"#utility.yul\":1842:1854   */\n      swap1\n      pop\n        /* \"#utility.yul\":1800:1860   */\n      swap2\n      swap1\n      pop\n      jump\t// out\n        /* \"#utility.yul\":1866:2036   */\n    tag_45:\n        /* \"#utility.yul\":1930:1939   */\n      0x00\n        /* \"#utility.yul\":1963:2030   */\n      tag_81\n        /* \"#utility.yul\":1980:2029   */\n      tag_82\n        /* \"#utility.yul\":1989:2028   */\n      tag_83\n        /* \"#utility.yul\":2022:2027   */\n      dup5\n        /* \"#utility.yul\":1989:2028   */\n      tag_42\n      jump\t// in\n    tag_83:\n        /* \"#utility.yul\":1980:2029   */\n      tag_44\n      jump\t// in\n    tag_82:\n        /* \"#utility.yul\":1963:2030   */\n      tag_43\n      jump\t// in\n    tag_81:\n        /* \"#utility.yul\":1950:2030   */\n      swap1\n      pop\n        /* \"#utility.yul\":1866:2036   */\n      swap2\n      swap1\n      pop\n      jump\t// out\n        /* \"#utility.yul\":2042:2201   */\n    tag_46:\n        /* \"#utility.yul\":2143:2194   */\n      tag_85\n        /* \"#utility.yul\":2188:2193   */\n      dup2\n        /* \"#utility.yul\":2143:2194   */\n      tag_45\n      jump\t// in\n    tag_85:\n        /* \"#utility.yul\":2138:2141   */\n      dup3\n        /* \"#utility.yul\":2131:2195   */\n      mstore\n        /* \"#utility.yul\":2042:2201   */\n      pop\n      pop\n      jump\t// out\n        /* \"#utility.yul\":2207:2457   */\n    tag_12:\n        /* \"#utility.yul\":2314:2318   */\n      0x00\n        /* \"#utility.yul\":2352:2354   */\n      0x20\n        /* \"#utility.yul\":2341:2350   */\n      dup3\n        /* \"#utility.yul\":2337:2355   */\n      add\n        /* \"#utility.yul\":2329:2355   */\n      swap1\n      pop\n        /* \"#utility.yul\":2365:2450   */\n      tag_87\n        /* \"#utility.yul\":2447:2448   */\n      0x00\n        /* \"#utility.yul\":2436:2445   */\n      dup4\n        /* \"#utility.yul\":2432:2449   */\n      add\n        /* \"#utility.yul\":2423:2429   */\n      dup5\n        /* \"#utility.yul\":2365:2450   */\n      tag_46\n      jump\t// in\n    tag_87:\n        /* \"#utility.yul\":2207:2457   */\n      swap3\n      swap2\n      pop\n      pop\n      jump\t// out\n        /* \"#utility.yul\":2463:2561   */\n    tag_47:\n        /* \"#utility.yul\":2514:2520   */\n      0x00\n        /* \"#utility.yul\":2548:2553   */\n      dup2\n        /* \"#utility.yul\":2542:2554   */\n      mload\n        /* \"#utility.yul\":2532:2554   */\n      swap1\n      pop\n        /* \"#utility.yul\":2463:2561   */\n      swap2\n      swap1\n      pop\n      jump\t// out\n        /* \"#utility.yul\":2567:2714   */\n    tag_48:\n        /* \"#utility.yul\":2668:2679   */\n      0x00\n        /* \"#utility.yul\":2705:2708   */\n      dup2\n        /* \"#utility.yul\":2690:2708   */\n      swap1\n      pop\n        /* \"#utility.yul\":2567:2714   */\n      swap3\n      swap2\n      pop\n      pop\n      jump\t// out\n        /* \"#utility.yul\":2720:2859   */\n    tag_49:\n        /* \"#utility.yul\":2809:2815   */\n      dup3\n        /* \"#utility.yul\":2804:2807   */\n      dup2\n        /* \"#utility.yul\":2799:2802   */\n      dup4\n        /* \"#utility.yul\":2793:2816   */\n      mcopy\n        /* \"#utility.yul\":2850:2851   */\n      0x00\n        /* \"#utility.yul\":2841:2847   */\n      dup4\n        /* \"#utility.yul\":2836:2839   */\n      dup4\n        /* \"#utility.yul\":2832:2848   */\n      add\n        /* \"#utility.yul\":2825:2852   */\n      mstore\n        /* \"#utility.yul\":2720:2859   */\n      pop\n      pop\n      pop\n      jump\t// out\n        /* \"#utility.yul\":2865:3251   */\n    tag_50:\n        /* \"#utility.yul\":2969:2972   */\n      0x00\n        /* \"#utility.yul\":2997:3035   */\n      tag_92\n        /* \"#utility.yul\":3029:3034   */\n      dup3\n        /* \"#utility.yul\":2997:3035   */\n      tag_47\n      jump\t// in\n    tag_92:\n        /* \"#utility.yul\":3051:3139   */\n      tag_93\n        /* \"#utility.yul\":3132:3138   */\n      dup2\n        /* \"#utility.yul\":3127:3130   */\n      dup6\n        /* \"#utility.yul\":3051:3139   */\n      tag_48\n      jump\t// in\n    tag_93:\n        /* \"#utility.yul\":3044:3139   */\n      swap4\n      pop\n        /* \"#utility.yul\":3148:3213   */\n      tag_94\n        /* \"#utility.yul\":3206:3212   */\n      dup2\n        /* \"#utility.yul\":3201:3204   */\n      dup6\n        /* \"#utility.yul\":3194:3198   */\n      0x20\n        /* \"#utility.yul\":3187:3192   */\n      dup7\n        /* \"#utility.yul\":3183:3199   */\n      add\n        /* \"#utility.yul\":3148:3213   */\n      tag_49\n      jump\t// in\n    tag_94:\n        /* \"#utility.yul\":3238:3244   */\n      dup1\n        /* \"#utility.yul\":3233:3236   */\n      dup5\n        /* \"#utility.yul\":3229:3245   */\n      add\n        /* \"#utility.yul\":3222:3245   */\n      swap2\n      pop\n        /* \"#utility.yul\":2973:3251   */\n      pop\n        /* \"#utility.yul\":2865:3251   */\n      swap3\n      swap2\n      pop\n      pop\n      jump\t// out\n        /* \"#utility.yul\":3257:3528   */\n    tag_14:\n        /* \"#utility.yul\":3387:3390   */\n      0x00\n        /* \"#utility.yul\":3409:3502   */\n      tag_96\n        /* \"#utility.yul\":3498:3501   */\n      dup3\n        /* \"#utility.yul\":3489:3495   */\n      dup5\n        /* \"#utility.yul\":3409:3502   */\n      tag_50\n      jump\t// in\n    tag_96:\n        /* \"#utility.yul\":3402:3502   */\n      swap2\n      pop\n        /* \"#utility.yul\":3519:3522   */\n      dup2\n        /* \"#utility.yul\":3512:3522   */\n      swap1\n      pop\n        /* \"#utility.yul\":3257:3528   */\n      swap3\n      swap2\n      pop\n      pop\n      jump\t// out\n        /* \"#utility.yul\":3534:3650   */\n    tag_51:\n        /* \"#utility.yul\":3604:3625   */\n      tag_98\n        /* \"#utility.yul\":3619:3624   */\n      dup2\n        /* \"#utility.yul\":3604:3625   */\n      tag_40\n      jump\t// in\n    tag_98:\n        /* \"#utility.yul\":3597:3602   */\n      dup2\n        /* \"#utility.yul\":3594:3626   */\n      eq\n        /* \"#utility.yul\":3584:3644   */\n      tag_99\n      jumpi\n        /* \"#utility.yul\":3640:3641   */\n      0x00\n        /* \"#utility.yul\":3637:3638   */\n      dup1\n        /* \"#utility.yul\":3630:3642   */\n      revert\n        /* \"#utility.yul\":3584:3644   */\n    tag_99:\n        /* \"#utility.yul\":3534:3650   */\n      pop\n      jump\t// out\n        /* \"#utility.yul\":3656:3793   */\n    tag_52:\n        /* \"#utility.yul\":3710:3715   */\n      0x00\n        /* \"#utility.yul\":3741:3747   */\n      dup2\n        /* \"#utility.yul\":3735:3748   */\n      mload\n        /* \"#utility.yul\":3726:3748   */\n      swap1\n      pop\n        /* \"#utility.yul\":3757:3787   */\n      tag_101\n        /* \"#utility.yul\":3781:3786   */\n      dup2\n        /* \"#utility.yul\":3757:3787   */\n      tag_51\n      jump\t// in\n    tag_101:\n        /* \"#utility.yul\":3656:3793   */\n      swap3\n      swap2\n      pop\n      pop\n      jump\t// out\n        /* \"#utility.yul\":3799:4144   */\n    tag_21:\n        /* \"#utility.yul\":3866:3872   */\n      0x00\n        /* \"#utility.yul\":3915:3917   */\n      0x20\n        /* \"#utility.yul\":3903:3912   */\n      dup3\n        /* \"#utility.yul\":3894:3901   */\n      dup5\n        /* \"#utility.yul\":3890:3913   */\n      sub\n        /* \"#utility.yul\":3886:3918   */\n      slt\n        /* \"#utility.yul\":3883:4002   */\n      iszero\n      tag_103\n      jumpi\n        /* \"#utility.yul\":3921:4000   */\n      tag_104\n      tag_34\n      jump\t// in\n    tag_104:\n        /* \"#utility.yul\":3883:4002   */\n    tag_103:\n        /* \"#utility.yul\":4041:4042   */\n      0x00\n        /* \"#utility.yul\":4066:4127   */\n      tag_105\n        /* \"#utility.yul\":4119:4126   */\n      dup5\n        /* \"#utility.yul\":4110:4116   */\n      dup3\n        /* \"#utility.yul\":4099:4108   */\n      dup6\n        /* \"#utility.yul\":4095:4117   */\n      add\n        /* \"#utility.yul\":4066:4127   */\n      tag_52\n      jump\t// in\n    tag_105:\n        /* \"#utility.yul\":4056:4127   */\n      swap2\n      pop\n        /* \"#utility.yul\":4012:4137   */\n      pop\n        /* \"#utility.yul\":3799:4144   */\n      swap3\n      swap2\n      pop\n      pop\n      jump\t// out\n        /* \"#utility.yul\":4150:4244   */\n    tag_53:\n        /* \"#utility.yul\":4204:4211   */\n      0x00\n        /* \"#utility.yul\":4233:4238   */\n      dup2\n        /* \"#utility.yul\":4222:4238   */\n      swap1\n      pop\n        /* \"#utility.yul\":4150:4244   */\n      swap2\n      swap1\n      pop\n      jump\t// out\n        /* \"#utility.yul\":4250:4424   */\n    tag_54:\n        /* \"#utility.yul\":4316:4325   */\n      0x00\n        /* \"#utility.yul\":4349:4418   */\n      tag_108\n        /* \"#utility.yul\":4366:4417   */\n      tag_109\n        /* \"#utility.yul\":4375:4416   */\n      tag_110\n        /* \"#utility.yul\":4410:4415   */\n      dup5\n        /* \"#utility.yul\":4375:4416   */\n      tag_53\n      jump\t// in\n    tag_110:\n        /* \"#utility.yul\":4366:4417   */\n      tag_44\n      jump\t// in\n    tag_109:\n        /* \"#utility.yul\":4349:4418   */\n      tag_43\n      jump\t// in\n    tag_108:\n        /* \"#utility.yul\":4336:4418   */\n      swap1\n      pop\n        /* \"#utility.yul\":4250:4424   */\n      swap2\n      swap1\n      pop\n      jump\t// out\n        /* \"#utility.yul\":4430:4593   */\n    tag_55:\n        /* \"#utility.yul\":4533:4586   */\n      tag_112\n        /* \"#utility.yul\":4580:4585   */\n      dup2\n        /* \"#utility.yul\":4533:4586   */\n      tag_54\n      jump\t// in\n    tag_112:\n        /* \"#utility.yul\":4528:4531   */\n      dup3\n        /* \"#utility.yul\":4521:4587   */\n      mstore\n        /* \"#utility.yul\":4430:4593   */\n      pop\n      pop\n      jump\t// out\n        /* \"#utility.yul\":4599:4853   */\n    tag_24:\n        /* \"#utility.yul\":4708:4712   */\n      0x00\n        /* \"#utility.yul\":4746:4748   */\n      0x20\n        /* \"#utility.yul\":4735:4744   */\n      dup3\n        /* \"#utility.yul\":4731:4749   */\n      add\n        /* \"#utility.yul\":4723:4749   */\n      swap1\n      pop\n        /* \"#utility.yul\":4759:4846   */\n      tag_114\n        /* \"#utility.yul\":4843:4844   */\n      0x00\n        /* \"#utility.yul\":4832:4841   */\n      dup4\n        /* \"#utility.yul\":4828:4845   */\n      add\n        /* \"#utility.yul\":4819:4825   */\n      dup5\n        /* \"#utility.yul\":4759:4846   */\n      tag_55\n      jump\t// in\n    tag_114:\n        /* \"#utility.yul\":4599:4853   */\n      swap3\n      swap2\n      pop\n      pop\n      jump\t// out\n\n    auxdata: 0xa264697066735822122051dc1eada3cf6b13df9403ff61d8c82b8df64dc428738fa4e24406915d146d4c64736f6c634300081a0033\n}\n",
				"bytecode": {
					"linkReferences": {},
					"object": "6080604052348015600e575f80fd5b506105198061001c5f395ff3fe608060405234801561000f575f80fd5b5060043610610029575f3560e01c80637c62cef51461002d575b5f80fd5b6100476004803603810190610042919061030c565b61005d565b6040516100549190610351565b60405180910390f35b5f805f8373ffffffffffffffffffffffffffffffffffffffff166301ffc9a760e01b6301ffc9a760405160240161009491906103bb565b604051602081830303815290604052907bffffffffffffffffffffffffffffffffffffffffffffffffffffffff19166020820180517bffffffffffffffffffffffffffffffffffffffffffffffffffffffff83818316178352505050506040516100fe9190610426565b5f60405180830381855afa9150503d805f8114610136576040519150601f19603f3d011682016040523d82523d5f602084013e61013b565b606091505b509150915081158061014e575060208151105b1561015d575f925050506102a9565b5f818060200190518101906101729190610466565b905080610184575f93505050506102a9565b8473ffffffffffffffffffffffffffffffffffffffff166301ffc9a760e01b63ffffffff6040516024016101b891906104ca565b604051602081830303815290604052907bffffffffffffffffffffffffffffffffffffffffffffffffffffffff19166020820180517bffffffffffffffffffffffffffffffffffffffffffffffffffffffff83818316178352505050506040516102229190610426565b5f60405180830381855afa9150503d805f811461025a576040519150601f19603f3d011682016040523d82523d5f602084013e61025f565b606091505b508093508194505050821580610276575060208251105b806102915750818060200190518101906102909190610466565b5b156102a1575f93505050506102a9565b600193505050505b919050565b5f80fd5b5f73ffffffffffffffffffffffffffffffffffffffff82169050919050565b5f6102db826102b2565b9050919050565b6102eb816102d1565b81146102f5575f80fd5b50565b5f81359050610306816102e2565b92915050565b5f60208284031215610321576103206102ae565b5b5f61032e848285016102f8565b91505092915050565b5f8115159050919050565b61034b81610337565b82525050565b5f6020820190506103645f830184610342565b92915050565b5f819050919050565b5f63ffffffff82169050919050565b5f819050919050565b5f6103a56103a061039b8461036a565b610382565b610373565b9050919050565b6103b58161038b565b82525050565b5f6020820190506103ce5f8301846103ac565b92915050565b5f81519050919050565b5f81905092915050565b8281835e5f83830152505050565b5f610400826103d4565b61040a81856103de565b935061041a8185602086016103e8565b80840191505092915050565b5f61043182846103f6565b915081905092915050565b61044581610337565b811461044f575f80fd5b50565b5f815190506104608161043c565b92915050565b5f6020828403121561047b5761047a6102ae565b5b5f61048884828501610452565b91505092915050565b5f819050919050565b5f6104b46104af6104aa84610491565b610382565b610373565b9050919050565b6104c48161049a565b82525050565b5f6020820190506104dd5f8301846104bb565b9291505056fea264697066735822122051dc1eada3cf6b13df9403ff61d8c82b8df64dc428738fa4e24406915d146d4c64736f6c634300081a0033",
					"opcodes": "PUSH1 0x80 PUSH1 0x40 MSTORE CALLVALUE DUP1 ISZERO PUSH1 0xE JUMPI PUSH0 DUP1 REVERT JUMPDEST POP PUSH2 0x519 DUP1 PUSH2 0x1C PUSH0 CODECOPY PUSH0 RETURN INVALID PUSH1 0x80 PUSH1 0x40 MSTORE CALLVALUE DUP1 ISZERO PUSH2 0xF JUMPI PUSH0 DUP1 REVERT JUMPDEST POP PUSH1 0x4 CALLDATASIZE LT PUSH2 0x29 JUMPI PUSH0 CALLDATALOAD PUSH1 0xE0 SHR DUP1 PUSH4 0x7C62CEF5 EQ PUSH2 0x2D JUMPI JUMPDEST PUSH0 DUP1 REVERT JUMPDEST PUSH2 0x47 PUSH1 0x4 DUP1 CALLDATASIZE SUB DUP2 ADD SWAP1 PUSH2 0x42 SWAP2 SWAP1 PUSH2 0x30C JUMP JUMPDEST PUSH2 0x5D JUMP JUMPDEST PUSH1 0x40 MLOAD PUSH2 0x54 SWAP2 SWAP1 PUSH2 0x351 JUMP JUMPDEST PUSH1 0x40 MLOAD DUP1 SWAP2 SUB SWAP1 RETURN JUMPDEST PUSH0 DUP1 PUSH0 DUP4 PUSH20 0xFFFFFFFFFFFFFFFFFFFFFFFFFFFFFFFFFFFFFFFF AND PUSH4 0x1FFC9A7 PUSH1 0xE0 SHL PUSH4 0x1FFC9A7 PUSH1 0x40 MLOAD PUSH1 0x24 ADD PUSH2 0x94 SWAP2 SWAP1 PUSH2 0x3BB JUMP JUMPDEST PUSH1 0x40 MLOAD PUSH1 0x20 DUP2 DUP4 SUB SUB DUP2 MSTORE SWAP1 PUSH1 0x40 MSTORE SWAP1 PUSH28 0xFFFFFFFFFFFFFFFFFFFFFFFFFFFFFFFFFFFFFFFFFFFFFFFFFFFFFFFF NOT AND PUSH1 0x20 DUP3 ADD DUP1 MLOAD PUSH28 0xFFFFFFFFFFFFFFFFFFFFFFFFFFFFFFFFFFFFFFFFFFFFFFFFFFFFFFFF DUP4 DUP2 DUP4 AND OR DUP4 MSTORE POP POP POP POP PUSH1 0x40 MLOAD PUSH2 0xFE SWAP2 SWAP1 PUSH2 0x426 JUMP JUMPDEST PUSH0 PUSH1 0x40 MLOAD DUP1 DUP4 SUB DUP2 DUP6 GAS STATICCALL SWAP2 POP POP RETURNDATASIZE DUP1 PUSH0 DUP2 EQ PUSH2 0x136 JUMPI PUSH1 0x40 MLOAD SWAP2 POP PUSH1 0x1F NOT PUSH1 0x3F RETURNDATASIZE ADD AND DUP3 ADD PUSH1 0x40 MSTORE RETURNDATASIZE DUP3 MSTORE RETURNDATASIZE PUSH0 PUSH1 0x20 DUP5 ADD RETURNDATACOPY PUSH2 0x13B JUMP JUMPDEST PUSH1 0x60 SWAP2 POP JUMPDEST POP SWAP2 POP SWAP2 POP DUP2 ISZERO DUP1 PUSH2 0x14E JUMPI POP PUSH1 0x20 DUP2 MLOAD LT JUMPDEST ISZERO PUSH2 0x15D JUMPI PUSH0 SWAP3 POP POP POP PUSH2 0x2A9 JUMP JUMPDEST PUSH0 DUP2 DUP1 PUSH1 0x20 ADD SWAP1 MLOAD DUP2 ADD SWAP1 PUSH2 0x172 SWAP2 SWAP1 PUSH2 0x466 JUMP JUMPDEST SWAP1 POP DUP1 PUSH2 0x184 JUMPI PUSH0 SWAP4 POP POP POP POP PUSH2 0x2A9 JUMP JUMPDEST DUP5 PUSH20 0xFFFFFFFFFFFFFFFFFFFFFFFFFFFFFFFFFFFFFFFF AND PUSH4 0x1FFC9A7 PUSH1 0xE0 SHL PUSH4 0xFFFFFFFF PUSH1 0x40 MLOAD PUSH1 0x24 ADD PUSH2 0x1B8 SWAP2 SWAP1 PUSH2 0x4CA JUMP JUMPDEST PUSH1 0x40 MLOAD PUSH1 0x20 DUP2 DUP4 SUB SUB DUP2 MSTORE SWAP1 PUSH1 0x40 MSTORE SWAP1 PUSH28 0xFFFFFFFFFFFFFFFFFFFFFFFFFFFFFFFFFFFFFFFFFFFFFFFFFFFFFFFF NOT AND PUSH1 0x20 DUP3 ADD DUP1 MLOAD PUSH28 0xFFFFFFFFFFFFFFFFFFFFFFFFFFFFFFFFFFFFFFFFFFFFFFFFFFFFFFFF DUP4 DUP2 DUP4 AND OR DUP4 MSTORE POP POP POP POP PUSH1 0x40 MLOAD PUSH2 0x222 SWAP2 SWAP1 PUSH2 0x426 JUMP JUMPDEST PUSH0 PUSH1 0x40 MLOAD DUP1 DUP4 SUB DUP2 DUP6 GAS STATICCALL SWAP2 POP POP RETURNDATASIZE DUP1 PUSH0 DUP2 EQ PUSH2 0x25A JUMPI PUSH1 0x40 MLOAD SWAP2 POP PUSH1 0x1F NOT PUSH1 0x3F RETURNDATASIZE ADD AND DUP3 ADD PUSH1 0x40 MSTORE RETURNDATASIZE DUP3 MSTORE RETURNDATASIZE PUSH0 PUSH1 0x20 DUP5 ADD RETURNDATACOPY PUSH2 0x25F JUMP JUMPDEST PUSH1 0x60 SWAP2 POP JUMPDEST POP DUP1 SWAP4 POP DUP2 SWAP5 POP POP POP DUP3 ISZERO DUP1 PUSH2 0x276 JUMPI POP PUSH1 0x20 DUP3 MLOAD LT JUMPDEST DUP1 PUSH2 0x291 JUMPI POP DUP2 DUP1 PUSH1 0x20 ADD SWAP1 MLOAD DUP2 ADD SWAP1 PUSH2 0x290 SWAP2 SWAP1 PUSH2 0x466 JUMP JUMPDEST JUMPDEST ISZERO PUSH2 0x2A1 JUMPI PUSH0 SWAP4 POP POP POP POP PUSH2 0x2A9 JUMP JUMPDEST PUSH1 0x1 SWAP4 POP POP POP POP JUMPDEST SWAP2 SWAP1 POP JUMP JUMPDEST PUSH0 DUP1 REVERT JUMPDEST PUSH0 PUSH20 0xFFFFFFFFFFFFFFFFFFFFFFFFFFFFFFFFFFFFFFFF DUP3 AND SWAP1 POP SWAP2 SWAP1 POP JUMP JUMPDEST PUSH0 PUSH2 0x2DB DUP3 PUSH2 0x2B2 JUMP JUMPDEST SWAP1 POP SWAP2 SWAP1 POP JUMP JUMPDEST PUSH2 0x2EB DUP2 PUSH2 0x2D1 JUMP JUMPDEST DUP2 EQ PUSH2 0x2F5 JUMPI PUSH0 DUP1 REVERT JUMPDEST POP JUMP JUMPDEST PUSH0 DUP2 CALLDATALOAD SWAP1 POP PUSH2 0x306 DUP2 PUSH2 0x2E2 JUMP JUMPDEST SWAP3 SWAP2 POP POP JUMP JUMPDEST PUSH0 PUSH1 0x20 DUP3 DUP5 SUB SLT ISZERO PUSH2 0x321 JUMPI PUSH2 0x320 PUSH2 0x2AE JUMP JUMPDEST JUMPDEST PUSH0 PUSH2 0x32E DUP5 DUP3 DUP6 ADD PUSH2 0x2F8 JUMP JUMPDEST SWAP2 POP POP SWAP3 SWAP2 POP POP JUMP JUMPDEST PUSH0 DUP2 ISZERO ISZERO SWAP1 POP SWAP2 SWAP1 POP JUMP JUMPDEST PUSH2 0x34B DUP2 PUSH2 0x337 JUMP JUMPDEST DUP3 MSTORE POP POP JUMP JUMPDEST PUSH0 PUSH1 0x20 DUP3 ADD SWAP1 POP PUSH2 0x364 PUSH0 DUP4 ADD DUP5 PUSH2 0x342 JUMP JUMPDEST SWAP3 SWAP2 POP POP JUMP JUMPDEST PUSH0 DUP2 SWAP1 POP SWAP2 SWAP1 POP JUMP JUMPDEST PUSH0 PUSH4 0xFFFFFFFF DUP3 AND SWAP1 POP SWAP2 SWAP1 POP JUMP JUMPDEST PUSH0 DUP2 SWAP1 POP SWAP2 SWAP1 POP JUMP JUMPDEST PUSH0 PUSH2 0x3A5 PUSH2 0x3A0 PUSH2 0x39B DUP5 PUSH2 0x36A JUMP JUMPDEST PUSH2 0x382 JUMP JUMPDEST PUSH2 0x373 JUMP JUMPDEST SWAP1 POP SWAP2 SWAP1 POP JUMP JUMPDEST PUSH2 0x3B5 DUP2 PUSH2 0x38B JUMP JUMPDEST DUP3 MSTORE POP POP JUMP JUMPDEST PUSH0 PUSH1 0x20 DUP3 ADD SWAP1 POP PUSH2 0x3CE PUSH0 DUP4 ADD DUP5 PUSH2 0x3AC JUMP JUMPDEST SWAP3 SWAP2 POP POP JUMP JUMPDEST PUSH0 DUP2 MLOAD SWAP1 POP SWAP2 SWAP1 POP JUMP JUMPDEST PUSH0 DUP2 SWAP1 POP SWAP3 SWAP2 POP POP JUMP JUMPDEST DUP3 DUP2 DUP4 MCOPY PUSH0 DUP4 DUP4 ADD MSTORE POP POP POP JUMP JUMPDEST PUSH0 PUSH2 0x400 DUP3 PUSH2 0x3D4 JUMP JUMPDEST PUSH2 0x40A DUP2 DUP6 PUSH2 0x3DE JUMP JUMPDEST SWAP4 POP PUSH2 0x41A DUP2 DUP6 PUSH1 0x20 DUP7 ADD PUSH2 0x3E8 JUMP JUMPDEST DUP1 DUP5 ADD SWAP2 POP POP SWAP3 SWAP2 POP POP JUMP JUMPDEST PUSH0 PUSH2 0x431 DUP3 DUP5 PUSH2 0x3F6 JUMP JUMPDEST SWAP2 POP DUP2 SWAP1 POP SWAP3 SWAP2 POP POP JUMP JUMPDEST PUSH2 0x445 DUP2 PUSH2 0x337 JUMP JUMPDEST DUP2 EQ PUSH2 0x44F JUMPI PUSH0 DUP1 REVERT JUMPDEST POP JUMP JUMPDEST PUSH0 DUP2 MLOAD SWAP1 POP PUSH2 0x460 DUP2 PUSH2 0x43C JUMP JUMPDEST SWAP3 SWAP2 POP POP JUMP JUMPDEST PUSH0 PUSH1 0x20 DUP3 DUP5 SUB SLT ISZERO PUSH2 0x47B JUMPI PUSH2 0x47A PUSH2 0x2AE JUMP JUMPDEST JUMPDEST PUSH0 PUSH2 0x488 DUP5 DUP3 DUP6 ADD PUSH2 0x452 JUMP JUMPDEST SWAP2 POP POP SWAP3 SWAP2 POP POP JUMP JUMPDEST PUSH0 DUP2 SWAP1 POP SWAP2 SWAP1 POP JUMP JUMPDEST PUSH0 PUSH2 0x4B4 PUSH2 0x4AF PUSH2 0x4AA DUP5 PUSH2 0x491 JUMP JUMPDEST PUSH2 0x382 JUMP JUMPDEST PUSH2 0x373 JUMP JUMPDEST SWAP1 POP SWAP2 SWAP1 POP JUMP JUMPDEST PUSH2 0x4C4 DUP2 PUSH2 0x49A JUMP JUMPDEST DUP3 MSTORE POP POP JUMP JUMPDEST PUSH0 PUSH1 0x20 DUP3 ADD SWAP1 POP PUSH2 0x4DD PUSH0 DUP4 ADD DUP5 PUSH2 0x4BB JUMP JUMPDEST SWAP3 SWAP2 POP POP JUMP INVALID LOG2 PUSH5 0x6970667358 0x22 SLT KECCAK256 MLOAD 0xDC 0x1E 0xAD LOG3 0xCF PUSH12 0x13DF9403FF61D8C82B8DF64D 0xC4 0x28 PUSH20 0x8FA4E24406915D146D4C64736F6C634300081A00 CALLER "
				},
				"gasEstimates": {
					"creation": {
						"codeDepositCost": "261000",
						"executionCost": "298",
						"totalCost": "261298"
					},
					"external": {
						"checkERC165(address)": "infinite"
					}
				},
				"methodIdentifiers": {
					"checkERC165(address)": "7c62cef5"
				}
			},
			"storageLayout": {
				"storage": [],
				"types": null
			},
			"userdoc": {
				"kind": "user",
				"methods": {},
				"version": 1
			}
		}
	}
}