{
	"contracts/03/ERC165Registry.sol": {
		"ERC165Registry": {
			"abi": [
				{
					"inputs": [],
					"stateMutability": "nonpayable",
					"type": "constructor"
				},
				{
					"inputs": [
						{
							"internalType": "string",
							"name": "_interfaceName",
							"type": "string"
						}
					],
					"name": "interfaceHash",
					"outputs": [
						{
							"internalType": "bytes4",
							"name": "",
							"type": "bytes4"
						}
					],
					"stateMutability": "pure",
					"type": "function"
				},
				{
					"inputs": [
						{
							"internalType": "bytes4",
							"name": "interfaceId",
							"type": "bytes4"
						}
					],
					"name": "register",
					"outputs": [],
					"stateMutability": "nonpayable",
					"type": "function"
				},
				{
					"inputs": [
						{
							"internalType": "bytes4",
							"name": "interfaceId",
							"type": "bytes4"
						}
					],
					"name": "remove",
					"outputs": [],
					"stateMutability": "nonpayable",
					"type": "function"
				},
				{
					"inputs": [
						{
							"internalType": "bytes4",
							"name": "interfaceId",
							"type": "bytes4"
						}
					],
					"name": "supportsInterface",
					"outputs": [
						{
							"internalType": "bool",
							"name": "",
							"type": "bool"
						}
					],
					"stateMutability": "view",
					"type": "function"
				}
			],
			"devdoc": {
				"kind": "dev",
				"methods": {},
				"version": 1
			},
			"evm": {
				"assembly": "    /* \"contracts/03/ERC165Registry.sol\":109:1948  contract ERC165Registry is IERC165 {... */\n  mstore(0x40, 0x80)\n    /* \"contracts/03/ERC165Registry.sol\":332:391  constructor() {... */\n  callvalue\n  dup1\n  iszero\n  tag_1\n  jumpi\n  0x00\n  dup1\n  revert\ntag_1:\n  pop\n    /* \"contracts/03/ERC165Registry.sol\":355:384  register(INTERFACE_ERC165_ID) */\n  tag_4\n    /* \"contracts/03/ERC165Registry.sol\":251:261  0x01ffc9a7 */\n  0x01ffc9a7\n    /* \"contracts/03/ERC165Registry.sol\":364:383  INTERFACE_ERC165_ID */\n  0xe0\n  shl\n    /* \"contracts/03/ERC165Registry.sol\":355:363  register */\n  shl(0x20, tag_5)\n    /* \"contracts/03/ERC165Registry.sol\":355:384  register(INTERFACE_ERC165_ID) */\n  0x20\n  shr\n  jump\t// in\ntag_4:\n    /* \"contracts/03/ERC165Registry.sol\":109:1948  contract ERC165Registry is IERC165 {... */\n  jump(tag_6)\n    /* \"contracts/03/ERC165Registry.sol\":1234:1435  function register(bytes4 interfaceId) public {... */\ntag_5:\n    /* \"contracts/03/ERC165Registry.sol\":1298:1328  supportsInterface(interfaceId) */\n  tag_8\n    /* \"contracts/03/ERC165Registry.sol\":1316:1327  interfaceId */\n  dup2\n    /* \"contracts/03/ERC165Registry.sol\":1298:1315  supportsInterface */\n  shl(0x20, tag_9)\n    /* \"contracts/03/ERC165Registry.sol\":1298:1328  supportsInterface(interfaceId) */\n  0x20\n  shr\n  jump\t// in\ntag_8:\n    /* \"contracts/03/ERC165Registry.sol\":1297:1328  !supportsInterface(interfaceId) */\n  iszero\n    /* \"contracts/03/ERC165Registry.sol\":1289:1376  require(!supportsInterface(interfaceId), \"Registering already registered interface id\") */\n  tag_10\n  jumpi\n  mload(0x40)\n  0x08c379a000000000000000000000000000000000000000000000000000000000\n  dup2\n  mstore\n  0x04\n  add\n  tag_11\n  swap1\n  tag_12\n  jump\t// in\ntag_11:\n  mload(0x40)\n  dup1\n  swap2\n  sub\n  swap1\n  revert\ntag_10:\n    /* \"contracts/03/ERC165Registry.sol\":1424:1428  true */\n  0x01\n    /* \"contracts/03/ERC165Registry.sol\":1386:1408  _supportedInterfacesId */\n  0x00\n    /* \"contracts/03/ERC165Registry.sol\":1386:1421  _supportedInterfacesId[interfaceId] */\n  dup1\n    /* \"contracts/03/ERC165Registry.sol\":1409:1420  interfaceId */\n  dup4\n    /* \"contracts/03/ERC165Registry.sol\":1386:1421  _supportedInterfacesId[interfaceId] */\n  not(0xffffffffffffffffffffffffffffffffffffffffffffffffffffffff)\n  and\n  not(0xffffffffffffffffffffffffffffffffffffffffffffffffffffffff)\n  and\n  dup2\n  mstore\n  0x20\n  add\n  swap1\n  dup2\n  mstore\n  0x20\n  add\n  0x00\n  keccak256\n  0x00\n    /* \"contracts/03/ERC165Registry.sol\":1386:1428  _supportedInterfacesId[interfaceId] = true */\n  0x0100\n  exp\n  dup2\n  sload\n  dup2\n  0xff\n  mul\n  not\n  and\n  swap1\n  dup4\n  iszero\n  iszero\n  mul\n  or\n  swap1\n  sstore\n  pop\n    /* \"contracts/03/ERC165Registry.sol\":1234:1435  function register(bytes4 interfaceId) public {... */\n  pop\n  jump\t// out\n    /* \"contracts/03/ERC165Registry.sol\":888:1228  function supportsInterface(bytes4 interfaceId) public view override returns (bool) {... */\ntag_9:\n    /* \"contracts/03/ERC165Registry.sol\":965:969  bool */\n  0x00\n    /* \"contracts/03/ERC165Registry.sol\":1000:1010  0x01ffc9a7 */\n  0x01ffc9a7\n    /* \"contracts/03/ERC165Registry.sol\":985:1010  interfaceId == 0x01ffc9a7 */\n  0xe0\n  shl\n    /* \"contracts/03/ERC165Registry.sol\":985:996  interfaceId */\n  dup3\n    /* \"contracts/03/ERC165Registry.sol\":985:1010  interfaceId == 0x01ffc9a7 */\n  not(0xffffffffffffffffffffffffffffffffffffffffffffffffffffffff)\n  and\n  eq\n    /* \"contracts/03/ERC165Registry.sol\":985:1039  interfaceId == 0x01ffc9a7 || interfaceId == 0x12345678 */\n  dup1\n  tag_14\n  jumpi\n  pop\n    /* \"contracts/03/ERC165Registry.sol\":1029:1039  0x12345678 */\n  0x12345678\n    /* \"contracts/03/ERC165Registry.sol\":1014:1039  interfaceId == 0x12345678 */\n  0xe0\n  shl\n    /* \"contracts/03/ERC165Registry.sol\":1014:1025  interfaceId */\n  dup3\n    /* \"contracts/03/ERC165Registry.sol\":1014:1039  interfaceId == 0x12345678 */\n  not(0xffffffffffffffffffffffffffffffffffffffffffffffffffffffff)\n  and\n  eq\n    /* \"contracts/03/ERC165Registry.sol\":985:1039  interfaceId == 0x01ffc9a7 || interfaceId == 0x12345678 */\ntag_14:\n    /* \"contracts/03/ERC165Registry.sol\":981:1222  if (interfaceId == 0x01ffc9a7 || interfaceId == 0x12345678) {... */\n  iszero\n  tag_15\n  jumpi\n    /* \"contracts/03/ERC165Registry.sol\":1062:1066  true */\n  0x01\n    /* \"contracts/03/ERC165Registry.sol\":1055:1066  return true */\n  swap1\n  pop\n  jump(tag_13)\n    /* \"contracts/03/ERC165Registry.sol\":981:1222  if (interfaceId == 0x01ffc9a7 || interfaceId == 0x12345678) {... */\ntag_15:\n    /* \"contracts/03/ERC165Registry.sol\":1097:1109  bool support */\n  0x00\n    /* \"contracts/03/ERC165Registry.sol\":1112:1134  _supportedInterfacesId */\n  dup1\n    /* \"contracts/03/ERC165Registry.sol\":1112:1147  _supportedInterfacesId[interfaceId] */\n  0x00\n    /* \"contracts/03/ERC165Registry.sol\":1135:1146  interfaceId */\n  dup5\n    /* \"contracts/03/ERC165Registry.sol\":1112:1147  _supportedInterfacesId[interfaceId] */\n  not(0xffffffffffffffffffffffffffffffffffffffffffffffffffffffff)\n  and\n  not(0xffffffffffffffffffffffffffffffffffffffffffffffffffffffff)\n  and\n  dup2\n  mstore\n  0x20\n  add\n  swap1\n  dup2\n  mstore\n  0x20\n  add\n  0x00\n  keccak256\n  0x00\n  swap1\n  sload\n  swap1\n  0x0100\n  exp\n  swap1\n  div\n  0xff\n  and\n    /* \"contracts/03/ERC165Registry.sol\":1097:1147  bool support = _supportedInterfacesId[interfaceId] */\n  swap1\n  pop\n    /* \"contracts/03/ERC165Registry.sol\":1204:1211  support */\n  dup1\n    /* \"contracts/03/ERC165Registry.sol\":1197:1211  return support */\n  swap2\n  pop\n  pop\n    /* \"contracts/03/ERC165Registry.sol\":888:1228  function supportsInterface(bytes4 interfaceId) public view override returns (bool) {... */\ntag_13:\n  swap2\n  swap1\n  pop\n  jump\t// out\n    /* \"#utility.yul\":7:176   */\ntag_17:\n    /* \"#utility.yul\":91:102   */\n  0x00\n    /* \"#utility.yul\":125:131   */\n  dup3\n    /* \"#utility.yul\":120:123   */\n  dup3\n    /* \"#utility.yul\":113:132   */\n  mstore\n    /* \"#utility.yul\":165:169   */\n  0x20\n    /* \"#utility.yul\":160:163   */\n  dup3\n    /* \"#utility.yul\":156:170   */\n  add\n    /* \"#utility.yul\":141:170   */\n  swap1\n  pop\n    /* \"#utility.yul\":7:176   */\n  swap3\n  swap2\n  pop\n  pop\n  jump\t// out\n    /* \"#utility.yul\":182:412   */\ntag_18:\n    /* \"#utility.yul\":322:356   */\n  0x5265676973746572696e6720616c726561647920726567697374657265642069\n    /* \"#utility.yul\":318:319   */\n  0x00\n    /* \"#utility.yul\":310:316   */\n  dup3\n    /* \"#utility.yul\":306:320   */\n  add\n    /* \"#utility.yul\":299:357   */\n  mstore\n    /* \"#utility.yul\":391:404   */\n  0x6e74657266616365206964000000000000000000000000000000000000000000\n    /* \"#utility.yul\":386:388   */\n  0x20\n    /* \"#utility.yul\":378:384   */\n  dup3\n    /* \"#utility.yul\":374:389   */\n  add\n    /* \"#utility.yul\":367:405   */\n  mstore\n    /* \"#utility.yul\":182:412   */\n  pop\n  jump\t// out\n    /* \"#utility.yul\":418:784   */\ntag_19:\n    /* \"#utility.yul\":560:563   */\n  0x00\n    /* \"#utility.yul\":581:648   */\n  tag_24\n    /* \"#utility.yul\":645:647   */\n  0x2b\n    /* \"#utility.yul\":640:643   */\n  dup4\n    /* \"#utility.yul\":581:648   */\n  tag_17\n  jump\t// in\ntag_24:\n    /* \"#utility.yul\":574:648   */\n  swap2\n  pop\n    /* \"#utility.yul\":657:750   */\n  tag_25\n    /* \"#utility.yul\":746:749   */\n  dup3\n    /* \"#utility.yul\":657:750   */\n  tag_18\n  jump\t// in\ntag_25:\n    /* \"#utility.yul\":775:777   */\n  0x40\n    /* \"#utility.yul\":770:773   */\n  dup3\n    /* \"#utility.yul\":766:778   */\n  add\n    /* \"#utility.yul\":759:778   */\n  swap1\n  pop\n    /* \"#utility.yul\":418:784   */\n  swap2\n  swap1\n  pop\n  jump\t// out\n    /* \"#utility.yul\":790:1209   */\ntag_12:\n    /* \"#utility.yul\":956:960   */\n  0x00\n    /* \"#utility.yul\":994:996   */\n  0x20\n    /* \"#utility.yul\":983:992   */\n  dup3\n    /* \"#utility.yul\":979:997   */\n  add\n    /* \"#utility.yul\":971:997   */\n  swap1\n  pop\n    /* \"#utility.yul\":1043:1052   */\n  dup2\n    /* \"#utility.yul\":1037:1041   */\n  dup2\n    /* \"#utility.yul\":1033:1053   */\n  sub\n    /* \"#utility.yul\":1029:1030   */\n  0x00\n    /* \"#utility.yul\":1018:1027   */\n  dup4\n    /* \"#utility.yul\":1014:1031   */\n  add\n    /* \"#utility.yul\":1007:1054   */\n  mstore\n    /* \"#utility.yul\":1071:1202   */\n  tag_27\n    /* \"#utility.yul\":1197:1201   */\n  dup2\n    /* \"#utility.yul\":1071:1202   */\n  tag_19\n  jump\t// in\ntag_27:\n    /* \"#utility.yul\":1063:1202   */\n  swap1\n  pop\n    /* \"#utility.yul\":790:1209   */\n  swap2\n  swap1\n  pop\n  jump\t// out\n    /* \"contracts/03/ERC165Registry.sol\":109:1948  contract ERC165Registry is IERC165 {... */\ntag_6:\n  dataSize(sub_0)\n  dup1\n  dataOffset(sub_0)\n  0x00\n  codecopy\n  0x00\n  return\nstop\n\nsub_0: assembly {\n        /* \"contracts/03/ERC165Registry.sol\":109:1948  contract ERC165Registry is IERC165 {... */\n      mstore(0x40, 0x80)\n      callvalue\n      dup1\n      iszero\n      tag_1\n      jumpi\n      0x00\n      dup1\n      revert\n    tag_1:\n      pop\n      jumpi(tag_2, lt(calldatasize, 0x04))\n      shr(0xe0, calldataload(0x00))\n      dup1\n      0x01ffc9a7\n      eq\n      tag_3\n      jumpi\n      dup1\n      0x65ba36c1\n      eq\n      tag_4\n      jumpi\n      dup1\n      0xd6fb295f\n      eq\n      tag_5\n      jumpi\n      dup1\n      0xe7453ebc\n      eq\n      tag_6\n      jumpi\n    tag_2:\n      0x00\n      dup1\n      revert\n        /* \"contracts/03/ERC165Registry.sol\":888:1228  function supportsInterface(bytes4 interfaceId) public view override returns (bool) {... */\n    tag_3:\n      tag_7\n      0x04\n      dup1\n      calldatasize\n      sub\n      dup2\n      add\n      swap1\n      tag_8\n      swap2\n      swap1\n      tag_9\n      jump\t// in\n    tag_8:\n      tag_10\n      jump\t// in\n    tag_7:\n      mload(0x40)\n      tag_11\n      swap2\n      swap1\n      tag_12\n      jump\t// in\n    tag_11:\n      mload(0x40)\n      dup1\n      swap2\n      sub\n      swap1\n      return\n        /* \"contracts/03/ERC165Registry.sol\":1786:1946  function interfaceHash(string calldata _interfaceName) external pure returns(bytes4) {... */\n    tag_4:\n      tag_13\n      0x04\n      dup1\n      calldatasize\n      sub\n      dup2\n      add\n      swap1\n      tag_14\n      swap2\n      swap1\n      tag_15\n      jump\t// in\n    tag_14:\n      tag_16\n      jump\t// in\n    tag_13:\n      mload(0x40)\n      tag_17\n      swap2\n      swap1\n      tag_18\n      jump\t// in\n    tag_17:\n      mload(0x40)\n      dup1\n      swap2\n      sub\n      swap1\n      return\n        /* \"contracts/03/ERC165Registry.sol\":1234:1435  function register(bytes4 interfaceId) public {... */\n    tag_5:\n      tag_19\n      0x04\n      dup1\n      calldatasize\n      sub\n      dup2\n      add\n      swap1\n      tag_20\n      swap2\n      swap1\n      tag_9\n      jump\t// in\n    tag_20:\n      tag_21\n      jump\t// in\n    tag_19:\n      stop\n        /* \"contracts/03/ERC165Registry.sol\":1441:1658  function remove(bytes4 interfaceId) public {... */\n    tag_6:\n      tag_22\n      0x04\n      dup1\n      calldatasize\n      sub\n      dup2\n      add\n      swap1\n      tag_23\n      swap2\n      swap1\n      tag_9\n      jump\t// in\n    tag_23:\n      tag_24\n      jump\t// in\n    tag_22:\n      stop\n        /* \"contracts/03/ERC165Registry.sol\":888:1228  function supportsInterface(bytes4 interfaceId) public view override returns (bool) {... */\n    tag_10:\n        /* \"contracts/03/ERC165Registry.sol\":965:969  bool */\n      0x00\n        /* \"contracts/03/ERC165Registry.sol\":1000:1010  0x01ffc9a7 */\n      0x01ffc9a7\n        /* \"contracts/03/ERC165Registry.sol\":985:1010  interfaceId == 0x01ffc9a7 */\n      0xe0\n      shl\n        /* \"contracts/03/ERC165Registry.sol\":985:996  interfaceId */\n      dup3\n        /* \"contracts/03/ERC165Registry.sol\":985:1010  interfaceId == 0x01ffc9a7 */\n      not(0xffffffffffffffffffffffffffffffffffffffffffffffffffffffff)\n      and\n      eq\n        /* \"contracts/03/ERC165Registry.sol\":985:1039  interfaceId == 0x01ffc9a7 || interfaceId == 0x12345678 */\n      dup1\n      tag_26\n      jumpi\n      pop\n        /* \"contracts/03/ERC165Registry.sol\":1029:1039  0x12345678 */\n      0x12345678\n        /* \"contracts/03/ERC165Registry.sol\":1014:1039  interfaceId == 0x12345678 */\n      0xe0\n      shl\n        /* \"contracts/03/ERC165Registry.sol\":1014:1025  interfaceId */\n      dup3\n        /* \"contracts/03/ERC165Registry.sol\":1014:1039  interfaceId == 0x12345678 */\n      not(0xffffffffffffffffffffffffffffffffffffffffffffffffffffffff)\n      and\n      eq\n        /* \"contracts/03/ERC165Registry.sol\":985:1039  interfaceId == 0x01ffc9a7 || interfaceId == 0x12345678 */\n    tag_26:\n        /* \"contracts/03/ERC165Registry.sol\":981:1222  if (interfaceId == 0x01ffc9a7 || interfaceId == 0x12345678) {... */\n      iszero\n      tag_27\n      jumpi\n        /* \"contracts/03/ERC165Registry.sol\":1062:1066  true */\n      0x01\n        /* \"contracts/03/ERC165Registry.sol\":1055:1066  return true */\n      swap1\n      pop\n      jump(tag_25)\n        /* \"contracts/03/ERC165Registry.sol\":981:1222  if (interfaceId == 0x01ffc9a7 || interfaceId == 0x12345678) {... */\n    tag_27:\n        /* \"contracts/03/ERC165Registry.sol\":1097:1109  bool support */\n      0x00\n        /* \"contracts/03/ERC165Registry.sol\":1112:1134  _supportedInterfacesId */\n      dup1\n        /* \"contracts/03/ERC165Registry.sol\":1112:1147  _supportedInterfacesId[interfaceId] */\n      0x00\n        /* \"contracts/03/ERC165Registry.sol\":1135:1146  interfaceId */\n      dup5\n        /* \"contracts/03/ERC165Registry.sol\":1112:1147  _supportedInterfacesId[interfaceId] */\n      not(0xffffffffffffffffffffffffffffffffffffffffffffffffffffffff)\n      and\n      not(0xffffffffffffffffffffffffffffffffffffffffffffffffffffffff)\n      and\n      dup2\n      mstore\n      0x20\n      add\n      swap1\n      dup2\n      mstore\n      0x20\n      add\n      0x00\n      keccak256\n      0x00\n      swap1\n      sload\n      swap1\n      0x0100\n      exp\n      swap1\n      div\n      0xff\n      and\n        /* \"contracts/03/ERC165Registry.sol\":1097:1147  bool support = _supportedInterfacesId[interfaceId] */\n      swap1\n      pop\n        /* \"contracts/03/ERC165Registry.sol\":1204:1211  support */\n      dup1\n        /* \"contracts/03/ERC165Registry.sol\":1197:1211  return support */\n      swap2\n      pop\n      pop\n        /* \"contracts/03/ERC165Registry.sol\":888:1228  function supportsInterface(bytes4 interfaceId) public view override returns (bool) {... */\n    tag_25:\n      swap2\n      swap1\n      pop\n      jump\t// out\n        /* \"contracts/03/ERC165Registry.sol\":1786:1946  function interfaceHash(string calldata _interfaceName) external pure returns(bytes4) {... */\n    tag_16:\n        /* \"contracts/03/ERC165Registry.sol\":1863:1869  bytes4 */\n      0x00\n        /* \"contracts/03/ERC165Registry.sol\":1922:1936  _interfaceName */\n      dup3\n      dup3\n        /* \"contracts/03/ERC165Registry.sol\":1905:1937  abi.encodePacked(_interfaceName) */\n      add(0x20, mload(0x40))\n      tag_30\n      swap3\n      swap2\n      swap1\n      tag_31\n      jump\t// in\n    tag_30:\n      mload(0x40)\n      0x20\n      dup2\n      dup4\n      sub\n      sub\n      dup2\n      mstore\n      swap1\n      0x40\n      mstore\n        /* \"contracts/03/ERC165Registry.sol\":1895:1938  keccak256(abi.encodePacked(_interfaceName)) */\n      dup1\n      mload\n      swap1\n      0x20\n      add\n      keccak256\n        /* \"contracts/03/ERC165Registry.sol\":1881:1939  return bytes4(keccak256(abi.encodePacked(_interfaceName))) */\n      swap1\n      pop\n        /* \"contracts/03/ERC165Registry.sol\":1786:1946  function interfaceHash(string calldata _interfaceName) external pure returns(bytes4) {... */\n      swap3\n      swap2\n      pop\n      pop\n      jump\t// out\n        /* \"contracts/03/ERC165Registry.sol\":1234:1435  function register(bytes4 interfaceId) public {... */\n    tag_21:\n        /* \"contracts/03/ERC165Registry.sol\":1298:1328  supportsInterface(interfaceId) */\n      tag_33\n        /* \"contracts/03/ERC165Registry.sol\":1316:1327  interfaceId */\n      dup2\n        /* \"contracts/03/ERC165Registry.sol\":1298:1315  supportsInterface */\n      tag_10\n        /* \"contracts/03/ERC165Registry.sol\":1298:1328  supportsInterface(interfaceId) */\n      jump\t// in\n    tag_33:\n        /* \"contracts/03/ERC165Registry.sol\":1297:1328  !supportsInterface(interfaceId) */\n      iszero\n        /* \"contracts/03/ERC165Registry.sol\":1289:1376  require(!supportsInterface(interfaceId), \"Registering already registered interface id\") */\n      tag_34\n      jumpi\n      mload(0x40)\n      0x08c379a000000000000000000000000000000000000000000000000000000000\n      dup2\n      mstore\n      0x04\n      add\n      tag_35\n      swap1\n      tag_36\n      jump\t// in\n    tag_35:\n      mload(0x40)\n      dup1\n      swap2\n      sub\n      swap1\n      revert\n    tag_34:\n        /* \"contracts/03/ERC165Registry.sol\":1424:1428  true */\n      0x01\n        /* \"contracts/03/ERC165Registry.sol\":1386:1408  _supportedInterfacesId */\n      0x00\n        /* \"contracts/03/ERC165Registry.sol\":1386:1421  _supportedInterfacesId[interfaceId] */\n      dup1\n        /* \"contracts/03/ERC165Registry.sol\":1409:1420  interfaceId */\n      dup4\n        /* \"contracts/03/ERC165Registry.sol\":1386:1421  _supportedInterfacesId[interfaceId] */\n      not(0xffffffffffffffffffffffffffffffffffffffffffffffffffffffff)\n      and\n      not(0xffffffffffffffffffffffffffffffffffffffffffffffffffffffff)\n      and\n      dup2\n      mstore\n      0x20\n      add\n      swap1\n      dup2\n      mstore\n      0x20\n      add\n      0x00\n      keccak256\n      0x00\n        /* \"contracts/03/ERC165Registry.sol\":1386:1428  _supportedInterfacesId[interfaceId] = true */\n      0x0100\n      exp\n      dup2\n      sload\n      dup2\n      0xff\n      mul\n      not\n      and\n      swap1\n      dup4\n      iszero\n      iszero\n      mul\n      or\n      swap1\n      sstore\n      pop\n        /* \"contracts/03/ERC165Registry.sol\":1234:1435  function register(bytes4 interfaceId) public {... */\n      pop\n      jump\t// out\n        /* \"contracts/03/ERC165Registry.sol\":1441:1658  function remove(bytes4 interfaceId) public {... */\n    tag_24:\n        /* \"contracts/03/ERC165Registry.sol\":1502:1524  _supportedInterfacesId */\n      0x00\n        /* \"contracts/03/ERC165Registry.sol\":1502:1537  _supportedInterfacesId[interfaceId] */\n      dup1\n        /* \"contracts/03/ERC165Registry.sol\":1525:1536  interfaceId */\n      dup3\n        /* \"contracts/03/ERC165Registry.sol\":1502:1537  _supportedInterfacesId[interfaceId] */\n      not(0xffffffffffffffffffffffffffffffffffffffffffffffffffffffff)\n      and\n      not(0xffffffffffffffffffffffffffffffffffffffffffffffffffffffff)\n      and\n      dup2\n      mstore\n      0x20\n      add\n      swap1\n      dup2\n      mstore\n      0x20\n      add\n      0x00\n      keccak256\n      0x00\n      swap1\n      sload\n      swap1\n      0x0100\n      exp\n      swap1\n      div\n      0xff\n      and\n        /* \"contracts/03/ERC165Registry.sol\":1494:1583  require(_supportedInterfacesId[interfaceId], \"Unregistering not-registered interface id\") */\n      tag_38\n      jumpi\n      mload(0x40)\n      0x08c379a000000000000000000000000000000000000000000000000000000000\n      dup2\n      mstore\n      0x04\n      add\n      tag_39\n      swap1\n      tag_40\n      jump\t// in\n    tag_39:\n      mload(0x40)\n      dup1\n      swap2\n      sub\n      swap1\n      revert\n    tag_38:\n        /* \"contracts/03/ERC165Registry.sol\":1600:1622  _supportedInterfacesId */\n      0x00\n        /* \"contracts/03/ERC165Registry.sol\":1600:1635  _supportedInterfacesId[interfaceId] */\n      dup1\n        /* \"contracts/03/ERC165Registry.sol\":1623:1634  interfaceId */\n      dup3\n        /* \"contracts/03/ERC165Registry.sol\":1600:1635  _supportedInterfacesId[interfaceId] */\n      not(0xffffffffffffffffffffffffffffffffffffffffffffffffffffffff)\n      and\n      not(0xffffffffffffffffffffffffffffffffffffffffffffffffffffffff)\n      and\n      dup2\n      mstore\n      0x20\n      add\n      swap1\n      dup2\n      mstore\n      0x20\n      add\n      0x00\n      keccak256\n      0x00\n        /* \"contracts/03/ERC165Registry.sol\":1593:1635  delete _supportedInterfacesId[interfaceId] */\n      0x0100\n      exp\n      dup2\n      sload\n      swap1\n      0xff\n      mul\n      not\n      and\n      swap1\n      sstore\n        /* \"contracts/03/ERC165Registry.sol\":1441:1658  function remove(bytes4 interfaceId) public {... */\n      pop\n      jump\t// out\n        /* \"#utility.yul\":88:205   */\n    tag_42:\n        /* \"#utility.yul\":197:198   */\n      0x00\n        /* \"#utility.yul\":194:195   */\n      dup1\n        /* \"#utility.yul\":187:199   */\n      revert\n        /* \"#utility.yul\":211:328   */\n    tag_43:\n        /* \"#utility.yul\":320:321   */\n      0x00\n        /* \"#utility.yul\":317:318   */\n      dup1\n        /* \"#utility.yul\":310:322   */\n      revert\n        /* \"#utility.yul\":334:483   */\n    tag_44:\n        /* \"#utility.yul\":370:377   */\n      0x00\n        /* \"#utility.yul\":410:476   */\n      0xffffffff00000000000000000000000000000000000000000000000000000000\n        /* \"#utility.yul\":403:408   */\n      dup3\n        /* \"#utility.yul\":399:477   */\n      and\n        /* \"#utility.yul\":388:477   */\n      swap1\n      pop\n        /* \"#utility.yul\":334:483   */\n      swap2\n      swap1\n      pop\n      jump\t// out\n        /* \"#utility.yul\":489:609   */\n    tag_45:\n        /* \"#utility.yul\":561:584   */\n      tag_68\n        /* \"#utility.yul\":578:583   */\n      dup2\n        /* \"#utility.yul\":561:584   */\n      tag_44\n      jump\t// in\n    tag_68:\n        /* \"#utility.yul\":554:559   */\n      dup2\n        /* \"#utility.yul\":551:585   */\n      eq\n        /* \"#utility.yul\":541:603   */\n      tag_69\n      jumpi\n        /* \"#utility.yul\":599:600   */\n      0x00\n        /* \"#utility.yul\":596:597   */\n      dup1\n        /* \"#utility.yul\":589:601   */\n      revert\n        /* \"#utility.yul\":541:603   */\n    tag_69:\n        /* \"#utility.yul\":489:609   */\n      pop\n      jump\t// out\n        /* \"#utility.yul\":615:752   */\n    tag_46:\n        /* \"#utility.yul\":660:665   */\n      0x00\n        /* \"#utility.yul\":698:704   */\n      dup2\n        /* \"#utility.yul\":685:705   */\n      calldataload\n        /* \"#utility.yul\":676:705   */\n      swap1\n      pop\n        /* \"#utility.yul\":714:746   */\n      tag_71\n        /* \"#utility.yul\":740:745   */\n      dup2\n        /* \"#utility.yul\":714:746   */\n      tag_45\n      jump\t// in\n    tag_71:\n        /* \"#utility.yul\":615:752   */\n      swap3\n      swap2\n      pop\n      pop\n      jump\t// out\n        /* \"#utility.yul\":758:1085   */\n    tag_9:\n        /* \"#utility.yul\":816:822   */\n      0x00\n        /* \"#utility.yul\":865:867   */\n      0x20\n        /* \"#utility.yul\":853:862   */\n      dup3\n        /* \"#utility.yul\":844:851   */\n      dup5\n        /* \"#utility.yul\":840:863   */\n      sub\n        /* \"#utility.yul\":836:868   */\n      slt\n        /* \"#utility.yul\":833:952   */\n      iszero\n      tag_73\n      jumpi\n        /* \"#utility.yul\":871:950   */\n      tag_74\n      tag_42\n      jump\t// in\n    tag_74:\n        /* \"#utility.yul\":833:952   */\n    tag_73:\n        /* \"#utility.yul\":991:992   */\n      0x00\n        /* \"#utility.yul\":1016:1068   */\n      tag_75\n        /* \"#utility.yul\":1060:1067   */\n      dup5\n        /* \"#utility.yul\":1051:1057   */\n      dup3\n        /* \"#utility.yul\":1040:1049   */\n      dup6\n        /* \"#utility.yul\":1036:1058   */\n      add\n        /* \"#utility.yul\":1016:1068   */\n      tag_46\n      jump\t// in\n    tag_75:\n        /* \"#utility.yul\":1006:1068   */\n      swap2\n      pop\n        /* \"#utility.yul\":962:1078   */\n      pop\n        /* \"#utility.yul\":758:1085   */\n      swap3\n      swap2\n      pop\n      pop\n      jump\t// out\n        /* \"#utility.yul\":1091:1181   */\n    tag_47:\n        /* \"#utility.yul\":1125:1132   */\n      0x00\n        /* \"#utility.yul\":1168:1173   */\n      dup2\n        /* \"#utility.yul\":1161:1174   */\n      iszero\n        /* \"#utility.yul\":1154:1175   */\n      iszero\n        /* \"#utility.yul\":1143:1175   */\n      swap1\n      pop\n        /* \"#utility.yul\":1091:1181   */\n      swap2\n      swap1\n      pop\n      jump\t// out\n        /* \"#utility.yul\":1187:1296   */\n    tag_48:\n        /* \"#utility.yul\":1268:1289   */\n      tag_78\n        /* \"#utility.yul\":1283:1288   */\n      dup2\n        /* \"#utility.yul\":1268:1289   */\n      tag_47\n      jump\t// in\n    tag_78:\n        /* \"#utility.yul\":1263:1266   */\n      dup3\n        /* \"#utility.yul\":1256:1290   */\n      mstore\n        /* \"#utility.yul\":1187:1296   */\n      pop\n      pop\n      jump\t// out\n        /* \"#utility.yul\":1302:1512   */\n    tag_12:\n        /* \"#utility.yul\":1389:1393   */\n      0x00\n        /* \"#utility.yul\":1427:1429   */\n      0x20\n        /* \"#utility.yul\":1416:1425   */\n      dup3\n        /* \"#utility.yul\":1412:1430   */\n      add\n        /* \"#utility.yul\":1404:1430   */\n      swap1\n      pop\n        /* \"#utility.yul\":1440:1505   */\n      tag_80\n        /* \"#utility.yul\":1502:1503   */\n      0x00\n        /* \"#utility.yul\":1491:1500   */\n      dup4\n        /* \"#utility.yul\":1487:1504   */\n      add\n        /* \"#utility.yul\":1478:1484   */\n      dup5\n        /* \"#utility.yul\":1440:1505   */\n      tag_48\n      jump\t// in\n    tag_80:\n        /* \"#utility.yul\":1302:1512   */\n      swap3\n      swap2\n      pop\n      pop\n      jump\t// out\n        /* \"#utility.yul\":1518:1635   */\n    tag_49:\n        /* \"#utility.yul\":1627:1628   */\n      0x00\n        /* \"#utility.yul\":1624:1625   */\n      dup1\n        /* \"#utility.yul\":1617:1629   */\n      revert\n        /* \"#utility.yul\":1641:1758   */\n    tag_50:\n        /* \"#utility.yul\":1750:1751   */\n      0x00\n        /* \"#utility.yul\":1747:1748   */\n      dup1\n        /* \"#utility.yul\":1740:1752   */\n      revert\n        /* \"#utility.yul\":1764:1881   */\n    tag_51:\n        /* \"#utility.yul\":1873:1874   */\n      0x00\n        /* \"#utility.yul\":1870:1871   */\n      dup1\n        /* \"#utility.yul\":1863:1875   */\n      revert\n        /* \"#utility.yul\":1901:2454   */\n    tag_52:\n        /* \"#utility.yul\":1959:1967   */\n      0x00\n        /* \"#utility.yul\":1969:1975   */\n      dup1\n        /* \"#utility.yul\":2019:2022   */\n      dup4\n        /* \"#utility.yul\":2012:2016   */\n      0x1f\n        /* \"#utility.yul\":2004:2010   */\n      dup5\n        /* \"#utility.yul\":2000:2017   */\n      add\n        /* \"#utility.yul\":1996:2023   */\n      slt\n        /* \"#utility.yul\":1986:2108   */\n      tag_85\n      jumpi\n        /* \"#utility.yul\":2027:2106   */\n      tag_86\n      tag_49\n      jump\t// in\n    tag_86:\n        /* \"#utility.yul\":1986:2108   */\n    tag_85:\n        /* \"#utility.yul\":2140:2146   */\n      dup3\n        /* \"#utility.yul\":2127:2147   */\n      calldataload\n        /* \"#utility.yul\":2117:2147   */\n      swap1\n      pop\n        /* \"#utility.yul\":2170:2188   */\n      0xffffffffffffffff\n        /* \"#utility.yul\":2162:2168   */\n      dup2\n        /* \"#utility.yul\":2159:2189   */\n      gt\n        /* \"#utility.yul\":2156:2273   */\n      iszero\n      tag_87\n      jumpi\n        /* \"#utility.yul\":2192:2271   */\n      tag_88\n      tag_50\n      jump\t// in\n    tag_88:\n        /* \"#utility.yul\":2156:2273   */\n    tag_87:\n        /* \"#utility.yul\":2306:2310   */\n      0x20\n        /* \"#utility.yul\":2298:2304   */\n      dup4\n        /* \"#utility.yul\":2294:2311   */\n      add\n        /* \"#utility.yul\":2282:2311   */\n      swap2\n      pop\n        /* \"#utility.yul\":2360:2363   */\n      dup4\n        /* \"#utility.yul\":2352:2356   */\n      0x01\n        /* \"#utility.yul\":2344:2350   */\n      dup3\n        /* \"#utility.yul\":2340:2357   */\n      mul\n        /* \"#utility.yul\":2330:2338   */\n      dup4\n        /* \"#utility.yul\":2326:2358   */\n      add\n        /* \"#utility.yul\":2323:2364   */\n      gt\n        /* \"#utility.yul\":2320:2448   */\n      iszero\n      tag_89\n      jumpi\n        /* \"#utility.yul\":2367:2446   */\n      tag_90\n      tag_51\n      jump\t// in\n    tag_90:\n        /* \"#utility.yul\":2320:2448   */\n    tag_89:\n        /* \"#utility.yul\":1901:2454   */\n      swap3\n      pop\n      swap3\n      swap1\n      pop\n      jump\t// out\n        /* \"#utility.yul\":2460:2989   */\n    tag_15:\n        /* \"#utility.yul\":2531:2537   */\n      0x00\n        /* \"#utility.yul\":2539:2545   */\n      dup1\n        /* \"#utility.yul\":2588:2590   */\n      0x20\n        /* \"#utility.yul\":2576:2585   */\n      dup4\n        /* \"#utility.yul\":2567:2574   */\n      dup6\n        /* \"#utility.yul\":2563:2586   */\n      sub\n        /* \"#utility.yul\":2559:2591   */\n      slt\n        /* \"#utility.yul\":2556:2675   */\n      iszero\n      tag_92\n      jumpi\n        /* \"#utility.yul\":2594:2673   */\n      tag_93\n      tag_42\n      jump\t// in\n    tag_93:\n        /* \"#utility.yul\":2556:2675   */\n    tag_92:\n        /* \"#utility.yul\":2742:2743   */\n      0x00\n        /* \"#utility.yul\":2731:2740   */\n      dup4\n        /* \"#utility.yul\":2727:2744   */\n      add\n        /* \"#utility.yul\":2714:2745   */\n      calldataload\n        /* \"#utility.yul\":2772:2790   */\n      0xffffffffffffffff\n        /* \"#utility.yul\":2764:2770   */\n      dup2\n        /* \"#utility.yul\":2761:2791   */\n      gt\n        /* \"#utility.yul\":2758:2875   */\n      iszero\n      tag_94\n      jumpi\n        /* \"#utility.yul\":2794:2873   */\n      tag_95\n      tag_43\n      jump\t// in\n    tag_95:\n        /* \"#utility.yul\":2758:2875   */\n    tag_94:\n        /* \"#utility.yul\":2907:2972   */\n      tag_96\n        /* \"#utility.yul\":2964:2971   */\n      dup6\n        /* \"#utility.yul\":2955:2961   */\n      dup3\n        /* \"#utility.yul\":2944:2953   */\n      dup7\n        /* \"#utility.yul\":2940:2962   */\n      add\n        /* \"#utility.yul\":2907:2972   */\n      tag_52\n      jump\t// in\n    tag_96:\n        /* \"#utility.yul\":2889:2972   */\n      swap3\n      pop\n      swap3\n      pop\n        /* \"#utility.yul\":2685:2982   */\n      pop\n        /* \"#utility.yul\":2460:2989   */\n      swap3\n      pop\n      swap3\n      swap1\n      pop\n      jump\t// out\n        /* \"#utility.yul\":2995:3110   */\n    tag_53:\n        /* \"#utility.yul\":3080:3103   */\n      tag_98\n        /* \"#utility.yul\":3097:3102   */\n      dup2\n        /* \"#utility.yul\":3080:3103   */\n      tag_44\n      jump\t// in\n    tag_98:\n        /* \"#utility.yul\":3075:3078   */\n      dup3\n        /* \"#utility.yul\":3068:3104   */\n      mstore\n        /* \"#utility.yul\":2995:3110   */\n      pop\n      pop\n      jump\t// out\n        /* \"#utility.yul\":3116:3334   */\n    tag_18:\n        /* \"#utility.yul\":3207:3211   */\n      0x00\n        /* \"#utility.yul\":3245:3247   */\n      0x20\n        /* \"#utility.yul\":3234:3243   */\n      dup3\n        /* \"#utility.yul\":3230:3248   */\n      add\n        /* \"#utility.yul\":3222:3248   */\n      swap1\n      pop\n        /* \"#utility.yul\":3258:3327   */\n      tag_100\n        /* \"#utility.yul\":3324:3325   */\n      0x00\n        /* \"#utility.yul\":3313:3322   */\n      dup4\n        /* \"#utility.yul\":3309:3326   */\n      add\n        /* \"#utility.yul\":3300:3306   */\n      dup5\n        /* \"#utility.yul\":3258:3327   */\n      tag_53\n      jump\t// in\n    tag_100:\n        /* \"#utility.yul\":3116:3334   */\n      swap3\n      swap2\n      pop\n      pop\n      jump\t// out\n        /* \"#utility.yul\":3340:3488   */\n    tag_54:\n        /* \"#utility.yul\":3442:3453   */\n      0x00\n        /* \"#utility.yul\":3479:3482   */\n      dup2\n        /* \"#utility.yul\":3464:3482   */\n      swap1\n      pop\n        /* \"#utility.yul\":3340:3488   */\n      swap3\n      swap2\n      pop\n      pop\n      jump\t// out\n        /* \"#utility.yul\":3494:3642   */\n    tag_55:\n        /* \"#utility.yul\":3592:3598   */\n      dup3\n        /* \"#utility.yul\":3587:3590   */\n      dup2\n        /* \"#utility.yul\":3582:3585   */\n      dup4\n        /* \"#utility.yul\":3569:3599   */\n      calldatacopy\n        /* \"#utility.yul\":3633:3634   */\n      0x00\n        /* \"#utility.yul\":3624:3630   */\n      dup4\n        /* \"#utility.yul\":3619:3622   */\n      dup4\n        /* \"#utility.yul\":3615:3631   */\n      add\n        /* \"#utility.yul\":3608:3635   */\n      mstore\n        /* \"#utility.yul\":3494:3642   */\n      pop\n      pop\n      pop\n      jump\t// out\n        /* \"#utility.yul\":3672:4002   */\n    tag_56:\n        /* \"#utility.yul\":3788:3791   */\n      0x00\n        /* \"#utility.yul\":3809:3898   */\n      tag_104\n        /* \"#utility.yul\":3891:3897   */\n      dup4\n        /* \"#utility.yul\":3886:3889   */\n      dup6\n        /* \"#utility.yul\":3809:3898   */\n      tag_54\n      jump\t// in\n    tag_104:\n        /* \"#utility.yul\":3802:3898   */\n      swap4\n      pop\n        /* \"#utility.yul\":3908:3964   */\n      tag_105\n        /* \"#utility.yul\":3957:3963   */\n      dup4\n        /* \"#utility.yul\":3952:3955   */\n      dup6\n        /* \"#utility.yul\":3945:3950   */\n      dup5\n        /* \"#utility.yul\":3908:3964   */\n      tag_55\n      jump\t// in\n    tag_105:\n        /* \"#utility.yul\":3989:3995   */\n      dup3\n        /* \"#utility.yul\":3984:3987   */\n      dup5\n        /* \"#utility.yul\":3980:3996   */\n      add\n        /* \"#utility.yul\":3973:3996   */\n      swap1\n      pop\n        /* \"#utility.yul\":3672:4002   */\n      swap4\n      swap3\n      pop\n      pop\n      pop\n      jump\t// out\n        /* \"#utility.yul\":4008:4303   */\n    tag_31:\n        /* \"#utility.yul\":4150:4153   */\n      0x00\n        /* \"#utility.yul\":4172:4277   */\n      tag_107\n        /* \"#utility.yul\":4273:4276   */\n      dup3\n        /* \"#utility.yul\":4264:4270   */\n      dup5\n        /* \"#utility.yul\":4256:4262   */\n      dup7\n        /* \"#utility.yul\":4172:4277   */\n      tag_56\n      jump\t// in\n    tag_107:\n        /* \"#utility.yul\":4165:4277   */\n      swap2\n      pop\n        /* \"#utility.yul\":4294:4297   */\n      dup2\n        /* \"#utility.yul\":4287:4297   */\n      swap1\n      pop\n        /* \"#utility.yul\":4008:4303   */\n      swap4\n      swap3\n      pop\n      pop\n      pop\n      jump\t// out\n        /* \"#utility.yul\":4309:4478   */\n    tag_57:\n        /* \"#utility.yul\":4393:4404   */\n      0x00\n        /* \"#utility.yul\":4427:4433   */\n      dup3\n        /* \"#utility.yul\":4422:4425   */\n      dup3\n        /* \"#utility.yul\":4415:4434   */\n      mstore\n        /* \"#utility.yul\":4467:4471   */\n      0x20\n        /* \"#utility.yul\":4462:4465   */\n      dup3\n        /* \"#utility.yul\":4458:4472   */\n      add\n        /* \"#utility.yul\":4443:4472   */\n      swap1\n      pop\n        /* \"#utility.yul\":4309:4478   */\n      swap3\n      swap2\n      pop\n      pop\n      jump\t// out\n        /* \"#utility.yul\":4484:4714   */\n    tag_58:\n        /* \"#utility.yul\":4624:4658   */\n      0x5265676973746572696e6720616c726561647920726567697374657265642069\n        /* \"#utility.yul\":4620:4621   */\n      0x00\n        /* \"#utility.yul\":4612:4618   */\n      dup3\n        /* \"#utility.yul\":4608:4622   */\n      add\n        /* \"#utility.yul\":4601:4659   */\n      mstore\n        /* \"#utility.yul\":4693:4706   */\n      0x6e74657266616365206964000000000000000000000000000000000000000000\n        /* \"#utility.yul\":4688:4690   */\n      0x20\n        /* \"#utility.yul\":4680:4686   */\n      dup3\n        /* \"#utility.yul\":4676:4691   */\n      add\n        /* \"#utility.yul\":4669:4707   */\n      mstore\n        /* \"#utility.yul\":4484:4714   */\n      pop\n      jump\t// out\n        /* \"#utility.yul\":4720:5086   */\n    tag_59:\n        /* \"#utility.yul\":4862:4865   */\n      0x00\n        /* \"#utility.yul\":4883:4950   */\n      tag_111\n        /* \"#utility.yul\":4947:4949   */\n      0x2b\n        /* \"#utility.yul\":4942:4945   */\n      dup4\n        /* \"#utility.yul\":4883:4950   */\n      tag_57\n      jump\t// in\n    tag_111:\n        /* \"#utility.yul\":4876:4950   */\n      swap2\n      pop\n        /* \"#utility.yul\":4959:5052   */\n      tag_112\n        /* \"#utility.yul\":5048:5051   */\n      dup3\n        /* \"#utility.yul\":4959:5052   */\n      tag_58\n      jump\t// in\n    tag_112:\n        /* \"#utility.yul\":5077:5079   */\n      0x40\n        /* \"#utility.yul\":5072:5075   */\n      dup3\n        /* \"#utility.yul\":5068:5080   */\n      add\n        /* \"#utility.yul\":5061:5080   */\n      swap1\n      pop\n        /* \"#utility.yul\":4720:5086   */\n      swap2\n      swap1\n      pop\n      jump\t// out\n        /* \"#utility.yul\":5092:5511   */\n    tag_36:\n        /* \"#utility.yul\":5258:5262   */\n      0x00\n        /* \"#utility.yul\":5296:5298   */\n      0x20\n        /* \"#utility.yul\":5285:5294   */\n      dup3\n        /* \"#utility.yul\":5281:5299   */\n      add\n        /* \"#utility.yul\":5273:5299   */\n      swap1\n      pop\n        /* \"#utility.yul\":5345:5354   */\n      dup2\n        /* \"#utility.yul\":5339:5343   */\n      dup2\n        /* \"#utility.yul\":5335:5355   */\n      sub\n        /* \"#utility.yul\":5331:5332   */\n      0x00\n        /* \"#utility.yul\":5320:5329   */\n      dup4\n        /* \"#utility.yul\":5316:5333   */\n      add\n        /* \"#utility.yul\":5309:5356   */\n      mstore\n        /* \"#utility.yul\":5373:5504   */\n      tag_114\n        /* \"#utility.yul\":5499:5503   */\n      dup2\n        /* \"#utility.yul\":5373:5504   */\n      tag_59\n      jump\t// in\n    tag_114:\n        /* \"#utility.yul\":5365:5504   */\n      swap1\n      pop\n        /* \"#utility.yul\":5092:5511   */\n      swap2\n      swap1\n      pop\n      jump\t// out\n        /* \"#utility.yul\":5517:5745   */\n    tag_60:\n        /* \"#utility.yul\":5657:5691   */\n      0x556e7265676973746572696e67206e6f742d7265676973746572656420696e74\n        /* \"#utility.yul\":5653:5654   */\n      0x00\n        /* \"#utility.yul\":5645:5651   */\n      dup3\n        /* \"#utility.yul\":5641:5655   */\n      add\n        /* \"#utility.yul\":5634:5692   */\n      mstore\n        /* \"#utility.yul\":5726:5737   */\n      0x6572666163652069640000000000000000000000000000000000000000000000\n        /* \"#utility.yul\":5721:5723   */\n      0x20\n        /* \"#utility.yul\":5713:5719   */\n      dup3\n        /* \"#utility.yul\":5709:5724   */\n      add\n        /* \"#utility.yul\":5702:5738   */\n      mstore\n        /* \"#utility.yul\":5517:5745   */\n      pop\n      jump\t// out\n        /* \"#utility.yul\":5751:6117   */\n    tag_61:\n        /* \"#utility.yul\":5893:5896   */\n      0x00\n        /* \"#utility.yul\":5914:5981   */\n      tag_117\n        /* \"#utility.yul\":5978:5980   */\n      0x29\n        /* \"#utility.yul\":5973:5976   */\n      dup4\n        /* \"#utility.yul\":5914:5981   */\n      tag_57\n      jump\t// in\n    tag_117:\n        /* \"#utility.yul\":5907:5981   */\n      swap2\n      pop\n        /* \"#utility.yul\":5990:6083   */\n      tag_118\n        /* \"#utility.yul\":6079:6082   */\n      dup3\n        /* \"#utility.yul\":5990:6083   */\n      tag_60\n      jump\t// in\n    tag_118:\n        /* \"#utility.yul\":6108:6110   */\n      0x40\n        /* \"#utility.yul\":6103:6106   */\n      dup3\n        /* \"#utility.yul\":6099:6111   */\n      add\n        /* \"#utility.yul\":6092:6111   */\n      swap1\n      pop\n        /* \"#utility.yul\":5751:6117   */\n      swap2\n      swap1\n      pop\n      jump\t// out\n        /* \"#utility.yul\":6123:6542   */\n    tag_40:\n        /* \"#utility.yul\":6289:6293   */\n      0x00\n        /* \"#utility.yul\":6327:6329   */\n      0x20\n        /* \"#utility.yul\":6316:6325   */\n      dup3\n        /* \"#utility.yul\":6312:6330   */\n      add\n        /* \"#utility.yul\":6304:6330   */\n      swap1\n      pop\n        /* \"#utility.yul\":6376:6385   */\n      dup2\n        /* \"#utility.yul\":6370:6374   */\n      dup2\n        /* \"#utility.yul\":6366:6386   */\n      sub\n        /* \"#utility.yul\":6362:6363   */\n      0x00\n        /* \"#utility.yul\":6351:6360   */\n      dup4\n        /* \"#utility.yul\":6347:6364   */\n      add\n        /* \"#utility.yul\":6340:6387   */\n      mstore\n        /* \"#utility.yul\":6404:6535   */\n      tag_120\n        /* \"#utility.yul\":6530:6534   */\n      dup2\n        /* \"#utility.yul\":6404:6535   */\n      tag_61\n      jump\t// in\n    tag_120:\n        /* \"#utility.yul\":6396:6535   */\n      swap1\n      pop\n        /* \"#utility.yul\":6123:6542   */\n      swap2\n      swap1\n      pop\n      jump\t// out\n\n    auxdata: 0xa2646970667358221220db85c94eb7ca083d500cab1c0dcd18c533bda55f5c911958c87a79729cf0a12964736f6c634300081a0033\n}\n",
				"bytecode": {
					"linkReferences": {},
					"object": "608060405234801561000f575f80fd5b506100266301ffc9a760e01b61002b60201b60201c565b610251565b61003a816100e360201b60201c565b1561007a576040517f08c379a000000000000000000000000000000000000000000000000000000000815260040161007190610233565b60405180910390fd5b60015f80837bffffffffffffffffffffffffffffffffffffffffffffffffffffffff19167bffffffffffffffffffffffffffffffffffffffffffffffffffffffff191681526020019081526020015f205f6101000a81548160ff02191690831515021790555050565b5f6301ffc9a760e01b827bffffffffffffffffffffffffffffffffffffffffffffffffffffffff1916148061013d5750631234567860e01b827bffffffffffffffffffffffffffffffffffffffffffffffffffffffff1916145b1561014b57600190506101ae565b5f805f847bffffffffffffffffffffffffffffffffffffffffffffffffffffffff19167bffffffffffffffffffffffffffffffffffffffffffffffffffffffff191681526020019081526020015f205f9054906101000a900460ff169050809150505b919050565b5f82825260208201905092915050565b7f5265676973746572696e6720616c7265616479207265676973746572656420695f8201527f6e74657266616365206964000000000000000000000000000000000000000000602082015250565b5f61021d602b836101b3565b9150610228826101c3565b604082019050919050565b5f6020820190508181035f83015261024a81610211565b9050919050565b6106d98061025e5f395ff3fe608060405234801561000f575f80fd5b506004361061004a575f3560e01c806301ffc9a71461004e57806365ba36c11461007e578063d6fb295f146100ae578063e7453ebc146100ca575b5f80fd5b610068600480360381019061006391906103f1565b6100e6565b6040516100759190610436565b60405180910390f35b610098600480360381019061009391906104b0565b6101b6565b6040516100a5919061050a565b60405180910390f35b6100c860048036038101906100c391906103f1565b6101e8565b005b6100e460048036038101906100df91906103f1565b61029a565b005b5f6301ffc9a760e01b827bffffffffffffffffffffffffffffffffffffffffffffffffffffffff191614806101405750631234567860e01b827bffffffffffffffffffffffffffffffffffffffffffffffffffffffff1916145b1561014e57600190506101b1565b5f805f847bffffffffffffffffffffffffffffffffffffffffffffffffffffffff19167bffffffffffffffffffffffffffffffffffffffffffffffffffffffff191681526020019081526020015f205f9054906101000a900460ff169050809150505b919050565b5f82826040516020016101ca92919061055f565b60405160208183030381529060405280519060200120905092915050565b6101f1816100e6565b15610231576040517f08c379a0000000000000000000000000000000000000000000000000000000008152600401610228906105f7565b60405180910390fd5b60015f80837bffffffffffffffffffffffffffffffffffffffffffffffffffffffff19167bffffffffffffffffffffffffffffffffffffffffffffffffffffffff191681526020019081526020015f205f6101000a81548160ff02191690831515021790555050565b5f80827bffffffffffffffffffffffffffffffffffffffffffffffffffffffff19167bffffffffffffffffffffffffffffffffffffffffffffffffffffffff191681526020019081526020015f205f9054906101000a900460ff16610334576040517f08c379a000000000000000000000000000000000000000000000000000000000815260040161032b90610685565b60405180910390fd5b5f80827bffffffffffffffffffffffffffffffffffffffffffffffffffffffff19167bffffffffffffffffffffffffffffffffffffffffffffffffffffffff191681526020019081526020015f205f6101000a81549060ff021916905550565b5f80fd5b5f80fd5b5f7fffffffff0000000000000000000000000000000000000000000000000000000082169050919050565b6103d08161039c565b81146103da575f80fd5b50565b5f813590506103eb816103c7565b92915050565b5f6020828403121561040657610405610394565b5b5f610413848285016103dd565b91505092915050565b5f8115159050919050565b6104308161041c565b82525050565b5f6020820190506104495f830184610427565b92915050565b5f80fd5b5f80fd5b5f80fd5b5f8083601f8401126104705761046f61044f565b5b8235905067ffffffffffffffff81111561048d5761048c610453565b5b6020830191508360018202830111156104a9576104a8610457565b5b9250929050565b5f80602083850312156104c6576104c5610394565b5b5f83013567ffffffffffffffff8111156104e3576104e2610398565b5b6104ef8582860161045b565b92509250509250929050565b6105048161039c565b82525050565b5f60208201905061051d5f8301846104fb565b92915050565b5f81905092915050565b828183375f83830152505050565b5f6105468385610523565b935061055383858461052d565b82840190509392505050565b5f61056b82848661053b565b91508190509392505050565b5f82825260208201905092915050565b7f5265676973746572696e6720616c7265616479207265676973746572656420695f8201527f6e74657266616365206964000000000000000000000000000000000000000000602082015250565b5f6105e1602b83610577565b91506105ec82610587565b604082019050919050565b5f6020820190508181035f83015261060e816105d5565b9050919050565b7f556e7265676973746572696e67206e6f742d7265676973746572656420696e745f8201527f6572666163652069640000000000000000000000000000000000000000000000602082015250565b5f61066f602983610577565b915061067a82610615565b604082019050919050565b5f6020820190508181035f83015261069c81610663565b905091905056fea2646970667358221220db85c94eb7ca083d500cab1c0dcd18c533bda55f5c911958c87a79729cf0a12964736f6c634300081a0033",
					"opcodes": "PUSH1 0x80 PUSH1 0x40 MSTORE CALLVALUE DUP1 ISZERO PUSH2 0xF JUMPI PUSH0 DUP1 REVERT JUMPDEST POP PUSH2 0x26 PUSH4 0x1FFC9A7 PUSH1 0xE0 SHL PUSH2 0x2B PUSH1 0x20 SHL PUSH1 0x20 SHR JUMP JUMPDEST PUSH2 0x251 JUMP JUMPDEST PUSH2 0x3A DUP2 PUSH2 0xE3 PUSH1 0x20 SHL PUSH1 0x20 SHR JUMP JUMPDEST ISZERO PUSH2 0x7A JUMPI PUSH1 0x40 MLOAD PUSH32 0x8C379A000000000000000000000000000000000000000000000000000000000 DUP2 MSTORE PUSH1 0x4 ADD PUSH2 0x71 SWAP1 PUSH2 0x233 JUMP JUMPDEST PUSH1 0x40 MLOAD DUP1 SWAP2 SUB SWAP1 REVERT JUMPDEST PUSH1 0x1 PUSH0 DUP1 DUP4 PUSH28 0xFFFFFFFFFFFFFFFFFFFFFFFFFFFFFFFFFFFFFFFFFFFFFFFFFFFFFFFF NOT AND PUSH28 0xFFFFFFFFFFFFFFFFFFFFFFFFFFFFFFFFFFFFFFFFFFFFFFFFFFFFFFFF NOT AND DUP2 MSTORE PUSH1 0x20 ADD SWAP1 DUP2 MSTORE PUSH1 0x20 ADD PUSH0 KECCAK256 PUSH0 PUSH2 0x100 EXP DUP2 SLOAD DUP2 PUSH1 0xFF MUL NOT AND SWAP1 DUP4 ISZERO ISZERO MUL OR SWAP1 SSTORE POP POP JUMP JUMPDEST PUSH0 PUSH4 0x1FFC9A7 PUSH1 0xE0 SHL DUP3 PUSH28 0xFFFFFFFFFFFFFFFFFFFFFFFFFFFFFFFFFFFFFFFFFFFFFFFFFFFFFFFF NOT AND EQ DUP1 PUSH2 0x13D JUMPI POP PUSH4 0x12345678 PUSH1 0xE0 SHL DUP3 PUSH28 0xFFFFFFFFFFFFFFFFFFFFFFFFFFFFFFFFFFFFFFFFFFFFFFFFFFFFFFFF NOT AND EQ JUMPDEST ISZERO PUSH2 0x14B JUMPI PUSH1 0x1 SWAP1 POP PUSH2 0x1AE JUMP JUMPDEST PUSH0 DUP1 PUSH0 DUP5 PUSH28 0xFFFFFFFFFFFFFFFFFFFFFFFFFFFFFFFFFFFFFFFFFFFFFFFFFFFFFFFF NOT AND PUSH28 0xFFFFFFFFFFFFFFFFFFFFFFFFFFFFFFFFFFFFFFFFFFFFFFFFFFFFFFFF NOT AND DUP2 MSTORE PUSH1 0x20 ADD SWAP1 DUP2 MSTORE PUSH1 0x20 ADD PUSH0 KECCAK256 PUSH0 SWAP1 SLOAD SWAP1 PUSH2 0x100 EXP SWAP1 DIV PUSH1 0xFF AND SWAP1 POP DUP1 SWAP2 POP POP JUMPDEST SWAP2 SWAP1 POP JUMP JUMPDEST PUSH0 DUP3 DUP3 MSTORE PUSH1 0x20 DUP3 ADD SWAP1 POP SWAP3 SWAP2 POP POP JUMP JUMPDEST PUSH32 0x5265676973746572696E6720616C726561647920726567697374657265642069 PUSH0 DUP3 ADD MSTORE PUSH32 0x6E74657266616365206964000000000000000000000000000000000000000000 PUSH1 0x20 DUP3 ADD MSTORE POP JUMP JUMPDEST PUSH0 PUSH2 0x21D PUSH1 0x2B DUP4 PUSH2 0x1B3 JUMP JUMPDEST SWAP2 POP PUSH2 0x228 DUP3 PUSH2 0x1C3 JUMP JUMPDEST PUSH1 0x40 DUP3 ADD SWAP1 POP SWAP2 SWAP1 POP JUMP JUMPDEST PUSH0 PUSH1 0x20 DUP3 ADD SWAP1 POP DUP2 DUP2 SUB PUSH0 DUP4 ADD MSTORE PUSH2 0x24A DUP2 PUSH2 0x211 JUMP JUMPDEST SWAP1 POP SWAP2 SWAP1 POP JUMP JUMPDEST PUSH2 0x6D9 DUP1 PUSH2 0x25E PUSH0 CODECOPY PUSH0 RETURN INVALID PUSH1 0x80 PUSH1 0x40 MSTORE CALLVALUE DUP1 ISZERO PUSH2 0xF JUMPI PUSH0 DUP1 REVERT JUMPDEST POP PUSH1 0x4 CALLDATASIZE LT PUSH2 0x4A JUMPI PUSH0 CALLDATALOAD PUSH1 0xE0 SHR DUP1 PUSH4 0x1FFC9A7 EQ PUSH2 0x4E JUMPI DUP1 PUSH4 0x65BA36C1 EQ PUSH2 0x7E JUMPI DUP1 PUSH4 0xD6FB295F EQ PUSH2 0xAE JUMPI DUP1 PUSH4 0xE7453EBC EQ PUSH2 0xCA JUMPI JUMPDEST PUSH0 DUP1 REVERT JUMPDEST PUSH2 0x68 PUSH1 0x4 DUP1 CALLDATASIZE SUB DUP2 ADD SWAP1 PUSH2 0x63 SWAP2 SWAP1 PUSH2 0x3F1 JUMP JUMPDEST PUSH2 0xE6 JUMP JUMPDEST PUSH1 0x40 MLOAD PUSH2 0x75 SWAP2 SWAP1 PUSH2 0x436 JUMP JUMPDEST PUSH1 0x40 MLOAD DUP1 SWAP2 SUB SWAP1 RETURN JUMPDEST PUSH2 0x98 PUSH1 0x4 DUP1 CALLDATASIZE SUB DUP2 ADD SWAP1 PUSH2 0x93 SWAP2 SWAP1 PUSH2 0x4B0 JUMP JUMPDEST PUSH2 0x1B6 JUMP JUMPDEST PUSH1 0x40 MLOAD PUSH2 0xA5 SWAP2 SWAP1 PUSH2 0x50A JUMP JUMPDEST PUSH1 0x40 MLOAD DUP1 SWAP2 SUB SWAP1 RETURN JUMPDEST PUSH2 0xC8 PUSH1 0x4 DUP1 CALLDATASIZE SUB DUP2 ADD SWAP1 PUSH2 0xC3 SWAP2 SWAP1 PUSH2 0x3F1 JUMP JUMPDEST PUSH2 0x1E8 JUMP JUMPDEST STOP JUMPDEST PUSH2 0xE4 PUSH1 0x4 DUP1 CALLDATASIZE SUB DUP2 ADD SWAP1 PUSH2 0xDF SWAP2 SWAP1 PUSH2 0x3F1 JUMP JUMPDEST PUSH2 0x29A JUMP JUMPDEST STOP JUMPDEST PUSH0 PUSH4 0x1FFC9A7 PUSH1 0xE0 SHL DUP3 PUSH28 0xFFFFFFFFFFFFFFFFFFFFFFFFFFFFFFFFFFFFFFFFFFFFFFFFFFFFFFFF NOT AND EQ DUP1 PUSH2 0x140 JUMPI POP PUSH4 0x12345678 PUSH1 0xE0 SHL DUP3 PUSH28 0xFFFFFFFFFFFFFFFFFFFFFFFFFFFFFFFFFFFFFFFFFFFFFFFFFFFFFFFF NOT AND EQ JUMPDEST ISZERO PUSH2 0x14E JUMPI PUSH1 0x1 SWAP1 POP PUSH2 0x1B1 JUMP JUMPDEST PUSH0 DUP1 PUSH0 DUP5 PUSH28 0xFFFFFFFFFFFFFFFFFFFFFFFFFFFFFFFFFFFFFFFFFFFFFFFFFFFFFFFF NOT AND PUSH28 0xFFFFFFFFFFFFFFFFFFFFFFFFFFFFFFFFFFFFFFFFFFFFFFFFFFFFFFFF NOT AND DUP2 MSTORE PUSH1 0x20 ADD SWAP1 DUP2 MSTORE PUSH1 0x20 ADD PUSH0 KECCAK256 PUSH0 SWAP1 SLOAD SWAP1 PUSH2 0x100 EXP SWAP1 DIV PUSH1 0xFF AND SWAP1 POP DUP1 SWAP2 POP POP JUMPDEST SWAP2 SWAP1 POP JUMP JUMPDEST PUSH0 DUP3 DUP3 PUSH1 0x40 MLOAD PUSH1 0x20 ADD PUSH2 0x1CA SWAP3 SWAP2 SWAP1 PUSH2 0x55F JUMP JUMPDEST PUSH1 0x40 MLOAD PUSH1 0x20 DUP2 DUP4 SUB SUB DUP2 MSTORE SWAP1 PUSH1 0x40 MSTORE DUP1 MLOAD SWAP1 PUSH1 0x20 ADD KECCAK256 SWAP1 POP SWAP3 SWAP2 POP POP JUMP JUMPDEST PUSH2 0x1F1 DUP2 PUSH2 0xE6 JUMP JUMPDEST ISZERO PUSH2 0x231 JUMPI PUSH1 0x40 MLOAD PUSH32 0x8C379A000000000000000000000000000000000000000000000000000000000 DUP2 MSTORE PUSH1 0x4 ADD PUSH2 0x228 SWAP1 PUSH2 0x5F7 JUMP JUMPDEST PUSH1 0x40 MLOAD DUP1 SWAP2 SUB SWAP1 REVERT JUMPDEST PUSH1 0x1 PUSH0 DUP1 DUP4 PUSH28 0xFFFFFFFFFFFFFFFFFFFFFFFFFFFFFFFFFFFFFFFFFFFFFFFFFFFFFFFF NOT AND PUSH28 0xFFFFFFFFFFFFFFFFFFFFFFFFFFFFFFFFFFFFFFFFFFFFFFFFFFFFFFFF NOT AND DUP2 MSTORE PUSH1 0x20 ADD SWAP1 DUP2 MSTORE PUSH1 0x20 ADD PUSH0 KECCAK256 PUSH0 PUSH2 0x100 EXP DUP2 SLOAD DUP2 PUSH1 0xFF MUL NOT AND SWAP1 DUP4 ISZERO ISZERO MUL OR SWAP1 SSTORE POP POP JUMP JUMPDEST PUSH0 DUP1 DUP3 PUSH28 0xFFFFFFFFFFFFFFFFFFFFFFFFFFFFFFFFFFFFFFFFFFFFFFFFFFFFFFFF NOT AND PUSH28 0xFFFFFFFFFFFFFFFFFFFFFFFFFFFFFFFFFFFFFFFFFFFFFFFFFFFFFFFF NOT AND DUP2 MSTORE PUSH1 0x20 ADD SWAP1 DUP2 MSTORE PUSH1 0x20 ADD PUSH0 KECCAK256 PUSH0 SWAP1 SLOAD SWAP1 PUSH2 0x100 EXP SWAP1 DIV PUSH1 0xFF AND PUSH2 0x334 JUMPI PUSH1 0x40 MLOAD PUSH32 0x8C379A000000000000000000000000000000000000000000000000000000000 DUP2 MSTORE PUSH1 0x4 ADD PUSH2 0x32B SWAP1 PUSH2 0x685 JUMP JUMPDEST PUSH1 0x40 MLOAD DUP1 SWAP2 SUB SWAP1 REVERT JUMPDEST PUSH0 DUP1 DUP3 PUSH28 0xFFFFFFFFFFFFFFFFFFFFFFFFFFFFFFFFFFFFFFFFFFFFFFFFFFFFFFFF NOT AND PUSH28 0xFFFFFFFFFFFFFFFFFFFFFFFFFFFFFFFFFFFFFFFFFFFFFFFFFFFFFFFF NOT AND DUP2 MSTORE PUSH1 0x20 ADD SWAP1 DUP2 MSTORE PUSH1 0x20 ADD PUSH0 KECCAK256 PUSH0 PUSH2 0x100 EXP DUP2 SLOAD SWAP1 PUSH1 0xFF MUL NOT AND SWAP1 SSTORE POP JUMP JUMPDEST PUSH0 DUP1 REVERT JUMPDEST PUSH0 DUP1 REVERT JUMPDEST PUSH0 PUSH32 0xFFFFFFFF00000000000000000000000000000000000000000000000000000000 DUP3 AND SWAP1 POP SWAP2 SWAP1 POP JUMP JUMPDEST PUSH2 0x3D0 DUP2 PUSH2 0x39C JUMP JUMPDEST DUP2 EQ PUSH2 0x3DA JUMPI PUSH0 DUP1 REVERT JUMPDEST POP JUMP JUMPDEST PUSH0 DUP2 CALLDATALOAD SWAP1 POP PUSH2 0x3EB DUP2 PUSH2 0x3C7 JUMP JUMPDEST SWAP3 SWAP2 POP POP JUMP JUMPDEST PUSH0 PUSH1 0x20 DUP3 DUP5 SUB SLT ISZERO PUSH2 0x406 JUMPI PUSH2 0x405 PUSH2 0x394 JUMP JUMPDEST JUMPDEST PUSH0 PUSH2 0x413 DUP5 DUP3 DUP6 ADD PUSH2 0x3DD JUMP JUMPDEST SWAP2 POP POP SWAP3 SWAP2 POP POP JUMP JUMPDEST PUSH0 DUP2 ISZERO ISZERO SWAP1 POP SWAP2 SWAP1 POP JUMP JUMPDEST PUSH2 0x430 DUP2 PUSH2 0x41C JUMP JUMPDEST DUP3 MSTORE POP POP JUMP JUMPDEST PUSH0 PUSH1 0x20 DUP3 ADD SWAP1 POP PUSH2 0x449 PUSH0 DUP4 ADD DUP5 PUSH2 0x427 JUMP JUMPDEST SWAP3 SWAP2 POP POP JUMP JUMPDEST PUSH0 DUP1 REVERT JUMPDEST PUSH0 DUP1 REVERT JUMPDEST PUSH0 DUP1 REVERT JUMPDEST PUSH0 DUP1 DUP4 PUSH1 0x1F DUP5 ADD SLT PUSH2 0x470 JUMPI PUSH2 0x46F PUSH2 0x44F JUMP JUMPDEST JUMPDEST DUP3 CALLDATALOAD SWAP1 POP PUSH8 0xFFFFFFFFFFFFFFFF DUP2 GT ISZERO PUSH2 0x48D JUMPI PUSH2 0x48C PUSH2 0x453 JUMP JUMPDEST JUMPDEST PUSH1 0x20 DUP4 ADD SWAP2 POP DUP4 PUSH1 0x1 DUP3 MUL DUP4 ADD GT ISZERO PUSH2 0x4A9 JUMPI PUSH2 0x4A8 PUSH2 0x457 JUMP JUMPDEST JUMPDEST SWAP3 POP SWAP3 SWAP1 POP JUMP JUMPDEST PUSH0 DUP1 PUSH1 0x20 DUP4 DUP6 SUB SLT ISZERO PUSH2 0x4C6 JUMPI PUSH2 0x4C5 PUSH2 0x394 JUMP JUMPDEST JUMPDEST PUSH0 DUP4 ADD CALLDATALOAD PUSH8 0xFFFFFFFFFFFFFFFF DUP2 GT ISZERO PUSH2 0x4E3 JUMPI PUSH2 0x4E2 PUSH2 0x398 JUMP JUMPDEST JUMPDEST PUSH2 0x4EF DUP6 DUP3 DUP7 ADD PUSH2 0x45B JUMP JUMPDEST SWAP3 POP SWAP3 POP POP SWAP3 POP SWAP3 SWAP1 POP JUMP JUMPDEST PUSH2 0x504 DUP2 PUSH2 0x39C JUMP JUMPDEST DUP3 MSTORE POP POP JUMP JUMPDEST PUSH0 PUSH1 0x20 DUP3 ADD SWAP1 POP PUSH2 0x51D PUSH0 DUP4 ADD DUP5 PUSH2 0x4FB JUMP JUMPDEST SWAP3 SWAP2 POP POP JUMP JUMPDEST PUSH0 DUP2 SWAP1 POP SWAP3 SWAP2 POP POP JUMP JUMPDEST DUP3 DUP2 DUP4 CALLDATACOPY PUSH0 DUP4 DUP4 ADD MSTORE POP POP POP JUMP JUMPDEST PUSH0 PUSH2 0x546 DUP4 DUP6 PUSH2 0x523 JUMP JUMPDEST SWAP4 POP PUSH2 0x553 DUP4 DUP6 DUP5 PUSH2 0x52D JUMP JUMPDEST DUP3 DUP5 ADD SWAP1 POP SWAP4 SWAP3 POP POP POP JUMP JUMPDEST PUSH0 PUSH2 0x56B DUP3 DUP5 DUP7 PUSH2 0x53B JUMP JUMPDEST SWAP2 POP DUP2 SWAP1 POP SWAP4 SWAP3 POP POP POP JUMP JUMPDEST PUSH0 DUP3 DUP3 MSTORE PUSH1 0x20 DUP3 ADD SWAP1 POP SWAP3 SWAP2 POP POP JUMP JUMPDEST PUSH32 0x5265676973746572696E6720616C726561647920726567697374657265642069 PUSH0 DUP3 ADD MSTORE PUSH32 0x6E74657266616365206964000000000000000000000000000000000000000000 PUSH1 0x20 DUP3 ADD MSTORE POP JUMP JUMPDEST PUSH0 PUSH2 0x5E1 PUSH1 0x2B DUP4 PUSH2 0x577 JUMP JUMPDEST SWAP2 POP PUSH2 0x5EC DUP3 PUSH2 0x587 JUMP JUMPDEST PUSH1 0x40 DUP3 ADD SWAP1 POP SWAP2 SWAP1 POP JUMP JUMPDEST PUSH0 PUSH1 0x20 DUP3 ADD SWAP1 POP DUP2 DUP2 SUB PUSH0 DUP4 ADD MSTORE PUSH2 0x60E DUP2 PUSH2 0x5D5 JUMP JUMPDEST SWAP1 POP SWAP2 SWAP1 POP JUMP JUMPDEST PUSH32 0x556E7265676973746572696E67206E6F742D7265676973746572656420696E74 PUSH0 DUP3 ADD MSTORE PUSH32 0x6572666163652069640000000000000000000000000000000000000000000000 PUSH1 0x20 DUP3 ADD MSTORE POP JUMP JUMPDEST PUSH0 PUSH2 0x66F PUSH1 0x29 DUP4 PUSH2 0x577 JUMP JUMPDEST SWAP2 POP PUSH2 0x67A DUP3 PUSH2 0x615 JUMP JUMPDEST PUSH1 0x40 DUP3 ADD SWAP1 POP SWAP2 SWAP1 POP JUMP JUMPDEST PUSH0 PUSH1 0x20 DUP3 ADD SWAP1 POP DUP2 DUP2 SUB PUSH0 DUP4 ADD MSTORE PUSH2 0x69C DUP2 PUSH2 0x663 JUMP JUMPDEST SWAP1 POP SWAP2 SWAP1 POP JUMP INVALID LOG2 PUSH5 0x6970667358 0x22 SLT KECCAK256 0xDB DUP6 0xC9 0x4E 0xB7 0xCA ADDMOD RETURNDATASIZE POP 0xC 0xAB SHR 0xD 0xCD XOR 0xC5 CALLER 0xBD 0xA5 PUSH0 TLOAD SWAP2 NOT PC 0xC8 PUSH27 0x79729CF0A12964736F6C634300081A003300000000000000000000 "
				},
				"gasEstimates": {
					"creation": {
						"codeDepositCost": "350600",
						"executionCost": "infinite",
						"totalCost": "infinite"
					},
					"external": {
						"interfaceHash(string)": "infinite",
						"register(bytes4)": "27177",
						"remove(bytes4)": "27032",
						"supportsInterface(bytes4)": "2909"
					}
				},
				"methodIdentifiers": {
					"interfaceHash(string)": "65ba36c1",
					"register(bytes4)": "d6fb295f",
					"remove(bytes4)": "e7453ebc",
					"supportsInterface(bytes4)": "01ffc9a7"
				}
			},
			"storageLayout": {
				"storage": [
					{
						"astId": 11,
						"contract": "contracts/03/ERC165Registry.sol:ERC165Registry",
						"label": "_supportedInterfacesId",
						"offset": 0,
						"slot": "0",
						"type": "t_mapping(t_bytes4,t_bool)"
					}
				],
				"types": {
					"t_bool": {
						"encoding": "inplace",
						"label": "bool",
						"numberOfBytes": "1"
					},
					"t_bytes4": {
						"encoding": "inplace",
						"label": "bytes4",
						"numberOfBytes": "4"
					},
					"t_mapping(t_bytes4,t_bool)": {
						"encoding": "mapping",
						"key": "t_bytes4",
						"label": "mapping(bytes4 => bool)",
						"numberOfBytes": "32",
						"value": "t_bool"
					}
				}
			},
			"userdoc": {
				"kind": "user",
				"methods": {},
				"version": 1
			}
		}
	}
}