{
	"contracts/12/StateReverting.sol": {
		"StateReverting": {
			"abi": [
				{
					"inputs": [
						{
							"internalType": "address payable",
							"name": "addr1",
							"type": "address"
						},
						{
							"internalType": "address payable",
							"name": "addr2",
							"type": "address"
						}
					],
					"name": "Assert",
					"outputs": [],
					"stateMutability": "payable",
					"type": "function"
				},
				{
					"inputs": [
						{
							"internalType": "address payable",
							"name": "addr1",
							"type": "address"
						},
						{
							"internalType": "address payable",
							"name": "addr2",
							"type": "address"
						}
					],
					"name": "Require",
					"outputs": [],
					"stateMutability": "payable",
					"type": "function"
				},
				{
					"inputs": [
						{
							"internalType": "uint256",
							"name": "num",
							"type": "uint256"
						}
					],
					"name": "Revert",
					"outputs": [],
					"stateMutability": "nonpayable",
					"type": "function"
				}
			],
			"devdoc": {
				"kind": "dev",
				"methods": {},
				"version": 1
			},
			"evm": {
				"assembly": "    /* \"contracts/12/StateReverting.sol\":57:6229  contract StateReverting {... */\n  mstore(0x40, 0x80)\n  callvalue\n  dup1\n  iszero\n  tag_1\n  jumpi\n  0x00\n  dup1\n  revert\ntag_1:\n  pop\n  dataSize(sub_0)\n  dup1\n  dataOffset(sub_0)\n  0x00\n  codecopy\n  0x00\n  return\nstop\n\nsub_0: assembly {\n        /* \"contracts/12/StateReverting.sol\":57:6229  contract StateReverting {... */\n      mstore(0x40, 0x80)\n      jumpi(tag_1, lt(calldatasize, 0x04))\n      shr(0xe0, calldataload(0x00))\n      dup1\n      0x9d434160\n      eq\n      tag_2\n      jumpi\n      dup1\n      0xa29f11a1\n      eq\n      tag_3\n      jumpi\n      dup1\n      0xaffbb6f1\n      eq\n      tag_4\n      jumpi\n    tag_1:\n      0x00\n      dup1\n      revert\n        /* \"contracts/12/StateReverting.sol\":5232:5392  function Revert(uint num) public  {... */\n    tag_2:\n      callvalue\n      dup1\n      iszero\n      tag_5\n      jumpi\n      0x00\n      dup1\n      revert\n    tag_5:\n      pop\n      tag_6\n      0x04\n      dup1\n      calldatasize\n      sub\n      dup2\n      add\n      swap1\n      tag_7\n      swap2\n      swap1\n      tag_8\n      jump\t// in\n    tag_7:\n      tag_9\n      jump\t// in\n    tag_6:\n      stop\n        /* \"contracts/12/StateReverting.sol\":1234:1565  function Require(address payable addr1, address payable addr2) public payable {... */\n    tag_3:\n      tag_10\n      0x04\n      dup1\n      calldatasize\n      sub\n      dup2\n      add\n      swap1\n      tag_11\n      swap2\n      swap1\n      tag_12\n      jump\t// in\n    tag_11:\n      tag_13\n      jump\t// in\n    tag_10:\n      stop\n        /* \"contracts/12/StateReverting.sol\":2086:2530  function Assert(address payable addr1, address payable addr2) public payable {... */\n    tag_4:\n      tag_14\n      0x04\n      dup1\n      calldatasize\n      sub\n      dup2\n      add\n      swap1\n      tag_15\n      swap2\n      swap1\n      tag_12\n      jump\t// in\n    tag_15:\n      tag_16\n      jump\t// in\n    tag_14:\n      stop\n        /* \"contracts/12/StateReverting.sol\":5232:5392  function Revert(uint num) public  {... */\n    tag_9:\n        /* \"contracts/12/StateReverting.sol\":5291:5292  0 */\n      0x00\n        /* \"contracts/12/StateReverting.sol\":5286:5287  2 */\n      0x02\n        /* \"contracts/12/StateReverting.sol\":5280:5283  num */\n      dup3\n        /* \"contracts/12/StateReverting.sol\":5280:5287  num % 2 */\n      tag_18\n      swap2\n      swap1\n      tag_19\n      jump\t// in\n    tag_18:\n        /* \"contracts/12/StateReverting.sol\":5280:5292  num % 2 != 0 */\n      eq\n        /* \"contracts/12/StateReverting.sol\":5276:5384  if (num % 2 != 0) { // 检查传入的 num 不是偶数... */\n      tag_20\n      jumpi\n        /* \"contracts/12/StateReverting.sol\":5344:5373  revert(\"Even value revertd.\") */\n      mload(0x40)\n      0x08c379a000000000000000000000000000000000000000000000000000000000\n      dup2\n      mstore\n      0x04\n      add\n      tag_21\n      swap1\n      tag_22\n      jump\t// in\n    tag_21:\n      mload(0x40)\n      dup1\n      swap2\n      sub\n      swap1\n      revert\n        /* \"contracts/12/StateReverting.sol\":5276:5384  if (num % 2 != 0) { // 检查传入的 num 不是偶数... */\n    tag_20:\n        /* \"contracts/12/StateReverting.sol\":5232:5392  function Revert(uint num) public  {... */\n      pop\n      jump\t// out\n        /* \"contracts/12/StateReverting.sol\":1234:1565  function Require(address payable addr1, address payable addr2) public payable {... */\n    tag_13:\n        /* \"contracts/12/StateReverting.sol\":1415:1416  0 */\n      0x00\n        /* \"contracts/12/StateReverting.sol\":1410:1411  2 */\n      0x02\n        /* \"contracts/12/StateReverting.sol\":1398:1407  msg.value */\n      callvalue\n        /* \"contracts/12/StateReverting.sol\":1398:1411  msg.value % 2 */\n      tag_24\n      swap2\n      swap1\n      tag_19\n      jump\t// in\n    tag_24:\n        /* \"contracts/12/StateReverting.sol\":1398:1416  msg.value % 2 == 0 */\n      eq\n        /* \"contracts/12/StateReverting.sol\":1390:1441  require(msg.value % 2 == 0, \"Even value required.\") */\n      tag_25\n      jumpi\n      mload(0x40)\n      0x08c379a000000000000000000000000000000000000000000000000000000000\n      dup2\n      mstore\n      0x04\n      add\n      tag_26\n      swap1\n      tag_27\n      jump\t// in\n    tag_26:\n      mload(0x40)\n      dup1\n      swap2\n      sub\n      swap1\n      revert\n    tag_25:\n        /* \"contracts/12/StateReverting.sol\":1490:1495  addr1 */\n      dup2\n        /* \"contracts/12/StateReverting.sol\":1490:1504  addr1.transfer */\n      0xffffffffffffffffffffffffffffffffffffffff\n      and\n        /* \"contracts/12/StateReverting.sol\":1490:1519  addr1.transfer(msg.value / 2) */\n      0x08fc\n        /* \"contracts/12/StateReverting.sol\":1517:1518  2 */\n      0x02\n        /* \"contracts/12/StateReverting.sol\":1505:1514  msg.value */\n      callvalue\n        /* \"contracts/12/StateReverting.sol\":1505:1518  msg.value / 2 */\n      tag_28\n      swap2\n      swap1\n      tag_29\n      jump\t// in\n    tag_28:\n        /* \"contracts/12/StateReverting.sol\":1490:1519  addr1.transfer(msg.value / 2) */\n      swap1\n      dup2\n      iszero\n      mul\n      swap1\n      mload(0x40)\n      0x00\n      mload(0x40)\n      dup1\n      dup4\n      sub\n      dup2\n      dup6\n      dup9\n      dup9\n      call\n      swap4\n      pop\n      pop\n      pop\n      pop\n      iszero\n      dup1\n      iszero\n      tag_31\n      jumpi\n      returndatasize\n      0x00\n      dup1\n      returndatacopy\n      revert(0x00, returndatasize)\n    tag_31:\n      pop\n        /* \"contracts/12/StateReverting.sol\":1529:1534  addr2 */\n      dup1\n        /* \"contracts/12/StateReverting.sol\":1529:1543  addr2.transfer */\n      0xffffffffffffffffffffffffffffffffffffffff\n      and\n        /* \"contracts/12/StateReverting.sol\":1529:1558  addr2.transfer(msg.value / 2) */\n      0x08fc\n        /* \"contracts/12/StateReverting.sol\":1556:1557  2 */\n      0x02\n        /* \"contracts/12/StateReverting.sol\":1544:1553  msg.value */\n      callvalue\n        /* \"contracts/12/StateReverting.sol\":1544:1557  msg.value / 2 */\n      tag_32\n      swap2\n      swap1\n      tag_29\n      jump\t// in\n    tag_32:\n        /* \"contracts/12/StateReverting.sol\":1529:1558  addr2.transfer(msg.value / 2) */\n      swap1\n      dup2\n      iszero\n      mul\n      swap1\n      mload(0x40)\n      0x00\n      mload(0x40)\n      dup1\n      dup4\n      sub\n      dup2\n      dup6\n      dup9\n      dup9\n      call\n      swap4\n      pop\n      pop\n      pop\n      pop\n      iszero\n      dup1\n      iszero\n      tag_34\n      jumpi\n      returndatasize\n      0x00\n      dup1\n      returndatacopy\n      revert(0x00, returndatasize)\n    tag_34:\n      pop\n        /* \"contracts/12/StateReverting.sol\":1234:1565  function Require(address payable addr1, address payable addr2) public payable {... */\n      pop\n      pop\n      jump\t// out\n        /* \"contracts/12/StateReverting.sol\":2086:2530  function Assert(address payable addr1, address payable addr2) public payable {... */\n    tag_16:\n        /* \"contracts/12/StateReverting.sol\":2198:2199  0 */\n      0x00\n        /* \"contracts/12/StateReverting.sol\":2193:2194  2 */\n      0x02\n        /* \"contracts/12/StateReverting.sol\":2181:2190  msg.value */\n      callvalue\n        /* \"contracts/12/StateReverting.sol\":2181:2194  msg.value % 2 */\n      tag_36\n      swap2\n      swap1\n      tag_19\n      jump\t// in\n    tag_36:\n        /* \"contracts/12/StateReverting.sol\":2181:2199  msg.value % 2 == 0 */\n      eq\n        /* \"contracts/12/StateReverting.sol\":2173:2224  require(msg.value % 2 == 0, \"Even value required.\") */\n      tag_37\n      jumpi\n      mload(0x40)\n      0x08c379a000000000000000000000000000000000000000000000000000000000\n      dup2\n      mstore\n      0x04\n      add\n      tag_38\n      swap1\n      tag_27\n      jump\t// in\n    tag_38:\n      mload(0x40)\n      dup1\n      swap2\n      sub\n      swap1\n      revert\n    tag_37:\n        /* \"contracts/12/StateReverting.sol\":2274:2300  uint balanceBeforeTransfer */\n      0x00\n        /* \"contracts/12/StateReverting.sol\":2303:2324  address(this).balance */\n      selfbalance\n        /* \"contracts/12/StateReverting.sol\":2274:2324  uint balanceBeforeTransfer = address(this).balance */\n      swap1\n      pop\n        /* \"contracts/12/StateReverting.sol\":2334:2339  addr1 */\n      dup3\n        /* \"contracts/12/StateReverting.sol\":2334:2348  addr1.transfer */\n      0xffffffffffffffffffffffffffffffffffffffff\n      and\n        /* \"contracts/12/StateReverting.sol\":2334:2363  addr1.transfer(msg.value / 2) */\n      0x08fc\n        /* \"contracts/12/StateReverting.sol\":2361:2362  2 */\n      0x02\n        /* \"contracts/12/StateReverting.sol\":2349:2358  msg.value */\n      callvalue\n        /* \"contracts/12/StateReverting.sol\":2349:2362  msg.value / 2 */\n      tag_39\n      swap2\n      swap1\n      tag_29\n      jump\t// in\n    tag_39:\n        /* \"contracts/12/StateReverting.sol\":2334:2363  addr1.transfer(msg.value / 2) */\n      swap1\n      dup2\n      iszero\n      mul\n      swap1\n      mload(0x40)\n      0x00\n      mload(0x40)\n      dup1\n      dup4\n      sub\n      dup2\n      dup6\n      dup9\n      dup9\n      call\n      swap4\n      pop\n      pop\n      pop\n      pop\n      iszero\n      dup1\n      iszero\n      tag_41\n      jumpi\n      returndatasize\n      0x00\n      dup1\n      returndatacopy\n      revert(0x00, returndatasize)\n    tag_41:\n      pop\n        /* \"contracts/12/StateReverting.sol\":2373:2378  addr2 */\n      dup2\n        /* \"contracts/12/StateReverting.sol\":2373:2387  addr2.transfer */\n      0xffffffffffffffffffffffffffffffffffffffff\n      and\n        /* \"contracts/12/StateReverting.sol\":2373:2402  addr2.transfer(msg.value / 2) */\n      0x08fc\n        /* \"contracts/12/StateReverting.sol\":2400:2401  2 */\n      0x02\n        /* \"contracts/12/StateReverting.sol\":2388:2397  msg.value */\n      callvalue\n        /* \"contracts/12/StateReverting.sol\":2388:2401  msg.value / 2 */\n      tag_42\n      swap2\n      swap1\n      tag_29\n      jump\t// in\n    tag_42:\n        /* \"contracts/12/StateReverting.sol\":2373:2402  addr2.transfer(msg.value / 2) */\n      swap1\n      dup2\n      iszero\n      mul\n      swap1\n      mload(0x40)\n      0x00\n      mload(0x40)\n      dup1\n      dup4\n      sub\n      dup2\n      dup6\n      dup9\n      dup9\n      call\n      swap4\n      pop\n      pop\n      pop\n      pop\n      iszero\n      dup1\n      iszero\n      tag_44\n      jumpi\n      returndatasize\n      0x00\n      dup1\n      returndatacopy\n      revert(0x00, returndatasize)\n    tag_44:\n      pop\n        /* \"contracts/12/StateReverting.sol\":2444:2465  balanceBeforeTransfer */\n      dup1\n        /* \"contracts/12/StateReverting.sol\":2419:2440  address(this).balance */\n      selfbalance\n        /* \"contracts/12/StateReverting.sol\":2419:2465  address(this).balance == balanceBeforeTransfer */\n      eq\n        /* \"contracts/12/StateReverting.sol\":2412:2466  assert(address(this).balance == balanceBeforeTransfer) */\n      tag_45\n      jumpi\n      tag_46\n      tag_47\n      jump\t// in\n    tag_46:\n    tag_45:\n        /* \"contracts/12/StateReverting.sol\":2163:2530  {... */\n      pop\n        /* \"contracts/12/StateReverting.sol\":2086:2530  function Assert(address payable addr1, address payable addr2) public payable {... */\n      pop\n      pop\n      jump\t// out\n        /* \"#utility.yul\":88:205   */\n    tag_49:\n        /* \"#utility.yul\":197:198   */\n      0x00\n        /* \"#utility.yul\":194:195   */\n      dup1\n        /* \"#utility.yul\":187:199   */\n      revert\n        /* \"#utility.yul\":334:411   */\n    tag_51:\n        /* \"#utility.yul\":371:378   */\n      0x00\n        /* \"#utility.yul\":400:405   */\n      dup2\n        /* \"#utility.yul\":389:405   */\n      swap1\n      pop\n        /* \"#utility.yul\":334:411   */\n      swap2\n      swap1\n      pop\n      jump\t// out\n        /* \"#utility.yul\":417:539   */\n    tag_52:\n        /* \"#utility.yul\":490:514   */\n      tag_71\n        /* \"#utility.yul\":508:513   */\n      dup2\n        /* \"#utility.yul\":490:514   */\n      tag_51\n      jump\t// in\n    tag_71:\n        /* \"#utility.yul\":483:488   */\n      dup2\n        /* \"#utility.yul\":480:515   */\n      eq\n        /* \"#utility.yul\":470:533   */\n      tag_72\n      jumpi\n        /* \"#utility.yul\":529:530   */\n      0x00\n        /* \"#utility.yul\":526:527   */\n      dup1\n        /* \"#utility.yul\":519:531   */\n      revert\n        /* \"#utility.yul\":470:533   */\n    tag_72:\n        /* \"#utility.yul\":417:539   */\n      pop\n      jump\t// out\n        /* \"#utility.yul\":545:684   */\n    tag_53:\n        /* \"#utility.yul\":591:596   */\n      0x00\n        /* \"#utility.yul\":629:635   */\n      dup2\n        /* \"#utility.yul\":616:636   */\n      calldataload\n        /* \"#utility.yul\":607:636   */\n      swap1\n      pop\n        /* \"#utility.yul\":645:678   */\n      tag_74\n        /* \"#utility.yul\":672:677   */\n      dup2\n        /* \"#utility.yul\":645:678   */\n      tag_52\n      jump\t// in\n    tag_74:\n        /* \"#utility.yul\":545:684   */\n      swap3\n      swap2\n      pop\n      pop\n      jump\t// out\n        /* \"#utility.yul\":690:1019   */\n    tag_8:\n        /* \"#utility.yul\":749:755   */\n      0x00\n        /* \"#utility.yul\":798:800   */\n      0x20\n        /* \"#utility.yul\":786:795   */\n      dup3\n        /* \"#utility.yul\":777:784   */\n      dup5\n        /* \"#utility.yul\":773:796   */\n      sub\n        /* \"#utility.yul\":769:801   */\n      slt\n        /* \"#utility.yul\":766:885   */\n      iszero\n      tag_76\n      jumpi\n        /* \"#utility.yul\":804:883   */\n      tag_77\n      tag_49\n      jump\t// in\n    tag_77:\n        /* \"#utility.yul\":766:885   */\n    tag_76:\n        /* \"#utility.yul\":924:925   */\n      0x00\n        /* \"#utility.yul\":949:1002   */\n      tag_78\n        /* \"#utility.yul\":994:1001   */\n      dup5\n        /* \"#utility.yul\":985:991   */\n      dup3\n        /* \"#utility.yul\":974:983   */\n      dup6\n        /* \"#utility.yul\":970:992   */\n      add\n        /* \"#utility.yul\":949:1002   */\n      tag_53\n      jump\t// in\n    tag_78:\n        /* \"#utility.yul\":939:1002   */\n      swap2\n      pop\n        /* \"#utility.yul\":895:1012   */\n      pop\n        /* \"#utility.yul\":690:1019   */\n      swap3\n      swap2\n      pop\n      pop\n      jump\t// out\n        /* \"#utility.yul\":1025:1151   */\n    tag_54:\n        /* \"#utility.yul\":1062:1069   */\n      0x00\n        /* \"#utility.yul\":1102:1144   */\n      0xffffffffffffffffffffffffffffffffffffffff\n        /* \"#utility.yul\":1095:1100   */\n      dup3\n        /* \"#utility.yul\":1091:1145   */\n      and\n        /* \"#utility.yul\":1080:1145   */\n      swap1\n      pop\n        /* \"#utility.yul\":1025:1151   */\n      swap2\n      swap1\n      pop\n      jump\t// out\n        /* \"#utility.yul\":1157:1261   */\n    tag_55:\n        /* \"#utility.yul\":1202:1209   */\n      0x00\n        /* \"#utility.yul\":1231:1255   */\n      tag_81\n        /* \"#utility.yul\":1249:1254   */\n      dup3\n        /* \"#utility.yul\":1231:1255   */\n      tag_54\n      jump\t// in\n    tag_81:\n        /* \"#utility.yul\":1220:1255   */\n      swap1\n      pop\n        /* \"#utility.yul\":1157:1261   */\n      swap2\n      swap1\n      pop\n      jump\t// out\n        /* \"#utility.yul\":1267:1405   */\n    tag_56:\n        /* \"#utility.yul\":1348:1380   */\n      tag_83\n        /* \"#utility.yul\":1374:1379   */\n      dup2\n        /* \"#utility.yul\":1348:1380   */\n      tag_55\n      jump\t// in\n    tag_83:\n        /* \"#utility.yul\":1341:1346   */\n      dup2\n        /* \"#utility.yul\":1338:1381   */\n      eq\n        /* \"#utility.yul\":1328:1399   */\n      tag_84\n      jumpi\n        /* \"#utility.yul\":1395:1396   */\n      0x00\n        /* \"#utility.yul\":1392:1393   */\n      dup1\n        /* \"#utility.yul\":1385:1397   */\n      revert\n        /* \"#utility.yul\":1328:1399   */\n    tag_84:\n        /* \"#utility.yul\":1267:1405   */\n      pop\n      jump\t// out\n        /* \"#utility.yul\":1411:1566   */\n    tag_57:\n        /* \"#utility.yul\":1465:1470   */\n      0x00\n        /* \"#utility.yul\":1503:1509   */\n      dup2\n        /* \"#utility.yul\":1490:1510   */\n      calldataload\n        /* \"#utility.yul\":1481:1510   */\n      swap1\n      pop\n        /* \"#utility.yul\":1519:1560   */\n      tag_86\n        /* \"#utility.yul\":1554:1559   */\n      dup2\n        /* \"#utility.yul\":1519:1560   */\n      tag_56\n      jump\t// in\n    tag_86:\n        /* \"#utility.yul\":1411:1566   */\n      swap3\n      swap2\n      pop\n      pop\n      jump\t// out\n        /* \"#utility.yul\":1572:2078   */\n    tag_12:\n        /* \"#utility.yul\":1656:1662   */\n      0x00\n        /* \"#utility.yul\":1664:1670   */\n      dup1\n        /* \"#utility.yul\":1713:1715   */\n      0x40\n        /* \"#utility.yul\":1701:1710   */\n      dup4\n        /* \"#utility.yul\":1692:1699   */\n      dup6\n        /* \"#utility.yul\":1688:1711   */\n      sub\n        /* \"#utility.yul\":1684:1716   */\n      slt\n        /* \"#utility.yul\":1681:1800   */\n      iszero\n      tag_88\n      jumpi\n        /* \"#utility.yul\":1719:1798   */\n      tag_89\n      tag_49\n      jump\t// in\n    tag_89:\n        /* \"#utility.yul\":1681:1800   */\n    tag_88:\n        /* \"#utility.yul\":1839:1840   */\n      0x00\n        /* \"#utility.yul\":1864:1925   */\n      tag_90\n        /* \"#utility.yul\":1917:1924   */\n      dup6\n        /* \"#utility.yul\":1908:1914   */\n      dup3\n        /* \"#utility.yul\":1897:1906   */\n      dup7\n        /* \"#utility.yul\":1893:1915   */\n      add\n        /* \"#utility.yul\":1864:1925   */\n      tag_57\n      jump\t// in\n    tag_90:\n        /* \"#utility.yul\":1854:1925   */\n      swap3\n      pop\n        /* \"#utility.yul\":1810:1935   */\n      pop\n        /* \"#utility.yul\":1974:1976   */\n      0x20\n        /* \"#utility.yul\":2000:2061   */\n      tag_91\n        /* \"#utility.yul\":2053:2060   */\n      dup6\n        /* \"#utility.yul\":2044:2050   */\n      dup3\n        /* \"#utility.yul\":2033:2042   */\n      dup7\n        /* \"#utility.yul\":2029:2051   */\n      add\n        /* \"#utility.yul\":2000:2061   */\n      tag_57\n      jump\t// in\n    tag_91:\n        /* \"#utility.yul\":1990:2061   */\n      swap2\n      pop\n        /* \"#utility.yul\":1945:2071   */\n      pop\n        /* \"#utility.yul\":1572:2078   */\n      swap3\n      pop\n      swap3\n      swap1\n      pop\n      jump\t// out\n        /* \"#utility.yul\":2084:2264   */\n    tag_58:\n        /* \"#utility.yul\":2132:2209   */\n      0x4e487b7100000000000000000000000000000000000000000000000000000000\n        /* \"#utility.yul\":2129:2130   */\n      0x00\n        /* \"#utility.yul\":2122:2210   */\n      mstore\n        /* \"#utility.yul\":2229:2233   */\n      0x12\n        /* \"#utility.yul\":2226:2227   */\n      0x04\n        /* \"#utility.yul\":2219:2234   */\n      mstore\n        /* \"#utility.yul\":2253:2257   */\n      0x24\n        /* \"#utility.yul\":2250:2251   */\n      0x00\n        /* \"#utility.yul\":2243:2258   */\n      revert\n        /* \"#utility.yul\":2270:2446   */\n    tag_19:\n        /* \"#utility.yul\":2302:2303   */\n      0x00\n        /* \"#utility.yul\":2319:2339   */\n      tag_94\n        /* \"#utility.yul\":2337:2338   */\n      dup3\n        /* \"#utility.yul\":2319:2339   */\n      tag_51\n      jump\t// in\n    tag_94:\n        /* \"#utility.yul\":2314:2339   */\n      swap2\n      pop\n        /* \"#utility.yul\":2353:2373   */\n      tag_95\n        /* \"#utility.yul\":2371:2372   */\n      dup4\n        /* \"#utility.yul\":2353:2373   */\n      tag_51\n      jump\t// in\n    tag_95:\n        /* \"#utility.yul\":2348:2373   */\n      swap3\n      pop\n        /* \"#utility.yul\":2392:2393   */\n      dup3\n        /* \"#utility.yul\":2382:2417   */\n      tag_96\n      jumpi\n        /* \"#utility.yul\":2397:2415   */\n      tag_97\n      tag_58\n      jump\t// in\n    tag_97:\n        /* \"#utility.yul\":2382:2417   */\n    tag_96:\n        /* \"#utility.yul\":2438:2439   */\n      dup3\n        /* \"#utility.yul\":2435:2436   */\n      dup3\n        /* \"#utility.yul\":2431:2440   */\n      mod\n        /* \"#utility.yul\":2426:2440   */\n      swap1\n      pop\n        /* \"#utility.yul\":2270:2446   */\n      swap3\n      swap2\n      pop\n      pop\n      jump\t// out\n        /* \"#utility.yul\":2452:2621   */\n    tag_59:\n        /* \"#utility.yul\":2536:2547   */\n      0x00\n        /* \"#utility.yul\":2570:2576   */\n      dup3\n        /* \"#utility.yul\":2565:2568   */\n      dup3\n        /* \"#utility.yul\":2558:2577   */\n      mstore\n        /* \"#utility.yul\":2610:2614   */\n      0x20\n        /* \"#utility.yul\":2605:2608   */\n      dup3\n        /* \"#utility.yul\":2601:2615   */\n      add\n        /* \"#utility.yul\":2586:2615   */\n      swap1\n      pop\n        /* \"#utility.yul\":2452:2621   */\n      swap3\n      swap2\n      pop\n      pop\n      jump\t// out\n        /* \"#utility.yul\":2627:2796   */\n    tag_60:\n        /* \"#utility.yul\":2767:2788   */\n      0x4576656e2076616c756520726576657274642e00000000000000000000000000\n        /* \"#utility.yul\":2763:2764   */\n      0x00\n        /* \"#utility.yul\":2755:2761   */\n      dup3\n        /* \"#utility.yul\":2751:2765   */\n      add\n        /* \"#utility.yul\":2744:2789   */\n      mstore\n        /* \"#utility.yul\":2627:2796   */\n      pop\n      jump\t// out\n        /* \"#utility.yul\":2802:3168   */\n    tag_61:\n        /* \"#utility.yul\":2944:2947   */\n      0x00\n        /* \"#utility.yul\":2965:3032   */\n      tag_101\n        /* \"#utility.yul\":3029:3031   */\n      0x13\n        /* \"#utility.yul\":3024:3027   */\n      dup4\n        /* \"#utility.yul\":2965:3032   */\n      tag_59\n      jump\t// in\n    tag_101:\n        /* \"#utility.yul\":2958:3032   */\n      swap2\n      pop\n        /* \"#utility.yul\":3041:3134   */\n      tag_102\n        /* \"#utility.yul\":3130:3133   */\n      dup3\n        /* \"#utility.yul\":3041:3134   */\n      tag_60\n      jump\t// in\n    tag_102:\n        /* \"#utility.yul\":3159:3161   */\n      0x20\n        /* \"#utility.yul\":3154:3157   */\n      dup3\n        /* \"#utility.yul\":3150:3162   */\n      add\n        /* \"#utility.yul\":3143:3162   */\n      swap1\n      pop\n        /* \"#utility.yul\":2802:3168   */\n      swap2\n      swap1\n      pop\n      jump\t// out\n        /* \"#utility.yul\":3174:3593   */\n    tag_22:\n        /* \"#utility.yul\":3340:3344   */\n      0x00\n        /* \"#utility.yul\":3378:3380   */\n      0x20\n        /* \"#utility.yul\":3367:3376   */\n      dup3\n        /* \"#utility.yul\":3363:3381   */\n      add\n        /* \"#utility.yul\":3355:3381   */\n      swap1\n      pop\n        /* \"#utility.yul\":3427:3436   */\n      dup2\n        /* \"#utility.yul\":3421:3425   */\n      dup2\n        /* \"#utility.yul\":3417:3437   */\n      sub\n        /* \"#utility.yul\":3413:3414   */\n      0x00\n        /* \"#utility.yul\":3402:3411   */\n      dup4\n        /* \"#utility.yul\":3398:3415   */\n      add\n        /* \"#utility.yul\":3391:3438   */\n      mstore\n        /* \"#utility.yul\":3455:3586   */\n      tag_104\n        /* \"#utility.yul\":3581:3585   */\n      dup2\n        /* \"#utility.yul\":3455:3586   */\n      tag_61\n      jump\t// in\n    tag_104:\n        /* \"#utility.yul\":3447:3586   */\n      swap1\n      pop\n        /* \"#utility.yul\":3174:3593   */\n      swap2\n      swap1\n      pop\n      jump\t// out\n        /* \"#utility.yul\":3599:3769   */\n    tag_62:\n        /* \"#utility.yul\":3739:3761   */\n      0x4576656e2076616c75652072657175697265642e000000000000000000000000\n        /* \"#utility.yul\":3735:3736   */\n      0x00\n        /* \"#utility.yul\":3727:3733   */\n      dup3\n        /* \"#utility.yul\":3723:3737   */\n      add\n        /* \"#utility.yul\":3716:3762   */\n      mstore\n        /* \"#utility.yul\":3599:3769   */\n      pop\n      jump\t// out\n        /* \"#utility.yul\":3775:4141   */\n    tag_63:\n        /* \"#utility.yul\":3917:3920   */\n      0x00\n        /* \"#utility.yul\":3938:4005   */\n      tag_107\n        /* \"#utility.yul\":4002:4004   */\n      0x14\n        /* \"#utility.yul\":3997:4000   */\n      dup4\n        /* \"#utility.yul\":3938:4005   */\n      tag_59\n      jump\t// in\n    tag_107:\n        /* \"#utility.yul\":3931:4005   */\n      swap2\n      pop\n        /* \"#utility.yul\":4014:4107   */\n      tag_108\n        /* \"#utility.yul\":4103:4106   */\n      dup3\n        /* \"#utility.yul\":4014:4107   */\n      tag_62\n      jump\t// in\n    tag_108:\n        /* \"#utility.yul\":4132:4134   */\n      0x20\n        /* \"#utility.yul\":4127:4130   */\n      dup3\n        /* \"#utility.yul\":4123:4135   */\n      add\n        /* \"#utility.yul\":4116:4135   */\n      swap1\n      pop\n        /* \"#utility.yul\":3775:4141   */\n      swap2\n      swap1\n      pop\n      jump\t// out\n        /* \"#utility.yul\":4147:4566   */\n    tag_27:\n        /* \"#utility.yul\":4313:4317   */\n      0x00\n        /* \"#utility.yul\":4351:4353   */\n      0x20\n        /* \"#utility.yul\":4340:4349   */\n      dup3\n        /* \"#utility.yul\":4336:4354   */\n      add\n        /* \"#utility.yul\":4328:4354   */\n      swap1\n      pop\n        /* \"#utility.yul\":4400:4409   */\n      dup2\n        /* \"#utility.yul\":4394:4398   */\n      dup2\n        /* \"#utility.yul\":4390:4410   */\n      sub\n        /* \"#utility.yul\":4386:4387   */\n      0x00\n        /* \"#utility.yul\":4375:4384   */\n      dup4\n        /* \"#utility.yul\":4371:4388   */\n      add\n        /* \"#utility.yul\":4364:4411   */\n      mstore\n        /* \"#utility.yul\":4428:4559   */\n      tag_110\n        /* \"#utility.yul\":4554:4558   */\n      dup2\n        /* \"#utility.yul\":4428:4559   */\n      tag_63\n      jump\t// in\n    tag_110:\n        /* \"#utility.yul\":4420:4559   */\n      swap1\n      pop\n        /* \"#utility.yul\":4147:4566   */\n      swap2\n      swap1\n      pop\n      jump\t// out\n        /* \"#utility.yul\":4758:4943   */\n    tag_29:\n        /* \"#utility.yul\":4798:4799   */\n      0x00\n        /* \"#utility.yul\":4815:4835   */\n      tag_113\n        /* \"#utility.yul\":4833:4834   */\n      dup3\n        /* \"#utility.yul\":4815:4835   */\n      tag_51\n      jump\t// in\n    tag_113:\n        /* \"#utility.yul\":4810:4835   */\n      swap2\n      pop\n        /* \"#utility.yul\":4849:4869   */\n      tag_114\n        /* \"#utility.yul\":4867:4868   */\n      dup4\n        /* \"#utility.yul\":4849:4869   */\n      tag_51\n      jump\t// in\n    tag_114:\n        /* \"#utility.yul\":4844:4869   */\n      swap3\n      pop\n        /* \"#utility.yul\":4888:4889   */\n      dup3\n        /* \"#utility.yul\":4878:4913   */\n      tag_115\n      jumpi\n        /* \"#utility.yul\":4893:4911   */\n      tag_116\n      tag_58\n      jump\t// in\n    tag_116:\n        /* \"#utility.yul\":4878:4913   */\n    tag_115:\n        /* \"#utility.yul\":4935:4936   */\n      dup3\n        /* \"#utility.yul\":4932:4933   */\n      dup3\n        /* \"#utility.yul\":4928:4937   */\n      div\n        /* \"#utility.yul\":4923:4937   */\n      swap1\n      pop\n        /* \"#utility.yul\":4758:4943   */\n      swap3\n      swap2\n      pop\n      pop\n      jump\t// out\n        /* \"#utility.yul\":4949:5129   */\n    tag_47:\n        /* \"#utility.yul\":4997:5074   */\n      0x4e487b7100000000000000000000000000000000000000000000000000000000\n        /* \"#utility.yul\":4994:4995   */\n      0x00\n        /* \"#utility.yul\":4987:5075   */\n      mstore\n        /* \"#utility.yul\":5094:5098   */\n      0x01\n        /* \"#utility.yul\":5091:5092   */\n      0x04\n        /* \"#utility.yul\":5084:5099   */\n      mstore\n        /* \"#utility.yul\":5118:5122   */\n      0x24\n        /* \"#utility.yul\":5115:5116   */\n      0x00\n        /* \"#utility.yul\":5108:5123   */\n      revert\n\n    auxdata: 0xa26469706673582212203cc391feb29f03c5c706e5056ea5bd709056527e7b9676461b251fbf0826181d64736f6c634300081a0033\n}\n",
				"bytecode": {
					"linkReferences": {},
					"object": "6080604052348015600e575f80fd5b506105ab8061001c5f395ff3fe608060405260043610610033575f3560e01c80639d43416014610037578063a29f11a11461005f578063affbb6f11461007b575b5f80fd5b348015610042575f80fd5b5061005d60048036038101906100589190610318565b610097565b005b6100796004803603810190610074919061039d565b6100e8565b005b6100956004803603810190610090919061039d565b6101da565b005b5f6002826100a59190610408565b146100e5576040517f08c379a00000000000000000000000000000000000000000000000000000000081526004016100dc90610492565b60405180910390fd5b50565b5f6002346100f69190610408565b14610136576040517f08c379a000000000000000000000000000000000000000000000000000000000815260040161012d906104fa565b60405180910390fd5b8173ffffffffffffffffffffffffffffffffffffffff166108fc60023461015d9190610518565b90811502906040515f60405180830381858888f19350505050158015610185573d5f803e3d5ffd5b508073ffffffffffffffffffffffffffffffffffffffff166108fc6002346101ad9190610518565b90811502906040515f60405180830381858888f193505050501580156101d5573d5f803e3d5ffd5b505050565b5f6002346101e89190610408565b14610228576040517f08c379a000000000000000000000000000000000000000000000000000000000815260040161021f906104fa565b60405180910390fd5b5f4790508273ffffffffffffffffffffffffffffffffffffffff166108fc6002346102539190610518565b90811502906040515f60405180830381858888f1935050505015801561027b573d5f803e3d5ffd5b508173ffffffffffffffffffffffffffffffffffffffff166108fc6002346102a39190610518565b90811502906040515f60405180830381858888f193505050501580156102cb573d5f803e3d5ffd5b508047146102dc576102db610548565b5b505050565b5f80fd5b5f819050919050565b6102f7816102e5565b8114610301575f80fd5b50565b5f81359050610312816102ee565b92915050565b5f6020828403121561032d5761032c6102e1565b5b5f61033a84828501610304565b91505092915050565b5f73ffffffffffffffffffffffffffffffffffffffff82169050919050565b5f61036c82610343565b9050919050565b61037c81610362565b8114610386575f80fd5b50565b5f8135905061039781610373565b92915050565b5f80604083850312156103b3576103b26102e1565b5b5f6103c085828601610389565b92505060206103d185828601610389565b9150509250929050565b7f4e487b71000000000000000000000000000000000000000000000000000000005f52601260045260245ffd5b5f610412826102e5565b915061041d836102e5565b92508261042d5761042c6103db565b5b828206905092915050565b5f82825260208201905092915050565b7f4576656e2076616c756520726576657274642e000000000000000000000000005f82015250565b5f61047c601383610438565b915061048782610448565b602082019050919050565b5f6020820190508181035f8301526104a981610470565b9050919050565b7f4576656e2076616c75652072657175697265642e0000000000000000000000005f82015250565b5f6104e4601483610438565b91506104ef826104b0565b602082019050919050565b5f6020820190508181035f830152610511816104d8565b9050919050565b5f610522826102e5565b915061052d836102e5565b92508261053d5761053c6103db565b5b828204905092915050565b7f4e487b71000000000000000000000000000000000000000000000000000000005f52600160045260245ffdfea26469706673582212203cc391feb29f03c5c706e5056ea5bd709056527e7b9676461b251fbf0826181d64736f6c634300081a0033",
					"opcodes": "PUSH1 0x80 PUSH1 0x40 MSTORE CALLVALUE DUP1 ISZERO PUSH1 0xE JUMPI PUSH0 DUP1 REVERT JUMPDEST POP PUSH2 0x5AB DUP1 PUSH2 0x1C PUSH0 CODECOPY PUSH0 RETURN INVALID PUSH1 0x80 PUSH1 0x40 MSTORE PUSH1 0x4 CALLDATASIZE LT PUSH2 0x33 JUMPI PUSH0 CALLDATALOAD PUSH1 0xE0 SHR DUP1 PUSH4 0x9D434160 EQ PUSH2 0x37 JUMPI DUP1 PUSH4 0xA29F11A1 EQ PUSH2 0x5F JUMPI DUP1 PUSH4 0xAFFBB6F1 EQ PUSH2 0x7B JUMPI JUMPDEST PUSH0 DUP1 REVERT JUMPDEST CALLVALUE DUP1 ISZERO PUSH2 0x42 JUMPI PUSH0 DUP1 REVERT JUMPDEST POP PUSH2 0x5D PUSH1 0x4 DUP1 CALLDATASIZE SUB DUP2 ADD SWAP1 PUSH2 0x58 SWAP2 SWAP1 PUSH2 0x318 JUMP JUMPDEST PUSH2 0x97 JUMP JUMPDEST STOP JUMPDEST PUSH2 0x79 PUSH1 0x4 DUP1 CALLDATASIZE SUB DUP2 ADD SWAP1 PUSH2 0x74 SWAP2 SWAP1 PUSH2 0x39D JUMP JUMPDEST PUSH2 0xE8 JUMP JUMPDEST STOP JUMPDEST PUSH2 0x95 PUSH1 0x4 DUP1 CALLDATASIZE SUB DUP2 ADD SWAP1 PUSH2 0x90 SWAP2 SWAP1 PUSH2 0x39D JUMP JUMPDEST PUSH2 0x1DA JUMP JUMPDEST STOP JUMPDEST PUSH0 PUSH1 0x2 DUP3 PUSH2 0xA5 SWAP2 SWAP1 PUSH2 0x408 JUMP JUMPDEST EQ PUSH2 0xE5 JUMPI PUSH1 0x40 MLOAD PUSH32 0x8C379A000000000000000000000000000000000000000000000000000000000 DUP2 MSTORE PUSH1 0x4 ADD PUSH2 0xDC SWAP1 PUSH2 0x492 JUMP JUMPDEST PUSH1 0x40 MLOAD DUP1 SWAP2 SUB SWAP1 REVERT JUMPDEST POP JUMP JUMPDEST PUSH0 PUSH1 0x2 CALLVALUE PUSH2 0xF6 SWAP2 SWAP1 PUSH2 0x408 JUMP JUMPDEST EQ PUSH2 0x136 JUMPI PUSH1 0x40 MLOAD PUSH32 0x8C379A000000000000000000000000000000000000000000000000000000000 DUP2 MSTORE PUSH1 0x4 ADD PUSH2 0x12D SWAP1 PUSH2 0x4FA JUMP JUMPDEST PUSH1 0x40 MLOAD DUP1 SWAP2 SUB SWAP1 REVERT JUMPDEST DUP2 PUSH20 0xFFFFFFFFFFFFFFFFFFFFFFFFFFFFFFFFFFFFFFFF AND PUSH2 0x8FC PUSH1 0x2 CALLVALUE PUSH2 0x15D SWAP2 SWAP1 PUSH2 0x518 JUMP JUMPDEST SWAP1 DUP2 ISZERO MUL SWAP1 PUSH1 0x40 MLOAD PUSH0 PUSH1 0x40 MLOAD DUP1 DUP4 SUB DUP2 DUP6 DUP9 DUP9 CALL SWAP4 POP POP POP POP ISZERO DUP1 ISZERO PUSH2 0x185 JUMPI RETURNDATASIZE PUSH0 DUP1 RETURNDATACOPY RETURNDATASIZE PUSH0 REVERT JUMPDEST POP DUP1 PUSH20 0xFFFFFFFFFFFFFFFFFFFFFFFFFFFFFFFFFFFFFFFF AND PUSH2 0x8FC PUSH1 0x2 CALLVALUE PUSH2 0x1AD SWAP2 SWAP1 PUSH2 0x518 JUMP JUMPDEST SWAP1 DUP2 ISZERO MUL SWAP1 PUSH1 0x40 MLOAD PUSH0 PUSH1 0x40 MLOAD DUP1 DUP4 SUB DUP2 DUP6 DUP9 DUP9 CALL SWAP4 POP POP POP POP ISZERO DUP1 ISZERO PUSH2 0x1D5 JUMPI RETURNDATASIZE PUSH0 DUP1 RETURNDATACOPY RETURNDATASIZE PUSH0 REVERT JUMPDEST POP POP POP JUMP JUMPDEST PUSH0 PUSH1 0x2 CALLVALUE PUSH2 0x1E8 SWAP2 SWAP1 PUSH2 0x408 JUMP JUMPDEST EQ PUSH2 0x228 JUMPI PUSH1 0x40 MLOAD PUSH32 0x8C379A000000000000000000000000000000000000000000000000000000000 DUP2 MSTORE PUSH1 0x4 ADD PUSH2 0x21F SWAP1 PUSH2 0x4FA JUMP JUMPDEST PUSH1 0x40 MLOAD DUP1 SWAP2 SUB SWAP1 REVERT JUMPDEST PUSH0 SELFBALANCE SWAP1 POP DUP3 PUSH20 0xFFFFFFFFFFFFFFFFFFFFFFFFFFFFFFFFFFFFFFFF AND PUSH2 0x8FC PUSH1 0x2 CALLVALUE PUSH2 0x253 SWAP2 SWAP1 PUSH2 0x518 JUMP JUMPDEST SWAP1 DUP2 ISZERO MUL SWAP1 PUSH1 0x40 MLOAD PUSH0 PUSH1 0x40 MLOAD DUP1 DUP4 SUB DUP2 DUP6 DUP9 DUP9 CALL SWAP4 POP POP POP POP ISZERO DUP1 ISZERO PUSH2 0x27B JUMPI RETURNDATASIZE PUSH0 DUP1 RETURNDATACOPY RETURNDATASIZE PUSH0 REVERT JUMPDEST POP DUP2 PUSH20 0xFFFFFFFFFFFFFFFFFFFFFFFFFFFFFFFFFFFFFFFF AND PUSH2 0x8FC PUSH1 0x2 CALLVALUE PUSH2 0x2A3 SWAP2 SWAP1 PUSH2 0x518 JUMP JUMPDEST SWAP1 DUP2 ISZERO MUL SWAP1 PUSH1 0x40 MLOAD PUSH0 PUSH1 0x40 MLOAD DUP1 DUP4 SUB DUP2 DUP6 DUP9 DUP9 CALL SWAP4 POP POP POP POP ISZERO DUP1 ISZERO PUSH2 0x2CB JUMPI RETURNDATASIZE PUSH0 DUP1 RETURNDATACOPY RETURNDATASIZE PUSH0 REVERT JUMPDEST POP DUP1 SELFBALANCE EQ PUSH2 0x2DC JUMPI PUSH2 0x2DB PUSH2 0x548 JUMP JUMPDEST JUMPDEST POP POP POP JUMP JUMPDEST PUSH0 DUP1 REVERT JUMPDEST PUSH0 DUP2 SWAP1 POP SWAP2 SWAP1 POP JUMP JUMPDEST PUSH2 0x2F7 DUP2 PUSH2 0x2E5 JUMP JUMPDEST DUP2 EQ PUSH2 0x301 JUMPI PUSH0 DUP1 REVERT JUMPDEST POP JUMP JUMPDEST PUSH0 DUP2 CALLDATALOAD SWAP1 POP PUSH2 0x312 DUP2 PUSH2 0x2EE JUMP JUMPDEST SWAP3 SWAP2 POP POP JUMP JUMPDEST PUSH0 PUSH1 0x20 DUP3 DUP5 SUB SLT ISZERO PUSH2 0x32D JUMPI PUSH2 0x32C PUSH2 0x2E1 JUMP JUMPDEST JUMPDEST PUSH0 PUSH2 0x33A DUP5 DUP3 DUP6 ADD PUSH2 0x304 JUMP JUMPDEST SWAP2 POP POP SWAP3 SWAP2 POP POP JUMP JUMPDEST PUSH0 PUSH20 0xFFFFFFFFFFFFFFFFFFFFFFFFFFFFFFFFFFFFFFFF DUP3 AND SWAP1 POP SWAP2 SWAP1 POP JUMP JUMPDEST PUSH0 PUSH2 0x36C DUP3 PUSH2 0x343 JUMP JUMPDEST SWAP1 POP SWAP2 SWAP1 POP JUMP JUMPDEST PUSH2 0x37C DUP2 PUSH2 0x362 JUMP JUMPDEST DUP2 EQ PUSH2 0x386 JUMPI PUSH0 DUP1 REVERT JUMPDEST POP JUMP JUMPDEST PUSH0 DUP2 CALLDATALOAD SWAP1 POP PUSH2 0x397 DUP2 PUSH2 0x373 JUMP JUMPDEST SWAP3 SWAP2 POP POP JUMP JUMPDEST PUSH0 DUP1 PUSH1 0x40 DUP4 DUP6 SUB SLT ISZERO PUSH2 0x3B3 JUMPI PUSH2 0x3B2 PUSH2 0x2E1 JUMP JUMPDEST JUMPDEST PUSH0 PUSH2 0x3C0 DUP6 DUP3 DUP7 ADD PUSH2 0x389 JUMP JUMPDEST SWAP3 POP POP PUSH1 0x20 PUSH2 0x3D1 DUP6 DUP3 DUP7 ADD PUSH2 0x389 JUMP JUMPDEST SWAP2 POP POP SWAP3 POP SWAP3 SWAP1 POP JUMP JUMPDEST PUSH32 0x4E487B7100000000000000000000000000000000000000000000000000000000 PUSH0 MSTORE PUSH1 0x12 PUSH1 0x4 MSTORE PUSH1 0x24 PUSH0 REVERT JUMPDEST PUSH0 PUSH2 0x412 DUP3 PUSH2 0x2E5 JUMP JUMPDEST SWAP2 POP PUSH2 0x41D DUP4 PUSH2 0x2E5 JUMP JUMPDEST SWAP3 POP DUP3 PUSH2 0x42D JUMPI PUSH2 0x42C PUSH2 0x3DB JUMP JUMPDEST JUMPDEST DUP3 DUP3 MOD SWAP1 POP SWAP3 SWAP2 POP POP JUMP JUMPDEST PUSH0 DUP3 DUP3 MSTORE PUSH1 0x20 DUP3 ADD SWAP1 POP SWAP3 SWAP2 POP POP JUMP JUMPDEST PUSH32 0x4576656E2076616C756520726576657274642E00000000000000000000000000 PUSH0 DUP3 ADD MSTORE POP JUMP JUMPDEST PUSH0 PUSH2 0x47C PUSH1 0x13 DUP4 PUSH2 0x438 JUMP JUMPDEST SWAP2 POP PUSH2 0x487 DUP3 PUSH2 0x448 JUMP JUMPDEST PUSH1 0x20 DUP3 ADD SWAP1 POP SWAP2 SWAP1 POP JUMP JUMPDEST PUSH0 PUSH1 0x20 DUP3 ADD SWAP1 POP DUP2 DUP2 SUB PUSH0 DUP4 ADD MSTORE PUSH2 0x4A9 DUP2 PUSH2 0x470 JUMP JUMPDEST SWAP1 POP SWAP2 SWAP1 POP JUMP JUMPDEST PUSH32 0x4576656E2076616C75652072657175697265642E000000000000000000000000 PUSH0 DUP3 ADD MSTORE POP JUMP JUMPDEST PUSH0 PUSH2 0x4E4 PUSH1 0x14 DUP4 PUSH2 0x438 JUMP JUMPDEST SWAP2 POP PUSH2 0x4EF DUP3 PUSH2 0x4B0 JUMP JUMPDEST PUSH1 0x20 DUP3 ADD SWAP1 POP SWAP2 SWAP1 POP JUMP JUMPDEST PUSH0 PUSH1 0x20 DUP3 ADD SWAP1 POP DUP2 DUP2 SUB PUSH0 DUP4 ADD MSTORE PUSH2 0x511 DUP2 PUSH2 0x4D8 JUMP JUMPDEST SWAP1 POP SWAP2 SWAP1 POP JUMP JUMPDEST PUSH0 PUSH2 0x522 DUP3 PUSH2 0x2E5 JUMP JUMPDEST SWAP2 POP PUSH2 0x52D DUP4 PUSH2 0x2E5 JUMP JUMPDEST SWAP3 POP DUP3 PUSH2 0x53D JUMPI PUSH2 0x53C PUSH2 0x3DB JUMP JUMPDEST JUMPDEST DUP3 DUP3 DIV SWAP1 POP SWAP3 SWAP2 POP POP JUMP JUMPDEST PUSH32 0x4E487B7100000000000000000000000000000000000000000000000000000000 PUSH0 MSTORE PUSH1 0x1 PUSH1 0x4 MSTORE PUSH1 0x24 PUSH0 REVERT INVALID LOG2 PUSH5 0x6970667358 0x22 SLT KECCAK256 EXTCODECOPY 0xC3 SWAP2 INVALID 0xB2 SWAP16 SUB 0xC5 0xC7 MOD 0xE5 SDIV PUSH15 0xA5BD709056527E7B9676461B251FBF ADDMOD 0x26 XOR SAR PUSH5 0x736F6C6343 STOP ADDMOD BYTE STOP CALLER "
				},
				"gasEstimates": {
					"creation": {
						"codeDepositCost": "290200",
						"executionCost": "329",
						"totalCost": "290529"
					},
					"external": {
						"Assert(address,address)": "infinite",
						"Require(address,address)": "infinite",
						"Revert(uint256)": "infinite"
					}
				},
				"methodIdentifiers": {
					"Assert(address,address)": "affbb6f1",
					"Require(address,address)": "a29f11a1",
					"Revert(uint256)": "9d434160"
				}
			},
			"storageLayout": {
				"storage": [],
				"types": null
			},
			"userdoc": {
				"kind": "user",
				"methods": {},
				"version": 1
			}
		}
	}
}