{
	"contracts/12/Struct.sol": {
		"MyContract": {
			"abi": [
				{
					"inputs": [
						{
							"components": [
								{
									"internalType": "string",
									"name": "title",
									"type": "string"
								},
								{
									"internalType": "uint256",
									"name": "price",
									"type": "uint256"
								}
							],
							"internalType": "struct Book",
							"name": "book",
							"type": "tuple"
						}
					],
					"name": "addNewBook",
					"outputs": [],
					"stateMutability": "nonpayable",
					"type": "function"
				},
				{
					"inputs": [],
					"name": "book",
					"outputs": [
						{
							"internalType": "string",
							"name": "title",
							"type": "string"
						},
						{
							"internalType": "uint256",
							"name": "price",
							"type": "uint256"
						}
					],
					"stateMutability": "view",
					"type": "function"
				},
				{
					"inputs": [],
					"name": "getBook",
					"outputs": [
						{
							"internalType": "string",
							"name": "",
							"type": "string"
						},
						{
							"internalType": "uint256",
							"name": "",
							"type": "uint256"
						}
					],
					"stateMutability": "view",
					"type": "function"
				},
				{
					"inputs": [
						{
							"internalType": "uint256",
							"name": "",
							"type": "uint256"
						}
					],
					"name": "lib",
					"outputs": [
						{
							"internalType": "string",
							"name": "title",
							"type": "string"
						},
						{
							"internalType": "uint256",
							"name": "price",
							"type": "uint256"
						}
					],
					"stateMutability": "view",
					"type": "function"
				},
				{
					"inputs": [
						{
							"internalType": "string",
							"name": "_title",
							"type": "string"
						},
						{
							"internalType": "uint256",
							"name": "_price",
							"type": "uint256"
						}
					],
					"name": "setBook",
					"outputs": [],
					"stateMutability": "nonpayable",
					"type": "function"
				}
			],
			"devdoc": {
				"kind": "dev",
				"methods": {},
				"version": 1
			},
			"evm": {
				"assembly": "    /* \"contracts/12/Struct.sol\":133:1532  contract MyContract {... */\n  mstore(0x40, 0x80)\n  callvalue\n  dup1\n  iszero\n  tag_1\n  jumpi\n  0x00\n  dup1\n  revert\ntag_1:\n  pop\n  dataSize(sub_0)\n  dup1\n  dataOffset(sub_0)\n  0x00\n  codecopy\n  0x00\n  return\nstop\n\nsub_0: assembly {\n        /* \"contracts/12/Struct.sol\":133:1532  contract MyContract {... */\n      mstore(0x40, 0x80)\n      callvalue\n      dup1\n      iszero\n      tag_1\n      jumpi\n      0x00\n      dup1\n      revert\n    tag_1:\n      pop\n      jumpi(tag_2, lt(calldatasize, 0x04))\n      shr(0xe0, calldataload(0x00))\n      dup1\n      0x05a8da72\n      eq\n      tag_3\n      jumpi\n      dup1\n      0x3b0c197e\n      eq\n      tag_4\n      jumpi\n      dup1\n      0x808f0114\n      eq\n      tag_5\n      jumpi\n      dup1\n      0x912704f2\n      eq\n      tag_6\n      jumpi\n      dup1\n      0xbbeaf7a1\n      eq\n      tag_7\n      jumpi\n    tag_2:\n      0x00\n      dup1\n      revert\n        /* \"contracts/12/Struct.sol\":459:475  Book public book */\n    tag_3:\n      tag_8\n      tag_9\n      jump\t// in\n    tag_8:\n      mload(0x40)\n      tag_10\n      swap3\n      swap2\n      swap1\n      tag_11\n      jump\t// in\n    tag_10:\n      mload(0x40)\n      dup1\n      swap2\n      sub\n      swap1\n      return\n        /* \"contracts/12/Struct.sol\":882:991  function getBook() public view returns (string memory, uint) {... */\n    tag_4:\n      tag_12\n      tag_13\n      jump\t// in\n    tag_12:\n      mload(0x40)\n      tag_14\n      swap3\n      swap2\n      swap1\n      tag_11\n      jump\t// in\n    tag_14:\n      mload(0x40)\n      dup1\n      swap2\n      sub\n      swap1\n      return\n        /* \"contracts/12/Struct.sol\":513:876  function setBook(string memory _title, uint _price) public {... */\n    tag_5:\n      tag_15\n      0x04\n      dup1\n      calldatasize\n      sub\n      dup2\n      add\n      swap1\n      tag_16\n      swap2\n      swap1\n      tag_17\n      jump\t// in\n    tag_16:\n      tag_18\n      jump\t// in\n    tag_15:\n      stop\n        /* \"contracts/12/Struct.sol\":1453:1529  function addNewBook(Book memory book) public {... */\n    tag_6:\n      tag_19\n      0x04\n      dup1\n      calldatasize\n      sub\n      dup2\n      add\n      swap1\n      tag_20\n      swap2\n      swap1\n      tag_21\n      jump\t// in\n    tag_20:\n      tag_22\n      jump\t// in\n    tag_19:\n      stop\n        /* \"contracts/12/Struct.sol\":1400:1417  Book[] public lib */\n    tag_7:\n      tag_23\n      0x04\n      dup1\n      calldatasize\n      sub\n      dup2\n      add\n      swap1\n      tag_24\n      swap2\n      swap1\n      tag_25\n      jump\t// in\n    tag_24:\n      tag_26\n      jump\t// in\n    tag_23:\n      mload(0x40)\n      tag_27\n      swap3\n      swap2\n      swap1\n      tag_11\n      jump\t// in\n    tag_27:\n      mload(0x40)\n      dup1\n      swap2\n      sub\n      swap1\n      return\n        /* \"contracts/12/Struct.sol\":459:475  Book public book */\n    tag_9:\n      0x00\n      dup1\n      0x00\n      add\n      dup1\n      sload\n      tag_28\n      swap1\n      tag_29\n      jump\t// in\n    tag_28:\n      dup1\n      0x1f\n      add\n      0x20\n      dup1\n      swap2\n      div\n      mul\n      0x20\n      add\n      mload(0x40)\n      swap1\n      dup2\n      add\n      0x40\n      mstore\n      dup1\n      swap3\n      swap2\n      swap1\n      dup2\n      dup2\n      mstore\n      0x20\n      add\n      dup3\n      dup1\n      sload\n      tag_30\n      swap1\n      tag_29\n      jump\t// in\n    tag_30:\n      dup1\n      iszero\n      tag_31\n      jumpi\n      dup1\n      0x1f\n      lt\n      tag_32\n      jumpi\n      0x0100\n      dup1\n      dup4\n      sload\n      div\n      mul\n      dup4\n      mstore\n      swap2\n      0x20\n      add\n      swap2\n      jump(tag_31)\n    tag_32:\n      dup3\n      add\n      swap2\n      swap1\n      0x00\n      mstore\n      keccak256(0x00, 0x20)\n      swap1\n    tag_33:\n      dup2\n      sload\n      dup2\n      mstore\n      swap1\n      0x01\n      add\n      swap1\n      0x20\n      add\n      dup1\n      dup4\n      gt\n      tag_33\n      jumpi\n      dup3\n      swap1\n      sub\n      0x1f\n      and\n      dup3\n      add\n      swap2\n    tag_31:\n      pop\n      pop\n      pop\n      pop\n      pop\n      swap1\n      dup1\n      0x01\n      add\n      sload\n      swap1\n      pop\n      dup3\n      jump\t// out\n        /* \"contracts/12/Struct.sol\":882:991  function getBook() public view returns (string memory, uint) {... */\n    tag_13:\n        /* \"contracts/12/Struct.sol\":922:935  string memory */\n      0x60\n        /* \"contracts/12/Struct.sol\":937:941  uint */\n      0x00\n        /* \"contracts/12/Struct.sol\":961:965  book */\n      dup1\n        /* \"contracts/12/Struct.sol\":961:971  book.title */\n      0x00\n      add\n        /* \"contracts/12/Struct.sol\":973:977  book */\n      0x00\n        /* \"contracts/12/Struct.sol\":973:983  book.price */\n      0x01\n      add\n      sload\n        /* \"contracts/12/Struct.sol\":953:984  return (book.title, book.price) */\n      dup2\n      dup1\n      sload\n      tag_35\n      swap1\n      tag_29\n      jump\t// in\n    tag_35:\n      dup1\n      0x1f\n      add\n      0x20\n      dup1\n      swap2\n      div\n      mul\n      0x20\n      add\n      mload(0x40)\n      swap1\n      dup2\n      add\n      0x40\n      mstore\n      dup1\n      swap3\n      swap2\n      swap1\n      dup2\n      dup2\n      mstore\n      0x20\n      add\n      dup3\n      dup1\n      sload\n      tag_36\n      swap1\n      tag_29\n      jump\t// in\n    tag_36:\n      dup1\n      iszero\n      tag_37\n      jumpi\n      dup1\n      0x1f\n      lt\n      tag_38\n      jumpi\n      0x0100\n      dup1\n      dup4\n      sload\n      div\n      mul\n      dup4\n      mstore\n      swap2\n      0x20\n      add\n      swap2\n      jump(tag_37)\n    tag_38:\n      dup3\n      add\n      swap2\n      swap1\n      0x00\n      mstore\n      keccak256(0x00, 0x20)\n      swap1\n    tag_39:\n      dup2\n      sload\n      dup2\n      mstore\n      swap1\n      0x01\n      add\n      swap1\n      0x20\n      add\n      dup1\n      dup4\n      gt\n      tag_39\n      jumpi\n      dup3\n      swap1\n      sub\n      0x1f\n      and\n      dup3\n      add\n      swap2\n    tag_37:\n      pop\n      pop\n      pop\n      pop\n      pop\n      swap2\n      pop\n      swap2\n      pop\n      swap2\n      pop\n        /* \"contracts/12/Struct.sol\":882:991  function getBook() public view returns (string memory, uint) {... */\n      swap1\n      swap2\n      jump\t// out\n        /* \"contracts/12/Struct.sol\":513:876  function setBook(string memory _title, uint _price) public {... */\n    tag_18:\n        /* \"contracts/12/Struct.sol\":834:840  _title */\n      dup2\n        /* \"contracts/12/Struct.sol\":821:825  book */\n      0x00\n        /* \"contracts/12/Struct.sol\":821:831  book.title */\n      dup1\n      add\n        /* \"contracts/12/Struct.sol\":821:840  book.title = _title */\n      swap1\n      dup2\n      tag_41\n      swap2\n      swap1\n      tag_42\n      jump\t// in\n    tag_41:\n      pop\n        /* \"contracts/12/Struct.sol\":863:869  _price */\n      dup1\n        /* \"contracts/12/Struct.sol\":850:854  book */\n      0x00\n        /* \"contracts/12/Struct.sol\":850:860  book.price */\n      0x01\n      add\n        /* \"contracts/12/Struct.sol\":850:869  book.price = _price */\n      dup2\n      swap1\n      sstore\n      pop\n        /* \"contracts/12/Struct.sol\":513:876  function setBook(string memory _title, uint _price) public {... */\n      pop\n      pop\n      jump\t// out\n        /* \"contracts/12/Struct.sol\":1453:1529  function addNewBook(Book memory book) public {... */\n    tag_22:\n        /* \"contracts/12/Struct.sol\":1508:1511  lib */\n      0x02\n        /* \"contracts/12/Struct.sol\":1517:1521  book */\n      dup2\n        /* \"contracts/12/Struct.sol\":1508:1522  lib.push(book) */\n      swap1\n      dup1\n      0x01\n      dup2\n      sload\n      add\n      dup1\n      dup3\n      sstore\n      dup1\n      swap2\n      pop\n      pop\n      0x01\n      swap1\n      sub\n      swap1\n      0x00\n      mstore\n      keccak256(0x00, 0x20)\n      swap1\n      0x02\n      mul\n      add\n      0x00\n      swap1\n      swap2\n      swap1\n      swap2\n      swap1\n      swap2\n      pop\n      0x00\n      dup3\n      add\n      mload\n      dup2\n      0x00\n      add\n      swap1\n      dup2\n      tag_45\n      swap2\n      swap1\n      tag_42\n      jump\t// in\n    tag_45:\n      pop\n      0x20\n      dup3\n      add\n      mload\n      dup2\n      0x01\n      add\n      sstore\n      pop\n      pop\n        /* \"contracts/12/Struct.sol\":1453:1529  function addNewBook(Book memory book) public {... */\n      pop\n      jump\t// out\n        /* \"contracts/12/Struct.sol\":1400:1417  Book[] public lib */\n    tag_26:\n      0x02\n      dup2\n      dup2\n      sload\n      dup2\n      lt\n      tag_46\n      jumpi\n      0x00\n      dup1\n      revert\n    tag_46:\n      swap1\n      0x00\n      mstore\n      keccak256(0x00, 0x20)\n      swap1\n      0x02\n      mul\n      add\n      0x00\n      swap2\n      pop\n      swap1\n      pop\n      dup1\n      0x00\n      add\n      dup1\n      sload\n      tag_48\n      swap1\n      tag_29\n      jump\t// in\n    tag_48:\n      dup1\n      0x1f\n      add\n      0x20\n      dup1\n      swap2\n      div\n      mul\n      0x20\n      add\n      mload(0x40)\n      swap1\n      dup2\n      add\n      0x40\n      mstore\n      dup1\n      swap3\n      swap2\n      swap1\n      dup2\n      dup2\n      mstore\n      0x20\n      add\n      dup3\n      dup1\n      sload\n      tag_49\n      swap1\n      tag_29\n      jump\t// in\n    tag_49:\n      dup1\n      iszero\n      tag_50\n      jumpi\n      dup1\n      0x1f\n      lt\n      tag_51\n      jumpi\n      0x0100\n      dup1\n      dup4\n      sload\n      div\n      mul\n      dup4\n      mstore\n      swap2\n      0x20\n      add\n      swap2\n      jump(tag_50)\n    tag_51:\n      dup3\n      add\n      swap2\n      swap1\n      0x00\n      mstore\n      keccak256(0x00, 0x20)\n      swap1\n    tag_52:\n      dup2\n      sload\n      dup2\n      mstore\n      swap1\n      0x01\n      add\n      swap1\n      0x20\n      add\n      dup1\n      dup4\n      gt\n      tag_52\n      jumpi\n      dup3\n      swap1\n      sub\n      0x1f\n      and\n      dup3\n      add\n      swap2\n    tag_50:\n      pop\n      pop\n      pop\n      pop\n      pop\n      swap1\n      dup1\n      0x01\n      add\n      sload\n      swap1\n      pop\n      dup3\n      jump\t// out\n        /* \"#utility.yul\":7:106   */\n    tag_53:\n        /* \"#utility.yul\":59:65   */\n      0x00\n        /* \"#utility.yul\":93:98   */\n      dup2\n        /* \"#utility.yul\":87:99   */\n      mload\n        /* \"#utility.yul\":77:99   */\n      swap1\n      pop\n        /* \"#utility.yul\":7:106   */\n      swap2\n      swap1\n      pop\n      jump\t// out\n        /* \"#utility.yul\":112:281   */\n    tag_54:\n        /* \"#utility.yul\":196:207   */\n      0x00\n        /* \"#utility.yul\":230:236   */\n      dup3\n        /* \"#utility.yul\":225:228   */\n      dup3\n        /* \"#utility.yul\":218:237   */\n      mstore\n        /* \"#utility.yul\":270:274   */\n      0x20\n        /* \"#utility.yul\":265:268   */\n      dup3\n        /* \"#utility.yul\":261:275   */\n      add\n        /* \"#utility.yul\":246:275   */\n      swap1\n      pop\n        /* \"#utility.yul\":112:281   */\n      swap3\n      swap2\n      pop\n      pop\n      jump\t// out\n        /* \"#utility.yul\":287:426   */\n    tag_55:\n        /* \"#utility.yul\":376:382   */\n      dup3\n        /* \"#utility.yul\":371:374   */\n      dup2\n        /* \"#utility.yul\":366:369   */\n      dup4\n        /* \"#utility.yul\":360:383   */\n      mcopy\n        /* \"#utility.yul\":417:418   */\n      0x00\n        /* \"#utility.yul\":408:414   */\n      dup4\n        /* \"#utility.yul\":403:406   */\n      dup4\n        /* \"#utility.yul\":399:415   */\n      add\n        /* \"#utility.yul\":392:419   */\n      mstore\n        /* \"#utility.yul\":287:426   */\n      pop\n      pop\n      pop\n      jump\t// out\n        /* \"#utility.yul\":432:534   */\n    tag_56:\n        /* \"#utility.yul\":473:479   */\n      0x00\n        /* \"#utility.yul\":524:526   */\n      0x1f\n        /* \"#utility.yul\":520:527   */\n      not\n        /* \"#utility.yul\":515:517   */\n      0x1f\n        /* \"#utility.yul\":508:513   */\n      dup4\n        /* \"#utility.yul\":504:518   */\n      add\n        /* \"#utility.yul\":500:528   */\n      and\n        /* \"#utility.yul\":490:528   */\n      swap1\n      pop\n        /* \"#utility.yul\":432:534   */\n      swap2\n      swap1\n      pop\n      jump\t// out\n        /* \"#utility.yul\":540:917   */\n    tag_57:\n        /* \"#utility.yul\":628:631   */\n      0x00\n        /* \"#utility.yul\":656:695   */\n      tag_99\n        /* \"#utility.yul\":689:694   */\n      dup3\n        /* \"#utility.yul\":656:695   */\n      tag_53\n      jump\t// in\n    tag_99:\n        /* \"#utility.yul\":711:782   */\n      tag_100\n        /* \"#utility.yul\":775:781   */\n      dup2\n        /* \"#utility.yul\":770:773   */\n      dup6\n        /* \"#utility.yul\":711:782   */\n      tag_54\n      jump\t// in\n    tag_100:\n        /* \"#utility.yul\":704:782   */\n      swap4\n      pop\n        /* \"#utility.yul\":791:856   */\n      tag_101\n        /* \"#utility.yul\":849:855   */\n      dup2\n        /* \"#utility.yul\":844:847   */\n      dup6\n        /* \"#utility.yul\":837:841   */\n      0x20\n        /* \"#utility.yul\":830:835   */\n      dup7\n        /* \"#utility.yul\":826:842   */\n      add\n        /* \"#utility.yul\":791:856   */\n      tag_55\n      jump\t// in\n    tag_101:\n        /* \"#utility.yul\":881:910   */\n      tag_102\n        /* \"#utility.yul\":903:909   */\n      dup2\n        /* \"#utility.yul\":881:910   */\n      tag_56\n      jump\t// in\n    tag_102:\n        /* \"#utility.yul\":876:879   */\n      dup5\n        /* \"#utility.yul\":872:911   */\n      add\n        /* \"#utility.yul\":865:911   */\n      swap2\n      pop\n        /* \"#utility.yul\":632:917   */\n      pop\n        /* \"#utility.yul\":540:917   */\n      swap3\n      swap2\n      pop\n      pop\n      jump\t// out\n        /* \"#utility.yul\":923:1000   */\n    tag_58:\n        /* \"#utility.yul\":960:967   */\n      0x00\n        /* \"#utility.yul\":989:994   */\n      dup2\n        /* \"#utility.yul\":978:994   */\n      swap1\n      pop\n        /* \"#utility.yul\":923:1000   */\n      swap2\n      swap1\n      pop\n      jump\t// out\n        /* \"#utility.yul\":1006:1124   */\n    tag_59:\n        /* \"#utility.yul\":1093:1117   */\n      tag_105\n        /* \"#utility.yul\":1111:1116   */\n      dup2\n        /* \"#utility.yul\":1093:1117   */\n      tag_58\n      jump\t// in\n    tag_105:\n        /* \"#utility.yul\":1088:1091   */\n      dup3\n        /* \"#utility.yul\":1081:1118   */\n      mstore\n        /* \"#utility.yul\":1006:1124   */\n      pop\n      pop\n      jump\t// out\n        /* \"#utility.yul\":1130:1553   */\n    tag_11:\n        /* \"#utility.yul\":1271:1275   */\n      0x00\n        /* \"#utility.yul\":1309:1311   */\n      0x40\n        /* \"#utility.yul\":1298:1307   */\n      dup3\n        /* \"#utility.yul\":1294:1312   */\n      add\n        /* \"#utility.yul\":1286:1312   */\n      swap1\n      pop\n        /* \"#utility.yul\":1358:1367   */\n      dup2\n        /* \"#utility.yul\":1352:1356   */\n      dup2\n        /* \"#utility.yul\":1348:1368   */\n      sub\n        /* \"#utility.yul\":1344:1345   */\n      0x00\n        /* \"#utility.yul\":1333:1342   */\n      dup4\n        /* \"#utility.yul\":1329:1346   */\n      add\n        /* \"#utility.yul\":1322:1369   */\n      mstore\n        /* \"#utility.yul\":1386:1464   */\n      tag_107\n        /* \"#utility.yul\":1459:1463   */\n      dup2\n        /* \"#utility.yul\":1450:1456   */\n      dup6\n        /* \"#utility.yul\":1386:1464   */\n      tag_57\n      jump\t// in\n    tag_107:\n        /* \"#utility.yul\":1378:1464   */\n      swap1\n      pop\n        /* \"#utility.yul\":1474:1546   */\n      tag_108\n        /* \"#utility.yul\":1542:1544   */\n      0x20\n        /* \"#utility.yul\":1531:1540   */\n      dup4\n        /* \"#utility.yul\":1527:1545   */\n      add\n        /* \"#utility.yul\":1518:1524   */\n      dup5\n        /* \"#utility.yul\":1474:1546   */\n      tag_59\n      jump\t// in\n    tag_108:\n        /* \"#utility.yul\":1130:1553   */\n      swap4\n      swap3\n      pop\n      pop\n      pop\n      jump\t// out\n        /* \"#utility.yul\":1559:1634   */\n    tag_60:\n        /* \"#utility.yul\":1592:1598   */\n      0x00\n        /* \"#utility.yul\":1625:1627   */\n      0x40\n        /* \"#utility.yul\":1619:1628   */\n      mload\n        /* \"#utility.yul\":1609:1628   */\n      swap1\n      pop\n        /* \"#utility.yul\":1559:1634   */\n      swap1\n      jump\t// out\n        /* \"#utility.yul\":1640:1757   */\n    tag_61:\n        /* \"#utility.yul\":1749:1750   */\n      0x00\n        /* \"#utility.yul\":1746:1747   */\n      dup1\n        /* \"#utility.yul\":1739:1751   */\n      revert\n        /* \"#utility.yul\":1763:1880   */\n    tag_62:\n        /* \"#utility.yul\":1872:1873   */\n      0x00\n        /* \"#utility.yul\":1869:1870   */\n      dup1\n        /* \"#utility.yul\":1862:1874   */\n      revert\n        /* \"#utility.yul\":1886:2003   */\n    tag_63:\n        /* \"#utility.yul\":1995:1996   */\n      0x00\n        /* \"#utility.yul\":1992:1993   */\n      dup1\n        /* \"#utility.yul\":1985:1997   */\n      revert\n        /* \"#utility.yul\":2009:2126   */\n    tag_64:\n        /* \"#utility.yul\":2118:2119   */\n      0x00\n        /* \"#utility.yul\":2115:2116   */\n      dup1\n        /* \"#utility.yul\":2108:2120   */\n      revert\n        /* \"#utility.yul\":2132:2312   */\n    tag_65:\n        /* \"#utility.yul\":2180:2257   */\n      0x4e487b7100000000000000000000000000000000000000000000000000000000\n        /* \"#utility.yul\":2177:2178   */\n      0x00\n        /* \"#utility.yul\":2170:2258   */\n      mstore\n        /* \"#utility.yul\":2277:2281   */\n      0x41\n        /* \"#utility.yul\":2274:2275   */\n      0x04\n        /* \"#utility.yul\":2267:2282   */\n      mstore\n        /* \"#utility.yul\":2301:2305   */\n      0x24\n        /* \"#utility.yul\":2298:2299   */\n      0x00\n        /* \"#utility.yul\":2291:2306   */\n      revert\n        /* \"#utility.yul\":2318:2599   */\n    tag_66:\n        /* \"#utility.yul\":2401:2428   */\n      tag_116\n        /* \"#utility.yul\":2423:2427   */\n      dup3\n        /* \"#utility.yul\":2401:2428   */\n      tag_56\n      jump\t// in\n    tag_116:\n        /* \"#utility.yul\":2393:2399   */\n      dup2\n        /* \"#utility.yul\":2389:2429   */\n      add\n        /* \"#utility.yul\":2531:2537   */\n      dup2\n        /* \"#utility.yul\":2519:2529   */\n      dup2\n        /* \"#utility.yul\":2516:2538   */\n      lt\n        /* \"#utility.yul\":2495:2513   */\n      0xffffffffffffffff\n        /* \"#utility.yul\":2483:2493   */\n      dup3\n        /* \"#utility.yul\":2480:2514   */\n      gt\n        /* \"#utility.yul\":2477:2539   */\n      or\n        /* \"#utility.yul\":2474:2562   */\n      iszero\n      tag_117\n      jumpi\n        /* \"#utility.yul\":2542:2560   */\n      tag_118\n      tag_65\n      jump\t// in\n    tag_118:\n        /* \"#utility.yul\":2474:2562   */\n    tag_117:\n        /* \"#utility.yul\":2582:2592   */\n      dup1\n        /* \"#utility.yul\":2578:2580   */\n      0x40\n        /* \"#utility.yul\":2571:2593   */\n      mstore\n        /* \"#utility.yul\":2361:2599   */\n      pop\n        /* \"#utility.yul\":2318:2599   */\n      pop\n      pop\n      jump\t// out\n        /* \"#utility.yul\":2605:2734   */\n    tag_67:\n        /* \"#utility.yul\":2639:2645   */\n      0x00\n        /* \"#utility.yul\":2666:2686   */\n      tag_120\n      tag_60\n      jump\t// in\n    tag_120:\n        /* \"#utility.yul\":2656:2686   */\n      swap1\n      pop\n        /* \"#utility.yul\":2695:2728   */\n      tag_121\n        /* \"#utility.yul\":2723:2727   */\n      dup3\n        /* \"#utility.yul\":2715:2721   */\n      dup3\n        /* \"#utility.yul\":2695:2728   */\n      tag_66\n      jump\t// in\n    tag_121:\n        /* \"#utility.yul\":2605:2734   */\n      swap2\n      swap1\n      pop\n      jump\t// out\n        /* \"#utility.yul\":2740:3048   */\n    tag_68:\n        /* \"#utility.yul\":2802:2806   */\n      0x00\n        /* \"#utility.yul\":2892:2910   */\n      0xffffffffffffffff\n        /* \"#utility.yul\":2884:2890   */\n      dup3\n        /* \"#utility.yul\":2881:2911   */\n      gt\n        /* \"#utility.yul\":2878:2934   */\n      iszero\n      tag_123\n      jumpi\n        /* \"#utility.yul\":2914:2932   */\n      tag_124\n      tag_65\n      jump\t// in\n    tag_124:\n        /* \"#utility.yul\":2878:2934   */\n    tag_123:\n        /* \"#utility.yul\":2952:2981   */\n      tag_125\n        /* \"#utility.yul\":2974:2980   */\n      dup3\n        /* \"#utility.yul\":2952:2981   */\n      tag_56\n      jump\t// in\n    tag_125:\n        /* \"#utility.yul\":2944:2981   */\n      swap1\n      pop\n        /* \"#utility.yul\":3036:3040   */\n      0x20\n        /* \"#utility.yul\":3030:3034   */\n      dup2\n        /* \"#utility.yul\":3026:3041   */\n      add\n        /* \"#utility.yul\":3018:3041   */\n      swap1\n      pop\n        /* \"#utility.yul\":2740:3048   */\n      swap2\n      swap1\n      pop\n      jump\t// out\n        /* \"#utility.yul\":3054:3202   */\n    tag_69:\n        /* \"#utility.yul\":3152:3158   */\n      dup3\n        /* \"#utility.yul\":3147:3150   */\n      dup2\n        /* \"#utility.yul\":3142:3145   */\n      dup4\n        /* \"#utility.yul\":3129:3159   */\n      calldatacopy\n        /* \"#utility.yul\":3193:3194   */\n      0x00\n        /* \"#utility.yul\":3184:3190   */\n      dup4\n        /* \"#utility.yul\":3179:3182   */\n      dup4\n        /* \"#utility.yul\":3175:3191   */\n      add\n        /* \"#utility.yul\":3168:3195   */\n      mstore\n        /* \"#utility.yul\":3054:3202   */\n      pop\n      pop\n      pop\n      jump\t// out\n        /* \"#utility.yul\":3208:3633   */\n    tag_70:\n        /* \"#utility.yul\":3286:3291   */\n      0x00\n        /* \"#utility.yul\":3311:3377   */\n      tag_128\n        /* \"#utility.yul\":3327:3376   */\n      tag_129\n        /* \"#utility.yul\":3369:3375   */\n      dup5\n        /* \"#utility.yul\":3327:3376   */\n      tag_68\n      jump\t// in\n    tag_129:\n        /* \"#utility.yul\":3311:3377   */\n      tag_67\n      jump\t// in\n    tag_128:\n        /* \"#utility.yul\":3302:3377   */\n      swap1\n      pop\n        /* \"#utility.yul\":3400:3406   */\n      dup3\n        /* \"#utility.yul\":3393:3398   */\n      dup2\n        /* \"#utility.yul\":3386:3407   */\n      mstore\n        /* \"#utility.yul\":3438:3442   */\n      0x20\n        /* \"#utility.yul\":3431:3436   */\n      dup2\n        /* \"#utility.yul\":3427:3443   */\n      add\n        /* \"#utility.yul\":3476:3479   */\n      dup5\n        /* \"#utility.yul\":3467:3473   */\n      dup5\n        /* \"#utility.yul\":3462:3465   */\n      dup5\n        /* \"#utility.yul\":3458:3474   */\n      add\n        /* \"#utility.yul\":3455:3480   */\n      gt\n        /* \"#utility.yul\":3452:3564   */\n      iszero\n      tag_130\n      jumpi\n        /* \"#utility.yul\":3483:3562   */\n      tag_131\n      tag_64\n      jump\t// in\n    tag_131:\n        /* \"#utility.yul\":3452:3564   */\n    tag_130:\n        /* \"#utility.yul\":3573:3627   */\n      tag_132\n        /* \"#utility.yul\":3620:3626   */\n      dup5\n        /* \"#utility.yul\":3615:3618   */\n      dup3\n        /* \"#utility.yul\":3610:3613   */\n      dup6\n        /* \"#utility.yul\":3573:3627   */\n      tag_69\n      jump\t// in\n    tag_132:\n        /* \"#utility.yul\":3292:3633   */\n      pop\n        /* \"#utility.yul\":3208:3633   */\n      swap4\n      swap3\n      pop\n      pop\n      pop\n      jump\t// out\n        /* \"#utility.yul\":3653:3993   */\n    tag_71:\n        /* \"#utility.yul\":3709:3714   */\n      0x00\n        /* \"#utility.yul\":3758:3761   */\n      dup3\n        /* \"#utility.yul\":3751:3755   */\n      0x1f\n        /* \"#utility.yul\":3743:3749   */\n      dup4\n        /* \"#utility.yul\":3739:3756   */\n      add\n        /* \"#utility.yul\":3735:3762   */\n      slt\n        /* \"#utility.yul\":3725:3847   */\n      tag_134\n      jumpi\n        /* \"#utility.yul\":3766:3845   */\n      tag_135\n      tag_63\n      jump\t// in\n    tag_135:\n        /* \"#utility.yul\":3725:3847   */\n    tag_134:\n        /* \"#utility.yul\":3883:3889   */\n      dup2\n        /* \"#utility.yul\":3870:3890   */\n      calldataload\n        /* \"#utility.yul\":3908:3987   */\n      tag_136\n        /* \"#utility.yul\":3983:3986   */\n      dup5\n        /* \"#utility.yul\":3975:3981   */\n      dup3\n        /* \"#utility.yul\":3968:3972   */\n      0x20\n        /* \"#utility.yul\":3960:3966   */\n      dup7\n        /* \"#utility.yul\":3956:3973   */\n      add\n        /* \"#utility.yul\":3908:3987   */\n      tag_70\n      jump\t// in\n    tag_136:\n        /* \"#utility.yul\":3899:3987   */\n      swap2\n      pop\n        /* \"#utility.yul\":3715:3993   */\n      pop\n        /* \"#utility.yul\":3653:3993   */\n      swap3\n      swap2\n      pop\n      pop\n      jump\t// out\n        /* \"#utility.yul\":3999:4121   */\n    tag_72:\n        /* \"#utility.yul\":4072:4096   */\n      tag_138\n        /* \"#utility.yul\":4090:4095   */\n      dup2\n        /* \"#utility.yul\":4072:4096   */\n      tag_58\n      jump\t// in\n    tag_138:\n        /* \"#utility.yul\":4065:4070   */\n      dup2\n        /* \"#utility.yul\":4062:4097   */\n      eq\n        /* \"#utility.yul\":4052:4115   */\n      tag_139\n      jumpi\n        /* \"#utility.yul\":4111:4112   */\n      0x00\n        /* \"#utility.yul\":4108:4109   */\n      dup1\n        /* \"#utility.yul\":4101:4113   */\n      revert\n        /* \"#utility.yul\":4052:4115   */\n    tag_139:\n        /* \"#utility.yul\":3999:4121   */\n      pop\n      jump\t// out\n        /* \"#utility.yul\":4127:4266   */\n    tag_73:\n        /* \"#utility.yul\":4173:4178   */\n      0x00\n        /* \"#utility.yul\":4211:4217   */\n      dup2\n        /* \"#utility.yul\":4198:4218   */\n      calldataload\n        /* \"#utility.yul\":4189:4218   */\n      swap1\n      pop\n        /* \"#utility.yul\":4227:4260   */\n      tag_141\n        /* \"#utility.yul\":4254:4259   */\n      dup2\n        /* \"#utility.yul\":4227:4260   */\n      tag_72\n      jump\t// in\n    tag_141:\n        /* \"#utility.yul\":4127:4266   */\n      swap3\n      swap2\n      pop\n      pop\n      jump\t// out\n        /* \"#utility.yul\":4272:4926   */\n    tag_17:\n        /* \"#utility.yul\":4350:4356   */\n      0x00\n        /* \"#utility.yul\":4358:4364   */\n      dup1\n        /* \"#utility.yul\":4407:4409   */\n      0x40\n        /* \"#utility.yul\":4395:4404   */\n      dup4\n        /* \"#utility.yul\":4386:4393   */\n      dup6\n        /* \"#utility.yul\":4382:4405   */\n      sub\n        /* \"#utility.yul\":4378:4410   */\n      slt\n        /* \"#utility.yul\":4375:4494   */\n      iszero\n      tag_143\n      jumpi\n        /* \"#utility.yul\":4413:4492   */\n      tag_144\n      tag_61\n      jump\t// in\n    tag_144:\n        /* \"#utility.yul\":4375:4494   */\n    tag_143:\n        /* \"#utility.yul\":4561:4562   */\n      0x00\n        /* \"#utility.yul\":4550:4559   */\n      dup4\n        /* \"#utility.yul\":4546:4563   */\n      add\n        /* \"#utility.yul\":4533:4564   */\n      calldataload\n        /* \"#utility.yul\":4591:4609   */\n      0xffffffffffffffff\n        /* \"#utility.yul\":4583:4589   */\n      dup2\n        /* \"#utility.yul\":4580:4610   */\n      gt\n        /* \"#utility.yul\":4577:4694   */\n      iszero\n      tag_145\n      jumpi\n        /* \"#utility.yul\":4613:4692   */\n      tag_146\n      tag_62\n      jump\t// in\n    tag_146:\n        /* \"#utility.yul\":4577:4694   */\n    tag_145:\n        /* \"#utility.yul\":4718:4781   */\n      tag_147\n        /* \"#utility.yul\":4773:4780   */\n      dup6\n        /* \"#utility.yul\":4764:4770   */\n      dup3\n        /* \"#utility.yul\":4753:4762   */\n      dup7\n        /* \"#utility.yul\":4749:4771   */\n      add\n        /* \"#utility.yul\":4718:4781   */\n      tag_71\n      jump\t// in\n    tag_147:\n        /* \"#utility.yul\":4708:4781   */\n      swap3\n      pop\n        /* \"#utility.yul\":4504:4791   */\n      pop\n        /* \"#utility.yul\":4830:4832   */\n      0x20\n        /* \"#utility.yul\":4856:4909   */\n      tag_148\n        /* \"#utility.yul\":4901:4908   */\n      dup6\n        /* \"#utility.yul\":4892:4898   */\n      dup3\n        /* \"#utility.yul\":4881:4890   */\n      dup7\n        /* \"#utility.yul\":4877:4899   */\n      add\n        /* \"#utility.yul\":4856:4909   */\n      tag_73\n      jump\t// in\n    tag_148:\n        /* \"#utility.yul\":4846:4909   */\n      swap2\n      pop\n        /* \"#utility.yul\":4801:4919   */\n      pop\n        /* \"#utility.yul\":4272:4926   */\n      swap3\n      pop\n      swap3\n      swap1\n      pop\n      jump\t// out\n        /* \"#utility.yul\":4932:5049   */\n    tag_74:\n        /* \"#utility.yul\":5041:5042   */\n      0x00\n        /* \"#utility.yul\":5038:5039   */\n      dup1\n        /* \"#utility.yul\":5031:5043   */\n      revert\n        /* \"#utility.yul\":5055:5172   */\n    tag_75:\n        /* \"#utility.yul\":5164:5165   */\n      0x00\n        /* \"#utility.yul\":5161:5162   */\n      dup1\n        /* \"#utility.yul\":5154:5166   */\n      revert\n        /* \"#utility.yul\":5197:5937   */\n    tag_76:\n        /* \"#utility.yul\":5265:5270   */\n      0x00\n        /* \"#utility.yul\":5309:5313   */\n      0x40\n        /* \"#utility.yul\":5297:5306   */\n      dup3\n        /* \"#utility.yul\":5292:5295   */\n      dup5\n        /* \"#utility.yul\":5288:5307   */\n      sub\n        /* \"#utility.yul\":5284:5314   */\n      slt\n        /* \"#utility.yul\":5281:5398   */\n      iszero\n      tag_152\n      jumpi\n        /* \"#utility.yul\":5317:5396   */\n      tag_153\n      tag_74\n      jump\t// in\n    tag_153:\n        /* \"#utility.yul\":5281:5398   */\n    tag_152:\n        /* \"#utility.yul\":5416:5437   */\n      tag_154\n        /* \"#utility.yul\":5432:5436   */\n      0x40\n        /* \"#utility.yul\":5416:5437   */\n      tag_67\n      jump\t// in\n    tag_154:\n        /* \"#utility.yul\":5407:5437   */\n      swap1\n      pop\n        /* \"#utility.yul\":5525:5526   */\n      0x00\n        /* \"#utility.yul\":5514:5523   */\n      dup3\n        /* \"#utility.yul\":5510:5527   */\n      add\n        /* \"#utility.yul\":5497:5528   */\n      calldataload\n        /* \"#utility.yul\":5555:5573   */\n      0xffffffffffffffff\n        /* \"#utility.yul\":5547:5553   */\n      dup2\n        /* \"#utility.yul\":5544:5574   */\n      gt\n        /* \"#utility.yul\":5541:5658   */\n      iszero\n      tag_155\n      jumpi\n        /* \"#utility.yul\":5577:5656   */\n      tag_156\n      tag_75\n      jump\t// in\n    tag_156:\n        /* \"#utility.yul\":5541:5658   */\n    tag_155:\n        /* \"#utility.yul\":5697:5756   */\n      tag_157\n        /* \"#utility.yul\":5752:5755   */\n      dup5\n        /* \"#utility.yul\":5743:5749   */\n      dup3\n        /* \"#utility.yul\":5732:5741   */\n      dup6\n        /* \"#utility.yul\":5728:5750   */\n      add\n        /* \"#utility.yul\":5697:5756   */\n      tag_71\n      jump\t// in\n    tag_157:\n        /* \"#utility.yul\":5690:5694   */\n      0x00\n        /* \"#utility.yul\":5683:5688   */\n      dup4\n        /* \"#utility.yul\":5679:5695   */\n      add\n        /* \"#utility.yul\":5672:5757   */\n      mstore\n        /* \"#utility.yul\":5447:5768   */\n      pop\n        /* \"#utility.yul\":5828:5830   */\n      0x20\n        /* \"#utility.yul\":5869:5918   */\n      tag_158\n        /* \"#utility.yul\":5914:5917   */\n      dup5\n        /* \"#utility.yul\":5905:5911   */\n      dup3\n        /* \"#utility.yul\":5894:5903   */\n      dup6\n        /* \"#utility.yul\":5890:5912   */\n      add\n        /* \"#utility.yul\":5869:5918   */\n      tag_73\n      jump\t// in\n    tag_158:\n        /* \"#utility.yul\":5862:5866   */\n      0x20\n        /* \"#utility.yul\":5855:5860   */\n      dup4\n        /* \"#utility.yul\":5851:5867   */\n      add\n        /* \"#utility.yul\":5844:5919   */\n      mstore\n        /* \"#utility.yul\":5778:5930   */\n      pop\n        /* \"#utility.yul\":5197:5937   */\n      swap3\n      swap2\n      pop\n      pop\n      jump\t// out\n        /* \"#utility.yul\":5943:6470   */\n    tag_21:\n        /* \"#utility.yul\":6021:6027   */\n      0x00\n        /* \"#utility.yul\":6070:6072   */\n      0x20\n        /* \"#utility.yul\":6058:6067   */\n      dup3\n        /* \"#utility.yul\":6049:6056   */\n      dup5\n        /* \"#utility.yul\":6045:6068   */\n      sub\n        /* \"#utility.yul\":6041:6073   */\n      slt\n        /* \"#utility.yul\":6038:6157   */\n      iszero\n      tag_160\n      jumpi\n        /* \"#utility.yul\":6076:6155   */\n      tag_161\n      tag_61\n      jump\t// in\n    tag_161:\n        /* \"#utility.yul\":6038:6157   */\n    tag_160:\n        /* \"#utility.yul\":6224:6225   */\n      0x00\n        /* \"#utility.yul\":6213:6222   */\n      dup3\n        /* \"#utility.yul\":6209:6226   */\n      add\n        /* \"#utility.yul\":6196:6227   */\n      calldataload\n        /* \"#utility.yul\":6254:6272   */\n      0xffffffffffffffff\n        /* \"#utility.yul\":6246:6252   */\n      dup2\n        /* \"#utility.yul\":6243:6273   */\n      gt\n        /* \"#utility.yul\":6240:6357   */\n      iszero\n      tag_162\n      jumpi\n        /* \"#utility.yul\":6276:6355   */\n      tag_163\n      tag_62\n      jump\t// in\n    tag_163:\n        /* \"#utility.yul\":6240:6357   */\n    tag_162:\n        /* \"#utility.yul\":6381:6453   */\n      tag_164\n        /* \"#utility.yul\":6445:6452   */\n      dup5\n        /* \"#utility.yul\":6436:6442   */\n      dup3\n        /* \"#utility.yul\":6425:6434   */\n      dup6\n        /* \"#utility.yul\":6421:6443   */\n      add\n        /* \"#utility.yul\":6381:6453   */\n      tag_76\n      jump\t// in\n    tag_164:\n        /* \"#utility.yul\":6371:6453   */\n      swap2\n      pop\n        /* \"#utility.yul\":6167:6463   */\n      pop\n        /* \"#utility.yul\":5943:6470   */\n      swap3\n      swap2\n      pop\n      pop\n      jump\t// out\n        /* \"#utility.yul\":6476:6805   */\n    tag_25:\n        /* \"#utility.yul\":6535:6541   */\n      0x00\n        /* \"#utility.yul\":6584:6586   */\n      0x20\n        /* \"#utility.yul\":6572:6581   */\n      dup3\n        /* \"#utility.yul\":6563:6570   */\n      dup5\n        /* \"#utility.yul\":6559:6582   */\n      sub\n        /* \"#utility.yul\":6555:6587   */\n      slt\n        /* \"#utility.yul\":6552:6671   */\n      iszero\n      tag_166\n      jumpi\n        /* \"#utility.yul\":6590:6669   */\n      tag_167\n      tag_61\n      jump\t// in\n    tag_167:\n        /* \"#utility.yul\":6552:6671   */\n    tag_166:\n        /* \"#utility.yul\":6710:6711   */\n      0x00\n        /* \"#utility.yul\":6735:6788   */\n      tag_168\n        /* \"#utility.yul\":6780:6787   */\n      dup5\n        /* \"#utility.yul\":6771:6777   */\n      dup3\n        /* \"#utility.yul\":6760:6769   */\n      dup6\n        /* \"#utility.yul\":6756:6778   */\n      add\n        /* \"#utility.yul\":6735:6788   */\n      tag_73\n      jump\t// in\n    tag_168:\n        /* \"#utility.yul\":6725:6788   */\n      swap2\n      pop\n        /* \"#utility.yul\":6681:6798   */\n      pop\n        /* \"#utility.yul\":6476:6805   */\n      swap3\n      swap2\n      pop\n      pop\n      jump\t// out\n        /* \"#utility.yul\":6811:6991   */\n    tag_77:\n        /* \"#utility.yul\":6859:6936   */\n      0x4e487b7100000000000000000000000000000000000000000000000000000000\n        /* \"#utility.yul\":6856:6857   */\n      0x00\n        /* \"#utility.yul\":6849:6937   */\n      mstore\n        /* \"#utility.yul\":6956:6960   */\n      0x22\n        /* \"#utility.yul\":6953:6954   */\n      0x04\n        /* \"#utility.yul\":6946:6961   */\n      mstore\n        /* \"#utility.yul\":6980:6984   */\n      0x24\n        /* \"#utility.yul\":6977:6978   */\n      0x00\n        /* \"#utility.yul\":6970:6985   */\n      revert\n        /* \"#utility.yul\":6997:7317   */\n    tag_29:\n        /* \"#utility.yul\":7041:7047   */\n      0x00\n        /* \"#utility.yul\":7078:7079   */\n      0x02\n        /* \"#utility.yul\":7072:7076   */\n      dup3\n        /* \"#utility.yul\":7068:7080   */\n      div\n        /* \"#utility.yul\":7058:7080   */\n      swap1\n      pop\n        /* \"#utility.yul\":7125:7126   */\n      0x01\n        /* \"#utility.yul\":7119:7123   */\n      dup3\n        /* \"#utility.yul\":7115:7127   */\n      and\n        /* \"#utility.yul\":7146:7164   */\n      dup1\n        /* \"#utility.yul\":7136:7217   */\n      tag_171\n      jumpi\n        /* \"#utility.yul\":7202:7206   */\n      0x7f\n        /* \"#utility.yul\":7194:7200   */\n      dup3\n        /* \"#utility.yul\":7190:7207   */\n      and\n        /* \"#utility.yul\":7180:7207   */\n      swap2\n      pop\n        /* \"#utility.yul\":7136:7217   */\n    tag_171:\n        /* \"#utility.yul\":7264:7266   */\n      0x20\n        /* \"#utility.yul\":7256:7262   */\n      dup3\n        /* \"#utility.yul\":7253:7267   */\n      lt\n        /* \"#utility.yul\":7233:7251   */\n      dup2\n        /* \"#utility.yul\":7230:7268   */\n      sub\n        /* \"#utility.yul\":7227:7311   */\n      tag_172\n      jumpi\n        /* \"#utility.yul\":7283:7301   */\n      tag_173\n      tag_77\n      jump\t// in\n    tag_173:\n        /* \"#utility.yul\":7227:7311   */\n    tag_172:\n        /* \"#utility.yul\":7048:7317   */\n      pop\n        /* \"#utility.yul\":6997:7317   */\n      swap2\n      swap1\n      pop\n      jump\t// out\n        /* \"#utility.yul\":7323:7464   */\n    tag_78:\n        /* \"#utility.yul\":7372:7376   */\n      0x00\n        /* \"#utility.yul\":7395:7398   */\n      dup2\n        /* \"#utility.yul\":7387:7398   */\n      swap1\n      pop\n        /* \"#utility.yul\":7418:7421   */\n      dup2\n        /* \"#utility.yul\":7415:7416   */\n      0x00\n        /* \"#utility.yul\":7408:7422   */\n      mstore\n        /* \"#utility.yul\":7452:7456   */\n      0x20\n        /* \"#utility.yul\":7449:7450   */\n      0x00\n        /* \"#utility.yul\":7439:7457   */\n      keccak256\n        /* \"#utility.yul\":7431:7457   */\n      swap1\n      pop\n        /* \"#utility.yul\":7323:7464   */\n      swap2\n      swap1\n      pop\n      jump\t// out\n        /* \"#utility.yul\":7470:7563   */\n    tag_79:\n        /* \"#utility.yul\":7507:7513   */\n      0x00\n        /* \"#utility.yul\":7554:7556   */\n      0x20\n        /* \"#utility.yul\":7549:7551   */\n      0x1f\n        /* \"#utility.yul\":7542:7547   */\n      dup4\n        /* \"#utility.yul\":7538:7552   */\n      add\n        /* \"#utility.yul\":7534:7557   */\n      div\n        /* \"#utility.yul\":7524:7557   */\n      swap1\n      pop\n        /* \"#utility.yul\":7470:7563   */\n      swap2\n      swap1\n      pop\n      jump\t// out\n        /* \"#utility.yul\":7569:7676   */\n    tag_80:\n        /* \"#utility.yul\":7613:7621   */\n      0x00\n        /* \"#utility.yul\":7663:7668   */\n      dup3\n        /* \"#utility.yul\":7657:7661   */\n      dup3\n        /* \"#utility.yul\":7653:7669   */\n      shl\n        /* \"#utility.yul\":7632:7669   */\n      swap1\n      pop\n        /* \"#utility.yul\":7569:7676   */\n      swap3\n      swap2\n      pop\n      pop\n      jump\t// out\n        /* \"#utility.yul\":7682:8075   */\n    tag_81:\n        /* \"#utility.yul\":7751:7757   */\n      0x00\n        /* \"#utility.yul\":7801:7802   */\n      0x08\n        /* \"#utility.yul\":7789:7799   */\n      dup4\n        /* \"#utility.yul\":7785:7803   */\n      mul\n        /* \"#utility.yul\":7824:7921   */\n      tag_178\n        /* \"#utility.yul\":7854:7920   */\n      0xffffffffffffffffffffffffffffffffffffffffffffffffffffffffffffffff\n        /* \"#utility.yul\":7843:7852   */\n      dup3\n        /* \"#utility.yul\":7824:7921   */\n      tag_80\n      jump\t// in\n    tag_178:\n        /* \"#utility.yul\":7942:7981   */\n      tag_179\n        /* \"#utility.yul\":7972:7980   */\n      dup7\n        /* \"#utility.yul\":7961:7970   */\n      dup4\n        /* \"#utility.yul\":7942:7981   */\n      tag_80\n      jump\t// in\n    tag_179:\n        /* \"#utility.yul\":7930:7981   */\n      swap6\n      pop\n        /* \"#utility.yul\":8014:8018   */\n      dup1\n        /* \"#utility.yul\":8010:8019   */\n      not\n        /* \"#utility.yul\":8003:8008   */\n      dup5\n        /* \"#utility.yul\":7999:8020   */\n      and\n        /* \"#utility.yul\":7990:8020   */\n      swap4\n      pop\n        /* \"#utility.yul\":8063:8067   */\n      dup1\n        /* \"#utility.yul\":8053:8061   */\n      dup7\n        /* \"#utility.yul\":8049:8068   */\n      and\n        /* \"#utility.yul\":8042:8047   */\n      dup5\n        /* \"#utility.yul\":8039:8069   */\n      or\n        /* \"#utility.yul\":8029:8069   */\n      swap3\n      pop\n        /* \"#utility.yul\":7758:8075   */\n      pop\n      pop\n        /* \"#utility.yul\":7682:8075   */\n      swap4\n      swap3\n      pop\n      pop\n      pop\n      jump\t// out\n        /* \"#utility.yul\":8081:8141   */\n    tag_82:\n        /* \"#utility.yul\":8109:8112   */\n      0x00\n        /* \"#utility.yul\":8130:8135   */\n      dup2\n        /* \"#utility.yul\":8123:8135   */\n      swap1\n      pop\n        /* \"#utility.yul\":8081:8141   */\n      swap2\n      swap1\n      pop\n      jump\t// out\n        /* \"#utility.yul\":8147:8289   */\n    tag_83:\n        /* \"#utility.yul\":8197:8206   */\n      0x00\n        /* \"#utility.yul\":8230:8283   */\n      tag_182\n        /* \"#utility.yul\":8248:8282   */\n      tag_183\n        /* \"#utility.yul\":8257:8281   */\n      tag_184\n        /* \"#utility.yul\":8275:8280   */\n      dup5\n        /* \"#utility.yul\":8257:8281   */\n      tag_58\n      jump\t// in\n    tag_184:\n        /* \"#utility.yul\":8248:8282   */\n      tag_82\n      jump\t// in\n    tag_183:\n        /* \"#utility.yul\":8230:8283   */\n      tag_58\n      jump\t// in\n    tag_182:\n        /* \"#utility.yul\":8217:8283   */\n      swap1\n      pop\n        /* \"#utility.yul\":8147:8289   */\n      swap2\n      swap1\n      pop\n      jump\t// out\n        /* \"#utility.yul\":8295:8370   */\n    tag_84:\n        /* \"#utility.yul\":8338:8341   */\n      0x00\n        /* \"#utility.yul\":8359:8364   */\n      dup2\n        /* \"#utility.yul\":8352:8364   */\n      swap1\n      pop\n        /* \"#utility.yul\":8295:8370   */\n      swap2\n      swap1\n      pop\n      jump\t// out\n        /* \"#utility.yul\":8376:8645   */\n    tag_85:\n        /* \"#utility.yul\":8486:8525   */\n      tag_187\n        /* \"#utility.yul\":8517:8524   */\n      dup4\n        /* \"#utility.yul\":8486:8525   */\n      tag_83\n      jump\t// in\n    tag_187:\n        /* \"#utility.yul\":8547:8638   */\n      tag_188\n        /* \"#utility.yul\":8596:8637   */\n      tag_189\n        /* \"#utility.yul\":8620:8636   */\n      dup3\n        /* \"#utility.yul\":8596:8637   */\n      tag_84\n      jump\t// in\n    tag_189:\n        /* \"#utility.yul\":8588:8594   */\n      dup5\n        /* \"#utility.yul\":8581:8585   */\n      dup5\n        /* \"#utility.yul\":8575:8586   */\n      sload\n        /* \"#utility.yul\":8547:8638   */\n      tag_81\n      jump\t// in\n    tag_188:\n        /* \"#utility.yul\":8541:8545   */\n      dup3\n        /* \"#utility.yul\":8534:8639   */\n      sstore\n        /* \"#utility.yul\":8452:8645   */\n      pop\n        /* \"#utility.yul\":8376:8645   */\n      pop\n      pop\n      pop\n      jump\t// out\n        /* \"#utility.yul\":8651:8724   */\n    tag_86:\n        /* \"#utility.yul\":8696:8699   */\n      0x00\n        /* \"#utility.yul\":8651:8724   */\n      swap1\n      jump\t// out\n        /* \"#utility.yul\":8730:8919   */\n    tag_87:\n        /* \"#utility.yul\":8807:8839   */\n      tag_192\n      tag_86\n      jump\t// in\n    tag_192:\n        /* \"#utility.yul\":8848:8913   */\n      tag_193\n        /* \"#utility.yul\":8906:8912   */\n      dup2\n        /* \"#utility.yul\":8898:8904   */\n      dup5\n        /* \"#utility.yul\":8892:8896   */\n      dup5\n        /* \"#utility.yul\":8848:8913   */\n      tag_85\n      jump\t// in\n    tag_193:\n        /* \"#utility.yul\":8783:8919   */\n      pop\n        /* \"#utility.yul\":8730:8919   */\n      pop\n      pop\n      jump\t// out\n        /* \"#utility.yul\":8925:9111   */\n    tag_88:\n        /* \"#utility.yul\":8985:9105   */\n    tag_195:\n        /* \"#utility.yul\":9002:9005   */\n      dup2\n        /* \"#utility.yul\":8995:9000   */\n      dup2\n        /* \"#utility.yul\":8992:9006   */\n      lt\n        /* \"#utility.yul\":8985:9105   */\n      iszero\n      tag_197\n      jumpi\n        /* \"#utility.yul\":9056:9095   */\n      tag_198\n        /* \"#utility.yul\":9093:9094   */\n      0x00\n        /* \"#utility.yul\":9086:9091   */\n      dup3\n        /* \"#utility.yul\":9056:9095   */\n      tag_87\n      jump\t// in\n    tag_198:\n        /* \"#utility.yul\":9029:9030   */\n      0x01\n        /* \"#utility.yul\":9022:9027   */\n      dup2\n        /* \"#utility.yul\":9018:9031   */\n      add\n        /* \"#utility.yul\":9009:9031   */\n      swap1\n      pop\n        /* \"#utility.yul\":8985:9105   */\n      jump(tag_195)\n    tag_197:\n        /* \"#utility.yul\":8925:9111   */\n      pop\n      pop\n      jump\t// out\n        /* \"#utility.yul\":9117:9660   */\n    tag_89:\n        /* \"#utility.yul\":9218:9220   */\n      0x1f\n        /* \"#utility.yul\":9213:9216   */\n      dup3\n        /* \"#utility.yul\":9210:9221   */\n      gt\n        /* \"#utility.yul\":9207:9653   */\n      iszero\n      tag_200\n      jumpi\n        /* \"#utility.yul\":9252:9290   */\n      tag_201\n        /* \"#utility.yul\":9284:9289   */\n      dup2\n        /* \"#utility.yul\":9252:9290   */\n      tag_78\n      jump\t// in\n    tag_201:\n        /* \"#utility.yul\":9336:9365   */\n      tag_202\n        /* \"#utility.yul\":9354:9364   */\n      dup5\n        /* \"#utility.yul\":9336:9365   */\n      tag_79\n      jump\t// in\n    tag_202:\n        /* \"#utility.yul\":9326:9334   */\n      dup2\n        /* \"#utility.yul\":9322:9366   */\n      add\n        /* \"#utility.yul\":9519:9521   */\n      0x20\n        /* \"#utility.yul\":9507:9517   */\n      dup6\n        /* \"#utility.yul\":9504:9522   */\n      lt\n        /* \"#utility.yul\":9501:9550   */\n      iszero\n      tag_203\n      jumpi\n        /* \"#utility.yul\":9540:9548   */\n      dup2\n        /* \"#utility.yul\":9525:9548   */\n      swap1\n      pop\n        /* \"#utility.yul\":9501:9550   */\n    tag_203:\n        /* \"#utility.yul\":9563:9643   */\n      tag_204\n        /* \"#utility.yul\":9619:9641   */\n      tag_205\n        /* \"#utility.yul\":9637:9640   */\n      dup6\n        /* \"#utility.yul\":9619:9641   */\n      tag_79\n      jump\t// in\n    tag_205:\n        /* \"#utility.yul\":9609:9617   */\n      dup4\n        /* \"#utility.yul\":9605:9642   */\n      add\n        /* \"#utility.yul\":9592:9603   */\n      dup3\n        /* \"#utility.yul\":9563:9643   */\n      tag_88\n      jump\t// in\n    tag_204:\n        /* \"#utility.yul\":9222:9653   */\n      pop\n      pop\n        /* \"#utility.yul\":9207:9653   */\n    tag_200:\n        /* \"#utility.yul\":9117:9660   */\n      pop\n      pop\n      pop\n      jump\t// out\n        /* \"#utility.yul\":9666:9783   */\n    tag_90:\n        /* \"#utility.yul\":9720:9728   */\n      0x00\n        /* \"#utility.yul\":9770:9775   */\n      dup3\n        /* \"#utility.yul\":9764:9768   */\n      dup3\n        /* \"#utility.yul\":9760:9776   */\n      shr\n        /* \"#utility.yul\":9739:9776   */\n      swap1\n      pop\n        /* \"#utility.yul\":9666:9783   */\n      swap3\n      swap2\n      pop\n      pop\n      jump\t// out\n        /* \"#utility.yul\":9789:9958   */\n    tag_91:\n        /* \"#utility.yul\":9833:9839   */\n      0x00\n        /* \"#utility.yul\":9866:9917   */\n      tag_208\n        /* \"#utility.yul\":9914:9915   */\n      0x00\n        /* \"#utility.yul\":9910:9916   */\n      not\n        /* \"#utility.yul\":9902:9907   */\n      dup5\n        /* \"#utility.yul\":9899:9900   */\n      0x08\n        /* \"#utility.yul\":9895:9908   */\n      mul\n        /* \"#utility.yul\":9866:9917   */\n      tag_90\n      jump\t// in\n    tag_208:\n        /* \"#utility.yul\":9862:9918   */\n      not\n        /* \"#utility.yul\":9947:9951   */\n      dup1\n        /* \"#utility.yul\":9941:9945   */\n      dup4\n        /* \"#utility.yul\":9937:9952   */\n      and\n        /* \"#utility.yul\":9927:9952   */\n      swap2\n      pop\n        /* \"#utility.yul\":9840:9958   */\n      pop\n        /* \"#utility.yul\":9789:9958   */\n      swap3\n      swap2\n      pop\n      pop\n      jump\t// out\n        /* \"#utility.yul\":9963:10258   */\n    tag_92:\n        /* \"#utility.yul\":10039:10043   */\n      0x00\n        /* \"#utility.yul\":10185:10214   */\n      tag_210\n        /* \"#utility.yul\":10210:10213   */\n      dup4\n        /* \"#utility.yul\":10204:10208   */\n      dup4\n        /* \"#utility.yul\":10185:10214   */\n      tag_91\n      jump\t// in\n    tag_210:\n        /* \"#utility.yul\":10177:10214   */\n      swap2\n      pop\n        /* \"#utility.yul\":10247:10250   */\n      dup3\n        /* \"#utility.yul\":10244:10245   */\n      0x02\n        /* \"#utility.yul\":10240:10251   */\n      mul\n        /* \"#utility.yul\":10234:10238   */\n      dup3\n        /* \"#utility.yul\":10231:10252   */\n      or\n        /* \"#utility.yul\":10223:10252   */\n      swap1\n      pop\n        /* \"#utility.yul\":9963:10258   */\n      swap3\n      swap2\n      pop\n      pop\n      jump\t// out\n        /* \"#utility.yul\":10263:11658   */\n    tag_42:\n        /* \"#utility.yul\":10380:10417   */\n      tag_212\n        /* \"#utility.yul\":10413:10416   */\n      dup3\n        /* \"#utility.yul\":10380:10417   */\n      tag_53\n      jump\t// in\n    tag_212:\n        /* \"#utility.yul\":10482:10500   */\n      0xffffffffffffffff\n        /* \"#utility.yul\":10474:10480   */\n      dup2\n        /* \"#utility.yul\":10471:10501   */\n      gt\n        /* \"#utility.yul\":10468:10524   */\n      iszero\n      tag_213\n      jumpi\n        /* \"#utility.yul\":10504:10522   */\n      tag_214\n      tag_65\n      jump\t// in\n    tag_214:\n        /* \"#utility.yul\":10468:10524   */\n    tag_213:\n        /* \"#utility.yul\":10548:10586   */\n      tag_215\n        /* \"#utility.yul\":10580:10584   */\n      dup3\n        /* \"#utility.yul\":10574:10585   */\n      sload\n        /* \"#utility.yul\":10548:10586   */\n      tag_29\n      jump\t// in\n    tag_215:\n        /* \"#utility.yul\":10633:10700   */\n      tag_216\n        /* \"#utility.yul\":10693:10699   */\n      dup3\n        /* \"#utility.yul\":10685:10691   */\n      dup3\n        /* \"#utility.yul\":10679:10683   */\n      dup6\n        /* \"#utility.yul\":10633:10700   */\n      tag_89\n      jump\t// in\n    tag_216:\n        /* \"#utility.yul\":10727:10728   */\n      0x00\n        /* \"#utility.yul\":10751:10755   */\n      0x20\n        /* \"#utility.yul\":10738:10755   */\n      swap1\n      pop\n        /* \"#utility.yul\":10783:10785   */\n      0x1f\n        /* \"#utility.yul\":10775:10781   */\n      dup4\n        /* \"#utility.yul\":10772:10786   */\n      gt\n        /* \"#utility.yul\":10800:10801   */\n      0x01\n        /* \"#utility.yul\":10795:11413   */\n      dup2\n      eq\n      tag_218\n      jumpi\n        /* \"#utility.yul\":11457:11458   */\n      0x00\n        /* \"#utility.yul\":11474:11480   */\n      dup5\n        /* \"#utility.yul\":11471:11548   */\n      iszero\n      tag_219\n      jumpi\n        /* \"#utility.yul\":11523:11532   */\n      dup3\n        /* \"#utility.yul\":11518:11521   */\n      dup8\n        /* \"#utility.yul\":11514:11533   */\n      add\n        /* \"#utility.yul\":11508:11534   */\n      mload\n        /* \"#utility.yul\":11499:11534   */\n      swap1\n      pop\n        /* \"#utility.yul\":11471:11548   */\n    tag_219:\n        /* \"#utility.yul\":11574:11641   */\n      tag_220\n        /* \"#utility.yul\":11634:11640   */\n      dup6\n        /* \"#utility.yul\":11627:11632   */\n      dup3\n        /* \"#utility.yul\":11574:11641   */\n      tag_92\n      jump\t// in\n    tag_220:\n        /* \"#utility.yul\":11568:11572   */\n      dup7\n        /* \"#utility.yul\":11561:11642   */\n      sstore\n        /* \"#utility.yul\":11430:11652   */\n      pop\n        /* \"#utility.yul\":10765:11652   */\n      jump(tag_217)\n        /* \"#utility.yul\":10795:11413   */\n    tag_218:\n        /* \"#utility.yul\":10847:10851   */\n      0x1f\n        /* \"#utility.yul\":10843:10852   */\n      not\n        /* \"#utility.yul\":10835:10841   */\n      dup5\n        /* \"#utility.yul\":10831:10853   */\n      and\n        /* \"#utility.yul\":10881:10918   */\n      tag_221\n        /* \"#utility.yul\":10913:10917   */\n      dup7\n        /* \"#utility.yul\":10881:10918   */\n      tag_78\n      jump\t// in\n    tag_221:\n        /* \"#utility.yul\":10940:10941   */\n      0x00\n        /* \"#utility.yul\":10954:11162   */\n    tag_222:\n        /* \"#utility.yul\":10968:10975   */\n      dup3\n        /* \"#utility.yul\":10965:10966   */\n      dup2\n        /* \"#utility.yul\":10962:10976   */\n      lt\n        /* \"#utility.yul\":10954:11162   */\n      iszero\n      tag_224\n      jumpi\n        /* \"#utility.yul\":11047:11056   */\n      dup5\n        /* \"#utility.yul\":11042:11045   */\n      dup10\n        /* \"#utility.yul\":11038:11057   */\n      add\n        /* \"#utility.yul\":11032:11058   */\n      mload\n        /* \"#utility.yul\":11024:11030   */\n      dup3\n        /* \"#utility.yul\":11017:11059   */\n      sstore\n        /* \"#utility.yul\":11098:11099   */\n      0x01\n        /* \"#utility.yul\":11090:11096   */\n      dup3\n        /* \"#utility.yul\":11086:11100   */\n      add\n        /* \"#utility.yul\":11076:11100   */\n      swap2\n      pop\n        /* \"#utility.yul\":11145:11147   */\n      0x20\n        /* \"#utility.yul\":11134:11143   */\n      dup6\n        /* \"#utility.yul\":11130:11148   */\n      add\n        /* \"#utility.yul\":11117:11148   */\n      swap5\n      pop\n        /* \"#utility.yul\":10991:10995   */\n      0x20\n        /* \"#utility.yul\":10988:10989   */\n      dup2\n        /* \"#utility.yul\":10984:10996   */\n      add\n        /* \"#utility.yul\":10979:10996   */\n      swap1\n      pop\n        /* \"#utility.yul\":10954:11162   */\n      jump(tag_222)\n    tag_224:\n        /* \"#utility.yul\":11190:11196   */\n      dup7\n        /* \"#utility.yul\":11181:11188   */\n      dup4\n        /* \"#utility.yul\":11178:11197   */\n      lt\n        /* \"#utility.yul\":11175:11354   */\n      iszero\n      tag_225\n      jumpi\n        /* \"#utility.yul\":11248:11257   */\n      dup5\n        /* \"#utility.yul\":11243:11246   */\n      dup10\n        /* \"#utility.yul\":11239:11258   */\n      add\n        /* \"#utility.yul\":11233:11259   */\n      mload\n        /* \"#utility.yul\":11291:11339   */\n      tag_226\n        /* \"#utility.yul\":11333:11337   */\n      0x1f\n        /* \"#utility.yul\":11325:11331   */\n      dup10\n        /* \"#utility.yul\":11321:11338   */\n      and\n        /* \"#utility.yul\":11310:11319   */\n      dup3\n        /* \"#utility.yul\":11291:11339   */\n      tag_91\n      jump\t// in\n    tag_226:\n        /* \"#utility.yul\":11283:11289   */\n      dup4\n        /* \"#utility.yul\":11276:11340   */\n      sstore\n        /* \"#utility.yul\":11198:11354   */\n      pop\n        /* \"#utility.yul\":11175:11354   */\n    tag_225:\n        /* \"#utility.yul\":11400:11401   */\n      0x01\n        /* \"#utility.yul\":11396:11397   */\n      0x02\n        /* \"#utility.yul\":11388:11394   */\n      dup9\n        /* \"#utility.yul\":11384:11398   */\n      mul\n        /* \"#utility.yul\":11380:11402   */\n      add\n        /* \"#utility.yul\":11374:11378   */\n      dup9\n        /* \"#utility.yul\":11367:11403   */\n      sstore\n        /* \"#utility.yul\":10802:11413   */\n      pop\n      pop\n      pop\n        /* \"#utility.yul\":10765:11652   */\n    tag_217:\n      pop\n        /* \"#utility.yul\":10355:11658   */\n      pop\n      pop\n      pop\n        /* \"#utility.yul\":10263:11658   */\n      pop\n      pop\n      jump\t// out\n\n    auxdata: 0xa264697066735822122046df24e0c802037c3bc915c69c598224b6c78f9ae79d0d79f7b87298f6b9aa6164736f6c634300081a0033\n}\n",
				"bytecode": {
					"linkReferences": {},
					"object": "6080604052348015600e575f80fd5b506109ab8061001c5f395ff3fe608060405234801561000f575f80fd5b5060043610610055575f3560e01c806305a8da72146100595780633b0c197e14610078578063808f011414610097578063912704f2146100b3578063bbeaf7a1146100cf575b5f80fd5b610061610100565b60405161006f9291906103da565b60405180910390f35b610080610196565b60405161008e9291906103da565b60405180910390f35b6100b160048036038101906100ac919061056f565b610233565b005b6100cd60048036038101906100c8919061063a565b610251565b005b6100e960048036038101906100e49190610681565b61029d565b6040516100f79291906103da565b60405180910390f35b5f805f01805461010f906106d9565b80601f016020809104026020016040519081016040528092919081815260200182805461013b906106d9565b80156101865780601f1061015d57610100808354040283529160200191610186565b820191905f5260205f20905b81548152906001019060200180831161016957829003601f168201915b5050505050908060010154905082565b60605f805f015f600101548180546101ad906106d9565b80601f01602080910402602001604051908101604052809291908181526020018280546101d9906106d9565b80156102245780601f106101fb57610100808354040283529160200191610224565b820191905f5260205f20905b81548152906001019060200180831161020757829003601f168201915b50505050509150915091509091565b815f8001908161024391906108a6565b50805f600101819055505050565b600281908060018154018082558091505060019003905f5260205f2090600202015f909190919091505f820151815f01908161028d91906108a6565b5060208201518160010155505050565b600281815481106102ac575f80fd5b905f5260205f2090600202015f91509050805f0180546102cb906106d9565b80601f01602080910402602001604051908101604052809291908181526020018280546102f7906106d9565b80156103425780601f1061031957610100808354040283529160200191610342565b820191905f5260205f20905b81548152906001019060200180831161032557829003601f168201915b5050505050908060010154905082565b5f81519050919050565b5f82825260208201905092915050565b8281835e5f83830152505050565b5f601f19601f8301169050919050565b5f61039482610352565b61039e818561035c565b93506103ae81856020860161036c565b6103b78161037a565b840191505092915050565b5f819050919050565b6103d4816103c2565b82525050565b5f6040820190508181035f8301526103f2818561038a565b905061040160208301846103cb565b9392505050565b5f604051905090565b5f80fd5b5f80fd5b5f80fd5b5f80fd5b7f4e487b71000000000000000000000000000000000000000000000000000000005f52604160045260245ffd5b6104578261037a565b810181811067ffffffffffffffff8211171561047657610475610421565b5b80604052505050565b5f610488610408565b9050610494828261044e565b919050565b5f67ffffffffffffffff8211156104b3576104b2610421565b5b6104bc8261037a565b9050602081019050919050565b828183375f83830152505050565b5f6104e96104e484610499565b61047f565b9050828152602081018484840111156105055761050461041d565b5b6105108482856104c9565b509392505050565b5f82601f83011261052c5761052b610419565b5b813561053c8482602086016104d7565b91505092915050565b61054e816103c2565b8114610558575f80fd5b50565b5f8135905061056981610545565b92915050565b5f806040838503121561058557610584610411565b5b5f83013567ffffffffffffffff8111156105a2576105a1610415565b5b6105ae85828601610518565b92505060206105bf8582860161055b565b9150509250929050565b5f80fd5b5f80fd5b5f604082840312156105e6576105e56105c9565b5b6105f0604061047f565b90505f82013567ffffffffffffffff81111561060f5761060e6105cd565b5b61061b84828501610518565b5f83015250602061062e8482850161055b565b60208301525092915050565b5f6020828403121561064f5761064e610411565b5b5f82013567ffffffffffffffff81111561066c5761066b610415565b5b610678848285016105d1565b91505092915050565b5f6020828403121561069657610695610411565b5b5f6106a38482850161055b565b91505092915050565b7f4e487b71000000000000000000000000000000000000000000000000000000005f52602260045260245ffd5b5f60028204905060018216806106f057607f821691505b602082108103610703576107026106ac565b5b50919050565b5f819050815f5260205f209050919050565b5f6020601f8301049050919050565b5f82821b905092915050565b5f600883026107657fffffffffffffffffffffffffffffffffffffffffffffffffffffffffffffffff8261072a565b61076f868361072a565b95508019841693508086168417925050509392505050565b5f819050919050565b5f6107aa6107a56107a0846103c2565b610787565b6103c2565b9050919050565b5f819050919050565b6107c383610790565b6107d76107cf826107b1565b848454610736565b825550505050565b5f90565b6107eb6107df565b6107f68184846107ba565b505050565b5b818110156108195761080e5f826107e3565b6001810190506107fc565b5050565b601f82111561085e5761082f81610709565b6108388461071b565b81016020851015610847578190505b61085b6108538561071b565b8301826107fb565b50505b505050565b5f82821c905092915050565b5f61087e5f1984600802610863565b1980831691505092915050565b5f610896838361086f565b9150826002028217905092915050565b6108af82610352565b67ffffffffffffffff8111156108c8576108c7610421565b5b6108d282546106d9565b6108dd82828561081d565b5f60209050601f83116001811461090e575f84156108fc578287015190505b610906858261088b565b86555061096d565b601f19841661091c86610709565b5f5b828110156109435784890151825560018201915060208501945060208101905061091e565b86831015610960578489015161095c601f89168261086f565b8355505b6001600288020188555050505b50505050505056fea264697066735822122046df24e0c802037c3bc915c69c598224b6c78f9ae79d0d79f7b87298f6b9aa6164736f6c634300081a0033",
					"opcodes": "PUSH1 0x80 PUSH1 0x40 MSTORE CALLVALUE DUP1 ISZERO PUSH1 0xE JUMPI PUSH0 DUP1 REVERT JUMPDEST POP PUSH2 0x9AB DUP1 PUSH2 0x1C PUSH0 CODECOPY PUSH0 RETURN INVALID PUSH1 0x80 PUSH1 0x40 MSTORE CALLVALUE DUP1 ISZERO PUSH2 0xF JUMPI PUSH0 DUP1 REVERT JUMPDEST POP PUSH1 0x4 CALLDATASIZE LT PUSH2 0x55 JUMPI PUSH0 CALLDATALOAD PUSH1 0xE0 SHR DUP1 PUSH4 0x5A8DA72 EQ PUSH2 0x59 JUMPI DUP1 PUSH4 0x3B0C197E EQ PUSH2 0x78 JUMPI DUP1 PUSH4 0x808F0114 EQ PUSH2 0x97 JUMPI DUP1 PUSH4 0x912704F2 EQ PUSH2 0xB3 JUMPI DUP1 PUSH4 0xBBEAF7A1 EQ PUSH2 0xCF JUMPI JUMPDEST PUSH0 DUP1 REVERT JUMPDEST PUSH2 0x61 PUSH2 0x100 JUMP JUMPDEST PUSH1 0x40 MLOAD PUSH2 0x6F SWAP3 SWAP2 SWAP1 PUSH2 0x3DA JUMP JUMPDEST PUSH1 0x40 MLOAD DUP1 SWAP2 SUB SWAP1 RETURN JUMPDEST PUSH2 0x80 PUSH2 0x196 JUMP JUMPDEST PUSH1 0x40 MLOAD PUSH2 0x8E SWAP3 SWAP2 SWAP1 PUSH2 0x3DA JUMP JUMPDEST PUSH1 0x40 MLOAD DUP1 SWAP2 SUB SWAP1 RETURN JUMPDEST PUSH2 0xB1 PUSH1 0x4 DUP1 CALLDATASIZE SUB DUP2 ADD SWAP1 PUSH2 0xAC SWAP2 SWAP1 PUSH2 0x56F JUMP JUMPDEST PUSH2 0x233 JUMP JUMPDEST STOP JUMPDEST PUSH2 0xCD PUSH1 0x4 DUP1 CALLDATASIZE SUB DUP2 ADD SWAP1 PUSH2 0xC8 SWAP2 SWAP1 PUSH2 0x63A JUMP JUMPDEST PUSH2 0x251 JUMP JUMPDEST STOP JUMPDEST PUSH2 0xE9 PUSH1 0x4 DUP1 CALLDATASIZE SUB DUP2 ADD SWAP1 PUSH2 0xE4 SWAP2 SWAP1 PUSH2 0x681 JUMP JUMPDEST PUSH2 0x29D JUMP JUMPDEST PUSH1 0x40 MLOAD PUSH2 0xF7 SWAP3 SWAP2 SWAP1 PUSH2 0x3DA JUMP JUMPDEST PUSH1 0x40 MLOAD DUP1 SWAP2 SUB SWAP1 RETURN JUMPDEST PUSH0 DUP1 PUSH0 ADD DUP1 SLOAD PUSH2 0x10F SWAP1 PUSH2 0x6D9 JUMP JUMPDEST DUP1 PUSH1 0x1F ADD PUSH1 0x20 DUP1 SWAP2 DIV MUL PUSH1 0x20 ADD PUSH1 0x40 MLOAD SWAP1 DUP2 ADD PUSH1 0x40 MSTORE DUP1 SWAP3 SWAP2 SWAP1 DUP2 DUP2 MSTORE PUSH1 0x20 ADD DUP3 DUP1 SLOAD PUSH2 0x13B SWAP1 PUSH2 0x6D9 JUMP JUMPDEST DUP1 ISZERO PUSH2 0x186 JUMPI DUP1 PUSH1 0x1F LT PUSH2 0x15D JUMPI PUSH2 0x100 DUP1 DUP4 SLOAD DIV MUL DUP4 MSTORE SWAP2 PUSH1 0x20 ADD SWAP2 PUSH2 0x186 JUMP JUMPDEST DUP3 ADD SWAP2 SWAP1 PUSH0 MSTORE PUSH1 0x20 PUSH0 KECCAK256 SWAP1 JUMPDEST DUP2 SLOAD DUP2 MSTORE SWAP1 PUSH1 0x1 ADD SWAP1 PUSH1 0x20 ADD DUP1 DUP4 GT PUSH2 0x169 JUMPI DUP3 SWAP1 SUB PUSH1 0x1F AND DUP3 ADD SWAP2 JUMPDEST POP POP POP POP POP SWAP1 DUP1 PUSH1 0x1 ADD SLOAD SWAP1 POP DUP3 JUMP JUMPDEST PUSH1 0x60 PUSH0 DUP1 PUSH0 ADD PUSH0 PUSH1 0x1 ADD SLOAD DUP2 DUP1 SLOAD PUSH2 0x1AD SWAP1 PUSH2 0x6D9 JUMP JUMPDEST DUP1 PUSH1 0x1F ADD PUSH1 0x20 DUP1 SWAP2 DIV MUL PUSH1 0x20 ADD PUSH1 0x40 MLOAD SWAP1 DUP2 ADD PUSH1 0x40 MSTORE DUP1 SWAP3 SWAP2 SWAP1 DUP2 DUP2 MSTORE PUSH1 0x20 ADD DUP3 DUP1 SLOAD PUSH2 0x1D9 SWAP1 PUSH2 0x6D9 JUMP JUMPDEST DUP1 ISZERO PUSH2 0x224 JUMPI DUP1 PUSH1 0x1F LT PUSH2 0x1FB JUMPI PUSH2 0x100 DUP1 DUP4 SLOAD DIV MUL DUP4 MSTORE SWAP2 PUSH1 0x20 ADD SWAP2 PUSH2 0x224 JUMP JUMPDEST DUP3 ADD SWAP2 SWAP1 PUSH0 MSTORE PUSH1 0x20 PUSH0 KECCAK256 SWAP1 JUMPDEST DUP2 SLOAD DUP2 MSTORE SWAP1 PUSH1 0x1 ADD SWAP1 PUSH1 0x20 ADD DUP1 DUP4 GT PUSH2 0x207 JUMPI DUP3 SWAP1 SUB PUSH1 0x1F AND DUP3 ADD SWAP2 JUMPDEST POP POP POP POP POP SWAP2 POP SWAP2 POP SWAP2 POP SWAP1 SWAP2 JUMP JUMPDEST DUP2 PUSH0 DUP1 ADD SWAP1 DUP2 PUSH2 0x243 SWAP2 SWAP1 PUSH2 0x8A6 JUMP JUMPDEST POP DUP1 PUSH0 PUSH1 0x1 ADD DUP2 SWAP1 SSTORE POP POP POP JUMP JUMPDEST PUSH1 0x2 DUP2 SWAP1 DUP1 PUSH1 0x1 DUP2 SLOAD ADD DUP1 DUP3 SSTORE DUP1 SWAP2 POP POP PUSH1 0x1 SWAP1 SUB SWAP1 PUSH0 MSTORE PUSH1 0x20 PUSH0 KECCAK256 SWAP1 PUSH1 0x2 MUL ADD PUSH0 SWAP1 SWAP2 SWAP1 SWAP2 SWAP1 SWAP2 POP PUSH0 DUP3 ADD MLOAD DUP2 PUSH0 ADD SWAP1 DUP2 PUSH2 0x28D SWAP2 SWAP1 PUSH2 0x8A6 JUMP JUMPDEST POP PUSH1 0x20 DUP3 ADD MLOAD DUP2 PUSH1 0x1 ADD SSTORE POP POP POP JUMP JUMPDEST PUSH1 0x2 DUP2 DUP2 SLOAD DUP2 LT PUSH2 0x2AC JUMPI PUSH0 DUP1 REVERT JUMPDEST SWAP1 PUSH0 MSTORE PUSH1 0x20 PUSH0 KECCAK256 SWAP1 PUSH1 0x2 MUL ADD PUSH0 SWAP2 POP SWAP1 POP DUP1 PUSH0 ADD DUP1 SLOAD PUSH2 0x2CB SWAP1 PUSH2 0x6D9 JUMP JUMPDEST DUP1 PUSH1 0x1F ADD PUSH1 0x20 DUP1 SWAP2 DIV MUL PUSH1 0x20 ADD PUSH1 0x40 MLOAD SWAP1 DUP2 ADD PUSH1 0x40 MSTORE DUP1 SWAP3 SWAP2 SWAP1 DUP2 DUP2 MSTORE PUSH1 0x20 ADD DUP3 DUP1 SLOAD PUSH2 0x2F7 SWAP1 PUSH2 0x6D9 JUMP JUMPDEST DUP1 ISZERO PUSH2 0x342 JUMPI DUP1 PUSH1 0x1F LT PUSH2 0x319 JUMPI PUSH2 0x100 DUP1 DUP4 SLOAD DIV MUL DUP4 MSTORE SWAP2 PUSH1 0x20 ADD SWAP2 PUSH2 0x342 JUMP JUMPDEST DUP3 ADD SWAP2 SWAP1 PUSH0 MSTORE PUSH1 0x20 PUSH0 KECCAK256 SWAP1 JUMPDEST DUP2 SLOAD DUP2 MSTORE SWAP1 PUSH1 0x1 ADD SWAP1 PUSH1 0x20 ADD DUP1 DUP4 GT PUSH2 0x325 JUMPI DUP3 SWAP1 SUB PUSH1 0x1F AND DUP3 ADD SWAP2 JUMPDEST POP POP POP POP POP SWAP1 DUP1 PUSH1 0x1 ADD SLOAD SWAP1 POP DUP3 JUMP JUMPDEST PUSH0 DUP2 MLOAD SWAP1 POP SWAP2 SWAP1 POP JUMP JUMPDEST PUSH0 DUP3 DUP3 MSTORE PUSH1 0x20 DUP3 ADD SWAP1 POP SWAP3 SWAP2 POP POP JUMP JUMPDEST DUP3 DUP2 DUP4 MCOPY PUSH0 DUP4 DUP4 ADD MSTORE POP POP POP JUMP JUMPDEST PUSH0 PUSH1 0x1F NOT PUSH1 0x1F DUP4 ADD AND SWAP1 POP SWAP2 SWAP1 POP JUMP JUMPDEST PUSH0 PUSH2 0x394 DUP3 PUSH2 0x352 JUMP JUMPDEST PUSH2 0x39E DUP2 DUP6 PUSH2 0x35C JUMP JUMPDEST SWAP4 POP PUSH2 0x3AE DUP2 DUP6 PUSH1 0x20 DUP7 ADD PUSH2 0x36C JUMP JUMPDEST PUSH2 0x3B7 DUP2 PUSH2 0x37A JUMP JUMPDEST DUP5 ADD SWAP2 POP POP SWAP3 SWAP2 POP POP JUMP JUMPDEST PUSH0 DUP2 SWAP1 POP SWAP2 SWAP1 POP JUMP JUMPDEST PUSH2 0x3D4 DUP2 PUSH2 0x3C2 JUMP JUMPDEST DUP3 MSTORE POP POP JUMP JUMPDEST PUSH0 PUSH1 0x40 DUP3 ADD SWAP1 POP DUP2 DUP2 SUB PUSH0 DUP4 ADD MSTORE PUSH2 0x3F2 DUP2 DUP6 PUSH2 0x38A JUMP JUMPDEST SWAP1 POP PUSH2 0x401 PUSH1 0x20 DUP4 ADD DUP5 PUSH2 0x3CB JUMP JUMPDEST SWAP4 SWAP3 POP POP POP JUMP JUMPDEST PUSH0 PUSH1 0x40 MLOAD SWAP1 POP SWAP1 JUMP JUMPDEST PUSH0 DUP1 REVERT JUMPDEST PUSH0 DUP1 REVERT JUMPDEST PUSH0 DUP1 REVERT JUMPDEST PUSH0 DUP1 REVERT JUMPDEST PUSH32 0x4E487B7100000000000000000000000000000000000000000000000000000000 PUSH0 MSTORE PUSH1 0x41 PUSH1 0x4 MSTORE PUSH1 0x24 PUSH0 REVERT JUMPDEST PUSH2 0x457 DUP3 PUSH2 0x37A JUMP JUMPDEST DUP2 ADD DUP2 DUP2 LT PUSH8 0xFFFFFFFFFFFFFFFF DUP3 GT OR ISZERO PUSH2 0x476 JUMPI PUSH2 0x475 PUSH2 0x421 JUMP JUMPDEST JUMPDEST DUP1 PUSH1 0x40 MSTORE POP POP POP JUMP JUMPDEST PUSH0 PUSH2 0x488 PUSH2 0x408 JUMP JUMPDEST SWAP1 POP PUSH2 0x494 DUP3 DUP3 PUSH2 0x44E JUMP JUMPDEST SWAP2 SWAP1 POP JUMP JUMPDEST PUSH0 PUSH8 0xFFFFFFFFFFFFFFFF DUP3 GT ISZERO PUSH2 0x4B3 JUMPI PUSH2 0x4B2 PUSH2 0x421 JUMP JUMPDEST JUMPDEST PUSH2 0x4BC DUP3 PUSH2 0x37A JUMP JUMPDEST SWAP1 POP PUSH1 0x20 DUP2 ADD SWAP1 POP SWAP2 SWAP1 POP JUMP JUMPDEST DUP3 DUP2 DUP4 CALLDATACOPY PUSH0 DUP4 DUP4 ADD MSTORE POP POP POP JUMP JUMPDEST PUSH0 PUSH2 0x4E9 PUSH2 0x4E4 DUP5 PUSH2 0x499 JUMP JUMPDEST PUSH2 0x47F JUMP JUMPDEST SWAP1 POP DUP3 DUP2 MSTORE PUSH1 0x20 DUP2 ADD DUP5 DUP5 DUP5 ADD GT ISZERO PUSH2 0x505 JUMPI PUSH2 0x504 PUSH2 0x41D JUMP JUMPDEST JUMPDEST PUSH2 0x510 DUP5 DUP3 DUP6 PUSH2 0x4C9 JUMP JUMPDEST POP SWAP4 SWAP3 POP POP POP JUMP JUMPDEST PUSH0 DUP3 PUSH1 0x1F DUP4 ADD SLT PUSH2 0x52C JUMPI PUSH2 0x52B PUSH2 0x419 JUMP JUMPDEST JUMPDEST DUP2 CALLDATALOAD PUSH2 0x53C DUP5 DUP3 PUSH1 0x20 DUP7 ADD PUSH2 0x4D7 JUMP JUMPDEST SWAP2 POP POP SWAP3 SWAP2 POP POP JUMP JUMPDEST PUSH2 0x54E DUP2 PUSH2 0x3C2 JUMP JUMPDEST DUP2 EQ PUSH2 0x558 JUMPI PUSH0 DUP1 REVERT JUMPDEST POP JUMP JUMPDEST PUSH0 DUP2 CALLDATALOAD SWAP1 POP PUSH2 0x569 DUP2 PUSH2 0x545 JUMP JUMPDEST SWAP3 SWAP2 POP POP JUMP JUMPDEST PUSH0 DUP1 PUSH1 0x40 DUP4 DUP6 SUB SLT ISZERO PUSH2 0x585 JUMPI PUSH2 0x584 PUSH2 0x411 JUMP JUMPDEST JUMPDEST PUSH0 DUP4 ADD CALLDATALOAD PUSH8 0xFFFFFFFFFFFFFFFF DUP2 GT ISZERO PUSH2 0x5A2 JUMPI PUSH2 0x5A1 PUSH2 0x415 JUMP JUMPDEST JUMPDEST PUSH2 0x5AE DUP6 DUP3 DUP7 ADD PUSH2 0x518 JUMP JUMPDEST SWAP3 POP POP PUSH1 0x20 PUSH2 0x5BF DUP6 DUP3 DUP7 ADD PUSH2 0x55B JUMP JUMPDEST SWAP2 POP POP SWAP3 POP SWAP3 SWAP1 POP JUMP JUMPDEST PUSH0 DUP1 REVERT JUMPDEST PUSH0 DUP1 REVERT JUMPDEST PUSH0 PUSH1 0x40 DUP3 DUP5 SUB SLT ISZERO PUSH2 0x5E6 JUMPI PUSH2 0x5E5 PUSH2 0x5C9 JUMP JUMPDEST JUMPDEST PUSH2 0x5F0 PUSH1 0x40 PUSH2 0x47F JUMP JUMPDEST SWAP1 POP PUSH0 DUP3 ADD CALLDATALOAD PUSH8 0xFFFFFFFFFFFFFFFF DUP2 GT ISZERO PUSH2 0x60F JUMPI PUSH2 0x60E PUSH2 0x5CD JUMP JUMPDEST JUMPDEST PUSH2 0x61B DUP5 DUP3 DUP6 ADD PUSH2 0x518 JUMP JUMPDEST PUSH0 DUP4 ADD MSTORE POP PUSH1 0x20 PUSH2 0x62E DUP5 DUP3 DUP6 ADD PUSH2 0x55B JUMP JUMPDEST PUSH1 0x20 DUP4 ADD MSTORE POP SWAP3 SWAP2 POP POP JUMP JUMPDEST PUSH0 PUSH1 0x20 DUP3 DUP5 SUB SLT ISZERO PUSH2 0x64F JUMPI PUSH2 0x64E PUSH2 0x411 JUMP JUMPDEST JUMPDEST PUSH0 DUP3 ADD CALLDATALOAD PUSH8 0xFFFFFFFFFFFFFFFF DUP2 GT ISZERO PUSH2 0x66C JUMPI PUSH2 0x66B PUSH2 0x415 JUMP JUMPDEST JUMPDEST PUSH2 0x678 DUP5 DUP3 DUP6 ADD PUSH2 0x5D1 JUMP JUMPDEST SWAP2 POP POP SWAP3 SWAP2 POP POP JUMP JUMPDEST PUSH0 PUSH1 0x20 DUP3 DUP5 SUB SLT ISZERO PUSH2 0x696 JUMPI PUSH2 0x695 PUSH2 0x411 JUMP JUMPDEST JUMPDEST PUSH0 PUSH2 0x6A3 DUP5 DUP3 DUP6 ADD PUSH2 0x55B JUMP JUMPDEST SWAP2 POP POP SWAP3 SWAP2 POP POP JUMP JUMPDEST PUSH32 0x4E487B7100000000000000000000000000000000000000000000000000000000 PUSH0 MSTORE PUSH1 0x22 PUSH1 0x4 MSTORE PUSH1 0x24 PUSH0 REVERT JUMPDEST PUSH0 PUSH1 0x2 DUP3 DIV SWAP1 POP PUSH1 0x1 DUP3 AND DUP1 PUSH2 0x6F0 JUMPI PUSH1 0x7F DUP3 AND SWAP2 POP JUMPDEST PUSH1 0x20 DUP3 LT DUP2 SUB PUSH2 0x703 JUMPI PUSH2 0x702 PUSH2 0x6AC JUMP JUMPDEST JUMPDEST POP SWAP2 SWAP1 POP JUMP JUMPDEST PUSH0 DUP2 SWAP1 POP DUP2 PUSH0 MSTORE PUSH1 0x20 PUSH0 KECCAK256 SWAP1 POP SWAP2 SWAP1 POP JUMP JUMPDEST PUSH0 PUSH1 0x20 PUSH1 0x1F DUP4 ADD DIV SWAP1 POP SWAP2 SWAP1 POP JUMP JUMPDEST PUSH0 DUP3 DUP3 SHL SWAP1 POP SWAP3 SWAP2 POP POP JUMP JUMPDEST PUSH0 PUSH1 0x8 DUP4 MUL PUSH2 0x765 PUSH32 0xFFFFFFFFFFFFFFFFFFFFFFFFFFFFFFFFFFFFFFFFFFFFFFFFFFFFFFFFFFFFFFFF DUP3 PUSH2 0x72A JUMP JUMPDEST PUSH2 0x76F DUP7 DUP4 PUSH2 0x72A JUMP JUMPDEST SWAP6 POP DUP1 NOT DUP5 AND SWAP4 POP DUP1 DUP7 AND DUP5 OR SWAP3 POP POP POP SWAP4 SWAP3 POP POP POP JUMP JUMPDEST PUSH0 DUP2 SWAP1 POP SWAP2 SWAP1 POP JUMP JUMPDEST PUSH0 PUSH2 0x7AA PUSH2 0x7A5 PUSH2 0x7A0 DUP5 PUSH2 0x3C2 JUMP JUMPDEST PUSH2 0x787 JUMP JUMPDEST PUSH2 0x3C2 JUMP JUMPDEST SWAP1 POP SWAP2 SWAP1 POP JUMP JUMPDEST PUSH0 DUP2 SWAP1 POP SWAP2 SWAP1 POP JUMP JUMPDEST PUSH2 0x7C3 DUP4 PUSH2 0x790 JUMP JUMPDEST PUSH2 0x7D7 PUSH2 0x7CF DUP3 PUSH2 0x7B1 JUMP JUMPDEST DUP5 DUP5 SLOAD PUSH2 0x736 JUMP JUMPDEST DUP3 SSTORE POP POP POP POP JUMP JUMPDEST PUSH0 SWAP1 JUMP JUMPDEST PUSH2 0x7EB PUSH2 0x7DF JUMP JUMPDEST PUSH2 0x7F6 DUP2 DUP5 DUP5 PUSH2 0x7BA JUMP JUMPDEST POP POP POP JUMP JUMPDEST JUMPDEST DUP2 DUP2 LT ISZERO PUSH2 0x819 JUMPI PUSH2 0x80E PUSH0 DUP3 PUSH2 0x7E3 JUMP JUMPDEST PUSH1 0x1 DUP2 ADD SWAP1 POP PUSH2 0x7FC JUMP JUMPDEST POP POP JUMP JUMPDEST PUSH1 0x1F DUP3 GT ISZERO PUSH2 0x85E JUMPI PUSH2 0x82F DUP2 PUSH2 0x709 JUMP JUMPDEST PUSH2 0x838 DUP5 PUSH2 0x71B JUMP JUMPDEST DUP2 ADD PUSH1 0x20 DUP6 LT ISZERO PUSH2 0x847 JUMPI DUP2 SWAP1 POP JUMPDEST PUSH2 0x85B PUSH2 0x853 DUP6 PUSH2 0x71B JUMP JUMPDEST DUP4 ADD DUP3 PUSH2 0x7FB JUMP JUMPDEST POP POP JUMPDEST POP POP POP JUMP JUMPDEST PUSH0 DUP3 DUP3 SHR SWAP1 POP SWAP3 SWAP2 POP POP JUMP JUMPDEST PUSH0 PUSH2 0x87E PUSH0 NOT DUP5 PUSH1 0x8 MUL PUSH2 0x863 JUMP JUMPDEST NOT DUP1 DUP4 AND SWAP2 POP POP SWAP3 SWAP2 POP POP JUMP JUMPDEST PUSH0 PUSH2 0x896 DUP4 DUP4 PUSH2 0x86F JUMP JUMPDEST SWAP2 POP DUP3 PUSH1 0x2 MUL DUP3 OR SWAP1 POP SWAP3 SWAP2 POP POP JUMP JUMPDEST PUSH2 0x8AF DUP3 PUSH2 0x352 JUMP JUMPDEST PUSH8 0xFFFFFFFFFFFFFFFF DUP2 GT ISZERO PUSH2 0x8C8 JUMPI PUSH2 0x8C7 PUSH2 0x421 JUMP JUMPDEST JUMPDEST PUSH2 0x8D2 DUP3 SLOAD PUSH2 0x6D9 JUMP JUMPDEST PUSH2 0x8DD DUP3 DUP3 DUP6 PUSH2 0x81D JUMP JUMPDEST PUSH0 PUSH1 0x20 SWAP1 POP PUSH1 0x1F DUP4 GT PUSH1 0x1 DUP2 EQ PUSH2 0x90E JUMPI PUSH0 DUP5 ISZERO PUSH2 0x8FC JUMPI DUP3 DUP8 ADD MLOAD SWAP1 POP JUMPDEST PUSH2 0x906 DUP6 DUP3 PUSH2 0x88B JUMP JUMPDEST DUP7 SSTORE POP PUSH2 0x96D JUMP JUMPDEST PUSH1 0x1F NOT DUP5 AND PUSH2 0x91C DUP7 PUSH2 0x709 JUMP JUMPDEST PUSH0 JUMPDEST DUP3 DUP2 LT ISZERO PUSH2 0x943 JUMPI DUP5 DUP10 ADD MLOAD DUP3 SSTORE PUSH1 0x1 DUP3 ADD SWAP2 POP PUSH1 0x20 DUP6 ADD SWAP5 POP PUSH1 0x20 DUP2 ADD SWAP1 POP PUSH2 0x91E JUMP JUMPDEST DUP7 DUP4 LT ISZERO PUSH2 0x960 JUMPI DUP5 DUP10 ADD MLOAD PUSH2 0x95C PUSH1 0x1F DUP10 AND DUP3 PUSH2 0x86F JUMP JUMPDEST DUP4 SSTORE POP JUMPDEST PUSH1 0x1 PUSH1 0x2 DUP9 MUL ADD DUP9 SSTORE POP POP POP JUMPDEST POP POP POP POP POP POP JUMP INVALID LOG2 PUSH5 0x6970667358 0x22 SLT KECCAK256 CHAINID 0xDF 0x24 0xE0 0xC8 MUL SUB PUSH29 0x3BC915C69C598224B6C78F9AE79D0D79F7B87298F6B9AA6164736F6C63 NUMBER STOP ADDMOD BYTE STOP CALLER "
				},
				"gasEstimates": {
					"creation": {
						"codeDepositCost": "495000",
						"executionCost": "528",
						"totalCost": "495528"
					},
					"external": {
						"addNewBook((string,uint256))": "infinite",
						"book()": "infinite",
						"getBook()": "infinite",
						"lib(uint256)": "infinite",
						"setBook(string,uint256)": "infinite"
					}
				},
				"methodIdentifiers": {
					"addNewBook((string,uint256))": "912704f2",
					"book()": "05a8da72",
					"getBook()": "3b0c197e",
					"lib(uint256)": "bbeaf7a1",
					"setBook(string,uint256)": "808f0114"
				}
			},
			"storageLayout": {
				"storage": [
					{
						"astId": 9,
						"contract": "contracts/12/Struct.sol:MyContract",
						"label": "book",
						"offset": 0,
						"slot": "0",
						"type": "t_struct(Book)6_storage"
					},
					{
						"astId": 47,
						"contract": "contracts/12/Struct.sol:MyContract",
						"label": "lib",
						"offset": 0,
						"slot": "2",
						"type": "t_array(t_struct(Book)6_storage)dyn_storage"
					}
				],
				"types": {
					"t_array(t_struct(Book)6_storage)dyn_storage": {
						"base": "t_struct(Book)6_storage",
						"encoding": "dynamic_array",
						"label": "struct Book[]",
						"numberOfBytes": "32"
					},
					"t_string_storage": {
						"encoding": "bytes",
						"label": "string",
						"numberOfBytes": "32"
					},
					"t_struct(Book)6_storage": {
						"encoding": "inplace",
						"label": "struct Book",
						"members": [
							{
								"astId": 3,
								"contract": "contracts/12/Struct.sol:MyContract",
								"label": "title",
								"offset": 0,
								"slot": "0",
								"type": "t_string_storage"
							},
							{
								"astId": 5,
								"contract": "contracts/12/Struct.sol:MyContract",
								"label": "price",
								"offset": 0,
								"slot": "1",
								"type": "t_uint256"
							}
						],
						"numberOfBytes": "64"
					},
					"t_uint256": {
						"encoding": "inplace",
						"label": "uint256",
						"numberOfBytes": "32"
					}
				}
			},
			"userdoc": {
				"kind": "user",
				"methods": {},
				"version": 1
			}
		}
	}
}