{
	"contracts/12/Continue.sol": {
		"Continue": {
			"abi": [
				{
					"inputs": [],
					"name": "cardinalitySum",
					"outputs": [
						{
							"internalType": "uint256",
							"name": "",
							"type": "uint256"
						}
					],
					"stateMutability": "view",
					"type": "function"
				},
				{
					"inputs": [
						{
							"internalType": "uint256",
							"name": "num",
							"type": "uint256"
						}
					],
					"name": "sumNumbers",
					"outputs": [
						{
							"internalType": "uint256",
							"name": "",
							"type": "uint256"
						}
					],
					"stateMutability": "nonpayable",
					"type": "function"
				}
			],
			"devdoc": {
				"kind": "dev",
				"methods": {},
				"version": 1
			},
			"evm": {
				"assembly": "    /* \"contracts/12/Continue.sol\":57:2650  contract Continue {... */\n  mstore(0x40, 0x80)\n  callvalue\n  dup1\n  iszero\n  tag_1\n  jumpi\n  0x00\n  dup1\n  revert\ntag_1:\n  pop\n  dataSize(sub_0)\n  dup1\n  dataOffset(sub_0)\n  0x00\n  codecopy\n  0x00\n  return\nstop\n\nsub_0: assembly {\n        /* \"contracts/12/Continue.sol\":57:2650  contract Continue {... */\n      mstore(0x40, 0x80)\n      callvalue\n      dup1\n      iszero\n      tag_1\n      jumpi\n      0x00\n      dup1\n      revert\n    tag_1:\n      pop\n      jumpi(tag_2, lt(calldatasize, 0x04))\n      shr(0xe0, calldataload(0x00))\n      dup1\n      0x4f32156d\n      eq\n      tag_3\n      jumpi\n      dup1\n      0x59a7fb06\n      eq\n      tag_4\n      jumpi\n    tag_2:\n      0x00\n      dup1\n      revert\n        /* \"contracts/12/Continue.sol\":935:961  uint public cardinalitySum */\n    tag_3:\n      tag_5\n      tag_6\n      jump\t// in\n    tag_5:\n      mload(0x40)\n      tag_7\n      swap2\n      swap1\n      tag_8\n      jump\t// in\n    tag_7:\n      mload(0x40)\n      dup1\n      swap2\n      sub\n      swap1\n      return\n        /* \"contracts/12/Continue.sol\":968:1280  function sumNumbers(uint num) public returns (uint) {... */\n    tag_4:\n      tag_9\n      0x04\n      dup1\n      calldatasize\n      sub\n      dup2\n      add\n      swap1\n      tag_10\n      swap2\n      swap1\n      tag_11\n      jump\t// in\n    tag_10:\n      tag_12\n      jump\t// in\n    tag_9:\n      mload(0x40)\n      tag_13\n      swap2\n      swap1\n      tag_8\n      jump\t// in\n    tag_13:\n      mload(0x40)\n      dup1\n      swap2\n      sub\n      swap1\n      return\n        /* \"contracts/12/Continue.sol\":935:961  uint public cardinalitySum */\n    tag_6:\n      sload(0x00)\n      dup2\n      jump\t// out\n        /* \"contracts/12/Continue.sol\":968:1280  function sumNumbers(uint num) public returns (uint) {... */\n    tag_12:\n        /* \"contracts/12/Continue.sol\":1014:1018  uint */\n      0x00\n        /* \"contracts/12/Continue.sol\":1035:1041  uint i */\n      dup1\n        /* \"contracts/12/Continue.sol\":1044:1045  1 */\n      0x01\n        /* \"contracts/12/Continue.sol\":1035:1045  uint i = 1 */\n      swap1\n      pop\n        /* \"contracts/12/Continue.sol\":1030:1243  for (uint i = 1; i <= num; i++) {... */\n    tag_15:\n        /* \"contracts/12/Continue.sol\":1052:1055  num */\n      dup3\n        /* \"contracts/12/Continue.sol\":1047:1048  i */\n      dup2\n        /* \"contracts/12/Continue.sol\":1047:1055  i <= num */\n      gt\n        /* \"contracts/12/Continue.sol\":1030:1243  for (uint i = 1; i <= num; i++) {... */\n      tag_16\n      jumpi\n        /* \"contracts/12/Continue.sol\":1087:1088  0 */\n      0x00\n        /* \"contracts/12/Continue.sol\":1082:1083  2 */\n      0x02\n        /* \"contracts/12/Continue.sol\":1080:1081  i */\n      dup3\n        /* \"contracts/12/Continue.sol\":1080:1083  i%2 */\n      tag_18\n      swap2\n      swap1\n      tag_19\n      jump\t// in\n    tag_18:\n        /* \"contracts/12/Continue.sol\":1080:1088  i%2 == 0 */\n      sub\n        /* \"contracts/12/Continue.sol\":1076:1172  if (i%2 == 0) { // 如果是偶数，跳过本次循环_... */\n      iszero\n        /* \"contracts/12/Continue.sol\":1149:1157  continue */\n      tag_17\n        /* \"contracts/12/Continue.sol\":1076:1172  if (i%2 == 0) { // 如果是偶数，跳过本次循环_... */\n      jumpi\n        /* \"contracts/12/Continue.sol\":1203:1204  i */\n      dup1\n        /* \"contracts/12/Continue.sol\":1185:1199  cardinalitySum */\n      0x00\n      dup1\n        /* \"contracts/12/Continue.sol\":1185:1204  cardinalitySum += i */\n      dup3\n      dup3\n      sload\n      tag_21\n      swap2\n      swap1\n      tag_22\n      jump\t// in\n    tag_21:\n      swap3\n      pop\n      pop\n      dup2\n      swap1\n      sstore\n      pop\n        /* \"contracts/12/Continue.sol\":1030:1243  for (uint i = 1; i <= num; i++) {... */\n    tag_17:\n        /* \"contracts/12/Continue.sol\":1057:1060  i++ */\n      dup1\n      dup1\n      tag_23\n      swap1\n      tag_24\n      jump\t// in\n    tag_23:\n      swap2\n      pop\n      pop\n        /* \"contracts/12/Continue.sol\":1030:1243  for (uint i = 1; i <= num; i++) {... */\n      jump(tag_15)\n    tag_16:\n      pop\n        /* \"contracts/12/Continue.sol\":1259:1273  cardinalitySum */\n      sload(0x00)\n        /* \"contracts/12/Continue.sol\":1252:1273  return cardinalitySum */\n      swap1\n      pop\n        /* \"contracts/12/Continue.sol\":968:1280  function sumNumbers(uint num) public returns (uint) {... */\n      swap2\n      swap1\n      pop\n      jump\t// out\n        /* \"#utility.yul\":7:84   */\n    tag_25:\n        /* \"#utility.yul\":44:51   */\n      0x00\n        /* \"#utility.yul\":73:78   */\n      dup2\n        /* \"#utility.yul\":62:78   */\n      swap1\n      pop\n        /* \"#utility.yul\":7:84   */\n      swap2\n      swap1\n      pop\n      jump\t// out\n        /* \"#utility.yul\":90:208   */\n    tag_26:\n        /* \"#utility.yul\":177:201   */\n      tag_37\n        /* \"#utility.yul\":195:200   */\n      dup2\n        /* \"#utility.yul\":177:201   */\n      tag_25\n      jump\t// in\n    tag_37:\n        /* \"#utility.yul\":172:175   */\n      dup3\n        /* \"#utility.yul\":165:202   */\n      mstore\n        /* \"#utility.yul\":90:208   */\n      pop\n      pop\n      jump\t// out\n        /* \"#utility.yul\":214:436   */\n    tag_8:\n        /* \"#utility.yul\":307:311   */\n      0x00\n        /* \"#utility.yul\":345:347   */\n      0x20\n        /* \"#utility.yul\":334:343   */\n      dup3\n        /* \"#utility.yul\":330:348   */\n      add\n        /* \"#utility.yul\":322:348   */\n      swap1\n      pop\n        /* \"#utility.yul\":358:429   */\n      tag_39\n        /* \"#utility.yul\":426:427   */\n      0x00\n        /* \"#utility.yul\":415:424   */\n      dup4\n        /* \"#utility.yul\":411:428   */\n      add\n        /* \"#utility.yul\":402:408   */\n      dup5\n        /* \"#utility.yul\":358:429   */\n      tag_26\n      jump\t// in\n    tag_39:\n        /* \"#utility.yul\":214:436   */\n      swap3\n      swap2\n      pop\n      pop\n      jump\t// out\n        /* \"#utility.yul\":523:640   */\n    tag_28:\n        /* \"#utility.yul\":632:633   */\n      0x00\n        /* \"#utility.yul\":629:630   */\n      dup1\n        /* \"#utility.yul\":622:634   */\n      revert\n        /* \"#utility.yul\":769:891   */\n    tag_30:\n        /* \"#utility.yul\":842:866   */\n      tag_44\n        /* \"#utility.yul\":860:865   */\n      dup2\n        /* \"#utility.yul\":842:866   */\n      tag_25\n      jump\t// in\n    tag_44:\n        /* \"#utility.yul\":835:840   */\n      dup2\n        /* \"#utility.yul\":832:867   */\n      eq\n        /* \"#utility.yul\":822:885   */\n      tag_45\n      jumpi\n        /* \"#utility.yul\":881:882   */\n      0x00\n        /* \"#utility.yul\":878:879   */\n      dup1\n        /* \"#utility.yul\":871:883   */\n      revert\n        /* \"#utility.yul\":822:885   */\n    tag_45:\n        /* \"#utility.yul\":769:891   */\n      pop\n      jump\t// out\n        /* \"#utility.yul\":897:1036   */\n    tag_31:\n        /* \"#utility.yul\":943:948   */\n      0x00\n        /* \"#utility.yul\":981:987   */\n      dup2\n        /* \"#utility.yul\":968:988   */\n      calldataload\n        /* \"#utility.yul\":959:988   */\n      swap1\n      pop\n        /* \"#utility.yul\":997:1030   */\n      tag_47\n        /* \"#utility.yul\":1024:1029   */\n      dup2\n        /* \"#utility.yul\":997:1030   */\n      tag_30\n      jump\t// in\n    tag_47:\n        /* \"#utility.yul\":897:1036   */\n      swap3\n      swap2\n      pop\n      pop\n      jump\t// out\n        /* \"#utility.yul\":1042:1371   */\n    tag_11:\n        /* \"#utility.yul\":1101:1107   */\n      0x00\n        /* \"#utility.yul\":1150:1152   */\n      0x20\n        /* \"#utility.yul\":1138:1147   */\n      dup3\n        /* \"#utility.yul\":1129:1136   */\n      dup5\n        /* \"#utility.yul\":1125:1148   */\n      sub\n        /* \"#utility.yul\":1121:1153   */\n      slt\n        /* \"#utility.yul\":1118:1237   */\n      iszero\n      tag_49\n      jumpi\n        /* \"#utility.yul\":1156:1235   */\n      tag_50\n      tag_28\n      jump\t// in\n    tag_50:\n        /* \"#utility.yul\":1118:1237   */\n    tag_49:\n        /* \"#utility.yul\":1276:1277   */\n      0x00\n        /* \"#utility.yul\":1301:1354   */\n      tag_51\n        /* \"#utility.yul\":1346:1353   */\n      dup5\n        /* \"#utility.yul\":1337:1343   */\n      dup3\n        /* \"#utility.yul\":1326:1335   */\n      dup6\n        /* \"#utility.yul\":1322:1344   */\n      add\n        /* \"#utility.yul\":1301:1354   */\n      tag_31\n      jump\t// in\n    tag_51:\n        /* \"#utility.yul\":1291:1354   */\n      swap2\n      pop\n        /* \"#utility.yul\":1247:1364   */\n      pop\n        /* \"#utility.yul\":1042:1371   */\n      swap3\n      swap2\n      pop\n      pop\n      jump\t// out\n        /* \"#utility.yul\":1377:1557   */\n    tag_32:\n        /* \"#utility.yul\":1425:1502   */\n      0x4e487b7100000000000000000000000000000000000000000000000000000000\n        /* \"#utility.yul\":1422:1423   */\n      0x00\n        /* \"#utility.yul\":1415:1503   */\n      mstore\n        /* \"#utility.yul\":1522:1526   */\n      0x12\n        /* \"#utility.yul\":1519:1520   */\n      0x04\n        /* \"#utility.yul\":1512:1527   */\n      mstore\n        /* \"#utility.yul\":1546:1550   */\n      0x24\n        /* \"#utility.yul\":1543:1544   */\n      0x00\n        /* \"#utility.yul\":1536:1551   */\n      revert\n        /* \"#utility.yul\":1563:1739   */\n    tag_19:\n        /* \"#utility.yul\":1595:1596   */\n      0x00\n        /* \"#utility.yul\":1612:1632   */\n      tag_54\n        /* \"#utility.yul\":1630:1631   */\n      dup3\n        /* \"#utility.yul\":1612:1632   */\n      tag_25\n      jump\t// in\n    tag_54:\n        /* \"#utility.yul\":1607:1632   */\n      swap2\n      pop\n        /* \"#utility.yul\":1646:1666   */\n      tag_55\n        /* \"#utility.yul\":1664:1665   */\n      dup4\n        /* \"#utility.yul\":1646:1666   */\n      tag_25\n      jump\t// in\n    tag_55:\n        /* \"#utility.yul\":1641:1666   */\n      swap3\n      pop\n        /* \"#utility.yul\":1685:1686   */\n      dup3\n        /* \"#utility.yul\":1675:1710   */\n      tag_56\n      jumpi\n        /* \"#utility.yul\":1690:1708   */\n      tag_57\n      tag_32\n      jump\t// in\n    tag_57:\n        /* \"#utility.yul\":1675:1710   */\n    tag_56:\n        /* \"#utility.yul\":1731:1732   */\n      dup3\n        /* \"#utility.yul\":1728:1729   */\n      dup3\n        /* \"#utility.yul\":1724:1733   */\n      mod\n        /* \"#utility.yul\":1719:1733   */\n      swap1\n      pop\n        /* \"#utility.yul\":1563:1739   */\n      swap3\n      swap2\n      pop\n      pop\n      jump\t// out\n        /* \"#utility.yul\":1745:1925   */\n    tag_33:\n        /* \"#utility.yul\":1793:1870   */\n      0x4e487b7100000000000000000000000000000000000000000000000000000000\n        /* \"#utility.yul\":1790:1791   */\n      0x00\n        /* \"#utility.yul\":1783:1871   */\n      mstore\n        /* \"#utility.yul\":1890:1894   */\n      0x11\n        /* \"#utility.yul\":1887:1888   */\n      0x04\n        /* \"#utility.yul\":1880:1895   */\n      mstore\n        /* \"#utility.yul\":1914:1918   */\n      0x24\n        /* \"#utility.yul\":1911:1912   */\n      0x00\n        /* \"#utility.yul\":1904:1919   */\n      revert\n        /* \"#utility.yul\":1931:2122   */\n    tag_22:\n        /* \"#utility.yul\":1971:1974   */\n      0x00\n        /* \"#utility.yul\":1990:2010   */\n      tag_60\n        /* \"#utility.yul\":2008:2009   */\n      dup3\n        /* \"#utility.yul\":1990:2010   */\n      tag_25\n      jump\t// in\n    tag_60:\n        /* \"#utility.yul\":1985:2010   */\n      swap2\n      pop\n        /* \"#utility.yul\":2024:2044   */\n      tag_61\n        /* \"#utility.yul\":2042:2043   */\n      dup4\n        /* \"#utility.yul\":2024:2044   */\n      tag_25\n      jump\t// in\n    tag_61:\n        /* \"#utility.yul\":2019:2044   */\n      swap3\n      pop\n        /* \"#utility.yul\":2067:2068   */\n      dup3\n        /* \"#utility.yul\":2064:2065   */\n      dup3\n        /* \"#utility.yul\":2060:2069   */\n      add\n        /* \"#utility.yul\":2053:2069   */\n      swap1\n      pop\n        /* \"#utility.yul\":2088:2091   */\n      dup1\n        /* \"#utility.yul\":2085:2086   */\n      dup3\n        /* \"#utility.yul\":2082:2092   */\n      gt\n        /* \"#utility.yul\":2079:2115   */\n      iszero\n      tag_62\n      jumpi\n        /* \"#utility.yul\":2095:2113   */\n      tag_63\n      tag_33\n      jump\t// in\n    tag_63:\n        /* \"#utility.yul\":2079:2115   */\n    tag_62:\n        /* \"#utility.yul\":1931:2122   */\n      swap3\n      swap2\n      pop\n      pop\n      jump\t// out\n        /* \"#utility.yul\":2128:2361   */\n    tag_24:\n        /* \"#utility.yul\":2167:2170   */\n      0x00\n        /* \"#utility.yul\":2190:2214   */\n      tag_65\n        /* \"#utility.yul\":2208:2213   */\n      dup3\n        /* \"#utility.yul\":2190:2214   */\n      tag_25\n      jump\t// in\n    tag_65:\n        /* \"#utility.yul\":2181:2214   */\n      swap2\n      pop\n        /* \"#utility.yul\":2236:2302   */\n      0xffffffffffffffffffffffffffffffffffffffffffffffffffffffffffffffff\n        /* \"#utility.yul\":2229:2234   */\n      dup3\n        /* \"#utility.yul\":2226:2303   */\n      sub\n        /* \"#utility.yul\":2223:2326   */\n      tag_66\n      jumpi\n        /* \"#utility.yul\":2306:2324   */\n      tag_67\n      tag_33\n      jump\t// in\n    tag_67:\n        /* \"#utility.yul\":2223:2326   */\n    tag_66:\n        /* \"#utility.yul\":2353:2354   */\n      0x01\n        /* \"#utility.yul\":2346:2351   */\n      dup3\n        /* \"#utility.yul\":2342:2355   */\n      add\n        /* \"#utility.yul\":2335:2355   */\n      swap1\n      pop\n        /* \"#utility.yul\":2128:2361   */\n      swap2\n      swap1\n      pop\n      jump\t// out\n\n    auxdata: 0xa2646970667358221220f6203f2e9cf19211a02d4d894eb40f336eda674474db7d5fb5027e8f078f6c6b64736f6c634300081a0033\n}\n",
				"bytecode": {
					"linkReferences": {},
					"object": "6080604052348015600e575f80fd5b506102a68061001c5f395ff3fe608060405234801561000f575f80fd5b5060043610610034575f3560e01c80634f32156d1461003857806359a7fb0614610056575b5f80fd5b610040610086565b60405161004d91906100fa565b60405180910390f35b610070600480360381019061006b9190610141565b61008b565b60405161007d91906100fa565b60405180910390f35b5f5481565b5f80600190505b8281116100d8575f6002826100a79190610199565b03156100c557805f808282546100bd91906101f6565b925050819055505b80806100d090610229565b915050610092565b505f549050919050565b5f819050919050565b6100f4816100e2565b82525050565b5f60208201905061010d5f8301846100eb565b92915050565b5f80fd5b610120816100e2565b811461012a575f80fd5b50565b5f8135905061013b81610117565b92915050565b5f6020828403121561015657610155610113565b5b5f6101638482850161012d565b91505092915050565b7f4e487b71000000000000000000000000000000000000000000000000000000005f52601260045260245ffd5b5f6101a3826100e2565b91506101ae836100e2565b9250826101be576101bd61016c565b5b828206905092915050565b7f4e487b71000000000000000000000000000000000000000000000000000000005f52601160045260245ffd5b5f610200826100e2565b915061020b836100e2565b9250828201905080821115610223576102226101c9565b5b92915050565b5f610233826100e2565b91507fffffffffffffffffffffffffffffffffffffffffffffffffffffffffffffffff8203610265576102646101c9565b5b60018201905091905056fea2646970667358221220f6203f2e9cf19211a02d4d894eb40f336eda674474db7d5fb5027e8f078f6c6b64736f6c634300081a0033",
					"opcodes": "PUSH1 0x80 PUSH1 0x40 MSTORE CALLVALUE DUP1 ISZERO PUSH1 0xE JUMPI PUSH0 DUP1 REVERT JUMPDEST POP PUSH2 0x2A6 DUP1 PUSH2 0x1C PUSH0 CODECOPY PUSH0 RETURN INVALID PUSH1 0x80 PUSH1 0x40 MSTORE CALLVALUE DUP1 ISZERO PUSH2 0xF JUMPI PUSH0 DUP1 REVERT JUMPDEST POP PUSH1 0x4 CALLDATASIZE LT PUSH2 0x34 JUMPI PUSH0 CALLDATALOAD PUSH1 0xE0 SHR DUP1 PUSH4 0x4F32156D EQ PUSH2 0x38 JUMPI DUP1 PUSH4 0x59A7FB06 EQ PUSH2 0x56 JUMPI JUMPDEST PUSH0 DUP1 REVERT JUMPDEST PUSH2 0x40 PUSH2 0x86 JUMP JUMPDEST PUSH1 0x40 MLOAD PUSH2 0x4D SWAP2 SWAP1 PUSH2 0xFA JUMP JUMPDEST PUSH1 0x40 MLOAD DUP1 SWAP2 SUB SWAP1 RETURN JUMPDEST PUSH2 0x70 PUSH1 0x4 DUP1 CALLDATASIZE SUB DUP2 ADD SWAP1 PUSH2 0x6B SWAP2 SWAP1 PUSH2 0x141 JUMP JUMPDEST PUSH2 0x8B JUMP JUMPDEST PUSH1 0x40 MLOAD PUSH2 0x7D SWAP2 SWAP1 PUSH2 0xFA JUMP JUMPDEST PUSH1 0x40 MLOAD DUP1 SWAP2 SUB SWAP1 RETURN JUMPDEST PUSH0 SLOAD DUP2 JUMP JUMPDEST PUSH0 DUP1 PUSH1 0x1 SWAP1 POP JUMPDEST DUP3 DUP2 GT PUSH2 0xD8 JUMPI PUSH0 PUSH1 0x2 DUP3 PUSH2 0xA7 SWAP2 SWAP1 PUSH2 0x199 JUMP JUMPDEST SUB ISZERO PUSH2 0xC5 JUMPI DUP1 PUSH0 DUP1 DUP3 DUP3 SLOAD PUSH2 0xBD SWAP2 SWAP1 PUSH2 0x1F6 JUMP JUMPDEST SWAP3 POP POP DUP2 SWAP1 SSTORE POP JUMPDEST DUP1 DUP1 PUSH2 0xD0 SWAP1 PUSH2 0x229 JUMP JUMPDEST SWAP2 POP POP PUSH2 0x92 JUMP JUMPDEST POP PUSH0 SLOAD SWAP1 POP SWAP2 SWAP1 POP JUMP JUMPDEST PUSH0 DUP2 SWAP1 POP SWAP2 SWAP1 POP JUMP JUMPDEST PUSH2 0xF4 DUP2 PUSH2 0xE2 JUMP JUMPDEST DUP3 MSTORE POP POP JUMP JUMPDEST PUSH0 PUSH1 0x20 DUP3 ADD SWAP1 POP PUSH2 0x10D PUSH0 DUP4 ADD DUP5 PUSH2 0xEB JUMP JUMPDEST SWAP3 SWAP2 POP POP JUMP JUMPDEST PUSH0 DUP1 REVERT JUMPDEST PUSH2 0x120 DUP2 PUSH2 0xE2 JUMP JUMPDEST DUP2 EQ PUSH2 0x12A JUMPI PUSH0 DUP1 REVERT JUMPDEST POP JUMP JUMPDEST PUSH0 DUP2 CALLDATALOAD SWAP1 POP PUSH2 0x13B DUP2 PUSH2 0x117 JUMP JUMPDEST SWAP3 SWAP2 POP POP JUMP JUMPDEST PUSH0 PUSH1 0x20 DUP3 DUP5 SUB SLT ISZERO PUSH2 0x156 JUMPI PUSH2 0x155 PUSH2 0x113 JUMP JUMPDEST JUMPDEST PUSH0 PUSH2 0x163 DUP5 DUP3 DUP6 ADD PUSH2 0x12D JUMP JUMPDEST SWAP2 POP POP SWAP3 SWAP2 POP POP JUMP JUMPDEST PUSH32 0x4E487B7100000000000000000000000000000000000000000000000000000000 PUSH0 MSTORE PUSH1 0x12 PUSH1 0x4 MSTORE PUSH1 0x24 PUSH0 REVERT JUMPDEST PUSH0 PUSH2 0x1A3 DUP3 PUSH2 0xE2 JUMP JUMPDEST SWAP2 POP PUSH2 0x1AE DUP4 PUSH2 0xE2 JUMP JUMPDEST SWAP3 POP DUP3 PUSH2 0x1BE JUMPI PUSH2 0x1BD PUSH2 0x16C JUMP JUMPDEST JUMPDEST DUP3 DUP3 MOD SWAP1 POP SWAP3 SWAP2 POP POP JUMP JUMPDEST PUSH32 0x4E487B7100000000000000000000000000000000000000000000000000000000 PUSH0 MSTORE PUSH1 0x11 PUSH1 0x4 MSTORE PUSH1 0x24 PUSH0 REVERT JUMPDEST PUSH0 PUSH2 0x200 DUP3 PUSH2 0xE2 JUMP JUMPDEST SWAP2 POP PUSH2 0x20B DUP4 PUSH2 0xE2 JUMP JUMPDEST SWAP3 POP DUP3 DUP3 ADD SWAP1 POP DUP1 DUP3 GT ISZERO PUSH2 0x223 JUMPI PUSH2 0x222 PUSH2 0x1C9 JUMP JUMPDEST JUMPDEST SWAP3 SWAP2 POP POP JUMP JUMPDEST PUSH0 PUSH2 0x233 DUP3 PUSH2 0xE2 JUMP JUMPDEST SWAP2 POP PUSH32 0xFFFFFFFFFFFFFFFFFFFFFFFFFFFFFFFFFFFFFFFFFFFFFFFFFFFFFFFFFFFFFFFF DUP3 SUB PUSH2 0x265 JUMPI PUSH2 0x264 PUSH2 0x1C9 JUMP JUMPDEST JUMPDEST PUSH1 0x1 DUP3 ADD SWAP1 POP SWAP2 SWAP1 POP JUMP INVALID LOG2 PUSH5 0x6970667358 0x22 SLT KECCAK256 0xF6 KECCAK256 EXTCODEHASH 0x2E SWAP13 CALL SWAP3 GT LOG0 0x2D 0x4D DUP10 0x4E 0xB4 0xF CALLER PUSH15 0xDA674474DB7D5FB5027E8F078F6C6B PUSH5 0x736F6C6343 STOP ADDMOD BYTE STOP CALLER "
				},
				"gasEstimates": {
					"creation": {
						"codeDepositCost": "135600",
						"executionCost": "181",
						"totalCost": "135781"
					},
					"external": {
						"cardinalitySum()": "2402",
						"sumNumbers(uint256)": "infinite"
					}
				},
				"methodIdentifiers": {
					"cardinalitySum()": "4f32156d",
					"sumNumbers(uint256)": "59a7fb06"
				}
			},
			"storageLayout": {
				"storage": [
					{
						"astId": 3,
						"contract": "contracts/12/Continue.sol:Continue",
						"label": "cardinalitySum",
						"offset": 0,
						"slot": "0",
						"type": "t_uint256"
					}
				],
				"types": {
					"t_uint256": {
						"encoding": "inplace",
						"label": "uint256",
						"numberOfBytes": "32"
					}
				}
			},
			"userdoc": {
				"kind": "user",
				"methods": {},
				"version": 1
			}
		}
	}
}