{
	"contracts/02/Library.sol": {
		"AddTest": {
			"abi": [
				{
					"inputs": [
						{
							"internalType": "uint256",
							"name": "x",
							"type": "uint256"
						},
						{
							"internalType": "uint256",
							"name": "y",
							"type": "uint256"
						}
					],
					"name": "add2",
					"outputs": [
						{
							"internalType": "uint256",
							"name": "",
							"type": "uint256"
						}
					],
					"stateMutability": "pure",
					"type": "function"
				},
				{
					"inputs": [
						{
							"internalType": "uint256",
							"name": "x",
							"type": "uint256"
						},
						{
							"internalType": "uint256",
							"name": "y",
							"type": "uint256"
						}
					],
					"name": "addNumbers",
					"outputs": [
						{
							"internalType": "uint256",
							"name": "",
							"type": "uint256"
						}
					],
					"stateMutability": "pure",
					"type": "function"
				}
			],
			"devdoc": {
				"kind": "dev",
				"methods": {},
				"version": 1
			},
			"evm": {
				"assembly": "    /* \"contracts/02/Library.sol\":1429:1728  contract AddTest {... */\n  mstore(0x40, 0x80)\n  callvalue\n  dup1\n  iszero\n  tag_1\n  jumpi\n  0x00\n  dup1\n  revert\ntag_1:\n  pop\n  dataSize(sub_0)\n  dup1\n  dataOffset(sub_0)\n  0x00\n  codecopy\n  0x00\n  return\nstop\n\nsub_0: assembly {\n        /* \"contracts/02/Library.sol\":1429:1728  contract AddTest {... */\n      mstore(0x40, 0x80)\n      callvalue\n      dup1\n      iszero\n      tag_1\n      jumpi\n      0x00\n      dup1\n      revert\n    tag_1:\n      pop\n      jumpi(tag_2, lt(calldatasize, 0x04))\n      shr(0xe0, calldataload(0x00))\n      dup1\n      0x29fcda33\n      eq\n      tag_3\n      jumpi\n      dup1\n      0xef9fc50b\n      eq\n      tag_4\n      jumpi\n    tag_2:\n      0x00\n      dup1\n      revert\n        /* \"contracts/02/Library.sol\":1600:1726  function add2(uint x, uint y) public pure returns (uint) {... */\n    tag_3:\n      tag_5\n      0x04\n      dup1\n      calldatasize\n      sub\n      dup2\n      add\n      swap1\n      tag_6\n      swap2\n      swap1\n      tag_7\n      jump\t// in\n    tag_6:\n      tag_8\n      jump\t// in\n    tag_5:\n      mload(0x40)\n      tag_9\n      swap2\n      swap1\n      tag_10\n      jump\t// in\n    tag_9:\n      mload(0x40)\n      dup1\n      swap2\n      sub\n      swap1\n      return\n        /* \"contracts/02/Library.sol\":1452:1594  function addNumbers(uint x, uint y) public pure returns(uint) { // addNumbers 函... */\n    tag_4:\n      tag_11\n      0x04\n      dup1\n      calldatasize\n      sub\n      dup2\n      add\n      swap1\n      tag_12\n      swap2\n      swap1\n      tag_7\n      jump\t// in\n    tag_12:\n      tag_13\n      jump\t// in\n    tag_11:\n      mload(0x40)\n      tag_14\n      swap2\n      swap1\n      tag_10\n      jump\t// in\n    tag_14:\n      mload(0x40)\n      dup1\n      swap2\n      sub\n      swap1\n      return\n        /* \"contracts/02/Library.sol\":1600:1726  function add2(uint x, uint y) public pure returns (uint) {... */\n    tag_8:\n        /* \"contracts/02/Library.sol\":1651:1655  uint */\n      0x00\n        /* \"contracts/02/Library.sol\":1674:1682  SafeMath */\n      linkerSymbol(\"4bc28cafa23dc7d528c79c77420af2e9b6b9b6c270ad44420dfda730d664172d\")\n        /* \"contracts/02/Library.sol\":1674:1687  SafeMath.add2 */\n      0x29fcda33\n        /* \"contracts/02/Library.sol\":1688:1689  x */\n      dup5\n        /* \"contracts/02/Library.sol\":1691:1692  y */\n      dup5\n        /* \"contracts/02/Library.sol\":1674:1693  SafeMath.add2(x, y) */\n      mload(0x40)\n      dup4\n      0xffffffff\n      and\n      0xe0\n      shl\n      dup2\n      mstore\n      0x04\n      add\n      tag_16\n      swap3\n      swap2\n      swap1\n      tag_17\n      jump\t// in\n    tag_16:\n      0x20\n      mload(0x40)\n      dup1\n      dup4\n      sub\n      dup2\n      dup7\n      gas\n      delegatecall\n      iszero\n      dup1\n      iszero\n      tag_19\n      jumpi\n      returndatasize\n      0x00\n      dup1\n      returndatacopy\n      revert(0x00, returndatasize)\n    tag_19:\n      pop\n      pop\n      pop\n      pop\n      mload(0x40)\n      returndatasize\n      not(0x1f)\n      0x1f\n      dup3\n      add\n      and\n      dup3\n      add\n      dup1\n      0x40\n      mstore\n      pop\n      dup2\n      add\n      swap1\n      tag_20\n      swap2\n      swap1\n      tag_21\n      jump\t// in\n    tag_20:\n        /* \"contracts/02/Library.sol\":1667:1693  return SafeMath.add2(x, y) */\n      swap1\n      pop\n        /* \"contracts/02/Library.sol\":1600:1726  function add2(uint x, uint y) public pure returns (uint) {... */\n      swap3\n      swap2\n      pop\n      pop\n      jump\t// out\n        /* \"contracts/02/Library.sol\":1452:1594  function addNumbers(uint x, uint y) public pure returns(uint) { // addNumbers 函... */\n    tag_13:\n        /* \"contracts/02/Library.sol\":1508:1512  uint */\n      0x00\n        /* \"contracts/02/Library.sol\":1542:1548  uint c */\n      dup1\n        /* \"contracts/02/Library.sol\":1551:1569  SafeMath.add(x, y) */\n      tag_23\n        /* \"contracts/02/Library.sol\":1564:1565  x */\n      dup5\n        /* \"contracts/02/Library.sol\":1567:1568  y */\n      dup5\n        /* \"contracts/02/Library.sol\":1551:1563  SafeMath.add */\n      tag_24\n        /* \"contracts/02/Library.sol\":1551:1569  SafeMath.add(x, y) */\n      jump\t// in\n    tag_23:\n        /* \"contracts/02/Library.sol\":1542:1569  uint c = SafeMath.add(x, y) */\n      swap1\n      pop\n        /* \"contracts/02/Library.sol\":1586:1587  c */\n      dup1\n        /* \"contracts/02/Library.sol\":1579:1587  return c */\n      swap2\n      pop\n      pop\n        /* \"contracts/02/Library.sol\":1452:1594  function addNumbers(uint x, uint y) public pure returns(uint) { // addNumbers 函... */\n      swap3\n      swap2\n      pop\n      pop\n      jump\t// out\n        /* \"contracts/02/Library.sol\":734:897  function add(uint a, uint b) internal pure returns (uint) {... */\n    tag_24:\n        /* \"contracts/02/Library.sol\":786:790  uint */\n      0x00\n        /* \"contracts/02/Library.sol\":802:808  uint c */\n      dup1\n        /* \"contracts/02/Library.sol\":815:816  b */\n      dup3\n        /* \"contracts/02/Library.sol\":811:812  a */\n      dup5\n        /* \"contracts/02/Library.sol\":811:816  a + b */\n      tag_26\n      swap2\n      swap1\n      tag_27\n      jump\t// in\n    tag_26:\n        /* \"contracts/02/Library.sol\":802:816  uint c = a + b */\n      swap1\n      pop\n        /* \"contracts/02/Library.sol\":839:840  a */\n      dup4\n        /* \"contracts/02/Library.sol\":834:835  c */\n      dup2\n        /* \"contracts/02/Library.sol\":834:840  c >= a */\n      lt\n      iszero\n        /* \"contracts/02/Library.sol\":826:872  require(c >= a, \"SafeMath: addition overflow\") */\n      tag_28\n      jumpi\n      mload(0x40)\n      0x08c379a000000000000000000000000000000000000000000000000000000000\n      dup2\n      mstore\n      0x04\n      add\n      tag_29\n      swap1\n      tag_30\n      jump\t// in\n    tag_29:\n      mload(0x40)\n      dup1\n      swap2\n      sub\n      swap1\n      revert\n    tag_28:\n        /* \"contracts/02/Library.sol\":889:890  c */\n      dup1\n        /* \"contracts/02/Library.sol\":882:890  return c */\n      swap2\n      pop\n      pop\n        /* \"contracts/02/Library.sol\":734:897  function add(uint a, uint b) internal pure returns (uint) {... */\n      swap3\n      swap2\n      pop\n      pop\n      jump\t// out\n        /* \"#utility.yul\":88:205   */\n    tag_32:\n        /* \"#utility.yul\":197:198   */\n      0x00\n        /* \"#utility.yul\":194:195   */\n      dup1\n        /* \"#utility.yul\":187:199   */\n      revert\n        /* \"#utility.yul\":334:411   */\n    tag_34:\n        /* \"#utility.yul\":371:378   */\n      0x00\n        /* \"#utility.yul\":400:405   */\n      dup2\n        /* \"#utility.yul\":389:405   */\n      swap1\n      pop\n        /* \"#utility.yul\":334:411   */\n      swap2\n      swap1\n      pop\n      jump\t// out\n        /* \"#utility.yul\":417:539   */\n    tag_35:\n        /* \"#utility.yul\":490:514   */\n      tag_50\n        /* \"#utility.yul\":508:513   */\n      dup2\n        /* \"#utility.yul\":490:514   */\n      tag_34\n      jump\t// in\n    tag_50:\n        /* \"#utility.yul\":483:488   */\n      dup2\n        /* \"#utility.yul\":480:515   */\n      eq\n        /* \"#utility.yul\":470:533   */\n      tag_51\n      jumpi\n        /* \"#utility.yul\":529:530   */\n      0x00\n        /* \"#utility.yul\":526:527   */\n      dup1\n        /* \"#utility.yul\":519:531   */\n      revert\n        /* \"#utility.yul\":470:533   */\n    tag_51:\n        /* \"#utility.yul\":417:539   */\n      pop\n      jump\t// out\n        /* \"#utility.yul\":545:684   */\n    tag_36:\n        /* \"#utility.yul\":591:596   */\n      0x00\n        /* \"#utility.yul\":629:635   */\n      dup2\n        /* \"#utility.yul\":616:636   */\n      calldataload\n        /* \"#utility.yul\":607:636   */\n      swap1\n      pop\n        /* \"#utility.yul\":645:678   */\n      tag_53\n        /* \"#utility.yul\":672:677   */\n      dup2\n        /* \"#utility.yul\":645:678   */\n      tag_35\n      jump\t// in\n    tag_53:\n        /* \"#utility.yul\":545:684   */\n      swap3\n      swap2\n      pop\n      pop\n      jump\t// out\n        /* \"#utility.yul\":690:1164   */\n    tag_7:\n        /* \"#utility.yul\":758:764   */\n      0x00\n        /* \"#utility.yul\":766:772   */\n      dup1\n        /* \"#utility.yul\":815:817   */\n      0x40\n        /* \"#utility.yul\":803:812   */\n      dup4\n        /* \"#utility.yul\":794:801   */\n      dup6\n        /* \"#utility.yul\":790:813   */\n      sub\n        /* \"#utility.yul\":786:818   */\n      slt\n        /* \"#utility.yul\":783:902   */\n      iszero\n      tag_55\n      jumpi\n        /* \"#utility.yul\":821:900   */\n      tag_56\n      tag_32\n      jump\t// in\n    tag_56:\n        /* \"#utility.yul\":783:902   */\n    tag_55:\n        /* \"#utility.yul\":941:942   */\n      0x00\n        /* \"#utility.yul\":966:1019   */\n      tag_57\n        /* \"#utility.yul\":1011:1018   */\n      dup6\n        /* \"#utility.yul\":1002:1008   */\n      dup3\n        /* \"#utility.yul\":991:1000   */\n      dup7\n        /* \"#utility.yul\":987:1009   */\n      add\n        /* \"#utility.yul\":966:1019   */\n      tag_36\n      jump\t// in\n    tag_57:\n        /* \"#utility.yul\":956:1019   */\n      swap3\n      pop\n        /* \"#utility.yul\":912:1029   */\n      pop\n        /* \"#utility.yul\":1068:1070   */\n      0x20\n        /* \"#utility.yul\":1094:1147   */\n      tag_58\n        /* \"#utility.yul\":1139:1146   */\n      dup6\n        /* \"#utility.yul\":1130:1136   */\n      dup3\n        /* \"#utility.yul\":1119:1128   */\n      dup7\n        /* \"#utility.yul\":1115:1137   */\n      add\n        /* \"#utility.yul\":1094:1147   */\n      tag_36\n      jump\t// in\n    tag_58:\n        /* \"#utility.yul\":1084:1147   */\n      swap2\n      pop\n        /* \"#utility.yul\":1039:1157   */\n      pop\n        /* \"#utility.yul\":690:1164   */\n      swap3\n      pop\n      swap3\n      swap1\n      pop\n      jump\t// out\n        /* \"#utility.yul\":1170:1288   */\n    tag_37:\n        /* \"#utility.yul\":1257:1281   */\n      tag_60\n        /* \"#utility.yul\":1275:1280   */\n      dup2\n        /* \"#utility.yul\":1257:1281   */\n      tag_34\n      jump\t// in\n    tag_60:\n        /* \"#utility.yul\":1252:1255   */\n      dup3\n        /* \"#utility.yul\":1245:1282   */\n      mstore\n        /* \"#utility.yul\":1170:1288   */\n      pop\n      pop\n      jump\t// out\n        /* \"#utility.yul\":1294:1516   */\n    tag_10:\n        /* \"#utility.yul\":1387:1391   */\n      0x00\n        /* \"#utility.yul\":1425:1427   */\n      0x20\n        /* \"#utility.yul\":1414:1423   */\n      dup3\n        /* \"#utility.yul\":1410:1428   */\n      add\n        /* \"#utility.yul\":1402:1428   */\n      swap1\n      pop\n        /* \"#utility.yul\":1438:1509   */\n      tag_62\n        /* \"#utility.yul\":1506:1507   */\n      0x00\n        /* \"#utility.yul\":1495:1504   */\n      dup4\n        /* \"#utility.yul\":1491:1508   */\n      add\n        /* \"#utility.yul\":1482:1488   */\n      dup5\n        /* \"#utility.yul\":1438:1509   */\n      tag_37\n      jump\t// in\n    tag_62:\n        /* \"#utility.yul\":1294:1516   */\n      swap3\n      swap2\n      pop\n      pop\n      jump\t// out\n        /* \"#utility.yul\":1522:1648   */\n    tag_38:\n        /* \"#utility.yul\":1617:1641   */\n      tag_64\n        /* \"#utility.yul\":1635:1640   */\n      dup2\n        /* \"#utility.yul\":1617:1641   */\n      tag_34\n      jump\t// in\n    tag_64:\n        /* \"#utility.yul\":1612:1615   */\n      dup3\n        /* \"#utility.yul\":1605:1642   */\n      mstore\n        /* \"#utility.yul\":1522:1648   */\n      pop\n      pop\n      jump\t// out\n        /* \"#utility.yul\":1654:2010   */\n    tag_17:\n        /* \"#utility.yul\":1783:1787   */\n      0x00\n        /* \"#utility.yul\":1821:1823   */\n      0x40\n        /* \"#utility.yul\":1810:1819   */\n      dup3\n        /* \"#utility.yul\":1806:1824   */\n      add\n        /* \"#utility.yul\":1798:1824   */\n      swap1\n      pop\n        /* \"#utility.yul\":1834:1913   */\n      tag_66\n        /* \"#utility.yul\":1910:1911   */\n      0x00\n        /* \"#utility.yul\":1899:1908   */\n      dup4\n        /* \"#utility.yul\":1895:1912   */\n      add\n        /* \"#utility.yul\":1886:1892   */\n      dup6\n        /* \"#utility.yul\":1834:1913   */\n      tag_38\n      jump\t// in\n    tag_66:\n        /* \"#utility.yul\":1923:2003   */\n      tag_67\n        /* \"#utility.yul\":1999:2001   */\n      0x20\n        /* \"#utility.yul\":1988:1997   */\n      dup4\n        /* \"#utility.yul\":1984:2002   */\n      add\n        /* \"#utility.yul\":1975:1981   */\n      dup5\n        /* \"#utility.yul\":1923:2003   */\n      tag_38\n      jump\t// in\n    tag_67:\n        /* \"#utility.yul\":1654:2010   */\n      swap4\n      swap3\n      pop\n      pop\n      pop\n      jump\t// out\n        /* \"#utility.yul\":2016:2159   */\n    tag_39:\n        /* \"#utility.yul\":2073:2078   */\n      0x00\n        /* \"#utility.yul\":2104:2110   */\n      dup2\n        /* \"#utility.yul\":2098:2111   */\n      mload\n        /* \"#utility.yul\":2089:2111   */\n      swap1\n      pop\n        /* \"#utility.yul\":2120:2153   */\n      tag_69\n        /* \"#utility.yul\":2147:2152   */\n      dup2\n        /* \"#utility.yul\":2120:2153   */\n      tag_35\n      jump\t// in\n    tag_69:\n        /* \"#utility.yul\":2016:2159   */\n      swap3\n      swap2\n      pop\n      pop\n      jump\t// out\n        /* \"#utility.yul\":2165:2516   */\n    tag_21:\n        /* \"#utility.yul\":2235:2241   */\n      0x00\n        /* \"#utility.yul\":2284:2286   */\n      0x20\n        /* \"#utility.yul\":2272:2281   */\n      dup3\n        /* \"#utility.yul\":2263:2270   */\n      dup5\n        /* \"#utility.yul\":2259:2282   */\n      sub\n        /* \"#utility.yul\":2255:2287   */\n      slt\n        /* \"#utility.yul\":2252:2371   */\n      iszero\n      tag_71\n      jumpi\n        /* \"#utility.yul\":2290:2369   */\n      tag_72\n      tag_32\n      jump\t// in\n    tag_72:\n        /* \"#utility.yul\":2252:2371   */\n    tag_71:\n        /* \"#utility.yul\":2410:2411   */\n      0x00\n        /* \"#utility.yul\":2435:2499   */\n      tag_73\n        /* \"#utility.yul\":2491:2498   */\n      dup5\n        /* \"#utility.yul\":2482:2488   */\n      dup3\n        /* \"#utility.yul\":2471:2480   */\n      dup6\n        /* \"#utility.yul\":2467:2489   */\n      add\n        /* \"#utility.yul\":2435:2499   */\n      tag_39\n      jump\t// in\n    tag_73:\n        /* \"#utility.yul\":2425:2499   */\n      swap2\n      pop\n        /* \"#utility.yul\":2381:2509   */\n      pop\n        /* \"#utility.yul\":2165:2516   */\n      swap3\n      swap2\n      pop\n      pop\n      jump\t// out\n        /* \"#utility.yul\":2522:2702   */\n    tag_40:\n        /* \"#utility.yul\":2570:2647   */\n      0x4e487b7100000000000000000000000000000000000000000000000000000000\n        /* \"#utility.yul\":2567:2568   */\n      0x00\n        /* \"#utility.yul\":2560:2648   */\n      mstore\n        /* \"#utility.yul\":2667:2671   */\n      0x11\n        /* \"#utility.yul\":2664:2665   */\n      0x04\n        /* \"#utility.yul\":2657:2672   */\n      mstore\n        /* \"#utility.yul\":2691:2695   */\n      0x24\n        /* \"#utility.yul\":2688:2689   */\n      0x00\n        /* \"#utility.yul\":2681:2696   */\n      revert\n        /* \"#utility.yul\":2708:2899   */\n    tag_27:\n        /* \"#utility.yul\":2748:2751   */\n      0x00\n        /* \"#utility.yul\":2767:2787   */\n      tag_76\n        /* \"#utility.yul\":2785:2786   */\n      dup3\n        /* \"#utility.yul\":2767:2787   */\n      tag_34\n      jump\t// in\n    tag_76:\n        /* \"#utility.yul\":2762:2787   */\n      swap2\n      pop\n        /* \"#utility.yul\":2801:2821   */\n      tag_77\n        /* \"#utility.yul\":2819:2820   */\n      dup4\n        /* \"#utility.yul\":2801:2821   */\n      tag_34\n      jump\t// in\n    tag_77:\n        /* \"#utility.yul\":2796:2821   */\n      swap3\n      pop\n        /* \"#utility.yul\":2844:2845   */\n      dup3\n        /* \"#utility.yul\":2841:2842   */\n      dup3\n        /* \"#utility.yul\":2837:2846   */\n      add\n        /* \"#utility.yul\":2830:2846   */\n      swap1\n      pop\n        /* \"#utility.yul\":2865:2868   */\n      dup1\n        /* \"#utility.yul\":2862:2863   */\n      dup3\n        /* \"#utility.yul\":2859:2869   */\n      gt\n        /* \"#utility.yul\":2856:2892   */\n      iszero\n      tag_78\n      jumpi\n        /* \"#utility.yul\":2872:2890   */\n      tag_79\n      tag_40\n      jump\t// in\n    tag_79:\n        /* \"#utility.yul\":2856:2892   */\n    tag_78:\n        /* \"#utility.yul\":2708:2899   */\n      swap3\n      swap2\n      pop\n      pop\n      jump\t// out\n        /* \"#utility.yul\":2905:3074   */\n    tag_41:\n        /* \"#utility.yul\":2989:3000   */\n      0x00\n        /* \"#utility.yul\":3023:3029   */\n      dup3\n        /* \"#utility.yul\":3018:3021   */\n      dup3\n        /* \"#utility.yul\":3011:3030   */\n      mstore\n        /* \"#utility.yul\":3063:3067   */\n      0x20\n        /* \"#utility.yul\":3058:3061   */\n      dup3\n        /* \"#utility.yul\":3054:3068   */\n      add\n        /* \"#utility.yul\":3039:3068   */\n      swap1\n      pop\n        /* \"#utility.yul\":2905:3074   */\n      swap3\n      swap2\n      pop\n      pop\n      jump\t// out\n        /* \"#utility.yul\":3080:3257   */\n    tag_42:\n        /* \"#utility.yul\":3220:3249   */\n      0x536166654d6174683a206164646974696f6e206f766572666c6f770000000000\n        /* \"#utility.yul\":3216:3217   */\n      0x00\n        /* \"#utility.yul\":3208:3214   */\n      dup3\n        /* \"#utility.yul\":3204:3218   */\n      add\n        /* \"#utility.yul\":3197:3250   */\n      mstore\n        /* \"#utility.yul\":3080:3257   */\n      pop\n      jump\t// out\n        /* \"#utility.yul\":3263:3629   */\n    tag_43:\n        /* \"#utility.yul\":3405:3408   */\n      0x00\n        /* \"#utility.yul\":3426:3493   */\n      tag_83\n        /* \"#utility.yul\":3490:3492   */\n      0x1b\n        /* \"#utility.yul\":3485:3488   */\n      dup4\n        /* \"#utility.yul\":3426:3493   */\n      tag_41\n      jump\t// in\n    tag_83:\n        /* \"#utility.yul\":3419:3493   */\n      swap2\n      pop\n        /* \"#utility.yul\":3502:3595   */\n      tag_84\n        /* \"#utility.yul\":3591:3594   */\n      dup3\n        /* \"#utility.yul\":3502:3595   */\n      tag_42\n      jump\t// in\n    tag_84:\n        /* \"#utility.yul\":3620:3622   */\n      0x20\n        /* \"#utility.yul\":3615:3618   */\n      dup3\n        /* \"#utility.yul\":3611:3623   */\n      add\n        /* \"#utility.yul\":3604:3623   */\n      swap1\n      pop\n        /* \"#utility.yul\":3263:3629   */\n      swap2\n      swap1\n      pop\n      jump\t// out\n        /* \"#utility.yul\":3635:4054   */\n    tag_30:\n        /* \"#utility.yul\":3801:3805   */\n      0x00\n        /* \"#utility.yul\":3839:3841   */\n      0x20\n        /* \"#utility.yul\":3828:3837   */\n      dup3\n        /* \"#utility.yul\":3824:3842   */\n      add\n        /* \"#utility.yul\":3816:3842   */\n      swap1\n      pop\n        /* \"#utility.yul\":3888:3897   */\n      dup2\n        /* \"#utility.yul\":3882:3886   */\n      dup2\n        /* \"#utility.yul\":3878:3898   */\n      sub\n        /* \"#utility.yul\":3874:3875   */\n      0x00\n        /* \"#utility.yul\":3863:3872   */\n      dup4\n        /* \"#utility.yul\":3859:3876   */\n      add\n        /* \"#utility.yul\":3852:3899   */\n      mstore\n        /* \"#utility.yul\":3916:4047   */\n      tag_86\n        /* \"#utility.yul\":4042:4046   */\n      dup2\n        /* \"#utility.yul\":3916:4047   */\n      tag_43\n      jump\t// in\n    tag_86:\n        /* \"#utility.yul\":3908:4047   */\n      swap1\n      pop\n        /* \"#utility.yul\":3635:4054   */\n      swap2\n      swap1\n      pop\n      jump\t// out\n\n    auxdata: 0xa264697066735822122006322314e4f43d4e1b6e17710404aa29ec969ac7eaf43394ee4245112f2cefcb64736f6c634300081a0033\n}\n",
				"bytecode": {
					"linkReferences": {
						"contracts/02/Library.sol": {
							"SafeMath": [
								{
									"length": 20,
									"start": 183
								}
							]
						}
					},
					"object": "6080604052348015600e575f80fd5b506103ae8061001c5f395ff3fe608060405234801561000f575f80fd5b5060043610610034575f3560e01c806329fcda3314610038578063ef9fc50b14610068575b5f80fd5b610052600480360381019061004d91906101c5565b610098565b60405161005f9190610212565b60405180910390f35b610082600480360381019061007d91906101c5565b610119565b60405161008f9190610212565b60405180910390f35b5f73__$4bc28cafa23dc7d528c79c77420af2e9b6$__6329fcda3384846040518363ffffffff1660e01b81526004016100d292919061023a565b602060405180830381865af41580156100ed573d5f803e3d5ffd5b505050506040513d601f19601f820116820180604052508101906101119190610275565b905092915050565b5f806101258484610131565b90508091505092915050565b5f80828461013f91906102cd565b905083811015610184576040517f08c379a000000000000000000000000000000000000000000000000000000000815260040161017b9061035a565b60405180910390fd5b8091505092915050565b5f80fd5b5f819050919050565b6101a481610192565b81146101ae575f80fd5b50565b5f813590506101bf8161019b565b92915050565b5f80604083850312156101db576101da61018e565b5b5f6101e8858286016101b1565b92505060206101f9858286016101b1565b9150509250929050565b61020c81610192565b82525050565b5f6020820190506102255f830184610203565b92915050565b61023481610192565b82525050565b5f60408201905061024d5f83018561022b565b61025a602083018461022b565b9392505050565b5f8151905061026f8161019b565b92915050565b5f6020828403121561028a5761028961018e565b5b5f61029784828501610261565b91505092915050565b7f4e487b71000000000000000000000000000000000000000000000000000000005f52601160045260245ffd5b5f6102d782610192565b91506102e283610192565b92508282019050808211156102fa576102f96102a0565b5b92915050565b5f82825260208201905092915050565b7f536166654d6174683a206164646974696f6e206f766572666c6f7700000000005f82015250565b5f610344601b83610300565b915061034f82610310565b602082019050919050565b5f6020820190508181035f83015261037181610338565b905091905056fea264697066735822122006322314e4f43d4e1b6e17710404aa29ec969ac7eaf43394ee4245112f2cefcb64736f6c634300081a0033",
					"opcodes": "PUSH1 0x80 PUSH1 0x40 MSTORE CALLVALUE DUP1 ISZERO PUSH1 0xE JUMPI PUSH0 DUP1 REVERT JUMPDEST POP PUSH2 0x3AE DUP1 PUSH2 0x1C PUSH0 CODECOPY PUSH0 RETURN INVALID PUSH1 0x80 PUSH1 0x40 MSTORE CALLVALUE DUP1 ISZERO PUSH2 0xF JUMPI PUSH0 DUP1 REVERT JUMPDEST POP PUSH1 0x4 CALLDATASIZE LT PUSH2 0x34 JUMPI PUSH0 CALLDATALOAD PUSH1 0xE0 SHR DUP1 PUSH4 0x29FCDA33 EQ PUSH2 0x38 JUMPI DUP1 PUSH4 0xEF9FC50B EQ PUSH2 0x68 JUMPI JUMPDEST PUSH0 DUP1 REVERT JUMPDEST PUSH2 0x52 PUSH1 0x4 DUP1 CALLDATASIZE SUB DUP2 ADD SWAP1 PUSH2 0x4D SWAP2 SWAP1 PUSH2 0x1C5 JUMP JUMPDEST PUSH2 0x98 JUMP JUMPDEST PUSH1 0x40 MLOAD PUSH2 0x5F SWAP2 SWAP1 PUSH2 0x212 JUMP JUMPDEST PUSH1 0x40 MLOAD DUP1 SWAP2 SUB SWAP1 RETURN JUMPDEST PUSH2 0x82 PUSH1 0x4 DUP1 CALLDATASIZE SUB DUP2 ADD SWAP1 PUSH2 0x7D SWAP2 SWAP1 PUSH2 0x1C5 JUMP JUMPDEST PUSH2 0x119 JUMP JUMPDEST PUSH1 0x40 MLOAD PUSH2 0x8F SWAP2 SWAP1 PUSH2 0x212 JUMP JUMPDEST PUSH1 0x40 MLOAD DUP1 SWAP2 SUB SWAP1 RETURN JUMPDEST PUSH0 PUSH20 0x0 PUSH4 0x29FCDA33 DUP5 DUP5 PUSH1 0x40 MLOAD DUP4 PUSH4 0xFFFFFFFF AND PUSH1 0xE0 SHL DUP2 MSTORE PUSH1 0x4 ADD PUSH2 0xD2 SWAP3 SWAP2 SWAP1 PUSH2 0x23A JUMP JUMPDEST PUSH1 0x20 PUSH1 0x40 MLOAD DUP1 DUP4 SUB DUP2 DUP7 GAS DELEGATECALL ISZERO DUP1 ISZERO PUSH2 0xED JUMPI RETURNDATASIZE PUSH0 DUP1 RETURNDATACOPY RETURNDATASIZE PUSH0 REVERT JUMPDEST POP POP POP POP PUSH1 0x40 MLOAD RETURNDATASIZE PUSH1 0x1F NOT PUSH1 0x1F DUP3 ADD AND DUP3 ADD DUP1 PUSH1 0x40 MSTORE POP DUP2 ADD SWAP1 PUSH2 0x111 SWAP2 SWAP1 PUSH2 0x275 JUMP JUMPDEST SWAP1 POP SWAP3 SWAP2 POP POP JUMP JUMPDEST PUSH0 DUP1 PUSH2 0x125 DUP5 DUP5 PUSH2 0x131 JUMP JUMPDEST SWAP1 POP DUP1 SWAP2 POP POP SWAP3 SWAP2 POP POP JUMP JUMPDEST PUSH0 DUP1 DUP3 DUP5 PUSH2 0x13F SWAP2 SWAP1 PUSH2 0x2CD JUMP JUMPDEST SWAP1 POP DUP4 DUP2 LT ISZERO PUSH2 0x184 JUMPI PUSH1 0x40 MLOAD PUSH32 0x8C379A000000000000000000000000000000000000000000000000000000000 DUP2 MSTORE PUSH1 0x4 ADD PUSH2 0x17B SWAP1 PUSH2 0x35A JUMP JUMPDEST PUSH1 0x40 MLOAD DUP1 SWAP2 SUB SWAP1 REVERT JUMPDEST DUP1 SWAP2 POP POP SWAP3 SWAP2 POP POP JUMP JUMPDEST PUSH0 DUP1 REVERT JUMPDEST PUSH0 DUP2 SWAP1 POP SWAP2 SWAP1 POP JUMP JUMPDEST PUSH2 0x1A4 DUP2 PUSH2 0x192 JUMP JUMPDEST DUP2 EQ PUSH2 0x1AE JUMPI PUSH0 DUP1 REVERT JUMPDEST POP JUMP JUMPDEST PUSH0 DUP2 CALLDATALOAD SWAP1 POP PUSH2 0x1BF DUP2 PUSH2 0x19B JUMP JUMPDEST SWAP3 SWAP2 POP POP JUMP JUMPDEST PUSH0 DUP1 PUSH1 0x40 DUP4 DUP6 SUB SLT ISZERO PUSH2 0x1DB JUMPI PUSH2 0x1DA PUSH2 0x18E JUMP JUMPDEST JUMPDEST PUSH0 PUSH2 0x1E8 DUP6 DUP3 DUP7 ADD PUSH2 0x1B1 JUMP JUMPDEST SWAP3 POP POP PUSH1 0x20 PUSH2 0x1F9 DUP6 DUP3 DUP7 ADD PUSH2 0x1B1 JUMP JUMPDEST SWAP2 POP POP SWAP3 POP SWAP3 SWAP1 POP JUMP JUMPDEST PUSH2 0x20C DUP2 PUSH2 0x192 JUMP JUMPDEST DUP3 MSTORE POP POP JUMP JUMPDEST PUSH0 PUSH1 0x20 DUP3 ADD SWAP1 POP PUSH2 0x225 PUSH0 DUP4 ADD DUP5 PUSH2 0x203 JUMP JUMPDEST SWAP3 SWAP2 POP POP JUMP JUMPDEST PUSH2 0x234 DUP2 PUSH2 0x192 JUMP JUMPDEST DUP3 MSTORE POP POP JUMP JUMPDEST PUSH0 PUSH1 0x40 DUP3 ADD SWAP1 POP PUSH2 0x24D PUSH0 DUP4 ADD DUP6 PUSH2 0x22B JUMP JUMPDEST PUSH2 0x25A PUSH1 0x20 DUP4 ADD DUP5 PUSH2 0x22B JUMP JUMPDEST SWAP4 SWAP3 POP POP POP JUMP JUMPDEST PUSH0 DUP2 MLOAD SWAP1 POP PUSH2 0x26F DUP2 PUSH2 0x19B JUMP JUMPDEST SWAP3 SWAP2 POP POP JUMP JUMPDEST PUSH0 PUSH1 0x20 DUP3 DUP5 SUB SLT ISZERO PUSH2 0x28A JUMPI PUSH2 0x289 PUSH2 0x18E JUMP JUMPDEST JUMPDEST PUSH0 PUSH2 0x297 DUP5 DUP3 DUP6 ADD PUSH2 0x261 JUMP JUMPDEST SWAP2 POP POP SWAP3 SWAP2 POP POP JUMP JUMPDEST PUSH32 0x4E487B7100000000000000000000000000000000000000000000000000000000 PUSH0 MSTORE PUSH1 0x11 PUSH1 0x4 MSTORE PUSH1 0x24 PUSH0 REVERT JUMPDEST PUSH0 PUSH2 0x2D7 DUP3 PUSH2 0x192 JUMP JUMPDEST SWAP2 POP PUSH2 0x2E2 DUP4 PUSH2 0x192 JUMP JUMPDEST SWAP3 POP DUP3 DUP3 ADD SWAP1 POP DUP1 DUP3 GT ISZERO PUSH2 0x2FA JUMPI PUSH2 0x2F9 PUSH2 0x2A0 JUMP JUMPDEST JUMPDEST SWAP3 SWAP2 POP POP JUMP JUMPDEST PUSH0 DUP3 DUP3 MSTORE PUSH1 0x20 DUP3 ADD SWAP1 POP SWAP3 SWAP2 POP POP JUMP JUMPDEST PUSH32 0x536166654D6174683A206164646974696F6E206F766572666C6F770000000000 PUSH0 DUP3 ADD MSTORE POP JUMP JUMPDEST PUSH0 PUSH2 0x344 PUSH1 0x1B DUP4 PUSH2 0x300 JUMP JUMPDEST SWAP2 POP PUSH2 0x34F DUP3 PUSH2 0x310 JUMP JUMPDEST PUSH1 0x20 DUP3 ADD SWAP1 POP SWAP2 SWAP1 POP JUMP JUMPDEST PUSH0 PUSH1 0x20 DUP3 ADD SWAP1 POP DUP2 DUP2 SUB PUSH0 DUP4 ADD MSTORE PUSH2 0x371 DUP2 PUSH2 0x338 JUMP JUMPDEST SWAP1 POP SWAP2 SWAP1 POP JUMP INVALID LOG2 PUSH5 0x6970667358 0x22 SLT KECCAK256 MOD ORIGIN 0x23 EQ 0xE4 DELEGATECALL RETURNDATASIZE 0x4E SHL PUSH15 0x17710404AA29EC969AC7EAF43394EE TIMESTAMP GASLIMIT GT 0x2F 0x2C 0xEF 0xCB PUSH5 0x736F6C6343 STOP ADDMOD BYTE STOP CALLER "
				},
				"gasEstimates": {
					"creation": {
						"codeDepositCost": "188400",
						"executionCost": "230",
						"totalCost": "188630"
					},
					"external": {
						"add2(uint256,uint256)": "infinite",
						"addNumbers(uint256,uint256)": "infinite"
					}
				},
				"methodIdentifiers": {
					"add2(uint256,uint256)": "29fcda33",
					"addNumbers(uint256,uint256)": "ef9fc50b"
				}
			},
			"storageLayout": {
				"storage": [],
				"types": null
			},
			"userdoc": {
				"kind": "user",
				"methods": {},
				"version": 1
			}
		}
	}
}