{
	"contracts/02/LibrarySearch.sol": {
		"Search": {
			"abi": [
				{
					"inputs": [
						{
							"internalType": "string[]",
							"name": "keyword",
							"type": "string[]"
						},
						{
							"internalType": "string",
							"name": "value",
							"type": "string"
						}
					],
					"name": "indexOf",
					"outputs": [
						{
							"internalType": "uint256",
							"name": "",
							"type": "uint256"
						}
					],
					"stateMutability": "pure",
					"type": "function"
				}
			],
			"devdoc": {
				"kind": "dev",
				"methods": {},
				"version": 1
			},
			"evm": {
				"assembly": "    /* \"contracts/02/LibrarySearch.sol\":57:420  library Search {... */\n  dataSize(sub_0)\n  dataOffset(sub_0)\n  0x0b\n  dup3\n  dup3\n  dup3\n  codecopy\n  dup1\n  mload\n  0x00\n  byte\n  0x73\n  eq\n  tag_1\n  jumpi\n  mstore(0x00, 0x4e487b7100000000000000000000000000000000000000000000000000000000)\n  mstore(0x04, 0x00)\n  revert(0x00, 0x24)\ntag_1:\n  mstore(0x00, address)\n  0x73\n  dup2\n  mstore8\n  dup3\n  dup2\n  return\nstop\n\nsub_0: assembly {\n        /* \"contracts/02/LibrarySearch.sol\":57:420  library Search {... */\n      eq(address, deployTimeAddress())\n      mstore(0x40, 0x80)\n      jumpi(tag_1, lt(calldatasize, 0x04))\n      shr(0xe0, calldataload(0x00))\n      dup1\n      0x1b4e5b94\n      eq\n      tag_2\n      jumpi\n    tag_1:\n      0x00\n      dup1\n      revert\n        /* \"contracts/02/LibrarySearch.sol\":78:418  function indexOf(string[] memory keyword, string memory value) public pure returns(uint) {... */\n    tag_2:\n      tag_3\n      0x04\n      dup1\n      calldatasize\n      sub\n      dup2\n      add\n      swap1\n      tag_4\n      swap2\n      swap1\n      tag_5\n      jump\t// in\n    tag_4:\n      tag_6\n      jump\t// in\n    tag_3:\n      mload(0x40)\n      tag_7\n      swap2\n      swap1\n      tag_8\n      jump\t// in\n    tag_7:\n      mload(0x40)\n      dup1\n      swap2\n      sub\n      swap1\n      return\n    tag_6:\n        /* \"contracts/02/LibrarySearch.sol\":161:165  uint */\n      0x00\n        /* \"contracts/02/LibrarySearch.sol\":183:189  uint i */\n      dup1\n        /* \"contracts/02/LibrarySearch.sol\":192:193  1 */\n      0x01\n        /* \"contracts/02/LibrarySearch.sol\":183:193  uint i = 1 */\n      swap1\n      pop\n        /* \"contracts/02/LibrarySearch.sol\":178:372  for (uint i = 1; i < keyword.length + 1; i++) {... */\n    tag_10:\n        /* \"contracts/02/LibrarySearch.sol\":216:217  1 */\n      0x01\n        /* \"contracts/02/LibrarySearch.sol\":199:206  keyword */\n      dup5\n        /* \"contracts/02/LibrarySearch.sol\":199:213  keyword.length */\n      mload\n        /* \"contracts/02/LibrarySearch.sol\":199:217  keyword.length + 1 */\n      tag_13\n      swap2\n      swap1\n      tag_14\n      jump\t// in\n    tag_13:\n        /* \"contracts/02/LibrarySearch.sol\":195:196  i */\n      dup2\n        /* \"contracts/02/LibrarySearch.sol\":195:217  i < keyword.length + 1 */\n      lt\n        /* \"contracts/02/LibrarySearch.sol\":178:372  for (uint i = 1; i < keyword.length + 1; i++) {... */\n      iszero\n      tag_11\n      jumpi\n        /* \"contracts/02/LibrarySearch.sol\":312:317  value */\n      dup3\n        /* \"contracts/02/LibrarySearch.sol\":295:318  abi.encodePacked(value) */\n      add(0x20, mload(0x40))\n      tag_15\n      swap2\n      swap1\n      tag_16\n      jump\t// in\n    tag_15:\n      mload(0x40)\n      0x20\n      dup2\n      dup4\n      sub\n      sub\n      dup2\n      mstore\n      swap1\n      0x40\n      mstore\n        /* \"contracts/02/LibrarySearch.sol\":285:319  keccak256(abi.encodePacked(value)) */\n      dup1\n      mload\n      swap1\n      0x20\n      add\n      keccak256\n        /* \"contracts/02/LibrarySearch.sol\":269:276  keyword */\n      dup5\n        /* \"contracts/02/LibrarySearch.sol\":277:278  i */\n      dup3\n        /* \"contracts/02/LibrarySearch.sol\":269:279  keyword[i] */\n      dup2\n      mload\n      dup2\n      lt\n      tag_17\n      jumpi\n      tag_18\n      tag_19\n      jump\t// in\n    tag_18:\n    tag_17:\n      0x20\n      mul\n      0x20\n      add\n      add\n      mload\n        /* \"contracts/02/LibrarySearch.sol\":252:280  abi.encodePacked(keyword[i]) */\n      add(0x20, mload(0x40))\n      tag_20\n      swap2\n      swap1\n      tag_16\n      jump\t// in\n    tag_20:\n      mload(0x40)\n      0x20\n      dup2\n      dup4\n      sub\n      sub\n      dup2\n      mstore\n      swap1\n      0x40\n      mstore\n        /* \"contracts/02/LibrarySearch.sol\":242:281  keccak256(abi.encodePacked(keyword[i])) */\n      dup1\n      mload\n      swap1\n      0x20\n      add\n      keccak256\n        /* \"contracts/02/LibrarySearch.sol\":242:319  keccak256(abi.encodePacked(keyword[i])) == keccak256(abi.encodePacked(value)) */\n      sub\n        /* \"contracts/02/LibrarySearch.sol\":238:362  if (keccak256(abi.encodePacked(keyword[i])) == keccak256(abi.encodePacked(value))) {... */\n      tag_21\n      jumpi\n        /* \"contracts/02/LibrarySearch.sol\":346:347  i */\n      dup1\n        /* \"contracts/02/LibrarySearch.sol\":339:347  return i */\n      swap2\n      pop\n      pop\n      jump(tag_9)\n        /* \"contracts/02/LibrarySearch.sol\":238:362  if (keccak256(abi.encodePacked(keyword[i])) == keccak256(abi.encodePacked(value))) {... */\n    tag_21:\n        /* \"contracts/02/LibrarySearch.sol\":219:222  i++ */\n      dup1\n      dup1\n      0x01\n      add\n      swap2\n      pop\n      pop\n        /* \"contracts/02/LibrarySearch.sol\":178:372  for (uint i = 1; i < keyword.length + 1; i++) {... */\n      jump(tag_10)\n    tag_11:\n      pop\n        /* \"contracts/02/LibrarySearch.sol\":388:389  0 */\n      0x00\n        /* \"contracts/02/LibrarySearch.sol\":381:389  return 0 */\n      swap1\n      pop\n        /* \"contracts/02/LibrarySearch.sol\":78:418  function indexOf(string[] memory keyword, string memory value) public pure returns(uint) {... */\n    tag_9:\n      swap3\n      swap2\n      pop\n      pop\n      jump\t// out\n        /* \"#utility.yul\":7:82   */\n    tag_22:\n        /* \"#utility.yul\":40:46   */\n      0x00\n        /* \"#utility.yul\":73:75   */\n      0x40\n        /* \"#utility.yul\":67:76   */\n      mload\n        /* \"#utility.yul\":57:76   */\n      swap1\n      pop\n        /* \"#utility.yul\":7:82   */\n      swap1\n      jump\t// out\n        /* \"#utility.yul\":88:205   */\n    tag_23:\n        /* \"#utility.yul\":197:198   */\n      0x00\n        /* \"#utility.yul\":194:195   */\n      dup1\n        /* \"#utility.yul\":187:199   */\n      revert\n        /* \"#utility.yul\":211:328   */\n    tag_24:\n        /* \"#utility.yul\":320:321   */\n      0x00\n        /* \"#utility.yul\":317:318   */\n      dup1\n        /* \"#utility.yul\":310:322   */\n      revert\n        /* \"#utility.yul\":334:451   */\n    tag_25:\n        /* \"#utility.yul\":443:444   */\n      0x00\n        /* \"#utility.yul\":440:441   */\n      dup1\n        /* \"#utility.yul\":433:445   */\n      revert\n        /* \"#utility.yul\":457:559   */\n    tag_26:\n        /* \"#utility.yul\":498:504   */\n      0x00\n        /* \"#utility.yul\":549:551   */\n      0x1f\n        /* \"#utility.yul\":545:552   */\n      not\n        /* \"#utility.yul\":540:542   */\n      0x1f\n        /* \"#utility.yul\":533:538   */\n      dup4\n        /* \"#utility.yul\":529:543   */\n      add\n        /* \"#utility.yul\":525:553   */\n      and\n        /* \"#utility.yul\":515:553   */\n      swap1\n      pop\n        /* \"#utility.yul\":457:559   */\n      swap2\n      swap1\n      pop\n      jump\t// out\n        /* \"#utility.yul\":565:745   */\n    tag_27:\n        /* \"#utility.yul\":613:690   */\n      0x4e487b7100000000000000000000000000000000000000000000000000000000\n        /* \"#utility.yul\":610:611   */\n      0x00\n        /* \"#utility.yul\":603:691   */\n      mstore\n        /* \"#utility.yul\":710:714   */\n      0x41\n        /* \"#utility.yul\":707:708   */\n      0x04\n        /* \"#utility.yul\":700:715   */\n      mstore\n        /* \"#utility.yul\":734:738   */\n      0x24\n        /* \"#utility.yul\":731:732   */\n      0x00\n        /* \"#utility.yul\":724:739   */\n      revert\n        /* \"#utility.yul\":751:1032   */\n    tag_28:\n        /* \"#utility.yul\":834:861   */\n      tag_54\n        /* \"#utility.yul\":856:860   */\n      dup3\n        /* \"#utility.yul\":834:861   */\n      tag_26\n      jump\t// in\n    tag_54:\n        /* \"#utility.yul\":826:832   */\n      dup2\n        /* \"#utility.yul\":822:862   */\n      add\n        /* \"#utility.yul\":964:970   */\n      dup2\n        /* \"#utility.yul\":952:962   */\n      dup2\n        /* \"#utility.yul\":949:971   */\n      lt\n        /* \"#utility.yul\":928:946   */\n      0xffffffffffffffff\n        /* \"#utility.yul\":916:926   */\n      dup3\n        /* \"#utility.yul\":913:947   */\n      gt\n        /* \"#utility.yul\":910:972   */\n      or\n        /* \"#utility.yul\":907:995   */\n      iszero\n      tag_55\n      jumpi\n        /* \"#utility.yul\":975:993   */\n      tag_56\n      tag_27\n      jump\t// in\n    tag_56:\n        /* \"#utility.yul\":907:995   */\n    tag_55:\n        /* \"#utility.yul\":1015:1025   */\n      dup1\n        /* \"#utility.yul\":1011:1013   */\n      0x40\n        /* \"#utility.yul\":1004:1026   */\n      mstore\n        /* \"#utility.yul\":794:1032   */\n      pop\n        /* \"#utility.yul\":751:1032   */\n      pop\n      pop\n      jump\t// out\n        /* \"#utility.yul\":1038:1167   */\n    tag_29:\n        /* \"#utility.yul\":1072:1078   */\n      0x00\n        /* \"#utility.yul\":1099:1119   */\n      tag_58\n      tag_22\n      jump\t// in\n    tag_58:\n        /* \"#utility.yul\":1089:1119   */\n      swap1\n      pop\n        /* \"#utility.yul\":1128:1161   */\n      tag_59\n        /* \"#utility.yul\":1156:1160   */\n      dup3\n        /* \"#utility.yul\":1148:1154   */\n      dup3\n        /* \"#utility.yul\":1128:1161   */\n      tag_28\n      jump\t// in\n    tag_59:\n        /* \"#utility.yul\":1038:1167   */\n      swap2\n      swap1\n      pop\n      jump\t// out\n        /* \"#utility.yul\":1173:1494   */\n    tag_30:\n        /* \"#utility.yul\":1260:1264   */\n      0x00\n        /* \"#utility.yul\":1350:1368   */\n      0xffffffffffffffff\n        /* \"#utility.yul\":1342:1348   */\n      dup3\n        /* \"#utility.yul\":1339:1369   */\n      gt\n        /* \"#utility.yul\":1336:1392   */\n      iszero\n      tag_61\n      jumpi\n        /* \"#utility.yul\":1372:1390   */\n      tag_62\n      tag_27\n      jump\t// in\n    tag_62:\n        /* \"#utility.yul\":1336:1392   */\n    tag_61:\n        /* \"#utility.yul\":1422:1426   */\n      0x20\n        /* \"#utility.yul\":1414:1420   */\n      dup3\n        /* \"#utility.yul\":1410:1427   */\n      mul\n        /* \"#utility.yul\":1402:1427   */\n      swap1\n      pop\n        /* \"#utility.yul\":1482:1486   */\n      0x20\n        /* \"#utility.yul\":1476:1480   */\n      dup2\n        /* \"#utility.yul\":1472:1487   */\n      add\n        /* \"#utility.yul\":1464:1487   */\n      swap1\n      pop\n        /* \"#utility.yul\":1173:1494   */\n      swap2\n      swap1\n      pop\n      jump\t// out\n        /* \"#utility.yul\":1500:1617   */\n    tag_31:\n        /* \"#utility.yul\":1609:1610   */\n      0x00\n        /* \"#utility.yul\":1606:1607   */\n      dup1\n        /* \"#utility.yul\":1599:1611   */\n      revert\n        /* \"#utility.yul\":1623:1740   */\n    tag_32:\n        /* \"#utility.yul\":1732:1733   */\n      0x00\n        /* \"#utility.yul\":1729:1730   */\n      dup1\n        /* \"#utility.yul\":1722:1734   */\n      revert\n        /* \"#utility.yul\":1746:2054   */\n    tag_33:\n        /* \"#utility.yul\":1808:1812   */\n      0x00\n        /* \"#utility.yul\":1898:1916   */\n      0xffffffffffffffff\n        /* \"#utility.yul\":1890:1896   */\n      dup3\n        /* \"#utility.yul\":1887:1917   */\n      gt\n        /* \"#utility.yul\":1884:1940   */\n      iszero\n      tag_66\n      jumpi\n        /* \"#utility.yul\":1920:1938   */\n      tag_67\n      tag_27\n      jump\t// in\n    tag_67:\n        /* \"#utility.yul\":1884:1940   */\n    tag_66:\n        /* \"#utility.yul\":1958:1987   */\n      tag_68\n        /* \"#utility.yul\":1980:1986   */\n      dup3\n        /* \"#utility.yul\":1958:1987   */\n      tag_26\n      jump\t// in\n    tag_68:\n        /* \"#utility.yul\":1950:1987   */\n      swap1\n      pop\n        /* \"#utility.yul\":2042:2046   */\n      0x20\n        /* \"#utility.yul\":2036:2040   */\n      dup2\n        /* \"#utility.yul\":2032:2047   */\n      add\n        /* \"#utility.yul\":2024:2047   */\n      swap1\n      pop\n        /* \"#utility.yul\":1746:2054   */\n      swap2\n      swap1\n      pop\n      jump\t// out\n        /* \"#utility.yul\":2060:2208   */\n    tag_34:\n        /* \"#utility.yul\":2158:2164   */\n      dup3\n        /* \"#utility.yul\":2153:2156   */\n      dup2\n        /* \"#utility.yul\":2148:2151   */\n      dup4\n        /* \"#utility.yul\":2135:2165   */\n      calldatacopy\n        /* \"#utility.yul\":2199:2200   */\n      0x00\n        /* \"#utility.yul\":2190:2196   */\n      dup4\n        /* \"#utility.yul\":2185:2188   */\n      dup4\n        /* \"#utility.yul\":2181:2197   */\n      add\n        /* \"#utility.yul\":2174:2201   */\n      mstore\n        /* \"#utility.yul\":2060:2208   */\n      pop\n      pop\n      pop\n      jump\t// out\n        /* \"#utility.yul\":2214:2639   */\n    tag_35:\n        /* \"#utility.yul\":2292:2297   */\n      0x00\n        /* \"#utility.yul\":2317:2383   */\n      tag_71\n        /* \"#utility.yul\":2333:2382   */\n      tag_72\n        /* \"#utility.yul\":2375:2381   */\n      dup5\n        /* \"#utility.yul\":2333:2382   */\n      tag_33\n      jump\t// in\n    tag_72:\n        /* \"#utility.yul\":2317:2383   */\n      tag_29\n      jump\t// in\n    tag_71:\n        /* \"#utility.yul\":2308:2383   */\n      swap1\n      pop\n        /* \"#utility.yul\":2406:2412   */\n      dup3\n        /* \"#utility.yul\":2399:2404   */\n      dup2\n        /* \"#utility.yul\":2392:2413   */\n      mstore\n        /* \"#utility.yul\":2444:2448   */\n      0x20\n        /* \"#utility.yul\":2437:2442   */\n      dup2\n        /* \"#utility.yul\":2433:2449   */\n      add\n        /* \"#utility.yul\":2482:2485   */\n      dup5\n        /* \"#utility.yul\":2473:2479   */\n      dup5\n        /* \"#utility.yul\":2468:2471   */\n      dup5\n        /* \"#utility.yul\":2464:2480   */\n      add\n        /* \"#utility.yul\":2461:2486   */\n      gt\n        /* \"#utility.yul\":2458:2570   */\n      iszero\n      tag_73\n      jumpi\n        /* \"#utility.yul\":2489:2568   */\n      tag_74\n      tag_32\n      jump\t// in\n    tag_74:\n        /* \"#utility.yul\":2458:2570   */\n    tag_73:\n        /* \"#utility.yul\":2579:2633   */\n      tag_75\n        /* \"#utility.yul\":2626:2632   */\n      dup5\n        /* \"#utility.yul\":2621:2624   */\n      dup3\n        /* \"#utility.yul\":2616:2619   */\n      dup6\n        /* \"#utility.yul\":2579:2633   */\n      tag_34\n      jump\t// in\n    tag_75:\n        /* \"#utility.yul\":2298:2639   */\n      pop\n        /* \"#utility.yul\":2214:2639   */\n      swap4\n      swap3\n      pop\n      pop\n      pop\n      jump\t// out\n        /* \"#utility.yul\":2659:2999   */\n    tag_36:\n        /* \"#utility.yul\":2715:2720   */\n      0x00\n        /* \"#utility.yul\":2764:2767   */\n      dup3\n        /* \"#utility.yul\":2757:2761   */\n      0x1f\n        /* \"#utility.yul\":2749:2755   */\n      dup4\n        /* \"#utility.yul\":2745:2762   */\n      add\n        /* \"#utility.yul\":2741:2768   */\n      slt\n        /* \"#utility.yul\":2731:2853   */\n      tag_77\n      jumpi\n        /* \"#utility.yul\":2772:2851   */\n      tag_78\n      tag_25\n      jump\t// in\n    tag_78:\n        /* \"#utility.yul\":2731:2853   */\n    tag_77:\n        /* \"#utility.yul\":2889:2895   */\n      dup2\n        /* \"#utility.yul\":2876:2896   */\n      calldataload\n        /* \"#utility.yul\":2914:2993   */\n      tag_79\n        /* \"#utility.yul\":2989:2992   */\n      dup5\n        /* \"#utility.yul\":2981:2987   */\n      dup3\n        /* \"#utility.yul\":2974:2978   */\n      0x20\n        /* \"#utility.yul\":2966:2972   */\n      dup7\n        /* \"#utility.yul\":2962:2979   */\n      add\n        /* \"#utility.yul\":2914:2993   */\n      tag_35\n      jump\t// in\n    tag_79:\n        /* \"#utility.yul\":2905:2993   */\n      swap2\n      pop\n        /* \"#utility.yul\":2721:2999   */\n      pop\n        /* \"#utility.yul\":2659:2999   */\n      swap3\n      swap2\n      pop\n      pop\n      jump\t// out\n        /* \"#utility.yul\":3021:3966   */\n    tag_37:\n        /* \"#utility.yul\":3127:3132   */\n      0x00\n        /* \"#utility.yul\":3152:3243   */\n      tag_81\n        /* \"#utility.yul\":3168:3242   */\n      tag_82\n        /* \"#utility.yul\":3235:3241   */\n      dup5\n        /* \"#utility.yul\":3168:3242   */\n      tag_30\n      jump\t// in\n    tag_82:\n        /* \"#utility.yul\":3152:3243   */\n      tag_29\n      jump\t// in\n    tag_81:\n        /* \"#utility.yul\":3143:3243   */\n      swap1\n      pop\n        /* \"#utility.yul\":3263:3268   */\n      dup1\n        /* \"#utility.yul\":3292:3298   */\n      dup4\n        /* \"#utility.yul\":3285:3290   */\n      dup3\n        /* \"#utility.yul\":3278:3299   */\n      mstore\n        /* \"#utility.yul\":3326:3330   */\n      0x20\n        /* \"#utility.yul\":3319:3324   */\n      dup3\n        /* \"#utility.yul\":3315:3331   */\n      add\n        /* \"#utility.yul\":3308:3331   */\n      swap1\n      pop\n        /* \"#utility.yul\":3379:3383   */\n      0x20\n        /* \"#utility.yul\":3371:3377   */\n      dup5\n        /* \"#utility.yul\":3367:3384   */\n      mul\n        /* \"#utility.yul\":3359:3365   */\n      dup4\n        /* \"#utility.yul\":3355:3385   */\n      add\n        /* \"#utility.yul\":3408:3411   */\n      dup6\n        /* \"#utility.yul\":3400:3406   */\n      dup2\n        /* \"#utility.yul\":3397:3412   */\n      gt\n        /* \"#utility.yul\":3394:3516   */\n      iszero\n      tag_83\n      jumpi\n        /* \"#utility.yul\":3427:3506   */\n      tag_84\n      tag_31\n      jump\t// in\n    tag_84:\n        /* \"#utility.yul\":3394:3516   */\n    tag_83:\n        /* \"#utility.yul\":3542:3548   */\n      dup4\n        /* \"#utility.yul\":3525:3960   */\n    tag_85:\n        /* \"#utility.yul\":3559:3565   */\n      dup2\n        /* \"#utility.yul\":3554:3557   */\n      dup2\n        /* \"#utility.yul\":3551:3566   */\n      lt\n        /* \"#utility.yul\":3525:3960   */\n      iszero\n      tag_87\n      jumpi\n        /* \"#utility.yul\":3648:3651   */\n      dup1\n        /* \"#utility.yul\":3635:3652   */\n      calldataload\n        /* \"#utility.yul\":3684:3702   */\n      0xffffffffffffffff\n        /* \"#utility.yul\":3671:3682   */\n      dup2\n        /* \"#utility.yul\":3668:3703   */\n      gt\n        /* \"#utility.yul\":3665:3787   */\n      iszero\n      tag_88\n      jumpi\n        /* \"#utility.yul\":3706:3785   */\n      tag_89\n      tag_25\n      jump\t// in\n    tag_89:\n        /* \"#utility.yul\":3665:3787   */\n    tag_88:\n        /* \"#utility.yul\":3830:3841   */\n      dup1\n        /* \"#utility.yul\":3822:3828   */\n      dup7\n        /* \"#utility.yul\":3818:3842   */\n      add\n        /* \"#utility.yul\":3868:3915   */\n      tag_90\n        /* \"#utility.yul\":3911:3914   */\n      dup10\n        /* \"#utility.yul\":3899:3909   */\n      dup3\n        /* \"#utility.yul\":3868:3915   */\n      tag_36\n      jump\t// in\n    tag_90:\n        /* \"#utility.yul\":3863:3866   */\n      dup6\n        /* \"#utility.yul\":3856:3916   */\n      mstore\n        /* \"#utility.yul\":3945:3949   */\n      0x20\n        /* \"#utility.yul\":3940:3943   */\n      dup6\n        /* \"#utility.yul\":3936:3950   */\n      add\n        /* \"#utility.yul\":3929:3950   */\n      swap5\n      pop\n        /* \"#utility.yul\":3601:3960   */\n      pop\n      pop\n        /* \"#utility.yul\":3585:3589   */\n      0x20\n        /* \"#utility.yul\":3580:3583   */\n      dup2\n        /* \"#utility.yul\":3576:3590   */\n      add\n        /* \"#utility.yul\":3569:3590   */\n      swap1\n      pop\n        /* \"#utility.yul\":3525:3960   */\n      jump(tag_85)\n    tag_87:\n        /* \"#utility.yul\":3529:3550   */\n      pop\n        /* \"#utility.yul\":3133:3966   */\n      pop\n      pop\n        /* \"#utility.yul\":3021:3966   */\n      swap4\n      swap3\n      pop\n      pop\n      pop\n      jump\t// out\n        /* \"#utility.yul\":3988:4378   */\n    tag_38:\n        /* \"#utility.yul\":4069:4074   */\n      0x00\n        /* \"#utility.yul\":4118:4121   */\n      dup3\n        /* \"#utility.yul\":4111:4115   */\n      0x1f\n        /* \"#utility.yul\":4103:4109   */\n      dup4\n        /* \"#utility.yul\":4099:4116   */\n      add\n        /* \"#utility.yul\":4095:4122   */\n      slt\n        /* \"#utility.yul\":4085:4207   */\n      tag_92\n      jumpi\n        /* \"#utility.yul\":4126:4205   */\n      tag_93\n      tag_25\n      jump\t// in\n    tag_93:\n        /* \"#utility.yul\":4085:4207   */\n    tag_92:\n        /* \"#utility.yul\":4243:4249   */\n      dup2\n        /* \"#utility.yul\":4230:4250   */\n      calldataload\n        /* \"#utility.yul\":4268:4372   */\n      tag_94\n        /* \"#utility.yul\":4368:4371   */\n      dup5\n        /* \"#utility.yul\":4360:4366   */\n      dup3\n        /* \"#utility.yul\":4353:4357   */\n      0x20\n        /* \"#utility.yul\":4345:4351   */\n      dup7\n        /* \"#utility.yul\":4341:4358   */\n      add\n        /* \"#utility.yul\":4268:4372   */\n      tag_37\n      jump\t// in\n    tag_94:\n        /* \"#utility.yul\":4259:4372   */\n      swap2\n      pop\n        /* \"#utility.yul\":4075:4378   */\n      pop\n        /* \"#utility.yul\":3988:4378   */\n      swap3\n      swap2\n      pop\n      pop\n      jump\t// out\n        /* \"#utility.yul\":4384:5268   */\n    tag_5:\n        /* \"#utility.yul\":4497:4503   */\n      0x00\n        /* \"#utility.yul\":4505:4511   */\n      dup1\n        /* \"#utility.yul\":4554:4556   */\n      0x40\n        /* \"#utility.yul\":4542:4551   */\n      dup4\n        /* \"#utility.yul\":4533:4540   */\n      dup6\n        /* \"#utility.yul\":4529:4552   */\n      sub\n        /* \"#utility.yul\":4525:4557   */\n      slt\n        /* \"#utility.yul\":4522:4641   */\n      iszero\n      tag_96\n      jumpi\n        /* \"#utility.yul\":4560:4639   */\n      tag_97\n      tag_23\n      jump\t// in\n    tag_97:\n        /* \"#utility.yul\":4522:4641   */\n    tag_96:\n        /* \"#utility.yul\":4708:4709   */\n      0x00\n        /* \"#utility.yul\":4697:4706   */\n      dup4\n        /* \"#utility.yul\":4693:4710   */\n      add\n        /* \"#utility.yul\":4680:4711   */\n      calldataload\n        /* \"#utility.yul\":4738:4756   */\n      0xffffffffffffffff\n        /* \"#utility.yul\":4730:4736   */\n      dup2\n        /* \"#utility.yul\":4727:4757   */\n      gt\n        /* \"#utility.yul\":4724:4841   */\n      iszero\n      tag_98\n      jumpi\n        /* \"#utility.yul\":4760:4839   */\n      tag_99\n      tag_24\n      jump\t// in\n    tag_99:\n        /* \"#utility.yul\":4724:4841   */\n    tag_98:\n        /* \"#utility.yul\":4865:4953   */\n      tag_100\n        /* \"#utility.yul\":4945:4952   */\n      dup6\n        /* \"#utility.yul\":4936:4942   */\n      dup3\n        /* \"#utility.yul\":4925:4934   */\n      dup7\n        /* \"#utility.yul\":4921:4943   */\n      add\n        /* \"#utility.yul\":4865:4953   */\n      tag_38\n      jump\t// in\n    tag_100:\n        /* \"#utility.yul\":4855:4953   */\n      swap3\n      pop\n        /* \"#utility.yul\":4651:4963   */\n      pop\n        /* \"#utility.yul\":5030:5032   */\n      0x20\n        /* \"#utility.yul\":5019:5028   */\n      dup4\n        /* \"#utility.yul\":5015:5033   */\n      add\n        /* \"#utility.yul\":5002:5034   */\n      calldataload\n        /* \"#utility.yul\":5061:5079   */\n      0xffffffffffffffff\n        /* \"#utility.yul\":5053:5059   */\n      dup2\n        /* \"#utility.yul\":5050:5080   */\n      gt\n        /* \"#utility.yul\":5047:5164   */\n      iszero\n      tag_101\n      jumpi\n        /* \"#utility.yul\":5083:5162   */\n      tag_102\n      tag_24\n      jump\t// in\n    tag_102:\n        /* \"#utility.yul\":5047:5164   */\n    tag_101:\n        /* \"#utility.yul\":5188:5251   */\n      tag_103\n        /* \"#utility.yul\":5243:5250   */\n      dup6\n        /* \"#utility.yul\":5234:5240   */\n      dup3\n        /* \"#utility.yul\":5223:5232   */\n      dup7\n        /* \"#utility.yul\":5219:5241   */\n      add\n        /* \"#utility.yul\":5188:5251   */\n      tag_36\n      jump\t// in\n    tag_103:\n        /* \"#utility.yul\":5178:5251   */\n      swap2\n      pop\n        /* \"#utility.yul\":4973:5261   */\n      pop\n        /* \"#utility.yul\":4384:5268   */\n      swap3\n      pop\n      swap3\n      swap1\n      pop\n      jump\t// out\n        /* \"#utility.yul\":5274:5351   */\n    tag_39:\n        /* \"#utility.yul\":5311:5318   */\n      0x00\n        /* \"#utility.yul\":5340:5345   */\n      dup2\n        /* \"#utility.yul\":5329:5345   */\n      swap1\n      pop\n        /* \"#utility.yul\":5274:5351   */\n      swap2\n      swap1\n      pop\n      jump\t// out\n        /* \"#utility.yul\":5357:5483   */\n    tag_40:\n        /* \"#utility.yul\":5452:5476   */\n      tag_106\n        /* \"#utility.yul\":5470:5475   */\n      dup2\n        /* \"#utility.yul\":5452:5476   */\n      tag_39\n      jump\t// in\n    tag_106:\n        /* \"#utility.yul\":5447:5450   */\n      dup3\n        /* \"#utility.yul\":5440:5477   */\n      mstore\n        /* \"#utility.yul\":5357:5483   */\n      pop\n      pop\n      jump\t// out\n        /* \"#utility.yul\":5489:5727   */\n    tag_8:\n        /* \"#utility.yul\":5590:5594   */\n      0x00\n        /* \"#utility.yul\":5628:5630   */\n      0x20\n        /* \"#utility.yul\":5617:5626   */\n      dup3\n        /* \"#utility.yul\":5613:5631   */\n      add\n        /* \"#utility.yul\":5605:5631   */\n      swap1\n      pop\n        /* \"#utility.yul\":5641:5720   */\n      tag_108\n        /* \"#utility.yul\":5717:5718   */\n      0x00\n        /* \"#utility.yul\":5706:5715   */\n      dup4\n        /* \"#utility.yul\":5702:5719   */\n      add\n        /* \"#utility.yul\":5693:5699   */\n      dup5\n        /* \"#utility.yul\":5641:5720   */\n      tag_40\n      jump\t// in\n    tag_108:\n        /* \"#utility.yul\":5489:5727   */\n      swap3\n      swap2\n      pop\n      pop\n      jump\t// out\n        /* \"#utility.yul\":5733:5913   */\n    tag_41:\n        /* \"#utility.yul\":5781:5858   */\n      0x4e487b7100000000000000000000000000000000000000000000000000000000\n        /* \"#utility.yul\":5778:5779   */\n      0x00\n        /* \"#utility.yul\":5771:5859   */\n      mstore\n        /* \"#utility.yul\":5878:5882   */\n      0x11\n        /* \"#utility.yul\":5875:5876   */\n      0x04\n        /* \"#utility.yul\":5868:5883   */\n      mstore\n        /* \"#utility.yul\":5902:5906   */\n      0x24\n        /* \"#utility.yul\":5899:5900   */\n      0x00\n        /* \"#utility.yul\":5892:5907   */\n      revert\n        /* \"#utility.yul\":5919:6110   */\n    tag_14:\n        /* \"#utility.yul\":5959:5962   */\n      0x00\n        /* \"#utility.yul\":5978:5998   */\n      tag_111\n        /* \"#utility.yul\":5996:5997   */\n      dup3\n        /* \"#utility.yul\":5978:5998   */\n      tag_39\n      jump\t// in\n    tag_111:\n        /* \"#utility.yul\":5973:5998   */\n      swap2\n      pop\n        /* \"#utility.yul\":6012:6032   */\n      tag_112\n        /* \"#utility.yul\":6030:6031   */\n      dup4\n        /* \"#utility.yul\":6012:6032   */\n      tag_39\n      jump\t// in\n    tag_112:\n        /* \"#utility.yul\":6007:6032   */\n      swap3\n      pop\n        /* \"#utility.yul\":6055:6056   */\n      dup3\n        /* \"#utility.yul\":6052:6053   */\n      dup3\n        /* \"#utility.yul\":6048:6057   */\n      add\n        /* \"#utility.yul\":6041:6057   */\n      swap1\n      pop\n        /* \"#utility.yul\":6076:6079   */\n      dup1\n        /* \"#utility.yul\":6073:6074   */\n      dup3\n        /* \"#utility.yul\":6070:6080   */\n      gt\n        /* \"#utility.yul\":6067:6103   */\n      iszero\n      tag_113\n      jumpi\n        /* \"#utility.yul\":6083:6101   */\n      tag_114\n      tag_41\n      jump\t// in\n    tag_114:\n        /* \"#utility.yul\":6067:6103   */\n    tag_113:\n        /* \"#utility.yul\":5919:6110   */\n      swap3\n      swap2\n      pop\n      pop\n      jump\t// out\n        /* \"#utility.yul\":6116:6215   */\n    tag_42:\n        /* \"#utility.yul\":6168:6174   */\n      0x00\n        /* \"#utility.yul\":6202:6207   */\n      dup2\n        /* \"#utility.yul\":6196:6208   */\n      mload\n        /* \"#utility.yul\":6186:6208   */\n      swap1\n      pop\n        /* \"#utility.yul\":6116:6215   */\n      swap2\n      swap1\n      pop\n      jump\t// out\n        /* \"#utility.yul\":6221:6369   */\n    tag_43:\n        /* \"#utility.yul\":6323:6334   */\n      0x00\n        /* \"#utility.yul\":6360:6363   */\n      dup2\n        /* \"#utility.yul\":6345:6363   */\n      swap1\n      pop\n        /* \"#utility.yul\":6221:6369   */\n      swap3\n      swap2\n      pop\n      pop\n      jump\t// out\n        /* \"#utility.yul\":6375:6514   */\n    tag_44:\n        /* \"#utility.yul\":6464:6470   */\n      dup3\n        /* \"#utility.yul\":6459:6462   */\n      dup2\n        /* \"#utility.yul\":6454:6457   */\n      dup4\n        /* \"#utility.yul\":6448:6471   */\n      mcopy\n        /* \"#utility.yul\":6505:6506   */\n      0x00\n        /* \"#utility.yul\":6496:6502   */\n      dup4\n        /* \"#utility.yul\":6491:6494   */\n      dup4\n        /* \"#utility.yul\":6487:6503   */\n      add\n        /* \"#utility.yul\":6480:6507   */\n      mstore\n        /* \"#utility.yul\":6375:6514   */\n      pop\n      pop\n      pop\n      jump\t// out\n        /* \"#utility.yul\":6520:6910   */\n    tag_45:\n        /* \"#utility.yul\":6626:6629   */\n      0x00\n        /* \"#utility.yul\":6654:6693   */\n      tag_119\n        /* \"#utility.yul\":6687:6692   */\n      dup3\n        /* \"#utility.yul\":6654:6693   */\n      tag_42\n      jump\t// in\n    tag_119:\n        /* \"#utility.yul\":6709:6798   */\n      tag_120\n        /* \"#utility.yul\":6791:6797   */\n      dup2\n        /* \"#utility.yul\":6786:6789   */\n      dup6\n        /* \"#utility.yul\":6709:6798   */\n      tag_43\n      jump\t// in\n    tag_120:\n        /* \"#utility.yul\":6702:6798   */\n      swap4\n      pop\n        /* \"#utility.yul\":6807:6872   */\n      tag_121\n        /* \"#utility.yul\":6865:6871   */\n      dup2\n        /* \"#utility.yul\":6860:6863   */\n      dup6\n        /* \"#utility.yul\":6853:6857   */\n      0x20\n        /* \"#utility.yul\":6846:6851   */\n      dup7\n        /* \"#utility.yul\":6842:6858   */\n      add\n        /* \"#utility.yul\":6807:6872   */\n      tag_44\n      jump\t// in\n    tag_121:\n        /* \"#utility.yul\":6897:6903   */\n      dup1\n        /* \"#utility.yul\":6892:6895   */\n      dup5\n        /* \"#utility.yul\":6888:6904   */\n      add\n        /* \"#utility.yul\":6881:6904   */\n      swap2\n      pop\n        /* \"#utility.yul\":6630:6910   */\n      pop\n        /* \"#utility.yul\":6520:6910   */\n      swap3\n      swap2\n      pop\n      pop\n      jump\t// out\n        /* \"#utility.yul\":6916:7191   */\n    tag_16:\n        /* \"#utility.yul\":7048:7051   */\n      0x00\n        /* \"#utility.yul\":7070:7165   */\n      tag_123\n        /* \"#utility.yul\":7161:7164   */\n      dup3\n        /* \"#utility.yul\":7152:7158   */\n      dup5\n        /* \"#utility.yul\":7070:7165   */\n      tag_45\n      jump\t// in\n    tag_123:\n        /* \"#utility.yul\":7063:7165   */\n      swap2\n      pop\n        /* \"#utility.yul\":7182:7185   */\n      dup2\n        /* \"#utility.yul\":7175:7185   */\n      swap1\n      pop\n        /* \"#utility.yul\":6916:7191   */\n      swap3\n      swap2\n      pop\n      pop\n      jump\t// out\n        /* \"#utility.yul\":7197:7377   */\n    tag_19:\n        /* \"#utility.yul\":7245:7322   */\n      0x4e487b7100000000000000000000000000000000000000000000000000000000\n        /* \"#utility.yul\":7242:7243   */\n      0x00\n        /* \"#utility.yul\":7235:7323   */\n      mstore\n        /* \"#utility.yul\":7342:7346   */\n      0x32\n        /* \"#utility.yul\":7339:7340   */\n      0x04\n        /* \"#utility.yul\":7332:7347   */\n      mstore\n        /* \"#utility.yul\":7366:7370   */\n      0x24\n        /* \"#utility.yul\":7363:7364   */\n      0x00\n        /* \"#utility.yul\":7356:7371   */\n      revert\n\n    auxdata: 0xa2646970667358221220f80245e1fc7ada739433f4d249a60d498033884812e6dea48874c55be84a980764736f6c634300081a0033\n}\n",
				"bytecode": {
					"linkReferences": {},
					"object": "61051361004d600b8282823980515f1a6073146041577f4e487b71000000000000000000000000000000000000000000000000000000005f525f60045260245ffd5b305f52607381538281f3fe7300000000000000000000000000000000000000003014608060405260043610610034575f3560e01c80631b4e5b9414610038575b5f80fd5b610052600480360381019061004d9190610341565b610068565b60405161005f91906103cf565b60405180910390f35b5f80600190505b6001845161007d9190610415565b8110156101075782604051602001610095919061049a565b604051602081830303815290604052805190602001208482815181106100be576100bd6104b0565b5b60200260200101516040516020016100d6919061049a565b60405160208183030381529060405280519060200120036100fa578091505061010c565b808060010191505061006f565b505f90505b92915050565b5f604051905090565b5f80fd5b5f80fd5b5f80fd5b5f601f19601f8301169050919050565b7f4e487b71000000000000000000000000000000000000000000000000000000005f52604160045260245ffd5b61016d82610127565b810181811067ffffffffffffffff8211171561018c5761018b610137565b5b80604052505050565b5f61019e610112565b90506101aa8282610164565b919050565b5f67ffffffffffffffff8211156101c9576101c8610137565b5b602082029050602081019050919050565b5f80fd5b5f80fd5b5f67ffffffffffffffff8211156101fc576101fb610137565b5b61020582610127565b9050602081019050919050565b828183375f83830152505050565b5f61023261022d846101e2565b610195565b90508281526020810184848401111561024e5761024d6101de565b5b610259848285610212565b509392505050565b5f82601f83011261027557610274610123565b5b8135610285848260208601610220565b91505092915050565b5f6102a061029b846101af565b610195565b905080838252602082019050602084028301858111156102c3576102c26101da565b5b835b8181101561030a57803567ffffffffffffffff8111156102e8576102e7610123565b5b8086016102f58982610261565b855260208501945050506020810190506102c5565b5050509392505050565b5f82601f83011261032857610327610123565b5b813561033884826020860161028e565b91505092915050565b5f80604083850312156103575761035661011b565b5b5f83013567ffffffffffffffff8111156103745761037361011f565b5b61038085828601610314565b925050602083013567ffffffffffffffff8111156103a1576103a061011f565b5b6103ad85828601610261565b9150509250929050565b5f819050919050565b6103c9816103b7565b82525050565b5f6020820190506103e25f8301846103c0565b92915050565b7f4e487b71000000000000000000000000000000000000000000000000000000005f52601160045260245ffd5b5f61041f826103b7565b915061042a836103b7565b9250828201905080821115610442576104416103e8565b5b92915050565b5f81519050919050565b5f81905092915050565b8281835e5f83830152505050565b5f61047482610448565b61047e8185610452565b935061048e81856020860161045c565b80840191505092915050565b5f6104a5828461046a565b915081905092915050565b7f4e487b71000000000000000000000000000000000000000000000000000000005f52603260045260245ffdfea2646970667358221220f80245e1fc7ada739433f4d249a60d498033884812e6dea48874c55be84a980764736f6c634300081a0033",
					"opcodes": "PUSH2 0x513 PUSH2 0x4D PUSH1 0xB DUP3 DUP3 DUP3 CODECOPY DUP1 MLOAD PUSH0 BYTE PUSH1 0x73 EQ PUSH1 0x41 JUMPI PUSH32 0x4E487B7100000000000000000000000000000000000000000000000000000000 PUSH0 MSTORE PUSH0 PUSH1 0x4 MSTORE PUSH1 0x24 PUSH0 REVERT JUMPDEST ADDRESS PUSH0 MSTORE PUSH1 0x73 DUP2 MSTORE8 DUP3 DUP2 RETURN INVALID PUSH20 0x0 ADDRESS EQ PUSH1 0x80 PUSH1 0x40 MSTORE PUSH1 0x4 CALLDATASIZE LT PUSH2 0x34 JUMPI PUSH0 CALLDATALOAD PUSH1 0xE0 SHR DUP1 PUSH4 0x1B4E5B94 EQ PUSH2 0x38 JUMPI JUMPDEST PUSH0 DUP1 REVERT JUMPDEST PUSH2 0x52 PUSH1 0x4 DUP1 CALLDATASIZE SUB DUP2 ADD SWAP1 PUSH2 0x4D SWAP2 SWAP1 PUSH2 0x341 JUMP JUMPDEST PUSH2 0x68 JUMP JUMPDEST PUSH1 0x40 MLOAD PUSH2 0x5F SWAP2 SWAP1 PUSH2 0x3CF JUMP JUMPDEST PUSH1 0x40 MLOAD DUP1 SWAP2 SUB SWAP1 RETURN JUMPDEST PUSH0 DUP1 PUSH1 0x1 SWAP1 POP JUMPDEST PUSH1 0x1 DUP5 MLOAD PUSH2 0x7D SWAP2 SWAP1 PUSH2 0x415 JUMP JUMPDEST DUP2 LT ISZERO PUSH2 0x107 JUMPI DUP3 PUSH1 0x40 MLOAD PUSH1 0x20 ADD PUSH2 0x95 SWAP2 SWAP1 PUSH2 0x49A JUMP JUMPDEST PUSH1 0x40 MLOAD PUSH1 0x20 DUP2 DUP4 SUB SUB DUP2 MSTORE SWAP1 PUSH1 0x40 MSTORE DUP1 MLOAD SWAP1 PUSH1 0x20 ADD KECCAK256 DUP5 DUP3 DUP2 MLOAD DUP2 LT PUSH2 0xBE JUMPI PUSH2 0xBD PUSH2 0x4B0 JUMP JUMPDEST JUMPDEST PUSH1 0x20 MUL PUSH1 0x20 ADD ADD MLOAD PUSH1 0x40 MLOAD PUSH1 0x20 ADD PUSH2 0xD6 SWAP2 SWAP1 PUSH2 0x49A JUMP JUMPDEST PUSH1 0x40 MLOAD PUSH1 0x20 DUP2 DUP4 SUB SUB DUP2 MSTORE SWAP1 PUSH1 0x40 MSTORE DUP1 MLOAD SWAP1 PUSH1 0x20 ADD KECCAK256 SUB PUSH2 0xFA JUMPI DUP1 SWAP2 POP POP PUSH2 0x10C JUMP JUMPDEST DUP1 DUP1 PUSH1 0x1 ADD SWAP2 POP POP PUSH2 0x6F JUMP JUMPDEST POP PUSH0 SWAP1 POP JUMPDEST SWAP3 SWAP2 POP POP JUMP JUMPDEST PUSH0 PUSH1 0x40 MLOAD SWAP1 POP SWAP1 JUMP JUMPDEST PUSH0 DUP1 REVERT JUMPDEST PUSH0 DUP1 REVERT JUMPDEST PUSH0 DUP1 REVERT JUMPDEST PUSH0 PUSH1 0x1F NOT PUSH1 0x1F DUP4 ADD AND SWAP1 POP SWAP2 SWAP1 POP JUMP JUMPDEST PUSH32 0x4E487B7100000000000000000000000000000000000000000000000000000000 PUSH0 MSTORE PUSH1 0x41 PUSH1 0x4 MSTORE PUSH1 0x24 PUSH0 REVERT JUMPDEST PUSH2 0x16D DUP3 PUSH2 0x127 JUMP JUMPDEST DUP2 ADD DUP2 DUP2 LT PUSH8 0xFFFFFFFFFFFFFFFF DUP3 GT OR ISZERO PUSH2 0x18C JUMPI PUSH2 0x18B PUSH2 0x137 JUMP JUMPDEST JUMPDEST DUP1 PUSH1 0x40 MSTORE POP POP POP JUMP JUMPDEST PUSH0 PUSH2 0x19E PUSH2 0x112 JUMP JUMPDEST SWAP1 POP PUSH2 0x1AA DUP3 DUP3 PUSH2 0x164 JUMP JUMPDEST SWAP2 SWAP1 POP JUMP JUMPDEST PUSH0 PUSH8 0xFFFFFFFFFFFFFFFF DUP3 GT ISZERO PUSH2 0x1C9 JUMPI PUSH2 0x1C8 PUSH2 0x137 JUMP JUMPDEST JUMPDEST PUSH1 0x20 DUP3 MUL SWAP1 POP PUSH1 0x20 DUP2 ADD SWAP1 POP SWAP2 SWAP1 POP JUMP JUMPDEST PUSH0 DUP1 REVERT JUMPDEST PUSH0 DUP1 REVERT JUMPDEST PUSH0 PUSH8 0xFFFFFFFFFFFFFFFF DUP3 GT ISZERO PUSH2 0x1FC JUMPI PUSH2 0x1FB PUSH2 0x137 JUMP JUMPDEST JUMPDEST PUSH2 0x205 DUP3 PUSH2 0x127 JUMP JUMPDEST SWAP1 POP PUSH1 0x20 DUP2 ADD SWAP1 POP SWAP2 SWAP1 POP JUMP JUMPDEST DUP3 DUP2 DUP4 CALLDATACOPY PUSH0 DUP4 DUP4 ADD MSTORE POP POP POP JUMP JUMPDEST PUSH0 PUSH2 0x232 PUSH2 0x22D DUP5 PUSH2 0x1E2 JUMP JUMPDEST PUSH2 0x195 JUMP JUMPDEST SWAP1 POP DUP3 DUP2 MSTORE PUSH1 0x20 DUP2 ADD DUP5 DUP5 DUP5 ADD GT ISZERO PUSH2 0x24E JUMPI PUSH2 0x24D PUSH2 0x1DE JUMP JUMPDEST JUMPDEST PUSH2 0x259 DUP5 DUP3 DUP6 PUSH2 0x212 JUMP JUMPDEST POP SWAP4 SWAP3 POP POP POP JUMP JUMPDEST PUSH0 DUP3 PUSH1 0x1F DUP4 ADD SLT PUSH2 0x275 JUMPI PUSH2 0x274 PUSH2 0x123 JUMP JUMPDEST JUMPDEST DUP2 CALLDATALOAD PUSH2 0x285 DUP5 DUP3 PUSH1 0x20 DUP7 ADD PUSH2 0x220 JUMP JUMPDEST SWAP2 POP POP SWAP3 SWAP2 POP POP JUMP JUMPDEST PUSH0 PUSH2 0x2A0 PUSH2 0x29B DUP5 PUSH2 0x1AF JUMP JUMPDEST PUSH2 0x195 JUMP JUMPDEST SWAP1 POP DUP1 DUP4 DUP3 MSTORE PUSH1 0x20 DUP3 ADD SWAP1 POP PUSH1 0x20 DUP5 MUL DUP4 ADD DUP6 DUP2 GT ISZERO PUSH2 0x2C3 JUMPI PUSH2 0x2C2 PUSH2 0x1DA JUMP JUMPDEST JUMPDEST DUP4 JUMPDEST DUP2 DUP2 LT ISZERO PUSH2 0x30A JUMPI DUP1 CALLDATALOAD PUSH8 0xFFFFFFFFFFFFFFFF DUP2 GT ISZERO PUSH2 0x2E8 JUMPI PUSH2 0x2E7 PUSH2 0x123 JUMP JUMPDEST JUMPDEST DUP1 DUP7 ADD PUSH2 0x2F5 DUP10 DUP3 PUSH2 0x261 JUMP JUMPDEST DUP6 MSTORE PUSH1 0x20 DUP6 ADD SWAP5 POP POP POP PUSH1 0x20 DUP2 ADD SWAP1 POP PUSH2 0x2C5 JUMP JUMPDEST POP POP POP SWAP4 SWAP3 POP POP POP JUMP JUMPDEST PUSH0 DUP3 PUSH1 0x1F DUP4 ADD SLT PUSH2 0x328 JUMPI PUSH2 0x327 PUSH2 0x123 JUMP JUMPDEST JUMPDEST DUP2 CALLDATALOAD PUSH2 0x338 DUP5 DUP3 PUSH1 0x20 DUP7 ADD PUSH2 0x28E JUMP JUMPDEST SWAP2 POP POP SWAP3 SWAP2 POP POP JUMP JUMPDEST PUSH0 DUP1 PUSH1 0x40 DUP4 DUP6 SUB SLT ISZERO PUSH2 0x357 JUMPI PUSH2 0x356 PUSH2 0x11B JUMP JUMPDEST JUMPDEST PUSH0 DUP4 ADD CALLDATALOAD PUSH8 0xFFFFFFFFFFFFFFFF DUP2 GT ISZERO PUSH2 0x374 JUMPI PUSH2 0x373 PUSH2 0x11F JUMP JUMPDEST JUMPDEST PUSH2 0x380 DUP6 DUP3 DUP7 ADD PUSH2 0x314 JUMP JUMPDEST SWAP3 POP POP PUSH1 0x20 DUP4 ADD CALLDATALOAD PUSH8 0xFFFFFFFFFFFFFFFF DUP2 GT ISZERO PUSH2 0x3A1 JUMPI PUSH2 0x3A0 PUSH2 0x11F JUMP JUMPDEST JUMPDEST PUSH2 0x3AD DUP6 DUP3 DUP7 ADD PUSH2 0x261 JUMP JUMPDEST SWAP2 POP POP SWAP3 POP SWAP3 SWAP1 POP JUMP JUMPDEST PUSH0 DUP2 SWAP1 POP SWAP2 SWAP1 POP JUMP JUMPDEST PUSH2 0x3C9 DUP2 PUSH2 0x3B7 JUMP JUMPDEST DUP3 MSTORE POP POP JUMP JUMPDEST PUSH0 PUSH1 0x20 DUP3 ADD SWAP1 POP PUSH2 0x3E2 PUSH0 DUP4 ADD DUP5 PUSH2 0x3C0 JUMP JUMPDEST SWAP3 SWAP2 POP POP JUMP JUMPDEST PUSH32 0x4E487B7100000000000000000000000000000000000000000000000000000000 PUSH0 MSTORE PUSH1 0x11 PUSH1 0x4 MSTORE PUSH1 0x24 PUSH0 REVERT JUMPDEST PUSH0 PUSH2 0x41F DUP3 PUSH2 0x3B7 JUMP JUMPDEST SWAP2 POP PUSH2 0x42A DUP4 PUSH2 0x3B7 JUMP JUMPDEST SWAP3 POP DUP3 DUP3 ADD SWAP1 POP DUP1 DUP3 GT ISZERO PUSH2 0x442 JUMPI PUSH2 0x441 PUSH2 0x3E8 JUMP JUMPDEST JUMPDEST SWAP3 SWAP2 POP POP JUMP JUMPDEST PUSH0 DUP2 MLOAD SWAP1 POP SWAP2 SWAP1 POP JUMP JUMPDEST PUSH0 DUP2 SWAP1 POP SWAP3 SWAP2 POP POP JUMP JUMPDEST DUP3 DUP2 DUP4 MCOPY PUSH0 DUP4 DUP4 ADD MSTORE POP POP POP JUMP JUMPDEST PUSH0 PUSH2 0x474 DUP3 PUSH2 0x448 JUMP JUMPDEST PUSH2 0x47E DUP2 DUP6 PUSH2 0x452 JUMP JUMPDEST SWAP4 POP PUSH2 0x48E DUP2 DUP6 PUSH1 0x20 DUP7 ADD PUSH2 0x45C JUMP JUMPDEST DUP1 DUP5 ADD SWAP2 POP POP SWAP3 SWAP2 POP POP JUMP JUMPDEST PUSH0 PUSH2 0x4A5 DUP3 DUP5 PUSH2 0x46A JUMP JUMPDEST SWAP2 POP DUP2 SWAP1 POP SWAP3 SWAP2 POP POP JUMP JUMPDEST PUSH32 0x4E487B7100000000000000000000000000000000000000000000000000000000 PUSH0 MSTORE PUSH1 0x32 PUSH1 0x4 MSTORE PUSH1 0x24 PUSH0 REVERT INVALID LOG2 PUSH5 0x6970667358 0x22 SLT KECCAK256 0xF8 MUL GASLIMIT 0xE1 0xFC PUSH27 0xDA739433F4D249A60D498033884812E6DEA48874C55BE84A980764 PUSH20 0x6F6C634300081A00330000000000000000000000 "
				},
				"gasEstimates": {
					"creation": {
						"codeDepositCost": "259800",
						"executionCost": "323",
						"totalCost": "260123"
					},
					"external": {
						"indexOf(string[],string)": "infinite"
					}
				},
				"methodIdentifiers": {
					"indexOf(string[],string)": "1b4e5b94"
				}
			},
			"storageLayout": {
				"storage": [],
				"types": null
			},
			"userdoc": {
				"kind": "user",
				"methods": {},
				"version": 1
			}
		}
	}
}