{
	"contracts/02/LibrarySearch.sol": {
		"SearchTest": {
			"abi": [
				{
					"inputs": [
						{
							"internalType": "string",
							"name": "value",
							"type": "string"
						}
					],
					"name": "append",
					"outputs": [],
					"stateMutability": "nonpayable",
					"type": "function"
				},
				{
					"inputs": [
						{
							"internalType": "string",
							"name": "_old",
							"type": "string"
						},
						{
							"internalType": "string",
							"name": "_new",
							"type": "string"
						}
					],
					"name": "replace",
					"outputs": [
						{
							"internalType": "uint256",
							"name": "",
							"type": "uint256"
						}
					],
					"stateMutability": "nonpayable",
					"type": "function"
				}
			],
			"devdoc": {
				"kind": "dev",
				"methods": {},
				"version": 1
			},
			"evm": {
				"assembly": "    /* \"contracts/02/LibrarySearch.sol\":422:1095  contract SearchTest {... */\n  mstore(0x40, 0x80)\n  callvalue\n  dup1\n  iszero\n  tag_1\n  jumpi\n  0x00\n  dup1\n  revert\ntag_1:\n  pop\n  dataSize(sub_0)\n  dup1\n  dataOffset(sub_0)\n  0x00\n  codecopy\n  0x00\n  return\nstop\n\nsub_0: assembly {\n        /* \"contracts/02/LibrarySearch.sol\":422:1095  contract SearchTest {... */\n      mstore(0x40, 0x80)\n      callvalue\n      dup1\n      iszero\n      tag_1\n      jumpi\n      0x00\n      dup1\n      revert\n    tag_1:\n      pop\n      jumpi(tag_2, lt(calldatasize, 0x04))\n      shr(0xe0, calldataload(0x00))\n      dup1\n      0x61aef8cd\n      eq\n      tag_3\n      jumpi\n      dup1\n      0x86cdbae9\n      eq\n      tag_4\n      jumpi\n    tag_2:\n      0x00\n      dup1\n      revert\n        /* \"contracts/02/LibrarySearch.sol\":670:1093  function replace(string memory _old, string memory _new) public returns (uint) {... */\n    tag_3:\n      tag_5\n      0x04\n      dup1\n      calldatasize\n      sub\n      dup2\n      add\n      swap1\n      tag_6\n      swap2\n      swap1\n      tag_7\n      jump\t// in\n    tag_6:\n      tag_8\n      jump\t// in\n    tag_5:\n      mload(0x40)\n      tag_9\n      swap2\n      swap1\n      tag_10\n      jump\t// in\n    tag_9:\n      mload(0x40)\n      dup1\n      swap2\n      sub\n      swap1\n      return\n        /* \"contracts/02/LibrarySearch.sol\":582:660  function append(string memory value) public  {... */\n    tag_4:\n      tag_11\n      0x04\n      dup1\n      calldatasize\n      sub\n      dup2\n      add\n      swap1\n      tag_12\n      swap2\n      swap1\n      tag_13\n      jump\t// in\n    tag_12:\n      tag_14\n      jump\t// in\n    tag_11:\n      stop\n        /* \"contracts/02/LibrarySearch.sol\":670:1093  function replace(string memory _old, string memory _new) public returns (uint) {... */\n    tag_8:\n        /* \"contracts/02/LibrarySearch.sol\":743:747  uint */\n      0x00\n        /* \"contracts/02/LibrarySearch.sol\":759:771  uint indexOf */\n      dup1\n        /* \"contracts/02/LibrarySearch.sol\":774:778  data */\n      0x00\n        /* \"contracts/02/LibrarySearch.sol\":774:786  data.indexOf */\n      dup1\n      sload\n      dup1\n      0x20\n      mul\n      0x20\n      add\n      mload(0x40)\n      swap1\n      dup2\n      add\n      0x40\n      mstore\n      dup1\n      swap3\n      swap2\n      swap1\n      dup2\n      dup2\n      mstore\n      0x20\n      add\n      0x00\n      swap1\n    tag_16:\n      dup3\n      dup3\n      lt\n      iszero\n      tag_17\n      jumpi\n      dup4\n      dup3\n      swap1\n      0x00\n      mstore\n      keccak256(0x00, 0x20)\n      add\n      dup1\n      sload\n      tag_19\n      swap1\n      tag_20\n      jump\t// in\n    tag_19:\n      dup1\n      0x1f\n      add\n      0x20\n      dup1\n      swap2\n      div\n      mul\n      0x20\n      add\n      mload(0x40)\n      swap1\n      dup2\n      add\n      0x40\n      mstore\n      dup1\n      swap3\n      swap2\n      swap1\n      dup2\n      dup2\n      mstore\n      0x20\n      add\n      dup3\n      dup1\n      sload\n      tag_21\n      swap1\n      tag_20\n      jump\t// in\n    tag_21:\n      dup1\n      iszero\n      tag_22\n      jumpi\n      dup1\n      0x1f\n      lt\n      tag_23\n      jumpi\n      0x0100\n      dup1\n      dup4\n      sload\n      div\n      mul\n      dup4\n      mstore\n      swap2\n      0x20\n      add\n      swap2\n      jump(tag_22)\n    tag_23:\n      dup3\n      add\n      swap2\n      swap1\n      0x00\n      mstore\n      keccak256(0x00, 0x20)\n      swap1\n    tag_24:\n      dup2\n      sload\n      dup2\n      mstore\n      swap1\n      0x01\n      add\n      swap1\n      0x20\n      add\n      dup1\n      dup4\n      gt\n      tag_24\n      jumpi\n      dup3\n      swap1\n      sub\n      0x1f\n      and\n      dup3\n      add\n      swap2\n    tag_22:\n      pop\n      pop\n      pop\n      pop\n      pop\n      dup2\n      mstore\n      0x20\n      add\n      swap1\n      0x01\n      add\n      swap1\n      jump(tag_16)\n    tag_17:\n      pop\n      pop\n      pop\n      pop\n      linkerSymbol(\"61cd12603487726a83eff0bce9e8c455f7f1453dea3085038562c42ebeb1390c\")\n      0x1b4e5b94\n      swap1\n      swap2\n        /* \"contracts/02/LibrarySearch.sol\":787:791  _old */\n      dup7\n        /* \"contracts/02/LibrarySearch.sol\":774:792  data.indexOf(_old) */\n      mload(0x40)\n      dup4\n      0xffffffff\n      and\n      0xe0\n      shl\n      dup2\n      mstore\n      0x04\n      add\n      tag_25\n      swap3\n      swap2\n      swap1\n      tag_26\n      jump\t// in\n    tag_25:\n      0x20\n      mload(0x40)\n      dup1\n      dup4\n      sub\n      dup2\n      dup7\n      gas\n      delegatecall\n      iszero\n      dup1\n      iszero\n      tag_28\n      jumpi\n      returndatasize\n      0x00\n      dup1\n      returndatacopy\n      revert(0x00, returndatasize)\n    tag_28:\n      pop\n      pop\n      pop\n      pop\n      mload(0x40)\n      returndatasize\n      not(0x1f)\n      0x1f\n      dup3\n      add\n      and\n      dup3\n      add\n      dup1\n      0x40\n      mstore\n      pop\n      dup2\n      add\n      swap1\n      tag_29\n      swap2\n      swap1\n      tag_30\n      jump\t// in\n    tag_29:\n        /* \"contracts/02/LibrarySearch.sol\":759:792  uint indexOf = data.indexOf(_old) */\n      swap1\n      pop\n        /* \"contracts/02/LibrarySearch.sol\":817:818  0 */\n      0x00\n        /* \"contracts/02/LibrarySearch.sol\":806:813  indexOf */\n      dup2\n        /* \"contracts/02/LibrarySearch.sol\":806:818  indexOf != 0 */\n      eq\n        /* \"contracts/02/LibrarySearch.sol\":802:1084  if (indexOf != 0) { // 如果索引不是0，说明存在需要替换的值，返回索引位置... */\n      tag_31\n      jumpi\n        /* \"contracts/02/LibrarySearch.sol\":927:931  _new */\n      dup3\n        /* \"contracts/02/LibrarySearch.sol\":911:915  data */\n      0x00\n        /* \"contracts/02/LibrarySearch.sol\":916:923  indexOf */\n      dup3\n        /* \"contracts/02/LibrarySearch.sol\":911:924  data[indexOf] */\n      dup2\n      sload\n      dup2\n      lt\n      tag_32\n      jumpi\n      tag_33\n      tag_34\n      jump\t// in\n    tag_33:\n    tag_32:\n      swap1\n      0x00\n      mstore\n      keccak256(0x00, 0x20)\n      add\n        /* \"contracts/02/LibrarySearch.sol\":911:931  data[indexOf] = _new */\n      swap1\n      dup2\n      tag_36\n      swap2\n      swap1\n      tag_37\n      jump\t// in\n    tag_36:\n      pop\n        /* \"contracts/02/LibrarySearch.sol\":802:1084  if (indexOf != 0) { // 如果索引不是0，说明存在需要替换的值，返回索引位置... */\n      jump(tag_38)\n    tag_31:\n        /* \"contracts/02/LibrarySearch.sol\":1058:1062  data */\n      0x00\n        /* \"contracts/02/LibrarySearch.sol\":1068:1072  _new */\n      dup4\n        /* \"contracts/02/LibrarySearch.sol\":1058:1073  data.push(_new) */\n      swap1\n      dup1\n      0x01\n      dup2\n      sload\n      add\n      dup1\n      dup3\n      sstore\n      dup1\n      swap2\n      pop\n      pop\n      0x01\n      swap1\n      sub\n      swap1\n      0x00\n      mstore\n      keccak256(0x00, 0x20)\n      add\n      0x00\n      swap1\n      swap2\n      swap1\n      swap2\n      swap1\n      swap2\n      pop\n      swap1\n      dup2\n      tag_40\n      swap2\n      swap1\n      tag_37\n      jump\t// in\n    tag_40:\n      pop\n        /* \"contracts/02/LibrarySearch.sol\":802:1084  if (indexOf != 0) { // 如果索引不是0，说明存在需要替换的值，返回索引位置... */\n    tag_38:\n        /* \"contracts/02/LibrarySearch.sol\":749:1093  {... */\n      pop\n        /* \"contracts/02/LibrarySearch.sol\":670:1093  function replace(string memory _old, string memory _new) public returns (uint) {... */\n      swap3\n      swap2\n      pop\n      pop\n      jump\t// out\n        /* \"contracts/02/LibrarySearch.sol\":582:660  function append(string memory value) public  {... */\n    tag_14:\n        /* \"contracts/02/LibrarySearch.sol\":637:641  data */\n      0x00\n        /* \"contracts/02/LibrarySearch.sol\":647:652  value */\n      dup2\n        /* \"contracts/02/LibrarySearch.sol\":637:653  data.push(value) */\n      swap1\n      dup1\n      0x01\n      dup2\n      sload\n      add\n      dup1\n      dup3\n      sstore\n      dup1\n      swap2\n      pop\n      pop\n      0x01\n      swap1\n      sub\n      swap1\n      0x00\n      mstore\n      keccak256(0x00, 0x20)\n      add\n      0x00\n      swap1\n      swap2\n      swap1\n      swap2\n      swap1\n      swap2\n      pop\n      swap1\n      dup2\n      tag_43\n      swap2\n      swap1\n      tag_37\n      jump\t// in\n    tag_43:\n      pop\n        /* \"contracts/02/LibrarySearch.sol\":582:660  function append(string memory value) public  {... */\n      pop\n      jump\t// out\n        /* \"#utility.yul\":7:82   */\n    tag_44:\n        /* \"#utility.yul\":40:46   */\n      0x00\n        /* \"#utility.yul\":73:75   */\n      0x40\n        /* \"#utility.yul\":67:76   */\n      mload\n        /* \"#utility.yul\":57:76   */\n      swap1\n      pop\n        /* \"#utility.yul\":7:82   */\n      swap1\n      jump\t// out\n        /* \"#utility.yul\":88:205   */\n    tag_45:\n        /* \"#utility.yul\":197:198   */\n      0x00\n        /* \"#utility.yul\":194:195   */\n      dup1\n        /* \"#utility.yul\":187:199   */\n      revert\n        /* \"#utility.yul\":211:328   */\n    tag_46:\n        /* \"#utility.yul\":320:321   */\n      0x00\n        /* \"#utility.yul\":317:318   */\n      dup1\n        /* \"#utility.yul\":310:322   */\n      revert\n        /* \"#utility.yul\":334:451   */\n    tag_47:\n        /* \"#utility.yul\":443:444   */\n      0x00\n        /* \"#utility.yul\":440:441   */\n      dup1\n        /* \"#utility.yul\":433:445   */\n      revert\n        /* \"#utility.yul\":457:574   */\n    tag_48:\n        /* \"#utility.yul\":566:567   */\n      0x00\n        /* \"#utility.yul\":563:564   */\n      dup1\n        /* \"#utility.yul\":556:568   */\n      revert\n        /* \"#utility.yul\":580:682   */\n    tag_49:\n        /* \"#utility.yul\":621:627   */\n      0x00\n        /* \"#utility.yul\":672:674   */\n      0x1f\n        /* \"#utility.yul\":668:675   */\n      not\n        /* \"#utility.yul\":663:665   */\n      0x1f\n        /* \"#utility.yul\":656:661   */\n      dup4\n        /* \"#utility.yul\":652:666   */\n      add\n        /* \"#utility.yul\":648:676   */\n      and\n        /* \"#utility.yul\":638:676   */\n      swap1\n      pop\n        /* \"#utility.yul\":580:682   */\n      swap2\n      swap1\n      pop\n      jump\t// out\n        /* \"#utility.yul\":688:868   */\n    tag_50:\n        /* \"#utility.yul\":736:813   */\n      0x4e487b7100000000000000000000000000000000000000000000000000000000\n        /* \"#utility.yul\":733:734   */\n      0x00\n        /* \"#utility.yul\":726:814   */\n      mstore\n        /* \"#utility.yul\":833:837   */\n      0x41\n        /* \"#utility.yul\":830:831   */\n      0x04\n        /* \"#utility.yul\":823:838   */\n      mstore\n        /* \"#utility.yul\":857:861   */\n      0x24\n        /* \"#utility.yul\":854:855   */\n      0x00\n        /* \"#utility.yul\":847:862   */\n      revert\n        /* \"#utility.yul\":874:1155   */\n    tag_51:\n        /* \"#utility.yul\":957:984   */\n      tag_98\n        /* \"#utility.yul\":979:983   */\n      dup3\n        /* \"#utility.yul\":957:984   */\n      tag_49\n      jump\t// in\n    tag_98:\n        /* \"#utility.yul\":949:955   */\n      dup2\n        /* \"#utility.yul\":945:985   */\n      add\n        /* \"#utility.yul\":1087:1093   */\n      dup2\n        /* \"#utility.yul\":1075:1085   */\n      dup2\n        /* \"#utility.yul\":1072:1094   */\n      lt\n        /* \"#utility.yul\":1051:1069   */\n      0xffffffffffffffff\n        /* \"#utility.yul\":1039:1049   */\n      dup3\n        /* \"#utility.yul\":1036:1070   */\n      gt\n        /* \"#utility.yul\":1033:1095   */\n      or\n        /* \"#utility.yul\":1030:1118   */\n      iszero\n      tag_99\n      jumpi\n        /* \"#utility.yul\":1098:1116   */\n      tag_100\n      tag_50\n      jump\t// in\n    tag_100:\n        /* \"#utility.yul\":1030:1118   */\n    tag_99:\n        /* \"#utility.yul\":1138:1148   */\n      dup1\n        /* \"#utility.yul\":1134:1136   */\n      0x40\n        /* \"#utility.yul\":1127:1149   */\n      mstore\n        /* \"#utility.yul\":917:1155   */\n      pop\n        /* \"#utility.yul\":874:1155   */\n      pop\n      pop\n      jump\t// out\n        /* \"#utility.yul\":1161:1290   */\n    tag_52:\n        /* \"#utility.yul\":1195:1201   */\n      0x00\n        /* \"#utility.yul\":1222:1242   */\n      tag_102\n      tag_44\n      jump\t// in\n    tag_102:\n        /* \"#utility.yul\":1212:1242   */\n      swap1\n      pop\n        /* \"#utility.yul\":1251:1284   */\n      tag_103\n        /* \"#utility.yul\":1279:1283   */\n      dup3\n        /* \"#utility.yul\":1271:1277   */\n      dup3\n        /* \"#utility.yul\":1251:1284   */\n      tag_51\n      jump\t// in\n    tag_103:\n        /* \"#utility.yul\":1161:1290   */\n      swap2\n      swap1\n      pop\n      jump\t// out\n        /* \"#utility.yul\":1296:1604   */\n    tag_53:\n        /* \"#utility.yul\":1358:1362   */\n      0x00\n        /* \"#utility.yul\":1448:1466   */\n      0xffffffffffffffff\n        /* \"#utility.yul\":1440:1446   */\n      dup3\n        /* \"#utility.yul\":1437:1467   */\n      gt\n        /* \"#utility.yul\":1434:1490   */\n      iszero\n      tag_105\n      jumpi\n        /* \"#utility.yul\":1470:1488   */\n      tag_106\n      tag_50\n      jump\t// in\n    tag_106:\n        /* \"#utility.yul\":1434:1490   */\n    tag_105:\n        /* \"#utility.yul\":1508:1537   */\n      tag_107\n        /* \"#utility.yul\":1530:1536   */\n      dup3\n        /* \"#utility.yul\":1508:1537   */\n      tag_49\n      jump\t// in\n    tag_107:\n        /* \"#utility.yul\":1500:1537   */\n      swap1\n      pop\n        /* \"#utility.yul\":1592:1596   */\n      0x20\n        /* \"#utility.yul\":1586:1590   */\n      dup2\n        /* \"#utility.yul\":1582:1597   */\n      add\n        /* \"#utility.yul\":1574:1597   */\n      swap1\n      pop\n        /* \"#utility.yul\":1296:1604   */\n      swap2\n      swap1\n      pop\n      jump\t// out\n        /* \"#utility.yul\":1610:1758   */\n    tag_54:\n        /* \"#utility.yul\":1708:1714   */\n      dup3\n        /* \"#utility.yul\":1703:1706   */\n      dup2\n        /* \"#utility.yul\":1698:1701   */\n      dup4\n        /* \"#utility.yul\":1685:1715   */\n      calldatacopy\n        /* \"#utility.yul\":1749:1750   */\n      0x00\n        /* \"#utility.yul\":1740:1746   */\n      dup4\n        /* \"#utility.yul\":1735:1738   */\n      dup4\n        /* \"#utility.yul\":1731:1747   */\n      add\n        /* \"#utility.yul\":1724:1751   */\n      mstore\n        /* \"#utility.yul\":1610:1758   */\n      pop\n      pop\n      pop\n      jump\t// out\n        /* \"#utility.yul\":1764:2189   */\n    tag_55:\n        /* \"#utility.yul\":1842:1847   */\n      0x00\n        /* \"#utility.yul\":1867:1933   */\n      tag_110\n        /* \"#utility.yul\":1883:1932   */\n      tag_111\n        /* \"#utility.yul\":1925:1931   */\n      dup5\n        /* \"#utility.yul\":1883:1932   */\n      tag_53\n      jump\t// in\n    tag_111:\n        /* \"#utility.yul\":1867:1933   */\n      tag_52\n      jump\t// in\n    tag_110:\n        /* \"#utility.yul\":1858:1933   */\n      swap1\n      pop\n        /* \"#utility.yul\":1956:1962   */\n      dup3\n        /* \"#utility.yul\":1949:1954   */\n      dup2\n        /* \"#utility.yul\":1942:1963   */\n      mstore\n        /* \"#utility.yul\":1994:1998   */\n      0x20\n        /* \"#utility.yul\":1987:1992   */\n      dup2\n        /* \"#utility.yul\":1983:1999   */\n      add\n        /* \"#utility.yul\":2032:2035   */\n      dup5\n        /* \"#utility.yul\":2023:2029   */\n      dup5\n        /* \"#utility.yul\":2018:2021   */\n      dup5\n        /* \"#utility.yul\":2014:2030   */\n      add\n        /* \"#utility.yul\":2011:2036   */\n      gt\n        /* \"#utility.yul\":2008:2120   */\n      iszero\n      tag_112\n      jumpi\n        /* \"#utility.yul\":2039:2118   */\n      tag_113\n      tag_48\n      jump\t// in\n    tag_113:\n        /* \"#utility.yul\":2008:2120   */\n    tag_112:\n        /* \"#utility.yul\":2129:2183   */\n      tag_114\n        /* \"#utility.yul\":2176:2182   */\n      dup5\n        /* \"#utility.yul\":2171:2174   */\n      dup3\n        /* \"#utility.yul\":2166:2169   */\n      dup6\n        /* \"#utility.yul\":2129:2183   */\n      tag_54\n      jump\t// in\n    tag_114:\n        /* \"#utility.yul\":1848:2189   */\n      pop\n        /* \"#utility.yul\":1764:2189   */\n      swap4\n      swap3\n      pop\n      pop\n      pop\n      jump\t// out\n        /* \"#utility.yul\":2209:2549   */\n    tag_56:\n        /* \"#utility.yul\":2265:2270   */\n      0x00\n        /* \"#utility.yul\":2314:2317   */\n      dup3\n        /* \"#utility.yul\":2307:2311   */\n      0x1f\n        /* \"#utility.yul\":2299:2305   */\n      dup4\n        /* \"#utility.yul\":2295:2312   */\n      add\n        /* \"#utility.yul\":2291:2318   */\n      slt\n        /* \"#utility.yul\":2281:2403   */\n      tag_116\n      jumpi\n        /* \"#utility.yul\":2322:2401   */\n      tag_117\n      tag_47\n      jump\t// in\n    tag_117:\n        /* \"#utility.yul\":2281:2403   */\n    tag_116:\n        /* \"#utility.yul\":2439:2445   */\n      dup2\n        /* \"#utility.yul\":2426:2446   */\n      calldataload\n        /* \"#utility.yul\":2464:2543   */\n      tag_118\n        /* \"#utility.yul\":2539:2542   */\n      dup5\n        /* \"#utility.yul\":2531:2537   */\n      dup3\n        /* \"#utility.yul\":2524:2528   */\n      0x20\n        /* \"#utility.yul\":2516:2522   */\n      dup7\n        /* \"#utility.yul\":2512:2529   */\n      add\n        /* \"#utility.yul\":2464:2543   */\n      tag_55\n      jump\t// in\n    tag_118:\n        /* \"#utility.yul\":2455:2543   */\n      swap2\n      pop\n        /* \"#utility.yul\":2271:2549   */\n      pop\n        /* \"#utility.yul\":2209:2549   */\n      swap3\n      swap2\n      pop\n      pop\n      jump\t// out\n        /* \"#utility.yul\":2555:3389   */\n    tag_7:\n        /* \"#utility.yul\":2643:2649   */\n      0x00\n        /* \"#utility.yul\":2651:2657   */\n      dup1\n        /* \"#utility.yul\":2700:2702   */\n      0x40\n        /* \"#utility.yul\":2688:2697   */\n      dup4\n        /* \"#utility.yul\":2679:2686   */\n      dup6\n        /* \"#utility.yul\":2675:2698   */\n      sub\n        /* \"#utility.yul\":2671:2703   */\n      slt\n        /* \"#utility.yul\":2668:2787   */\n      iszero\n      tag_120\n      jumpi\n        /* \"#utility.yul\":2706:2785   */\n      tag_121\n      tag_45\n      jump\t// in\n    tag_121:\n        /* \"#utility.yul\":2668:2787   */\n    tag_120:\n        /* \"#utility.yul\":2854:2855   */\n      0x00\n        /* \"#utility.yul\":2843:2852   */\n      dup4\n        /* \"#utility.yul\":2839:2856   */\n      add\n        /* \"#utility.yul\":2826:2857   */\n      calldataload\n        /* \"#utility.yul\":2884:2902   */\n      0xffffffffffffffff\n        /* \"#utility.yul\":2876:2882   */\n      dup2\n        /* \"#utility.yul\":2873:2903   */\n      gt\n        /* \"#utility.yul\":2870:2987   */\n      iszero\n      tag_122\n      jumpi\n        /* \"#utility.yul\":2906:2985   */\n      tag_123\n      tag_46\n      jump\t// in\n    tag_123:\n        /* \"#utility.yul\":2870:2987   */\n    tag_122:\n        /* \"#utility.yul\":3011:3074   */\n      tag_124\n        /* \"#utility.yul\":3066:3073   */\n      dup6\n        /* \"#utility.yul\":3057:3063   */\n      dup3\n        /* \"#utility.yul\":3046:3055   */\n      dup7\n        /* \"#utility.yul\":3042:3064   */\n      add\n        /* \"#utility.yul\":3011:3074   */\n      tag_56\n      jump\t// in\n    tag_124:\n        /* \"#utility.yul\":3001:3074   */\n      swap3\n      pop\n        /* \"#utility.yul\":2797:3084   */\n      pop\n        /* \"#utility.yul\":3151:3153   */\n      0x20\n        /* \"#utility.yul\":3140:3149   */\n      dup4\n        /* \"#utility.yul\":3136:3154   */\n      add\n        /* \"#utility.yul\":3123:3155   */\n      calldataload\n        /* \"#utility.yul\":3182:3200   */\n      0xffffffffffffffff\n        /* \"#utility.yul\":3174:3180   */\n      dup2\n        /* \"#utility.yul\":3171:3201   */\n      gt\n        /* \"#utility.yul\":3168:3285   */\n      iszero\n      tag_125\n      jumpi\n        /* \"#utility.yul\":3204:3283   */\n      tag_126\n      tag_46\n      jump\t// in\n    tag_126:\n        /* \"#utility.yul\":3168:3285   */\n    tag_125:\n        /* \"#utility.yul\":3309:3372   */\n      tag_127\n        /* \"#utility.yul\":3364:3371   */\n      dup6\n        /* \"#utility.yul\":3355:3361   */\n      dup3\n        /* \"#utility.yul\":3344:3353   */\n      dup7\n        /* \"#utility.yul\":3340:3362   */\n      add\n        /* \"#utility.yul\":3309:3372   */\n      tag_56\n      jump\t// in\n    tag_127:\n        /* \"#utility.yul\":3299:3372   */\n      swap2\n      pop\n        /* \"#utility.yul\":3094:3382   */\n      pop\n        /* \"#utility.yul\":2555:3389   */\n      swap3\n      pop\n      swap3\n      swap1\n      pop\n      jump\t// out\n        /* \"#utility.yul\":3395:3472   */\n    tag_57:\n        /* \"#utility.yul\":3432:3439   */\n      0x00\n        /* \"#utility.yul\":3461:3466   */\n      dup2\n        /* \"#utility.yul\":3450:3466   */\n      swap1\n      pop\n        /* \"#utility.yul\":3395:3472   */\n      swap2\n      swap1\n      pop\n      jump\t// out\n        /* \"#utility.yul\":3478:3596   */\n    tag_58:\n        /* \"#utility.yul\":3565:3589   */\n      tag_130\n        /* \"#utility.yul\":3583:3588   */\n      dup2\n        /* \"#utility.yul\":3565:3589   */\n      tag_57\n      jump\t// in\n    tag_130:\n        /* \"#utility.yul\":3560:3563   */\n      dup3\n        /* \"#utility.yul\":3553:3590   */\n      mstore\n        /* \"#utility.yul\":3478:3596   */\n      pop\n      pop\n      jump\t// out\n        /* \"#utility.yul\":3602:3824   */\n    tag_10:\n        /* \"#utility.yul\":3695:3699   */\n      0x00\n        /* \"#utility.yul\":3733:3735   */\n      0x20\n        /* \"#utility.yul\":3722:3731   */\n      dup3\n        /* \"#utility.yul\":3718:3736   */\n      add\n        /* \"#utility.yul\":3710:3736   */\n      swap1\n      pop\n        /* \"#utility.yul\":3746:3817   */\n      tag_132\n        /* \"#utility.yul\":3814:3815   */\n      0x00\n        /* \"#utility.yul\":3803:3812   */\n      dup4\n        /* \"#utility.yul\":3799:3816   */\n      add\n        /* \"#utility.yul\":3790:3796   */\n      dup5\n        /* \"#utility.yul\":3746:3817   */\n      tag_58\n      jump\t// in\n    tag_132:\n        /* \"#utility.yul\":3602:3824   */\n      swap3\n      swap2\n      pop\n      pop\n      jump\t// out\n        /* \"#utility.yul\":3830:4339   */\n    tag_13:\n        /* \"#utility.yul\":3899:3905   */\n      0x00\n        /* \"#utility.yul\":3948:3950   */\n      0x20\n        /* \"#utility.yul\":3936:3945   */\n      dup3\n        /* \"#utility.yul\":3927:3934   */\n      dup5\n        /* \"#utility.yul\":3923:3946   */\n      sub\n        /* \"#utility.yul\":3919:3951   */\n      slt\n        /* \"#utility.yul\":3916:4035   */\n      iszero\n      tag_134\n      jumpi\n        /* \"#utility.yul\":3954:4033   */\n      tag_135\n      tag_45\n      jump\t// in\n    tag_135:\n        /* \"#utility.yul\":3916:4035   */\n    tag_134:\n        /* \"#utility.yul\":4102:4103   */\n      0x00\n        /* \"#utility.yul\":4091:4100   */\n      dup3\n        /* \"#utility.yul\":4087:4104   */\n      add\n        /* \"#utility.yul\":4074:4105   */\n      calldataload\n        /* \"#utility.yul\":4132:4150   */\n      0xffffffffffffffff\n        /* \"#utility.yul\":4124:4130   */\n      dup2\n        /* \"#utility.yul\":4121:4151   */\n      gt\n        /* \"#utility.yul\":4118:4235   */\n      iszero\n      tag_136\n      jumpi\n        /* \"#utility.yul\":4154:4233   */\n      tag_137\n      tag_46\n      jump\t// in\n    tag_137:\n        /* \"#utility.yul\":4118:4235   */\n    tag_136:\n        /* \"#utility.yul\":4259:4322   */\n      tag_138\n        /* \"#utility.yul\":4314:4321   */\n      dup5\n        /* \"#utility.yul\":4305:4311   */\n      dup3\n        /* \"#utility.yul\":4294:4303   */\n      dup6\n        /* \"#utility.yul\":4290:4312   */\n      add\n        /* \"#utility.yul\":4259:4322   */\n      tag_56\n      jump\t// in\n    tag_138:\n        /* \"#utility.yul\":4249:4322   */\n      swap2\n      pop\n        /* \"#utility.yul\":4045:4332   */\n      pop\n        /* \"#utility.yul\":3830:4339   */\n      swap3\n      swap2\n      pop\n      pop\n      jump\t// out\n        /* \"#utility.yul\":4345:4525   */\n    tag_59:\n        /* \"#utility.yul\":4393:4470   */\n      0x4e487b7100000000000000000000000000000000000000000000000000000000\n        /* \"#utility.yul\":4390:4391   */\n      0x00\n        /* \"#utility.yul\":4383:4471   */\n      mstore\n        /* \"#utility.yul\":4490:4494   */\n      0x22\n        /* \"#utility.yul\":4487:4488   */\n      0x04\n        /* \"#utility.yul\":4480:4495   */\n      mstore\n        /* \"#utility.yul\":4514:4518   */\n      0x24\n        /* \"#utility.yul\":4511:4512   */\n      0x00\n        /* \"#utility.yul\":4504:4519   */\n      revert\n        /* \"#utility.yul\":4531:4851   */\n    tag_20:\n        /* \"#utility.yul\":4575:4581   */\n      0x00\n        /* \"#utility.yul\":4612:4613   */\n      0x02\n        /* \"#utility.yul\":4606:4610   */\n      dup3\n        /* \"#utility.yul\":4602:4614   */\n      div\n        /* \"#utility.yul\":4592:4614   */\n      swap1\n      pop\n        /* \"#utility.yul\":4659:4660   */\n      0x01\n        /* \"#utility.yul\":4653:4657   */\n      dup3\n        /* \"#utility.yul\":4649:4661   */\n      and\n        /* \"#utility.yul\":4680:4698   */\n      dup1\n        /* \"#utility.yul\":4670:4751   */\n      tag_141\n      jumpi\n        /* \"#utility.yul\":4736:4740   */\n      0x7f\n        /* \"#utility.yul\":4728:4734   */\n      dup3\n        /* \"#utility.yul\":4724:4741   */\n      and\n        /* \"#utility.yul\":4714:4741   */\n      swap2\n      pop\n        /* \"#utility.yul\":4670:4751   */\n    tag_141:\n        /* \"#utility.yul\":4798:4800   */\n      0x20\n        /* \"#utility.yul\":4790:4796   */\n      dup3\n        /* \"#utility.yul\":4787:4801   */\n      lt\n        /* \"#utility.yul\":4767:4785   */\n      dup2\n        /* \"#utility.yul\":4764:4802   */\n      sub\n        /* \"#utility.yul\":4761:4845   */\n      tag_142\n      jumpi\n        /* \"#utility.yul\":4817:4835   */\n      tag_143\n      tag_59\n      jump\t// in\n    tag_143:\n        /* \"#utility.yul\":4761:4845   */\n    tag_142:\n        /* \"#utility.yul\":4582:4851   */\n      pop\n        /* \"#utility.yul\":4531:4851   */\n      swap2\n      swap1\n      pop\n      jump\t// out\n        /* \"#utility.yul\":4857:4981   */\n    tag_60:\n        /* \"#utility.yul\":4934:4940   */\n      0x00\n        /* \"#utility.yul\":4968:4973   */\n      dup2\n        /* \"#utility.yul\":4962:4974   */\n      mload\n        /* \"#utility.yul\":4952:4974   */\n      swap1\n      pop\n        /* \"#utility.yul\":4857:4981   */\n      swap2\n      swap1\n      pop\n      jump\t// out\n        /* \"#utility.yul\":4987:5189   */\n    tag_61:\n        /* \"#utility.yul\":5104:5115   */\n      0x00\n        /* \"#utility.yul\":5138:5144   */\n      dup3\n        /* \"#utility.yul\":5133:5136   */\n      dup3\n        /* \"#utility.yul\":5126:5145   */\n      mstore\n        /* \"#utility.yul\":5178:5182   */\n      0x20\n        /* \"#utility.yul\":5173:5176   */\n      dup3\n        /* \"#utility.yul\":5169:5183   */\n      add\n        /* \"#utility.yul\":5154:5183   */\n      swap1\n      pop\n        /* \"#utility.yul\":4987:5189   */\n      swap3\n      swap2\n      pop\n      pop\n      jump\t// out\n        /* \"#utility.yul\":5195:5337   */\n    tag_62:\n        /* \"#utility.yul\":5272:5276   */\n      0x00\n        /* \"#utility.yul\":5295:5298   */\n      dup2\n        /* \"#utility.yul\":5287:5298   */\n      swap1\n      pop\n        /* \"#utility.yul\":5325:5329   */\n      0x20\n        /* \"#utility.yul\":5320:5323   */\n      dup3\n        /* \"#utility.yul\":5316:5330   */\n      add\n        /* \"#utility.yul\":5308:5330   */\n      swap1\n      pop\n        /* \"#utility.yul\":5195:5337   */\n      swap2\n      swap1\n      pop\n      jump\t// out\n        /* \"#utility.yul\":5343:5442   */\n    tag_63:\n        /* \"#utility.yul\":5395:5401   */\n      0x00\n        /* \"#utility.yul\":5429:5434   */\n      dup2\n        /* \"#utility.yul\":5423:5435   */\n      mload\n        /* \"#utility.yul\":5413:5435   */\n      swap1\n      pop\n        /* \"#utility.yul\":5343:5442   */\n      swap2\n      swap1\n      pop\n      jump\t// out\n        /* \"#utility.yul\":5448:5615   */\n    tag_64:\n        /* \"#utility.yul\":5530:5541   */\n      0x00\n        /* \"#utility.yul\":5564:5570   */\n      dup3\n        /* \"#utility.yul\":5559:5562   */\n      dup3\n        /* \"#utility.yul\":5552:5571   */\n      mstore\n        /* \"#utility.yul\":5604:5608   */\n      0x20\n        /* \"#utility.yul\":5599:5602   */\n      dup3\n        /* \"#utility.yul\":5595:5609   */\n      add\n        /* \"#utility.yul\":5580:5609   */\n      swap1\n      pop\n        /* \"#utility.yul\":5448:5615   */\n      swap3\n      swap2\n      pop\n      pop\n      jump\t// out\n        /* \"#utility.yul\":5621:5760   */\n    tag_65:\n        /* \"#utility.yul\":5710:5716   */\n      dup3\n        /* \"#utility.yul\":5705:5708   */\n      dup2\n        /* \"#utility.yul\":5700:5703   */\n      dup4\n        /* \"#utility.yul\":5694:5717   */\n      mcopy\n        /* \"#utility.yul\":5751:5752   */\n      0x00\n        /* \"#utility.yul\":5742:5748   */\n      dup4\n        /* \"#utility.yul\":5737:5740   */\n      dup4\n        /* \"#utility.yul\":5733:5749   */\n      add\n        /* \"#utility.yul\":5726:5753   */\n      mstore\n        /* \"#utility.yul\":5621:5760   */\n      pop\n      pop\n      pop\n      jump\t// out\n        /* \"#utility.yul\":5766:6139   */\n    tag_66:\n        /* \"#utility.yul\":5852:5855   */\n      0x00\n        /* \"#utility.yul\":5880:5919   */\n      tag_151\n        /* \"#utility.yul\":5913:5918   */\n      dup3\n        /* \"#utility.yul\":5880:5919   */\n      tag_63\n      jump\t// in\n    tag_151:\n        /* \"#utility.yul\":5935:6004   */\n      tag_152\n        /* \"#utility.yul\":5997:6003   */\n      dup2\n        /* \"#utility.yul\":5992:5995   */\n      dup6\n        /* \"#utility.yul\":5935:6004   */\n      tag_64\n      jump\t// in\n    tag_152:\n        /* \"#utility.yul\":5928:6004   */\n      swap4\n      pop\n        /* \"#utility.yul\":6013:6078   */\n      tag_153\n        /* \"#utility.yul\":6071:6077   */\n      dup2\n        /* \"#utility.yul\":6066:6069   */\n      dup6\n        /* \"#utility.yul\":6059:6063   */\n      0x20\n        /* \"#utility.yul\":6052:6057   */\n      dup7\n        /* \"#utility.yul\":6048:6064   */\n      add\n        /* \"#utility.yul\":6013:6078   */\n      tag_65\n      jump\t// in\n    tag_153:\n        /* \"#utility.yul\":6103:6132   */\n      tag_154\n        /* \"#utility.yul\":6125:6131   */\n      dup2\n        /* \"#utility.yul\":6103:6132   */\n      tag_49\n      jump\t// in\n    tag_154:\n        /* \"#utility.yul\":6098:6101   */\n      dup5\n        /* \"#utility.yul\":6094:6133   */\n      add\n        /* \"#utility.yul\":6087:6133   */\n      swap2\n      pop\n        /* \"#utility.yul\":5856:6139   */\n      pop\n        /* \"#utility.yul\":5766:6139   */\n      swap3\n      swap2\n      pop\n      pop\n      jump\t// out\n        /* \"#utility.yul\":6145:6357   */\n    tag_67:\n        /* \"#utility.yul\":6242:6252   */\n      0x00\n        /* \"#utility.yul\":6277:6351   */\n      tag_156\n        /* \"#utility.yul\":6347:6350   */\n      dup4\n        /* \"#utility.yul\":6339:6345   */\n      dup4\n        /* \"#utility.yul\":6277:6351   */\n      tag_66\n      jump\t// in\n    tag_156:\n        /* \"#utility.yul\":6263:6351   */\n      swap1\n      pop\n        /* \"#utility.yul\":6145:6357   */\n      swap3\n      swap2\n      pop\n      pop\n      jump\t// out\n        /* \"#utility.yul\":6363:6486   */\n    tag_68:\n        /* \"#utility.yul\":6443:6447   */\n      0x00\n        /* \"#utility.yul\":6475:6479   */\n      0x20\n        /* \"#utility.yul\":6470:6473   */\n      dup3\n        /* \"#utility.yul\":6466:6480   */\n      add\n        /* \"#utility.yul\":6458:6480   */\n      swap1\n      pop\n        /* \"#utility.yul\":6363:6486   */\n      swap2\n      swap1\n      pop\n      jump\t// out\n        /* \"#utility.yul\":6520:7535   */\n    tag_69:\n        /* \"#utility.yul\":6667:6670   */\n      0x00\n        /* \"#utility.yul\":6696:6760   */\n      tag_159\n        /* \"#utility.yul\":6754:6759   */\n      dup3\n        /* \"#utility.yul\":6696:6760   */\n      tag_60\n      jump\t// in\n    tag_159:\n        /* \"#utility.yul\":6776:6880   */\n      tag_160\n        /* \"#utility.yul\":6873:6879   */\n      dup2\n        /* \"#utility.yul\":6868:6871   */\n      dup6\n        /* \"#utility.yul\":6776:6880   */\n      tag_61\n      jump\t// in\n    tag_160:\n        /* \"#utility.yul\":6769:6880   */\n      swap4\n      pop\n        /* \"#utility.yul\":6906:6909   */\n      dup4\n        /* \"#utility.yul\":6951:6955   */\n      0x20\n        /* \"#utility.yul\":6943:6949   */\n      dup3\n        /* \"#utility.yul\":6939:6956   */\n      mul\n        /* \"#utility.yul\":6934:6937   */\n      dup6\n        /* \"#utility.yul\":6930:6957   */\n      add\n        /* \"#utility.yul\":6981:7047   */\n      tag_161\n        /* \"#utility.yul\":7041:7046   */\n      dup6\n        /* \"#utility.yul\":6981:7047   */\n      tag_62\n      jump\t// in\n    tag_161:\n        /* \"#utility.yul\":7070:7077   */\n      dup1\n        /* \"#utility.yul\":7101:7102   */\n      0x00\n        /* \"#utility.yul\":7086:7490   */\n    tag_162:\n        /* \"#utility.yul\":7111:7117   */\n      dup6\n        /* \"#utility.yul\":7108:7109   */\n      dup2\n        /* \"#utility.yul\":7105:7118   */\n      lt\n        /* \"#utility.yul\":7086:7490   */\n      iszero\n      tag_164\n      jumpi\n        /* \"#utility.yul\":7182:7191   */\n      dup5\n        /* \"#utility.yul\":7176:7180   */\n      dup5\n        /* \"#utility.yul\":7172:7192   */\n      sub\n        /* \"#utility.yul\":7167:7170   */\n      dup10\n        /* \"#utility.yul\":7160:7193   */\n      mstore\n        /* \"#utility.yul\":7233:7239   */\n      dup2\n        /* \"#utility.yul\":7227:7240   */\n      mload\n        /* \"#utility.yul\":7261:7353   */\n      tag_165\n        /* \"#utility.yul\":7348:7352   */\n      dup6\n        /* \"#utility.yul\":7333:7346   */\n      dup3\n        /* \"#utility.yul\":7261:7353   */\n      tag_67\n      jump\t// in\n    tag_165:\n        /* \"#utility.yul\":7253:7353   */\n      swap5\n      pop\n        /* \"#utility.yul\":7376:7446   */\n      tag_166\n        /* \"#utility.yul\":7439:7445   */\n      dup4\n        /* \"#utility.yul\":7376:7446   */\n      tag_68\n      jump\t// in\n    tag_166:\n        /* \"#utility.yul\":7366:7446   */\n      swap3\n      pop\n        /* \"#utility.yul\":7475:7479   */\n      0x20\n        /* \"#utility.yul\":7470:7473   */\n      dup11\n        /* \"#utility.yul\":7466:7480   */\n      add\n        /* \"#utility.yul\":7459:7480   */\n      swap10\n      pop\n        /* \"#utility.yul\":7146:7490   */\n      pop\n        /* \"#utility.yul\":7133:7134   */\n      0x01\n        /* \"#utility.yul\":7130:7131   */\n      dup2\n        /* \"#utility.yul\":7126:7135   */\n      add\n        /* \"#utility.yul\":7121:7135   */\n      swap1\n      pop\n        /* \"#utility.yul\":7086:7490   */\n      jump(tag_162)\n    tag_164:\n        /* \"#utility.yul\":7090:7104   */\n      pop\n        /* \"#utility.yul\":7506:7510   */\n      dup3\n        /* \"#utility.yul\":7499:7510   */\n      swap8\n      pop\n        /* \"#utility.yul\":7526:7529   */\n      dup8\n        /* \"#utility.yul\":7519:7529   */\n      swap6\n      pop\n        /* \"#utility.yul\":6672:7535   */\n      pop\n      pop\n      pop\n      pop\n      pop\n        /* \"#utility.yul\":6520:7535   */\n      swap3\n      swap2\n      pop\n      pop\n      jump\t// out\n        /* \"#utility.yul\":7541:7718   */\n    tag_70:\n        /* \"#utility.yul\":7633:7644   */\n      0x00\n        /* \"#utility.yul\":7667:7673   */\n      dup3\n        /* \"#utility.yul\":7662:7665   */\n      dup3\n        /* \"#utility.yul\":7655:7674   */\n      mstore\n        /* \"#utility.yul\":7707:7711   */\n      0x20\n        /* \"#utility.yul\":7702:7705   */\n      dup3\n        /* \"#utility.yul\":7698:7712   */\n      add\n        /* \"#utility.yul\":7683:7712   */\n      swap1\n      pop\n        /* \"#utility.yul\":7541:7718   */\n      swap3\n      swap2\n      pop\n      pop\n      jump\t// out\n        /* \"#utility.yul\":7724:8117   */\n    tag_71:\n        /* \"#utility.yul\":7820:7823   */\n      0x00\n        /* \"#utility.yul\":7848:7887   */\n      tag_169\n        /* \"#utility.yul\":7881:7886   */\n      dup3\n        /* \"#utility.yul\":7848:7887   */\n      tag_63\n      jump\t// in\n    tag_169:\n        /* \"#utility.yul\":7903:7982   */\n      tag_170\n        /* \"#utility.yul\":7975:7981   */\n      dup2\n        /* \"#utility.yul\":7970:7973   */\n      dup6\n        /* \"#utility.yul\":7903:7982   */\n      tag_70\n      jump\t// in\n    tag_170:\n        /* \"#utility.yul\":7896:7982   */\n      swap4\n      pop\n        /* \"#utility.yul\":7991:8056   */\n      tag_171\n        /* \"#utility.yul\":8049:8055   */\n      dup2\n        /* \"#utility.yul\":8044:8047   */\n      dup6\n        /* \"#utility.yul\":8037:8041   */\n      0x20\n        /* \"#utility.yul\":8030:8035   */\n      dup7\n        /* \"#utility.yul\":8026:8042   */\n      add\n        /* \"#utility.yul\":7991:8056   */\n      tag_65\n      jump\t// in\n    tag_171:\n        /* \"#utility.yul\":8081:8110   */\n      tag_172\n        /* \"#utility.yul\":8103:8109   */\n      dup2\n        /* \"#utility.yul\":8081:8110   */\n      tag_49\n      jump\t// in\n    tag_172:\n        /* \"#utility.yul\":8076:8079   */\n      dup5\n        /* \"#utility.yul\":8072:8111   */\n      add\n        /* \"#utility.yul\":8065:8111   */\n      swap2\n      pop\n        /* \"#utility.yul\":7824:8117   */\n      pop\n        /* \"#utility.yul\":7724:8117   */\n      swap3\n      swap2\n      pop\n      pop\n      jump\t// out\n        /* \"#utility.yul\":8123:8761   */\n    tag_26:\n        /* \"#utility.yul\":8342:8346   */\n      0x00\n        /* \"#utility.yul\":8380:8382   */\n      0x40\n        /* \"#utility.yul\":8369:8378   */\n      dup3\n        /* \"#utility.yul\":8365:8383   */\n      add\n        /* \"#utility.yul\":8357:8383   */\n      swap1\n      pop\n        /* \"#utility.yul\":8429:8438   */\n      dup2\n        /* \"#utility.yul\":8423:8427   */\n      dup2\n        /* \"#utility.yul\":8419:8439   */\n      sub\n        /* \"#utility.yul\":8415:8416   */\n      0x00\n        /* \"#utility.yul\":8404:8413   */\n      dup4\n        /* \"#utility.yul\":8400:8417   */\n      add\n        /* \"#utility.yul\":8393:8440   */\n      mstore\n        /* \"#utility.yul\":8457:8593   */\n      tag_174\n        /* \"#utility.yul\":8588:8592   */\n      dup2\n        /* \"#utility.yul\":8579:8585   */\n      dup6\n        /* \"#utility.yul\":8457:8593   */\n      tag_69\n      jump\t// in\n    tag_174:\n        /* \"#utility.yul\":8449:8593   */\n      swap1\n      pop\n        /* \"#utility.yul\":8640:8649   */\n      dup2\n        /* \"#utility.yul\":8634:8638   */\n      dup2\n        /* \"#utility.yul\":8630:8650   */\n      sub\n        /* \"#utility.yul\":8625:8627   */\n      0x20\n        /* \"#utility.yul\":8614:8623   */\n      dup4\n        /* \"#utility.yul\":8610:8628   */\n      add\n        /* \"#utility.yul\":8603:8651   */\n      mstore\n        /* \"#utility.yul\":8668:8754   */\n      tag_175\n        /* \"#utility.yul\":8749:8753   */\n      dup2\n        /* \"#utility.yul\":8740:8746   */\n      dup5\n        /* \"#utility.yul\":8668:8754   */\n      tag_71\n      jump\t// in\n    tag_175:\n        /* \"#utility.yul\":8660:8754   */\n      swap1\n      pop\n        /* \"#utility.yul\":8123:8761   */\n      swap4\n      swap3\n      pop\n      pop\n      pop\n      jump\t// out\n        /* \"#utility.yul\":8767:8889   */\n    tag_72:\n        /* \"#utility.yul\":8840:8864   */\n      tag_177\n        /* \"#utility.yul\":8858:8863   */\n      dup2\n        /* \"#utility.yul\":8840:8864   */\n      tag_57\n      jump\t// in\n    tag_177:\n        /* \"#utility.yul\":8833:8838   */\n      dup2\n        /* \"#utility.yul\":8830:8865   */\n      eq\n        /* \"#utility.yul\":8820:8883   */\n      tag_178\n      jumpi\n        /* \"#utility.yul\":8879:8880   */\n      0x00\n        /* \"#utility.yul\":8876:8877   */\n      dup1\n        /* \"#utility.yul\":8869:8881   */\n      revert\n        /* \"#utility.yul\":8820:8883   */\n    tag_178:\n        /* \"#utility.yul\":8767:8889   */\n      pop\n      jump\t// out\n        /* \"#utility.yul\":8895:9038   */\n    tag_73:\n        /* \"#utility.yul\":8952:8957   */\n      0x00\n        /* \"#utility.yul\":8983:8989   */\n      dup2\n        /* \"#utility.yul\":8977:8990   */\n      mload\n        /* \"#utility.yul\":8968:8990   */\n      swap1\n      pop\n        /* \"#utility.yul\":8999:9032   */\n      tag_180\n        /* \"#utility.yul\":9026:9031   */\n      dup2\n        /* \"#utility.yul\":8999:9032   */\n      tag_72\n      jump\t// in\n    tag_180:\n        /* \"#utility.yul\":8895:9038   */\n      swap3\n      swap2\n      pop\n      pop\n      jump\t// out\n        /* \"#utility.yul\":9044:9395   */\n    tag_30:\n        /* \"#utility.yul\":9114:9120   */\n      0x00\n        /* \"#utility.yul\":9163:9165   */\n      0x20\n        /* \"#utility.yul\":9151:9160   */\n      dup3\n        /* \"#utility.yul\":9142:9149   */\n      dup5\n        /* \"#utility.yul\":9138:9161   */\n      sub\n        /* \"#utility.yul\":9134:9166   */\n      slt\n        /* \"#utility.yul\":9131:9250   */\n      iszero\n      tag_182\n      jumpi\n        /* \"#utility.yul\":9169:9248   */\n      tag_183\n      tag_45\n      jump\t// in\n    tag_183:\n        /* \"#utility.yul\":9131:9250   */\n    tag_182:\n        /* \"#utility.yul\":9289:9290   */\n      0x00\n        /* \"#utility.yul\":9314:9378   */\n      tag_184\n        /* \"#utility.yul\":9370:9377   */\n      dup5\n        /* \"#utility.yul\":9361:9367   */\n      dup3\n        /* \"#utility.yul\":9350:9359   */\n      dup6\n        /* \"#utility.yul\":9346:9368   */\n      add\n        /* \"#utility.yul\":9314:9378   */\n      tag_73\n      jump\t// in\n    tag_184:\n        /* \"#utility.yul\":9304:9378   */\n      swap2\n      pop\n        /* \"#utility.yul\":9260:9388   */\n      pop\n        /* \"#utility.yul\":9044:9395   */\n      swap3\n      swap2\n      pop\n      pop\n      jump\t// out\n        /* \"#utility.yul\":9401:9581   */\n    tag_34:\n        /* \"#utility.yul\":9449:9526   */\n      0x4e487b7100000000000000000000000000000000000000000000000000000000\n        /* \"#utility.yul\":9446:9447   */\n      0x00\n        /* \"#utility.yul\":9439:9527   */\n      mstore\n        /* \"#utility.yul\":9546:9550   */\n      0x32\n        /* \"#utility.yul\":9543:9544   */\n      0x04\n        /* \"#utility.yul\":9536:9551   */\n      mstore\n        /* \"#utility.yul\":9570:9574   */\n      0x24\n        /* \"#utility.yul\":9567:9568   */\n      0x00\n        /* \"#utility.yul\":9560:9575   */\n      revert\n        /* \"#utility.yul\":9587:9728   */\n    tag_74:\n        /* \"#utility.yul\":9636:9640   */\n      0x00\n        /* \"#utility.yul\":9659:9662   */\n      dup2\n        /* \"#utility.yul\":9651:9662   */\n      swap1\n      pop\n        /* \"#utility.yul\":9682:9685   */\n      dup2\n        /* \"#utility.yul\":9679:9680   */\n      0x00\n        /* \"#utility.yul\":9672:9686   */\n      mstore\n        /* \"#utility.yul\":9716:9720   */\n      0x20\n        /* \"#utility.yul\":9713:9714   */\n      0x00\n        /* \"#utility.yul\":9703:9721   */\n      keccak256\n        /* \"#utility.yul\":9695:9721   */\n      swap1\n      pop\n        /* \"#utility.yul\":9587:9728   */\n      swap2\n      swap1\n      pop\n      jump\t// out\n        /* \"#utility.yul\":9734:9827   */\n    tag_75:\n        /* \"#utility.yul\":9771:9777   */\n      0x00\n        /* \"#utility.yul\":9818:9820   */\n      0x20\n        /* \"#utility.yul\":9813:9815   */\n      0x1f\n        /* \"#utility.yul\":9806:9811   */\n      dup4\n        /* \"#utility.yul\":9802:9816   */\n      add\n        /* \"#utility.yul\":9798:9821   */\n      div\n        /* \"#utility.yul\":9788:9821   */\n      swap1\n      pop\n        /* \"#utility.yul\":9734:9827   */\n      swap2\n      swap1\n      pop\n      jump\t// out\n        /* \"#utility.yul\":9833:9940   */\n    tag_76:\n        /* \"#utility.yul\":9877:9885   */\n      0x00\n        /* \"#utility.yul\":9927:9932   */\n      dup3\n        /* \"#utility.yul\":9921:9925   */\n      dup3\n        /* \"#utility.yul\":9917:9933   */\n      shl\n        /* \"#utility.yul\":9896:9933   */\n      swap1\n      pop\n        /* \"#utility.yul\":9833:9940   */\n      swap3\n      swap2\n      pop\n      pop\n      jump\t// out\n        /* \"#utility.yul\":9946:10339   */\n    tag_77:\n        /* \"#utility.yul\":10015:10021   */\n      0x00\n        /* \"#utility.yul\":10065:10066   */\n      0x08\n        /* \"#utility.yul\":10053:10063   */\n      dup4\n        /* \"#utility.yul\":10049:10067   */\n      mul\n        /* \"#utility.yul\":10088:10185   */\n      tag_190\n        /* \"#utility.yul\":10118:10184   */\n      0xffffffffffffffffffffffffffffffffffffffffffffffffffffffffffffffff\n        /* \"#utility.yul\":10107:10116   */\n      dup3\n        /* \"#utility.yul\":10088:10185   */\n      tag_76\n      jump\t// in\n    tag_190:\n        /* \"#utility.yul\":10206:10245   */\n      tag_191\n        /* \"#utility.yul\":10236:10244   */\n      dup7\n        /* \"#utility.yul\":10225:10234   */\n      dup4\n        /* \"#utility.yul\":10206:10245   */\n      tag_76\n      jump\t// in\n    tag_191:\n        /* \"#utility.yul\":10194:10245   */\n      swap6\n      pop\n        /* \"#utility.yul\":10278:10282   */\n      dup1\n        /* \"#utility.yul\":10274:10283   */\n      not\n        /* \"#utility.yul\":10267:10272   */\n      dup5\n        /* \"#utility.yul\":10263:10284   */\n      and\n        /* \"#utility.yul\":10254:10284   */\n      swap4\n      pop\n        /* \"#utility.yul\":10327:10331   */\n      dup1\n        /* \"#utility.yul\":10317:10325   */\n      dup7\n        /* \"#utility.yul\":10313:10332   */\n      and\n        /* \"#utility.yul\":10306:10311   */\n      dup5\n        /* \"#utility.yul\":10303:10333   */\n      or\n        /* \"#utility.yul\":10293:10333   */\n      swap3\n      pop\n        /* \"#utility.yul\":10022:10339   */\n      pop\n      pop\n        /* \"#utility.yul\":9946:10339   */\n      swap4\n      swap3\n      pop\n      pop\n      pop\n      jump\t// out\n        /* \"#utility.yul\":10345:10405   */\n    tag_78:\n        /* \"#utility.yul\":10373:10376   */\n      0x00\n        /* \"#utility.yul\":10394:10399   */\n      dup2\n        /* \"#utility.yul\":10387:10399   */\n      swap1\n      pop\n        /* \"#utility.yul\":10345:10405   */\n      swap2\n      swap1\n      pop\n      jump\t// out\n        /* \"#utility.yul\":10411:10553   */\n    tag_79:\n        /* \"#utility.yul\":10461:10470   */\n      0x00\n        /* \"#utility.yul\":10494:10547   */\n      tag_194\n        /* \"#utility.yul\":10512:10546   */\n      tag_195\n        /* \"#utility.yul\":10521:10545   */\n      tag_196\n        /* \"#utility.yul\":10539:10544   */\n      dup5\n        /* \"#utility.yul\":10521:10545   */\n      tag_57\n      jump\t// in\n    tag_196:\n        /* \"#utility.yul\":10512:10546   */\n      tag_78\n      jump\t// in\n    tag_195:\n        /* \"#utility.yul\":10494:10547   */\n      tag_57\n      jump\t// in\n    tag_194:\n        /* \"#utility.yul\":10481:10547   */\n      swap1\n      pop\n        /* \"#utility.yul\":10411:10553   */\n      swap2\n      swap1\n      pop\n      jump\t// out\n        /* \"#utility.yul\":10559:10634   */\n    tag_80:\n        /* \"#utility.yul\":10602:10605   */\n      0x00\n        /* \"#utility.yul\":10623:10628   */\n      dup2\n        /* \"#utility.yul\":10616:10628   */\n      swap1\n      pop\n        /* \"#utility.yul\":10559:10634   */\n      swap2\n      swap1\n      pop\n      jump\t// out\n        /* \"#utility.yul\":10640:10909   */\n    tag_81:\n        /* \"#utility.yul\":10750:10789   */\n      tag_199\n        /* \"#utility.yul\":10781:10788   */\n      dup4\n        /* \"#utility.yul\":10750:10789   */\n      tag_79\n      jump\t// in\n    tag_199:\n        /* \"#utility.yul\":10811:10902   */\n      tag_200\n        /* \"#utility.yul\":10860:10901   */\n      tag_201\n        /* \"#utility.yul\":10884:10900   */\n      dup3\n        /* \"#utility.yul\":10860:10901   */\n      tag_80\n      jump\t// in\n    tag_201:\n        /* \"#utility.yul\":10852:10858   */\n      dup5\n        /* \"#utility.yul\":10845:10849   */\n      dup5\n        /* \"#utility.yul\":10839:10850   */\n      sload\n        /* \"#utility.yul\":10811:10902   */\n      tag_77\n      jump\t// in\n    tag_200:\n        /* \"#utility.yul\":10805:10809   */\n      dup3\n        /* \"#utility.yul\":10798:10903   */\n      sstore\n        /* \"#utility.yul\":10716:10909   */\n      pop\n        /* \"#utility.yul\":10640:10909   */\n      pop\n      pop\n      pop\n      jump\t// out\n        /* \"#utility.yul\":10915:10988   */\n    tag_82:\n        /* \"#utility.yul\":10960:10963   */\n      0x00\n        /* \"#utility.yul\":10915:10988   */\n      swap1\n      jump\t// out\n        /* \"#utility.yul\":10994:11183   */\n    tag_83:\n        /* \"#utility.yul\":11071:11103   */\n      tag_204\n      tag_82\n      jump\t// in\n    tag_204:\n        /* \"#utility.yul\":11112:11177   */\n      tag_205\n        /* \"#utility.yul\":11170:11176   */\n      dup2\n        /* \"#utility.yul\":11162:11168   */\n      dup5\n        /* \"#utility.yul\":11156:11160   */\n      dup5\n        /* \"#utility.yul\":11112:11177   */\n      tag_81\n      jump\t// in\n    tag_205:\n        /* \"#utility.yul\":11047:11183   */\n      pop\n        /* \"#utility.yul\":10994:11183   */\n      pop\n      pop\n      jump\t// out\n        /* \"#utility.yul\":11189:11375   */\n    tag_84:\n        /* \"#utility.yul\":11249:11369   */\n    tag_207:\n        /* \"#utility.yul\":11266:11269   */\n      dup2\n        /* \"#utility.yul\":11259:11264   */\n      dup2\n        /* \"#utility.yul\":11256:11270   */\n      lt\n        /* \"#utility.yul\":11249:11369   */\n      iszero\n      tag_209\n      jumpi\n        /* \"#utility.yul\":11320:11359   */\n      tag_210\n        /* \"#utility.yul\":11357:11358   */\n      0x00\n        /* \"#utility.yul\":11350:11355   */\n      dup3\n        /* \"#utility.yul\":11320:11359   */\n      tag_83\n      jump\t// in\n    tag_210:\n        /* \"#utility.yul\":11293:11294   */\n      0x01\n        /* \"#utility.yul\":11286:11291   */\n      dup2\n        /* \"#utility.yul\":11282:11295   */\n      add\n        /* \"#utility.yul\":11273:11295   */\n      swap1\n      pop\n        /* \"#utility.yul\":11249:11369   */\n      jump(tag_207)\n    tag_209:\n        /* \"#utility.yul\":11189:11375   */\n      pop\n      pop\n      jump\t// out\n        /* \"#utility.yul\":11381:11924   */\n    tag_85:\n        /* \"#utility.yul\":11482:11484   */\n      0x1f\n        /* \"#utility.yul\":11477:11480   */\n      dup3\n        /* \"#utility.yul\":11474:11485   */\n      gt\n        /* \"#utility.yul\":11471:11917   */\n      iszero\n      tag_212\n      jumpi\n        /* \"#utility.yul\":11516:11554   */\n      tag_213\n        /* \"#utility.yul\":11548:11553   */\n      dup2\n        /* \"#utility.yul\":11516:11554   */\n      tag_74\n      jump\t// in\n    tag_213:\n        /* \"#utility.yul\":11600:11629   */\n      tag_214\n        /* \"#utility.yul\":11618:11628   */\n      dup5\n        /* \"#utility.yul\":11600:11629   */\n      tag_75\n      jump\t// in\n    tag_214:\n        /* \"#utility.yul\":11590:11598   */\n      dup2\n        /* \"#utility.yul\":11586:11630   */\n      add\n        /* \"#utility.yul\":11783:11785   */\n      0x20\n        /* \"#utility.yul\":11771:11781   */\n      dup6\n        /* \"#utility.yul\":11768:11786   */\n      lt\n        /* \"#utility.yul\":11765:11814   */\n      iszero\n      tag_215\n      jumpi\n        /* \"#utility.yul\":11804:11812   */\n      dup2\n        /* \"#utility.yul\":11789:11812   */\n      swap1\n      pop\n        /* \"#utility.yul\":11765:11814   */\n    tag_215:\n        /* \"#utility.yul\":11827:11907   */\n      tag_216\n        /* \"#utility.yul\":11883:11905   */\n      tag_217\n        /* \"#utility.yul\":11901:11904   */\n      dup6\n        /* \"#utility.yul\":11883:11905   */\n      tag_75\n      jump\t// in\n    tag_217:\n        /* \"#utility.yul\":11873:11881   */\n      dup4\n        /* \"#utility.yul\":11869:11906   */\n      add\n        /* \"#utility.yul\":11856:11867   */\n      dup3\n        /* \"#utility.yul\":11827:11907   */\n      tag_84\n      jump\t// in\n    tag_216:\n        /* \"#utility.yul\":11486:11917   */\n      pop\n      pop\n        /* \"#utility.yul\":11471:11917   */\n    tag_212:\n        /* \"#utility.yul\":11381:11924   */\n      pop\n      pop\n      pop\n      jump\t// out\n        /* \"#utility.yul\":11930:12047   */\n    tag_86:\n        /* \"#utility.yul\":11984:11992   */\n      0x00\n        /* \"#utility.yul\":12034:12039   */\n      dup3\n        /* \"#utility.yul\":12028:12032   */\n      dup3\n        /* \"#utility.yul\":12024:12040   */\n      shr\n        /* \"#utility.yul\":12003:12040   */\n      swap1\n      pop\n        /* \"#utility.yul\":11930:12047   */\n      swap3\n      swap2\n      pop\n      pop\n      jump\t// out\n        /* \"#utility.yul\":12053:12222   */\n    tag_87:\n        /* \"#utility.yul\":12097:12103   */\n      0x00\n        /* \"#utility.yul\":12130:12181   */\n      tag_220\n        /* \"#utility.yul\":12178:12179   */\n      0x00\n        /* \"#utility.yul\":12174:12180   */\n      not\n        /* \"#utility.yul\":12166:12171   */\n      dup5\n        /* \"#utility.yul\":12163:12164   */\n      0x08\n        /* \"#utility.yul\":12159:12172   */\n      mul\n        /* \"#utility.yul\":12130:12181   */\n      tag_86\n      jump\t// in\n    tag_220:\n        /* \"#utility.yul\":12126:12182   */\n      not\n        /* \"#utility.yul\":12211:12215   */\n      dup1\n        /* \"#utility.yul\":12205:12209   */\n      dup4\n        /* \"#utility.yul\":12201:12216   */\n      and\n        /* \"#utility.yul\":12191:12216   */\n      swap2\n      pop\n        /* \"#utility.yul\":12104:12222   */\n      pop\n        /* \"#utility.yul\":12053:12222   */\n      swap3\n      swap2\n      pop\n      pop\n      jump\t// out\n        /* \"#utility.yul\":12227:12522   */\n    tag_88:\n        /* \"#utility.yul\":12303:12307   */\n      0x00\n        /* \"#utility.yul\":12449:12478   */\n      tag_222\n        /* \"#utility.yul\":12474:12477   */\n      dup4\n        /* \"#utility.yul\":12468:12472   */\n      dup4\n        /* \"#utility.yul\":12449:12478   */\n      tag_87\n      jump\t// in\n    tag_222:\n        /* \"#utility.yul\":12441:12478   */\n      swap2\n      pop\n        /* \"#utility.yul\":12511:12514   */\n      dup3\n        /* \"#utility.yul\":12508:12509   */\n      0x02\n        /* \"#utility.yul\":12504:12515   */\n      mul\n        /* \"#utility.yul\":12498:12502   */\n      dup3\n        /* \"#utility.yul\":12495:12516   */\n      or\n        /* \"#utility.yul\":12487:12516   */\n      swap1\n      pop\n        /* \"#utility.yul\":12227:12522   */\n      swap3\n      swap2\n      pop\n      pop\n      jump\t// out\n        /* \"#utility.yul\":12527:13922   */\n    tag_37:\n        /* \"#utility.yul\":12644:12681   */\n      tag_224\n        /* \"#utility.yul\":12677:12680   */\n      dup3\n        /* \"#utility.yul\":12644:12681   */\n      tag_63\n      jump\t// in\n    tag_224:\n        /* \"#utility.yul\":12746:12764   */\n      0xffffffffffffffff\n        /* \"#utility.yul\":12738:12744   */\n      dup2\n        /* \"#utility.yul\":12735:12765   */\n      gt\n        /* \"#utility.yul\":12732:12788   */\n      iszero\n      tag_225\n      jumpi\n        /* \"#utility.yul\":12768:12786   */\n      tag_226\n      tag_50\n      jump\t// in\n    tag_226:\n        /* \"#utility.yul\":12732:12788   */\n    tag_225:\n        /* \"#utility.yul\":12812:12850   */\n      tag_227\n        /* \"#utility.yul\":12844:12848   */\n      dup3\n        /* \"#utility.yul\":12838:12849   */\n      sload\n        /* \"#utility.yul\":12812:12850   */\n      tag_20\n      jump\t// in\n    tag_227:\n        /* \"#utility.yul\":12897:12964   */\n      tag_228\n        /* \"#utility.yul\":12957:12963   */\n      dup3\n        /* \"#utility.yul\":12949:12955   */\n      dup3\n        /* \"#utility.yul\":12943:12947   */\n      dup6\n        /* \"#utility.yul\":12897:12964   */\n      tag_85\n      jump\t// in\n    tag_228:\n        /* \"#utility.yul\":12991:12992   */\n      0x00\n        /* \"#utility.yul\":13015:13019   */\n      0x20\n        /* \"#utility.yul\":13002:13019   */\n      swap1\n      pop\n        /* \"#utility.yul\":13047:13049   */\n      0x1f\n        /* \"#utility.yul\":13039:13045   */\n      dup4\n        /* \"#utility.yul\":13036:13050   */\n      gt\n        /* \"#utility.yul\":13064:13065   */\n      0x01\n        /* \"#utility.yul\":13059:13677   */\n      dup2\n      eq\n      tag_230\n      jumpi\n        /* \"#utility.yul\":13721:13722   */\n      0x00\n        /* \"#utility.yul\":13738:13744   */\n      dup5\n        /* \"#utility.yul\":13735:13812   */\n      iszero\n      tag_231\n      jumpi\n        /* \"#utility.yul\":13787:13796   */\n      dup3\n        /* \"#utility.yul\":13782:13785   */\n      dup8\n        /* \"#utility.yul\":13778:13797   */\n      add\n        /* \"#utility.yul\":13772:13798   */\n      mload\n        /* \"#utility.yul\":13763:13798   */\n      swap1\n      pop\n        /* \"#utility.yul\":13735:13812   */\n    tag_231:\n        /* \"#utility.yul\":13838:13905   */\n      tag_232\n        /* \"#utility.yul\":13898:13904   */\n      dup6\n        /* \"#utility.yul\":13891:13896   */\n      dup3\n        /* \"#utility.yul\":13838:13905   */\n      tag_88\n      jump\t// in\n    tag_232:\n        /* \"#utility.yul\":13832:13836   */\n      dup7\n        /* \"#utility.yul\":13825:13906   */\n      sstore\n        /* \"#utility.yul\":13694:13916   */\n      pop\n        /* \"#utility.yul\":13029:13916   */\n      jump(tag_229)\n        /* \"#utility.yul\":13059:13677   */\n    tag_230:\n        /* \"#utility.yul\":13111:13115   */\n      0x1f\n        /* \"#utility.yul\":13107:13116   */\n      not\n        /* \"#utility.yul\":13099:13105   */\n      dup5\n        /* \"#utility.yul\":13095:13117   */\n      and\n        /* \"#utility.yul\":13145:13182   */\n      tag_233\n        /* \"#utility.yul\":13177:13181   */\n      dup7\n        /* \"#utility.yul\":13145:13182   */\n      tag_74\n      jump\t// in\n    tag_233:\n        /* \"#utility.yul\":13204:13205   */\n      0x00\n        /* \"#utility.yul\":13218:13426   */\n    tag_234:\n        /* \"#utility.yul\":13232:13239   */\n      dup3\n        /* \"#utility.yul\":13229:13230   */\n      dup2\n        /* \"#utility.yul\":13226:13240   */\n      lt\n        /* \"#utility.yul\":13218:13426   */\n      iszero\n      tag_236\n      jumpi\n        /* \"#utility.yul\":13311:13320   */\n      dup5\n        /* \"#utility.yul\":13306:13309   */\n      dup10\n        /* \"#utility.yul\":13302:13321   */\n      add\n        /* \"#utility.yul\":13296:13322   */\n      mload\n        /* \"#utility.yul\":13288:13294   */\n      dup3\n        /* \"#utility.yul\":13281:13323   */\n      sstore\n        /* \"#utility.yul\":13362:13363   */\n      0x01\n        /* \"#utility.yul\":13354:13360   */\n      dup3\n        /* \"#utility.yul\":13350:13364   */\n      add\n        /* \"#utility.yul\":13340:13364   */\n      swap2\n      pop\n        /* \"#utility.yul\":13409:13411   */\n      0x20\n        /* \"#utility.yul\":13398:13407   */\n      dup6\n        /* \"#utility.yul\":13394:13412   */\n      add\n        /* \"#utility.yul\":13381:13412   */\n      swap5\n      pop\n        /* \"#utility.yul\":13255:13259   */\n      0x20\n        /* \"#utility.yul\":13252:13253   */\n      dup2\n        /* \"#utility.yul\":13248:13260   */\n      add\n        /* \"#utility.yul\":13243:13260   */\n      swap1\n      pop\n        /* \"#utility.yul\":13218:13426   */\n      jump(tag_234)\n    tag_236:\n        /* \"#utility.yul\":13454:13460   */\n      dup7\n        /* \"#utility.yul\":13445:13452   */\n      dup4\n        /* \"#utility.yul\":13442:13461   */\n      lt\n        /* \"#utility.yul\":13439:13618   */\n      iszero\n      tag_237\n      jumpi\n        /* \"#utility.yul\":13512:13521   */\n      dup5\n        /* \"#utility.yul\":13507:13510   */\n      dup10\n        /* \"#utility.yul\":13503:13522   */\n      add\n        /* \"#utility.yul\":13497:13523   */\n      mload\n        /* \"#utility.yul\":13555:13603   */\n      tag_238\n        /* \"#utility.yul\":13597:13601   */\n      0x1f\n        /* \"#utility.yul\":13589:13595   */\n      dup10\n        /* \"#utility.yul\":13585:13602   */\n      and\n        /* \"#utility.yul\":13574:13583   */\n      dup3\n        /* \"#utility.yul\":13555:13603   */\n      tag_87\n      jump\t// in\n    tag_238:\n        /* \"#utility.yul\":13547:13553   */\n      dup4\n        /* \"#utility.yul\":13540:13604   */\n      sstore\n        /* \"#utility.yul\":13462:13618   */\n      pop\n        /* \"#utility.yul\":13439:13618   */\n    tag_237:\n        /* \"#utility.yul\":13664:13665   */\n      0x01\n        /* \"#utility.yul\":13660:13661   */\n      0x02\n        /* \"#utility.yul\":13652:13658   */\n      dup9\n        /* \"#utility.yul\":13648:13662   */\n      mul\n        /* \"#utility.yul\":13644:13666   */\n      add\n        /* \"#utility.yul\":13638:13642   */\n      dup9\n        /* \"#utility.yul\":13631:13667   */\n      sstore\n        /* \"#utility.yul\":13066:13677   */\n      pop\n      pop\n      pop\n        /* \"#utility.yul\":13029:13916   */\n    tag_229:\n      pop\n        /* \"#utility.yul\":12619:13922   */\n      pop\n      pop\n      pop\n        /* \"#utility.yul\":12527:13922   */\n      pop\n      pop\n      jump\t// out\n\n    auxdata: 0xa2646970667358221220fb87c8d6a40efb63af7184c4d5a607f5cc864a6b2a0601fb24980c582b0a4c7664736f6c634300081a0033\n}\n",
				"bytecode": {
					"linkReferences": {
						"contracts/02/LibrarySearch.sol": {
							"Search": [
								{
									"length": 20,
									"start": 368
								}
							]
						}
					},
					"object": "6080604052348015600e575f80fd5b506109c38061001c5f395ff3fe608060405234801561000f575f80fd5b5060043610610034575f3560e01c806361aef8cd1461003857806386cdbae914610068575b5f80fd5b610052600480360381019061004d91906103bc565b610084565b60405161005f919061044a565b60405180910390f35b610082600480360381019061007d9190610463565b61023b565b005b5f805f805480602002602001604051908101604052809291908181526020015f905b8282101561014e578382905f5260205f200180546100c3906104d7565b80601f01602080910402602001604051908101604052809291908181526020018280546100ef906104d7565b801561013a5780601f106101115761010080835404028352916020019161013a565b820191905f5260205f20905b81548152906001019060200180831161011d57829003601f168201915b5050505050815260200190600101906100a6565b5050505073__$61cd12603487726a83eff0bce9e8c455f7$__631b4e5b949091866040518363ffffffff1660e01b815260040161018c92919061066a565b602060405180830381865af41580156101a7573d5f803e3d5ffd5b505050506040513d601f19601f820116820180604052508101906101cb91906106c9565b90505f811461020257825f82815481106101e8576101e76106f4565b5b905f5260205f200190816101fc91906108be565b50610234565b5f83908060018154018082558091505060019003905f5260205f20015f90919091909150908161023291906108be565b505b5092915050565b5f81908060018154018082558091505060019003905f5260205f20015f90919091909150908161026b91906108be565b5050565b5f604051905090565b5f80fd5b5f80fd5b5f80fd5b5f80fd5b5f601f19601f8301169050919050565b7f4e487b71000000000000000000000000000000000000000000000000000000005f52604160045260245ffd5b6102ce82610288565b810181811067ffffffffffffffff821117156102ed576102ec610298565b5b80604052505050565b5f6102ff61026f565b905061030b82826102c5565b919050565b5f67ffffffffffffffff82111561032a57610329610298565b5b61033382610288565b9050602081019050919050565b828183375f83830152505050565b5f61036061035b84610310565b6102f6565b90508281526020810184848401111561037c5761037b610284565b5b610387848285610340565b509392505050565b5f82601f8301126103a3576103a2610280565b5b81356103b384826020860161034e565b91505092915050565b5f80604083850312156103d2576103d1610278565b5b5f83013567ffffffffffffffff8111156103ef576103ee61027c565b5b6103fb8582860161038f565b925050602083013567ffffffffffffffff81111561041c5761041b61027c565b5b6104288582860161038f565b9150509250929050565b5f819050919050565b61044481610432565b82525050565b5f60208201905061045d5f83018461043b565b92915050565b5f6020828403121561047857610477610278565b5b5f82013567ffffffffffffffff8111156104955761049461027c565b5b6104a18482850161038f565b91505092915050565b7f4e487b71000000000000000000000000000000000000000000000000000000005f52602260045260245ffd5b5f60028204905060018216806104ee57607f821691505b602082108103610501576105006104aa565b5b50919050565b5f81519050919050565b5f82825260208201905092915050565b5f819050602082019050919050565b5f81519050919050565b5f82825260208201905092915050565b8281835e5f83830152505050565b5f61056282610530565b61056c818561053a565b935061057c81856020860161054a565b61058581610288565b840191505092915050565b5f61059b8383610558565b905092915050565b5f602082019050919050565b5f6105b982610507565b6105c38185610511565b9350836020820285016105d585610521565b805f5b8581101561061057848403895281516105f18582610590565b94506105fc836105a3565b925060208a019950506001810190506105d8565b50829750879550505050505092915050565b5f82825260208201905092915050565b5f61063c82610530565b6106468185610622565b935061065681856020860161054a565b61065f81610288565b840191505092915050565b5f6040820190508181035f83015261068281856105af565b905081810360208301526106968184610632565b90509392505050565b6106a881610432565b81146106b2575f80fd5b50565b5f815190506106c38161069f565b92915050565b5f602082840312156106de576106dd610278565b5b5f6106eb848285016106b5565b91505092915050565b7f4e487b71000000000000000000000000000000000000000000000000000000005f52603260045260245ffd5b5f819050815f5260205f209050919050565b5f6020601f8301049050919050565b5f82821b905092915050565b5f6008830261077d7fffffffffffffffffffffffffffffffffffffffffffffffffffffffffffffffff82610742565b6107878683610742565b95508019841693508086168417925050509392505050565b5f819050919050565b5f6107c26107bd6107b884610432565b61079f565b610432565b9050919050565b5f819050919050565b6107db836107a8565b6107ef6107e7826107c9565b84845461074e565b825550505050565b5f90565b6108036107f7565b61080e8184846107d2565b505050565b5b81811015610831576108265f826107fb565b600181019050610814565b5050565b601f8211156108765761084781610721565b61085084610733565b8101602085101561085f578190505b61087361086b85610733565b830182610813565b50505b505050565b5f82821c905092915050565b5f6108965f198460080261087b565b1980831691505092915050565b5f6108ae8383610887565b9150826002028217905092915050565b6108c782610530565b67ffffffffffffffff8111156108e0576108df610298565b5b6108ea82546104d7565b6108f5828285610835565b5f60209050601f831160018114610926575f8415610914578287015190505b61091e85826108a3565b865550610985565b601f19841661093486610721565b5f5b8281101561095b57848901518255600182019150602085019450602081019050610936565b868310156109785784890151610974601f891682610887565b8355505b6001600288020188555050505b50505050505056fea2646970667358221220fb87c8d6a40efb63af7184c4d5a607f5cc864a6b2a0601fb24980c582b0a4c7664736f6c634300081a0033",
					"opcodes": "PUSH1 0x80 PUSH1 0x40 MSTORE CALLVALUE DUP1 ISZERO PUSH1 0xE JUMPI PUSH0 DUP1 REVERT JUMPDEST POP PUSH2 0x9C3 DUP1 PUSH2 0x1C PUSH0 CODECOPY PUSH0 RETURN INVALID PUSH1 0x80 PUSH1 0x40 MSTORE CALLVALUE DUP1 ISZERO PUSH2 0xF JUMPI PUSH0 DUP1 REVERT JUMPDEST POP PUSH1 0x4 CALLDATASIZE LT PUSH2 0x34 JUMPI PUSH0 CALLDATALOAD PUSH1 0xE0 SHR DUP1 PUSH4 0x61AEF8CD EQ PUSH2 0x38 JUMPI DUP1 PUSH4 0x86CDBAE9 EQ PUSH2 0x68 JUMPI JUMPDEST PUSH0 DUP1 REVERT JUMPDEST PUSH2 0x52 PUSH1 0x4 DUP1 CALLDATASIZE SUB DUP2 ADD SWAP1 PUSH2 0x4D SWAP2 SWAP1 PUSH2 0x3BC JUMP JUMPDEST PUSH2 0x84 JUMP JUMPDEST PUSH1 0x40 MLOAD PUSH2 0x5F SWAP2 SWAP1 PUSH2 0x44A JUMP JUMPDEST PUSH1 0x40 MLOAD DUP1 SWAP2 SUB SWAP1 RETURN JUMPDEST PUSH2 0x82 PUSH1 0x4 DUP1 CALLDATASIZE SUB DUP2 ADD SWAP1 PUSH2 0x7D SWAP2 SWAP1 PUSH2 0x463 JUMP JUMPDEST PUSH2 0x23B JUMP JUMPDEST STOP JUMPDEST PUSH0 DUP1 PUSH0 DUP1 SLOAD DUP1 PUSH1 0x20 MUL PUSH1 0x20 ADD PUSH1 0x40 MLOAD SWAP1 DUP2 ADD PUSH1 0x40 MSTORE DUP1 SWAP3 SWAP2 SWAP1 DUP2 DUP2 MSTORE PUSH1 0x20 ADD PUSH0 SWAP1 JUMPDEST DUP3 DUP3 LT ISZERO PUSH2 0x14E JUMPI DUP4 DUP3 SWAP1 PUSH0 MSTORE PUSH1 0x20 PUSH0 KECCAK256 ADD DUP1 SLOAD PUSH2 0xC3 SWAP1 PUSH2 0x4D7 JUMP JUMPDEST DUP1 PUSH1 0x1F ADD PUSH1 0x20 DUP1 SWAP2 DIV MUL PUSH1 0x20 ADD PUSH1 0x40 MLOAD SWAP1 DUP2 ADD PUSH1 0x40 MSTORE DUP1 SWAP3 SWAP2 SWAP1 DUP2 DUP2 MSTORE PUSH1 0x20 ADD DUP3 DUP1 SLOAD PUSH2 0xEF SWAP1 PUSH2 0x4D7 JUMP JUMPDEST DUP1 ISZERO PUSH2 0x13A JUMPI DUP1 PUSH1 0x1F LT PUSH2 0x111 JUMPI PUSH2 0x100 DUP1 DUP4 SLOAD DIV MUL DUP4 MSTORE SWAP2 PUSH1 0x20 ADD SWAP2 PUSH2 0x13A JUMP JUMPDEST DUP3 ADD SWAP2 SWAP1 PUSH0 MSTORE PUSH1 0x20 PUSH0 KECCAK256 SWAP1 JUMPDEST DUP2 SLOAD DUP2 MSTORE SWAP1 PUSH1 0x1 ADD SWAP1 PUSH1 0x20 ADD DUP1 DUP4 GT PUSH2 0x11D JUMPI DUP3 SWAP1 SUB PUSH1 0x1F AND DUP3 ADD SWAP2 JUMPDEST POP POP POP POP POP DUP2 MSTORE PUSH1 0x20 ADD SWAP1 PUSH1 0x1 ADD SWAP1 PUSH2 0xA6 JUMP JUMPDEST POP POP POP POP PUSH20 0x0 PUSH4 0x1B4E5B94 SWAP1 SWAP2 DUP7 PUSH1 0x40 MLOAD DUP4 PUSH4 0xFFFFFFFF AND PUSH1 0xE0 SHL DUP2 MSTORE PUSH1 0x4 ADD PUSH2 0x18C SWAP3 SWAP2 SWAP1 PUSH2 0x66A JUMP JUMPDEST PUSH1 0x20 PUSH1 0x40 MLOAD DUP1 DUP4 SUB DUP2 DUP7 GAS DELEGATECALL ISZERO DUP1 ISZERO PUSH2 0x1A7 JUMPI RETURNDATASIZE PUSH0 DUP1 RETURNDATACOPY RETURNDATASIZE PUSH0 REVERT JUMPDEST POP POP POP POP PUSH1 0x40 MLOAD RETURNDATASIZE PUSH1 0x1F NOT PUSH1 0x1F DUP3 ADD AND DUP3 ADD DUP1 PUSH1 0x40 MSTORE POP DUP2 ADD SWAP1 PUSH2 0x1CB SWAP2 SWAP1 PUSH2 0x6C9 JUMP JUMPDEST SWAP1 POP PUSH0 DUP2 EQ PUSH2 0x202 JUMPI DUP3 PUSH0 DUP3 DUP2 SLOAD DUP2 LT PUSH2 0x1E8 JUMPI PUSH2 0x1E7 PUSH2 0x6F4 JUMP JUMPDEST JUMPDEST SWAP1 PUSH0 MSTORE PUSH1 0x20 PUSH0 KECCAK256 ADD SWAP1 DUP2 PUSH2 0x1FC SWAP2 SWAP1 PUSH2 0x8BE JUMP JUMPDEST POP PUSH2 0x234 JUMP JUMPDEST PUSH0 DUP4 SWAP1 DUP1 PUSH1 0x1 DUP2 SLOAD ADD DUP1 DUP3 SSTORE DUP1 SWAP2 POP POP PUSH1 0x1 SWAP1 SUB SWAP1 PUSH0 MSTORE PUSH1 0x20 PUSH0 KECCAK256 ADD PUSH0 SWAP1 SWAP2 SWAP1 SWAP2 SWAP1 SWAP2 POP SWAP1 DUP2 PUSH2 0x232 SWAP2 SWAP1 PUSH2 0x8BE JUMP JUMPDEST POP JUMPDEST POP SWAP3 SWAP2 POP POP JUMP JUMPDEST PUSH0 DUP2 SWAP1 DUP1 PUSH1 0x1 DUP2 SLOAD ADD DUP1 DUP3 SSTORE DUP1 SWAP2 POP POP PUSH1 0x1 SWAP1 SUB SWAP1 PUSH0 MSTORE PUSH1 0x20 PUSH0 KECCAK256 ADD PUSH0 SWAP1 SWAP2 SWAP1 SWAP2 SWAP1 SWAP2 POP SWAP1 DUP2 PUSH2 0x26B SWAP2 SWAP1 PUSH2 0x8BE JUMP JUMPDEST POP POP JUMP JUMPDEST PUSH0 PUSH1 0x40 MLOAD SWAP1 POP SWAP1 JUMP JUMPDEST PUSH0 DUP1 REVERT JUMPDEST PUSH0 DUP1 REVERT JUMPDEST PUSH0 DUP1 REVERT JUMPDEST PUSH0 DUP1 REVERT JUMPDEST PUSH0 PUSH1 0x1F NOT PUSH1 0x1F DUP4 ADD AND SWAP1 POP SWAP2 SWAP1 POP JUMP JUMPDEST PUSH32 0x4E487B7100000000000000000000000000000000000000000000000000000000 PUSH0 MSTORE PUSH1 0x41 PUSH1 0x4 MSTORE PUSH1 0x24 PUSH0 REVERT JUMPDEST PUSH2 0x2CE DUP3 PUSH2 0x288 JUMP JUMPDEST DUP2 ADD DUP2 DUP2 LT PUSH8 0xFFFFFFFFFFFFFFFF DUP3 GT OR ISZERO PUSH2 0x2ED JUMPI PUSH2 0x2EC PUSH2 0x298 JUMP JUMPDEST JUMPDEST DUP1 PUSH1 0x40 MSTORE POP POP POP JUMP JUMPDEST PUSH0 PUSH2 0x2FF PUSH2 0x26F JUMP JUMPDEST SWAP1 POP PUSH2 0x30B DUP3 DUP3 PUSH2 0x2C5 JUMP JUMPDEST SWAP2 SWAP1 POP JUMP JUMPDEST PUSH0 PUSH8 0xFFFFFFFFFFFFFFFF DUP3 GT ISZERO PUSH2 0x32A JUMPI PUSH2 0x329 PUSH2 0x298 JUMP JUMPDEST JUMPDEST PUSH2 0x333 DUP3 PUSH2 0x288 JUMP JUMPDEST SWAP1 POP PUSH1 0x20 DUP2 ADD SWAP1 POP SWAP2 SWAP1 POP JUMP JUMPDEST DUP3 DUP2 DUP4 CALLDATACOPY PUSH0 DUP4 DUP4 ADD MSTORE POP POP POP JUMP JUMPDEST PUSH0 PUSH2 0x360 PUSH2 0x35B DUP5 PUSH2 0x310 JUMP JUMPDEST PUSH2 0x2F6 JUMP JUMPDEST SWAP1 POP DUP3 DUP2 MSTORE PUSH1 0x20 DUP2 ADD DUP5 DUP5 DUP5 ADD GT ISZERO PUSH2 0x37C JUMPI PUSH2 0x37B PUSH2 0x284 JUMP JUMPDEST JUMPDEST PUSH2 0x387 DUP5 DUP3 DUP6 PUSH2 0x340 JUMP JUMPDEST POP SWAP4 SWAP3 POP POP POP JUMP JUMPDEST PUSH0 DUP3 PUSH1 0x1F DUP4 ADD SLT PUSH2 0x3A3 JUMPI PUSH2 0x3A2 PUSH2 0x280 JUMP JUMPDEST JUMPDEST DUP2 CALLDATALOAD PUSH2 0x3B3 DUP5 DUP3 PUSH1 0x20 DUP7 ADD PUSH2 0x34E JUMP JUMPDEST SWAP2 POP POP SWAP3 SWAP2 POP POP JUMP JUMPDEST PUSH0 DUP1 PUSH1 0x40 DUP4 DUP6 SUB SLT ISZERO PUSH2 0x3D2 JUMPI PUSH2 0x3D1 PUSH2 0x278 JUMP JUMPDEST JUMPDEST PUSH0 DUP4 ADD CALLDATALOAD PUSH8 0xFFFFFFFFFFFFFFFF DUP2 GT ISZERO PUSH2 0x3EF JUMPI PUSH2 0x3EE PUSH2 0x27C JUMP JUMPDEST JUMPDEST PUSH2 0x3FB DUP6 DUP3 DUP7 ADD PUSH2 0x38F JUMP JUMPDEST SWAP3 POP POP PUSH1 0x20 DUP4 ADD CALLDATALOAD PUSH8 0xFFFFFFFFFFFFFFFF DUP2 GT ISZERO PUSH2 0x41C JUMPI PUSH2 0x41B PUSH2 0x27C JUMP JUMPDEST JUMPDEST PUSH2 0x428 DUP6 DUP3 DUP7 ADD PUSH2 0x38F JUMP JUMPDEST SWAP2 POP POP SWAP3 POP SWAP3 SWAP1 POP JUMP JUMPDEST PUSH0 DUP2 SWAP1 POP SWAP2 SWAP1 POP JUMP JUMPDEST PUSH2 0x444 DUP2 PUSH2 0x432 JUMP JUMPDEST DUP3 MSTORE POP POP JUMP JUMPDEST PUSH0 PUSH1 0x20 DUP3 ADD SWAP1 POP PUSH2 0x45D PUSH0 DUP4 ADD DUP5 PUSH2 0x43B JUMP JUMPDEST SWAP3 SWAP2 POP POP JUMP JUMPDEST PUSH0 PUSH1 0x20 DUP3 DUP5 SUB SLT ISZERO PUSH2 0x478 JUMPI PUSH2 0x477 PUSH2 0x278 JUMP JUMPDEST JUMPDEST PUSH0 DUP3 ADD CALLDATALOAD PUSH8 0xFFFFFFFFFFFFFFFF DUP2 GT ISZERO PUSH2 0x495 JUMPI PUSH2 0x494 PUSH2 0x27C JUMP JUMPDEST JUMPDEST PUSH2 0x4A1 DUP5 DUP3 DUP6 ADD PUSH2 0x38F JUMP JUMPDEST SWAP2 POP POP SWAP3 SWAP2 POP POP JUMP JUMPDEST PUSH32 0x4E487B7100000000000000000000000000000000000000000000000000000000 PUSH0 MSTORE PUSH1 0x22 PUSH1 0x4 MSTORE PUSH1 0x24 PUSH0 REVERT JUMPDEST PUSH0 PUSH1 0x2 DUP3 DIV SWAP1 POP PUSH1 0x1 DUP3 AND DUP1 PUSH2 0x4EE JUMPI PUSH1 0x7F DUP3 AND SWAP2 POP JUMPDEST PUSH1 0x20 DUP3 LT DUP2 SUB PUSH2 0x501 JUMPI PUSH2 0x500 PUSH2 0x4AA JUMP JUMPDEST JUMPDEST POP SWAP2 SWAP1 POP JUMP JUMPDEST PUSH0 DUP2 MLOAD SWAP1 POP SWAP2 SWAP1 POP JUMP JUMPDEST PUSH0 DUP3 DUP3 MSTORE PUSH1 0x20 DUP3 ADD SWAP1 POP SWAP3 SWAP2 POP POP JUMP JUMPDEST PUSH0 DUP2 SWAP1 POP PUSH1 0x20 DUP3 ADD SWAP1 POP SWAP2 SWAP1 POP JUMP JUMPDEST PUSH0 DUP2 MLOAD SWAP1 POP SWAP2 SWAP1 POP JUMP JUMPDEST PUSH0 DUP3 DUP3 MSTORE PUSH1 0x20 DUP3 ADD SWAP1 POP SWAP3 SWAP2 POP POP JUMP JUMPDEST DUP3 DUP2 DUP4 MCOPY PUSH0 DUP4 DUP4 ADD MSTORE POP POP POP JUMP JUMPDEST PUSH0 PUSH2 0x562 DUP3 PUSH2 0x530 JUMP JUMPDEST PUSH2 0x56C DUP2 DUP6 PUSH2 0x53A JUMP JUMPDEST SWAP4 POP PUSH2 0x57C DUP2 DUP6 PUSH1 0x20 DUP7 ADD PUSH2 0x54A JUMP JUMPDEST PUSH2 0x585 DUP2 PUSH2 0x288 JUMP JUMPDEST DUP5 ADD SWAP2 POP POP SWAP3 SWAP2 POP POP JUMP JUMPDEST PUSH0 PUSH2 0x59B DUP4 DUP4 PUSH2 0x558 JUMP JUMPDEST SWAP1 POP SWAP3 SWAP2 POP POP JUMP JUMPDEST PUSH0 PUSH1 0x20 DUP3 ADD SWAP1 POP SWAP2 SWAP1 POP JUMP JUMPDEST PUSH0 PUSH2 0x5B9 DUP3 PUSH2 0x507 JUMP JUMPDEST PUSH2 0x5C3 DUP2 DUP6 PUSH2 0x511 JUMP JUMPDEST SWAP4 POP DUP4 PUSH1 0x20 DUP3 MUL DUP6 ADD PUSH2 0x5D5 DUP6 PUSH2 0x521 JUMP JUMPDEST DUP1 PUSH0 JUMPDEST DUP6 DUP2 LT ISZERO PUSH2 0x610 JUMPI DUP5 DUP5 SUB DUP10 MSTORE DUP2 MLOAD PUSH2 0x5F1 DUP6 DUP3 PUSH2 0x590 JUMP JUMPDEST SWAP5 POP PUSH2 0x5FC DUP4 PUSH2 0x5A3 JUMP JUMPDEST SWAP3 POP PUSH1 0x20 DUP11 ADD SWAP10 POP POP PUSH1 0x1 DUP2 ADD SWAP1 POP PUSH2 0x5D8 JUMP JUMPDEST POP DUP3 SWAP8 POP DUP8 SWAP6 POP POP POP POP POP POP SWAP3 SWAP2 POP POP JUMP JUMPDEST PUSH0 DUP3 DUP3 MSTORE PUSH1 0x20 DUP3 ADD SWAP1 POP SWAP3 SWAP2 POP POP JUMP JUMPDEST PUSH0 PUSH2 0x63C DUP3 PUSH2 0x530 JUMP JUMPDEST PUSH2 0x646 DUP2 DUP6 PUSH2 0x622 JUMP JUMPDEST SWAP4 POP PUSH2 0x656 DUP2 DUP6 PUSH1 0x20 DUP7 ADD PUSH2 0x54A JUMP JUMPDEST PUSH2 0x65F DUP2 PUSH2 0x288 JUMP JUMPDEST DUP5 ADD SWAP2 POP POP SWAP3 SWAP2 POP POP JUMP JUMPDEST PUSH0 PUSH1 0x40 DUP3 ADD SWAP1 POP DUP2 DUP2 SUB PUSH0 DUP4 ADD MSTORE PUSH2 0x682 DUP2 DUP6 PUSH2 0x5AF JUMP JUMPDEST SWAP1 POP DUP2 DUP2 SUB PUSH1 0x20 DUP4 ADD MSTORE PUSH2 0x696 DUP2 DUP5 PUSH2 0x632 JUMP JUMPDEST SWAP1 POP SWAP4 SWAP3 POP POP POP JUMP JUMPDEST PUSH2 0x6A8 DUP2 PUSH2 0x432 JUMP JUMPDEST DUP2 EQ PUSH2 0x6B2 JUMPI PUSH0 DUP1 REVERT JUMPDEST POP JUMP JUMPDEST PUSH0 DUP2 MLOAD SWAP1 POP PUSH2 0x6C3 DUP2 PUSH2 0x69F JUMP JUMPDEST SWAP3 SWAP2 POP POP JUMP JUMPDEST PUSH0 PUSH1 0x20 DUP3 DUP5 SUB SLT ISZERO PUSH2 0x6DE JUMPI PUSH2 0x6DD PUSH2 0x278 JUMP JUMPDEST JUMPDEST PUSH0 PUSH2 0x6EB DUP5 DUP3 DUP6 ADD PUSH2 0x6B5 JUMP JUMPDEST SWAP2 POP POP SWAP3 SWAP2 POP POP JUMP JUMPDEST PUSH32 0x4E487B7100000000000000000000000000000000000000000000000000000000 PUSH0 MSTORE PUSH1 0x32 PUSH1 0x4 MSTORE PUSH1 0x24 PUSH0 REVERT JUMPDEST PUSH0 DUP2 SWAP1 POP DUP2 PUSH0 MSTORE PUSH1 0x20 PUSH0 KECCAK256 SWAP1 POP SWAP2 SWAP1 POP JUMP JUMPDEST PUSH0 PUSH1 0x20 PUSH1 0x1F DUP4 ADD DIV SWAP1 POP SWAP2 SWAP1 POP JUMP JUMPDEST PUSH0 DUP3 DUP3 SHL SWAP1 POP SWAP3 SWAP2 POP POP JUMP JUMPDEST PUSH0 PUSH1 0x8 DUP4 MUL PUSH2 0x77D PUSH32 0xFFFFFFFFFFFFFFFFFFFFFFFFFFFFFFFFFFFFFFFFFFFFFFFFFFFFFFFFFFFFFFFF DUP3 PUSH2 0x742 JUMP JUMPDEST PUSH2 0x787 DUP7 DUP4 PUSH2 0x742 JUMP JUMPDEST SWAP6 POP DUP1 NOT DUP5 AND SWAP4 POP DUP1 DUP7 AND DUP5 OR SWAP3 POP POP POP SWAP4 SWAP3 POP POP POP JUMP JUMPDEST PUSH0 DUP2 SWAP1 POP SWAP2 SWAP1 POP JUMP JUMPDEST PUSH0 PUSH2 0x7C2 PUSH2 0x7BD PUSH2 0x7B8 DUP5 PUSH2 0x432 JUMP JUMPDEST PUSH2 0x79F JUMP JUMPDEST PUSH2 0x432 JUMP JUMPDEST SWAP1 POP SWAP2 SWAP1 POP JUMP JUMPDEST PUSH0 DUP2 SWAP1 POP SWAP2 SWAP1 POP JUMP JUMPDEST PUSH2 0x7DB DUP4 PUSH2 0x7A8 JUMP JUMPDEST PUSH2 0x7EF PUSH2 0x7E7 DUP3 PUSH2 0x7C9 JUMP JUMPDEST DUP5 DUP5 SLOAD PUSH2 0x74E JUMP JUMPDEST DUP3 SSTORE POP POP POP POP JUMP JUMPDEST PUSH0 SWAP1 JUMP JUMPDEST PUSH2 0x803 PUSH2 0x7F7 JUMP JUMPDEST PUSH2 0x80E DUP2 DUP5 DUP5 PUSH2 0x7D2 JUMP JUMPDEST POP POP POP JUMP JUMPDEST JUMPDEST DUP2 DUP2 LT ISZERO PUSH2 0x831 JUMPI PUSH2 0x826 PUSH0 DUP3 PUSH2 0x7FB JUMP JUMPDEST PUSH1 0x1 DUP2 ADD SWAP1 POP PUSH2 0x814 JUMP JUMPDEST POP POP JUMP JUMPDEST PUSH1 0x1F DUP3 GT ISZERO PUSH2 0x876 JUMPI PUSH2 0x847 DUP2 PUSH2 0x721 JUMP JUMPDEST PUSH2 0x850 DUP5 PUSH2 0x733 JUMP JUMPDEST DUP2 ADD PUSH1 0x20 DUP6 LT ISZERO PUSH2 0x85F JUMPI DUP2 SWAP1 POP JUMPDEST PUSH2 0x873 PUSH2 0x86B DUP6 PUSH2 0x733 JUMP JUMPDEST DUP4 ADD DUP3 PUSH2 0x813 JUMP JUMPDEST POP POP JUMPDEST POP POP POP JUMP JUMPDEST PUSH0 DUP3 DUP3 SHR SWAP1 POP SWAP3 SWAP2 POP POP JUMP JUMPDEST PUSH0 PUSH2 0x896 PUSH0 NOT DUP5 PUSH1 0x8 MUL PUSH2 0x87B JUMP JUMPDEST NOT DUP1 DUP4 AND SWAP2 POP POP SWAP3 SWAP2 POP POP JUMP JUMPDEST PUSH0 PUSH2 0x8AE DUP4 DUP4 PUSH2 0x887 JUMP JUMPDEST SWAP2 POP DUP3 PUSH1 0x2 MUL DUP3 OR SWAP1 POP SWAP3 SWAP2 POP POP JUMP JUMPDEST PUSH2 0x8C7 DUP3 PUSH2 0x530 JUMP JUMPDEST PUSH8 0xFFFFFFFFFFFFFFFF DUP2 GT ISZERO PUSH2 0x8E0 JUMPI PUSH2 0x8DF PUSH2 0x298 JUMP JUMPDEST JUMPDEST PUSH2 0x8EA DUP3 SLOAD PUSH2 0x4D7 JUMP JUMPDEST PUSH2 0x8F5 DUP3 DUP3 DUP6 PUSH2 0x835 JUMP JUMPDEST PUSH0 PUSH1 0x20 SWAP1 POP PUSH1 0x1F DUP4 GT PUSH1 0x1 DUP2 EQ PUSH2 0x926 JUMPI PUSH0 DUP5 ISZERO PUSH2 0x914 JUMPI DUP3 DUP8 ADD MLOAD SWAP1 POP JUMPDEST PUSH2 0x91E DUP6 DUP3 PUSH2 0x8A3 JUMP JUMPDEST DUP7 SSTORE POP PUSH2 0x985 JUMP JUMPDEST PUSH1 0x1F NOT DUP5 AND PUSH2 0x934 DUP7 PUSH2 0x721 JUMP JUMPDEST PUSH0 JUMPDEST DUP3 DUP2 LT ISZERO PUSH2 0x95B JUMPI DUP5 DUP10 ADD MLOAD DUP3 SSTORE PUSH1 0x1 DUP3 ADD SWAP2 POP PUSH1 0x20 DUP6 ADD SWAP5 POP PUSH1 0x20 DUP2 ADD SWAP1 POP PUSH2 0x936 JUMP JUMPDEST DUP7 DUP4 LT ISZERO PUSH2 0x978 JUMPI DUP5 DUP10 ADD MLOAD PUSH2 0x974 PUSH1 0x1F DUP10 AND DUP3 PUSH2 0x887 JUMP JUMPDEST DUP4 SSTORE POP JUMPDEST PUSH1 0x1 PUSH1 0x2 DUP9 MUL ADD DUP9 SSTORE POP POP POP JUMPDEST POP POP POP POP POP POP JUMP INVALID LOG2 PUSH5 0x6970667358 0x22 SLT KECCAK256 0xFB DUP8 0xC8 0xD6 LOG4 0xE 0xFB PUSH4 0xAF7184C4 0xD5 0xA6 SMOD CREATE2 0xCC DUP7 BLOBBASEFEE PUSH12 0x2A0601FB24980C582B0A4C76 PUSH5 0x736F6C6343 STOP ADDMOD BYTE STOP CALLER "
				},
				"gasEstimates": {
					"creation": {
						"codeDepositCost": "499800",
						"executionCost": "535",
						"totalCost": "500335"
					},
					"external": {
						"append(string)": "infinite",
						"replace(string,string)": "infinite"
					}
				},
				"methodIdentifiers": {
					"append(string)": "86cdbae9",
					"replace(string,string)": "61aef8cd"
				}
			},
			"storageLayout": {
				"storage": [
					{
						"astId": 56,
						"contract": "contracts/02/LibrarySearch.sol:SearchTest",
						"label": "data",
						"offset": 0,
						"slot": "0",
						"type": "t_array(t_string_storage)dyn_storage"
					}
				],
				"types": {
					"t_array(t_string_storage)dyn_storage": {
						"base": "t_string_storage",
						"encoding": "dynamic_array",
						"label": "string[]",
						"numberOfBytes": "32"
					},
					"t_string_storage": {
						"encoding": "bytes",
						"label": "string",
						"numberOfBytes": "32"
					}
				}
			},
			"userdoc": {
				"kind": "user",
				"methods": {},
				"version": 1
			}
		}
	}
}