{
	"contracts/02/Interface.sol": {
		"SimpleToken": {
			"abi": [
				{
					"inputs": [],
					"stateMutability": "nonpayable",
					"type": "constructor"
				},
				{
					"inputs": [
						{
							"internalType": "address",
							"name": "",
							"type": "address"
						}
					],
					"name": "balances",
					"outputs": [
						{
							"internalType": "uint256",
							"name": "",
							"type": "uint256"
						}
					],
					"stateMutability": "view",
					"type": "function"
				},
				{
					"inputs": [
						{
							"internalType": "address",
							"name": "recipient",
							"type": "address"
						},
						{
							"internalType": "uint256",
							"name": "amount",
							"type": "uint256"
						}
					],
					"name": "transfer",
					"outputs": [],
					"stateMutability": "nonpayable",
					"type": "function"
				}
			],
			"devdoc": {
				"kind": "dev",
				"methods": {},
				"version": 1
			},
			"evm": {
				"assembly": "    /* \"contracts/02/Interface.sol\":1286:1668  contract SimpleToken is IToken {... */\n  mstore(0x40, 0x80)\n    /* \"contracts/02/Interface.sol\":1374:1433  constructor() {... */\n  callvalue\n  dup1\n  iszero\n  tag_1\n  jumpi\n  0x00\n  dup1\n  revert\ntag_1:\n  pop\n    /* \"contracts/02/Interface.sol\":1421:1426  10000 */\n  0x2710\n    /* \"contracts/02/Interface.sol\":1398:1406  balances */\n  0x00\n    /* \"contracts/02/Interface.sol\":1398:1418  balances[msg.sender] */\n  dup1\n    /* \"contracts/02/Interface.sol\":1407:1417  msg.sender */\n  caller\n    /* \"contracts/02/Interface.sol\":1398:1418  balances[msg.sender] */\n  0xffffffffffffffffffffffffffffffffffffffff\n  and\n  0xffffffffffffffffffffffffffffffffffffffff\n  and\n  dup2\n  mstore\n  0x20\n  add\n  swap1\n  dup2\n  mstore\n  0x20\n  add\n  0x00\n  keccak256\n    /* \"contracts/02/Interface.sol\":1398:1426  balances[msg.sender] = 10000 */\n  dup2\n  swap1\n  sstore\n  pop\n    /* \"contracts/02/Interface.sol\":1286:1668  contract SimpleToken is IToken {... */\n  dataSize(sub_0)\n  dup1\n  dataOffset(sub_0)\n  0x00\n  codecopy\n  0x00\n  return\nstop\n\nsub_0: assembly {\n        /* \"contracts/02/Interface.sol\":1286:1668  contract SimpleToken is IToken {... */\n      mstore(0x40, 0x80)\n      callvalue\n      dup1\n      iszero\n      tag_1\n      jumpi\n      0x00\n      dup1\n      revert\n    tag_1:\n      pop\n      jumpi(tag_2, lt(calldatasize, 0x04))\n      shr(0xe0, calldataload(0x00))\n      dup1\n      0x27e235e3\n      eq\n      tag_3\n      jumpi\n      dup1\n      0xa9059cbb\n      eq\n      tag_4\n      jumpi\n    tag_2:\n      0x00\n      dup1\n      revert\n        /* \"contracts/02/Interface.sol\":1324:1368  mapping (address => uint256) public balances */\n    tag_3:\n      tag_5\n      0x04\n      dup1\n      calldatasize\n      sub\n      dup2\n      add\n      swap1\n      tag_6\n      swap2\n      swap1\n      tag_7\n      jump\t// in\n    tag_6:\n      tag_8\n      jump\t// in\n    tag_5:\n      mload(0x40)\n      tag_9\n      swap2\n      swap1\n      tag_10\n      jump\t// in\n    tag_9:\n      mload(0x40)\n      dup1\n      swap2\n      sub\n      swap1\n      return\n        /* \"contracts/02/Interface.sol\":1438:1666  function transfer(address recipient, uint amount) external override {... */\n    tag_4:\n      tag_11\n      0x04\n      dup1\n      calldatasize\n      sub\n      dup2\n      add\n      swap1\n      tag_12\n      swap2\n      swap1\n      tag_13\n      jump\t// in\n    tag_12:\n      tag_14\n      jump\t// in\n    tag_11:\n      stop\n        /* \"contracts/02/Interface.sol\":1324:1368  mapping (address => uint256) public balances */\n    tag_8:\n      mstore(0x20, 0x00)\n      dup1\n      0x00\n      mstore\n      keccak256(0x00, 0x40)\n      0x00\n      swap2\n      pop\n      swap1\n      pop\n      sload\n      dup2\n      jump\t// out\n        /* \"contracts/02/Interface.sol\":1438:1666  function transfer(address recipient, uint amount) external override {... */\n    tag_14:\n        /* \"contracts/02/Interface.sol\":1548:1554  amount */\n      dup1\n        /* \"contracts/02/Interface.sol\":1524:1532  balances */\n      0x00\n        /* \"contracts/02/Interface.sol\":1524:1544  balances[msg.sender] */\n      dup1\n        /* \"contracts/02/Interface.sol\":1533:1543  msg.sender */\n      caller\n        /* \"contracts/02/Interface.sol\":1524:1544  balances[msg.sender] */\n      0xffffffffffffffffffffffffffffffffffffffff\n      and\n      0xffffffffffffffffffffffffffffffffffffffff\n      and\n      dup2\n      mstore\n      0x20\n      add\n      swap1\n      dup2\n      mstore\n      0x20\n      add\n      0x00\n      keccak256\n      sload\n        /* \"contracts/02/Interface.sol\":1524:1554  balances[msg.sender] >= amount */\n      lt\n      iszero\n        /* \"contracts/02/Interface.sol\":1516:1580  require(balances[msg.sender] >= amount, \"Insufficient balances\") */\n      tag_16\n      jumpi\n      mload(0x40)\n      0x08c379a000000000000000000000000000000000000000000000000000000000\n      dup2\n      mstore\n      0x04\n      add\n      tag_17\n      swap1\n      tag_18\n      jump\t// in\n    tag_17:\n      mload(0x40)\n      dup1\n      swap2\n      sub\n      swap1\n      revert\n    tag_16:\n        /* \"contracts/02/Interface.sol\":1614:1620  amount */\n      dup1\n        /* \"contracts/02/Interface.sol\":1590:1598  balances */\n      0x00\n        /* \"contracts/02/Interface.sol\":1590:1610  balances[msg.sender] */\n      dup1\n        /* \"contracts/02/Interface.sol\":1599:1609  msg.sender */\n      caller\n        /* \"contracts/02/Interface.sol\":1590:1610  balances[msg.sender] */\n      0xffffffffffffffffffffffffffffffffffffffff\n      and\n      0xffffffffffffffffffffffffffffffffffffffff\n      and\n      dup2\n      mstore\n      0x20\n      add\n      swap1\n      dup2\n      mstore\n      0x20\n      add\n      0x00\n      keccak256\n      0x00\n        /* \"contracts/02/Interface.sol\":1590:1620  balances[msg.sender] -= amount */\n      dup3\n      dup3\n      sload\n      tag_19\n      swap2\n      swap1\n      tag_20\n      jump\t// in\n    tag_19:\n      swap3\n      pop\n      pop\n      dup2\n      swap1\n      sstore\n      pop\n        /* \"contracts/02/Interface.sol\":1653:1659  amount */\n      dup1\n        /* \"contracts/02/Interface.sol\":1630:1638  balances */\n      0x00\n        /* \"contracts/02/Interface.sol\":1630:1649  balances[recipient] */\n      dup1\n        /* \"contracts/02/Interface.sol\":1639:1648  recipient */\n      dup5\n        /* \"contracts/02/Interface.sol\":1630:1649  balances[recipient] */\n      0xffffffffffffffffffffffffffffffffffffffff\n      and\n      0xffffffffffffffffffffffffffffffffffffffff\n      and\n      dup2\n      mstore\n      0x20\n      add\n      swap1\n      dup2\n      mstore\n      0x20\n      add\n      0x00\n      keccak256\n      0x00\n        /* \"contracts/02/Interface.sol\":1630:1659  balances[recipient] += amount */\n      dup3\n      dup3\n      sload\n      tag_21\n      swap2\n      swap1\n      tag_22\n      jump\t// in\n    tag_21:\n      swap3\n      pop\n      pop\n      dup2\n      swap1\n      sstore\n      pop\n        /* \"contracts/02/Interface.sol\":1438:1666  function transfer(address recipient, uint amount) external override {... */\n      pop\n      pop\n      jump\t// out\n        /* \"#utility.yul\":88:205   */\n    tag_24:\n        /* \"#utility.yul\":197:198   */\n      0x00\n        /* \"#utility.yul\":194:195   */\n      dup1\n        /* \"#utility.yul\":187:199   */\n      revert\n        /* \"#utility.yul\":334:460   */\n    tag_26:\n        /* \"#utility.yul\":371:378   */\n      0x00\n        /* \"#utility.yul\":411:453   */\n      0xffffffffffffffffffffffffffffffffffffffff\n        /* \"#utility.yul\":404:409   */\n      dup3\n        /* \"#utility.yul\":400:454   */\n      and\n        /* \"#utility.yul\":389:454   */\n      swap1\n      pop\n        /* \"#utility.yul\":334:460   */\n      swap2\n      swap1\n      pop\n      jump\t// out\n        /* \"#utility.yul\":466:562   */\n    tag_27:\n        /* \"#utility.yul\":503:510   */\n      0x00\n        /* \"#utility.yul\":532:556   */\n      tag_44\n        /* \"#utility.yul\":550:555   */\n      dup3\n        /* \"#utility.yul\":532:556   */\n      tag_26\n      jump\t// in\n    tag_44:\n        /* \"#utility.yul\":521:556   */\n      swap1\n      pop\n        /* \"#utility.yul\":466:562   */\n      swap2\n      swap1\n      pop\n      jump\t// out\n        /* \"#utility.yul\":568:690   */\n    tag_28:\n        /* \"#utility.yul\":641:665   */\n      tag_46\n        /* \"#utility.yul\":659:664   */\n      dup2\n        /* \"#utility.yul\":641:665   */\n      tag_27\n      jump\t// in\n    tag_46:\n        /* \"#utility.yul\":634:639   */\n      dup2\n        /* \"#utility.yul\":631:666   */\n      eq\n        /* \"#utility.yul\":621:684   */\n      tag_47\n      jumpi\n        /* \"#utility.yul\":680:681   */\n      0x00\n        /* \"#utility.yul\":677:678   */\n      dup1\n        /* \"#utility.yul\":670:682   */\n      revert\n        /* \"#utility.yul\":621:684   */\n    tag_47:\n        /* \"#utility.yul\":568:690   */\n      pop\n      jump\t// out\n        /* \"#utility.yul\":696:835   */\n    tag_29:\n        /* \"#utility.yul\":742:747   */\n      0x00\n        /* \"#utility.yul\":780:786   */\n      dup2\n        /* \"#utility.yul\":767:787   */\n      calldataload\n        /* \"#utility.yul\":758:787   */\n      swap1\n      pop\n        /* \"#utility.yul\":796:829   */\n      tag_49\n        /* \"#utility.yul\":823:828   */\n      dup2\n        /* \"#utility.yul\":796:829   */\n      tag_28\n      jump\t// in\n    tag_49:\n        /* \"#utility.yul\":696:835   */\n      swap3\n      swap2\n      pop\n      pop\n      jump\t// out\n        /* \"#utility.yul\":841:1170   */\n    tag_7:\n        /* \"#utility.yul\":900:906   */\n      0x00\n        /* \"#utility.yul\":949:951   */\n      0x20\n        /* \"#utility.yul\":937:946   */\n      dup3\n        /* \"#utility.yul\":928:935   */\n      dup5\n        /* \"#utility.yul\":924:947   */\n      sub\n        /* \"#utility.yul\":920:952   */\n      slt\n        /* \"#utility.yul\":917:1036   */\n      iszero\n      tag_51\n      jumpi\n        /* \"#utility.yul\":955:1034   */\n      tag_52\n      tag_24\n      jump\t// in\n    tag_52:\n        /* \"#utility.yul\":917:1036   */\n    tag_51:\n        /* \"#utility.yul\":1075:1076   */\n      0x00\n        /* \"#utility.yul\":1100:1153   */\n      tag_53\n        /* \"#utility.yul\":1145:1152   */\n      dup5\n        /* \"#utility.yul\":1136:1142   */\n      dup3\n        /* \"#utility.yul\":1125:1134   */\n      dup6\n        /* \"#utility.yul\":1121:1143   */\n      add\n        /* \"#utility.yul\":1100:1153   */\n      tag_29\n      jump\t// in\n    tag_53:\n        /* \"#utility.yul\":1090:1153   */\n      swap2\n      pop\n        /* \"#utility.yul\":1046:1163   */\n      pop\n        /* \"#utility.yul\":841:1170   */\n      swap3\n      swap2\n      pop\n      pop\n      jump\t// out\n        /* \"#utility.yul\":1176:1253   */\n    tag_30:\n        /* \"#utility.yul\":1213:1220   */\n      0x00\n        /* \"#utility.yul\":1242:1247   */\n      dup2\n        /* \"#utility.yul\":1231:1247   */\n      swap1\n      pop\n        /* \"#utility.yul\":1176:1253   */\n      swap2\n      swap1\n      pop\n      jump\t// out\n        /* \"#utility.yul\":1259:1377   */\n    tag_31:\n        /* \"#utility.yul\":1346:1370   */\n      tag_56\n        /* \"#utility.yul\":1364:1369   */\n      dup2\n        /* \"#utility.yul\":1346:1370   */\n      tag_30\n      jump\t// in\n    tag_56:\n        /* \"#utility.yul\":1341:1344   */\n      dup3\n        /* \"#utility.yul\":1334:1371   */\n      mstore\n        /* \"#utility.yul\":1259:1377   */\n      pop\n      pop\n      jump\t// out\n        /* \"#utility.yul\":1383:1605   */\n    tag_10:\n        /* \"#utility.yul\":1476:1480   */\n      0x00\n        /* \"#utility.yul\":1514:1516   */\n      0x20\n        /* \"#utility.yul\":1503:1512   */\n      dup3\n        /* \"#utility.yul\":1499:1517   */\n      add\n        /* \"#utility.yul\":1491:1517   */\n      swap1\n      pop\n        /* \"#utility.yul\":1527:1598   */\n      tag_58\n        /* \"#utility.yul\":1595:1596   */\n      0x00\n        /* \"#utility.yul\":1584:1593   */\n      dup4\n        /* \"#utility.yul\":1580:1597   */\n      add\n        /* \"#utility.yul\":1571:1577   */\n      dup5\n        /* \"#utility.yul\":1527:1598   */\n      tag_31\n      jump\t// in\n    tag_58:\n        /* \"#utility.yul\":1383:1605   */\n      swap3\n      swap2\n      pop\n      pop\n      jump\t// out\n        /* \"#utility.yul\":1611:1733   */\n    tag_32:\n        /* \"#utility.yul\":1684:1708   */\n      tag_60\n        /* \"#utility.yul\":1702:1707   */\n      dup2\n        /* \"#utility.yul\":1684:1708   */\n      tag_30\n      jump\t// in\n    tag_60:\n        /* \"#utility.yul\":1677:1682   */\n      dup2\n        /* \"#utility.yul\":1674:1709   */\n      eq\n        /* \"#utility.yul\":1664:1727   */\n      tag_61\n      jumpi\n        /* \"#utility.yul\":1723:1724   */\n      0x00\n        /* \"#utility.yul\":1720:1721   */\n      dup1\n        /* \"#utility.yul\":1713:1725   */\n      revert\n        /* \"#utility.yul\":1664:1727   */\n    tag_61:\n        /* \"#utility.yul\":1611:1733   */\n      pop\n      jump\t// out\n        /* \"#utility.yul\":1739:1878   */\n    tag_33:\n        /* \"#utility.yul\":1785:1790   */\n      0x00\n        /* \"#utility.yul\":1823:1829   */\n      dup2\n        /* \"#utility.yul\":1810:1830   */\n      calldataload\n        /* \"#utility.yul\":1801:1830   */\n      swap1\n      pop\n        /* \"#utility.yul\":1839:1872   */\n      tag_63\n        /* \"#utility.yul\":1866:1871   */\n      dup2\n        /* \"#utility.yul\":1839:1872   */\n      tag_32\n      jump\t// in\n    tag_63:\n        /* \"#utility.yul\":1739:1878   */\n      swap3\n      swap2\n      pop\n      pop\n      jump\t// out\n        /* \"#utility.yul\":1884:2358   */\n    tag_13:\n        /* \"#utility.yul\":1952:1958   */\n      0x00\n        /* \"#utility.yul\":1960:1966   */\n      dup1\n        /* \"#utility.yul\":2009:2011   */\n      0x40\n        /* \"#utility.yul\":1997:2006   */\n      dup4\n        /* \"#utility.yul\":1988:1995   */\n      dup6\n        /* \"#utility.yul\":1984:2007   */\n      sub\n        /* \"#utility.yul\":1980:2012   */\n      slt\n        /* \"#utility.yul\":1977:2096   */\n      iszero\n      tag_65\n      jumpi\n        /* \"#utility.yul\":2015:2094   */\n      tag_66\n      tag_24\n      jump\t// in\n    tag_66:\n        /* \"#utility.yul\":1977:2096   */\n    tag_65:\n        /* \"#utility.yul\":2135:2136   */\n      0x00\n        /* \"#utility.yul\":2160:2213   */\n      tag_67\n        /* \"#utility.yul\":2205:2212   */\n      dup6\n        /* \"#utility.yul\":2196:2202   */\n      dup3\n        /* \"#utility.yul\":2185:2194   */\n      dup7\n        /* \"#utility.yul\":2181:2203   */\n      add\n        /* \"#utility.yul\":2160:2213   */\n      tag_29\n      jump\t// in\n    tag_67:\n        /* \"#utility.yul\":2150:2213   */\n      swap3\n      pop\n        /* \"#utility.yul\":2106:2223   */\n      pop\n        /* \"#utility.yul\":2262:2264   */\n      0x20\n        /* \"#utility.yul\":2288:2341   */\n      tag_68\n        /* \"#utility.yul\":2333:2340   */\n      dup6\n        /* \"#utility.yul\":2324:2330   */\n      dup3\n        /* \"#utility.yul\":2313:2322   */\n      dup7\n        /* \"#utility.yul\":2309:2331   */\n      add\n        /* \"#utility.yul\":2288:2341   */\n      tag_33\n      jump\t// in\n    tag_68:\n        /* \"#utility.yul\":2278:2341   */\n      swap2\n      pop\n        /* \"#utility.yul\":2233:2351   */\n      pop\n        /* \"#utility.yul\":1884:2358   */\n      swap3\n      pop\n      swap3\n      swap1\n      pop\n      jump\t// out\n        /* \"#utility.yul\":2364:2533   */\n    tag_34:\n        /* \"#utility.yul\":2448:2459   */\n      0x00\n        /* \"#utility.yul\":2482:2488   */\n      dup3\n        /* \"#utility.yul\":2477:2480   */\n      dup3\n        /* \"#utility.yul\":2470:2489   */\n      mstore\n        /* \"#utility.yul\":2522:2526   */\n      0x20\n        /* \"#utility.yul\":2517:2520   */\n      dup3\n        /* \"#utility.yul\":2513:2527   */\n      add\n        /* \"#utility.yul\":2498:2527   */\n      swap1\n      pop\n        /* \"#utility.yul\":2364:2533   */\n      swap3\n      swap2\n      pop\n      pop\n      jump\t// out\n        /* \"#utility.yul\":2539:2710   */\n    tag_35:\n        /* \"#utility.yul\":2679:2702   */\n      0x496e73756666696369656e742062616c616e6365730000000000000000000000\n        /* \"#utility.yul\":2675:2676   */\n      0x00\n        /* \"#utility.yul\":2667:2673   */\n      dup3\n        /* \"#utility.yul\":2663:2677   */\n      add\n        /* \"#utility.yul\":2656:2703   */\n      mstore\n        /* \"#utility.yul\":2539:2710   */\n      pop\n      jump\t// out\n        /* \"#utility.yul\":2716:3082   */\n    tag_36:\n        /* \"#utility.yul\":2858:2861   */\n      0x00\n        /* \"#utility.yul\":2879:2946   */\n      tag_72\n        /* \"#utility.yul\":2943:2945   */\n      0x15\n        /* \"#utility.yul\":2938:2941   */\n      dup4\n        /* \"#utility.yul\":2879:2946   */\n      tag_34\n      jump\t// in\n    tag_72:\n        /* \"#utility.yul\":2872:2946   */\n      swap2\n      pop\n        /* \"#utility.yul\":2955:3048   */\n      tag_73\n        /* \"#utility.yul\":3044:3047   */\n      dup3\n        /* \"#utility.yul\":2955:3048   */\n      tag_35\n      jump\t// in\n    tag_73:\n        /* \"#utility.yul\":3073:3075   */\n      0x20\n        /* \"#utility.yul\":3068:3071   */\n      dup3\n        /* \"#utility.yul\":3064:3076   */\n      add\n        /* \"#utility.yul\":3057:3076   */\n      swap1\n      pop\n        /* \"#utility.yul\":2716:3082   */\n      swap2\n      swap1\n      pop\n      jump\t// out\n        /* \"#utility.yul\":3088:3507   */\n    tag_18:\n        /* \"#utility.yul\":3254:3258   */\n      0x00\n        /* \"#utility.yul\":3292:3294   */\n      0x20\n        /* \"#utility.yul\":3281:3290   */\n      dup3\n        /* \"#utility.yul\":3277:3295   */\n      add\n        /* \"#utility.yul\":3269:3295   */\n      swap1\n      pop\n        /* \"#utility.yul\":3341:3350   */\n      dup2\n        /* \"#utility.yul\":3335:3339   */\n      dup2\n        /* \"#utility.yul\":3331:3351   */\n      sub\n        /* \"#utility.yul\":3327:3328   */\n      0x00\n        /* \"#utility.yul\":3316:3325   */\n      dup4\n        /* \"#utility.yul\":3312:3329   */\n      add\n        /* \"#utility.yul\":3305:3352   */\n      mstore\n        /* \"#utility.yul\":3369:3500   */\n      tag_75\n        /* \"#utility.yul\":3495:3499   */\n      dup2\n        /* \"#utility.yul\":3369:3500   */\n      tag_36\n      jump\t// in\n    tag_75:\n        /* \"#utility.yul\":3361:3500   */\n      swap1\n      pop\n        /* \"#utility.yul\":3088:3507   */\n      swap2\n      swap1\n      pop\n      jump\t// out\n        /* \"#utility.yul\":3513:3693   */\n    tag_37:\n        /* \"#utility.yul\":3561:3638   */\n      0x4e487b7100000000000000000000000000000000000000000000000000000000\n        /* \"#utility.yul\":3558:3559   */\n      0x00\n        /* \"#utility.yul\":3551:3639   */\n      mstore\n        /* \"#utility.yul\":3658:3662   */\n      0x11\n        /* \"#utility.yul\":3655:3656   */\n      0x04\n        /* \"#utility.yul\":3648:3663   */\n      mstore\n        /* \"#utility.yul\":3682:3686   */\n      0x24\n        /* \"#utility.yul\":3679:3680   */\n      0x00\n        /* \"#utility.yul\":3672:3687   */\n      revert\n        /* \"#utility.yul\":3699:3893   */\n    tag_20:\n        /* \"#utility.yul\":3739:3743   */\n      0x00\n        /* \"#utility.yul\":3759:3779   */\n      tag_78\n        /* \"#utility.yul\":3777:3778   */\n      dup3\n        /* \"#utility.yul\":3759:3779   */\n      tag_30\n      jump\t// in\n    tag_78:\n        /* \"#utility.yul\":3754:3779   */\n      swap2\n      pop\n        /* \"#utility.yul\":3793:3813   */\n      tag_79\n        /* \"#utility.yul\":3811:3812   */\n      dup4\n        /* \"#utility.yul\":3793:3813   */\n      tag_30\n      jump\t// in\n    tag_79:\n        /* \"#utility.yul\":3788:3813   */\n      swap3\n      pop\n        /* \"#utility.yul\":3837:3838   */\n      dup3\n        /* \"#utility.yul\":3834:3835   */\n      dup3\n        /* \"#utility.yul\":3830:3839   */\n      sub\n        /* \"#utility.yul\":3822:3839   */\n      swap1\n      pop\n        /* \"#utility.yul\":3861:3862   */\n      dup2\n        /* \"#utility.yul\":3855:3859   */\n      dup2\n        /* \"#utility.yul\":3852:3863   */\n      gt\n        /* \"#utility.yul\":3849:3886   */\n      iszero\n      tag_80\n      jumpi\n        /* \"#utility.yul\":3866:3884   */\n      tag_81\n      tag_37\n      jump\t// in\n    tag_81:\n        /* \"#utility.yul\":3849:3886   */\n    tag_80:\n        /* \"#utility.yul\":3699:3893   */\n      swap3\n      swap2\n      pop\n      pop\n      jump\t// out\n        /* \"#utility.yul\":3899:4090   */\n    tag_22:\n        /* \"#utility.yul\":3939:3942   */\n      0x00\n        /* \"#utility.yul\":3958:3978   */\n      tag_83\n        /* \"#utility.yul\":3976:3977   */\n      dup3\n        /* \"#utility.yul\":3958:3978   */\n      tag_30\n      jump\t// in\n    tag_83:\n        /* \"#utility.yul\":3953:3978   */\n      swap2\n      pop\n        /* \"#utility.yul\":3992:4012   */\n      tag_84\n        /* \"#utility.yul\":4010:4011   */\n      dup4\n        /* \"#utility.yul\":3992:4012   */\n      tag_30\n      jump\t// in\n    tag_84:\n        /* \"#utility.yul\":3987:4012   */\n      swap3\n      pop\n        /* \"#utility.yul\":4035:4036   */\n      dup3\n        /* \"#utility.yul\":4032:4033   */\n      dup3\n        /* \"#utility.yul\":4028:4037   */\n      add\n        /* \"#utility.yul\":4021:4037   */\n      swap1\n      pop\n        /* \"#utility.yul\":4056:4059   */\n      dup1\n        /* \"#utility.yul\":4053:4054   */\n      dup3\n        /* \"#utility.yul\":4050:4060   */\n      gt\n        /* \"#utility.yul\":4047:4083   */\n      iszero\n      tag_85\n      jumpi\n        /* \"#utility.yul\":4063:4081   */\n      tag_86\n      tag_37\n      jump\t// in\n    tag_86:\n        /* \"#utility.yul\":4047:4083   */\n    tag_85:\n        /* \"#utility.yul\":3899:4090   */\n      swap3\n      swap2\n      pop\n      pop\n      jump\t// out\n\n    auxdata: 0xa2646970667358221220a234d4eb34bbddd96ccf595c3d72df3b64fd8d4644d0ab267b1a06f1d9a15a5264736f6c634300081a0033\n}\n",
				"bytecode": {
					"linkReferences": {},
					"object": "6080604052348015600e575f80fd5b506127105f803373ffffffffffffffffffffffffffffffffffffffff1673ffffffffffffffffffffffffffffffffffffffff1681526020019081526020015f20819055506104228061005f5f395ff3fe608060405234801561000f575f80fd5b5060043610610034575f3560e01c806327e235e314610038578063a9059cbb14610068575b5f80fd5b610052600480360381019061004d919061021d565b610084565b60405161005f9190610260565b60405180910390f35b610082600480360381019061007d91906102a3565b610098565b005b5f602052805f5260405f205f915090505481565b805f803373ffffffffffffffffffffffffffffffffffffffff1673ffffffffffffffffffffffffffffffffffffffff1681526020019081526020015f20541015610117576040517f08c379a000000000000000000000000000000000000000000000000000000000815260040161010e9061033b565b60405180910390fd5b805f803373ffffffffffffffffffffffffffffffffffffffff1673ffffffffffffffffffffffffffffffffffffffff1681526020019081526020015f205f8282546101629190610386565b92505081905550805f808473ffffffffffffffffffffffffffffffffffffffff1673ffffffffffffffffffffffffffffffffffffffff1681526020019081526020015f205f8282546101b491906103b9565b925050819055505050565b5f80fd5b5f73ffffffffffffffffffffffffffffffffffffffff82169050919050565b5f6101ec826101c3565b9050919050565b6101fc816101e2565b8114610206575f80fd5b50565b5f81359050610217816101f3565b92915050565b5f60208284031215610232576102316101bf565b5b5f61023f84828501610209565b91505092915050565b5f819050919050565b61025a81610248565b82525050565b5f6020820190506102735f830184610251565b92915050565b61028281610248565b811461028c575f80fd5b50565b5f8135905061029d81610279565b92915050565b5f80604083850312156102b9576102b86101bf565b5b5f6102c685828601610209565b92505060206102d78582860161028f565b9150509250929050565b5f82825260208201905092915050565b7f496e73756666696369656e742062616c616e63657300000000000000000000005f82015250565b5f6103256015836102e1565b9150610330826102f1565b602082019050919050565b5f6020820190508181035f83015261035281610319565b9050919050565b7f4e487b71000000000000000000000000000000000000000000000000000000005f52601160045260245ffd5b5f61039082610248565b915061039b83610248565b92508282039050818111156103b3576103b2610359565b5b92915050565b5f6103c382610248565b91506103ce83610248565b92508282019050808211156103e6576103e5610359565b5b9291505056fea2646970667358221220a234d4eb34bbddd96ccf595c3d72df3b64fd8d4644d0ab267b1a06f1d9a15a5264736f6c634300081a0033",
					"opcodes": "PUSH1 0x80 PUSH1 0x40 MSTORE CALLVALUE DUP1 ISZERO PUSH1 0xE JUMPI PUSH0 DUP1 REVERT JUMPDEST POP PUSH2 0x2710 PUSH0 DUP1 CALLER PUSH20 0xFFFFFFFFFFFFFFFFFFFFFFFFFFFFFFFFFFFFFFFF AND PUSH20 0xFFFFFFFFFFFFFFFFFFFFFFFFFFFFFFFFFFFFFFFF AND DUP2 MSTORE PUSH1 0x20 ADD SWAP1 DUP2 MSTORE PUSH1 0x20 ADD PUSH0 KECCAK256 DUP2 SWAP1 SSTORE POP PUSH2 0x422 DUP1 PUSH2 0x5F PUSH0 CODECOPY PUSH0 RETURN INVALID PUSH1 0x80 PUSH1 0x40 MSTORE CALLVALUE DUP1 ISZERO PUSH2 0xF JUMPI PUSH0 DUP1 REVERT JUMPDEST POP PUSH1 0x4 CALLDATASIZE LT PUSH2 0x34 JUMPI PUSH0 CALLDATALOAD PUSH1 0xE0 SHR DUP1 PUSH4 0x27E235E3 EQ PUSH2 0x38 JUMPI DUP1 PUSH4 0xA9059CBB EQ PUSH2 0x68 JUMPI JUMPDEST PUSH0 DUP1 REVERT JUMPDEST PUSH2 0x52 PUSH1 0x4 DUP1 CALLDATASIZE SUB DUP2 ADD SWAP1 PUSH2 0x4D SWAP2 SWAP1 PUSH2 0x21D JUMP JUMPDEST PUSH2 0x84 JUMP JUMPDEST PUSH1 0x40 MLOAD PUSH2 0x5F SWAP2 SWAP1 PUSH2 0x260 JUMP JUMPDEST PUSH1 0x40 MLOAD DUP1 SWAP2 SUB SWAP1 RETURN JUMPDEST PUSH2 0x82 PUSH1 0x4 DUP1 CALLDATASIZE SUB DUP2 ADD SWAP1 PUSH2 0x7D SWAP2 SWAP1 PUSH2 0x2A3 JUMP JUMPDEST PUSH2 0x98 JUMP JUMPDEST STOP JUMPDEST PUSH0 PUSH1 0x20 MSTORE DUP1 PUSH0 MSTORE PUSH1 0x40 PUSH0 KECCAK256 PUSH0 SWAP2 POP SWAP1 POP SLOAD DUP2 JUMP JUMPDEST DUP1 PUSH0 DUP1 CALLER PUSH20 0xFFFFFFFFFFFFFFFFFFFFFFFFFFFFFFFFFFFFFFFF AND PUSH20 0xFFFFFFFFFFFFFFFFFFFFFFFFFFFFFFFFFFFFFFFF AND DUP2 MSTORE PUSH1 0x20 ADD SWAP1 DUP2 MSTORE PUSH1 0x20 ADD PUSH0 KECCAK256 SLOAD LT ISZERO PUSH2 0x117 JUMPI PUSH1 0x40 MLOAD PUSH32 0x8C379A000000000000000000000000000000000000000000000000000000000 DUP2 MSTORE PUSH1 0x4 ADD PUSH2 0x10E SWAP1 PUSH2 0x33B JUMP JUMPDEST PUSH1 0x40 MLOAD DUP1 SWAP2 SUB SWAP1 REVERT JUMPDEST DUP1 PUSH0 DUP1 CALLER PUSH20 0xFFFFFFFFFFFFFFFFFFFFFFFFFFFFFFFFFFFFFFFF AND PUSH20 0xFFFFFFFFFFFFFFFFFFFFFFFFFFFFFFFFFFFFFFFF AND DUP2 MSTORE PUSH1 0x20 ADD SWAP1 DUP2 MSTORE PUSH1 0x20 ADD PUSH0 KECCAK256 PUSH0 DUP3 DUP3 SLOAD PUSH2 0x162 SWAP2 SWAP1 PUSH2 0x386 JUMP JUMPDEST SWAP3 POP POP DUP2 SWAP1 SSTORE POP DUP1 PUSH0 DUP1 DUP5 PUSH20 0xFFFFFFFFFFFFFFFFFFFFFFFFFFFFFFFFFFFFFFFF AND PUSH20 0xFFFFFFFFFFFFFFFFFFFFFFFFFFFFFFFFFFFFFFFF AND DUP2 MSTORE PUSH1 0x20 ADD SWAP1 DUP2 MSTORE PUSH1 0x20 ADD PUSH0 KECCAK256 PUSH0 DUP3 DUP3 SLOAD PUSH2 0x1B4 SWAP2 SWAP1 PUSH2 0x3B9 JUMP JUMPDEST SWAP3 POP POP DUP2 SWAP1 SSTORE POP POP POP JUMP JUMPDEST PUSH0 DUP1 REVERT JUMPDEST PUSH0 PUSH20 0xFFFFFFFFFFFFFFFFFFFFFFFFFFFFFFFFFFFFFFFF DUP3 AND SWAP1 POP SWAP2 SWAP1 POP JUMP JUMPDEST PUSH0 PUSH2 0x1EC DUP3 PUSH2 0x1C3 JUMP JUMPDEST SWAP1 POP SWAP2 SWAP1 POP JUMP JUMPDEST PUSH2 0x1FC DUP2 PUSH2 0x1E2 JUMP JUMPDEST DUP2 EQ PUSH2 0x206 JUMPI PUSH0 DUP1 REVERT JUMPDEST POP JUMP JUMPDEST PUSH0 DUP2 CALLDATALOAD SWAP1 POP PUSH2 0x217 DUP2 PUSH2 0x1F3 JUMP JUMPDEST SWAP3 SWAP2 POP POP JUMP JUMPDEST PUSH0 PUSH1 0x20 DUP3 DUP5 SUB SLT ISZERO PUSH2 0x232 JUMPI PUSH2 0x231 PUSH2 0x1BF JUMP JUMPDEST JUMPDEST PUSH0 PUSH2 0x23F DUP5 DUP3 DUP6 ADD PUSH2 0x209 JUMP JUMPDEST SWAP2 POP POP SWAP3 SWAP2 POP POP JUMP JUMPDEST PUSH0 DUP2 SWAP1 POP SWAP2 SWAP1 POP JUMP JUMPDEST PUSH2 0x25A DUP2 PUSH2 0x248 JUMP JUMPDEST DUP3 MSTORE POP POP JUMP JUMPDEST PUSH0 PUSH1 0x20 DUP3 ADD SWAP1 POP PUSH2 0x273 PUSH0 DUP4 ADD DUP5 PUSH2 0x251 JUMP JUMPDEST SWAP3 SWAP2 POP POP JUMP JUMPDEST PUSH2 0x282 DUP2 PUSH2 0x248 JUMP JUMPDEST DUP2 EQ PUSH2 0x28C JUMPI PUSH0 DUP1 REVERT JUMPDEST POP JUMP JUMPDEST PUSH0 DUP2 CALLDATALOAD SWAP1 POP PUSH2 0x29D DUP2 PUSH2 0x279 JUMP JUMPDEST SWAP3 SWAP2 POP POP JUMP JUMPDEST PUSH0 DUP1 PUSH1 0x40 DUP4 DUP6 SUB SLT ISZERO PUSH2 0x2B9 JUMPI PUSH2 0x2B8 PUSH2 0x1BF JUMP JUMPDEST JUMPDEST PUSH0 PUSH2 0x2C6 DUP6 DUP3 DUP7 ADD PUSH2 0x209 JUMP JUMPDEST SWAP3 POP POP PUSH1 0x20 PUSH2 0x2D7 DUP6 DUP3 DUP7 ADD PUSH2 0x28F JUMP JUMPDEST SWAP2 POP POP SWAP3 POP SWAP3 SWAP1 POP JUMP JUMPDEST PUSH0 DUP3 DUP3 MSTORE PUSH1 0x20 DUP3 ADD SWAP1 POP SWAP3 SWAP2 POP POP JUMP JUMPDEST PUSH32 0x496E73756666696369656E742062616C616E6365730000000000000000000000 PUSH0 DUP3 ADD MSTORE POP JUMP JUMPDEST PUSH0 PUSH2 0x325 PUSH1 0x15 DUP4 PUSH2 0x2E1 JUMP JUMPDEST SWAP2 POP PUSH2 0x330 DUP3 PUSH2 0x2F1 JUMP JUMPDEST PUSH1 0x20 DUP3 ADD SWAP1 POP SWAP2 SWAP1 POP JUMP JUMPDEST PUSH0 PUSH1 0x20 DUP3 ADD SWAP1 POP DUP2 DUP2 SUB PUSH0 DUP4 ADD MSTORE PUSH2 0x352 DUP2 PUSH2 0x319 JUMP JUMPDEST SWAP1 POP SWAP2 SWAP1 POP JUMP JUMPDEST PUSH32 0x4E487B7100000000000000000000000000000000000000000000000000000000 PUSH0 MSTORE PUSH1 0x11 PUSH1 0x4 MSTORE PUSH1 0x24 PUSH0 REVERT JUMPDEST PUSH0 PUSH2 0x390 DUP3 PUSH2 0x248 JUMP JUMPDEST SWAP2 POP PUSH2 0x39B DUP4 PUSH2 0x248 JUMP JUMPDEST SWAP3 POP DUP3 DUP3 SUB SWAP1 POP DUP2 DUP2 GT ISZERO PUSH2 0x3B3 JUMPI PUSH2 0x3B2 PUSH2 0x359 JUMP JUMPDEST JUMPDEST SWAP3 SWAP2 POP POP JUMP JUMPDEST PUSH0 PUSH2 0x3C3 DUP3 PUSH2 0x248 JUMP JUMPDEST SWAP2 POP PUSH2 0x3CE DUP4 PUSH2 0x248 JUMP JUMPDEST SWAP3 POP DUP3 DUP3 ADD SWAP1 POP DUP1 DUP3 GT ISZERO PUSH2 0x3E6 JUMPI PUSH2 0x3E5 PUSH2 0x359 JUMP JUMPDEST JUMPDEST SWAP3 SWAP2 POP POP JUMP INVALID LOG2 PUSH5 0x6970667358 0x22 SLT KECCAK256 LOG2 CALLVALUE 0xD4 0xEB CALLVALUE 0xBB 0xDD 0xD9 PUSH13 0xCF595C3D72DF3B64FD8D4644D0 0xAB 0x26 PUSH28 0x1A06F1D9A15A5264736F6C634300081A003300000000000000000000 "
				},
				"gasEstimates": {
					"creation": {
						"codeDepositCost": "211600",
						"executionCost": "22456",
						"totalCost": "234056"
					},
					"external": {
						"balances(address)": "2779",
						"transfer(address,uint256)": "infinite"
					}
				},
				"methodIdentifiers": {
					"balances(address)": "27e235e3",
					"transfer(address,uint256)": "a9059cbb"
				}
			},
			"storageLayout": {
				"storage": [
					{
						"astId": 15,
						"contract": "contracts/02/Interface.sol:SimpleToken",
						"label": "balances",
						"offset": 0,
						"slot": "0",
						"type": "t_mapping(t_address,t_uint256)"
					}
				],
				"types": {
					"t_address": {
						"encoding": "inplace",
						"label": "address",
						"numberOfBytes": "20"
					},
					"t_mapping(t_address,t_uint256)": {
						"encoding": "mapping",
						"key": "t_address",
						"label": "mapping(address => uint256)",
						"numberOfBytes": "32",
						"value": "t_uint256"
					},
					"t_uint256": {
						"encoding": "inplace",
						"label": "uint256",
						"numberOfBytes": "32"
					}
				}
			},
			"userdoc": {
				"kind": "user",
				"methods": {},
				"version": 1
			}
		}
	}
}