{
	"contracts/02/Interface.sol": {
		"Bank": {
			"abi": [
				{
					"inputs": [],
					"stateMutability": "nonpayable",
					"type": "constructor"
				},
				{
					"inputs": [
						{
							"internalType": "address",
							"name": "add",
							"type": "address"
						},
						{
							"internalType": "uint256",
							"name": "amount",
							"type": "uint256"
						}
					],
					"name": "Deposit",
					"outputs": [
						{
							"internalType": "uint256",
							"name": "",
							"type": "uint256"
						}
					],
					"stateMutability": "nonpayable",
					"type": "function"
				},
				{
					"inputs": [
						{
							"internalType": "address",
							"name": "add",
							"type": "address"
						},
						{
							"internalType": "uint256",
							"name": "amount",
							"type": "uint256"
						}
					],
					"name": "withdrawal",
					"outputs": [],
					"stateMutability": "nonpayable",
					"type": "function"
				}
			],
			"devdoc": {
				"kind": "dev",
				"methods": {},
				"version": 1
			},
			"evm": {
				"assembly": "    /* \"contracts/02/Interface.sol\":4175:4746  contract Bank is IValut {... */\n  mstore(0x40, 0x80)\n    /* \"contracts/02/Interface.sol\":4262:4284  constructor() {... */\n  callvalue\n  dup1\n  iszero\n  tag_1\n  jumpi\n  0x00\n  dup1\n  revert\ntag_1:\n  pop\n    /* \"contracts/02/Interface.sol\":4175:4746  contract Bank is IValut {... */\n  dataSize(sub_0)\n  dup1\n  dataOffset(sub_0)\n  0x00\n  codecopy\n  0x00\n  return\nstop\n\nsub_0: assembly {\n        /* \"contracts/02/Interface.sol\":4175:4746  contract Bank is IValut {... */\n      mstore(0x40, 0x80)\n      callvalue\n      dup1\n      iszero\n      tag_1\n      jumpi\n      0x00\n      dup1\n      revert\n    tag_1:\n      pop\n      jumpi(tag_2, lt(calldatasize, 0x04))\n      shr(0xe0, calldataload(0x00))\n      dup1\n      0x5a6b26ba\n      eq\n      tag_3\n      jumpi\n      dup1\n      0xe1fffcc4\n      eq\n      tag_4\n      jumpi\n    tag_2:\n      0x00\n      dup1\n      revert\n        /* \"contracts/02/Interface.sol\":4524:4744  function withdrawal (address add ,uint amount ) public override {... */\n    tag_3:\n      tag_5\n      0x04\n      dup1\n      calldatasize\n      sub\n      dup2\n      add\n      swap1\n      tag_6\n      swap2\n      swap1\n      tag_7\n      jump\t// in\n    tag_6:\n      tag_8\n      jump\t// in\n    tag_5:\n      stop\n        /* \"contracts/02/Interface.sol\":4289:4518  function Deposit (address add ,uint amount ) public override returns(uint){... */\n    tag_4:\n      tag_9\n      0x04\n      dup1\n      calldatasize\n      sub\n      dup2\n      add\n      swap1\n      tag_10\n      swap2\n      swap1\n      tag_7\n      jump\t// in\n    tag_10:\n      tag_11\n      jump\t// in\n    tag_9:\n      mload(0x40)\n      tag_12\n      swap2\n      swap1\n      tag_13\n      jump\t// in\n    tag_12:\n      mload(0x40)\n      dup1\n      swap2\n      sub\n      swap1\n      return\n        /* \"contracts/02/Interface.sol\":4524:4744  function withdrawal (address add ,uint amount ) public override {... */\n    tag_8:\n        /* \"contracts/02/Interface.sol\":4627:4633  amount */\n      dup1\n        /* \"contracts/02/Interface.sol\":4606:4618  bankBalances */\n      0x00\n        /* \"contracts/02/Interface.sol\":4606:4623  bankBalances[add] */\n      dup1\n        /* \"contracts/02/Interface.sol\":4619:4622  add */\n      dup5\n        /* \"contracts/02/Interface.sol\":4606:4623  bankBalances[add] */\n      0xffffffffffffffffffffffffffffffffffffffff\n      and\n      0xffffffffffffffffffffffffffffffffffffffff\n      and\n      dup2\n      mstore\n      0x20\n      add\n      swap1\n      dup2\n      mstore\n      0x20\n      add\n      0x00\n      keccak256\n      sload\n        /* \"contracts/02/Interface.sol\":4606:4633  bankBalances[add] >= amount */\n      lt\n      iszero\n        /* \"contracts/02/Interface.sol\":4598:4659  require(bankBalances[add] >= amount, \"Insufficient balances\") */\n      tag_15\n      jumpi\n      mload(0x40)\n      0x08c379a000000000000000000000000000000000000000000000000000000000\n      dup2\n      mstore\n      0x04\n      add\n      tag_16\n      swap1\n      tag_17\n      jump\t// in\n    tag_16:\n      mload(0x40)\n      dup1\n      swap2\n      sub\n      swap1\n      revert\n    tag_15:\n        /* \"contracts/02/Interface.sol\":4717:4723  amount */\n      dup1\n        /* \"contracts/02/Interface.sol\":4696:4708  bankBalances */\n      0x00\n        /* \"contracts/02/Interface.sol\":4696:4713  bankBalances[add] */\n      dup1\n        /* \"contracts/02/Interface.sol\":4709:4712  add */\n      dup5\n        /* \"contracts/02/Interface.sol\":4696:4713  bankBalances[add] */\n      0xffffffffffffffffffffffffffffffffffffffff\n      and\n      0xffffffffffffffffffffffffffffffffffffffff\n      and\n      dup2\n      mstore\n      0x20\n      add\n      swap1\n      dup2\n      mstore\n      0x20\n      add\n      0x00\n      keccak256\n      0x00\n        /* \"contracts/02/Interface.sol\":4696:4723  bankBalances[add] -= amount */\n      dup3\n      dup3\n      sload\n      tag_18\n      swap2\n      swap1\n      tag_19\n      jump\t// in\n    tag_18:\n      swap3\n      pop\n      pop\n      dup2\n      swap1\n      sstore\n      pop\n        /* \"contracts/02/Interface.sol\":4524:4744  function withdrawal (address add ,uint amount ) public override {... */\n      pop\n      pop\n      jump\t// out\n        /* \"contracts/02/Interface.sol\":4289:4518  function Deposit (address add ,uint amount ) public override returns(uint){... */\n    tag_11:\n        /* \"contracts/02/Interface.sol\":4358:4362  uint */\n      0x00\n        /* \"contracts/02/Interface.sol\":4390:4391  0 */\n      dup1\n        /* \"contracts/02/Interface.sol\":4381:4387  amount */\n      dup3\n        /* \"contracts/02/Interface.sol\":4381:4391  amount > 0 */\n      gt\n        /* \"contracts/02/Interface.sol\":4373:4410  require(amount > 0, \"amount gt zero\") */\n      tag_21\n      jumpi\n      mload(0x40)\n      0x08c379a000000000000000000000000000000000000000000000000000000000\n      dup2\n      mstore\n      0x04\n      add\n      tag_22\n      swap1\n      tag_23\n      jump\t// in\n    tag_22:\n      mload(0x40)\n      dup1\n      swap2\n      sub\n      swap1\n      revert\n    tag_21:\n        /* \"contracts/02/Interface.sol\":4442:4448  amount */\n      dup2\n        /* \"contracts/02/Interface.sol\":4421:4433  bankBalances */\n      0x00\n        /* \"contracts/02/Interface.sol\":4421:4438  bankBalances[add] */\n      dup1\n        /* \"contracts/02/Interface.sol\":4434:4437  add */\n      dup6\n        /* \"contracts/02/Interface.sol\":4421:4438  bankBalances[add] */\n      0xffffffffffffffffffffffffffffffffffffffff\n      and\n      0xffffffffffffffffffffffffffffffffffffffff\n      and\n      dup2\n      mstore\n      0x20\n      add\n      swap1\n      dup2\n      mstore\n      0x20\n      add\n      0x00\n      keccak256\n      0x00\n        /* \"contracts/02/Interface.sol\":4421:4448  bankBalances[add] += amount */\n      dup3\n      dup3\n      sload\n      tag_24\n      swap2\n      swap1\n      tag_25\n      jump\t// in\n    tag_24:\n      swap3\n      pop\n      pop\n      dup2\n      swap1\n      sstore\n      pop\n        /* \"contracts/02/Interface.sol\":4474:4486  bankBalances */\n      0x00\n        /* \"contracts/02/Interface.sol\":4474:4491  bankBalances[add] */\n      dup1\n        /* \"contracts/02/Interface.sol\":4487:4490  add */\n      dup5\n        /* \"contracts/02/Interface.sol\":4474:4491  bankBalances[add] */\n      0xffffffffffffffffffffffffffffffffffffffff\n      and\n      0xffffffffffffffffffffffffffffffffffffffff\n      and\n      dup2\n      mstore\n      0x20\n      add\n      swap1\n      dup2\n      mstore\n      0x20\n      add\n      0x00\n      keccak256\n      sload\n        /* \"contracts/02/Interface.sol\":4467:4491  return bankBalances[add] */\n      swap1\n      pop\n        /* \"contracts/02/Interface.sol\":4289:4518  function Deposit (address add ,uint amount ) public override returns(uint){... */\n      swap3\n      swap2\n      pop\n      pop\n      jump\t// out\n        /* \"#utility.yul\":88:205   */\n    tag_27:\n        /* \"#utility.yul\":197:198   */\n      0x00\n        /* \"#utility.yul\":194:195   */\n      dup1\n        /* \"#utility.yul\":187:199   */\n      revert\n        /* \"#utility.yul\":334:460   */\n    tag_29:\n        /* \"#utility.yul\":371:378   */\n      0x00\n        /* \"#utility.yul\":411:453   */\n      0xffffffffffffffffffffffffffffffffffffffff\n        /* \"#utility.yul\":404:409   */\n      dup3\n        /* \"#utility.yul\":400:454   */\n      and\n        /* \"#utility.yul\":389:454   */\n      swap1\n      pop\n        /* \"#utility.yul\":334:460   */\n      swap2\n      swap1\n      pop\n      jump\t// out\n        /* \"#utility.yul\":466:562   */\n    tag_30:\n        /* \"#utility.yul\":503:510   */\n      0x00\n        /* \"#utility.yul\":532:556   */\n      tag_49\n        /* \"#utility.yul\":550:555   */\n      dup3\n        /* \"#utility.yul\":532:556   */\n      tag_29\n      jump\t// in\n    tag_49:\n        /* \"#utility.yul\":521:556   */\n      swap1\n      pop\n        /* \"#utility.yul\":466:562   */\n      swap2\n      swap1\n      pop\n      jump\t// out\n        /* \"#utility.yul\":568:690   */\n    tag_31:\n        /* \"#utility.yul\":641:665   */\n      tag_51\n        /* \"#utility.yul\":659:664   */\n      dup2\n        /* \"#utility.yul\":641:665   */\n      tag_30\n      jump\t// in\n    tag_51:\n        /* \"#utility.yul\":634:639   */\n      dup2\n        /* \"#utility.yul\":631:666   */\n      eq\n        /* \"#utility.yul\":621:684   */\n      tag_52\n      jumpi\n        /* \"#utility.yul\":680:681   */\n      0x00\n        /* \"#utility.yul\":677:678   */\n      dup1\n        /* \"#utility.yul\":670:682   */\n      revert\n        /* \"#utility.yul\":621:684   */\n    tag_52:\n        /* \"#utility.yul\":568:690   */\n      pop\n      jump\t// out\n        /* \"#utility.yul\":696:835   */\n    tag_32:\n        /* \"#utility.yul\":742:747   */\n      0x00\n        /* \"#utility.yul\":780:786   */\n      dup2\n        /* \"#utility.yul\":767:787   */\n      calldataload\n        /* \"#utility.yul\":758:787   */\n      swap1\n      pop\n        /* \"#utility.yul\":796:829   */\n      tag_54\n        /* \"#utility.yul\":823:828   */\n      dup2\n        /* \"#utility.yul\":796:829   */\n      tag_31\n      jump\t// in\n    tag_54:\n        /* \"#utility.yul\":696:835   */\n      swap3\n      swap2\n      pop\n      pop\n      jump\t// out\n        /* \"#utility.yul\":841:918   */\n    tag_33:\n        /* \"#utility.yul\":878:885   */\n      0x00\n        /* \"#utility.yul\":907:912   */\n      dup2\n        /* \"#utility.yul\":896:912   */\n      swap1\n      pop\n        /* \"#utility.yul\":841:918   */\n      swap2\n      swap1\n      pop\n      jump\t// out\n        /* \"#utility.yul\":924:1046   */\n    tag_34:\n        /* \"#utility.yul\":997:1021   */\n      tag_57\n        /* \"#utility.yul\":1015:1020   */\n      dup2\n        /* \"#utility.yul\":997:1021   */\n      tag_33\n      jump\t// in\n    tag_57:\n        /* \"#utility.yul\":990:995   */\n      dup2\n        /* \"#utility.yul\":987:1022   */\n      eq\n        /* \"#utility.yul\":977:1040   */\n      tag_58\n      jumpi\n        /* \"#utility.yul\":1036:1037   */\n      0x00\n        /* \"#utility.yul\":1033:1034   */\n      dup1\n        /* \"#utility.yul\":1026:1038   */\n      revert\n        /* \"#utility.yul\":977:1040   */\n    tag_58:\n        /* \"#utility.yul\":924:1046   */\n      pop\n      jump\t// out\n        /* \"#utility.yul\":1052:1191   */\n    tag_35:\n        /* \"#utility.yul\":1098:1103   */\n      0x00\n        /* \"#utility.yul\":1136:1142   */\n      dup2\n        /* \"#utility.yul\":1123:1143   */\n      calldataload\n        /* \"#utility.yul\":1114:1143   */\n      swap1\n      pop\n        /* \"#utility.yul\":1152:1185   */\n      tag_60\n        /* \"#utility.yul\":1179:1184   */\n      dup2\n        /* \"#utility.yul\":1152:1185   */\n      tag_34\n      jump\t// in\n    tag_60:\n        /* \"#utility.yul\":1052:1191   */\n      swap3\n      swap2\n      pop\n      pop\n      jump\t// out\n        /* \"#utility.yul\":1197:1671   */\n    tag_7:\n        /* \"#utility.yul\":1265:1271   */\n      0x00\n        /* \"#utility.yul\":1273:1279   */\n      dup1\n        /* \"#utility.yul\":1322:1324   */\n      0x40\n        /* \"#utility.yul\":1310:1319   */\n      dup4\n        /* \"#utility.yul\":1301:1308   */\n      dup6\n        /* \"#utility.yul\":1297:1320   */\n      sub\n        /* \"#utility.yul\":1293:1325   */\n      slt\n        /* \"#utility.yul\":1290:1409   */\n      iszero\n      tag_62\n      jumpi\n        /* \"#utility.yul\":1328:1407   */\n      tag_63\n      tag_27\n      jump\t// in\n    tag_63:\n        /* \"#utility.yul\":1290:1409   */\n    tag_62:\n        /* \"#utility.yul\":1448:1449   */\n      0x00\n        /* \"#utility.yul\":1473:1526   */\n      tag_64\n        /* \"#utility.yul\":1518:1525   */\n      dup6\n        /* \"#utility.yul\":1509:1515   */\n      dup3\n        /* \"#utility.yul\":1498:1507   */\n      dup7\n        /* \"#utility.yul\":1494:1516   */\n      add\n        /* \"#utility.yul\":1473:1526   */\n      tag_32\n      jump\t// in\n    tag_64:\n        /* \"#utility.yul\":1463:1526   */\n      swap3\n      pop\n        /* \"#utility.yul\":1419:1536   */\n      pop\n        /* \"#utility.yul\":1575:1577   */\n      0x20\n        /* \"#utility.yul\":1601:1654   */\n      tag_65\n        /* \"#utility.yul\":1646:1653   */\n      dup6\n        /* \"#utility.yul\":1637:1643   */\n      dup3\n        /* \"#utility.yul\":1626:1635   */\n      dup7\n        /* \"#utility.yul\":1622:1644   */\n      add\n        /* \"#utility.yul\":1601:1654   */\n      tag_35\n      jump\t// in\n    tag_65:\n        /* \"#utility.yul\":1591:1654   */\n      swap2\n      pop\n        /* \"#utility.yul\":1546:1664   */\n      pop\n        /* \"#utility.yul\":1197:1671   */\n      swap3\n      pop\n      swap3\n      swap1\n      pop\n      jump\t// out\n        /* \"#utility.yul\":1677:1795   */\n    tag_36:\n        /* \"#utility.yul\":1764:1788   */\n      tag_67\n        /* \"#utility.yul\":1782:1787   */\n      dup2\n        /* \"#utility.yul\":1764:1788   */\n      tag_33\n      jump\t// in\n    tag_67:\n        /* \"#utility.yul\":1759:1762   */\n      dup3\n        /* \"#utility.yul\":1752:1789   */\n      mstore\n        /* \"#utility.yul\":1677:1795   */\n      pop\n      pop\n      jump\t// out\n        /* \"#utility.yul\":1801:2023   */\n    tag_13:\n        /* \"#utility.yul\":1894:1898   */\n      0x00\n        /* \"#utility.yul\":1932:1934   */\n      0x20\n        /* \"#utility.yul\":1921:1930   */\n      dup3\n        /* \"#utility.yul\":1917:1935   */\n      add\n        /* \"#utility.yul\":1909:1935   */\n      swap1\n      pop\n        /* \"#utility.yul\":1945:2016   */\n      tag_69\n        /* \"#utility.yul\":2013:2014   */\n      0x00\n        /* \"#utility.yul\":2002:2011   */\n      dup4\n        /* \"#utility.yul\":1998:2015   */\n      add\n        /* \"#utility.yul\":1989:1995   */\n      dup5\n        /* \"#utility.yul\":1945:2016   */\n      tag_36\n      jump\t// in\n    tag_69:\n        /* \"#utility.yul\":1801:2023   */\n      swap3\n      swap2\n      pop\n      pop\n      jump\t// out\n        /* \"#utility.yul\":2029:2198   */\n    tag_37:\n        /* \"#utility.yul\":2113:2124   */\n      0x00\n        /* \"#utility.yul\":2147:2153   */\n      dup3\n        /* \"#utility.yul\":2142:2145   */\n      dup3\n        /* \"#utility.yul\":2135:2154   */\n      mstore\n        /* \"#utility.yul\":2187:2191   */\n      0x20\n        /* \"#utility.yul\":2182:2185   */\n      dup3\n        /* \"#utility.yul\":2178:2192   */\n      add\n        /* \"#utility.yul\":2163:2192   */\n      swap1\n      pop\n        /* \"#utility.yul\":2029:2198   */\n      swap3\n      swap2\n      pop\n      pop\n      jump\t// out\n        /* \"#utility.yul\":2204:2375   */\n    tag_38:\n        /* \"#utility.yul\":2344:2367   */\n      0x496e73756666696369656e742062616c616e6365730000000000000000000000\n        /* \"#utility.yul\":2340:2341   */\n      0x00\n        /* \"#utility.yul\":2332:2338   */\n      dup3\n        /* \"#utility.yul\":2328:2342   */\n      add\n        /* \"#utility.yul\":2321:2368   */\n      mstore\n        /* \"#utility.yul\":2204:2375   */\n      pop\n      jump\t// out\n        /* \"#utility.yul\":2381:2747   */\n    tag_39:\n        /* \"#utility.yul\":2523:2526   */\n      0x00\n        /* \"#utility.yul\":2544:2611   */\n      tag_73\n        /* \"#utility.yul\":2608:2610   */\n      0x15\n        /* \"#utility.yul\":2603:2606   */\n      dup4\n        /* \"#utility.yul\":2544:2611   */\n      tag_37\n      jump\t// in\n    tag_73:\n        /* \"#utility.yul\":2537:2611   */\n      swap2\n      pop\n        /* \"#utility.yul\":2620:2713   */\n      tag_74\n        /* \"#utility.yul\":2709:2712   */\n      dup3\n        /* \"#utility.yul\":2620:2713   */\n      tag_38\n      jump\t// in\n    tag_74:\n        /* \"#utility.yul\":2738:2740   */\n      0x20\n        /* \"#utility.yul\":2733:2736   */\n      dup3\n        /* \"#utility.yul\":2729:2741   */\n      add\n        /* \"#utility.yul\":2722:2741   */\n      swap1\n      pop\n        /* \"#utility.yul\":2381:2747   */\n      swap2\n      swap1\n      pop\n      jump\t// out\n        /* \"#utility.yul\":2753:3172   */\n    tag_17:\n        /* \"#utility.yul\":2919:2923   */\n      0x00\n        /* \"#utility.yul\":2957:2959   */\n      0x20\n        /* \"#utility.yul\":2946:2955   */\n      dup3\n        /* \"#utility.yul\":2942:2960   */\n      add\n        /* \"#utility.yul\":2934:2960   */\n      swap1\n      pop\n        /* \"#utility.yul\":3006:3015   */\n      dup2\n        /* \"#utility.yul\":3000:3004   */\n      dup2\n        /* \"#utility.yul\":2996:3016   */\n      sub\n        /* \"#utility.yul\":2992:2993   */\n      0x00\n        /* \"#utility.yul\":2981:2990   */\n      dup4\n        /* \"#utility.yul\":2977:2994   */\n      add\n        /* \"#utility.yul\":2970:3017   */\n      mstore\n        /* \"#utility.yul\":3034:3165   */\n      tag_76\n        /* \"#utility.yul\":3160:3164   */\n      dup2\n        /* \"#utility.yul\":3034:3165   */\n      tag_39\n      jump\t// in\n    tag_76:\n        /* \"#utility.yul\":3026:3165   */\n      swap1\n      pop\n        /* \"#utility.yul\":2753:3172   */\n      swap2\n      swap1\n      pop\n      jump\t// out\n        /* \"#utility.yul\":3178:3358   */\n    tag_40:\n        /* \"#utility.yul\":3226:3303   */\n      0x4e487b7100000000000000000000000000000000000000000000000000000000\n        /* \"#utility.yul\":3223:3224   */\n      0x00\n        /* \"#utility.yul\":3216:3304   */\n      mstore\n        /* \"#utility.yul\":3323:3327   */\n      0x11\n        /* \"#utility.yul\":3320:3321   */\n      0x04\n        /* \"#utility.yul\":3313:3328   */\n      mstore\n        /* \"#utility.yul\":3347:3351   */\n      0x24\n        /* \"#utility.yul\":3344:3345   */\n      0x00\n        /* \"#utility.yul\":3337:3352   */\n      revert\n        /* \"#utility.yul\":3364:3558   */\n    tag_19:\n        /* \"#utility.yul\":3404:3408   */\n      0x00\n        /* \"#utility.yul\":3424:3444   */\n      tag_79\n        /* \"#utility.yul\":3442:3443   */\n      dup3\n        /* \"#utility.yul\":3424:3444   */\n      tag_33\n      jump\t// in\n    tag_79:\n        /* \"#utility.yul\":3419:3444   */\n      swap2\n      pop\n        /* \"#utility.yul\":3458:3478   */\n      tag_80\n        /* \"#utility.yul\":3476:3477   */\n      dup4\n        /* \"#utility.yul\":3458:3478   */\n      tag_33\n      jump\t// in\n    tag_80:\n        /* \"#utility.yul\":3453:3478   */\n      swap3\n      pop\n        /* \"#utility.yul\":3502:3503   */\n      dup3\n        /* \"#utility.yul\":3499:3500   */\n      dup3\n        /* \"#utility.yul\":3495:3504   */\n      sub\n        /* \"#utility.yul\":3487:3504   */\n      swap1\n      pop\n        /* \"#utility.yul\":3526:3527   */\n      dup2\n        /* \"#utility.yul\":3520:3524   */\n      dup2\n        /* \"#utility.yul\":3517:3528   */\n      gt\n        /* \"#utility.yul\":3514:3551   */\n      iszero\n      tag_81\n      jumpi\n        /* \"#utility.yul\":3531:3549   */\n      tag_82\n      tag_40\n      jump\t// in\n    tag_82:\n        /* \"#utility.yul\":3514:3551   */\n    tag_81:\n        /* \"#utility.yul\":3364:3558   */\n      swap3\n      swap2\n      pop\n      pop\n      jump\t// out\n        /* \"#utility.yul\":3564:3728   */\n    tag_41:\n        /* \"#utility.yul\":3704:3720   */\n      0x616d6f756e74206774207a65726f000000000000000000000000000000000000\n        /* \"#utility.yul\":3700:3701   */\n      0x00\n        /* \"#utility.yul\":3692:3698   */\n      dup3\n        /* \"#utility.yul\":3688:3702   */\n      add\n        /* \"#utility.yul\":3681:3721   */\n      mstore\n        /* \"#utility.yul\":3564:3728   */\n      pop\n      jump\t// out\n        /* \"#utility.yul\":3734:4100   */\n    tag_42:\n        /* \"#utility.yul\":3876:3879   */\n      0x00\n        /* \"#utility.yul\":3897:3964   */\n      tag_85\n        /* \"#utility.yul\":3961:3963   */\n      0x0e\n        /* \"#utility.yul\":3956:3959   */\n      dup4\n        /* \"#utility.yul\":3897:3964   */\n      tag_37\n      jump\t// in\n    tag_85:\n        /* \"#utility.yul\":3890:3964   */\n      swap2\n      pop\n        /* \"#utility.yul\":3973:4066   */\n      tag_86\n        /* \"#utility.yul\":4062:4065   */\n      dup3\n        /* \"#utility.yul\":3973:4066   */\n      tag_41\n      jump\t// in\n    tag_86:\n        /* \"#utility.yul\":4091:4093   */\n      0x20\n        /* \"#utility.yul\":4086:4089   */\n      dup3\n        /* \"#utility.yul\":4082:4094   */\n      add\n        /* \"#utility.yul\":4075:4094   */\n      swap1\n      pop\n        /* \"#utility.yul\":3734:4100   */\n      swap2\n      swap1\n      pop\n      jump\t// out\n        /* \"#utility.yul\":4106:4525   */\n    tag_23:\n        /* \"#utility.yul\":4272:4276   */\n      0x00\n        /* \"#utility.yul\":4310:4312   */\n      0x20\n        /* \"#utility.yul\":4299:4308   */\n      dup3\n        /* \"#utility.yul\":4295:4313   */\n      add\n        /* \"#utility.yul\":4287:4313   */\n      swap1\n      pop\n        /* \"#utility.yul\":4359:4368   */\n      dup2\n        /* \"#utility.yul\":4353:4357   */\n      dup2\n        /* \"#utility.yul\":4349:4369   */\n      sub\n        /* \"#utility.yul\":4345:4346   */\n      0x00\n        /* \"#utility.yul\":4334:4343   */\n      dup4\n        /* \"#utility.yul\":4330:4347   */\n      add\n        /* \"#utility.yul\":4323:4370   */\n      mstore\n        /* \"#utility.yul\":4387:4518   */\n      tag_88\n        /* \"#utility.yul\":4513:4517   */\n      dup2\n        /* \"#utility.yul\":4387:4518   */\n      tag_42\n      jump\t// in\n    tag_88:\n        /* \"#utility.yul\":4379:4518   */\n      swap1\n      pop\n        /* \"#utility.yul\":4106:4525   */\n      swap2\n      swap1\n      pop\n      jump\t// out\n        /* \"#utility.yul\":4531:4722   */\n    tag_25:\n        /* \"#utility.yul\":4571:4574   */\n      0x00\n        /* \"#utility.yul\":4590:4610   */\n      tag_90\n        /* \"#utility.yul\":4608:4609   */\n      dup3\n        /* \"#utility.yul\":4590:4610   */\n      tag_33\n      jump\t// in\n    tag_90:\n        /* \"#utility.yul\":4585:4610   */\n      swap2\n      pop\n        /* \"#utility.yul\":4624:4644   */\n      tag_91\n        /* \"#utility.yul\":4642:4643   */\n      dup4\n        /* \"#utility.yul\":4624:4644   */\n      tag_33\n      jump\t// in\n    tag_91:\n        /* \"#utility.yul\":4619:4644   */\n      swap3\n      pop\n        /* \"#utility.yul\":4667:4668   */\n      dup3\n        /* \"#utility.yul\":4664:4665   */\n      dup3\n        /* \"#utility.yul\":4660:4669   */\n      add\n        /* \"#utility.yul\":4653:4669   */\n      swap1\n      pop\n        /* \"#utility.yul\":4688:4691   */\n      dup1\n        /* \"#utility.yul\":4685:4686   */\n      dup3\n        /* \"#utility.yul\":4682:4692   */\n      gt\n        /* \"#utility.yul\":4679:4715   */\n      iszero\n      tag_92\n      jumpi\n        /* \"#utility.yul\":4695:4713   */\n      tag_93\n      tag_40\n      jump\t// in\n    tag_93:\n        /* \"#utility.yul\":4679:4715   */\n    tag_92:\n        /* \"#utility.yul\":4531:4722   */\n      swap3\n      swap2\n      pop\n      pop\n      jump\t// out\n\n    auxdata: 0xa26469706673582212205edc80456a7c86142cc5a36abacdfee34c213859216e92c457b93deb093a065964736f6c634300081a0033\n}\n",
				"bytecode": {
					"linkReferences": {},
					"object": "6080604052348015600e575f80fd5b506104d38061001c5f395ff3fe608060405234801561000f575f80fd5b5060043610610034575f3560e01c80635a6b26ba14610038578063e1fffcc414610054575b5f80fd5b610052600480360381019061004d91906102c4565b610084565b005b61006e600480360381019061006991906102c4565b610159565b60405161007b9190610311565b60405180910390f35b805f808473ffffffffffffffffffffffffffffffffffffffff1673ffffffffffffffffffffffffffffffffffffffff1681526020019081526020015f20541015610103576040517f08c379a00000000000000000000000000000000000000000000000000000000081526004016100fa90610384565b60405180910390fd5b805f808473ffffffffffffffffffffffffffffffffffffffff1673ffffffffffffffffffffffffffffffffffffffff1681526020019081526020015f205f82825461014e91906103cf565b925050819055505050565b5f80821161019c576040517f08c379a00000000000000000000000000000000000000000000000000000000081526004016101939061044c565b60405180910390fd5b815f808573ffffffffffffffffffffffffffffffffffffffff1673ffffffffffffffffffffffffffffffffffffffff1681526020019081526020015f205f8282546101e7919061046a565b925050819055505f808473ffffffffffffffffffffffffffffffffffffffff1673ffffffffffffffffffffffffffffffffffffffff1681526020019081526020015f2054905092915050565b5f80fd5b5f73ffffffffffffffffffffffffffffffffffffffff82169050919050565b5f61026082610237565b9050919050565b61027081610256565b811461027a575f80fd5b50565b5f8135905061028b81610267565b92915050565b5f819050919050565b6102a381610291565b81146102ad575f80fd5b50565b5f813590506102be8161029a565b92915050565b5f80604083850312156102da576102d9610233565b5b5f6102e78582860161027d565b92505060206102f8858286016102b0565b9150509250929050565b61030b81610291565b82525050565b5f6020820190506103245f830184610302565b92915050565b5f82825260208201905092915050565b7f496e73756666696369656e742062616c616e63657300000000000000000000005f82015250565b5f61036e60158361032a565b91506103798261033a565b602082019050919050565b5f6020820190508181035f83015261039b81610362565b9050919050565b7f4e487b71000000000000000000000000000000000000000000000000000000005f52601160045260245ffd5b5f6103d982610291565b91506103e483610291565b92508282039050818111156103fc576103fb6103a2565b5b92915050565b7f616d6f756e74206774207a65726f0000000000000000000000000000000000005f82015250565b5f610436600e8361032a565b915061044182610402565b602082019050919050565b5f6020820190508181035f8301526104638161042a565b9050919050565b5f61047482610291565b915061047f83610291565b9250828201905080821115610497576104966103a2565b5b9291505056fea26469706673582212205edc80456a7c86142cc5a36abacdfee34c213859216e92c457b93deb093a065964736f6c634300081a0033",
					"opcodes": "PUSH1 0x80 PUSH1 0x40 MSTORE CALLVALUE DUP1 ISZERO PUSH1 0xE JUMPI PUSH0 DUP1 REVERT JUMPDEST POP PUSH2 0x4D3 DUP1 PUSH2 0x1C PUSH0 CODECOPY PUSH0 RETURN INVALID PUSH1 0x80 PUSH1 0x40 MSTORE CALLVALUE DUP1 ISZERO PUSH2 0xF JUMPI PUSH0 DUP1 REVERT JUMPDEST POP PUSH1 0x4 CALLDATASIZE LT PUSH2 0x34 JUMPI PUSH0 CALLDATALOAD PUSH1 0xE0 SHR DUP1 PUSH4 0x5A6B26BA EQ PUSH2 0x38 JUMPI DUP1 PUSH4 0xE1FFFCC4 EQ PUSH2 0x54 JUMPI JUMPDEST PUSH0 DUP1 REVERT JUMPDEST PUSH2 0x52 PUSH1 0x4 DUP1 CALLDATASIZE SUB DUP2 ADD SWAP1 PUSH2 0x4D SWAP2 SWAP1 PUSH2 0x2C4 JUMP JUMPDEST PUSH2 0x84 JUMP JUMPDEST STOP JUMPDEST PUSH2 0x6E PUSH1 0x4 DUP1 CALLDATASIZE SUB DUP2 ADD SWAP1 PUSH2 0x69 SWAP2 SWAP1 PUSH2 0x2C4 JUMP JUMPDEST PUSH2 0x159 JUMP JUMPDEST PUSH1 0x40 MLOAD PUSH2 0x7B SWAP2 SWAP1 PUSH2 0x311 JUMP JUMPDEST PUSH1 0x40 MLOAD DUP1 SWAP2 SUB SWAP1 RETURN JUMPDEST DUP1 PUSH0 DUP1 DUP5 PUSH20 0xFFFFFFFFFFFFFFFFFFFFFFFFFFFFFFFFFFFFFFFF AND PUSH20 0xFFFFFFFFFFFFFFFFFFFFFFFFFFFFFFFFFFFFFFFF AND DUP2 MSTORE PUSH1 0x20 ADD SWAP1 DUP2 MSTORE PUSH1 0x20 ADD PUSH0 KECCAK256 SLOAD LT ISZERO PUSH2 0x103 JUMPI PUSH1 0x40 MLOAD PUSH32 0x8C379A000000000000000000000000000000000000000000000000000000000 DUP2 MSTORE PUSH1 0x4 ADD PUSH2 0xFA SWAP1 PUSH2 0x384 JUMP JUMPDEST PUSH1 0x40 MLOAD DUP1 SWAP2 SUB SWAP1 REVERT JUMPDEST DUP1 PUSH0 DUP1 DUP5 PUSH20 0xFFFFFFFFFFFFFFFFFFFFFFFFFFFFFFFFFFFFFFFF AND PUSH20 0xFFFFFFFFFFFFFFFFFFFFFFFFFFFFFFFFFFFFFFFF AND DUP2 MSTORE PUSH1 0x20 ADD SWAP1 DUP2 MSTORE PUSH1 0x20 ADD PUSH0 KECCAK256 PUSH0 DUP3 DUP3 SLOAD PUSH2 0x14E SWAP2 SWAP1 PUSH2 0x3CF JUMP JUMPDEST SWAP3 POP POP DUP2 SWAP1 SSTORE POP POP POP JUMP JUMPDEST PUSH0 DUP1 DUP3 GT PUSH2 0x19C JUMPI PUSH1 0x40 MLOAD PUSH32 0x8C379A000000000000000000000000000000000000000000000000000000000 DUP2 MSTORE PUSH1 0x4 ADD PUSH2 0x193 SWAP1 PUSH2 0x44C JUMP JUMPDEST PUSH1 0x40 MLOAD DUP1 SWAP2 SUB SWAP1 REVERT JUMPDEST DUP2 PUSH0 DUP1 DUP6 PUSH20 0xFFFFFFFFFFFFFFFFFFFFFFFFFFFFFFFFFFFFFFFF AND PUSH20 0xFFFFFFFFFFFFFFFFFFFFFFFFFFFFFFFFFFFFFFFF AND DUP2 MSTORE PUSH1 0x20 ADD SWAP1 DUP2 MSTORE PUSH1 0x20 ADD PUSH0 KECCAK256 PUSH0 DUP3 DUP3 SLOAD PUSH2 0x1E7 SWAP2 SWAP1 PUSH2 0x46A JUMP JUMPDEST SWAP3 POP POP DUP2 SWAP1 SSTORE POP PUSH0 DUP1 DUP5 PUSH20 0xFFFFFFFFFFFFFFFFFFFFFFFFFFFFFFFFFFFFFFFF AND PUSH20 0xFFFFFFFFFFFFFFFFFFFFFFFFFFFFFFFFFFFFFFFF AND DUP2 MSTORE PUSH1 0x20 ADD SWAP1 DUP2 MSTORE PUSH1 0x20 ADD PUSH0 KECCAK256 SLOAD SWAP1 POP SWAP3 SWAP2 POP POP JUMP JUMPDEST PUSH0 DUP1 REVERT JUMPDEST PUSH0 PUSH20 0xFFFFFFFFFFFFFFFFFFFFFFFFFFFFFFFFFFFFFFFF DUP3 AND SWAP1 POP SWAP2 SWAP1 POP JUMP JUMPDEST PUSH0 PUSH2 0x260 DUP3 PUSH2 0x237 JUMP JUMPDEST SWAP1 POP SWAP2 SWAP1 POP JUMP JUMPDEST PUSH2 0x270 DUP2 PUSH2 0x256 JUMP JUMPDEST DUP2 EQ PUSH2 0x27A JUMPI PUSH0 DUP1 REVERT JUMPDEST POP JUMP JUMPDEST PUSH0 DUP2 CALLDATALOAD SWAP1 POP PUSH2 0x28B DUP2 PUSH2 0x267 JUMP JUMPDEST SWAP3 SWAP2 POP POP JUMP JUMPDEST PUSH0 DUP2 SWAP1 POP SWAP2 SWAP1 POP JUMP JUMPDEST PUSH2 0x2A3 DUP2 PUSH2 0x291 JUMP JUMPDEST DUP2 EQ PUSH2 0x2AD JUMPI PUSH0 DUP1 REVERT JUMPDEST POP JUMP JUMPDEST PUSH0 DUP2 CALLDATALOAD SWAP1 POP PUSH2 0x2BE DUP2 PUSH2 0x29A JUMP JUMPDEST SWAP3 SWAP2 POP POP JUMP JUMPDEST PUSH0 DUP1 PUSH1 0x40 DUP4 DUP6 SUB SLT ISZERO PUSH2 0x2DA JUMPI PUSH2 0x2D9 PUSH2 0x233 JUMP JUMPDEST JUMPDEST PUSH0 PUSH2 0x2E7 DUP6 DUP3 DUP7 ADD PUSH2 0x27D JUMP JUMPDEST SWAP3 POP POP PUSH1 0x20 PUSH2 0x2F8 DUP6 DUP3 DUP7 ADD PUSH2 0x2B0 JUMP JUMPDEST SWAP2 POP POP SWAP3 POP SWAP3 SWAP1 POP JUMP JUMPDEST PUSH2 0x30B DUP2 PUSH2 0x291 JUMP JUMPDEST DUP3 MSTORE POP POP JUMP JUMPDEST PUSH0 PUSH1 0x20 DUP3 ADD SWAP1 POP PUSH2 0x324 PUSH0 DUP4 ADD DUP5 PUSH2 0x302 JUMP JUMPDEST SWAP3 SWAP2 POP POP JUMP JUMPDEST PUSH0 DUP3 DUP3 MSTORE PUSH1 0x20 DUP3 ADD SWAP1 POP SWAP3 SWAP2 POP POP JUMP JUMPDEST PUSH32 0x496E73756666696369656E742062616C616E6365730000000000000000000000 PUSH0 DUP3 ADD MSTORE POP JUMP JUMPDEST PUSH0 PUSH2 0x36E PUSH1 0x15 DUP4 PUSH2 0x32A JUMP JUMPDEST SWAP2 POP PUSH2 0x379 DUP3 PUSH2 0x33A JUMP JUMPDEST PUSH1 0x20 DUP3 ADD SWAP1 POP SWAP2 SWAP1 POP JUMP JUMPDEST PUSH0 PUSH1 0x20 DUP3 ADD SWAP1 POP DUP2 DUP2 SUB PUSH0 DUP4 ADD MSTORE PUSH2 0x39B DUP2 PUSH2 0x362 JUMP JUMPDEST SWAP1 POP SWAP2 SWAP1 POP JUMP JUMPDEST PUSH32 0x4E487B7100000000000000000000000000000000000000000000000000000000 PUSH0 MSTORE PUSH1 0x11 PUSH1 0x4 MSTORE PUSH1 0x24 PUSH0 REVERT JUMPDEST PUSH0 PUSH2 0x3D9 DUP3 PUSH2 0x291 JUMP JUMPDEST SWAP2 POP PUSH2 0x3E4 DUP4 PUSH2 0x291 JUMP JUMPDEST SWAP3 POP DUP3 DUP3 SUB SWAP1 POP DUP2 DUP2 GT ISZERO PUSH2 0x3FC JUMPI PUSH2 0x3FB PUSH2 0x3A2 JUMP JUMPDEST JUMPDEST SWAP3 SWAP2 POP POP JUMP JUMPDEST PUSH32 0x616D6F756E74206774207A65726F000000000000000000000000000000000000 PUSH0 DUP3 ADD MSTORE POP JUMP JUMPDEST PUSH0 PUSH2 0x436 PUSH1 0xE DUP4 PUSH2 0x32A JUMP JUMPDEST SWAP2 POP PUSH2 0x441 DUP3 PUSH2 0x402 JUMP JUMPDEST PUSH1 0x20 DUP3 ADD SWAP1 POP SWAP2 SWAP1 POP JUMP JUMPDEST PUSH0 PUSH1 0x20 DUP3 ADD SWAP1 POP DUP2 DUP2 SUB PUSH0 DUP4 ADD MSTORE PUSH2 0x463 DUP2 PUSH2 0x42A JUMP JUMPDEST SWAP1 POP SWAP2 SWAP1 POP JUMP JUMPDEST PUSH0 PUSH2 0x474 DUP3 PUSH2 0x291 JUMP JUMPDEST SWAP2 POP PUSH2 0x47F DUP4 PUSH2 0x291 JUMP JUMPDEST SWAP3 POP DUP3 DUP3 ADD SWAP1 POP DUP1 DUP3 GT ISZERO PUSH2 0x497 JUMPI PUSH2 0x496 PUSH2 0x3A2 JUMP JUMPDEST JUMPDEST SWAP3 SWAP2 POP POP JUMP INVALID LOG2 PUSH5 0x6970667358 0x22 SLT KECCAK256 MCOPY 0xDC DUP1 GASLIMIT PUSH11 0x7C86142CC5A36ABACDFEE3 0x4C 0x21 CODESIZE MSIZE 0x21 PUSH15 0x92C457B93DEB093A065964736F6C63 NUMBER STOP ADDMOD BYTE STOP CALLER "
				},
				"gasEstimates": {
					"creation": {
						"codeDepositCost": "247000",
						"executionCost": "285",
						"totalCost": "247285"
					},
					"external": {
						"Deposit(address,uint256)": "infinite",
						"withdrawal(address,uint256)": "infinite"
					}
				},
				"methodIdentifiers": {
					"Deposit(address,uint256)": "e1fffcc4",
					"withdrawal(address,uint256)": "5a6b26ba"
				}
			},
			"storageLayout": {
				"storage": [
					{
						"astId": 161,
						"contract": "contracts/02/Interface.sol:Bank",
						"label": "bankBalances",
						"offset": 0,
						"slot": "0",
						"type": "t_mapping(t_address,t_uint256)"
					}
				],
				"types": {
					"t_address": {
						"encoding": "inplace",
						"label": "address",
						"numberOfBytes": "20"
					},
					"t_mapping(t_address,t_uint256)": {
						"encoding": "mapping",
						"key": "t_address",
						"label": "mapping(address => uint256)",
						"numberOfBytes": "32",
						"value": "t_uint256"
					},
					"t_uint256": {
						"encoding": "inplace",
						"label": "uint256",
						"numberOfBytes": "32"
					}
				}
			},
			"userdoc": {
				"kind": "user",
				"methods": {},
				"version": 1
			}
		}
	}
}