{
	"contracts/03/erc777/ERC1820Registry.sol": {
		"ERC1820Registry": {
			"abi": [
				{
					"anonymous": false,
					"inputs": [
						{
							"indexed": true,
							"internalType": "address",
							"name": "addr",
							"type": "address"
						},
						{
							"indexed": true,
							"internalType": "bytes32",
							"name": "interfaceHash",
							"type": "bytes32"
						},
						{
							"indexed": true,
							"internalType": "address",
							"name": "implementer",
							"type": "address"
						}
					],
					"name": "InterfaceImplementerSet",
					"type": "event"
				},
				{
					"anonymous": false,
					"inputs": [
						{
							"indexed": true,
							"internalType": "address",
							"name": "addr",
							"type": "address"
						},
						{
							"indexed": true,
							"internalType": "address",
							"name": "newManager",
							"type": "address"
						}
					],
					"name": "ManagerChanged",
					"type": "event"
				},
				{
					"inputs": [
						{
							"internalType": "address",
							"name": "_addr",
							"type": "address"
						},
						{
							"internalType": "bytes32",
							"name": "_interfaceHash",
							"type": "bytes32"
						}
					],
					"name": "getInterfaceImplementer",
					"outputs": [
						{
							"internalType": "address",
							"name": "",
							"type": "address"
						}
					],
					"stateMutability": "view",
					"type": "function"
				},
				{
					"inputs": [
						{
							"internalType": "address",
							"name": "_addr",
							"type": "address"
						}
					],
					"name": "getManager",
					"outputs": [
						{
							"internalType": "address",
							"name": "",
							"type": "address"
						}
					],
					"stateMutability": "view",
					"type": "function"
				},
				{
					"inputs": [
						{
							"internalType": "address",
							"name": "_contract",
							"type": "address"
						},
						{
							"internalType": "bytes4",
							"name": "_interfaceId",
							"type": "bytes4"
						}
					],
					"name": "implementsERC165Interface",
					"outputs": [
						{
							"internalType": "bool",
							"name": "",
							"type": "bool"
						}
					],
					"stateMutability": "view",
					"type": "function"
				},
				{
					"inputs": [
						{
							"internalType": "address",
							"name": "_contract",
							"type": "address"
						},
						{
							"internalType": "bytes4",
							"name": "_interfaceId",
							"type": "bytes4"
						}
					],
					"name": "implementsERC165InterfaceNoCache",
					"outputs": [
						{
							"internalType": "bool",
							"name": "",
							"type": "bool"
						}
					],
					"stateMutability": "view",
					"type": "function"
				},
				{
					"inputs": [
						{
							"internalType": "string",
							"name": "_interfaceName",
							"type": "string"
						}
					],
					"name": "interfaceHash",
					"outputs": [
						{
							"internalType": "bytes32",
							"name": "",
							"type": "bytes32"
						}
					],
					"stateMutability": "pure",
					"type": "function"
				},
				{
					"inputs": [
						{
							"internalType": "address",
							"name": "_addr",
							"type": "address"
						},
						{
							"internalType": "bytes32",
							"name": "_interfaceHash",
							"type": "bytes32"
						},
						{
							"internalType": "address",
							"name": "_implementer",
							"type": "address"
						}
					],
					"name": "setInterfaceImplementer",
					"outputs": [],
					"stateMutability": "nonpayable",
					"type": "function"
				},
				{
					"inputs": [
						{
							"internalType": "address",
							"name": "_addr",
							"type": "address"
						},
						{
							"internalType": "address",
							"name": "_newManager",
							"type": "address"
						}
					],
					"name": "setManager",
					"outputs": [],
					"stateMutability": "nonpayable",
					"type": "function"
				},
				{
					"inputs": [
						{
							"internalType": "address",
							"name": "_contract",
							"type": "address"
						},
						{
							"internalType": "bytes4",
							"name": "_interfaceId",
							"type": "bytes4"
						}
					],
					"name": "updateERC165Cache",
					"outputs": [],
					"stateMutability": "nonpayable",
					"type": "function"
				}
			],
			"devdoc": {
				"kind": "dev",
				"methods": {
					"getInterfaceImplementer(address,bytes32)": {
						"params": {
							"_addr": "查询地址（如果'_addr'是零地址，则假定为'msg.sender'）。",
							"_interfaceHash": "查询接口，它是接口名称字符串的 keccak256 哈希值 例如: 'web3.utils.keccak256(\"ERC777TokensRecipient\")' 表示 'ERC777TokensRecipient' 接口."
						},
						"returns": {
							"_0": "返回实现者的地址，没有实现返回 ‘0’"
						}
					},
					"implementsERC165Interface(address,bytes4)": {
						"params": {
							"_contract": "要检查的合约地址。",
							"_interfaceId": "要检查ERC165接口。"
						},
						"returns": {
							"_0": "True 如果合约实现了接口返回 true, 否则false."
						}
					},
					"implementsERC165InterfaceNoCache(address,bytes4)": {
						"params": {
							"_contract": "要检查的合约地址。",
							"_interfaceId": "要检查ERC165接口。"
						},
						"returns": {
							"_0": "True 如果合约实现了接口返回 true, 否则false."
						}
					},
					"setInterfaceImplementer(address,bytes32,address)": {
						"params": {
							"_addr": "待设置的关联接口的地址（如果'_addr'是零地址，则假定为'msg.sender'）",
							"_implementer": "为地址'_addr'实现了 '_interfaceHash'接口的合约地址",
							"_interfaceHash": "接口，它是接口名称字符串的 keccak256 哈希值 例如: 'web3.utils.keccak256(\"ERC777TokensRecipient\")' 表示 'ERC777TokensRecipient' 接口。"
						}
					}
				},
				"title": "ERC1820 伪自省注册表合约",
				"version": 1
			},
			"evm": {
				"assembly": "    /* \"contracts/03/erc777/ERC1820Registry.sol\":4339:12952  contract ERC1820Registry { ... */\n  mstore(0x40, 0x80)\n  callvalue\n  dup1\n  iszero\n  tag_1\n  jumpi\n  0x00\n  dup1\n  revert\ntag_1:\n  pop\n  dataSize(sub_0)\n  dup1\n  dataOffset(sub_0)\n  0x00\n  codecopy\n  0x00\n  return\nstop\n\nsub_0: assembly {\n        /* \"contracts/03/erc777/ERC1820Registry.sol\":4339:12952  contract ERC1820Registry { ... */\n      mstore(0x40, 0x80)\n      callvalue\n      dup1\n      iszero\n      tag_1\n      jumpi\n      0x00\n      dup1\n      revert\n    tag_1:\n      pop\n      jumpi(tag_2, lt(calldatasize, 0x04))\n      shr(0xe0, calldataload(0x00))\n      dup1\n      0xa41e7d51\n      gt\n      tag_11\n      jumpi\n      dup1\n      0xa41e7d51\n      eq\n      tag_7\n      jumpi\n      dup1\n      0xaabbb8ca\n      eq\n      tag_8\n      jumpi\n      dup1\n      0xb7056765\n      eq\n      tag_9\n      jumpi\n      dup1\n      0xf712f3e8\n      eq\n      tag_10\n      jumpi\n      jump(tag_2)\n    tag_11:\n      dup1\n      0x29965a1d\n      eq\n      tag_3\n      jumpi\n      dup1\n      0x3d584063\n      eq\n      tag_4\n      jumpi\n      dup1\n      0x5df8122f\n      eq\n      tag_5\n      jumpi\n      dup1\n      0x65ba36c1\n      eq\n      tag_6\n      jumpi\n    tag_2:\n      0x00\n      dup1\n      revert\n        /* \"contracts/03/erc777/ERC1820Registry.sol\":7013:7799  function setInterfaceImplementer(address _addr, bytes32 _interfaceHash, address _implementer) external {... */\n    tag_3:\n      tag_12\n      0x04\n      dup1\n      calldatasize\n      sub\n      dup2\n      add\n      swap1\n      tag_13\n      swap2\n      swap1\n      tag_14\n      jump\t// in\n    tag_13:\n      tag_15\n      jump\t// in\n    tag_12:\n      stop\n        /* \"contracts/03/erc777/ERC1820Registry.sol\":8340:8613  function getManager(address _addr) public view returns(address) {... */\n    tag_4:\n      tag_16\n      0x04\n      dup1\n      calldatasize\n      sub\n      dup2\n      add\n      swap1\n      tag_17\n      swap2\n      swap1\n      tag_18\n      jump\t// in\n    tag_17:\n      tag_19\n      jump\t// in\n    tag_16:\n      mload(0x40)\n      tag_20\n      swap2\n      swap1\n      tag_21\n      jump\t// in\n    tag_20:\n      mload(0x40)\n      dup1\n      swap2\n      sub\n      swap1\n      return\n        /* \"contracts/03/erc777/ERC1820Registry.sol\":8022:8287  function setManager(address _addr, address _newManager) external {... */\n    tag_5:\n      tag_22\n      0x04\n      dup1\n      calldatasize\n      sub\n      dup2\n      add\n      swap1\n      tag_23\n      swap2\n      swap1\n      tag_24\n      jump\t// in\n    tag_23:\n      tag_25\n      jump\t// in\n    tag_22:\n      stop\n        /* \"contracts/03/erc777/ERC1820Registry.sol\":8687:8840  function interfaceHash(string calldata _interfaceName) external pure returns(bytes32) {... */\n    tag_6:\n      tag_26\n      0x04\n      dup1\n      calldatasize\n      sub\n      dup2\n      add\n      swap1\n      tag_27\n      swap2\n      swap1\n      tag_28\n      jump\t// in\n    tag_27:\n      tag_29\n      jump\t// in\n    tag_26:\n      mload(0x40)\n      tag_30\n      swap2\n      swap1\n      tag_31\n      jump\t// in\n    tag_30:\n      mload(0x40)\n      dup1\n      swap2\n      sub\n      swap1\n      return\n        /* \"contracts/03/erc777/ERC1820Registry.sol\":8952:9232  function updateERC165Cache(address _contract, bytes4 _interfaceId) external {... */\n    tag_7:\n      tag_32\n      0x04\n      dup1\n      calldatasize\n      sub\n      dup2\n      add\n      swap1\n      tag_33\n      swap2\n      swap1\n      tag_34\n      jump\t// in\n    tag_33:\n      tag_35\n      jump\t// in\n    tag_32:\n      stop\n        /* \"contracts/03/erc777/ERC1820Registry.sol\":5986:6428  function getInterfaceImplementer(address _addr, bytes32 _interfaceHash) external view returns (address) {... */\n    tag_8:\n      tag_36\n      0x04\n      dup1\n      calldatasize\n      sub\n      dup2\n      add\n      swap1\n      tag_37\n      swap2\n      swap1\n      tag_38\n      jump\t// in\n    tag_37:\n      tag_39\n      jump\t// in\n    tag_36:\n      mload(0x40)\n      tag_40\n      swap2\n      swap1\n      tag_21\n      jump\t// in\n    tag_40:\n      mload(0x40)\n      dup1\n      swap2\n      sub\n      swap1\n      return\n        /* \"contracts/03/erc777/ERC1820Registry.sol\":10263:10881  function implementsERC165InterfaceNoCache(address _contract, bytes4 _interfaceId) public view returns (bool) {... */\n    tag_9:\n      tag_41\n      0x04\n      dup1\n      calldatasize\n      sub\n      dup2\n      add\n      swap1\n      tag_42\n      swap2\n      swap1\n      tag_34\n      jump\t// in\n    tag_42:\n      tag_43\n      jump\t// in\n    tag_41:\n      mload(0x40)\n      tag_44\n      swap2\n      swap1\n      tag_45\n      jump\t// in\n    tag_44:\n      mload(0x40)\n      dup1\n      swap2\n      sub\n      swap1\n      return\n        /* \"contracts/03/erc777/ERC1820Registry.sol\":9666:9982  function implementsERC165Interface(address _contract, bytes4 _interfaceId) public view returns (bool) {... */\n    tag_10:\n      tag_46\n      0x04\n      dup1\n      calldatasize\n      sub\n      dup2\n      add\n      swap1\n      tag_47\n      swap2\n      swap1\n      tag_34\n      jump\t// in\n    tag_47:\n      tag_48\n      jump\t// in\n    tag_46:\n      mload(0x40)\n      tag_49\n      swap2\n      swap1\n      tag_45\n      jump\t// in\n    tag_49:\n      mload(0x40)\n      dup1\n      swap2\n      sub\n      swap1\n      return\n        /* \"contracts/03/erc777/ERC1820Registry.sol\":7013:7799  function setInterfaceImplementer(address _addr, bytes32 _interfaceHash, address _implementer) external {... */\n    tag_15:\n        /* \"contracts/03/erc777/ERC1820Registry.sol\":7126:7138  address addr */\n      0x00\n        /* \"contracts/03/erc777/ERC1820Registry.sol\":7158:7159  0 */\n      dup1\n        /* \"contracts/03/erc777/ERC1820Registry.sol\":7141:7160  _addr == address(0) */\n      0xffffffffffffffffffffffffffffffffffffffff\n      and\n        /* \"contracts/03/erc777/ERC1820Registry.sol\":7141:7146  _addr */\n      dup5\n        /* \"contracts/03/erc777/ERC1820Registry.sol\":7141:7160  _addr == address(0) */\n      0xffffffffffffffffffffffffffffffffffffffff\n      and\n      eq\n        /* \"contracts/03/erc777/ERC1820Registry.sol\":7141:7181  _addr == address(0) ? msg.sender : _addr */\n      tag_51\n      jumpi\n        /* \"contracts/03/erc777/ERC1820Registry.sol\":7176:7181  _addr */\n      dup4\n        /* \"contracts/03/erc777/ERC1820Registry.sol\":7141:7181  _addr == address(0) ? msg.sender : _addr */\n      jump(tag_52)\n    tag_51:\n        /* \"contracts/03/erc777/ERC1820Registry.sol\":7163:7173  msg.sender */\n      caller\n        /* \"contracts/03/erc777/ERC1820Registry.sol\":7141:7181  _addr == address(0) ? msg.sender : _addr */\n    tag_52:\n        /* \"contracts/03/erc777/ERC1820Registry.sol\":7126:7181  address addr = _addr == address(0) ? msg.sender : _addr */\n      swap1\n      pop\n        /* \"contracts/03/erc777/ERC1820Registry.sol\":7219:7229  msg.sender */\n      caller\n        /* \"contracts/03/erc777/ERC1820Registry.sol\":7199:7229  getManager(addr) == msg.sender */\n      0xffffffffffffffffffffffffffffffffffffffff\n      and\n        /* \"contracts/03/erc777/ERC1820Registry.sol\":7199:7215  getManager(addr) */\n      tag_53\n        /* \"contracts/03/erc777/ERC1820Registry.sol\":7210:7214  addr */\n      dup3\n        /* \"contracts/03/erc777/ERC1820Registry.sol\":7199:7209  getManager */\n      tag_19\n        /* \"contracts/03/erc777/ERC1820Registry.sol\":7199:7215  getManager(addr) */\n      jump\t// in\n    tag_53:\n        /* \"contracts/03/erc777/ERC1820Registry.sol\":7199:7229  getManager(addr) == msg.sender */\n      0xffffffffffffffffffffffffffffffffffffffff\n      and\n      eq\n        /* \"contracts/03/erc777/ERC1820Registry.sol\":7191:7249  require(getManager(addr) == msg.sender, \"Not the manager\") */\n      tag_54\n      jumpi\n      mload(0x40)\n      0x08c379a000000000000000000000000000000000000000000000000000000000\n      dup2\n      mstore\n      0x04\n      add\n      tag_55\n      swap1\n      tag_56\n      jump\t// in\n    tag_55:\n      mload(0x40)\n      dup1\n      swap2\n      sub\n      swap1\n      revert\n    tag_54:\n        /* \"contracts/03/erc777/ERC1820Registry.sol\":7269:7302  isERC165Interface(_interfaceHash) */\n      tag_57\n        /* \"contracts/03/erc777/ERC1820Registry.sol\":7287:7301  _interfaceHash */\n      dup4\n        /* \"contracts/03/erc777/ERC1820Registry.sol\":7269:7286  isERC165Interface */\n      tag_58\n        /* \"contracts/03/erc777/ERC1820Registry.sol\":7269:7302  isERC165Interface(_interfaceHash) */\n      jump\t// in\n    tag_57:\n        /* \"contracts/03/erc777/ERC1820Registry.sol\":7268:7302  !isERC165Interface(_interfaceHash) */\n      iszero\n        /* \"contracts/03/erc777/ERC1820Registry.sol\":7260:7333  require(!isERC165Interface(_interfaceHash), \"Must not be an ERC165 hash\") */\n      tag_59\n      jumpi\n      mload(0x40)\n      0x08c379a000000000000000000000000000000000000000000000000000000000\n      dup2\n      mstore\n      0x04\n      add\n      tag_60\n      swap1\n      tag_61\n      jump\t// in\n    tag_60:\n      mload(0x40)\n      dup1\n      swap2\n      sub\n      swap1\n      revert\n    tag_59:\n        /* \"contracts/03/erc777/ERC1820Registry.sol\":7371:7372  0 */\n      0x00\n        /* \"contracts/03/erc777/ERC1820Registry.sol\":7347:7373  _implementer != address(0) */\n      0xffffffffffffffffffffffffffffffffffffffff\n      and\n        /* \"contracts/03/erc777/ERC1820Registry.sol\":7347:7359  _implementer */\n      dup3\n        /* \"contracts/03/erc777/ERC1820Registry.sol\":7347:7373  _implementer != address(0) */\n      0xffffffffffffffffffffffffffffffffffffffff\n      and\n      eq\n      iszero\n        /* \"contracts/03/erc777/ERC1820Registry.sol\":7347:7403  _implementer != address(0) && _implementer != msg.sender */\n      dup1\n      iszero\n      tag_62\n      jumpi\n      pop\n        /* \"contracts/03/erc777/ERC1820Registry.sol\":7393:7403  msg.sender */\n      caller\n        /* \"contracts/03/erc777/ERC1820Registry.sol\":7377:7403  _implementer != msg.sender */\n      0xffffffffffffffffffffffffffffffffffffffff\n      and\n        /* \"contracts/03/erc777/ERC1820Registry.sol\":7377:7389  _implementer */\n      dup3\n        /* \"contracts/03/erc777/ERC1820Registry.sol\":7377:7403  _implementer != msg.sender */\n      0xffffffffffffffffffffffffffffffffffffffff\n      and\n      eq\n      iszero\n        /* \"contracts/03/erc777/ERC1820Registry.sol\":7347:7403  _implementer != address(0) && _implementer != msg.sender */\n    tag_62:\n        /* \"contracts/03/erc777/ERC1820Registry.sol\":7343:7662  if (_implementer != address(0) && _implementer != msg.sender) {... */\n      iszero\n      tag_63\n      jumpi\n        /* \"contracts/03/erc777/ERC1820Registry.sol\":4767:4807  abi.encodePacked(\"ERC1820_ACCEPT_MAGIC\") */\n      add(0x20, mload(0x40))\n      tag_64\n      swap1\n      tag_65\n      jump\t// in\n    tag_64:\n      mload(0x40)\n      0x20\n      dup2\n      dup4\n      sub\n      sub\n      dup2\n      mstore\n      swap1\n      0x40\n      mstore\n        /* \"contracts/03/erc777/ERC1820Registry.sol\":4757:4808  keccak256(abi.encodePacked(\"ERC1820_ACCEPT_MAGIC\")) */\n      dup1\n      mload\n      swap1\n      0x20\n      add\n      keccak256\n        /* \"contracts/03/erc777/ERC1820Registry.sol\":7473:7485  _implementer */\n      dup3\n        /* \"contracts/03/erc777/ERC1820Registry.sol\":7444:7539  IERC1820ImplementerInterface(_implementer)... */\n      0xffffffffffffffffffffffffffffffffffffffff\n      and\n      0x249cb3fa\n        /* \"contracts/03/erc777/ERC1820Registry.sol\":7540:7554  _interfaceHash */\n      dup6\n        /* \"contracts/03/erc777/ERC1820Registry.sol\":7556:7560  addr */\n      dup5\n        /* \"contracts/03/erc777/ERC1820Registry.sol\":7444:7561  IERC1820ImplementerInterface(_implementer)... */\n      mload(0x40)\n      dup4\n      0xffffffff\n      and\n      0xe0\n      shl\n      dup2\n      mstore\n      0x04\n      add\n      tag_66\n      swap3\n      swap2\n      swap1\n      tag_67\n      jump\t// in\n    tag_66:\n      0x20\n      mload(0x40)\n      dup1\n      dup4\n      sub\n      dup2\n      dup7\n      gas\n      staticcall\n      iszero\n      dup1\n      iszero\n      tag_69\n      jumpi\n      returndatasize\n      0x00\n      dup1\n      returndatacopy\n      revert(0x00, returndatasize)\n    tag_69:\n      pop\n      pop\n      pop\n      pop\n      mload(0x40)\n      returndatasize\n      not(0x1f)\n      0x1f\n      dup3\n      add\n      and\n      dup3\n      add\n      dup1\n      0x40\n      mstore\n      pop\n      dup2\n      add\n      swap1\n      tag_70\n      swap2\n      swap1\n      tag_71\n      jump\t// in\n    tag_70:\n        /* \"contracts/03/erc777/ERC1820Registry.sol\":7444:7585  IERC1820ImplementerInterface(_implementer)... */\n      eq\n        /* \"contracts/03/erc777/ERC1820Registry.sol\":7419:7651  require(... */\n      tag_72\n      jumpi\n      mload(0x40)\n      0x08c379a000000000000000000000000000000000000000000000000000000000\n      dup2\n      mstore\n      0x04\n      add\n      tag_73\n      swap1\n      tag_74\n      jump\t// in\n    tag_73:\n      mload(0x40)\n      dup1\n      swap2\n      sub\n      swap1\n      revert\n    tag_72:\n        /* \"contracts/03/erc777/ERC1820Registry.sol\":7343:7662  if (_implementer != address(0) && _implementer != msg.sender) {... */\n    tag_63:\n        /* \"contracts/03/erc777/ERC1820Registry.sol\":7706:7718  _implementer */\n      dup2\n        /* \"contracts/03/erc777/ERC1820Registry.sol\":7671:7681  interfaces */\n      0x00\n        /* \"contracts/03/erc777/ERC1820Registry.sol\":7671:7687  interfaces[addr] */\n      dup1\n        /* \"contracts/03/erc777/ERC1820Registry.sol\":7682:7686  addr */\n      dup4\n        /* \"contracts/03/erc777/ERC1820Registry.sol\":7671:7687  interfaces[addr] */\n      0xffffffffffffffffffffffffffffffffffffffff\n      and\n      0xffffffffffffffffffffffffffffffffffffffff\n      and\n      dup2\n      mstore\n      0x20\n      add\n      swap1\n      dup2\n      mstore\n      0x20\n      add\n      0x00\n      keccak256\n        /* \"contracts/03/erc777/ERC1820Registry.sol\":7671:7703  interfaces[addr][_interfaceHash] */\n      0x00\n        /* \"contracts/03/erc777/ERC1820Registry.sol\":7688:7702  _interfaceHash */\n      dup6\n        /* \"contracts/03/erc777/ERC1820Registry.sol\":7671:7703  interfaces[addr][_interfaceHash] */\n      dup2\n      mstore\n      0x20\n      add\n      swap1\n      dup2\n      mstore\n      0x20\n      add\n      0x00\n      keccak256\n      0x00\n        /* \"contracts/03/erc777/ERC1820Registry.sol\":7671:7718  interfaces[addr][_interfaceHash] = _implementer */\n      0x0100\n      exp\n      dup2\n      sload\n      dup2\n      0xffffffffffffffffffffffffffffffffffffffff\n      mul\n      not\n      and\n      swap1\n      dup4\n      0xffffffffffffffffffffffffffffffffffffffff\n      and\n      mul\n      or\n      swap1\n      sstore\n      pop\n        /* \"contracts/03/erc777/ERC1820Registry.sol\":7779:7791  _implementer */\n      dup2\n        /* \"contracts/03/erc777/ERC1820Registry.sol\":7733:7792  InterfaceImplementerSet(addr, _interfaceHash, _implementer) */\n      0xffffffffffffffffffffffffffffffffffffffff\n      and\n        /* \"contracts/03/erc777/ERC1820Registry.sol\":7763:7777  _interfaceHash */\n      dup4\n        /* \"contracts/03/erc777/ERC1820Registry.sol\":7757:7761  addr */\n      dup3\n        /* \"contracts/03/erc777/ERC1820Registry.sol\":7733:7792  InterfaceImplementerSet(addr, _interfaceHash, _implementer) */\n      0xffffffffffffffffffffffffffffffffffffffff\n      and\n      0x93baa6efbd2244243bfee6ce4cfdd1d04fc4c0e9a786abd3a41313bd352db153\n      mload(0x40)\n      mload(0x40)\n      dup1\n      swap2\n      sub\n      swap1\n      log4\n        /* \"contracts/03/erc777/ERC1820Registry.sol\":7116:7799  {... */\n      pop\n        /* \"contracts/03/erc777/ERC1820Registry.sol\":7013:7799  function setInterfaceImplementer(address _addr, bytes32 _interfaceHash, address _implementer) external {... */\n      pop\n      pop\n      pop\n      jump\t// out\n        /* \"contracts/03/erc777/ERC1820Registry.sol\":8340:8613  function getManager(address _addr) public view returns(address) {... */\n    tag_19:\n        /* \"contracts/03/erc777/ERC1820Registry.sol\":8395:8402  address */\n      0x00\n        /* \"contracts/03/erc777/ERC1820Registry.sol\":8513:8514  0 */\n      dup1\n        /* \"contracts/03/erc777/ERC1820Registry.sol\":8486:8515  managers[_addr] == address(0) */\n      0xffffffffffffffffffffffffffffffffffffffff\n      and\n        /* \"contracts/03/erc777/ERC1820Registry.sol\":8486:8494  managers */\n      0x01\n        /* \"contracts/03/erc777/ERC1820Registry.sol\":8486:8501  managers[_addr] */\n      0x00\n        /* \"contracts/03/erc777/ERC1820Registry.sol\":8495:8500  _addr */\n      dup5\n        /* \"contracts/03/erc777/ERC1820Registry.sol\":8486:8501  managers[_addr] */\n      0xffffffffffffffffffffffffffffffffffffffff\n      and\n      0xffffffffffffffffffffffffffffffffffffffff\n      and\n      dup2\n      mstore\n      0x20\n      add\n      swap1\n      dup2\n      mstore\n      0x20\n      add\n      0x00\n      keccak256\n      0x00\n      swap1\n      sload\n      swap1\n      0x0100\n      exp\n      swap1\n      div\n      0xffffffffffffffffffffffffffffffffffffffff\n      and\n        /* \"contracts/03/erc777/ERC1820Registry.sol\":8486:8515  managers[_addr] == address(0) */\n      0xffffffffffffffffffffffffffffffffffffffff\n      and\n      sub\n        /* \"contracts/03/erc777/ERC1820Registry.sol\":8482:8607  if (managers[_addr] == address(0)) {... */\n      tag_76\n      jumpi\n        /* \"contracts/03/erc777/ERC1820Registry.sol\":8538:8543  _addr */\n      dup2\n        /* \"contracts/03/erc777/ERC1820Registry.sol\":8531:8543  return _addr */\n      swap1\n      pop\n      jump(tag_75)\n        /* \"contracts/03/erc777/ERC1820Registry.sol\":8482:8607  if (managers[_addr] == address(0)) {... */\n    tag_76:\n        /* \"contracts/03/erc777/ERC1820Registry.sol\":8581:8589  managers */\n      0x01\n        /* \"contracts/03/erc777/ERC1820Registry.sol\":8581:8596  managers[_addr] */\n      0x00\n        /* \"contracts/03/erc777/ERC1820Registry.sol\":8590:8595  _addr */\n      dup4\n        /* \"contracts/03/erc777/ERC1820Registry.sol\":8581:8596  managers[_addr] */\n      0xffffffffffffffffffffffffffffffffffffffff\n      and\n      0xffffffffffffffffffffffffffffffffffffffff\n      and\n      dup2\n      mstore\n      0x20\n      add\n      swap1\n      dup2\n      mstore\n      0x20\n      add\n      0x00\n      keccak256\n      0x00\n      swap1\n      sload\n      swap1\n      0x0100\n      exp\n      swap1\n      div\n      0xffffffffffffffffffffffffffffffffffffffff\n      and\n        /* \"contracts/03/erc777/ERC1820Registry.sol\":8574:8596  return managers[_addr] */\n      swap1\n      pop\n        /* \"contracts/03/erc777/ERC1820Registry.sol\":8340:8613  function getManager(address _addr) public view returns(address) {... */\n    tag_75:\n      swap2\n      swap1\n      pop\n      jump\t// out\n        /* \"contracts/03/erc777/ERC1820Registry.sol\":8022:8287  function setManager(address _addr, address _newManager) external {... */\n    tag_25:\n        /* \"contracts/03/erc777/ERC1820Registry.sol\":8126:8136  msg.sender */\n      caller\n        /* \"contracts/03/erc777/ERC1820Registry.sol\":8105:8136  getManager(_addr) == msg.sender */\n      0xffffffffffffffffffffffffffffffffffffffff\n      and\n        /* \"contracts/03/erc777/ERC1820Registry.sol\":8105:8122  getManager(_addr) */\n      tag_79\n        /* \"contracts/03/erc777/ERC1820Registry.sol\":8116:8121  _addr */\n      dup4\n        /* \"contracts/03/erc777/ERC1820Registry.sol\":8105:8115  getManager */\n      tag_19\n        /* \"contracts/03/erc777/ERC1820Registry.sol\":8105:8122  getManager(_addr) */\n      jump\t// in\n    tag_79:\n        /* \"contracts/03/erc777/ERC1820Registry.sol\":8105:8136  getManager(_addr) == msg.sender */\n      0xffffffffffffffffffffffffffffffffffffffff\n      and\n      eq\n        /* \"contracts/03/erc777/ERC1820Registry.sol\":8097:8156  require(getManager(_addr) == msg.sender, \"Not the manager\") */\n      tag_80\n      jumpi\n      mload(0x40)\n      0x08c379a000000000000000000000000000000000000000000000000000000000\n      dup2\n      mstore\n      0x04\n      add\n      tag_81\n      swap1\n      tag_56\n      jump\t// in\n    tag_81:\n      mload(0x40)\n      dup1\n      swap2\n      sub\n      swap1\n      revert\n    tag_80:\n        /* \"contracts/03/erc777/ERC1820Registry.sol\":8199:8204  _addr */\n      dup2\n        /* \"contracts/03/erc777/ERC1820Registry.sol\":8184:8204  _newManager == _addr */\n      0xffffffffffffffffffffffffffffffffffffffff\n      and\n        /* \"contracts/03/erc777/ERC1820Registry.sol\":8184:8195  _newManager */\n      dup2\n        /* \"contracts/03/erc777/ERC1820Registry.sol\":8184:8204  _newManager == _addr */\n      0xffffffffffffffffffffffffffffffffffffffff\n      and\n      eq\n        /* \"contracts/03/erc777/ERC1820Registry.sol\":8184:8231  _newManager == _addr ? address(0) : _newManager */\n      tag_82\n      jumpi\n        /* \"contracts/03/erc777/ERC1820Registry.sol\":8220:8231  _newManager */\n      dup1\n        /* \"contracts/03/erc777/ERC1820Registry.sol\":8184:8231  _newManager == _addr ? address(0) : _newManager */\n      jump(tag_83)\n    tag_82:\n        /* \"contracts/03/erc777/ERC1820Registry.sol\":8215:8216  0 */\n      0x00\n        /* \"contracts/03/erc777/ERC1820Registry.sol\":8184:8231  _newManager == _addr ? address(0) : _newManager */\n    tag_83:\n        /* \"contracts/03/erc777/ERC1820Registry.sol\":8166:8174  managers */\n      0x01\n        /* \"contracts/03/erc777/ERC1820Registry.sol\":8166:8181  managers[_addr] */\n      0x00\n        /* \"contracts/03/erc777/ERC1820Registry.sol\":8175:8180  _addr */\n      dup5\n        /* \"contracts/03/erc777/ERC1820Registry.sol\":8166:8181  managers[_addr] */\n      0xffffffffffffffffffffffffffffffffffffffff\n      and\n      0xffffffffffffffffffffffffffffffffffffffff\n      and\n      dup2\n      mstore\n      0x20\n      add\n      swap1\n      dup2\n      mstore\n      0x20\n      add\n      0x00\n      keccak256\n      0x00\n        /* \"contracts/03/erc777/ERC1820Registry.sol\":8166:8231  managers[_addr] = _newManager == _addr ? address(0) : _newManager */\n      0x0100\n      exp\n      dup2\n      sload\n      dup2\n      0xffffffffffffffffffffffffffffffffffffffff\n      mul\n      not\n      and\n      swap1\n      dup4\n      0xffffffffffffffffffffffffffffffffffffffff\n      and\n      mul\n      or\n      swap1\n      sstore\n      pop\n        /* \"contracts/03/erc777/ERC1820Registry.sol\":8268:8279  _newManager */\n      dup1\n        /* \"contracts/03/erc777/ERC1820Registry.sol\":8246:8280  ManagerChanged(_addr, _newManager) */\n      0xffffffffffffffffffffffffffffffffffffffff\n      and\n        /* \"contracts/03/erc777/ERC1820Registry.sol\":8261:8266  _addr */\n      dup3\n        /* \"contracts/03/erc777/ERC1820Registry.sol\":8246:8280  ManagerChanged(_addr, _newManager) */\n      0xffffffffffffffffffffffffffffffffffffffff\n      and\n      0x605c2dbf762e5f7d60a546d42e7205dcb1b011ebc62a61736a57c9089d3a4350\n      mload(0x40)\n      mload(0x40)\n      dup1\n      swap2\n      sub\n      swap1\n      log3\n        /* \"contracts/03/erc777/ERC1820Registry.sol\":8022:8287  function setManager(address _addr, address _newManager) external {... */\n      pop\n      pop\n      jump\t// out\n        /* \"contracts/03/erc777/ERC1820Registry.sol\":8687:8840  function interfaceHash(string calldata _interfaceName) external pure returns(bytes32) {... */\n    tag_29:\n        /* \"contracts/03/erc777/ERC1820Registry.sol\":8764:8771  bytes32 */\n      0x00\n        /* \"contracts/03/erc777/ERC1820Registry.sol\":8817:8831  _interfaceName */\n      dup3\n      dup3\n        /* \"contracts/03/erc777/ERC1820Registry.sol\":8800:8832  abi.encodePacked(_interfaceName) */\n      add(0x20, mload(0x40))\n      tag_85\n      swap3\n      swap2\n      swap1\n      tag_86\n      jump\t// in\n    tag_85:\n      mload(0x40)\n      0x20\n      dup2\n      dup4\n      sub\n      sub\n      dup2\n      mstore\n      swap1\n      0x40\n      mstore\n        /* \"contracts/03/erc777/ERC1820Registry.sol\":8790:8833  keccak256(abi.encodePacked(_interfaceName)) */\n      dup1\n      mload\n      swap1\n      0x20\n      add\n      keccak256\n        /* \"contracts/03/erc777/ERC1820Registry.sol\":8783:8833  return keccak256(abi.encodePacked(_interfaceName)) */\n      swap1\n      pop\n        /* \"contracts/03/erc777/ERC1820Registry.sol\":8687:8840  function interfaceHash(string calldata _interfaceName) external pure returns(bytes32) {... */\n      swap3\n      swap2\n      pop\n      pop\n      jump\t// out\n        /* \"contracts/03/erc777/ERC1820Registry.sol\":8952:9232  function updateERC165Cache(address _contract, bytes4 _interfaceId) external {... */\n    tag_35:\n        /* \"contracts/03/erc777/ERC1820Registry.sol\":9076:9146  implementsERC165InterfaceNoCache(... */\n      tag_88\n        /* \"contracts/03/erc777/ERC1820Registry.sol\":9122:9131  _contract */\n      dup3\n        /* \"contracts/03/erc777/ERC1820Registry.sol\":9133:9145  _interfaceId */\n      dup3\n        /* \"contracts/03/erc777/ERC1820Registry.sol\":9076:9108  implementsERC165InterfaceNoCache */\n      tag_43\n        /* \"contracts/03/erc777/ERC1820Registry.sol\":9076:9146  implementsERC165InterfaceNoCache(... */\n      jump\t// in\n    tag_88:\n        /* \"contracts/03/erc777/ERC1820Registry.sol\":9076:9171  implementsERC165InterfaceNoCache(... */\n      tag_89\n      jumpi\n        /* \"contracts/03/erc777/ERC1820Registry.sol\":9169:9170  0 */\n      0x00\n        /* \"contracts/03/erc777/ERC1820Registry.sol\":9076:9171  implementsERC165InterfaceNoCache(... */\n      jump(tag_90)\n    tag_89:\n        /* \"contracts/03/erc777/ERC1820Registry.sol\":9149:9158  _contract */\n      dup2\n        /* \"contracts/03/erc777/ERC1820Registry.sol\":9076:9171  implementsERC165InterfaceNoCache(... */\n    tag_90:\n        /* \"contracts/03/erc777/ERC1820Registry.sol\":9038:9048  interfaces */\n      0x00\n        /* \"contracts/03/erc777/ERC1820Registry.sol\":9038:9059  interfaces[_contract] */\n      dup1\n        /* \"contracts/03/erc777/ERC1820Registry.sol\":9049:9058  _contract */\n      dup5\n        /* \"contracts/03/erc777/ERC1820Registry.sol\":9038:9059  interfaces[_contract] */\n      0xffffffffffffffffffffffffffffffffffffffff\n      and\n      0xffffffffffffffffffffffffffffffffffffffff\n      and\n      dup2\n      mstore\n      0x20\n      add\n      swap1\n      dup2\n      mstore\n      0x20\n      add\n      0x00\n      keccak256\n        /* \"contracts/03/erc777/ERC1820Registry.sol\":9038:9073  interfaces[_contract][_interfaceId] */\n      0x00\n        /* \"contracts/03/erc777/ERC1820Registry.sol\":9060:9072  _interfaceId */\n      dup4\n        /* \"contracts/03/erc777/ERC1820Registry.sol\":9038:9073  interfaces[_contract][_interfaceId] */\n      not(0xffffffffffffffffffffffffffffffffffffffffffffffffffffffff)\n      and\n      dup2\n      mstore\n      0x20\n      add\n      swap1\n      dup2\n      mstore\n      0x20\n      add\n      0x00\n      keccak256\n      0x00\n        /* \"contracts/03/erc777/ERC1820Registry.sol\":9038:9171  interfaces[_contract][_interfaceId] = implementsERC165InterfaceNoCache(... */\n      0x0100\n      exp\n      dup2\n      sload\n      dup2\n      0xffffffffffffffffffffffffffffffffffffffff\n      mul\n      not\n      and\n      swap1\n      dup4\n      0xffffffffffffffffffffffffffffffffffffffff\n      and\n      mul\n      or\n      swap1\n      sstore\n      pop\n        /* \"contracts/03/erc777/ERC1820Registry.sol\":9221:9225  true */\n      0x01\n        /* \"contracts/03/erc777/ERC1820Registry.sol\":9181:9193  erc165Cached */\n      0x02\n        /* \"contracts/03/erc777/ERC1820Registry.sol\":9181:9204  erc165Cached[_contract] */\n      0x00\n        /* \"contracts/03/erc777/ERC1820Registry.sol\":9194:9203  _contract */\n      dup5\n        /* \"contracts/03/erc777/ERC1820Registry.sol\":9181:9204  erc165Cached[_contract] */\n      0xffffffffffffffffffffffffffffffffffffffff\n      and\n      0xffffffffffffffffffffffffffffffffffffffff\n      and\n      dup2\n      mstore\n      0x20\n      add\n      swap1\n      dup2\n      mstore\n      0x20\n      add\n      0x00\n      keccak256\n        /* \"contracts/03/erc777/ERC1820Registry.sol\":9181:9218  erc165Cached[_contract][_interfaceId] */\n      0x00\n        /* \"contracts/03/erc777/ERC1820Registry.sol\":9205:9217  _interfaceId */\n      dup4\n        /* \"contracts/03/erc777/ERC1820Registry.sol\":9181:9218  erc165Cached[_contract][_interfaceId] */\n      not(0xffffffffffffffffffffffffffffffffffffffffffffffffffffffff)\n      and\n      not(0xffffffffffffffffffffffffffffffffffffffffffffffffffffffff)\n      and\n      dup2\n      mstore\n      0x20\n      add\n      swap1\n      dup2\n      mstore\n      0x20\n      add\n      0x00\n      keccak256\n      0x00\n        /* \"contracts/03/erc777/ERC1820Registry.sol\":9181:9225  erc165Cached[_contract][_interfaceId] = true */\n      0x0100\n      exp\n      dup2\n      sload\n      dup2\n      0xff\n      mul\n      not\n      and\n      swap1\n      dup4\n      iszero\n      iszero\n      mul\n      or\n      swap1\n      sstore\n      pop\n        /* \"contracts/03/erc777/ERC1820Registry.sol\":8952:9232  function updateERC165Cache(address _contract, bytes4 _interfaceId) external {... */\n      pop\n      pop\n      jump\t// out\n        /* \"contracts/03/erc777/ERC1820Registry.sol\":5986:6428  function getInterfaceImplementer(address _addr, bytes32 _interfaceHash) external view returns (address) {... */\n    tag_39:\n        /* \"contracts/03/erc777/ERC1820Registry.sol\":6081:6088  address */\n      0x00\n        /* \"contracts/03/erc777/ERC1820Registry.sol\":6100:6112  address addr */\n      dup1\n        /* \"contracts/03/erc777/ERC1820Registry.sol\":6132:6133  0 */\n      0x00\n        /* \"contracts/03/erc777/ERC1820Registry.sol\":6115:6134  _addr == address(0) */\n      0xffffffffffffffffffffffffffffffffffffffff\n      and\n        /* \"contracts/03/erc777/ERC1820Registry.sol\":6115:6120  _addr */\n      dup5\n        /* \"contracts/03/erc777/ERC1820Registry.sol\":6115:6134  _addr == address(0) */\n      0xffffffffffffffffffffffffffffffffffffffff\n      and\n      eq\n        /* \"contracts/03/erc777/ERC1820Registry.sol\":6115:6155  _addr == address(0) ? msg.sender : _addr */\n      tag_92\n      jumpi\n        /* \"contracts/03/erc777/ERC1820Registry.sol\":6150:6155  _addr */\n      dup4\n        /* \"contracts/03/erc777/ERC1820Registry.sol\":6115:6155  _addr == address(0) ? msg.sender : _addr */\n      jump(tag_93)\n    tag_92:\n        /* \"contracts/03/erc777/ERC1820Registry.sol\":6137:6147  msg.sender */\n      caller\n        /* \"contracts/03/erc777/ERC1820Registry.sol\":6115:6155  _addr == address(0) ? msg.sender : _addr */\n    tag_93:\n        /* \"contracts/03/erc777/ERC1820Registry.sol\":6100:6155  address addr = _addr == address(0) ? msg.sender : _addr */\n      swap1\n      pop\n        /* \"contracts/03/erc777/ERC1820Registry.sol\":6169:6202  isERC165Interface(_interfaceHash) */\n      tag_94\n        /* \"contracts/03/erc777/ERC1820Registry.sol\":6187:6201  _interfaceHash */\n      dup4\n        /* \"contracts/03/erc777/ERC1820Registry.sol\":6169:6186  isERC165Interface */\n      tag_58\n        /* \"contracts/03/erc777/ERC1820Registry.sol\":6169:6202  isERC165Interface(_interfaceHash) */\n      jump\t// in\n    tag_94:\n        /* \"contracts/03/erc777/ERC1820Registry.sol\":6165:6373  if (isERC165Interface(_interfaceHash)) {... */\n      iszero\n      tag_95\n      jumpi\n        /* \"contracts/03/erc777/ERC1820Registry.sol\":6218:6244  bytes4 erc165InterfaceHash */\n      0x00\n        /* \"contracts/03/erc777/ERC1820Registry.sol\":6254:6268  _interfaceHash */\n      dup4\n        /* \"contracts/03/erc777/ERC1820Registry.sol\":6218:6269  bytes4 erc165InterfaceHash = bytes4(_interfaceHash) */\n      swap1\n      pop\n        /* \"contracts/03/erc777/ERC1820Registry.sol\":6290:6342  implementsERC165Interface(addr, erc165InterfaceHash) */\n      tag_96\n        /* \"contracts/03/erc777/ERC1820Registry.sol\":6316:6320  addr */\n      dup3\n        /* \"contracts/03/erc777/ERC1820Registry.sol\":6322:6341  erc165InterfaceHash */\n      dup3\n        /* \"contracts/03/erc777/ERC1820Registry.sol\":6290:6315  implementsERC165Interface */\n      tag_48\n        /* \"contracts/03/erc777/ERC1820Registry.sol\":6290:6342  implementsERC165Interface(addr, erc165InterfaceHash) */\n      jump\t// in\n    tag_96:\n        /* \"contracts/03/erc777/ERC1820Registry.sol\":6290:6362  implementsERC165Interface(addr, erc165InterfaceHash) ? addr : address(0) */\n      tag_97\n      jumpi\n        /* \"contracts/03/erc777/ERC1820Registry.sol\":6360:6361  0 */\n      0x00\n        /* \"contracts/03/erc777/ERC1820Registry.sol\":6290:6362  implementsERC165Interface(addr, erc165InterfaceHash) ? addr : address(0) */\n      jump(tag_98)\n    tag_97:\n        /* \"contracts/03/erc777/ERC1820Registry.sol\":6345:6349  addr */\n      dup2\n        /* \"contracts/03/erc777/ERC1820Registry.sol\":6290:6362  implementsERC165Interface(addr, erc165InterfaceHash) ? addr : address(0) */\n    tag_98:\n        /* \"contracts/03/erc777/ERC1820Registry.sol\":6283:6362  return implementsERC165Interface(addr, erc165InterfaceHash) ? addr : address(0) */\n      swap3\n      pop\n      pop\n      pop\n      jump(tag_91)\n        /* \"contracts/03/erc777/ERC1820Registry.sol\":6165:6373  if (isERC165Interface(_interfaceHash)) {... */\n    tag_95:\n        /* \"contracts/03/erc777/ERC1820Registry.sol\":6389:6399  interfaces */\n      0x00\n        /* \"contracts/03/erc777/ERC1820Registry.sol\":6389:6405  interfaces[addr] */\n      dup1\n        /* \"contracts/03/erc777/ERC1820Registry.sol\":6400:6404  addr */\n      dup3\n        /* \"contracts/03/erc777/ERC1820Registry.sol\":6389:6405  interfaces[addr] */\n      0xffffffffffffffffffffffffffffffffffffffff\n      and\n      0xffffffffffffffffffffffffffffffffffffffff\n      and\n      dup2\n      mstore\n      0x20\n      add\n      swap1\n      dup2\n      mstore\n      0x20\n      add\n      0x00\n      keccak256\n        /* \"contracts/03/erc777/ERC1820Registry.sol\":6389:6421  interfaces[addr][_interfaceHash] */\n      0x00\n        /* \"contracts/03/erc777/ERC1820Registry.sol\":6406:6420  _interfaceHash */\n      dup5\n        /* \"contracts/03/erc777/ERC1820Registry.sol\":6389:6421  interfaces[addr][_interfaceHash] */\n      dup2\n      mstore\n      0x20\n      add\n      swap1\n      dup2\n      mstore\n      0x20\n      add\n      0x00\n      keccak256\n      0x00\n      swap1\n      sload\n      swap1\n      0x0100\n      exp\n      swap1\n      div\n      0xffffffffffffffffffffffffffffffffffffffff\n      and\n        /* \"contracts/03/erc777/ERC1820Registry.sol\":6382:6421  return interfaces[addr][_interfaceHash] */\n      swap2\n      pop\n      pop\n        /* \"contracts/03/erc777/ERC1820Registry.sol\":5986:6428  function getInterfaceImplementer(address _addr, bytes32 _interfaceHash) external view returns (address) {... */\n    tag_91:\n      swap3\n      swap2\n      pop\n      pop\n      jump\t// out\n        /* \"contracts/03/erc777/ERC1820Registry.sol\":10263:10881  function implementsERC165InterfaceNoCache(address _contract, bytes4 _interfaceId) public view returns (bool) {... */\n    tag_43:\n        /* \"contracts/03/erc777/ERC1820Registry.sol\":10366:10370  bool */\n      0x00\n        /* \"contracts/03/erc777/ERC1820Registry.sol\":10382:10397  uint256 success */\n      dup1\n        /* \"contracts/03/erc777/ERC1820Registry.sol\":10407:10421  uint256 result */\n      0x00\n        /* \"contracts/03/erc777/ERC1820Registry.sol\":10452:10484  noThrowCall(_contract, ERC165ID) */\n      tag_100\n        /* \"contracts/03/erc777/ERC1820Registry.sol\":10464:10473  _contract */\n      dup6\n        /* \"contracts/03/erc777/ERC1820Registry.sol\":4604:4614  0x01ffc9a7 */\n      0x01ffc9a7\n        /* \"contracts/03/erc777/ERC1820Registry.sol\":10475:10483  ERC165ID */\n      0xe0\n      shl\n        /* \"contracts/03/erc777/ERC1820Registry.sol\":10452:10463  noThrowCall */\n      tag_101\n        /* \"contracts/03/erc777/ERC1820Registry.sol\":10452:10484  noThrowCall(_contract, ERC165ID) */\n      jump\t// in\n    tag_100:\n        /* \"contracts/03/erc777/ERC1820Registry.sol\":10432:10484  (success, result) = noThrowCall(_contract, ERC165ID) */\n      dup1\n      swap3\n      pop\n      dup2\n      swap4\n      pop\n      pop\n      pop\n        /* \"contracts/03/erc777/ERC1820Registry.sol\":10509:10510  0 */\n      0x00\n        /* \"contracts/03/erc777/ERC1820Registry.sol\":10498:10505  success */\n      dup3\n        /* \"contracts/03/erc777/ERC1820Registry.sol\":10498:10510  success == 0 */\n      eq\n        /* \"contracts/03/erc777/ERC1820Registry.sol\":10498:10525  success == 0 || result == 0 */\n      dup1\n      tag_102\n      jumpi\n      pop\n        /* \"contracts/03/erc777/ERC1820Registry.sol\":10524:10525  0 */\n      0x00\n        /* \"contracts/03/erc777/ERC1820Registry.sol\":10514:10520  result */\n      dup2\n        /* \"contracts/03/erc777/ERC1820Registry.sol\":10514:10525  result == 0 */\n      eq\n        /* \"contracts/03/erc777/ERC1820Registry.sol\":10498:10525  success == 0 || result == 0 */\n    tag_102:\n        /* \"contracts/03/erc777/ERC1820Registry.sol\":10494:10564  if (success == 0 || result == 0) {... */\n      iszero\n      tag_103\n      jumpi\n        /* \"contracts/03/erc777/ERC1820Registry.sol\":10548:10553  false */\n      0x00\n        /* \"contracts/03/erc777/ERC1820Registry.sol\":10541:10553  return false */\n      swap3\n      pop\n      pop\n      pop\n      jump(tag_99)\n        /* \"contracts/03/erc777/ERC1820Registry.sol\":10494:10564  if (success == 0 || result == 0) {... */\n    tag_103:\n        /* \"contracts/03/erc777/ERC1820Registry.sol\":10594:10628  noThrowCall(_contract, INVALID_ID) */\n      tag_104\n        /* \"contracts/03/erc777/ERC1820Registry.sol\":10606:10615  _contract */\n      dup6\n        /* \"contracts/03/erc777/ERC1820Registry.sol\":4444:4454  0xffffffff */\n      0xffffffff\n        /* \"contracts/03/erc777/ERC1820Registry.sol\":10617:10627  INVALID_ID */\n      0xe0\n      shl\n        /* \"contracts/03/erc777/ERC1820Registry.sol\":10594:10605  noThrowCall */\n      tag_101\n        /* \"contracts/03/erc777/ERC1820Registry.sol\":10594:10628  noThrowCall(_contract, INVALID_ID) */\n      jump\t// in\n    tag_104:\n        /* \"contracts/03/erc777/ERC1820Registry.sol\":10574:10628  (success, result) = noThrowCall(_contract, INVALID_ID) */\n      dup1\n      swap3\n      pop\n      dup2\n      swap4\n      pop\n      pop\n      pop\n        /* \"contracts/03/erc777/ERC1820Registry.sol\":10653:10654  0 */\n      0x00\n        /* \"contracts/03/erc777/ERC1820Registry.sol\":10642:10649  success */\n      dup3\n        /* \"contracts/03/erc777/ERC1820Registry.sol\":10642:10654  success == 0 */\n      eq\n        /* \"contracts/03/erc777/ERC1820Registry.sol\":10642:10669  success == 0 || result != 0 */\n      dup1\n      tag_105\n      jumpi\n      pop\n        /* \"contracts/03/erc777/ERC1820Registry.sol\":10668:10669  0 */\n      0x00\n        /* \"contracts/03/erc777/ERC1820Registry.sol\":10658:10664  result */\n      dup2\n        /* \"contracts/03/erc777/ERC1820Registry.sol\":10658:10669  result != 0 */\n      eq\n      iszero\n        /* \"contracts/03/erc777/ERC1820Registry.sol\":10642:10669  success == 0 || result != 0 */\n    tag_105:\n        /* \"contracts/03/erc777/ERC1820Registry.sol\":10638:10708  if (success == 0 || result != 0) {... */\n      iszero\n      tag_106\n      jumpi\n        /* \"contracts/03/erc777/ERC1820Registry.sol\":10692:10697  false */\n      0x00\n        /* \"contracts/03/erc777/ERC1820Registry.sol\":10685:10697  return false */\n      swap3\n      pop\n      pop\n      pop\n      jump(tag_99)\n        /* \"contracts/03/erc777/ERC1820Registry.sol\":10638:10708  if (success == 0 || result != 0) {... */\n    tag_106:\n        /* \"contracts/03/erc777/ERC1820Registry.sol\":10738:10774  noThrowCall(_contract, _interfaceId) */\n      tag_107\n        /* \"contracts/03/erc777/ERC1820Registry.sol\":10750:10759  _contract */\n      dup6\n        /* \"contracts/03/erc777/ERC1820Registry.sol\":10761:10773  _interfaceId */\n      dup6\n        /* \"contracts/03/erc777/ERC1820Registry.sol\":10738:10749  noThrowCall */\n      tag_101\n        /* \"contracts/03/erc777/ERC1820Registry.sol\":10738:10774  noThrowCall(_contract, _interfaceId) */\n      jump\t// in\n    tag_107:\n        /* \"contracts/03/erc777/ERC1820Registry.sol\":10718:10774  (success, result) = noThrowCall(_contract, _interfaceId) */\n      dup1\n      swap3\n      pop\n      dup2\n      swap4\n      pop\n      pop\n      pop\n        /* \"contracts/03/erc777/ERC1820Registry.sol\":10799:10800  1 */\n      0x01\n        /* \"contracts/03/erc777/ERC1820Registry.sol\":10788:10795  success */\n      dup3\n        /* \"contracts/03/erc777/ERC1820Registry.sol\":10788:10800  success == 1 */\n      eq\n        /* \"contracts/03/erc777/ERC1820Registry.sol\":10788:10815  success == 1 && result == 1 */\n      dup1\n      iszero\n      tag_108\n      jumpi\n      pop\n        /* \"contracts/03/erc777/ERC1820Registry.sol\":10814:10815  1 */\n      0x01\n        /* \"contracts/03/erc777/ERC1820Registry.sol\":10804:10810  result */\n      dup2\n        /* \"contracts/03/erc777/ERC1820Registry.sol\":10804:10815  result == 1 */\n      eq\n        /* \"contracts/03/erc777/ERC1820Registry.sol\":10788:10815  success == 1 && result == 1 */\n    tag_108:\n        /* \"contracts/03/erc777/ERC1820Registry.sol\":10784:10853  if (success == 1 && result == 1) {... */\n      iszero\n      tag_109\n      jumpi\n        /* \"contracts/03/erc777/ERC1820Registry.sol\":10838:10842  true */\n      0x01\n        /* \"contracts/03/erc777/ERC1820Registry.sol\":10831:10842  return true */\n      swap3\n      pop\n      pop\n      pop\n      jump(tag_99)\n        /* \"contracts/03/erc777/ERC1820Registry.sol\":10784:10853  if (success == 1 && result == 1) {... */\n    tag_109:\n        /* \"contracts/03/erc777/ERC1820Registry.sol\":10869:10874  false */\n      0x00\n        /* \"contracts/03/erc777/ERC1820Registry.sol\":10862:10874  return false */\n      swap3\n      pop\n      pop\n      pop\n        /* \"contracts/03/erc777/ERC1820Registry.sol\":10263:10881  function implementsERC165InterfaceNoCache(address _contract, bytes4 _interfaceId) public view returns (bool) {... */\n    tag_99:\n      swap3\n      swap2\n      pop\n      pop\n      jump\t// out\n        /* \"contracts/03/erc777/ERC1820Registry.sol\":9666:9982  function implementsERC165Interface(address _contract, bytes4 _interfaceId) public view returns (bool) {... */\n    tag_48:\n        /* \"contracts/03/erc777/ERC1820Registry.sol\":9762:9766  bool */\n      0x00\n        /* \"contracts/03/erc777/ERC1820Registry.sol\":9783:9795  erc165Cached */\n      0x02\n        /* \"contracts/03/erc777/ERC1820Registry.sol\":9783:9806  erc165Cached[_contract] */\n      0x00\n        /* \"contracts/03/erc777/ERC1820Registry.sol\":9796:9805  _contract */\n      dup5\n        /* \"contracts/03/erc777/ERC1820Registry.sol\":9783:9806  erc165Cached[_contract] */\n      0xffffffffffffffffffffffffffffffffffffffff\n      and\n      0xffffffffffffffffffffffffffffffffffffffff\n      and\n      dup2\n      mstore\n      0x20\n      add\n      swap1\n      dup2\n      mstore\n      0x20\n      add\n      0x00\n      keccak256\n        /* \"contracts/03/erc777/ERC1820Registry.sol\":9783:9820  erc165Cached[_contract][_interfaceId] */\n      0x00\n        /* \"contracts/03/erc777/ERC1820Registry.sol\":9807:9819  _interfaceId */\n      dup4\n        /* \"contracts/03/erc777/ERC1820Registry.sol\":9783:9820  erc165Cached[_contract][_interfaceId] */\n      not(0xffffffffffffffffffffffffffffffffffffffffffffffffffffffff)\n      and\n      not(0xffffffffffffffffffffffffffffffffffffffffffffffffffffffff)\n      and\n      dup2\n      mstore\n      0x20\n      add\n      swap1\n      dup2\n      mstore\n      0x20\n      add\n      0x00\n      keccak256\n      0x00\n      swap1\n      sload\n      swap1\n      0x0100\n      exp\n      swap1\n      div\n      0xff\n      and\n        /* \"contracts/03/erc777/ERC1820Registry.sol\":9778:9911  if (!erc165Cached[_contract][_interfaceId]) {... */\n      tag_111\n      jumpi\n        /* \"contracts/03/erc777/ERC1820Registry.sol\":9843:9900  implementsERC165InterfaceNoCache(_contract, _interfaceId) */\n      tag_112\n        /* \"contracts/03/erc777/ERC1820Registry.sol\":9876:9885  _contract */\n      dup4\n        /* \"contracts/03/erc777/ERC1820Registry.sol\":9887:9899  _interfaceId */\n      dup4\n        /* \"contracts/03/erc777/ERC1820Registry.sol\":9843:9875  implementsERC165InterfaceNoCache */\n      tag_43\n        /* \"contracts/03/erc777/ERC1820Registry.sol\":9843:9900  implementsERC165InterfaceNoCache(_contract, _interfaceId) */\n      jump\t// in\n    tag_112:\n        /* \"contracts/03/erc777/ERC1820Registry.sol\":9836:9900  return implementsERC165InterfaceNoCache(_contract, _interfaceId) */\n      swap1\n      pop\n      jump(tag_110)\n        /* \"contracts/03/erc777/ERC1820Registry.sol\":9778:9911  if (!erc165Cached[_contract][_interfaceId]) {... */\n    tag_111:\n        /* \"contracts/03/erc777/ERC1820Registry.sol\":9966:9975  _contract */\n      dup3\n        /* \"contracts/03/erc777/ERC1820Registry.sol\":9927:9975  interfaces[_contract][_interfaceId] == _contract */\n      0xffffffffffffffffffffffffffffffffffffffff\n      and\n        /* \"contracts/03/erc777/ERC1820Registry.sol\":9927:9937  interfaces */\n      0x00\n        /* \"contracts/03/erc777/ERC1820Registry.sol\":9927:9948  interfaces[_contract] */\n      dup1\n        /* \"contracts/03/erc777/ERC1820Registry.sol\":9938:9947  _contract */\n      dup6\n        /* \"contracts/03/erc777/ERC1820Registry.sol\":9927:9948  interfaces[_contract] */\n      0xffffffffffffffffffffffffffffffffffffffff\n      and\n      0xffffffffffffffffffffffffffffffffffffffff\n      and\n      dup2\n      mstore\n      0x20\n      add\n      swap1\n      dup2\n      mstore\n      0x20\n      add\n      0x00\n      keccak256\n        /* \"contracts/03/erc777/ERC1820Registry.sol\":9927:9962  interfaces[_contract][_interfaceId] */\n      0x00\n        /* \"contracts/03/erc777/ERC1820Registry.sol\":9949:9961  _interfaceId */\n      dup5\n        /* \"contracts/03/erc777/ERC1820Registry.sol\":9927:9962  interfaces[_contract][_interfaceId] */\n      not(0xffffffffffffffffffffffffffffffffffffffffffffffffffffffff)\n      and\n      dup2\n      mstore\n      0x20\n      add\n      swap1\n      dup2\n      mstore\n      0x20\n      add\n      0x00\n      keccak256\n      0x00\n      swap1\n      sload\n      swap1\n      0x0100\n      exp\n      swap1\n      div\n      0xffffffffffffffffffffffffffffffffffffffff\n      and\n        /* \"contracts/03/erc777/ERC1820Registry.sol\":9927:9975  interfaces[_contract][_interfaceId] == _contract */\n      0xffffffffffffffffffffffffffffffffffffffff\n      and\n      eq\n        /* \"contracts/03/erc777/ERC1820Registry.sol\":9920:9975  return interfaces[_contract][_interfaceId] == _contract */\n      swap1\n      pop\n        /* \"contracts/03/erc777/ERC1820Registry.sol\":9666:9982  function implementsERC165Interface(address _contract, bytes4 _interfaceId) public view returns (bool) {... */\n    tag_110:\n      swap3\n      swap2\n      pop\n      pop\n      jump\t// out\n        /* \"contracts/03/erc777/ERC1820Registry.sol\":11567:11801  function isERC165Interface(bytes32 _interfaceHash) internal pure returns (bool) {... */\n    tag_58:\n        /* \"contracts/03/erc777/ERC1820Registry.sol\":11641:11645  bool */\n      0x00\n        /* \"contracts/03/erc777/ERC1820Registry.sol\":11793:11794  0 */\n      dup1\n        /* \"contracts/03/erc777/ERC1820Registry.sol\":11767:11794  (_interfaceHash >> 32) == 0 */\n      0x00\n      shl\n        /* \"contracts/03/erc777/ERC1820Registry.sol\":11786:11788  32 */\n      0x20\n        /* \"contracts/03/erc777/ERC1820Registry.sol\":11768:11782  _interfaceHash */\n      dup4\n        /* \"contracts/03/erc777/ERC1820Registry.sol\":11768:11788  _interfaceHash >> 32 */\n      swap1\n      shr\n        /* \"contracts/03/erc777/ERC1820Registry.sol\":11767:11794  (_interfaceHash >> 32) == 0 */\n      eq\n        /* \"contracts/03/erc777/ERC1820Registry.sol\":11760:11794  return (_interfaceHash >> 32) == 0 */\n      swap1\n      pop\n        /* \"contracts/03/erc777/ERC1820Registry.sol\":11567:11801  function isERC165Interface(bytes32 _interfaceHash) internal pure returns (bool) {... */\n      swap2\n      swap1\n      pop\n      jump\t// out\n        /* \"contracts/03/erc777/ERC1820Registry.sol\":11884:12949  function noThrowCall(address _contract, bytes4 _interfaceId)... */\n    tag_101:\n        /* \"contracts/03/erc777/ERC1820Registry.sol\":11976:11991  uint256 success */\n      0x00\n        /* \"contracts/03/erc777/ERC1820Registry.sol\":11993:12007  uint256 result */\n      dup1\n        /* \"contracts/03/erc777/ERC1820Registry.sol\":12023:12038  bytes4 erc165ID */\n      0x00\n        /* \"contracts/03/erc777/ERC1820Registry.sol\":4604:4614  0x01ffc9a7 */\n      0x01ffc9a7\n        /* \"contracts/03/erc777/ERC1820Registry.sol\":12041:12049  ERC165ID */\n      0xe0\n      shl\n        /* \"contracts/03/erc777/ERC1820Registry.sol\":12023:12049  bytes4 erc165ID = ERC165ID */\n      swap1\n      pop\n        /* \"contracts/03/erc777/ERC1820Registry.sol\":12098:12102  0x40 */\n      0x40\n        /* \"contracts/03/erc777/ERC1820Registry.sol\":12092:12103  mload(0x40) */\n      mload\n        /* \"contracts/03/erc777/ERC1820Registry.sol\":12199:12207  erc165ID */\n      dup2\n        /* \"contracts/03/erc777/ERC1820Registry.sol\":12196:12197  x */\n      dup2\n        /* \"contracts/03/erc777/ERC1820Registry.sol\":12189:12208  mstore(x, erc165ID) */\n      mstore\n        /* \"contracts/03/erc777/ERC1820Registry.sol\":12306:12318  _interfaceId */\n      dup5\n        /* \"contracts/03/erc777/ERC1820Registry.sol\":12299:12303  0x04 */\n      0x04\n        /* \"contracts/03/erc777/ERC1820Registry.sol\":12296:12297  x */\n      dup3\n        /* \"contracts/03/erc777/ERC1820Registry.sol\":12292:12304  add(x, 0x04) */\n      add\n        /* \"contracts/03/erc777/ERC1820Registry.sol\":12285:12319  mstore(add(x, 0x04), _interfaceId) */\n      mstore\n        /* \"contracts/03/erc777/ERC1820Registry.sol\":12793:12797  0x20 */\n      0x20\n        /* \"contracts/03/erc777/ERC1820Registry.sol\":12705:12706  x */\n      dup2\n        /* \"contracts/03/erc777/ERC1820Registry.sol\":12621:12625  0x24 */\n      0x24\n        /* \"contracts/03/erc777/ERC1820Registry.sol\":12539:12540  x */\n      dup4\n        /* \"contracts/03/erc777/ERC1820Registry.sol\":12481:12490  _contract */\n      dup10\n        /* \"contracts/03/erc777/ERC1820Registry.sol\":12423:12428  30000 */\n      0x7530\n        /* \"contracts/03/erc777/ERC1820Registry.sol\":12395:12866  staticcall(... */\n      staticcall\n        /* \"contracts/03/erc777/ERC1820Registry.sol\":12384:12866  success := staticcall(... */\n      swap4\n      pop\n        /* \"contracts/03/erc777/ERC1820Registry.sol\":12896:12897  x */\n      dup1\n        /* \"contracts/03/erc777/ERC1820Registry.sol\":12890:12898  mload(x) */\n      mload\n        /* \"contracts/03/erc777/ERC1820Registry.sol\":12880:12898  result := mload(x) */\n      swap3\n      pop\n        /* \"contracts/03/erc777/ERC1820Registry.sol\":12069:12943  {... */\n      pop\n      pop\n        /* \"contracts/03/erc777/ERC1820Registry.sol\":11884:12949  function noThrowCall(address _contract, bytes4 _interfaceId)... */\n      swap3\n      pop\n      swap3\n      swap1\n      pop\n      jump\t// out\n        /* \"#utility.yul\":88:205   */\n    tag_116:\n        /* \"#utility.yul\":197:198   */\n      0x00\n        /* \"#utility.yul\":194:195   */\n      dup1\n        /* \"#utility.yul\":187:199   */\n      revert\n        /* \"#utility.yul\":211:328   */\n    tag_117:\n        /* \"#utility.yul\":320:321   */\n      0x00\n        /* \"#utility.yul\":317:318   */\n      dup1\n        /* \"#utility.yul\":310:322   */\n      revert\n        /* \"#utility.yul\":334:460   */\n    tag_118:\n        /* \"#utility.yul\":371:378   */\n      0x00\n        /* \"#utility.yul\":411:453   */\n      0xffffffffffffffffffffffffffffffffffffffff\n        /* \"#utility.yul\":404:409   */\n      dup3\n        /* \"#utility.yul\":400:454   */\n      and\n        /* \"#utility.yul\":389:454   */\n      swap1\n      pop\n        /* \"#utility.yul\":334:460   */\n      swap2\n      swap1\n      pop\n      jump\t// out\n        /* \"#utility.yul\":466:562   */\n    tag_119:\n        /* \"#utility.yul\":503:510   */\n      0x00\n        /* \"#utility.yul\":532:556   */\n      tag_155\n        /* \"#utility.yul\":550:555   */\n      dup3\n        /* \"#utility.yul\":532:556   */\n      tag_118\n      jump\t// in\n    tag_155:\n        /* \"#utility.yul\":521:556   */\n      swap1\n      pop\n        /* \"#utility.yul\":466:562   */\n      swap2\n      swap1\n      pop\n      jump\t// out\n        /* \"#utility.yul\":568:690   */\n    tag_120:\n        /* \"#utility.yul\":641:665   */\n      tag_157\n        /* \"#utility.yul\":659:664   */\n      dup2\n        /* \"#utility.yul\":641:665   */\n      tag_119\n      jump\t// in\n    tag_157:\n        /* \"#utility.yul\":634:639   */\n      dup2\n        /* \"#utility.yul\":631:666   */\n      eq\n        /* \"#utility.yul\":621:684   */\n      tag_158\n      jumpi\n        /* \"#utility.yul\":680:681   */\n      0x00\n        /* \"#utility.yul\":677:678   */\n      dup1\n        /* \"#utility.yul\":670:682   */\n      revert\n        /* \"#utility.yul\":621:684   */\n    tag_158:\n        /* \"#utility.yul\":568:690   */\n      pop\n      jump\t// out\n        /* \"#utility.yul\":696:835   */\n    tag_121:\n        /* \"#utility.yul\":742:747   */\n      0x00\n        /* \"#utility.yul\":780:786   */\n      dup2\n        /* \"#utility.yul\":767:787   */\n      calldataload\n        /* \"#utility.yul\":758:787   */\n      swap1\n      pop\n        /* \"#utility.yul\":796:829   */\n      tag_160\n        /* \"#utility.yul\":823:828   */\n      dup2\n        /* \"#utility.yul\":796:829   */\n      tag_120\n      jump\t// in\n    tag_160:\n        /* \"#utility.yul\":696:835   */\n      swap3\n      swap2\n      pop\n      pop\n      jump\t// out\n        /* \"#utility.yul\":841:918   */\n    tag_122:\n        /* \"#utility.yul\":878:885   */\n      0x00\n        /* \"#utility.yul\":907:912   */\n      dup2\n        /* \"#utility.yul\":896:912   */\n      swap1\n      pop\n        /* \"#utility.yul\":841:918   */\n      swap2\n      swap1\n      pop\n      jump\t// out\n        /* \"#utility.yul\":924:1046   */\n    tag_123:\n        /* \"#utility.yul\":997:1021   */\n      tag_163\n        /* \"#utility.yul\":1015:1020   */\n      dup2\n        /* \"#utility.yul\":997:1021   */\n      tag_122\n      jump\t// in\n    tag_163:\n        /* \"#utility.yul\":990:995   */\n      dup2\n        /* \"#utility.yul\":987:1022   */\n      eq\n        /* \"#utility.yul\":977:1040   */\n      tag_164\n      jumpi\n        /* \"#utility.yul\":1036:1037   */\n      0x00\n        /* \"#utility.yul\":1033:1034   */\n      dup1\n        /* \"#utility.yul\":1026:1038   */\n      revert\n        /* \"#utility.yul\":977:1040   */\n    tag_164:\n        /* \"#utility.yul\":924:1046   */\n      pop\n      jump\t// out\n        /* \"#utility.yul\":1052:1191   */\n    tag_124:\n        /* \"#utility.yul\":1098:1103   */\n      0x00\n        /* \"#utility.yul\":1136:1142   */\n      dup2\n        /* \"#utility.yul\":1123:1143   */\n      calldataload\n        /* \"#utility.yul\":1114:1143   */\n      swap1\n      pop\n        /* \"#utility.yul\":1152:1185   */\n      tag_166\n        /* \"#utility.yul\":1179:1184   */\n      dup2\n        /* \"#utility.yul\":1152:1185   */\n      tag_123\n      jump\t// in\n    tag_166:\n        /* \"#utility.yul\":1052:1191   */\n      swap3\n      swap2\n      pop\n      pop\n      jump\t// out\n        /* \"#utility.yul\":1197:1816   */\n    tag_14:\n        /* \"#utility.yul\":1274:1280   */\n      0x00\n        /* \"#utility.yul\":1282:1288   */\n      dup1\n        /* \"#utility.yul\":1290:1296   */\n      0x00\n        /* \"#utility.yul\":1339:1341   */\n      0x60\n        /* \"#utility.yul\":1327:1336   */\n      dup5\n        /* \"#utility.yul\":1318:1325   */\n      dup7\n        /* \"#utility.yul\":1314:1337   */\n      sub\n        /* \"#utility.yul\":1310:1342   */\n      slt\n        /* \"#utility.yul\":1307:1426   */\n      iszero\n      tag_168\n      jumpi\n        /* \"#utility.yul\":1345:1424   */\n      tag_169\n      tag_116\n      jump\t// in\n    tag_169:\n        /* \"#utility.yul\":1307:1426   */\n    tag_168:\n        /* \"#utility.yul\":1465:1466   */\n      0x00\n        /* \"#utility.yul\":1490:1543   */\n      tag_170\n        /* \"#utility.yul\":1535:1542   */\n      dup7\n        /* \"#utility.yul\":1526:1532   */\n      dup3\n        /* \"#utility.yul\":1515:1524   */\n      dup8\n        /* \"#utility.yul\":1511:1533   */\n      add\n        /* \"#utility.yul\":1490:1543   */\n      tag_121\n      jump\t// in\n    tag_170:\n        /* \"#utility.yul\":1480:1543   */\n      swap4\n      pop\n        /* \"#utility.yul\":1436:1553   */\n      pop\n        /* \"#utility.yul\":1592:1594   */\n      0x20\n        /* \"#utility.yul\":1618:1671   */\n      tag_171\n        /* \"#utility.yul\":1663:1670   */\n      dup7\n        /* \"#utility.yul\":1654:1660   */\n      dup3\n        /* \"#utility.yul\":1643:1652   */\n      dup8\n        /* \"#utility.yul\":1639:1661   */\n      add\n        /* \"#utility.yul\":1618:1671   */\n      tag_124\n      jump\t// in\n    tag_171:\n        /* \"#utility.yul\":1608:1671   */\n      swap3\n      pop\n        /* \"#utility.yul\":1563:1681   */\n      pop\n        /* \"#utility.yul\":1720:1722   */\n      0x40\n        /* \"#utility.yul\":1746:1799   */\n      tag_172\n        /* \"#utility.yul\":1791:1798   */\n      dup7\n        /* \"#utility.yul\":1782:1788   */\n      dup3\n        /* \"#utility.yul\":1771:1780   */\n      dup8\n        /* \"#utility.yul\":1767:1789   */\n      add\n        /* \"#utility.yul\":1746:1799   */\n      tag_121\n      jump\t// in\n    tag_172:\n        /* \"#utility.yul\":1736:1799   */\n      swap2\n      pop\n        /* \"#utility.yul\":1691:1809   */\n      pop\n        /* \"#utility.yul\":1197:1816   */\n      swap3\n      pop\n      swap3\n      pop\n      swap3\n      jump\t// out\n        /* \"#utility.yul\":1822:2151   */\n    tag_18:\n        /* \"#utility.yul\":1881:1887   */\n      0x00\n        /* \"#utility.yul\":1930:1932   */\n      0x20\n        /* \"#utility.yul\":1918:1927   */\n      dup3\n        /* \"#utility.yul\":1909:1916   */\n      dup5\n        /* \"#utility.yul\":1905:1928   */\n      sub\n        /* \"#utility.yul\":1901:1933   */\n      slt\n        /* \"#utility.yul\":1898:2017   */\n      iszero\n      tag_174\n      jumpi\n        /* \"#utility.yul\":1936:2015   */\n      tag_175\n      tag_116\n      jump\t// in\n    tag_175:\n        /* \"#utility.yul\":1898:2017   */\n    tag_174:\n        /* \"#utility.yul\":2056:2057   */\n      0x00\n        /* \"#utility.yul\":2081:2134   */\n      tag_176\n        /* \"#utility.yul\":2126:2133   */\n      dup5\n        /* \"#utility.yul\":2117:2123   */\n      dup3\n        /* \"#utility.yul\":2106:2115   */\n      dup6\n        /* \"#utility.yul\":2102:2124   */\n      add\n        /* \"#utility.yul\":2081:2134   */\n      tag_121\n      jump\t// in\n    tag_176:\n        /* \"#utility.yul\":2071:2134   */\n      swap2\n      pop\n        /* \"#utility.yul\":2027:2144   */\n      pop\n        /* \"#utility.yul\":1822:2151   */\n      swap3\n      swap2\n      pop\n      pop\n      jump\t// out\n        /* \"#utility.yul\":2157:2275   */\n    tag_125:\n        /* \"#utility.yul\":2244:2268   */\n      tag_178\n        /* \"#utility.yul\":2262:2267   */\n      dup2\n        /* \"#utility.yul\":2244:2268   */\n      tag_119\n      jump\t// in\n    tag_178:\n        /* \"#utility.yul\":2239:2242   */\n      dup3\n        /* \"#utility.yul\":2232:2269   */\n      mstore\n        /* \"#utility.yul\":2157:2275   */\n      pop\n      pop\n      jump\t// out\n        /* \"#utility.yul\":2281:2503   */\n    tag_21:\n        /* \"#utility.yul\":2374:2378   */\n      0x00\n        /* \"#utility.yul\":2412:2414   */\n      0x20\n        /* \"#utility.yul\":2401:2410   */\n      dup3\n        /* \"#utility.yul\":2397:2415   */\n      add\n        /* \"#utility.yul\":2389:2415   */\n      swap1\n      pop\n        /* \"#utility.yul\":2425:2496   */\n      tag_180\n        /* \"#utility.yul\":2493:2494   */\n      0x00\n        /* \"#utility.yul\":2482:2491   */\n      dup4\n        /* \"#utility.yul\":2478:2495   */\n      add\n        /* \"#utility.yul\":2469:2475   */\n      dup5\n        /* \"#utility.yul\":2425:2496   */\n      tag_125\n      jump\t// in\n    tag_180:\n        /* \"#utility.yul\":2281:2503   */\n      swap3\n      swap2\n      pop\n      pop\n      jump\t// out\n        /* \"#utility.yul\":2509:2983   */\n    tag_24:\n        /* \"#utility.yul\":2577:2583   */\n      0x00\n        /* \"#utility.yul\":2585:2591   */\n      dup1\n        /* \"#utility.yul\":2634:2636   */\n      0x40\n        /* \"#utility.yul\":2622:2631   */\n      dup4\n        /* \"#utility.yul\":2613:2620   */\n      dup6\n        /* \"#utility.yul\":2609:2632   */\n      sub\n        /* \"#utility.yul\":2605:2637   */\n      slt\n        /* \"#utility.yul\":2602:2721   */\n      iszero\n      tag_182\n      jumpi\n        /* \"#utility.yul\":2640:2719   */\n      tag_183\n      tag_116\n      jump\t// in\n    tag_183:\n        /* \"#utility.yul\":2602:2721   */\n    tag_182:\n        /* \"#utility.yul\":2760:2761   */\n      0x00\n        /* \"#utility.yul\":2785:2838   */\n      tag_184\n        /* \"#utility.yul\":2830:2837   */\n      dup6\n        /* \"#utility.yul\":2821:2827   */\n      dup3\n        /* \"#utility.yul\":2810:2819   */\n      dup7\n        /* \"#utility.yul\":2806:2828   */\n      add\n        /* \"#utility.yul\":2785:2838   */\n      tag_121\n      jump\t// in\n    tag_184:\n        /* \"#utility.yul\":2775:2838   */\n      swap3\n      pop\n        /* \"#utility.yul\":2731:2848   */\n      pop\n        /* \"#utility.yul\":2887:2889   */\n      0x20\n        /* \"#utility.yul\":2913:2966   */\n      tag_185\n        /* \"#utility.yul\":2958:2965   */\n      dup6\n        /* \"#utility.yul\":2949:2955   */\n      dup3\n        /* \"#utility.yul\":2938:2947   */\n      dup7\n        /* \"#utility.yul\":2934:2956   */\n      add\n        /* \"#utility.yul\":2913:2966   */\n      tag_121\n      jump\t// in\n    tag_185:\n        /* \"#utility.yul\":2903:2966   */\n      swap2\n      pop\n        /* \"#utility.yul\":2858:2976   */\n      pop\n        /* \"#utility.yul\":2509:2983   */\n      swap3\n      pop\n      swap3\n      swap1\n      pop\n      jump\t// out\n        /* \"#utility.yul\":2989:3106   */\n    tag_126:\n        /* \"#utility.yul\":3098:3099   */\n      0x00\n        /* \"#utility.yul\":3095:3096   */\n      dup1\n        /* \"#utility.yul\":3088:3100   */\n      revert\n        /* \"#utility.yul\":3112:3229   */\n    tag_127:\n        /* \"#utility.yul\":3221:3222   */\n      0x00\n        /* \"#utility.yul\":3218:3219   */\n      dup1\n        /* \"#utility.yul\":3211:3223   */\n      revert\n        /* \"#utility.yul\":3235:3352   */\n    tag_128:\n        /* \"#utility.yul\":3344:3345   */\n      0x00\n        /* \"#utility.yul\":3341:3342   */\n      dup1\n        /* \"#utility.yul\":3334:3346   */\n      revert\n        /* \"#utility.yul\":3372:3925   */\n    tag_129:\n        /* \"#utility.yul\":3430:3438   */\n      0x00\n        /* \"#utility.yul\":3440:3446   */\n      dup1\n        /* \"#utility.yul\":3490:3493   */\n      dup4\n        /* \"#utility.yul\":3483:3487   */\n      0x1f\n        /* \"#utility.yul\":3475:3481   */\n      dup5\n        /* \"#utility.yul\":3471:3488   */\n      add\n        /* \"#utility.yul\":3467:3494   */\n      slt\n        /* \"#utility.yul\":3457:3579   */\n      tag_190\n      jumpi\n        /* \"#utility.yul\":3498:3577   */\n      tag_191\n      tag_126\n      jump\t// in\n    tag_191:\n        /* \"#utility.yul\":3457:3579   */\n    tag_190:\n        /* \"#utility.yul\":3611:3617   */\n      dup3\n        /* \"#utility.yul\":3598:3618   */\n      calldataload\n        /* \"#utility.yul\":3588:3618   */\n      swap1\n      pop\n        /* \"#utility.yul\":3641:3659   */\n      0xffffffffffffffff\n        /* \"#utility.yul\":3633:3639   */\n      dup2\n        /* \"#utility.yul\":3630:3660   */\n      gt\n        /* \"#utility.yul\":3627:3744   */\n      iszero\n      tag_192\n      jumpi\n        /* \"#utility.yul\":3663:3742   */\n      tag_193\n      tag_127\n      jump\t// in\n    tag_193:\n        /* \"#utility.yul\":3627:3744   */\n    tag_192:\n        /* \"#utility.yul\":3777:3781   */\n      0x20\n        /* \"#utility.yul\":3769:3775   */\n      dup4\n        /* \"#utility.yul\":3765:3782   */\n      add\n        /* \"#utility.yul\":3753:3782   */\n      swap2\n      pop\n        /* \"#utility.yul\":3831:3834   */\n      dup4\n        /* \"#utility.yul\":3823:3827   */\n      0x01\n        /* \"#utility.yul\":3815:3821   */\n      dup3\n        /* \"#utility.yul\":3811:3828   */\n      mul\n        /* \"#utility.yul\":3801:3809   */\n      dup4\n        /* \"#utility.yul\":3797:3829   */\n      add\n        /* \"#utility.yul\":3794:3835   */\n      gt\n        /* \"#utility.yul\":3791:3919   */\n      iszero\n      tag_194\n      jumpi\n        /* \"#utility.yul\":3838:3917   */\n      tag_195\n      tag_128\n      jump\t// in\n    tag_195:\n        /* \"#utility.yul\":3791:3919   */\n    tag_194:\n        /* \"#utility.yul\":3372:3925   */\n      swap3\n      pop\n      swap3\n      swap1\n      pop\n      jump\t// out\n        /* \"#utility.yul\":3931:4460   */\n    tag_28:\n        /* \"#utility.yul\":4002:4008   */\n      0x00\n        /* \"#utility.yul\":4010:4016   */\n      dup1\n        /* \"#utility.yul\":4059:4061   */\n      0x20\n        /* \"#utility.yul\":4047:4056   */\n      dup4\n        /* \"#utility.yul\":4038:4045   */\n      dup6\n        /* \"#utility.yul\":4034:4057   */\n      sub\n        /* \"#utility.yul\":4030:4062   */\n      slt\n        /* \"#utility.yul\":4027:4146   */\n      iszero\n      tag_197\n      jumpi\n        /* \"#utility.yul\":4065:4144   */\n      tag_198\n      tag_116\n      jump\t// in\n    tag_198:\n        /* \"#utility.yul\":4027:4146   */\n    tag_197:\n        /* \"#utility.yul\":4213:4214   */\n      0x00\n        /* \"#utility.yul\":4202:4211   */\n      dup4\n        /* \"#utility.yul\":4198:4215   */\n      add\n        /* \"#utility.yul\":4185:4216   */\n      calldataload\n        /* \"#utility.yul\":4243:4261   */\n      0xffffffffffffffff\n        /* \"#utility.yul\":4235:4241   */\n      dup2\n        /* \"#utility.yul\":4232:4262   */\n      gt\n        /* \"#utility.yul\":4229:4346   */\n      iszero\n      tag_199\n      jumpi\n        /* \"#utility.yul\":4265:4344   */\n      tag_200\n      tag_117\n      jump\t// in\n    tag_200:\n        /* \"#utility.yul\":4229:4346   */\n    tag_199:\n        /* \"#utility.yul\":4378:4443   */\n      tag_201\n        /* \"#utility.yul\":4435:4442   */\n      dup6\n        /* \"#utility.yul\":4426:4432   */\n      dup3\n        /* \"#utility.yul\":4415:4424   */\n      dup7\n        /* \"#utility.yul\":4411:4433   */\n      add\n        /* \"#utility.yul\":4378:4443   */\n      tag_129\n      jump\t// in\n    tag_201:\n        /* \"#utility.yul\":4360:4443   */\n      swap3\n      pop\n      swap3\n      pop\n        /* \"#utility.yul\":4156:4453   */\n      pop\n        /* \"#utility.yul\":3931:4460   */\n      swap3\n      pop\n      swap3\n      swap1\n      pop\n      jump\t// out\n        /* \"#utility.yul\":4466:4584   */\n    tag_130:\n        /* \"#utility.yul\":4553:4577   */\n      tag_203\n        /* \"#utility.yul\":4571:4576   */\n      dup2\n        /* \"#utility.yul\":4553:4577   */\n      tag_122\n      jump\t// in\n    tag_203:\n        /* \"#utility.yul\":4548:4551   */\n      dup3\n        /* \"#utility.yul\":4541:4578   */\n      mstore\n        /* \"#utility.yul\":4466:4584   */\n      pop\n      pop\n      jump\t// out\n        /* \"#utility.yul\":4590:4812   */\n    tag_31:\n        /* \"#utility.yul\":4683:4687   */\n      0x00\n        /* \"#utility.yul\":4721:4723   */\n      0x20\n        /* \"#utility.yul\":4710:4719   */\n      dup3\n        /* \"#utility.yul\":4706:4724   */\n      add\n        /* \"#utility.yul\":4698:4724   */\n      swap1\n      pop\n        /* \"#utility.yul\":4734:4805   */\n      tag_205\n        /* \"#utility.yul\":4802:4803   */\n      0x00\n        /* \"#utility.yul\":4791:4800   */\n      dup4\n        /* \"#utility.yul\":4787:4804   */\n      add\n        /* \"#utility.yul\":4778:4784   */\n      dup5\n        /* \"#utility.yul\":4734:4805   */\n      tag_130\n      jump\t// in\n    tag_205:\n        /* \"#utility.yul\":4590:4812   */\n      swap3\n      swap2\n      pop\n      pop\n      jump\t// out\n        /* \"#utility.yul\":4818:4967   */\n    tag_131:\n        /* \"#utility.yul\":4854:4861   */\n      0x00\n        /* \"#utility.yul\":4894:4960   */\n      0xffffffff00000000000000000000000000000000000000000000000000000000\n        /* \"#utility.yul\":4887:4892   */\n      dup3\n        /* \"#utility.yul\":4883:4961   */\n      and\n        /* \"#utility.yul\":4872:4961   */\n      swap1\n      pop\n        /* \"#utility.yul\":4818:4967   */\n      swap2\n      swap1\n      pop\n      jump\t// out\n        /* \"#utility.yul\":4973:5093   */\n    tag_132:\n        /* \"#utility.yul\":5045:5068   */\n      tag_208\n        /* \"#utility.yul\":5062:5067   */\n      dup2\n        /* \"#utility.yul\":5045:5068   */\n      tag_131\n      jump\t// in\n    tag_208:\n        /* \"#utility.yul\":5038:5043   */\n      dup2\n        /* \"#utility.yul\":5035:5069   */\n      eq\n        /* \"#utility.yul\":5025:5087   */\n      tag_209\n      jumpi\n        /* \"#utility.yul\":5083:5084   */\n      0x00\n        /* \"#utility.yul\":5080:5081   */\n      dup1\n        /* \"#utility.yul\":5073:5085   */\n      revert\n        /* \"#utility.yul\":5025:5087   */\n    tag_209:\n        /* \"#utility.yul\":4973:5093   */\n      pop\n      jump\t// out\n        /* \"#utility.yul\":5099:5236   */\n    tag_133:\n        /* \"#utility.yul\":5144:5149   */\n      0x00\n        /* \"#utility.yul\":5182:5188   */\n      dup2\n        /* \"#utility.yul\":5169:5189   */\n      calldataload\n        /* \"#utility.yul\":5160:5189   */\n      swap1\n      pop\n        /* \"#utility.yul\":5198:5230   */\n      tag_211\n        /* \"#utility.yul\":5224:5229   */\n      dup2\n        /* \"#utility.yul\":5198:5230   */\n      tag_132\n      jump\t// in\n    tag_211:\n        /* \"#utility.yul\":5099:5236   */\n      swap3\n      swap2\n      pop\n      pop\n      jump\t// out\n        /* \"#utility.yul\":5242:5714   */\n    tag_34:\n        /* \"#utility.yul\":5309:5315   */\n      0x00\n        /* \"#utility.yul\":5317:5323   */\n      dup1\n        /* \"#utility.yul\":5366:5368   */\n      0x40\n        /* \"#utility.yul\":5354:5363   */\n      dup4\n        /* \"#utility.yul\":5345:5352   */\n      dup6\n        /* \"#utility.yul\":5341:5364   */\n      sub\n        /* \"#utility.yul\":5337:5369   */\n      slt\n        /* \"#utility.yul\":5334:5453   */\n      iszero\n      tag_213\n      jumpi\n        /* \"#utility.yul\":5372:5451   */\n      tag_214\n      tag_116\n      jump\t// in\n    tag_214:\n        /* \"#utility.yul\":5334:5453   */\n    tag_213:\n        /* \"#utility.yul\":5492:5493   */\n      0x00\n        /* \"#utility.yul\":5517:5570   */\n      tag_215\n        /* \"#utility.yul\":5562:5569   */\n      dup6\n        /* \"#utility.yul\":5553:5559   */\n      dup3\n        /* \"#utility.yul\":5542:5551   */\n      dup7\n        /* \"#utility.yul\":5538:5560   */\n      add\n        /* \"#utility.yul\":5517:5570   */\n      tag_121\n      jump\t// in\n    tag_215:\n        /* \"#utility.yul\":5507:5570   */\n      swap3\n      pop\n        /* \"#utility.yul\":5463:5580   */\n      pop\n        /* \"#utility.yul\":5619:5621   */\n      0x20\n        /* \"#utility.yul\":5645:5697   */\n      tag_216\n        /* \"#utility.yul\":5689:5696   */\n      dup6\n        /* \"#utility.yul\":5680:5686   */\n      dup3\n        /* \"#utility.yul\":5669:5678   */\n      dup7\n        /* \"#utility.yul\":5665:5687   */\n      add\n        /* \"#utility.yul\":5645:5697   */\n      tag_133\n      jump\t// in\n    tag_216:\n        /* \"#utility.yul\":5635:5697   */\n      swap2\n      pop\n        /* \"#utility.yul\":5590:5707   */\n      pop\n        /* \"#utility.yul\":5242:5714   */\n      swap3\n      pop\n      swap3\n      swap1\n      pop\n      jump\t// out\n        /* \"#utility.yul\":5720:6194   */\n    tag_38:\n        /* \"#utility.yul\":5788:5794   */\n      0x00\n        /* \"#utility.yul\":5796:5802   */\n      dup1\n        /* \"#utility.yul\":5845:5847   */\n      0x40\n        /* \"#utility.yul\":5833:5842   */\n      dup4\n        /* \"#utility.yul\":5824:5831   */\n      dup6\n        /* \"#utility.yul\":5820:5843   */\n      sub\n        /* \"#utility.yul\":5816:5848   */\n      slt\n        /* \"#utility.yul\":5813:5932   */\n      iszero\n      tag_218\n      jumpi\n        /* \"#utility.yul\":5851:5930   */\n      tag_219\n      tag_116\n      jump\t// in\n    tag_219:\n        /* \"#utility.yul\":5813:5932   */\n    tag_218:\n        /* \"#utility.yul\":5971:5972   */\n      0x00\n        /* \"#utility.yul\":5996:6049   */\n      tag_220\n        /* \"#utility.yul\":6041:6048   */\n      dup6\n        /* \"#utility.yul\":6032:6038   */\n      dup3\n        /* \"#utility.yul\":6021:6030   */\n      dup7\n        /* \"#utility.yul\":6017:6039   */\n      add\n        /* \"#utility.yul\":5996:6049   */\n      tag_121\n      jump\t// in\n    tag_220:\n        /* \"#utility.yul\":5986:6049   */\n      swap3\n      pop\n        /* \"#utility.yul\":5942:6059   */\n      pop\n        /* \"#utility.yul\":6098:6100   */\n      0x20\n        /* \"#utility.yul\":6124:6177   */\n      tag_221\n        /* \"#utility.yul\":6169:6176   */\n      dup6\n        /* \"#utility.yul\":6160:6166   */\n      dup3\n        /* \"#utility.yul\":6149:6158   */\n      dup7\n        /* \"#utility.yul\":6145:6167   */\n      add\n        /* \"#utility.yul\":6124:6177   */\n      tag_124\n      jump\t// in\n    tag_221:\n        /* \"#utility.yul\":6114:6177   */\n      swap2\n      pop\n        /* \"#utility.yul\":6069:6187   */\n      pop\n        /* \"#utility.yul\":5720:6194   */\n      swap3\n      pop\n      swap3\n      swap1\n      pop\n      jump\t// out\n        /* \"#utility.yul\":6200:6290   */\n    tag_134:\n        /* \"#utility.yul\":6234:6241   */\n      0x00\n        /* \"#utility.yul\":6277:6282   */\n      dup2\n        /* \"#utility.yul\":6270:6283   */\n      iszero\n        /* \"#utility.yul\":6263:6284   */\n      iszero\n        /* \"#utility.yul\":6252:6284   */\n      swap1\n      pop\n        /* \"#utility.yul\":6200:6290   */\n      swap2\n      swap1\n      pop\n      jump\t// out\n        /* \"#utility.yul\":6296:6405   */\n    tag_135:\n        /* \"#utility.yul\":6377:6398   */\n      tag_224\n        /* \"#utility.yul\":6392:6397   */\n      dup2\n        /* \"#utility.yul\":6377:6398   */\n      tag_134\n      jump\t// in\n    tag_224:\n        /* \"#utility.yul\":6372:6375   */\n      dup3\n        /* \"#utility.yul\":6365:6399   */\n      mstore\n        /* \"#utility.yul\":6296:6405   */\n      pop\n      pop\n      jump\t// out\n        /* \"#utility.yul\":6411:6621   */\n    tag_45:\n        /* \"#utility.yul\":6498:6502   */\n      0x00\n        /* \"#utility.yul\":6536:6538   */\n      0x20\n        /* \"#utility.yul\":6525:6534   */\n      dup3\n        /* \"#utility.yul\":6521:6539   */\n      add\n        /* \"#utility.yul\":6513:6539   */\n      swap1\n      pop\n        /* \"#utility.yul\":6549:6614   */\n      tag_226\n        /* \"#utility.yul\":6611:6612   */\n      0x00\n        /* \"#utility.yul\":6600:6609   */\n      dup4\n        /* \"#utility.yul\":6596:6613   */\n      add\n        /* \"#utility.yul\":6587:6593   */\n      dup5\n        /* \"#utility.yul\":6549:6614   */\n      tag_135\n      jump\t// in\n    tag_226:\n        /* \"#utility.yul\":6411:6621   */\n      swap3\n      swap2\n      pop\n      pop\n      jump\t// out\n        /* \"#utility.yul\":6627:6796   */\n    tag_136:\n        /* \"#utility.yul\":6711:6722   */\n      0x00\n        /* \"#utility.yul\":6745:6751   */\n      dup3\n        /* \"#utility.yul\":6740:6743   */\n      dup3\n        /* \"#utility.yul\":6733:6752   */\n      mstore\n        /* \"#utility.yul\":6785:6789   */\n      0x20\n        /* \"#utility.yul\":6780:6783   */\n      dup3\n        /* \"#utility.yul\":6776:6790   */\n      add\n        /* \"#utility.yul\":6761:6790   */\n      swap1\n      pop\n        /* \"#utility.yul\":6627:6796   */\n      swap3\n      swap2\n      pop\n      pop\n      jump\t// out\n        /* \"#utility.yul\":6802:6967   */\n    tag_137:\n        /* \"#utility.yul\":6942:6959   */\n      0x4e6f7420746865206d616e616765720000000000000000000000000000000000\n        /* \"#utility.yul\":6938:6939   */\n      0x00\n        /* \"#utility.yul\":6930:6936   */\n      dup3\n        /* \"#utility.yul\":6926:6940   */\n      add\n        /* \"#utility.yul\":6919:6960   */\n      mstore\n        /* \"#utility.yul\":6802:6967   */\n      pop\n      jump\t// out\n        /* \"#utility.yul\":6973:7339   */\n    tag_138:\n        /* \"#utility.yul\":7115:7118   */\n      0x00\n        /* \"#utility.yul\":7136:7203   */\n      tag_230\n        /* \"#utility.yul\":7200:7202   */\n      0x0f\n        /* \"#utility.yul\":7195:7198   */\n      dup4\n        /* \"#utility.yul\":7136:7203   */\n      tag_136\n      jump\t// in\n    tag_230:\n        /* \"#utility.yul\":7129:7203   */\n      swap2\n      pop\n        /* \"#utility.yul\":7212:7305   */\n      tag_231\n        /* \"#utility.yul\":7301:7304   */\n      dup3\n        /* \"#utility.yul\":7212:7305   */\n      tag_137\n      jump\t// in\n    tag_231:\n        /* \"#utility.yul\":7330:7332   */\n      0x20\n        /* \"#utility.yul\":7325:7328   */\n      dup3\n        /* \"#utility.yul\":7321:7333   */\n      add\n        /* \"#utility.yul\":7314:7333   */\n      swap1\n      pop\n        /* \"#utility.yul\":6973:7339   */\n      swap2\n      swap1\n      pop\n      jump\t// out\n        /* \"#utility.yul\":7345:7764   */\n    tag_56:\n        /* \"#utility.yul\":7511:7515   */\n      0x00\n        /* \"#utility.yul\":7549:7551   */\n      0x20\n        /* \"#utility.yul\":7538:7547   */\n      dup3\n        /* \"#utility.yul\":7534:7552   */\n      add\n        /* \"#utility.yul\":7526:7552   */\n      swap1\n      pop\n        /* \"#utility.yul\":7598:7607   */\n      dup2\n        /* \"#utility.yul\":7592:7596   */\n      dup2\n        /* \"#utility.yul\":7588:7608   */\n      sub\n        /* \"#utility.yul\":7584:7585   */\n      0x00\n        /* \"#utility.yul\":7573:7582   */\n      dup4\n        /* \"#utility.yul\":7569:7586   */\n      add\n        /* \"#utility.yul\":7562:7609   */\n      mstore\n        /* \"#utility.yul\":7626:7757   */\n      tag_233\n        /* \"#utility.yul\":7752:7756   */\n      dup2\n        /* \"#utility.yul\":7626:7757   */\n      tag_138\n      jump\t// in\n    tag_233:\n        /* \"#utility.yul\":7618:7757   */\n      swap1\n      pop\n        /* \"#utility.yul\":7345:7764   */\n      swap2\n      swap1\n      pop\n      jump\t// out\n        /* \"#utility.yul\":7770:7946   */\n    tag_139:\n        /* \"#utility.yul\":7910:7938   */\n      0x4d757374206e6f7420626520616e204552433136352068617368000000000000\n        /* \"#utility.yul\":7906:7907   */\n      0x00\n        /* \"#utility.yul\":7898:7904   */\n      dup3\n        /* \"#utility.yul\":7894:7908   */\n      add\n        /* \"#utility.yul\":7887:7939   */\n      mstore\n        /* \"#utility.yul\":7770:7946   */\n      pop\n      jump\t// out\n        /* \"#utility.yul\":7952:8318   */\n    tag_140:\n        /* \"#utility.yul\":8094:8097   */\n      0x00\n        /* \"#utility.yul\":8115:8182   */\n      tag_236\n        /* \"#utility.yul\":8179:8181   */\n      0x1a\n        /* \"#utility.yul\":8174:8177   */\n      dup4\n        /* \"#utility.yul\":8115:8182   */\n      tag_136\n      jump\t// in\n    tag_236:\n        /* \"#utility.yul\":8108:8182   */\n      swap2\n      pop\n        /* \"#utility.yul\":8191:8284   */\n      tag_237\n        /* \"#utility.yul\":8280:8283   */\n      dup3\n        /* \"#utility.yul\":8191:8284   */\n      tag_139\n      jump\t// in\n    tag_237:\n        /* \"#utility.yul\":8309:8311   */\n      0x20\n        /* \"#utility.yul\":8304:8307   */\n      dup3\n        /* \"#utility.yul\":8300:8312   */\n      add\n        /* \"#utility.yul\":8293:8312   */\n      swap1\n      pop\n        /* \"#utility.yul\":7952:8318   */\n      swap2\n      swap1\n      pop\n      jump\t// out\n        /* \"#utility.yul\":8324:8743   */\n    tag_61:\n        /* \"#utility.yul\":8490:8494   */\n      0x00\n        /* \"#utility.yul\":8528:8530   */\n      0x20\n        /* \"#utility.yul\":8517:8526   */\n      dup3\n        /* \"#utility.yul\":8513:8531   */\n      add\n        /* \"#utility.yul\":8505:8531   */\n      swap1\n      pop\n        /* \"#utility.yul\":8577:8586   */\n      dup2\n        /* \"#utility.yul\":8571:8575   */\n      dup2\n        /* \"#utility.yul\":8567:8587   */\n      sub\n        /* \"#utility.yul\":8563:8564   */\n      0x00\n        /* \"#utility.yul\":8552:8561   */\n      dup4\n        /* \"#utility.yul\":8548:8565   */\n      add\n        /* \"#utility.yul\":8541:8588   */\n      mstore\n        /* \"#utility.yul\":8605:8736   */\n      tag_239\n        /* \"#utility.yul\":8731:8735   */\n      dup2\n        /* \"#utility.yul\":8605:8736   */\n      tag_140\n      jump\t// in\n    tag_239:\n        /* \"#utility.yul\":8597:8736   */\n      swap1\n      pop\n        /* \"#utility.yul\":8324:8743   */\n      swap2\n      swap1\n      pop\n      jump\t// out\n        /* \"#utility.yul\":8749:8897   */\n    tag_141:\n        /* \"#utility.yul\":8851:8862   */\n      0x00\n        /* \"#utility.yul\":8888:8891   */\n      dup2\n        /* \"#utility.yul\":8873:8891   */\n      swap1\n      pop\n        /* \"#utility.yul\":8749:8897   */\n      swap3\n      swap2\n      pop\n      pop\n      jump\t// out\n        /* \"#utility.yul\":8903:9073   */\n    tag_142:\n        /* \"#utility.yul\":9043:9065   */\n      0x455243313832305f4143434550545f4d41474943000000000000000000000000\n        /* \"#utility.yul\":9039:9040   */\n      0x00\n        /* \"#utility.yul\":9031:9037   */\n      dup3\n        /* \"#utility.yul\":9027:9041   */\n      add\n        /* \"#utility.yul\":9020:9066   */\n      mstore\n        /* \"#utility.yul\":8903:9073   */\n      pop\n      jump\t// out\n        /* \"#utility.yul\":9079:9481   */\n    tag_143:\n        /* \"#utility.yul\":9239:9242   */\n      0x00\n        /* \"#utility.yul\":9260:9345   */\n      tag_243\n        /* \"#utility.yul\":9342:9344   */\n      0x14\n        /* \"#utility.yul\":9337:9340   */\n      dup4\n        /* \"#utility.yul\":9260:9345   */\n      tag_141\n      jump\t// in\n    tag_243:\n        /* \"#utility.yul\":9253:9345   */\n      swap2\n      pop\n        /* \"#utility.yul\":9354:9447   */\n      tag_244\n        /* \"#utility.yul\":9443:9446   */\n      dup3\n        /* \"#utility.yul\":9354:9447   */\n      tag_142\n      jump\t// in\n    tag_244:\n        /* \"#utility.yul\":9472:9474   */\n      0x14\n        /* \"#utility.yul\":9467:9470   */\n      dup3\n        /* \"#utility.yul\":9463:9475   */\n      add\n        /* \"#utility.yul\":9456:9475   */\n      swap1\n      pop\n        /* \"#utility.yul\":9079:9481   */\n      swap2\n      swap1\n      pop\n      jump\t// out\n        /* \"#utility.yul\":9487:9868   */\n    tag_65:\n        /* \"#utility.yul\":9672:9675   */\n      0x00\n        /* \"#utility.yul\":9694:9842   */\n      tag_246\n        /* \"#utility.yul\":9838:9841   */\n      dup3\n        /* \"#utility.yul\":9694:9842   */\n      tag_143\n      jump\t// in\n    tag_246:\n        /* \"#utility.yul\":9687:9842   */\n      swap2\n      pop\n        /* \"#utility.yul\":9859:9862   */\n      dup2\n        /* \"#utility.yul\":9852:9862   */\n      swap1\n      pop\n        /* \"#utility.yul\":9487:9868   */\n      swap2\n      swap1\n      pop\n      jump\t// out\n        /* \"#utility.yul\":9874:10206   */\n    tag_67:\n        /* \"#utility.yul\":9995:9999   */\n      0x00\n        /* \"#utility.yul\":10033:10035   */\n      0x40\n        /* \"#utility.yul\":10022:10031   */\n      dup3\n        /* \"#utility.yul\":10018:10036   */\n      add\n        /* \"#utility.yul\":10010:10036   */\n      swap1\n      pop\n        /* \"#utility.yul\":10046:10117   */\n      tag_248\n        /* \"#utility.yul\":10114:10115   */\n      0x00\n        /* \"#utility.yul\":10103:10112   */\n      dup4\n        /* \"#utility.yul\":10099:10116   */\n      add\n        /* \"#utility.yul\":10090:10096   */\n      dup6\n        /* \"#utility.yul\":10046:10117   */\n      tag_130\n      jump\t// in\n    tag_248:\n        /* \"#utility.yul\":10127:10199   */\n      tag_249\n        /* \"#utility.yul\":10195:10197   */\n      0x20\n        /* \"#utility.yul\":10184:10193   */\n      dup4\n        /* \"#utility.yul\":10180:10198   */\n      add\n        /* \"#utility.yul\":10171:10177   */\n      dup5\n        /* \"#utility.yul\":10127:10199   */\n      tag_125\n      jump\t// in\n    tag_249:\n        /* \"#utility.yul\":9874:10206   */\n      swap4\n      swap3\n      pop\n      pop\n      pop\n      jump\t// out\n        /* \"#utility.yul\":10212:10355   */\n    tag_144:\n        /* \"#utility.yul\":10269:10274   */\n      0x00\n        /* \"#utility.yul\":10300:10306   */\n      dup2\n        /* \"#utility.yul\":10294:10307   */\n      mload\n        /* \"#utility.yul\":10285:10307   */\n      swap1\n      pop\n        /* \"#utility.yul\":10316:10349   */\n      tag_251\n        /* \"#utility.yul\":10343:10348   */\n      dup2\n        /* \"#utility.yul\":10316:10349   */\n      tag_123\n      jump\t// in\n    tag_251:\n        /* \"#utility.yul\":10212:10355   */\n      swap3\n      swap2\n      pop\n      pop\n      jump\t// out\n        /* \"#utility.yul\":10361:10712   */\n    tag_71:\n        /* \"#utility.yul\":10431:10437   */\n      0x00\n        /* \"#utility.yul\":10480:10482   */\n      0x20\n        /* \"#utility.yul\":10468:10477   */\n      dup3\n        /* \"#utility.yul\":10459:10466   */\n      dup5\n        /* \"#utility.yul\":10455:10478   */\n      sub\n        /* \"#utility.yul\":10451:10483   */\n      slt\n        /* \"#utility.yul\":10448:10567   */\n      iszero\n      tag_253\n      jumpi\n        /* \"#utility.yul\":10486:10565   */\n      tag_254\n      tag_116\n      jump\t// in\n    tag_254:\n        /* \"#utility.yul\":10448:10567   */\n    tag_253:\n        /* \"#utility.yul\":10606:10607   */\n      0x00\n        /* \"#utility.yul\":10631:10695   */\n      tag_255\n        /* \"#utility.yul\":10687:10694   */\n      dup5\n        /* \"#utility.yul\":10678:10684   */\n      dup3\n        /* \"#utility.yul\":10667:10676   */\n      dup6\n        /* \"#utility.yul\":10663:10685   */\n      add\n        /* \"#utility.yul\":10631:10695   */\n      tag_144\n      jump\t// in\n    tag_255:\n        /* \"#utility.yul\":10621:10695   */\n      swap2\n      pop\n        /* \"#utility.yul\":10577:10705   */\n      pop\n        /* \"#utility.yul\":10361:10712   */\n      swap3\n      swap2\n      pop\n      pop\n      jump\t// out\n        /* \"#utility.yul\":10718:10900   */\n    tag_145:\n        /* \"#utility.yul\":10858:10892   */\n      0x446f6573206e6f7420696d706c656d656e742074686520696e74657266616365\n        /* \"#utility.yul\":10854:10855   */\n      0x00\n        /* \"#utility.yul\":10846:10852   */\n      dup3\n        /* \"#utility.yul\":10842:10856   */\n      add\n        /* \"#utility.yul\":10835:10893   */\n      mstore\n        /* \"#utility.yul\":10718:10900   */\n      pop\n      jump\t// out\n        /* \"#utility.yul\":10906:11272   */\n    tag_146:\n        /* \"#utility.yul\":11048:11051   */\n      0x00\n        /* \"#utility.yul\":11069:11136   */\n      tag_258\n        /* \"#utility.yul\":11133:11135   */\n      0x20\n        /* \"#utility.yul\":11128:11131   */\n      dup4\n        /* \"#utility.yul\":11069:11136   */\n      tag_136\n      jump\t// in\n    tag_258:\n        /* \"#utility.yul\":11062:11136   */\n      swap2\n      pop\n        /* \"#utility.yul\":11145:11238   */\n      tag_259\n        /* \"#utility.yul\":11234:11237   */\n      dup3\n        /* \"#utility.yul\":11145:11238   */\n      tag_145\n      jump\t// in\n    tag_259:\n        /* \"#utility.yul\":11263:11265   */\n      0x20\n        /* \"#utility.yul\":11258:11261   */\n      dup3\n        /* \"#utility.yul\":11254:11266   */\n      add\n        /* \"#utility.yul\":11247:11266   */\n      swap1\n      pop\n        /* \"#utility.yul\":10906:11272   */\n      swap2\n      swap1\n      pop\n      jump\t// out\n        /* \"#utility.yul\":11278:11697   */\n    tag_74:\n        /* \"#utility.yul\":11444:11448   */\n      0x00\n        /* \"#utility.yul\":11482:11484   */\n      0x20\n        /* \"#utility.yul\":11471:11480   */\n      dup3\n        /* \"#utility.yul\":11467:11485   */\n      add\n        /* \"#utility.yul\":11459:11485   */\n      swap1\n      pop\n        /* \"#utility.yul\":11531:11540   */\n      dup2\n        /* \"#utility.yul\":11525:11529   */\n      dup2\n        /* \"#utility.yul\":11521:11541   */\n      sub\n        /* \"#utility.yul\":11517:11518   */\n      0x00\n        /* \"#utility.yul\":11506:11515   */\n      dup4\n        /* \"#utility.yul\":11502:11519   */\n      add\n        /* \"#utility.yul\":11495:11542   */\n      mstore\n        /* \"#utility.yul\":11559:11690   */\n      tag_261\n        /* \"#utility.yul\":11685:11689   */\n      dup2\n        /* \"#utility.yul\":11559:11690   */\n      tag_146\n      jump\t// in\n    tag_261:\n        /* \"#utility.yul\":11551:11690   */\n      swap1\n      pop\n        /* \"#utility.yul\":11278:11697   */\n      swap2\n      swap1\n      pop\n      jump\t// out\n        /* \"#utility.yul\":11703:11851   */\n    tag_147:\n        /* \"#utility.yul\":11801:11807   */\n      dup3\n        /* \"#utility.yul\":11796:11799   */\n      dup2\n        /* \"#utility.yul\":11791:11794   */\n      dup4\n        /* \"#utility.yul\":11778:11808   */\n      calldatacopy\n        /* \"#utility.yul\":11842:11843   */\n      0x00\n        /* \"#utility.yul\":11833:11839   */\n      dup4\n        /* \"#utility.yul\":11828:11831   */\n      dup4\n        /* \"#utility.yul\":11824:11840   */\n      add\n        /* \"#utility.yul\":11817:11844   */\n      mstore\n        /* \"#utility.yul\":11703:11851   */\n      pop\n      pop\n      pop\n      jump\t// out\n        /* \"#utility.yul\":11881:12211   */\n    tag_148:\n        /* \"#utility.yul\":11997:12000   */\n      0x00\n        /* \"#utility.yul\":12018:12107   */\n      tag_264\n        /* \"#utility.yul\":12100:12106   */\n      dup4\n        /* \"#utility.yul\":12095:12098   */\n      dup6\n        /* \"#utility.yul\":12018:12107   */\n      tag_141\n      jump\t// in\n    tag_264:\n        /* \"#utility.yul\":12011:12107   */\n      swap4\n      pop\n        /* \"#utility.yul\":12117:12173   */\n      tag_265\n        /* \"#utility.yul\":12166:12172   */\n      dup4\n        /* \"#utility.yul\":12161:12164   */\n      dup6\n        /* \"#utility.yul\":12154:12159   */\n      dup5\n        /* \"#utility.yul\":12117:12173   */\n      tag_147\n      jump\t// in\n    tag_265:\n        /* \"#utility.yul\":12198:12204   */\n      dup3\n        /* \"#utility.yul\":12193:12196   */\n      dup5\n        /* \"#utility.yul\":12189:12205   */\n      add\n        /* \"#utility.yul\":12182:12205   */\n      swap1\n      pop\n        /* \"#utility.yul\":11881:12211   */\n      swap4\n      swap3\n      pop\n      pop\n      pop\n      jump\t// out\n        /* \"#utility.yul\":12217:12512   */\n    tag_86:\n        /* \"#utility.yul\":12359:12362   */\n      0x00\n        /* \"#utility.yul\":12381:12486   */\n      tag_267\n        /* \"#utility.yul\":12482:12485   */\n      dup3\n        /* \"#utility.yul\":12473:12479   */\n      dup5\n        /* \"#utility.yul\":12465:12471   */\n      dup7\n        /* \"#utility.yul\":12381:12486   */\n      tag_148\n      jump\t// in\n    tag_267:\n        /* \"#utility.yul\":12374:12486   */\n      swap2\n      pop\n        /* \"#utility.yul\":12503:12506   */\n      dup2\n        /* \"#utility.yul\":12496:12506   */\n      swap1\n      pop\n        /* \"#utility.yul\":12217:12512   */\n      swap4\n      swap3\n      pop\n      pop\n      pop\n      jump\t// out\n\n    auxdata: 0xa2646970667358221220b14e0647a57ce4b385255137392aab0a652039a979d377c4c3af18d35ce4762664736f6c634300081a0033\n}\n",
				"bytecode": {
					"linkReferences": {},
					"object": "6080604052348015600e575f80fd5b506112448061001c5f395ff3fe608060405234801561000f575f80fd5b5060043610610086575f3560e01c8063a41e7d5111610059578063a41e7d5114610122578063aabbb8ca1461013e578063b70567651461016e578063f712f3e81461019e57610086565b806329965a1d1461008a5780633d584063146100a65780635df8122f146100d657806365ba36c1146100f2575b5f80fd5b6100a4600480360381019061009f9190610cf5565b6101ce565b005b6100c060048036038101906100bb9190610d45565b610502565b6040516100cd9190610d7f565b60405180910390f35b6100f060048036038101906100eb9190610d98565b6105ff565b005b61010c60048036038101906101079190610e37565b610788565b6040516101199190610e91565b60405180910390f35b61013c60048036038101906101379190610eff565b6107ba565b005b61015860048036038101906101539190610f3d565b61091d565b6040516101659190610d7f565b60405180910390f35b61018860048036038101906101839190610eff565b610a02565b6040516101959190610f95565b60405180910390f35b6101b860048036038101906101b39190610eff565b610aae565b6040516101c59190610f95565b60405180910390f35b5f8073ffffffffffffffffffffffffffffffffffffffff168473ffffffffffffffffffffffffffffffffffffffff1614610208578361020a565b335b90503373ffffffffffffffffffffffffffffffffffffffff1661022c82610502565b73ffffffffffffffffffffffffffffffffffffffff1614610282576040517f08c379a000000000000000000000000000000000000000000000000000000000815260040161027990611008565b60405180910390fd5b61028b83610c1c565b156102cb576040517f08c379a00000000000000000000000000000000000000000000000000000000081526004016102c290611070565b60405180910390fd5b5f73ffffffffffffffffffffffffffffffffffffffff168273ffffffffffffffffffffffffffffffffffffffff161415801561033357503373ffffffffffffffffffffffffffffffffffffffff168273ffffffffffffffffffffffffffffffffffffffff1614155b1561041857604051602001610347906110e2565b604051602081830303815290604052805190602001208273ffffffffffffffffffffffffffffffffffffffff1663249cb3fa85846040518363ffffffff1660e01b81526004016103989291906110f6565b602060405180830381865afa1580156103b3573d5f803e3d5ffd5b505050506040513d601f19601f820116820180604052508101906103d79190611131565b14610417576040517f08c379a000000000000000000000000000000000000000000000000000000000815260040161040e906111a6565b60405180910390fd5b5b815f808373ffffffffffffffffffffffffffffffffffffffff1673ffffffffffffffffffffffffffffffffffffffff1681526020019081526020015f205f8581526020019081526020015f205f6101000a81548173ffffffffffffffffffffffffffffffffffffffff021916908373ffffffffffffffffffffffffffffffffffffffff1602179055508173ffffffffffffffffffffffffffffffffffffffff16838273ffffffffffffffffffffffffffffffffffffffff167f93baa6efbd2244243bfee6ce4cfdd1d04fc4c0e9a786abd3a41313bd352db15360405160405180910390a450505050565b5f8073ffffffffffffffffffffffffffffffffffffffff1660015f8473ffffffffffffffffffffffffffffffffffffffff1673ffffffffffffffffffffffffffffffffffffffff1681526020019081526020015f205f9054906101000a900473ffffffffffffffffffffffffffffffffffffffff1673ffffffffffffffffffffffffffffffffffffffff160361059a578190506105fa565b60015f8373ffffffffffffffffffffffffffffffffffffffff1673ffffffffffffffffffffffffffffffffffffffff1681526020019081526020015f205f9054906101000a900473ffffffffffffffffffffffffffffffffffffffff1690505b919050565b3373ffffffffffffffffffffffffffffffffffffffff1661061f83610502565b73ffffffffffffffffffffffffffffffffffffffff1614610675576040517f08c379a000000000000000000000000000000000000000000000000000000000815260040161066c90611008565b60405180910390fd5b8173ffffffffffffffffffffffffffffffffffffffff168173ffffffffffffffffffffffffffffffffffffffff16146106ae57806106b0565b5f5b60015f8473ffffffffffffffffffffffffffffffffffffffff1673ffffffffffffffffffffffffffffffffffffffff1681526020019081526020015f205f6101000a81548173ffffffffffffffffffffffffffffffffffffffff021916908373ffffffffffffffffffffffffffffffffffffffff1602179055508073ffffffffffffffffffffffffffffffffffffffff168273ffffffffffffffffffffffffffffffffffffffff167f605c2dbf762e5f7d60a546d42e7205dcb1b011ebc62a61736a57c9089d3a435060405160405180910390a35050565b5f828260405160200161079c9291906111f6565b60405160208183030381529060405280519060200120905092915050565b6107c48282610a02565b6107ce575f6107d0565b815b5f808473ffffffffffffffffffffffffffffffffffffffff1673ffffffffffffffffffffffffffffffffffffffff1681526020019081526020015f205f837bffffffffffffffffffffffffffffffffffffffffffffffffffffffff191681526020019081526020015f205f6101000a81548173ffffffffffffffffffffffffffffffffffffffff021916908373ffffffffffffffffffffffffffffffffffffffff160217905550600160025f8473ffffffffffffffffffffffffffffffffffffffff1673ffffffffffffffffffffffffffffffffffffffff1681526020019081526020015f205f837bffffffffffffffffffffffffffffffffffffffffffffffffffffffff19167bffffffffffffffffffffffffffffffffffffffffffffffffffffffff191681526020019081526020015f205f6101000a81548160ff0219169083151502179055505050565b5f805f73ffffffffffffffffffffffffffffffffffffffff168473ffffffffffffffffffffffffffffffffffffffff1614610958578361095a565b335b905061096583610c1c565b1561098d575f8390506109788282610aae565b610982575f610984565b815b925050506109fc565b5f808273ffffffffffffffffffffffffffffffffffffffff1673ffffffffffffffffffffffffffffffffffffffff1681526020019081526020015f205f8481526020019081526020015f205f9054906101000a900473ffffffffffffffffffffffffffffffffffffffff169150505b92915050565b5f805f610a16856301ffc9a760e01b610c2d565b80925081935050505f821480610a2b57505f81145b15610a3a575f92505050610aa8565b610a4b8563ffffffff60e01b610c2d565b80925081935050505f821480610a6157505f8114155b15610a70575f92505050610aa8565b610a7a8585610c2d565b8092508193505050600182148015610a925750600181145b15610aa257600192505050610aa8565b5f925050505b92915050565b5f60025f8473ffffffffffffffffffffffffffffffffffffffff1673ffffffffffffffffffffffffffffffffffffffff1681526020019081526020015f205f837bffffffffffffffffffffffffffffffffffffffffffffffffffffffff19167bffffffffffffffffffffffffffffffffffffffffffffffffffffffff191681526020019081526020015f205f9054906101000a900460ff16610b5b57610b548383610a02565b9050610c16565b8273ffffffffffffffffffffffffffffffffffffffff165f808573ffffffffffffffffffffffffffffffffffffffff1673ffffffffffffffffffffffffffffffffffffffff1681526020019081526020015f205f847bffffffffffffffffffffffffffffffffffffffffffffffffffffffff191681526020019081526020015f205f9054906101000a900473ffffffffffffffffffffffffffffffffffffffff1673ffffffffffffffffffffffffffffffffffffffff161490505b92915050565b5f805f1b602083901c149050919050565b5f805f6301ffc9a760e01b905060405181815284600482015260208160248389617530fa93508051925050509250929050565b5f80fd5b5f80fd5b5f73ffffffffffffffffffffffffffffffffffffffff82169050919050565b5f610c9182610c68565b9050919050565b610ca181610c87565b8114610cab575f80fd5b50565b5f81359050610cbc81610c98565b92915050565b5f819050919050565b610cd481610cc2565b8114610cde575f80fd5b50565b5f81359050610cef81610ccb565b92915050565b5f805f60608486031215610d0c57610d0b610c60565b5b5f610d1986828701610cae565b9350506020610d2a86828701610ce1565b9250506040610d3b86828701610cae565b9150509250925092565b5f60208284031215610d5a57610d59610c60565b5b5f610d6784828501610cae565b91505092915050565b610d7981610c87565b82525050565b5f602082019050610d925f830184610d70565b92915050565b5f8060408385031215610dae57610dad610c60565b5b5f610dbb85828601610cae565b9250506020610dcc85828601610cae565b9150509250929050565b5f80fd5b5f80fd5b5f80fd5b5f8083601f840112610df757610df6610dd6565b5b8235905067ffffffffffffffff811115610e1457610e13610dda565b5b602083019150836001820283011115610e3057610e2f610dde565b5b9250929050565b5f8060208385031215610e4d57610e4c610c60565b5b5f83013567ffffffffffffffff811115610e6a57610e69610c64565b5b610e7685828601610de2565b92509250509250929050565b610e8b81610cc2565b82525050565b5f602082019050610ea45f830184610e82565b92915050565b5f7fffffffff0000000000000000000000000000000000000000000000000000000082169050919050565b610ede81610eaa565b8114610ee8575f80fd5b50565b5f81359050610ef981610ed5565b92915050565b5f8060408385031215610f1557610f14610c60565b5b5f610f2285828601610cae565b9250506020610f3385828601610eeb565b9150509250929050565b5f8060408385031215610f5357610f52610c60565b5b5f610f6085828601610cae565b9250506020610f7185828601610ce1565b9150509250929050565b5f8115159050919050565b610f8f81610f7b565b82525050565b5f602082019050610fa85f830184610f86565b92915050565b5f82825260208201905092915050565b7f4e6f7420746865206d616e6167657200000000000000000000000000000000005f82015250565b5f610ff2600f83610fae565b9150610ffd82610fbe565b602082019050919050565b5f6020820190508181035f83015261101f81610fe6565b9050919050565b7f4d757374206e6f7420626520616e2045524331363520686173680000000000005f82015250565b5f61105a601a83610fae565b915061106582611026565b602082019050919050565b5f6020820190508181035f8301526110878161104e565b9050919050565b5f81905092915050565b7f455243313832305f4143434550545f4d414749430000000000000000000000005f82015250565b5f6110cc60148361108e565b91506110d782611098565b601482019050919050565b5f6110ec826110c0565b9150819050919050565b5f6040820190506111095f830185610e82565b6111166020830184610d70565b9392505050565b5f8151905061112b81610ccb565b92915050565b5f6020828403121561114657611145610c60565b5b5f6111538482850161111d565b91505092915050565b7f446f6573206e6f7420696d706c656d656e742074686520696e746572666163655f82015250565b5f611190602083610fae565b915061119b8261115c565b602082019050919050565b5f6020820190508181035f8301526111bd81611184565b9050919050565b828183375f83830152505050565b5f6111dd838561108e565b93506111ea8385846111c4565b82840190509392505050565b5f6112028284866111d2565b9150819050939250505056fea2646970667358221220b14e0647a57ce4b385255137392aab0a652039a979d377c4c3af18d35ce4762664736f6c634300081a0033",
					"opcodes": "PUSH1 0x80 PUSH1 0x40 MSTORE CALLVALUE DUP1 ISZERO PUSH1 0xE JUMPI PUSH0 DUP1 REVERT JUMPDEST POP PUSH2 0x1244 DUP1 PUSH2 0x1C PUSH0 CODECOPY PUSH0 RETURN INVALID PUSH1 0x80 PUSH1 0x40 MSTORE CALLVALUE DUP1 ISZERO PUSH2 0xF JUMPI PUSH0 DUP1 REVERT JUMPDEST POP PUSH1 0x4 CALLDATASIZE LT PUSH2 0x86 JUMPI PUSH0 CALLDATALOAD PUSH1 0xE0 SHR DUP1 PUSH4 0xA41E7D51 GT PUSH2 0x59 JUMPI DUP1 PUSH4 0xA41E7D51 EQ PUSH2 0x122 JUMPI DUP1 PUSH4 0xAABBB8CA EQ PUSH2 0x13E JUMPI DUP1 PUSH4 0xB7056765 EQ PUSH2 0x16E JUMPI DUP1 PUSH4 0xF712F3E8 EQ PUSH2 0x19E JUMPI PUSH2 0x86 JUMP JUMPDEST DUP1 PUSH4 0x29965A1D EQ PUSH2 0x8A JUMPI DUP1 PUSH4 0x3D584063 EQ PUSH2 0xA6 JUMPI DUP1 PUSH4 0x5DF8122F EQ PUSH2 0xD6 JUMPI DUP1 PUSH4 0x65BA36C1 EQ PUSH2 0xF2 JUMPI JUMPDEST PUSH0 DUP1 REVERT JUMPDEST PUSH2 0xA4 PUSH1 0x4 DUP1 CALLDATASIZE SUB DUP2 ADD SWAP1 PUSH2 0x9F SWAP2 SWAP1 PUSH2 0xCF5 JUMP JUMPDEST PUSH2 0x1CE JUMP JUMPDEST STOP JUMPDEST PUSH2 0xC0 PUSH1 0x4 DUP1 CALLDATASIZE SUB DUP2 ADD SWAP1 PUSH2 0xBB SWAP2 SWAP1 PUSH2 0xD45 JUMP JUMPDEST PUSH2 0x502 JUMP JUMPDEST PUSH1 0x40 MLOAD PUSH2 0xCD SWAP2 SWAP1 PUSH2 0xD7F JUMP JUMPDEST PUSH1 0x40 MLOAD DUP1 SWAP2 SUB SWAP1 RETURN JUMPDEST PUSH2 0xF0 PUSH1 0x4 DUP1 CALLDATASIZE SUB DUP2 ADD SWAP1 PUSH2 0xEB SWAP2 SWAP1 PUSH2 0xD98 JUMP JUMPDEST PUSH2 0x5FF JUMP JUMPDEST STOP JUMPDEST PUSH2 0x10C PUSH1 0x4 DUP1 CALLDATASIZE SUB DUP2 ADD SWAP1 PUSH2 0x107 SWAP2 SWAP1 PUSH2 0xE37 JUMP JUMPDEST PUSH2 0x788 JUMP JUMPDEST PUSH1 0x40 MLOAD PUSH2 0x119 SWAP2 SWAP1 PUSH2 0xE91 JUMP JUMPDEST PUSH1 0x40 MLOAD DUP1 SWAP2 SUB SWAP1 RETURN JUMPDEST PUSH2 0x13C PUSH1 0x4 DUP1 CALLDATASIZE SUB DUP2 ADD SWAP1 PUSH2 0x137 SWAP2 SWAP1 PUSH2 0xEFF JUMP JUMPDEST PUSH2 0x7BA JUMP JUMPDEST STOP JUMPDEST PUSH2 0x158 PUSH1 0x4 DUP1 CALLDATASIZE SUB DUP2 ADD SWAP1 PUSH2 0x153 SWAP2 SWAP1 PUSH2 0xF3D JUMP JUMPDEST PUSH2 0x91D JUMP JUMPDEST PUSH1 0x40 MLOAD PUSH2 0x165 SWAP2 SWAP1 PUSH2 0xD7F JUMP JUMPDEST PUSH1 0x40 MLOAD DUP1 SWAP2 SUB SWAP1 RETURN JUMPDEST PUSH2 0x188 PUSH1 0x4 DUP1 CALLDATASIZE SUB DUP2 ADD SWAP1 PUSH2 0x183 SWAP2 SWAP1 PUSH2 0xEFF JUMP JUMPDEST PUSH2 0xA02 JUMP JUMPDEST PUSH1 0x40 MLOAD PUSH2 0x195 SWAP2 SWAP1 PUSH2 0xF95 JUMP JUMPDEST PUSH1 0x40 MLOAD DUP1 SWAP2 SUB SWAP1 RETURN JUMPDEST PUSH2 0x1B8 PUSH1 0x4 DUP1 CALLDATASIZE SUB DUP2 ADD SWAP1 PUSH2 0x1B3 SWAP2 SWAP1 PUSH2 0xEFF JUMP JUMPDEST PUSH2 0xAAE JUMP JUMPDEST PUSH1 0x40 MLOAD PUSH2 0x1C5 SWAP2 SWAP1 PUSH2 0xF95 JUMP JUMPDEST PUSH1 0x40 MLOAD DUP1 SWAP2 SUB SWAP1 RETURN JUMPDEST PUSH0 DUP1 PUSH20 0xFFFFFFFFFFFFFFFFFFFFFFFFFFFFFFFFFFFFFFFF AND DUP5 PUSH20 0xFFFFFFFFFFFFFFFFFFFFFFFFFFFFFFFFFFFFFFFF AND EQ PUSH2 0x208 JUMPI DUP4 PUSH2 0x20A JUMP JUMPDEST CALLER JUMPDEST SWAP1 POP CALLER PUSH20 0xFFFFFFFFFFFFFFFFFFFFFFFFFFFFFFFFFFFFFFFF AND PUSH2 0x22C DUP3 PUSH2 0x502 JUMP JUMPDEST PUSH20 0xFFFFFFFFFFFFFFFFFFFFFFFFFFFFFFFFFFFFFFFF AND EQ PUSH2 0x282 JUMPI PUSH1 0x40 MLOAD PUSH32 0x8C379A000000000000000000000000000000000000000000000000000000000 DUP2 MSTORE PUSH1 0x4 ADD PUSH2 0x279 SWAP1 PUSH2 0x1008 JUMP JUMPDEST PUSH1 0x40 MLOAD DUP1 SWAP2 SUB SWAP1 REVERT JUMPDEST PUSH2 0x28B DUP4 PUSH2 0xC1C JUMP JUMPDEST ISZERO PUSH2 0x2CB JUMPI PUSH1 0x40 MLOAD PUSH32 0x8C379A000000000000000000000000000000000000000000000000000000000 DUP2 MSTORE PUSH1 0x4 ADD PUSH2 0x2C2 SWAP1 PUSH2 0x1070 JUMP JUMPDEST PUSH1 0x40 MLOAD DUP1 SWAP2 SUB SWAP1 REVERT JUMPDEST PUSH0 PUSH20 0xFFFFFFFFFFFFFFFFFFFFFFFFFFFFFFFFFFFFFFFF AND DUP3 PUSH20 0xFFFFFFFFFFFFFFFFFFFFFFFFFFFFFFFFFFFFFFFF AND EQ ISZERO DUP1 ISZERO PUSH2 0x333 JUMPI POP CALLER PUSH20 0xFFFFFFFFFFFFFFFFFFFFFFFFFFFFFFFFFFFFFFFF AND DUP3 PUSH20 0xFFFFFFFFFFFFFFFFFFFFFFFFFFFFFFFFFFFFFFFF AND EQ ISZERO JUMPDEST ISZERO PUSH2 0x418 JUMPI PUSH1 0x40 MLOAD PUSH1 0x20 ADD PUSH2 0x347 SWAP1 PUSH2 0x10E2 JUMP JUMPDEST PUSH1 0x40 MLOAD PUSH1 0x20 DUP2 DUP4 SUB SUB DUP2 MSTORE SWAP1 PUSH1 0x40 MSTORE DUP1 MLOAD SWAP1 PUSH1 0x20 ADD KECCAK256 DUP3 PUSH20 0xFFFFFFFFFFFFFFFFFFFFFFFFFFFFFFFFFFFFFFFF AND PUSH4 0x249CB3FA DUP6 DUP5 PUSH1 0x40 MLOAD DUP4 PUSH4 0xFFFFFFFF AND PUSH1 0xE0 SHL DUP2 MSTORE PUSH1 0x4 ADD PUSH2 0x398 SWAP3 SWAP2 SWAP1 PUSH2 0x10F6 JUMP JUMPDEST PUSH1 0x20 PUSH1 0x40 MLOAD DUP1 DUP4 SUB DUP2 DUP7 GAS STATICCALL ISZERO DUP1 ISZERO PUSH2 0x3B3 JUMPI RETURNDATASIZE PUSH0 DUP1 RETURNDATACOPY RETURNDATASIZE PUSH0 REVERT JUMPDEST POP POP POP POP PUSH1 0x40 MLOAD RETURNDATASIZE PUSH1 0x1F NOT PUSH1 0x1F DUP3 ADD AND DUP3 ADD DUP1 PUSH1 0x40 MSTORE POP DUP2 ADD SWAP1 PUSH2 0x3D7 SWAP2 SWAP1 PUSH2 0x1131 JUMP JUMPDEST EQ PUSH2 0x417 JUMPI PUSH1 0x40 MLOAD PUSH32 0x8C379A000000000000000000000000000000000000000000000000000000000 DUP2 MSTORE PUSH1 0x4 ADD PUSH2 0x40E SWAP1 PUSH2 0x11A6 JUMP JUMPDEST PUSH1 0x40 MLOAD DUP1 SWAP2 SUB SWAP1 REVERT JUMPDEST JUMPDEST DUP2 PUSH0 DUP1 DUP4 PUSH20 0xFFFFFFFFFFFFFFFFFFFFFFFFFFFFFFFFFFFFFFFF AND PUSH20 0xFFFFFFFFFFFFFFFFFFFFFFFFFFFFFFFFFFFFFFFF AND DUP2 MSTORE PUSH1 0x20 ADD SWAP1 DUP2 MSTORE PUSH1 0x20 ADD PUSH0 KECCAK256 PUSH0 DUP6 DUP2 MSTORE PUSH1 0x20 ADD SWAP1 DUP2 MSTORE PUSH1 0x20 ADD PUSH0 KECCAK256 PUSH0 PUSH2 0x100 EXP DUP2 SLOAD DUP2 PUSH20 0xFFFFFFFFFFFFFFFFFFFFFFFFFFFFFFFFFFFFFFFF MUL NOT AND SWAP1 DUP4 PUSH20 0xFFFFFFFFFFFFFFFFFFFFFFFFFFFFFFFFFFFFFFFF AND MUL OR SWAP1 SSTORE POP DUP2 PUSH20 0xFFFFFFFFFFFFFFFFFFFFFFFFFFFFFFFFFFFFFFFF AND DUP4 DUP3 PUSH20 0xFFFFFFFFFFFFFFFFFFFFFFFFFFFFFFFFFFFFFFFF AND PUSH32 0x93BAA6EFBD2244243BFEE6CE4CFDD1D04FC4C0E9A786ABD3A41313BD352DB153 PUSH1 0x40 MLOAD PUSH1 0x40 MLOAD DUP1 SWAP2 SUB SWAP1 LOG4 POP POP POP POP JUMP JUMPDEST PUSH0 DUP1 PUSH20 0xFFFFFFFFFFFFFFFFFFFFFFFFFFFFFFFFFFFFFFFF AND PUSH1 0x1 PUSH0 DUP5 PUSH20 0xFFFFFFFFFFFFFFFFFFFFFFFFFFFFFFFFFFFFFFFF AND PUSH20 0xFFFFFFFFFFFFFFFFFFFFFFFFFFFFFFFFFFFFFFFF AND DUP2 MSTORE PUSH1 0x20 ADD SWAP1 DUP2 MSTORE PUSH1 0x20 ADD PUSH0 KECCAK256 PUSH0 SWAP1 SLOAD SWAP1 PUSH2 0x100 EXP SWAP1 DIV PUSH20 0xFFFFFFFFFFFFFFFFFFFFFFFFFFFFFFFFFFFFFFFF AND PUSH20 0xFFFFFFFFFFFFFFFFFFFFFFFFFFFFFFFFFFFFFFFF AND SUB PUSH2 0x59A JUMPI DUP2 SWAP1 POP PUSH2 0x5FA JUMP JUMPDEST PUSH1 0x1 PUSH0 DUP4 PUSH20 0xFFFFFFFFFFFFFFFFFFFFFFFFFFFFFFFFFFFFFFFF AND PUSH20 0xFFFFFFFFFFFFFFFFFFFFFFFFFFFFFFFFFFFFFFFF AND DUP2 MSTORE PUSH1 0x20 ADD SWAP1 DUP2 MSTORE PUSH1 0x20 ADD PUSH0 KECCAK256 PUSH0 SWAP1 SLOAD SWAP1 PUSH2 0x100 EXP SWAP1 DIV PUSH20 0xFFFFFFFFFFFFFFFFFFFFFFFFFFFFFFFFFFFFFFFF AND SWAP1 POP JUMPDEST SWAP2 SWAP1 POP JUMP JUMPDEST CALLER PUSH20 0xFFFFFFFFFFFFFFFFFFFFFFFFFFFFFFFFFFFFFFFF AND PUSH2 0x61F DUP4 PUSH2 0x502 JUMP JUMPDEST PUSH20 0xFFFFFFFFFFFFFFFFFFFFFFFFFFFFFFFFFFFFFFFF AND EQ PUSH2 0x675 JUMPI PUSH1 0x40 MLOAD PUSH32 0x8C379A000000000000000000000000000000000000000000000000000000000 DUP2 MSTORE PUSH1 0x4 ADD PUSH2 0x66C SWAP1 PUSH2 0x1008 JUMP JUMPDEST PUSH1 0x40 MLOAD DUP1 SWAP2 SUB SWAP1 REVERT JUMPDEST DUP2 PUSH20 0xFFFFFFFFFFFFFFFFFFFFFFFFFFFFFFFFFFFFFFFF AND DUP2 PUSH20 0xFFFFFFFFFFFFFFFFFFFFFFFFFFFFFFFFFFFFFFFF AND EQ PUSH2 0x6AE JUMPI DUP1 PUSH2 0x6B0 JUMP JUMPDEST PUSH0 JUMPDEST PUSH1 0x1 PUSH0 DUP5 PUSH20 0xFFFFFFFFFFFFFFFFFFFFFFFFFFFFFFFFFFFFFFFF AND PUSH20 0xFFFFFFFFFFFFFFFFFFFFFFFFFFFFFFFFFFFFFFFF AND DUP2 MSTORE PUSH1 0x20 ADD SWAP1 DUP2 MSTORE PUSH1 0x20 ADD PUSH0 KECCAK256 PUSH0 PUSH2 0x100 EXP DUP2 SLOAD DUP2 PUSH20 0xFFFFFFFFFFFFFFFFFFFFFFFFFFFFFFFFFFFFFFFF MUL NOT AND SWAP1 DUP4 PUSH20 0xFFFFFFFFFFFFFFFFFFFFFFFFFFFFFFFFFFFFFFFF AND MUL OR SWAP1 SSTORE POP DUP1 PUSH20 0xFFFFFFFFFFFFFFFFFFFFFFFFFFFFFFFFFFFFFFFF AND DUP3 PUSH20 0xFFFFFFFFFFFFFFFFFFFFFFFFFFFFFFFFFFFFFFFF AND PUSH32 0x605C2DBF762E5F7D60A546D42E7205DCB1B011EBC62A61736A57C9089D3A4350 PUSH1 0x40 MLOAD PUSH1 0x40 MLOAD DUP1 SWAP2 SUB SWAP1 LOG3 POP POP JUMP JUMPDEST PUSH0 DUP3 DUP3 PUSH1 0x40 MLOAD PUSH1 0x20 ADD PUSH2 0x79C SWAP3 SWAP2 SWAP1 PUSH2 0x11F6 JUMP JUMPDEST PUSH1 0x40 MLOAD PUSH1 0x20 DUP2 DUP4 SUB SUB DUP2 MSTORE SWAP1 PUSH1 0x40 MSTORE DUP1 MLOAD SWAP1 PUSH1 0x20 ADD KECCAK256 SWAP1 POP SWAP3 SWAP2 POP POP JUMP JUMPDEST PUSH2 0x7C4 DUP3 DUP3 PUSH2 0xA02 JUMP JUMPDEST PUSH2 0x7CE JUMPI PUSH0 PUSH2 0x7D0 JUMP JUMPDEST DUP2 JUMPDEST PUSH0 DUP1 DUP5 PUSH20 0xFFFFFFFFFFFFFFFFFFFFFFFFFFFFFFFFFFFFFFFF AND PUSH20 0xFFFFFFFFFFFFFFFFFFFFFFFFFFFFFFFFFFFFFFFF AND DUP2 MSTORE PUSH1 0x20 ADD SWAP1 DUP2 MSTORE PUSH1 0x20 ADD PUSH0 KECCAK256 PUSH0 DUP4 PUSH28 0xFFFFFFFFFFFFFFFFFFFFFFFFFFFFFFFFFFFFFFFFFFFFFFFFFFFFFFFF NOT AND DUP2 MSTORE PUSH1 0x20 ADD SWAP1 DUP2 MSTORE PUSH1 0x20 ADD PUSH0 KECCAK256 PUSH0 PUSH2 0x100 EXP DUP2 SLOAD DUP2 PUSH20 0xFFFFFFFFFFFFFFFFFFFFFFFFFFFFFFFFFFFFFFFF MUL NOT AND SWAP1 DUP4 PUSH20 0xFFFFFFFFFFFFFFFFFFFFFFFFFFFFFFFFFFFFFFFF AND MUL OR SWAP1 SSTORE POP PUSH1 0x1 PUSH1 0x2 PUSH0 DUP5 PUSH20 0xFFFFFFFFFFFFFFFFFFFFFFFFFFFFFFFFFFFFFFFF AND PUSH20 0xFFFFFFFFFFFFFFFFFFFFFFFFFFFFFFFFFFFFFFFF AND DUP2 MSTORE PUSH1 0x20 ADD SWAP1 DUP2 MSTORE PUSH1 0x20 ADD PUSH0 KECCAK256 PUSH0 DUP4 PUSH28 0xFFFFFFFFFFFFFFFFFFFFFFFFFFFFFFFFFFFFFFFFFFFFFFFFFFFFFFFF NOT AND PUSH28 0xFFFFFFFFFFFFFFFFFFFFFFFFFFFFFFFFFFFFFFFFFFFFFFFFFFFFFFFF NOT AND DUP2 MSTORE PUSH1 0x20 ADD SWAP1 DUP2 MSTORE PUSH1 0x20 ADD PUSH0 KECCAK256 PUSH0 PUSH2 0x100 EXP DUP2 SLOAD DUP2 PUSH1 0xFF MUL NOT AND SWAP1 DUP4 ISZERO ISZERO MUL OR SWAP1 SSTORE POP POP POP JUMP JUMPDEST PUSH0 DUP1 PUSH0 PUSH20 0xFFFFFFFFFFFFFFFFFFFFFFFFFFFFFFFFFFFFFFFF AND DUP5 PUSH20 0xFFFFFFFFFFFFFFFFFFFFFFFFFFFFFFFFFFFFFFFF AND EQ PUSH2 0x958 JUMPI DUP4 PUSH2 0x95A JUMP JUMPDEST CALLER JUMPDEST SWAP1 POP PUSH2 0x965 DUP4 PUSH2 0xC1C JUMP JUMPDEST ISZERO PUSH2 0x98D JUMPI PUSH0 DUP4 SWAP1 POP PUSH2 0x978 DUP3 DUP3 PUSH2 0xAAE JUMP JUMPDEST PUSH2 0x982 JUMPI PUSH0 PUSH2 0x984 JUMP JUMPDEST DUP2 JUMPDEST SWAP3 POP POP POP PUSH2 0x9FC JUMP JUMPDEST PUSH0 DUP1 DUP3 PUSH20 0xFFFFFFFFFFFFFFFFFFFFFFFFFFFFFFFFFFFFFFFF AND PUSH20 0xFFFFFFFFFFFFFFFFFFFFFFFFFFFFFFFFFFFFFFFF AND DUP2 MSTORE PUSH1 0x20 ADD SWAP1 DUP2 MSTORE PUSH1 0x20 ADD PUSH0 KECCAK256 PUSH0 DUP5 DUP2 MSTORE PUSH1 0x20 ADD SWAP1 DUP2 MSTORE PUSH1 0x20 ADD PUSH0 KECCAK256 PUSH0 SWAP1 SLOAD SWAP1 PUSH2 0x100 EXP SWAP1 DIV PUSH20 0xFFFFFFFFFFFFFFFFFFFFFFFFFFFFFFFFFFFFFFFF AND SWAP2 POP POP JUMPDEST SWAP3 SWAP2 POP POP JUMP JUMPDEST PUSH0 DUP1 PUSH0 PUSH2 0xA16 DUP6 PUSH4 0x1FFC9A7 PUSH1 0xE0 SHL PUSH2 0xC2D JUMP JUMPDEST DUP1 SWAP3 POP DUP2 SWAP4 POP POP POP PUSH0 DUP3 EQ DUP1 PUSH2 0xA2B JUMPI POP PUSH0 DUP2 EQ JUMPDEST ISZERO PUSH2 0xA3A JUMPI PUSH0 SWAP3 POP POP POP PUSH2 0xAA8 JUMP JUMPDEST PUSH2 0xA4B DUP6 PUSH4 0xFFFFFFFF PUSH1 0xE0 SHL PUSH2 0xC2D JUMP JUMPDEST DUP1 SWAP3 POP DUP2 SWAP4 POP POP POP PUSH0 DUP3 EQ DUP1 PUSH2 0xA61 JUMPI POP PUSH0 DUP2 EQ ISZERO JUMPDEST ISZERO PUSH2 0xA70 JUMPI PUSH0 SWAP3 POP POP POP PUSH2 0xAA8 JUMP JUMPDEST PUSH2 0xA7A DUP6 DUP6 PUSH2 0xC2D JUMP JUMPDEST DUP1 SWAP3 POP DUP2 SWAP4 POP POP POP PUSH1 0x1 DUP3 EQ DUP1 ISZERO PUSH2 0xA92 JUMPI POP PUSH1 0x1 DUP2 EQ JUMPDEST ISZERO PUSH2 0xAA2 JUMPI PUSH1 0x1 SWAP3 POP POP POP PUSH2 0xAA8 JUMP JUMPDEST PUSH0 SWAP3 POP POP POP JUMPDEST SWAP3 SWAP2 POP POP JUMP JUMPDEST PUSH0 PUSH1 0x2 PUSH0 DUP5 PUSH20 0xFFFFFFFFFFFFFFFFFFFFFFFFFFFFFFFFFFFFFFFF AND PUSH20 0xFFFFFFFFFFFFFFFFFFFFFFFFFFFFFFFFFFFFFFFF AND DUP2 MSTORE PUSH1 0x20 ADD SWAP1 DUP2 MSTORE PUSH1 0x20 ADD PUSH0 KECCAK256 PUSH0 DUP4 PUSH28 0xFFFFFFFFFFFFFFFFFFFFFFFFFFFFFFFFFFFFFFFFFFFFFFFFFFFFFFFF NOT AND PUSH28 0xFFFFFFFFFFFFFFFFFFFFFFFFFFFFFFFFFFFFFFFFFFFFFFFFFFFFFFFF NOT AND DUP2 MSTORE PUSH1 0x20 ADD SWAP1 DUP2 MSTORE PUSH1 0x20 ADD PUSH0 KECCAK256 PUSH0 SWAP1 SLOAD SWAP1 PUSH2 0x100 EXP SWAP1 DIV PUSH1 0xFF AND PUSH2 0xB5B JUMPI PUSH2 0xB54 DUP4 DUP4 PUSH2 0xA02 JUMP JUMPDEST SWAP1 POP PUSH2 0xC16 JUMP JUMPDEST DUP3 PUSH20 0xFFFFFFFFFFFFFFFFFFFFFFFFFFFFFFFFFFFFFFFF AND PUSH0 DUP1 DUP6 PUSH20 0xFFFFFFFFFFFFFFFFFFFFFFFFFFFFFFFFFFFFFFFF AND PUSH20 0xFFFFFFFFFFFFFFFFFFFFFFFFFFFFFFFFFFFFFFFF AND DUP2 MSTORE PUSH1 0x20 ADD SWAP1 DUP2 MSTORE PUSH1 0x20 ADD PUSH0 KECCAK256 PUSH0 DUP5 PUSH28 0xFFFFFFFFFFFFFFFFFFFFFFFFFFFFFFFFFFFFFFFFFFFFFFFFFFFFFFFF NOT AND DUP2 MSTORE PUSH1 0x20 ADD SWAP1 DUP2 MSTORE PUSH1 0x20 ADD PUSH0 KECCAK256 PUSH0 SWAP1 SLOAD SWAP1 PUSH2 0x100 EXP SWAP1 DIV PUSH20 0xFFFFFFFFFFFFFFFFFFFFFFFFFFFFFFFFFFFFFFFF AND PUSH20 0xFFFFFFFFFFFFFFFFFFFFFFFFFFFFFFFFFFFFFFFF AND EQ SWAP1 POP JUMPDEST SWAP3 SWAP2 POP POP JUMP JUMPDEST PUSH0 DUP1 PUSH0 SHL PUSH1 0x20 DUP4 SWAP1 SHR EQ SWAP1 POP SWAP2 SWAP1 POP JUMP JUMPDEST PUSH0 DUP1 PUSH0 PUSH4 0x1FFC9A7 PUSH1 0xE0 SHL SWAP1 POP PUSH1 0x40 MLOAD DUP2 DUP2 MSTORE DUP5 PUSH1 0x4 DUP3 ADD MSTORE PUSH1 0x20 DUP2 PUSH1 0x24 DUP4 DUP10 PUSH2 0x7530 STATICCALL SWAP4 POP DUP1 MLOAD SWAP3 POP POP POP SWAP3 POP SWAP3 SWAP1 POP JUMP JUMPDEST PUSH0 DUP1 REVERT JUMPDEST PUSH0 DUP1 REVERT JUMPDEST PUSH0 PUSH20 0xFFFFFFFFFFFFFFFFFFFFFFFFFFFFFFFFFFFFFFFF DUP3 AND SWAP1 POP SWAP2 SWAP1 POP JUMP JUMPDEST PUSH0 PUSH2 0xC91 DUP3 PUSH2 0xC68 JUMP JUMPDEST SWAP1 POP SWAP2 SWAP1 POP JUMP JUMPDEST PUSH2 0xCA1 DUP2 PUSH2 0xC87 JUMP JUMPDEST DUP2 EQ PUSH2 0xCAB JUMPI PUSH0 DUP1 REVERT JUMPDEST POP JUMP JUMPDEST PUSH0 DUP2 CALLDATALOAD SWAP1 POP PUSH2 0xCBC DUP2 PUSH2 0xC98 JUMP JUMPDEST SWAP3 SWAP2 POP POP JUMP JUMPDEST PUSH0 DUP2 SWAP1 POP SWAP2 SWAP1 POP JUMP JUMPDEST PUSH2 0xCD4 DUP2 PUSH2 0xCC2 JUMP JUMPDEST DUP2 EQ PUSH2 0xCDE JUMPI PUSH0 DUP1 REVERT JUMPDEST POP JUMP JUMPDEST PUSH0 DUP2 CALLDATALOAD SWAP1 POP PUSH2 0xCEF DUP2 PUSH2 0xCCB JUMP JUMPDEST SWAP3 SWAP2 POP POP JUMP JUMPDEST PUSH0 DUP1 PUSH0 PUSH1 0x60 DUP5 DUP7 SUB SLT ISZERO PUSH2 0xD0C JUMPI PUSH2 0xD0B PUSH2 0xC60 JUMP JUMPDEST JUMPDEST PUSH0 PUSH2 0xD19 DUP7 DUP3 DUP8 ADD PUSH2 0xCAE JUMP JUMPDEST SWAP4 POP POP PUSH1 0x20 PUSH2 0xD2A DUP7 DUP3 DUP8 ADD PUSH2 0xCE1 JUMP JUMPDEST SWAP3 POP POP PUSH1 0x40 PUSH2 0xD3B DUP7 DUP3 DUP8 ADD PUSH2 0xCAE JUMP JUMPDEST SWAP2 POP POP SWAP3 POP SWAP3 POP SWAP3 JUMP JUMPDEST PUSH0 PUSH1 0x20 DUP3 DUP5 SUB SLT ISZERO PUSH2 0xD5A JUMPI PUSH2 0xD59 PUSH2 0xC60 JUMP JUMPDEST JUMPDEST PUSH0 PUSH2 0xD67 DUP5 DUP3 DUP6 ADD PUSH2 0xCAE JUMP JUMPDEST SWAP2 POP POP SWAP3 SWAP2 POP POP JUMP JUMPDEST PUSH2 0xD79 DUP2 PUSH2 0xC87 JUMP JUMPDEST DUP3 MSTORE POP POP JUMP JUMPDEST PUSH0 PUSH1 0x20 DUP3 ADD SWAP1 POP PUSH2 0xD92 PUSH0 DUP4 ADD DUP5 PUSH2 0xD70 JUMP JUMPDEST SWAP3 SWAP2 POP POP JUMP JUMPDEST PUSH0 DUP1 PUSH1 0x40 DUP4 DUP6 SUB SLT ISZERO PUSH2 0xDAE JUMPI PUSH2 0xDAD PUSH2 0xC60 JUMP JUMPDEST JUMPDEST PUSH0 PUSH2 0xDBB DUP6 DUP3 DUP7 ADD PUSH2 0xCAE JUMP JUMPDEST SWAP3 POP POP PUSH1 0x20 PUSH2 0xDCC DUP6 DUP3 DUP7 ADD PUSH2 0xCAE JUMP JUMPDEST SWAP2 POP POP SWAP3 POP SWAP3 SWAP1 POP JUMP JUMPDEST PUSH0 DUP1 REVERT JUMPDEST PUSH0 DUP1 REVERT JUMPDEST PUSH0 DUP1 REVERT JUMPDEST PUSH0 DUP1 DUP4 PUSH1 0x1F DUP5 ADD SLT PUSH2 0xDF7 JUMPI PUSH2 0xDF6 PUSH2 0xDD6 JUMP JUMPDEST JUMPDEST DUP3 CALLDATALOAD SWAP1 POP PUSH8 0xFFFFFFFFFFFFFFFF DUP2 GT ISZERO PUSH2 0xE14 JUMPI PUSH2 0xE13 PUSH2 0xDDA JUMP JUMPDEST JUMPDEST PUSH1 0x20 DUP4 ADD SWAP2 POP DUP4 PUSH1 0x1 DUP3 MUL DUP4 ADD GT ISZERO PUSH2 0xE30 JUMPI PUSH2 0xE2F PUSH2 0xDDE JUMP JUMPDEST JUMPDEST SWAP3 POP SWAP3 SWAP1 POP JUMP JUMPDEST PUSH0 DUP1 PUSH1 0x20 DUP4 DUP6 SUB SLT ISZERO PUSH2 0xE4D JUMPI PUSH2 0xE4C PUSH2 0xC60 JUMP JUMPDEST JUMPDEST PUSH0 DUP4 ADD CALLDATALOAD PUSH8 0xFFFFFFFFFFFFFFFF DUP2 GT ISZERO PUSH2 0xE6A JUMPI PUSH2 0xE69 PUSH2 0xC64 JUMP JUMPDEST JUMPDEST PUSH2 0xE76 DUP6 DUP3 DUP7 ADD PUSH2 0xDE2 JUMP JUMPDEST SWAP3 POP SWAP3 POP POP SWAP3 POP SWAP3 SWAP1 POP JUMP JUMPDEST PUSH2 0xE8B DUP2 PUSH2 0xCC2 JUMP JUMPDEST DUP3 MSTORE POP POP JUMP JUMPDEST PUSH0 PUSH1 0x20 DUP3 ADD SWAP1 POP PUSH2 0xEA4 PUSH0 DUP4 ADD DUP5 PUSH2 0xE82 JUMP JUMPDEST SWAP3 SWAP2 POP POP JUMP JUMPDEST PUSH0 PUSH32 0xFFFFFFFF00000000000000000000000000000000000000000000000000000000 DUP3 AND SWAP1 POP SWAP2 SWAP1 POP JUMP JUMPDEST PUSH2 0xEDE DUP2 PUSH2 0xEAA JUMP JUMPDEST DUP2 EQ PUSH2 0xEE8 JUMPI PUSH0 DUP1 REVERT JUMPDEST POP JUMP JUMPDEST PUSH0 DUP2 CALLDATALOAD SWAP1 POP PUSH2 0xEF9 DUP2 PUSH2 0xED5 JUMP JUMPDEST SWAP3 SWAP2 POP POP JUMP JUMPDEST PUSH0 DUP1 PUSH1 0x40 DUP4 DUP6 SUB SLT ISZERO PUSH2 0xF15 JUMPI PUSH2 0xF14 PUSH2 0xC60 JUMP JUMPDEST JUMPDEST PUSH0 PUSH2 0xF22 DUP6 DUP3 DUP7 ADD PUSH2 0xCAE JUMP JUMPDEST SWAP3 POP POP PUSH1 0x20 PUSH2 0xF33 DUP6 DUP3 DUP7 ADD PUSH2 0xEEB JUMP JUMPDEST SWAP2 POP POP SWAP3 POP SWAP3 SWAP1 POP JUMP JUMPDEST PUSH0 DUP1 PUSH1 0x40 DUP4 DUP6 SUB SLT ISZERO PUSH2 0xF53 JUMPI PUSH2 0xF52 PUSH2 0xC60 JUMP JUMPDEST JUMPDEST PUSH0 PUSH2 0xF60 DUP6 DUP3 DUP7 ADD PUSH2 0xCAE JUMP JUMPDEST SWAP3 POP POP PUSH1 0x20 PUSH2 0xF71 DUP6 DUP3 DUP7 ADD PUSH2 0xCE1 JUMP JUMPDEST SWAP2 POP POP SWAP3 POP SWAP3 SWAP1 POP JUMP JUMPDEST PUSH0 DUP2 ISZERO ISZERO SWAP1 POP SWAP2 SWAP1 POP JUMP JUMPDEST PUSH2 0xF8F DUP2 PUSH2 0xF7B JUMP JUMPDEST DUP3 MSTORE POP POP JUMP JUMPDEST PUSH0 PUSH1 0x20 DUP3 ADD SWAP1 POP PUSH2 0xFA8 PUSH0 DUP4 ADD DUP5 PUSH2 0xF86 JUMP JUMPDEST SWAP3 SWAP2 POP POP JUMP JUMPDEST PUSH0 DUP3 DUP3 MSTORE PUSH1 0x20 DUP3 ADD SWAP1 POP SWAP3 SWAP2 POP POP JUMP JUMPDEST PUSH32 0x4E6F7420746865206D616E616765720000000000000000000000000000000000 PUSH0 DUP3 ADD MSTORE POP JUMP JUMPDEST PUSH0 PUSH2 0xFF2 PUSH1 0xF DUP4 PUSH2 0xFAE JUMP JUMPDEST SWAP2 POP PUSH2 0xFFD DUP3 PUSH2 0xFBE JUMP JUMPDEST PUSH1 0x20 DUP3 ADD SWAP1 POP SWAP2 SWAP1 POP JUMP JUMPDEST PUSH0 PUSH1 0x20 DUP3 ADD SWAP1 POP DUP2 DUP2 SUB PUSH0 DUP4 ADD MSTORE PUSH2 0x101F DUP2 PUSH2 0xFE6 JUMP JUMPDEST SWAP1 POP SWAP2 SWAP1 POP JUMP JUMPDEST PUSH32 0x4D757374206E6F7420626520616E204552433136352068617368000000000000 PUSH0 DUP3 ADD MSTORE POP JUMP JUMPDEST PUSH0 PUSH2 0x105A PUSH1 0x1A DUP4 PUSH2 0xFAE JUMP JUMPDEST SWAP2 POP PUSH2 0x1065 DUP3 PUSH2 0x1026 JUMP JUMPDEST PUSH1 0x20 DUP3 ADD SWAP1 POP SWAP2 SWAP1 POP JUMP JUMPDEST PUSH0 PUSH1 0x20 DUP3 ADD SWAP1 POP DUP2 DUP2 SUB PUSH0 DUP4 ADD MSTORE PUSH2 0x1087 DUP2 PUSH2 0x104E JUMP JUMPDEST SWAP1 POP SWAP2 SWAP1 POP JUMP JUMPDEST PUSH0 DUP2 SWAP1 POP SWAP3 SWAP2 POP POP JUMP JUMPDEST PUSH32 0x455243313832305F4143434550545F4D41474943000000000000000000000000 PUSH0 DUP3 ADD MSTORE POP JUMP JUMPDEST PUSH0 PUSH2 0x10CC PUSH1 0x14 DUP4 PUSH2 0x108E JUMP JUMPDEST SWAP2 POP PUSH2 0x10D7 DUP3 PUSH2 0x1098 JUMP JUMPDEST PUSH1 0x14 DUP3 ADD SWAP1 POP SWAP2 SWAP1 POP JUMP JUMPDEST PUSH0 PUSH2 0x10EC DUP3 PUSH2 0x10C0 JUMP JUMPDEST SWAP2 POP DUP2 SWAP1 POP SWAP2 SWAP1 POP JUMP JUMPDEST PUSH0 PUSH1 0x40 DUP3 ADD SWAP1 POP PUSH2 0x1109 PUSH0 DUP4 ADD DUP6 PUSH2 0xE82 JUMP JUMPDEST PUSH2 0x1116 PUSH1 0x20 DUP4 ADD DUP5 PUSH2 0xD70 JUMP JUMPDEST SWAP4 SWAP3 POP POP POP JUMP JUMPDEST PUSH0 DUP2 MLOAD SWAP1 POP PUSH2 0x112B DUP2 PUSH2 0xCCB JUMP JUMPDEST SWAP3 SWAP2 POP POP JUMP JUMPDEST PUSH0 PUSH1 0x20 DUP3 DUP5 SUB SLT ISZERO PUSH2 0x1146 JUMPI PUSH2 0x1145 PUSH2 0xC60 JUMP JUMPDEST JUMPDEST PUSH0 PUSH2 0x1153 DUP5 DUP3 DUP6 ADD PUSH2 0x111D JUMP JUMPDEST SWAP2 POP POP SWAP3 SWAP2 POP POP JUMP JUMPDEST PUSH32 0x446F6573206E6F7420696D706C656D656E742074686520696E74657266616365 PUSH0 DUP3 ADD MSTORE POP JUMP JUMPDEST PUSH0 PUSH2 0x1190 PUSH1 0x20 DUP4 PUSH2 0xFAE JUMP JUMPDEST SWAP2 POP PUSH2 0x119B DUP3 PUSH2 0x115C JUMP JUMPDEST PUSH1 0x20 DUP3 ADD SWAP1 POP SWAP2 SWAP1 POP JUMP JUMPDEST PUSH0 PUSH1 0x20 DUP3 ADD SWAP1 POP DUP2 DUP2 SUB PUSH0 DUP4 ADD MSTORE PUSH2 0x11BD DUP2 PUSH2 0x1184 JUMP JUMPDEST SWAP1 POP SWAP2 SWAP1 POP JUMP JUMPDEST DUP3 DUP2 DUP4 CALLDATACOPY PUSH0 DUP4 DUP4 ADD MSTORE POP POP POP JUMP JUMPDEST PUSH0 PUSH2 0x11DD DUP4 DUP6 PUSH2 0x108E JUMP JUMPDEST SWAP4 POP PUSH2 0x11EA DUP4 DUP6 DUP5 PUSH2 0x11C4 JUMP JUMPDEST DUP3 DUP5 ADD SWAP1 POP SWAP4 SWAP3 POP POP POP JUMP JUMPDEST PUSH0 PUSH2 0x1202 DUP3 DUP5 DUP7 PUSH2 0x11D2 JUMP JUMPDEST SWAP2 POP DUP2 SWAP1 POP SWAP4 SWAP3 POP POP POP JUMP INVALID LOG2 PUSH5 0x6970667358 0x22 SLT KECCAK256 0xB1 0x4E MOD SELFBALANCE 0xA5 PUSH29 0xE4B385255137392AAB0A652039A979D377C4C3AF18D35CE4762664736F PUSH13 0x634300081A0033000000000000 "
				},
				"gasEstimates": {
					"creation": {
						"codeDepositCost": "935200",
						"executionCost": "973",
						"totalCost": "936173"
					},
					"external": {
						"getInterfaceImplementer(address,bytes32)": "infinite",
						"getManager(address)": "infinite",
						"implementsERC165Interface(address,bytes4)": "infinite",
						"implementsERC165InterfaceNoCache(address,bytes4)": "infinite",
						"interfaceHash(string)": "infinite",
						"setInterfaceImplementer(address,bytes32,address)": "infinite",
						"setManager(address,address)": "infinite",
						"updateERC165Cache(address,bytes4)": "infinite"
					},
					"internal": {
						"isERC165Interface(bytes32)": "47",
						"noThrowCall(address,bytes4)": "infinite"
					}
				},
				"methodIdentifiers": {
					"getInterfaceImplementer(address,bytes32)": "aabbb8ca",
					"getManager(address)": "3d584063",
					"implementsERC165Interface(address,bytes4)": "f712f3e8",
					"implementsERC165InterfaceNoCache(address,bytes4)": "b7056765",
					"interfaceHash(string)": "65ba36c1",
					"setInterfaceImplementer(address,bytes32,address)": "29965a1d",
					"setManager(address,address)": "5df8122f",
					"updateERC165Cache(address,bytes4)": "a41e7d51"
				}
			},
			"storageLayout": {
				"storage": [
					{
						"astId": 27,
						"contract": "contracts/03/erc777/ERC1820Registry.sol:ERC1820Registry",
						"label": "interfaces",
						"offset": 0,
						"slot": "0",
						"type": "t_mapping(t_address,t_mapping(t_bytes32,t_address))"
					},
					{
						"astId": 32,
						"contract": "contracts/03/erc777/ERC1820Registry.sol:ERC1820Registry",
						"label": "managers",
						"offset": 0,
						"slot": "1",
						"type": "t_mapping(t_address,t_address)"
					},
					{
						"astId": 39,
						"contract": "contracts/03/erc777/ERC1820Registry.sol:ERC1820Registry",
						"label": "erc165Cached",
						"offset": 0,
						"slot": "2",
						"type": "t_mapping(t_address,t_mapping(t_bytes4,t_bool))"
					}
				],
				"types": {
					"t_address": {
						"encoding": "inplace",
						"label": "address",
						"numberOfBytes": "20"
					},
					"t_bool": {
						"encoding": "inplace",
						"label": "bool",
						"numberOfBytes": "1"
					},
					"t_bytes32": {
						"encoding": "inplace",
						"label": "bytes32",
						"numberOfBytes": "32"
					},
					"t_bytes4": {
						"encoding": "inplace",
						"label": "bytes4",
						"numberOfBytes": "4"
					},
					"t_mapping(t_address,t_address)": {
						"encoding": "mapping",
						"key": "t_address",
						"label": "mapping(address => address)",
						"numberOfBytes": "32",
						"value": "t_address"
					},
					"t_mapping(t_address,t_mapping(t_bytes32,t_address))": {
						"encoding": "mapping",
						"key": "t_address",
						"label": "mapping(address => mapping(bytes32 => address))",
						"numberOfBytes": "32",
						"value": "t_mapping(t_bytes32,t_address)"
					},
					"t_mapping(t_address,t_mapping(t_bytes4,t_bool))": {
						"encoding": "mapping",
						"key": "t_address",
						"label": "mapping(address => mapping(bytes4 => bool))",
						"numberOfBytes": "32",
						"value": "t_mapping(t_bytes4,t_bool)"
					},
					"t_mapping(t_bytes32,t_address)": {
						"encoding": "mapping",
						"key": "t_bytes32",
						"label": "mapping(bytes32 => address)",
						"numberOfBytes": "32",
						"value": "t_address"
					},
					"t_mapping(t_bytes4,t_bool)": {
						"encoding": "mapping",
						"key": "t_bytes4",
						"label": "mapping(bytes4 => bool)",
						"numberOfBytes": "32",
						"value": "t_bool"
					}
				}
			},
			"userdoc": {
				"events": {
					"InterfaceImplementerSet(address,bytes32,address)": {
						"notice": "表示合约是'addr'的'interfaceHash'的'实现者'。"
					},
					"ManagerChanged(address,address)": {
						"notice": "表示'newManager'是'addr'的新管理者的地址。"
					}
				},
				"kind": "user",
				"methods": {
					"getInterfaceImplementer(address,bytes32)": {
						"notice": "查询地址是否实现了接口以及通过哪个合约实现的。"
					},
					"getManager(address)": {
						"notice": "获取地址 _addr的管理员"
					},
					"implementsERC165InterfaceNoCache(address,bytes4)": {
						"notice": "在不使用或更新缓存的情况下检查合约是否实现ERC165接口。"
					},
					"interfaceHash(string)": {
						"notice": "计算给定名称的接口的keccak256哈希值。"
					},
					"setInterfaceImplementer(address,bytes32,address)": {
						"notice": "设置某个地址的接口由哪个合约实现，需要由管理员来设置。（每个地址是他自己的管理员，直到设置了一个新的地址）。"
					},
					"setManager(address,address)": {
						"notice": "(传 '0x0' 为地址_addr 重置管理员)"
					},
					"updateERC165Cache(address,bytes4)": {
						"notice": "更新合约是否实现了ERC165接口的缓存。"
					}
				},
				"notice": "该合约是ERC1820注册表的官方实现。",
				"version": 1
			}
		}
	}
}