{
	"data": {
		"bytecode": {
			"linkReferences": {},
			"object": "6080604052348015600e575f80fd5b5061034a8061001c5f395ff3fe608060405234801561000f575f80fd5b5060043610610034575f3560e01c8063180188ca1461003857806395485af114610042575b5f80fd5b610040610072565b005b61005c6004803603810190610057919061026d565b61008d565b60405161006991906102ce565b60405180910390f35b5f5b600a81101561008a578080600101915050610074565b50565b5f805f5b8351811015610116577f20000000000000000000000000000000000000000000000000000000000000008482815181106100ce576100cd6102e7565b5b602001015160f81c60f81b7effffffffffffffffffffffffffffffffffffffffffffffffffffffffffffff1916036101095760019150610116565b8080600101915050610091565b5080915050919050565b5f604051905090565b5f80fd5b5f80fd5b5f80fd5b5f80fd5b5f601f19601f8301169050919050565b7f4e487b71000000000000000000000000000000000000000000000000000000005f52604160045260245ffd5b61017f82610139565b810181811067ffffffffffffffff8211171561019e5761019d610149565b5b80604052505050565b5f6101b0610120565b90506101bc8282610176565b919050565b5f67ffffffffffffffff8211156101db576101da610149565b5b6101e482610139565b9050602081019050919050565b828183375f83830152505050565b5f61021161020c846101c1565b6101a7565b90508281526020810184848401111561022d5761022c610135565b5b6102388482856101f1565b509392505050565b5f82601f83011261025457610253610131565b5b81356102648482602086016101ff565b91505092915050565b5f6020828403121561028257610281610129565b5b5f82013567ffffffffffffffff81111561029f5761029e61012d565b5b6102ab84828501610240565b91505092915050565b5f8115159050919050565b6102c8816102b4565b82525050565b5f6020820190506102e15f8301846102bf565b92915050565b7f4e487b71000000000000000000000000000000000000000000000000000000005f52603260045260245ffdfea2646970667358221220aa4d46df2ffa8cfe31460025b99b30dd554452aee296e9f2e3a392db6662d64064736f6c634300081a0033",
			"opcodes": "PUSH1 0x80 PUSH1 0x40 MSTORE CALLVALUE DUP1 ISZERO PUSH1 0xE JUMPI PUSH0 DUP1 REVERT JUMPDEST POP PUSH2 0x34A DUP1 PUSH2 0x1C PUSH0 CODECOPY PUSH0 RETURN INVALID PUSH1 0x80 PUSH1 0x40 MSTORE CALLVALUE DUP1 ISZERO PUSH2 0xF JUMPI PUSH0 DUP1 REVERT JUMPDEST POP PUSH1 0x4 CALLDATASIZE LT PUSH2 0x34 JUMPI PUSH0 CALLDATALOAD PUSH1 0xE0 SHR DUP1 PUSH4 0x180188CA EQ PUSH2 0x38 JUMPI DUP1 PUSH4 0x95485AF1 EQ PUSH2 0x42 JUMPI JUMPDEST PUSH0 DUP1 REVERT JUMPDEST PUSH2 0x40 PUSH2 0x72 JUMP JUMPDEST STOP JUMPDEST PUSH2 0x5C PUSH1 0x4 DUP1 CALLDATASIZE SUB DUP2 ADD SWAP1 PUSH2 0x57 SWAP2 SWAP1 PUSH2 0x26D JUMP JUMPDEST PUSH2 0x8D JUMP JUMPDEST PUSH1 0x40 MLOAD PUSH2 0x69 SWAP2 SWAP1 PUSH2 0x2CE JUMP JUMPDEST PUSH1 0x40 MLOAD DUP1 SWAP2 SUB SWAP1 RETURN JUMPDEST PUSH0 JUMPDEST PUSH1 0xA DUP2 LT ISZERO PUSH2 0x8A JUMPI DUP1 DUP1 PUSH1 0x1 ADD SWAP2 POP POP PUSH2 0x74 JUMP JUMPDEST POP JUMP JUMPDEST PUSH0 DUP1 PUSH0 JUMPDEST DUP4 MLOAD DUP2 LT ISZERO PUSH2 0x116 JUMPI PUSH32 0x2000000000000000000000000000000000000000000000000000000000000000 DUP5 DUP3 DUP2 MLOAD DUP2 LT PUSH2 0xCE JUMPI PUSH2 0xCD PUSH2 0x2E7 JUMP JUMPDEST JUMPDEST PUSH1 0x20 ADD ADD MLOAD PUSH1 0xF8 SHR PUSH1 0xF8 SHL PUSH31 0xFFFFFFFFFFFFFFFFFFFFFFFFFFFFFFFFFFFFFFFFFFFFFFFFFFFFFFFFFFFFFF NOT AND SUB PUSH2 0x109 JUMPI PUSH1 0x1 SWAP2 POP PUSH2 0x116 JUMP JUMPDEST DUP1 DUP1 PUSH1 0x1 ADD SWAP2 POP POP PUSH2 0x91 JUMP JUMPDEST POP DUP1 SWAP2 POP POP SWAP2 SWAP1 POP JUMP JUMPDEST PUSH0 PUSH1 0x40 MLOAD SWAP1 POP SWAP1 JUMP JUMPDEST PUSH0 DUP1 REVERT JUMPDEST PUSH0 DUP1 REVERT JUMPDEST PUSH0 DUP1 REVERT JUMPDEST PUSH0 DUP1 REVERT JUMPDEST PUSH0 PUSH1 0x1F NOT PUSH1 0x1F DUP4 ADD AND SWAP1 POP SWAP2 SWAP1 POP JUMP JUMPDEST PUSH32 0x4E487B7100000000000000000000000000000000000000000000000000000000 PUSH0 MSTORE PUSH1 0x41 PUSH1 0x4 MSTORE PUSH1 0x24 PUSH0 REVERT JUMPDEST PUSH2 0x17F DUP3 PUSH2 0x139 JUMP JUMPDEST DUP2 ADD DUP2 DUP2 LT PUSH8 0xFFFFFFFFFFFFFFFF DUP3 GT OR ISZERO PUSH2 0x19E JUMPI PUSH2 0x19D PUSH2 0x149 JUMP JUMPDEST JUMPDEST DUP1 PUSH1 0x40 MSTORE POP POP POP JUMP JUMPDEST PUSH0 PUSH2 0x1B0 PUSH2 0x120 JUMP JUMPDEST SWAP1 POP PUSH2 0x1BC DUP3 DUP3 PUSH2 0x176 JUMP JUMPDEST SWAP2 SWAP1 POP JUMP JUMPDEST PUSH0 PUSH8 0xFFFFFFFFFFFFFFFF DUP3 GT ISZERO PUSH2 0x1DB JUMPI PUSH2 0x1DA PUSH2 0x149 JUMP JUMPDEST JUMPDEST PUSH2 0x1E4 DUP3 PUSH2 0x139 JUMP JUMPDEST SWAP1 POP PUSH1 0x20 DUP2 ADD SWAP1 POP SWAP2 SWAP1 POP JUMP JUMPDEST DUP3 DUP2 DUP4 CALLDATACOPY PUSH0 DUP4 DUP4 ADD MSTORE POP POP POP JUMP JUMPDEST PUSH0 PUSH2 0x211 PUSH2 0x20C DUP5 PUSH2 0x1C1 JUMP JUMPDEST PUSH2 0x1A7 JUMP JUMPDEST SWAP1 POP DUP3 DUP2 MSTORE PUSH1 0x20 DUP2 ADD DUP5 DUP5 DUP5 ADD GT ISZERO PUSH2 0x22D JUMPI PUSH2 0x22C PUSH2 0x135 JUMP JUMPDEST JUMPDEST PUSH2 0x238 DUP5 DUP3 DUP6 PUSH2 0x1F1 JUMP JUMPDEST POP SWAP4 SWAP3 POP POP POP JUMP JUMPDEST PUSH0 DUP3 PUSH1 0x1F DUP4 ADD SLT PUSH2 0x254 JUMPI PUSH2 0x253 PUSH2 0x131 JUMP JUMPDEST JUMPDEST DUP2 CALLDATALOAD PUSH2 0x264 DUP5 DUP3 PUSH1 0x20 DUP7 ADD PUSH2 0x1FF JUMP JUMPDEST SWAP2 POP POP SWAP3 SWAP2 POP POP JUMP JUMPDEST PUSH0 PUSH1 0x20 DUP3 DUP5 SUB SLT ISZERO PUSH2 0x282 JUMPI PUSH2 0x281 PUSH2 0x129 JUMP JUMPDEST JUMPDEST PUSH0 DUP3 ADD CALLDATALOAD PUSH8 0xFFFFFFFFFFFFFFFF DUP2 GT ISZERO PUSH2 0x29F JUMPI PUSH2 0x29E PUSH2 0x12D JUMP JUMPDEST JUMPDEST PUSH2 0x2AB DUP5 DUP3 DUP6 ADD PUSH2 0x240 JUMP JUMPDEST SWAP2 POP POP SWAP3 SWAP2 POP POP JUMP JUMPDEST PUSH0 DUP2 ISZERO ISZERO SWAP1 POP SWAP2 SWAP1 POP JUMP JUMPDEST PUSH2 0x2C8 DUP2 PUSH2 0x2B4 JUMP JUMPDEST DUP3 MSTORE POP POP JUMP JUMPDEST PUSH0 PUSH1 0x20 DUP3 ADD SWAP1 POP PUSH2 0x2E1 PUSH0 DUP4 ADD DUP5 PUSH2 0x2BF JUMP JUMPDEST SWAP3 SWAP2 POP POP JUMP JUMPDEST PUSH32 0x4E487B7100000000000000000000000000000000000000000000000000000000 PUSH0 MSTORE PUSH1 0x32 PUSH1 0x4 MSTORE PUSH1 0x24 PUSH0 REVERT INVALID LOG2 PUSH5 0x6970667358 0x22 SLT KECCAK256 0xAA 0x4D CHAINID 0xDF 0x2F STATICCALL DUP13 INVALID BALANCE CHAINID STOP 0x25 0xB9 SWAP12 ADDRESS 0xDD SSTORE PREVRANDAO MSTORE 0xAE 0xE2 SWAP7 0xE9 CALLCODE 0xE3 LOG3 SWAP3 0xDB PUSH7 0x62D64064736F6C PUSH4 0x4300081A STOP CALLER "
		},
		"gasEstimates": {
			"creation": {
				"codeDepositCost": "168400",
				"executionCost": "212",
				"totalCost": "168612"
			},
			"external": {
				"breakOnlyOneLoop()": "infinite",
				"hasSpace(string)": "infinite"
			}
		},
		"methodIdentifiers": {
			"breakOnlyOneLoop()": "180188ca",
			"hasSpace(string)": "95485af1"
		}
	},
	"abi": [
		{
			"inputs": [],
			"name": "breakOnlyOneLoop",
			"outputs": [],
			"stateMutability": "view",
			"type": "function"
		},
		{
			"inputs": [
				{
					"internalType": "string",
					"name": "input",
					"type": "string"
				}
			],
			"name": "hasSpace",
			"outputs": [
				{
					"internalType": "bool",
					"name": "",
					"type": "bool"
				}
			],
			"stateMutability": "view",
			"type": "function"
		}
	]
}