{
	"data": {
		"bytecode": {
			"linkReferences": {},
			"object": "6080604052348015600e575f80fd5b506102ea8061001c5f395ff3fe608060405234801561000f575f80fd5b506004361061003f575f3560e01c8063206da7221461004357806380779dac1461007357806392c34fc7146100a3575b5f80fd5b61005d600480360381019061005891906101d6565b6100d3565b60405161006a9190610210565b60405180910390f35b61008d600480360381019061008891906101d6565b610118565b60405161009a9190610210565b60405180910390f35b6100bd60048036038101906100b891906101d6565b61015a565b6040516100ca9190610210565b60405180910390f35b5f805f90505f600190505b8361ffff168161ffff161161010e5780826100f99190610256565b915080806101069061028b565b9150506100de565b8192505050919050565b5f805f90505f600190505b8361ffff168161ffff161161015357808261013e9190610256565b9150808061014b9061028b565b915050610123565b5050919050565b5f805f90505f600190505b80826101719190610256565b9150808061017e9061028b565b9150508361ffff168161ffff161115610165578192505050919050565b5f80fd5b5f61ffff82169050919050565b6101b58161019f565b81146101bf575f80fd5b50565b5f813590506101d0816101ac565b92915050565b5f602082840312156101eb576101ea61019b565b5b5f6101f8848285016101c2565b91505092915050565b61020a8161019f565b82525050565b5f6020820190506102235f830184610201565b92915050565b7f4e487b71000000000000000000000000000000000000000000000000000000005f52601160045260245ffd5b5f6102608261019f565b915061026b8361019f565b9250828201905061ffff81111561028557610284610229565b5b92915050565b5f6102958261019f565b915061ffff82036102a9576102a8610229565b5b60018201905091905056fea2646970667358221220a32a47aee7a2c5154af9f0373960966788dccd0cc44d8794ab27d6adc235a7d164736f6c634300081a0033",
			"opcodes": "PUSH1 0x80 PUSH1 0x40 MSTORE CALLVALUE DUP1 ISZERO PUSH1 0xE JUMPI PUSH0 DUP1 REVERT JUMPDEST POP PUSH2 0x2EA DUP1 PUSH2 0x1C PUSH0 CODECOPY PUSH0 RETURN INVALID PUSH1 0x80 PUSH1 0x40 MSTORE CALLVALUE DUP1 ISZERO PUSH2 0xF JUMPI PUSH0 DUP1 REVERT JUMPDEST POP PUSH1 0x4 CALLDATASIZE LT PUSH2 0x3F JUMPI PUSH0 CALLDATALOAD PUSH1 0xE0 SHR DUP1 PUSH4 0x206DA722 EQ PUSH2 0x43 JUMPI DUP1 PUSH4 0x80779DAC EQ PUSH2 0x73 JUMPI DUP1 PUSH4 0x92C34FC7 EQ PUSH2 0xA3 JUMPI JUMPDEST PUSH0 DUP1 REVERT JUMPDEST PUSH2 0x5D PUSH1 0x4 DUP1 CALLDATASIZE SUB DUP2 ADD SWAP1 PUSH2 0x58 SWAP2 SWAP1 PUSH2 0x1D6 JUMP JUMPDEST PUSH2 0xD3 JUMP JUMPDEST PUSH1 0x40 MLOAD PUSH2 0x6A SWAP2 SWAP1 PUSH2 0x210 JUMP JUMPDEST PUSH1 0x40 MLOAD DUP1 SWAP2 SUB SWAP1 RETURN JUMPDEST PUSH2 0x8D PUSH1 0x4 DUP1 CALLDATASIZE SUB DUP2 ADD SWAP1 PUSH2 0x88 SWAP2 SWAP1 PUSH2 0x1D6 JUMP JUMPDEST PUSH2 0x118 JUMP JUMPDEST PUSH1 0x40 MLOAD PUSH2 0x9A SWAP2 SWAP1 PUSH2 0x210 JUMP JUMPDEST PUSH1 0x40 MLOAD DUP1 SWAP2 SUB SWAP1 RETURN JUMPDEST PUSH2 0xBD PUSH1 0x4 DUP1 CALLDATASIZE SUB DUP2 ADD SWAP1 PUSH2 0xB8 SWAP2 SWAP1 PUSH2 0x1D6 JUMP JUMPDEST PUSH2 0x15A JUMP JUMPDEST PUSH1 0x40 MLOAD PUSH2 0xCA SWAP2 SWAP1 PUSH2 0x210 JUMP JUMPDEST PUSH1 0x40 MLOAD DUP1 SWAP2 SUB SWAP1 RETURN JUMPDEST PUSH0 DUP1 PUSH0 SWAP1 POP PUSH0 PUSH1 0x1 SWAP1 POP JUMPDEST DUP4 PUSH2 0xFFFF AND DUP2 PUSH2 0xFFFF AND GT PUSH2 0x10E JUMPI DUP1 DUP3 PUSH2 0xF9 SWAP2 SWAP1 PUSH2 0x256 JUMP JUMPDEST SWAP2 POP DUP1 DUP1 PUSH2 0x106 SWAP1 PUSH2 0x28B JUMP JUMPDEST SWAP2 POP POP PUSH2 0xDE JUMP JUMPDEST DUP2 SWAP3 POP POP POP SWAP2 SWAP1 POP JUMP JUMPDEST PUSH0 DUP1 PUSH0 SWAP1 POP PUSH0 PUSH1 0x1 SWAP1 POP JUMPDEST DUP4 PUSH2 0xFFFF AND DUP2 PUSH2 0xFFFF AND GT PUSH2 0x153 JUMPI DUP1 DUP3 PUSH2 0x13E SWAP2 SWAP1 PUSH2 0x256 JUMP JUMPDEST SWAP2 POP DUP1 DUP1 PUSH2 0x14B SWAP1 PUSH2 0x28B JUMP JUMPDEST SWAP2 POP POP PUSH2 0x123 JUMP JUMPDEST POP POP SWAP2 SWAP1 POP JUMP JUMPDEST PUSH0 DUP1 PUSH0 SWAP1 POP PUSH0 PUSH1 0x1 SWAP1 POP JUMPDEST DUP1 DUP3 PUSH2 0x171 SWAP2 SWAP1 PUSH2 0x256 JUMP JUMPDEST SWAP2 POP DUP1 DUP1 PUSH2 0x17E SWAP1 PUSH2 0x28B JUMP JUMPDEST SWAP2 POP POP DUP4 PUSH2 0xFFFF AND DUP2 PUSH2 0xFFFF AND GT ISZERO PUSH2 0x165 JUMPI DUP2 SWAP3 POP POP POP SWAP2 SWAP1 POP JUMP JUMPDEST PUSH0 DUP1 REVERT JUMPDEST PUSH0 PUSH2 0xFFFF DUP3 AND SWAP1 POP SWAP2 SWAP1 POP JUMP JUMPDEST PUSH2 0x1B5 DUP2 PUSH2 0x19F JUMP JUMPDEST DUP2 EQ PUSH2 0x1BF JUMPI PUSH0 DUP1 REVERT JUMPDEST POP JUMP JUMPDEST PUSH0 DUP2 CALLDATALOAD SWAP1 POP PUSH2 0x1D0 DUP2 PUSH2 0x1AC JUMP JUMPDEST SWAP3 SWAP2 POP POP JUMP JUMPDEST PUSH0 PUSH1 0x20 DUP3 DUP5 SUB SLT ISZERO PUSH2 0x1EB JUMPI PUSH2 0x1EA PUSH2 0x19B JUMP JUMPDEST JUMPDEST PUSH0 PUSH2 0x1F8 DUP5 DUP3 DUP6 ADD PUSH2 0x1C2 JUMP JUMPDEST SWAP2 POP POP SWAP3 SWAP2 POP POP JUMP JUMPDEST PUSH2 0x20A DUP2 PUSH2 0x19F JUMP JUMPDEST DUP3 MSTORE POP POP JUMP JUMPDEST PUSH0 PUSH1 0x20 DUP3 ADD SWAP1 POP PUSH2 0x223 PUSH0 DUP4 ADD DUP5 PUSH2 0x201 JUMP JUMPDEST SWAP3 SWAP2 POP POP JUMP JUMPDEST PUSH32 0x4E487B7100000000000000000000000000000000000000000000000000000000 PUSH0 MSTORE PUSH1 0x11 PUSH1 0x4 MSTORE PUSH1 0x24 PUSH0 REVERT JUMPDEST PUSH0 PUSH2 0x260 DUP3 PUSH2 0x19F JUMP JUMPDEST SWAP2 POP PUSH2 0x26B DUP4 PUSH2 0x19F JUMP JUMPDEST SWAP3 POP DUP3 DUP3 ADD SWAP1 POP PUSH2 0xFFFF DUP2 GT ISZERO PUSH2 0x285 JUMPI PUSH2 0x284 PUSH2 0x229 JUMP JUMPDEST JUMPDEST SWAP3 SWAP2 POP POP JUMP JUMPDEST PUSH0 PUSH2 0x295 DUP3 PUSH2 0x19F JUMP JUMPDEST SWAP2 POP PUSH2 0xFFFF DUP3 SUB PUSH2 0x2A9 JUMPI PUSH2 0x2A8 PUSH2 0x229 JUMP JUMPDEST JUMPDEST PUSH1 0x1 DUP3 ADD SWAP1 POP SWAP2 SWAP1 POP JUMP INVALID LOG2 PUSH5 0x6970667358 0x22 SLT KECCAK256 LOG3 0x2A SELFBALANCE 0xAE 0xE7 LOG2 0xC5 ISZERO BLOBBASEFEE 0xF9 CREATE CALLDATACOPY CODECOPY PUSH1 0x96 PUSH8 0x88DCCD0CC44D8794 0xAB 0x27 0xD6 0xAD 0xC2 CALLDATALOAD 0xA7 0xD1 PUSH5 0x736F6C6343 STOP ADDMOD BYTE STOP CALLER "
		},
		"gasEstimates": {
			"creation": {
				"codeDepositCost": "149200",
				"executionCost": "194",
				"totalCost": "149394"
			},
			"external": {
				"sumToNDoWhile(uint16)": "infinite",
				"sumToNFor(uint16)": "infinite",
				"sumToNWhile(uint16)": "infinite"
			}
		},
		"methodIdentifiers": {
			"sumToNDoWhile(uint16)": "92c34fc7",
			"sumToNFor(uint16)": "206da722",
			"sumToNWhile(uint16)": "80779dac"
		}
	},
	"abi": [
		{
			"inputs": [
				{
					"internalType": "uint16",
					"name": "n",
					"type": "uint16"
				}
			],
			"name": "sumToNDoWhile",
			"outputs": [
				{
					"internalType": "uint16",
					"name": "",
					"type": "uint16"
				}
			],
			"stateMutability": "pure",
			"type": "function"
		},
		{
			"inputs": [
				{
					"internalType": "uint16",
					"name": "n",
					"type": "uint16"
				}
			],
			"name": "sumToNFor",
			"outputs": [
				{
					"internalType": "uint16",
					"name": "",
					"type": "uint16"
				}
			],
			"stateMutability": "pure",
			"type": "function"
		},
		{
			"inputs": [
				{
					"internalType": "uint16",
					"name": "n",
					"type": "uint16"
				}
			],
			"name": "sumToNWhile",
			"outputs": [
				{
					"internalType": "uint16",
					"name": "",
					"type": "uint16"
				}
			],
			"stateMutability": "pure",
			"type": "function"
		}
	]
}