{
	"data": {
		"bytecode": {
			"linkReferences": {},
			"object": "608060405261123460f01b5f806101000a81548161ffff021916908360f01c02179055505f8054906101000a900460f01b7dffffffffffffffffffffffffffffffffffffffffffffffffffffffffffff19165f60026101000a81548163ffffffff021916908360e01c02179055503480156077575f80fd5b50610172806100855f395ff3fe608060405234801561000f575f80fd5b5060043610610034575f3560e01c80630dbe671f146100385780634df7e3d014610056575b5f80fd5b610040610074565b60405161004d91906100d0565b60405180910390f35b61005e610084565b60405161006b9190610123565b60405180910390f35b5f8054906101000a900460f01b81565b5f60029054906101000a900460e01b81565b5f7fffff00000000000000000000000000000000000000000000000000000000000082169050919050565b6100ca81610096565b82525050565b5f6020820190506100e35f8301846100c1565b92915050565b5f7fffffffff0000000000000000000000000000000000000000000000000000000082169050919050565b61011d816100e9565b82525050565b5f6020820190506101365f830184610114565b9291505056fea2646970667358221220c5e429a0f8bfd659e866f0fb0aa74b91eb890afa182a0e923d066404530371b364736f6c634300081a0033",
			"opcodes": "PUSH1 0x80 PUSH1 0x40 MSTORE PUSH2 0x1234 PUSH1 0xF0 SHL PUSH0 DUP1 PUSH2 0x100 EXP DUP2 SLOAD DUP2 PUSH2 0xFFFF MUL NOT AND SWAP1 DUP4 PUSH1 0xF0 SHR MUL OR SWAP1 SSTORE POP PUSH0 DUP1 SLOAD SWAP1 PUSH2 0x100 EXP SWAP1 DIV PUSH1 0xF0 SHL PUSH30 0xFFFFFFFFFFFFFFFFFFFFFFFFFFFFFFFFFFFFFFFFFFFFFFFFFFFFFFFFFFFF NOT AND PUSH0 PUSH1 0x2 PUSH2 0x100 EXP DUP2 SLOAD DUP2 PUSH4 0xFFFFFFFF MUL NOT AND SWAP1 DUP4 PUSH1 0xE0 SHR MUL OR SWAP1 SSTORE POP CALLVALUE DUP1 ISZERO PUSH1 0x77 JUMPI PUSH0 DUP1 REVERT JUMPDEST POP PUSH2 0x172 DUP1 PUSH2 0x85 PUSH0 CODECOPY PUSH0 RETURN INVALID PUSH1 0x80 PUSH1 0x40 MSTORE CALLVALUE DUP1 ISZERO PUSH2 0xF JUMPI PUSH0 DUP1 REVERT JUMPDEST POP PUSH1 0x4 CALLDATASIZE LT PUSH2 0x34 JUMPI PUSH0 CALLDATALOAD PUSH1 0xE0 SHR DUP1 PUSH4 0xDBE671F EQ PUSH2 0x38 JUMPI DUP1 PUSH4 0x4DF7E3D0 EQ PUSH2 0x56 JUMPI JUMPDEST PUSH0 DUP1 REVERT JUMPDEST PUSH2 0x40 PUSH2 0x74 JUMP JUMPDEST PUSH1 0x40 MLOAD PUSH2 0x4D SWAP2 SWAP1 PUSH2 0xD0 JUMP JUMPDEST PUSH1 0x40 MLOAD DUP1 SWAP2 SUB SWAP1 RETURN JUMPDEST PUSH2 0x5E PUSH2 0x84 JUMP JUMPDEST PUSH1 0x40 MLOAD PUSH2 0x6B SWAP2 SWAP1 PUSH2 0x123 JUMP JUMPDEST PUSH1 0x40 MLOAD DUP1 SWAP2 SUB SWAP1 RETURN JUMPDEST PUSH0 DUP1 SLOAD SWAP1 PUSH2 0x100 EXP SWAP1 DIV PUSH1 0xF0 SHL DUP2 JUMP JUMPDEST PUSH0 PUSH1 0x2 SWAP1 SLOAD SWAP1 PUSH2 0x100 EXP SWAP1 DIV PUSH1 0xE0 SHL DUP2 JUMP JUMPDEST PUSH0 PUSH32 0xFFFF000000000000000000000000000000000000000000000000000000000000 DUP3 AND SWAP1 POP SWAP2 SWAP1 POP JUMP JUMPDEST PUSH2 0xCA DUP2 PUSH2 0x96 JUMP JUMPDEST DUP3 MSTORE POP POP JUMP JUMPDEST PUSH0 PUSH1 0x20 DUP3 ADD SWAP1 POP PUSH2 0xE3 PUSH0 DUP4 ADD DUP5 PUSH2 0xC1 JUMP JUMPDEST SWAP3 SWAP2 POP POP JUMP JUMPDEST PUSH0 PUSH32 0xFFFFFFFF00000000000000000000000000000000000000000000000000000000 DUP3 AND SWAP1 POP SWAP2 SWAP1 POP JUMP JUMPDEST PUSH2 0x11D DUP2 PUSH2 0xE9 JUMP JUMPDEST DUP3 MSTORE POP POP JUMP JUMPDEST PUSH0 PUSH1 0x20 DUP3 ADD SWAP1 POP PUSH2 0x136 PUSH0 DUP4 ADD DUP5 PUSH2 0x114 JUMP JUMPDEST SWAP3 SWAP2 POP POP JUMP INVALID LOG2 PUSH5 0x6970667358 0x22 SLT KECCAK256 0xC5 0xE4 0x29 LOG0 0xF8 0xBF 0xD6 MSIZE 0xE8 PUSH7 0xF0FB0AA74B91EB DUP10 EXP STATICCALL XOR 0x2A 0xE SWAP3 RETURNDATASIZE MOD PUSH5 0x4530371B3 PUSH5 0x736F6C6343 STOP ADDMOD BYTE STOP CALLER "
		},
		"gasEstimates": {
			"creation": {
				"codeDepositCost": "74000",
				"executionCost": "50850",
				"totalCost": "124850"
			},
			"external": {
				"a()": "2441",
				"b()": "2516"
			}
		},
		"methodIdentifiers": {
			"a()": "0dbe671f",
			"b()": "4df7e3d0"
		}
	},
	"abi": [
		{
			"inputs": [],
			"name": "a",
			"outputs": [
				{
					"internalType": "bytes2",
					"name": "",
					"type": "bytes2"
				}
			],
			"stateMutability": "view",
			"type": "function"
		},
		{
			"inputs": [],
			"name": "b",
			"outputs": [
				{
					"internalType": "bytes4",
					"name": "",
					"type": "bytes4"
				}
			],
			"stateMutability": "view",
			"type": "function"
		}
	]
}