{
	"data": {
		"bytecode": {
			"linkReferences": {},
			"object": "6080604052600a5f553480156012575f80fd5b50610455806100205f395ff3fe608060405234801561000f575f80fd5b5060043610610029575f3560e01c806329e99f071461002d575b5f80fd5b6100476004803603810190610042919061026d565b61005e565b604051610055929190610317565b60405180910390f35b60605f805f90506060605a85106100ac576040518060400160405280600a81526020017fe7ad89e7baa7e4b8ba410000000000000000000000000000000000000000000081525090506101e1565b605085101580156100bd5750605a85105b156100ff576040518060400160405280600a81526020017fe7ad89e7baa7e4b8ba420000000000000000000000000000000000000000000081525090506101e0565b604685101580156101105750605085105b15610152576040518060400160405280600a81526020017fe7ad89e7baa7e4b8ba430000000000000000000000000000000000000000000081525090506101df565b603c85101580156101635750604685105b156101a5576040518060400160405280600a81526020017fe7ad89e7baa7e4b8ba440000000000000000000000000000000000000000000081525090506101de565b6040518060400160405280600a81526020017fe7ad89e7baa7e4b8ba450000000000000000000000000000000000000000000081525090505b5b5b5b5f5b85811161020b5780836101f69190610372565b92508080610203906103a5565b9150506101e3565b505b5f85111561022957600a8561022291906103ec565b945061020d565b8082935093505050915091565b5f80fd5b5f819050919050565b61024c8161023a565b8114610256575f80fd5b50565b5f8135905061026781610243565b92915050565b5f6020828403121561028257610281610236565b5b5f61028f84828501610259565b91505092915050565b5f81519050919050565b5f82825260208201905092915050565b8281835e5f83830152505050565b5f601f19601f8301169050919050565b5f6102da82610298565b6102e481856102a2565b93506102f48185602086016102b2565b6102fd816102c0565b840191505092915050565b6103118161023a565b82525050565b5f6040820190508181035f83015261032f81856102d0565b905061033e6020830184610308565b9392505050565b7f4e487b71000000000000000000000000000000000000000000000000000000005f52601160045260245ffd5b5f61037c8261023a565b91506103878361023a565b925082820190508082111561039f5761039e610345565b5b92915050565b5f6103af8261023a565b91507fffffffffffffffffffffffffffffffffffffffffffffffffffffffffffffffff82036103e1576103e0610345565b5b600182019050919050565b5f6103f68261023a565b91506104018361023a565b925082820390508181111561041957610418610345565b5b9291505056fea2646970667358221220c61ce8c8c8bbd37fa4df7f2cb005dcc8592662264cc49bd2a2769621630bc18864736f6c634300081a0033",
			"opcodes": "PUSH1 0x80 PUSH1 0x40 MSTORE PUSH1 0xA PUSH0 SSTORE CALLVALUE DUP1 ISZERO PUSH1 0x12 JUMPI PUSH0 DUP1 REVERT JUMPDEST POP PUSH2 0x455 DUP1 PUSH2 0x20 PUSH0 CODECOPY PUSH0 RETURN INVALID PUSH1 0x80 PUSH1 0x40 MSTORE CALLVALUE DUP1 ISZERO PUSH2 0xF JUMPI PUSH0 DUP1 REVERT JUMPDEST POP PUSH1 0x4 CALLDATASIZE LT PUSH2 0x29 JUMPI PUSH0 CALLDATALOAD PUSH1 0xE0 SHR DUP1 PUSH4 0x29E99F07 EQ PUSH2 0x2D JUMPI JUMPDEST PUSH0 DUP1 REVERT JUMPDEST PUSH2 0x47 PUSH1 0x4 DUP1 CALLDATASIZE SUB DUP2 ADD SWAP1 PUSH2 0x42 SWAP2 SWAP1 PUSH2 0x26D JUMP JUMPDEST PUSH2 0x5E JUMP JUMPDEST PUSH1 0x40 MLOAD PUSH2 0x55 SWAP3 SWAP2 SWAP1 PUSH2 0x317 JUMP JUMPDEST PUSH1 0x40 MLOAD DUP1 SWAP2 SUB SWAP1 RETURN JUMPDEST PUSH1 0x60 PUSH0 DUP1 PUSH0 SWAP1 POP PUSH1 0x60 PUSH1 0x5A DUP6 LT PUSH2 0xAC JUMPI PUSH1 0x40 MLOAD DUP1 PUSH1 0x40 ADD PUSH1 0x40 MSTORE DUP1 PUSH1 0xA DUP2 MSTORE PUSH1 0x20 ADD PUSH32 0xE7AD89E7BAA7E4B8BA4100000000000000000000000000000000000000000000 DUP2 MSTORE POP SWAP1 POP PUSH2 0x1E1 JUMP JUMPDEST PUSH1 0x50 DUP6 LT ISZERO DUP1 ISZERO PUSH2 0xBD JUMPI POP PUSH1 0x5A DUP6 LT JUMPDEST ISZERO PUSH2 0xFF JUMPI PUSH1 0x40 MLOAD DUP1 PUSH1 0x40 ADD PUSH1 0x40 MSTORE DUP1 PUSH1 0xA DUP2 MSTORE PUSH1 0x20 ADD PUSH32 0xE7AD89E7BAA7E4B8BA4200000000000000000000000000000000000000000000 DUP2 MSTORE POP SWAP1 POP PUSH2 0x1E0 JUMP JUMPDEST PUSH1 0x46 DUP6 LT ISZERO DUP1 ISZERO PUSH2 0x110 JUMPI POP PUSH1 0x50 DUP6 LT JUMPDEST ISZERO PUSH2 0x152 JUMPI PUSH1 0x40 MLOAD DUP1 PUSH1 0x40 ADD PUSH1 0x40 MSTORE DUP1 PUSH1 0xA DUP2 MSTORE PUSH1 0x20 ADD PUSH32 0xE7AD89E7BAA7E4B8BA4300000000000000000000000000000000000000000000 DUP2 MSTORE POP SWAP1 POP PUSH2 0x1DF JUMP JUMPDEST PUSH1 0x3C DUP6 LT ISZERO DUP1 ISZERO PUSH2 0x163 JUMPI POP PUSH1 0x46 DUP6 LT JUMPDEST ISZERO PUSH2 0x1A5 JUMPI PUSH1 0x40 MLOAD DUP1 PUSH1 0x40 ADD PUSH1 0x40 MSTORE DUP1 PUSH1 0xA DUP2 MSTORE PUSH1 0x20 ADD PUSH32 0xE7AD89E7BAA7E4B8BA4400000000000000000000000000000000000000000000 DUP2 MSTORE POP SWAP1 POP PUSH2 0x1DE JUMP JUMPDEST PUSH1 0x40 MLOAD DUP1 PUSH1 0x40 ADD PUSH1 0x40 MSTORE DUP1 PUSH1 0xA DUP2 MSTORE PUSH1 0x20 ADD PUSH32 0xE7AD89E7BAA7E4B8BA4500000000000000000000000000000000000000000000 DUP2 MSTORE POP SWAP1 POP JUMPDEST JUMPDEST JUMPDEST JUMPDEST PUSH0 JUMPDEST DUP6 DUP2 GT PUSH2 0x20B JUMPI DUP1 DUP4 PUSH2 0x1F6 SWAP2 SWAP1 PUSH2 0x372 JUMP JUMPDEST SWAP3 POP DUP1 DUP1 PUSH2 0x203 SWAP1 PUSH2 0x3A5 JUMP JUMPDEST SWAP2 POP POP PUSH2 0x1E3 JUMP JUMPDEST POP JUMPDEST PUSH0 DUP6 GT ISZERO PUSH2 0x229 JUMPI PUSH1 0xA DUP6 PUSH2 0x222 SWAP2 SWAP1 PUSH2 0x3EC JUMP JUMPDEST SWAP5 POP PUSH2 0x20D JUMP JUMPDEST DUP1 DUP3 SWAP4 POP SWAP4 POP POP POP SWAP2 POP SWAP2 JUMP JUMPDEST PUSH0 DUP1 REVERT JUMPDEST PUSH0 DUP2 SWAP1 POP SWAP2 SWAP1 POP JUMP JUMPDEST PUSH2 0x24C DUP2 PUSH2 0x23A JUMP JUMPDEST DUP2 EQ PUSH2 0x256 JUMPI PUSH0 DUP1 REVERT JUMPDEST POP JUMP JUMPDEST PUSH0 DUP2 CALLDATALOAD SWAP1 POP PUSH2 0x267 DUP2 PUSH2 0x243 JUMP JUMPDEST SWAP3 SWAP2 POP POP JUMP JUMPDEST PUSH0 PUSH1 0x20 DUP3 DUP5 SUB SLT ISZERO PUSH2 0x282 JUMPI PUSH2 0x281 PUSH2 0x236 JUMP JUMPDEST JUMPDEST PUSH0 PUSH2 0x28F DUP5 DUP3 DUP6 ADD PUSH2 0x259 JUMP JUMPDEST SWAP2 POP POP SWAP3 SWAP2 POP POP JUMP JUMPDEST PUSH0 DUP2 MLOAD SWAP1 POP SWAP2 SWAP1 POP JUMP JUMPDEST PUSH0 DUP3 DUP3 MSTORE PUSH1 0x20 DUP3 ADD SWAP1 POP SWAP3 SWAP2 POP POP JUMP JUMPDEST DUP3 DUP2 DUP4 MCOPY PUSH0 DUP4 DUP4 ADD MSTORE POP POP POP JUMP JUMPDEST PUSH0 PUSH1 0x1F NOT PUSH1 0x1F DUP4 ADD AND SWAP1 POP SWAP2 SWAP1 POP JUMP JUMPDEST PUSH0 PUSH2 0x2DA DUP3 PUSH2 0x298 JUMP JUMPDEST PUSH2 0x2E4 DUP2 DUP6 PUSH2 0x2A2 JUMP JUMPDEST SWAP4 POP PUSH2 0x2F4 DUP2 DUP6 PUSH1 0x20 DUP7 ADD PUSH2 0x2B2 JUMP JUMPDEST PUSH2 0x2FD DUP2 PUSH2 0x2C0 JUMP JUMPDEST DUP5 ADD SWAP2 POP POP SWAP3 SWAP2 POP POP JUMP JUMPDEST PUSH2 0x311 DUP2 PUSH2 0x23A JUMP JUMPDEST DUP3 MSTORE POP POP JUMP JUMPDEST PUSH0 PUSH1 0x40 DUP3 ADD SWAP1 POP DUP2 DUP2 SUB PUSH0 DUP4 ADD MSTORE PUSH2 0x32F DUP2 DUP6 PUSH2 0x2D0 JUMP JUMPDEST SWAP1 POP PUSH2 0x33E PUSH1 0x20 DUP4 ADD DUP5 PUSH2 0x308 JUMP JUMPDEST SWAP4 SWAP3 POP POP POP JUMP JUMPDEST PUSH32 0x4E487B7100000000000000000000000000000000000000000000000000000000 PUSH0 MSTORE PUSH1 0x11 PUSH1 0x4 MSTORE PUSH1 0x24 PUSH0 REVERT JUMPDEST PUSH0 PUSH2 0x37C DUP3 PUSH2 0x23A JUMP JUMPDEST SWAP2 POP PUSH2 0x387 DUP4 PUSH2 0x23A JUMP JUMPDEST SWAP3 POP DUP3 DUP3 ADD SWAP1 POP DUP1 DUP3 GT ISZERO PUSH2 0x39F JUMPI PUSH2 0x39E PUSH2 0x345 JUMP JUMPDEST JUMPDEST SWAP3 SWAP2 POP POP JUMP JUMPDEST PUSH0 PUSH2 0x3AF DUP3 PUSH2 0x23A JUMP JUMPDEST SWAP2 POP PUSH32 0xFFFFFFFFFFFFFFFFFFFFFFFFFFFFFFFFFFFFFFFFFFFFFFFFFFFFFFFFFFFFFFFF DUP3 SUB PUSH2 0x3E1 JUMPI PUSH2 0x3E0 PUSH2 0x345 JUMP JUMPDEST JUMPDEST PUSH1 0x1 DUP3 ADD SWAP1 POP SWAP2 SWAP1 POP JUMP JUMPDEST PUSH0 PUSH2 0x3F6 DUP3 PUSH2 0x23A JUMP JUMPDEST SWAP2 POP PUSH2 0x401 DUP4 PUSH2 0x23A JUMP JUMPDEST SWAP3 POP DUP3 DUP3 SUB SWAP1 POP DUP2 DUP2 GT ISZERO PUSH2 0x419 JUMPI PUSH2 0x418 PUSH2 0x345 JUMP JUMPDEST JUMPDEST SWAP3 SWAP2 POP POP JUMP INVALID LOG2 PUSH5 0x6970667358 0x22 SLT KECCAK256 0xC6 SHR 0xE8 0xC8 0xC8 0xBB 0xD3 PUSH32 0xA4DF7F2CB005DCC8592662264CC49BD2A2769621630BC18864736F6C63430008 BYTE STOP CALLER "
		},
		"gasEstimates": {
			"creation": {
				"codeDepositCost": "221800",
				"executionCost": "22366",
				"totalCost": "244166"
			},
			"external": {
				"test(uint256)": "infinite"
			}
		},
		"methodIdentifiers": {
			"test(uint256)": "29e99f07"
		}
	},
	"abi": [
		{
			"inputs": [
				{
					"internalType": "uint256",
					"name": "data",
					"type": "uint256"
				}
			],
			"name": "test",
			"outputs": [
				{
					"internalType": "string",
					"name": "",
					"type": "string"
				},
				{
					"internalType": "uint256",
					"name": "",
					"type": "uint256"
				}
			],
			"stateMutability": "view",
			"type": "function"
		}
	]
}