{
	"data": {
		"bytecode": {
			"linkReferences": {},
			"object": "6080604052348015600e575f80fd5b5061099f8061001c5f395ff3fe608060405234801561000f575f80fd5b506004361061004a575f3560e01c8063121ef2431461004e5780631c6120e81461006a5780634bc939681461009a578063a87430ba146100ca575b5f80fd5b6100686004803603810190610063919061044c565b6100fb565b005b610084600480360381019061007f91906104a6565b610159565b60405161009191906104fc565b60405180910390f35b6100b460048036038101906100af919061044c565b6101bd565b6040516100c19190610554565b60405180910390f35b6100e460048036038101906100df9190610597565b610227565b6040516100f2929190610622565b60405180910390f35b5f805f3373ffffffffffffffffffffffffffffffffffffffff1673ffffffffffffffffffffffffffffffffffffffff1681526020019081526020015f20905082815f01908161014a919061084a565b50818160010181905550505050565b5f805f3373ffffffffffffffffffffffffffffffffffffffff1673ffffffffffffffffffffffffffffffffffffffff1681526020019081526020015f20600201826040516101a79190610953565b9081526020016040518091039020549050919050565b5f815f803373ffffffffffffffffffffffffffffffffffffffff1673ffffffffffffffffffffffffffffffffffffffff1681526020019081526020015f206002018460405161020c9190610953565b90815260200160405180910390208190555033905092915050565b5f602052805f5260405f205f91509050805f0180546102459061067d565b80601f01602080910402602001604051908101604052809291908181526020018280546102719061067d565b80156102bc5780601f10610293576101008083540402835291602001916102bc565b820191905f5260205f20905b81548152906001019060200180831161029f57829003601f168201915b5050505050908060010154905082565b5f604051905090565b5f80fd5b5f80fd5b5f80fd5b5f80fd5b5f601f19601f8301169050919050565b7f4e487b71000000000000000000000000000000000000000000000000000000005f52604160045260245ffd5b61032b826102e5565b810181811067ffffffffffffffff8211171561034a576103496102f5565b5b80604052505050565b5f61035c6102cc565b90506103688282610322565b919050565b5f67ffffffffffffffff821115610387576103866102f5565b5b610390826102e5565b9050602081019050919050565b828183375f83830152505050565b5f6103bd6103b88461036d565b610353565b9050828152602081018484840111156103d9576103d86102e1565b5b6103e484828561039d565b509392505050565b5f82601f830112610400576103ff6102dd565b5b81356104108482602086016103ab565b91505092915050565b5f819050919050565b61042b81610419565b8114610435575f80fd5b50565b5f8135905061044681610422565b92915050565b5f8060408385031215610462576104616102d5565b5b5f83013567ffffffffffffffff81111561047f5761047e6102d9565b5b61048b858286016103ec565b925050602061049c85828601610438565b9150509250929050565b5f602082840312156104bb576104ba6102d5565b5b5f82013567ffffffffffffffff8111156104d8576104d76102d9565b5b6104e4848285016103ec565b91505092915050565b6104f681610419565b82525050565b5f60208201905061050f5f8301846104ed565b92915050565b5f73ffffffffffffffffffffffffffffffffffffffff82169050919050565b5f61053e82610515565b9050919050565b61054e81610534565b82525050565b5f6020820190506105675f830184610545565b92915050565b61057681610534565b8114610580575f80fd5b50565b5f813590506105918161056d565b92915050565b5f602082840312156105ac576105ab6102d5565b5b5f6105b984828501610583565b91505092915050565b5f81519050919050565b5f82825260208201905092915050565b8281835e5f83830152505050565b5f6105f4826105c2565b6105fe81856105cc565b935061060e8185602086016105dc565b610617816102e5565b840191505092915050565b5f6040820190508181035f83015261063a81856105ea565b905061064960208301846104ed565b9392505050565b7f4e487b71000000000000000000000000000000000000000000000000000000005f52602260045260245ffd5b5f600282049050600182168061069457607f821691505b6020821081036106a7576106a6610650565b5b50919050565b5f819050815f5260205f209050919050565b5f6020601f8301049050919050565b5f82821b905092915050565b5f600883026107097fffffffffffffffffffffffffffffffffffffffffffffffffffffffffffffffff826106ce565b61071386836106ce565b95508019841693508086168417925050509392505050565b5f819050919050565b5f61074e61074961074484610419565b61072b565b610419565b9050919050565b5f819050919050565b61076783610734565b61077b61077382610755565b8484546106da565b825550505050565b5f90565b61078f610783565b61079a81848461075e565b505050565b5b818110156107bd576107b25f82610787565b6001810190506107a0565b5050565b601f821115610802576107d3816106ad565b6107dc846106bf565b810160208510156107eb578190505b6107ff6107f7856106bf565b83018261079f565b50505b505050565b5f82821c905092915050565b5f6108225f1984600802610807565b1980831691505092915050565b5f61083a8383610813565b9150826002028217905092915050565b610853826105c2565b67ffffffffffffffff81111561086c5761086b6102f5565b5b610876825461067d565b6108818282856107c1565b5f60209050601f8311600181146108b2575f84156108a0578287015190505b6108aa858261082f565b865550610911565b601f1984166108c0866106ad565b5f5b828110156108e7578489015182556001820191506020850194506020810190506108c2565b868310156109045784890151610900601f891682610813565b8355505b6001600288020188555050505b505050505050565b5f81905092915050565b5f61092d826105c2565b6109378185610919565b93506109478185602086016105dc565b80840191505092915050565b5f61095e8284610923565b91508190509291505056fea264697066735822122063f17e52fbde8f9353eee7115b756ad7bbd24b1742da4c99f4b60935841e3e2764736f6c634300081a0033",
			"opcodes": "PUSH1 0x80 PUSH1 0x40 MSTORE CALLVALUE DUP1 ISZERO PUSH1 0xE JUMPI PUSH0 DUP1 REVERT JUMPDEST POP PUSH2 0x99F DUP1 PUSH2 0x1C PUSH0 CODECOPY PUSH0 RETURN INVALID PUSH1 0x80 PUSH1 0x40 MSTORE CALLVALUE DUP1 ISZERO PUSH2 0xF JUMPI PUSH0 DUP1 REVERT JUMPDEST POP PUSH1 0x4 CALLDATASIZE LT PUSH2 0x4A JUMPI PUSH0 CALLDATALOAD PUSH1 0xE0 SHR DUP1 PUSH4 0x121EF243 EQ PUSH2 0x4E JUMPI DUP1 PUSH4 0x1C6120E8 EQ PUSH2 0x6A JUMPI DUP1 PUSH4 0x4BC93968 EQ PUSH2 0x9A JUMPI DUP1 PUSH4 0xA87430BA EQ PUSH2 0xCA JUMPI JUMPDEST PUSH0 DUP1 REVERT JUMPDEST PUSH2 0x68 PUSH1 0x4 DUP1 CALLDATASIZE SUB DUP2 ADD SWAP1 PUSH2 0x63 SWAP2 SWAP1 PUSH2 0x44C JUMP JUMPDEST PUSH2 0xFB JUMP JUMPDEST STOP JUMPDEST PUSH2 0x84 PUSH1 0x4 DUP1 CALLDATASIZE SUB DUP2 ADD SWAP1 PUSH2 0x7F SWAP2 SWAP1 PUSH2 0x4A6 JUMP JUMPDEST PUSH2 0x159 JUMP JUMPDEST PUSH1 0x40 MLOAD PUSH2 0x91 SWAP2 SWAP1 PUSH2 0x4FC JUMP JUMPDEST PUSH1 0x40 MLOAD DUP1 SWAP2 SUB SWAP1 RETURN JUMPDEST PUSH2 0xB4 PUSH1 0x4 DUP1 CALLDATASIZE SUB DUP2 ADD SWAP1 PUSH2 0xAF SWAP2 SWAP1 PUSH2 0x44C JUMP JUMPDEST PUSH2 0x1BD JUMP JUMPDEST PUSH1 0x40 MLOAD PUSH2 0xC1 SWAP2 SWAP1 PUSH2 0x554 JUMP JUMPDEST PUSH1 0x40 MLOAD DUP1 SWAP2 SUB SWAP1 RETURN JUMPDEST PUSH2 0xE4 PUSH1 0x4 DUP1 CALLDATASIZE SUB DUP2 ADD SWAP1 PUSH2 0xDF SWAP2 SWAP1 PUSH2 0x597 JUMP JUMPDEST PUSH2 0x227 JUMP JUMPDEST PUSH1 0x40 MLOAD PUSH2 0xF2 SWAP3 SWAP2 SWAP1 PUSH2 0x622 JUMP JUMPDEST PUSH1 0x40 MLOAD DUP1 SWAP2 SUB SWAP1 RETURN JUMPDEST PUSH0 DUP1 PUSH0 CALLER PUSH20 0xFFFFFFFFFFFFFFFFFFFFFFFFFFFFFFFFFFFFFFFF AND PUSH20 0xFFFFFFFFFFFFFFFFFFFFFFFFFFFFFFFFFFFFFFFF AND DUP2 MSTORE PUSH1 0x20 ADD SWAP1 DUP2 MSTORE PUSH1 0x20 ADD PUSH0 KECCAK256 SWAP1 POP DUP3 DUP2 PUSH0 ADD SWAP1 DUP2 PUSH2 0x14A SWAP2 SWAP1 PUSH2 0x84A JUMP JUMPDEST POP DUP2 DUP2 PUSH1 0x1 ADD DUP2 SWAP1 SSTORE POP POP POP POP JUMP JUMPDEST PUSH0 DUP1 PUSH0 CALLER PUSH20 0xFFFFFFFFFFFFFFFFFFFFFFFFFFFFFFFFFFFFFFFF AND PUSH20 0xFFFFFFFFFFFFFFFFFFFFFFFFFFFFFFFFFFFFFFFF AND DUP2 MSTORE PUSH1 0x20 ADD SWAP1 DUP2 MSTORE PUSH1 0x20 ADD PUSH0 KECCAK256 PUSH1 0x2 ADD DUP3 PUSH1 0x40 MLOAD PUSH2 0x1A7 SWAP2 SWAP1 PUSH2 0x953 JUMP JUMPDEST SWAP1 DUP2 MSTORE PUSH1 0x20 ADD PUSH1 0x40 MLOAD DUP1 SWAP2 SUB SWAP1 KECCAK256 SLOAD SWAP1 POP SWAP2 SWAP1 POP JUMP JUMPDEST PUSH0 DUP2 PUSH0 DUP1 CALLER PUSH20 0xFFFFFFFFFFFFFFFFFFFFFFFFFFFFFFFFFFFFFFFF AND PUSH20 0xFFFFFFFFFFFFFFFFFFFFFFFFFFFFFFFFFFFFFFFF AND DUP2 MSTORE PUSH1 0x20 ADD SWAP1 DUP2 MSTORE PUSH1 0x20 ADD PUSH0 KECCAK256 PUSH1 0x2 ADD DUP5 PUSH1 0x40 MLOAD PUSH2 0x20C SWAP2 SWAP1 PUSH2 0x953 JUMP JUMPDEST SWAP1 DUP2 MSTORE PUSH1 0x20 ADD PUSH1 0x40 MLOAD DUP1 SWAP2 SUB SWAP1 KECCAK256 DUP2 SWAP1 SSTORE POP CALLER SWAP1 POP SWAP3 SWAP2 POP POP JUMP JUMPDEST PUSH0 PUSH1 0x20 MSTORE DUP1 PUSH0 MSTORE PUSH1 0x40 PUSH0 KECCAK256 PUSH0 SWAP2 POP SWAP1 POP DUP1 PUSH0 ADD DUP1 SLOAD PUSH2 0x245 SWAP1 PUSH2 0x67D JUMP JUMPDEST DUP1 PUSH1 0x1F ADD PUSH1 0x20 DUP1 SWAP2 DIV MUL PUSH1 0x20 ADD PUSH1 0x40 MLOAD SWAP1 DUP2 ADD PUSH1 0x40 MSTORE DUP1 SWAP3 SWAP2 SWAP1 DUP2 DUP2 MSTORE PUSH1 0x20 ADD DUP3 DUP1 SLOAD PUSH2 0x271 SWAP1 PUSH2 0x67D JUMP JUMPDEST DUP1 ISZERO PUSH2 0x2BC JUMPI DUP1 PUSH1 0x1F LT PUSH2 0x293 JUMPI PUSH2 0x100 DUP1 DUP4 SLOAD DIV MUL DUP4 MSTORE SWAP2 PUSH1 0x20 ADD SWAP2 PUSH2 0x2BC JUMP JUMPDEST DUP3 ADD SWAP2 SWAP1 PUSH0 MSTORE PUSH1 0x20 PUSH0 KECCAK256 SWAP1 JUMPDEST DUP2 SLOAD DUP2 MSTORE SWAP1 PUSH1 0x1 ADD SWAP1 PUSH1 0x20 ADD DUP1 DUP4 GT PUSH2 0x29F JUMPI DUP3 SWAP1 SUB PUSH1 0x1F AND DUP3 ADD SWAP2 JUMPDEST POP POP POP POP POP SWAP1 DUP1 PUSH1 0x1 ADD SLOAD SWAP1 POP DUP3 JUMP JUMPDEST PUSH0 PUSH1 0x40 MLOAD SWAP1 POP SWAP1 JUMP JUMPDEST PUSH0 DUP1 REVERT JUMPDEST PUSH0 DUP1 REVERT JUMPDEST PUSH0 DUP1 REVERT JUMPDEST PUSH0 DUP1 REVERT JUMPDEST PUSH0 PUSH1 0x1F NOT PUSH1 0x1F DUP4 ADD AND SWAP1 POP SWAP2 SWAP1 POP JUMP JUMPDEST PUSH32 0x4E487B7100000000000000000000000000000000000000000000000000000000 PUSH0 MSTORE PUSH1 0x41 PUSH1 0x4 MSTORE PUSH1 0x24 PUSH0 REVERT JUMPDEST PUSH2 0x32B DUP3 PUSH2 0x2E5 JUMP JUMPDEST DUP2 ADD DUP2 DUP2 LT PUSH8 0xFFFFFFFFFFFFFFFF DUP3 GT OR ISZERO PUSH2 0x34A JUMPI PUSH2 0x349 PUSH2 0x2F5 JUMP JUMPDEST JUMPDEST DUP1 PUSH1 0x40 MSTORE POP POP POP JUMP JUMPDEST PUSH0 PUSH2 0x35C PUSH2 0x2CC JUMP JUMPDEST SWAP1 POP PUSH2 0x368 DUP3 DUP3 PUSH2 0x322 JUMP JUMPDEST SWAP2 SWAP1 POP JUMP JUMPDEST PUSH0 PUSH8 0xFFFFFFFFFFFFFFFF DUP3 GT ISZERO PUSH2 0x387 JUMPI PUSH2 0x386 PUSH2 0x2F5 JUMP JUMPDEST JUMPDEST PUSH2 0x390 DUP3 PUSH2 0x2E5 JUMP JUMPDEST SWAP1 POP PUSH1 0x20 DUP2 ADD SWAP1 POP SWAP2 SWAP1 POP JUMP JUMPDEST DUP3 DUP2 DUP4 CALLDATACOPY PUSH0 DUP4 DUP4 ADD MSTORE POP POP POP JUMP JUMPDEST PUSH0 PUSH2 0x3BD PUSH2 0x3B8 DUP5 PUSH2 0x36D JUMP JUMPDEST PUSH2 0x353 JUMP JUMPDEST SWAP1 POP DUP3 DUP2 MSTORE PUSH1 0x20 DUP2 ADD DUP5 DUP5 DUP5 ADD GT ISZERO PUSH2 0x3D9 JUMPI PUSH2 0x3D8 PUSH2 0x2E1 JUMP JUMPDEST JUMPDEST PUSH2 0x3E4 DUP5 DUP3 DUP6 PUSH2 0x39D JUMP JUMPDEST POP SWAP4 SWAP3 POP POP POP JUMP JUMPDEST PUSH0 DUP3 PUSH1 0x1F DUP4 ADD SLT PUSH2 0x400 JUMPI PUSH2 0x3FF PUSH2 0x2DD JUMP JUMPDEST JUMPDEST DUP2 CALLDATALOAD PUSH2 0x410 DUP5 DUP3 PUSH1 0x20 DUP7 ADD PUSH2 0x3AB JUMP JUMPDEST SWAP2 POP POP SWAP3 SWAP2 POP POP JUMP JUMPDEST PUSH0 DUP2 SWAP1 POP SWAP2 SWAP1 POP JUMP JUMPDEST PUSH2 0x42B DUP2 PUSH2 0x419 JUMP JUMPDEST DUP2 EQ PUSH2 0x435 JUMPI PUSH0 DUP1 REVERT JUMPDEST POP JUMP JUMPDEST PUSH0 DUP2 CALLDATALOAD SWAP1 POP PUSH2 0x446 DUP2 PUSH2 0x422 JUMP JUMPDEST SWAP3 SWAP2 POP POP JUMP JUMPDEST PUSH0 DUP1 PUSH1 0x40 DUP4 DUP6 SUB SLT ISZERO PUSH2 0x462 JUMPI PUSH2 0x461 PUSH2 0x2D5 JUMP JUMPDEST JUMPDEST PUSH0 DUP4 ADD CALLDATALOAD PUSH8 0xFFFFFFFFFFFFFFFF DUP2 GT ISZERO PUSH2 0x47F JUMPI PUSH2 0x47E PUSH2 0x2D9 JUMP JUMPDEST JUMPDEST PUSH2 0x48B DUP6 DUP3 DUP7 ADD PUSH2 0x3EC JUMP JUMPDEST SWAP3 POP POP PUSH1 0x20 PUSH2 0x49C DUP6 DUP3 DUP7 ADD PUSH2 0x438 JUMP JUMPDEST SWAP2 POP POP SWAP3 POP SWAP3 SWAP1 POP JUMP JUMPDEST PUSH0 PUSH1 0x20 DUP3 DUP5 SUB SLT ISZERO PUSH2 0x4BB JUMPI PUSH2 0x4BA PUSH2 0x2D5 JUMP JUMPDEST JUMPDEST PUSH0 DUP3 ADD CALLDATALOAD PUSH8 0xFFFFFFFFFFFFFFFF DUP2 GT ISZERO PUSH2 0x4D8 JUMPI PUSH2 0x4D7 PUSH2 0x2D9 JUMP JUMPDEST JUMPDEST PUSH2 0x4E4 DUP5 DUP3 DUP6 ADD PUSH2 0x3EC JUMP JUMPDEST SWAP2 POP POP SWAP3 SWAP2 POP POP JUMP JUMPDEST PUSH2 0x4F6 DUP2 PUSH2 0x419 JUMP JUMPDEST DUP3 MSTORE POP POP JUMP JUMPDEST PUSH0 PUSH1 0x20 DUP3 ADD SWAP1 POP PUSH2 0x50F PUSH0 DUP4 ADD DUP5 PUSH2 0x4ED JUMP JUMPDEST SWAP3 SWAP2 POP POP JUMP JUMPDEST PUSH0 PUSH20 0xFFFFFFFFFFFFFFFFFFFFFFFFFFFFFFFFFFFFFFFF DUP3 AND SWAP1 POP SWAP2 SWAP1 POP JUMP JUMPDEST PUSH0 PUSH2 0x53E DUP3 PUSH2 0x515 JUMP JUMPDEST SWAP1 POP SWAP2 SWAP1 POP JUMP JUMPDEST PUSH2 0x54E DUP2 PUSH2 0x534 JUMP JUMPDEST DUP3 MSTORE POP POP JUMP JUMPDEST PUSH0 PUSH1 0x20 DUP3 ADD SWAP1 POP PUSH2 0x567 PUSH0 DUP4 ADD DUP5 PUSH2 0x545 JUMP JUMPDEST SWAP3 SWAP2 POP POP JUMP JUMPDEST PUSH2 0x576 DUP2 PUSH2 0x534 JUMP JUMPDEST DUP2 EQ PUSH2 0x580 JUMPI PUSH0 DUP1 REVERT JUMPDEST POP JUMP JUMPDEST PUSH0 DUP2 CALLDATALOAD SWAP1 POP PUSH2 0x591 DUP2 PUSH2 0x56D JUMP JUMPDEST SWAP3 SWAP2 POP POP JUMP JUMPDEST PUSH0 PUSH1 0x20 DUP3 DUP5 SUB SLT ISZERO PUSH2 0x5AC JUMPI PUSH2 0x5AB PUSH2 0x2D5 JUMP JUMPDEST JUMPDEST PUSH0 PUSH2 0x5B9 DUP5 DUP3 DUP6 ADD PUSH2 0x583 JUMP JUMPDEST SWAP2 POP POP SWAP3 SWAP2 POP POP JUMP JUMPDEST PUSH0 DUP2 MLOAD SWAP1 POP SWAP2 SWAP1 POP JUMP JUMPDEST PUSH0 DUP3 DUP3 MSTORE PUSH1 0x20 DUP3 ADD SWAP1 POP SWAP3 SWAP2 POP POP JUMP JUMPDEST DUP3 DUP2 DUP4 MCOPY PUSH0 DUP4 DUP4 ADD MSTORE POP POP POP JUMP JUMPDEST PUSH0 PUSH2 0x5F4 DUP3 PUSH2 0x5C2 JUMP JUMPDEST PUSH2 0x5FE DUP2 DUP6 PUSH2 0x5CC JUMP JUMPDEST SWAP4 POP PUSH2 0x60E DUP2 DUP6 PUSH1 0x20 DUP7 ADD PUSH2 0x5DC JUMP JUMPDEST PUSH2 0x617 DUP2 PUSH2 0x2E5 JUMP JUMPDEST DUP5 ADD SWAP2 POP POP SWAP3 SWAP2 POP POP JUMP JUMPDEST PUSH0 PUSH1 0x40 DUP3 ADD SWAP1 POP DUP2 DUP2 SUB PUSH0 DUP4 ADD MSTORE PUSH2 0x63A DUP2 DUP6 PUSH2 0x5EA JUMP JUMPDEST SWAP1 POP PUSH2 0x649 PUSH1 0x20 DUP4 ADD DUP5 PUSH2 0x4ED JUMP JUMPDEST SWAP4 SWAP3 POP POP POP JUMP JUMPDEST PUSH32 0x4E487B7100000000000000000000000000000000000000000000000000000000 PUSH0 MSTORE PUSH1 0x22 PUSH1 0x4 MSTORE PUSH1 0x24 PUSH0 REVERT JUMPDEST PUSH0 PUSH1 0x2 DUP3 DIV SWAP1 POP PUSH1 0x1 DUP3 AND DUP1 PUSH2 0x694 JUMPI PUSH1 0x7F DUP3 AND SWAP2 POP JUMPDEST PUSH1 0x20 DUP3 LT DUP2 SUB PUSH2 0x6A7 JUMPI PUSH2 0x6A6 PUSH2 0x650 JUMP JUMPDEST JUMPDEST POP SWAP2 SWAP1 POP JUMP JUMPDEST PUSH0 DUP2 SWAP1 POP DUP2 PUSH0 MSTORE PUSH1 0x20 PUSH0 KECCAK256 SWAP1 POP SWAP2 SWAP1 POP JUMP JUMPDEST PUSH0 PUSH1 0x20 PUSH1 0x1F DUP4 ADD DIV SWAP1 POP SWAP2 SWAP1 POP JUMP JUMPDEST PUSH0 DUP3 DUP3 SHL SWAP1 POP SWAP3 SWAP2 POP POP JUMP JUMPDEST PUSH0 PUSH1 0x8 DUP4 MUL PUSH2 0x709 PUSH32 0xFFFFFFFFFFFFFFFFFFFFFFFFFFFFFFFFFFFFFFFFFFFFFFFFFFFFFFFFFFFFFFFF DUP3 PUSH2 0x6CE JUMP JUMPDEST PUSH2 0x713 DUP7 DUP4 PUSH2 0x6CE JUMP JUMPDEST SWAP6 POP DUP1 NOT DUP5 AND SWAP4 POP DUP1 DUP7 AND DUP5 OR SWAP3 POP POP POP SWAP4 SWAP3 POP POP POP JUMP JUMPDEST PUSH0 DUP2 SWAP1 POP SWAP2 SWAP1 POP JUMP JUMPDEST PUSH0 PUSH2 0x74E PUSH2 0x749 PUSH2 0x744 DUP5 PUSH2 0x419 JUMP JUMPDEST PUSH2 0x72B JUMP JUMPDEST PUSH2 0x419 JUMP JUMPDEST SWAP1 POP SWAP2 SWAP1 POP JUMP JUMPDEST PUSH0 DUP2 SWAP1 POP SWAP2 SWAP1 POP JUMP JUMPDEST PUSH2 0x767 DUP4 PUSH2 0x734 JUMP JUMPDEST PUSH2 0x77B PUSH2 0x773 DUP3 PUSH2 0x755 JUMP JUMPDEST DUP5 DUP5 SLOAD PUSH2 0x6DA JUMP JUMPDEST DUP3 SSTORE POP POP POP POP JUMP JUMPDEST PUSH0 SWAP1 JUMP JUMPDEST PUSH2 0x78F PUSH2 0x783 JUMP JUMPDEST PUSH2 0x79A DUP2 DUP5 DUP5 PUSH2 0x75E JUMP JUMPDEST POP POP POP JUMP JUMPDEST JUMPDEST DUP2 DUP2 LT ISZERO PUSH2 0x7BD JUMPI PUSH2 0x7B2 PUSH0 DUP3 PUSH2 0x787 JUMP JUMPDEST PUSH1 0x1 DUP2 ADD SWAP1 POP PUSH2 0x7A0 JUMP JUMPDEST POP POP JUMP JUMPDEST PUSH1 0x1F DUP3 GT ISZERO PUSH2 0x802 JUMPI PUSH2 0x7D3 DUP2 PUSH2 0x6AD JUMP JUMPDEST PUSH2 0x7DC DUP5 PUSH2 0x6BF JUMP JUMPDEST DUP2 ADD PUSH1 0x20 DUP6 LT ISZERO PUSH2 0x7EB JUMPI DUP2 SWAP1 POP JUMPDEST PUSH2 0x7FF PUSH2 0x7F7 DUP6 PUSH2 0x6BF JUMP JUMPDEST DUP4 ADD DUP3 PUSH2 0x79F JUMP JUMPDEST POP POP JUMPDEST POP POP POP JUMP JUMPDEST PUSH0 DUP3 DUP3 SHR SWAP1 POP SWAP3 SWAP2 POP POP JUMP JUMPDEST PUSH0 PUSH2 0x822 PUSH0 NOT DUP5 PUSH1 0x8 MUL PUSH2 0x807 JUMP JUMPDEST NOT DUP1 DUP4 AND SWAP2 POP POP SWAP3 SWAP2 POP POP JUMP JUMPDEST PUSH0 PUSH2 0x83A DUP4 DUP4 PUSH2 0x813 JUMP JUMPDEST SWAP2 POP DUP3 PUSH1 0x2 MUL DUP3 OR SWAP1 POP SWAP3 SWAP2 POP POP JUMP JUMPDEST PUSH2 0x853 DUP3 PUSH2 0x5C2 JUMP JUMPDEST PUSH8 0xFFFFFFFFFFFFFFFF DUP2 GT ISZERO PUSH2 0x86C JUMPI PUSH2 0x86B PUSH2 0x2F5 JUMP JUMPDEST JUMPDEST PUSH2 0x876 DUP3 SLOAD PUSH2 0x67D JUMP JUMPDEST PUSH2 0x881 DUP3 DUP3 DUP6 PUSH2 0x7C1 JUMP JUMPDEST PUSH0 PUSH1 0x20 SWAP1 POP PUSH1 0x1F DUP4 GT PUSH1 0x1 DUP2 EQ PUSH2 0x8B2 JUMPI PUSH0 DUP5 ISZERO PUSH2 0x8A0 JUMPI DUP3 DUP8 ADD MLOAD SWAP1 POP JUMPDEST PUSH2 0x8AA DUP6 DUP3 PUSH2 0x82F JUMP JUMPDEST DUP7 SSTORE POP PUSH2 0x911 JUMP JUMPDEST PUSH1 0x1F NOT DUP5 AND PUSH2 0x8C0 DUP7 PUSH2 0x6AD JUMP JUMPDEST PUSH0 JUMPDEST DUP3 DUP2 LT ISZERO PUSH2 0x8E7 JUMPI DUP5 DUP10 ADD MLOAD DUP3 SSTORE PUSH1 0x1 DUP3 ADD SWAP2 POP PUSH1 0x20 DUP6 ADD SWAP5 POP PUSH1 0x20 DUP2 ADD SWAP1 POP PUSH2 0x8C2 JUMP JUMPDEST DUP7 DUP4 LT ISZERO PUSH2 0x904 JUMPI DUP5 DUP10 ADD MLOAD PUSH2 0x900 PUSH1 0x1F DUP10 AND DUP3 PUSH2 0x813 JUMP JUMPDEST DUP4 SSTORE POP JUMPDEST PUSH1 0x1 PUSH1 0x2 DUP9 MUL ADD DUP9 SSTORE POP POP POP JUMPDEST POP POP POP POP POP POP JUMP JUMPDEST PUSH0 DUP2 SWAP1 POP SWAP3 SWAP2 POP POP JUMP JUMPDEST PUSH0 PUSH2 0x92D DUP3 PUSH2 0x5C2 JUMP JUMPDEST PUSH2 0x937 DUP2 DUP6 PUSH2 0x919 JUMP JUMPDEST SWAP4 POP PUSH2 0x947 DUP2 DUP6 PUSH1 0x20 DUP7 ADD PUSH2 0x5DC JUMP JUMPDEST DUP1 DUP5 ADD SWAP2 POP POP SWAP3 SWAP2 POP POP JUMP JUMPDEST PUSH0 PUSH2 0x95E DUP3 DUP5 PUSH2 0x923 JUMP JUMPDEST SWAP2 POP DUP2 SWAP1 POP SWAP3 SWAP2 POP POP JUMP INVALID LOG2 PUSH5 0x6970667358 0x22 SLT KECCAK256 PUSH4 0xF17E52FB 0xDE DUP16 SWAP4 MSTORE8 0xEE 0xE7 GT JUMPDEST PUSH22 0x6AD7BBD24B1742DA4C99F4B60935841E3E2764736F6C PUSH4 0x4300081A STOP CALLER "
		},
		"gasEstimates": {
			"creation": {
				"codeDepositCost": "492600",
				"executionCost": "522",
				"totalCost": "493122"
			},
			"external": {
				"createUser(string,uint256)": "infinite",
				"getUserScore(string)": "infinite",
				"updateUserScore(string,uint256)": "infinite",
				"users(address)": "infinite"
			}
		},
		"methodIdentifiers": {
			"createUser(string,uint256)": "121ef243",
			"getUserScore(string)": "1c6120e8",
			"updateUserScore(string,uint256)": "4bc93968",
			"users(address)": "a87430ba"
		}
	},
	"abi": [
		{
			"inputs": [
				{
					"internalType": "string",
					"name": "_name",
					"type": "string"
				},
				{
					"internalType": "uint256",
					"name": "_age",
					"type": "uint256"
				}
			],
			"name": "createUser",
			"outputs": [],
			"stateMutability": "nonpayable",
			"type": "function"
		},
		{
			"inputs": [
				{
					"internalType": "string",
					"name": "_subject",
					"type": "string"
				}
			],
			"name": "getUserScore",
			"outputs": [
				{
					"internalType": "uint256",
					"name": "",
					"type": "uint256"
				}
			],
			"stateMutability": "view",
			"type": "function"
		},
		{
			"inputs": [
				{
					"internalType": "string",
					"name": "_subject",
					"type": "string"
				},
				{
					"internalType": "uint256",
					"name": "_score",
					"type": "uint256"
				}
			],
			"name": "updateUserScore",
			"outputs": [
				{
					"internalType": "address",
					"name": "",
					"type": "address"
				}
			],
			"stateMutability": "nonpayable",
			"type": "function"
		},
		{
			"inputs": [
				{
					"internalType": "address",
					"name": "",
					"type": "address"
				}
			],
			"name": "users",
			"outputs": [
				{
					"internalType": "string",
					"name": "name",
					"type": "string"
				},
				{
					"internalType": "uint256",
					"name": "age",
					"type": "uint256"
				}
			],
			"stateMutability": "view",
			"type": "function"
		}
	]
}