{
	"data": {
		"bytecode": {
			"linkReferences": {},
			"object": "608060405234801561000f575f80fd5b506040516106e63803806106e6833981810160405281019061003191906100d4565b805f806101000a81548173ffffffffffffffffffffffffffffffffffffffff021916908373ffffffffffffffffffffffffffffffffffffffff160217905550506100ff565b5f80fd5b5f73ffffffffffffffffffffffffffffffffffffffff82169050919050565b5f6100a38261007a565b9050919050565b6100b381610099565b81146100bd575f80fd5b50565b5f815190506100ce816100aa565b92915050565b5f602082840312156100e9576100e8610076565b5b5f6100f6848285016100c0565b91505092915050565b6105da8061010c5f395ff3fe608060405234801561000f575f80fd5b5060043610610034575f3560e01c8063a256e70214610038578063d4b8399214610069575b5f80fd5b610052600480360381019061004d91906102a8565b610087565b604051610060929190610365565b60405180910390f35b610071610245565b60405161007e919061040d565b60405180910390f35b60605f805f9054906101000a900473ffffffffffffffffffffffffffffffffffffffff1673ffffffffffffffffffffffffffffffffffffffff1663f88e9fbf85856040518363ffffffff1660e01b81526004016100e5929190610426565b602060405180830381865afa92505050801561011f57506040513d601f19601f8201168201806040525081019061011c9190610461565b60015b6102005761012b610498565b806308c379a00361018c575061013f610515565b8061014a575061018e565b5f6040518060400160405280600581526020017f4572726f7200000000000000000000000000000000000000000000000000000081525090925092505061023e565b505b3d805f81146101b8576040519150601f19603f3d011682016040523d82523d5f602084013e6101bd565b606091505b505f6040518060400160405280600f81526020017f4c6f772d6c6576656c206572726f72000000000000000000000000000000000081525090925092505061023e565b806040518060400160405280600781526020017f53756363657373000000000000000000000000000000000000000000000000008152509092509250505b9250929050565b5f8054906101000a900473ffffffffffffffffffffffffffffffffffffffff1681565b5f604051905090565b5f80fd5b5f819050919050565b61028781610275565b8114610291575f80fd5b50565b5f813590506102a28161027e565b92915050565b5f80604083850312156102be576102bd610271565b5b5f6102cb85828601610294565b92505060206102dc85828601610294565b9150509250929050565b5f81519050919050565b5f82825260208201905092915050565b8281835e5f83830152505050565b5f601f19601f8301169050919050565b5f610328826102e6565b61033281856102f0565b9350610342818560208601610300565b61034b8161030e565b840191505092915050565b61035f81610275565b82525050565b5f6040820190508181035f83015261037d818561031e565b905061038c6020830184610356565b9392505050565b5f73ffffffffffffffffffffffffffffffffffffffff82169050919050565b5f819050919050565b5f6103d56103d06103cb84610393565b6103b2565b610393565b9050919050565b5f6103e6826103bb565b9050919050565b5f6103f7826103dc565b9050919050565b610407816103ed565b82525050565b5f6020820190506104205f8301846103fe565b92915050565b5f6040820190506104395f830185610356565b6104466020830184610356565b9392505050565b5f8151905061045b8161027e565b92915050565b5f6020828403121561047657610475610271565b5b5f6104838482850161044d565b91505092915050565b5f8160e01c9050919050565b5f60033d11156104b45760045f803e6104b15f5161048c565b90505b90565b7f4e487b71000000000000000000000000000000000000000000000000000000005f52604160045260245ffd5b6104ed8261030e565b810181811067ffffffffffffffff8211171561050c5761050b6104b7565b5b80604052505050565b5f60443d106105a157610526610268565b60043d036004823e80513d602482011167ffffffffffffffff8211171561054e5750506105a1565b808201805167ffffffffffffffff81111561056c57505050506105a1565b80602083010160043d0385018111156105895750505050506105a1565b610598826020018501866104e4565b82955050505050505b9056fea26469706673582212201dd35052be27b4beeeb8b1087f801a2eb1fe72b7b6f0ffced3916a524e8f264b64736f6c634300081a0033",
			"opcodes": "PUSH1 0x80 PUSH1 0x40 MSTORE CALLVALUE DUP1 ISZERO PUSH2 0xF JUMPI PUSH0 DUP1 REVERT JUMPDEST POP PUSH1 0x40 MLOAD PUSH2 0x6E6 CODESIZE SUB DUP1 PUSH2 0x6E6 DUP4 CODECOPY DUP2 DUP2 ADD PUSH1 0x40 MSTORE DUP2 ADD SWAP1 PUSH2 0x31 SWAP2 SWAP1 PUSH2 0xD4 JUMP JUMPDEST DUP1 PUSH0 DUP1 PUSH2 0x100 EXP DUP2 SLOAD DUP2 PUSH20 0xFFFFFFFFFFFFFFFFFFFFFFFFFFFFFFFFFFFFFFFF MUL NOT AND SWAP1 DUP4 PUSH20 0xFFFFFFFFFFFFFFFFFFFFFFFFFFFFFFFFFFFFFFFF AND MUL OR SWAP1 SSTORE POP POP PUSH2 0xFF JUMP JUMPDEST PUSH0 DUP1 REVERT JUMPDEST PUSH0 PUSH20 0xFFFFFFFFFFFFFFFFFFFFFFFFFFFFFFFFFFFFFFFF DUP3 AND SWAP1 POP SWAP2 SWAP1 POP JUMP JUMPDEST PUSH0 PUSH2 0xA3 DUP3 PUSH2 0x7A JUMP JUMPDEST SWAP1 POP SWAP2 SWAP1 POP JUMP JUMPDEST PUSH2 0xB3 DUP2 PUSH2 0x99 JUMP JUMPDEST DUP2 EQ PUSH2 0xBD JUMPI PUSH0 DUP1 REVERT JUMPDEST POP JUMP JUMPDEST PUSH0 DUP2 MLOAD SWAP1 POP PUSH2 0xCE DUP2 PUSH2 0xAA JUMP JUMPDEST SWAP3 SWAP2 POP POP JUMP JUMPDEST PUSH0 PUSH1 0x20 DUP3 DUP5 SUB SLT ISZERO PUSH2 0xE9 JUMPI PUSH2 0xE8 PUSH2 0x76 JUMP JUMPDEST JUMPDEST PUSH0 PUSH2 0xF6 DUP5 DUP3 DUP6 ADD PUSH2 0xC0 JUMP JUMPDEST SWAP2 POP POP SWAP3 SWAP2 POP POP JUMP JUMPDEST PUSH2 0x5DA DUP1 PUSH2 0x10C PUSH0 CODECOPY PUSH0 RETURN INVALID PUSH1 0x80 PUSH1 0x40 MSTORE CALLVALUE DUP1 ISZERO PUSH2 0xF JUMPI PUSH0 DUP1 REVERT JUMPDEST POP PUSH1 0x4 CALLDATASIZE LT PUSH2 0x34 JUMPI PUSH0 CALLDATALOAD PUSH1 0xE0 SHR DUP1 PUSH4 0xA256E702 EQ PUSH2 0x38 JUMPI DUP1 PUSH4 0xD4B83992 EQ PUSH2 0x69 JUMPI JUMPDEST PUSH0 DUP1 REVERT JUMPDEST PUSH2 0x52 PUSH1 0x4 DUP1 CALLDATASIZE SUB DUP2 ADD SWAP1 PUSH2 0x4D SWAP2 SWAP1 PUSH2 0x2A8 JUMP JUMPDEST PUSH2 0x87 JUMP JUMPDEST PUSH1 0x40 MLOAD PUSH2 0x60 SWAP3 SWAP2 SWAP1 PUSH2 0x365 JUMP JUMPDEST PUSH1 0x40 MLOAD DUP1 SWAP2 SUB SWAP1 RETURN JUMPDEST PUSH2 0x71 PUSH2 0x245 JUMP JUMPDEST PUSH1 0x40 MLOAD PUSH2 0x7E SWAP2 SWAP1 PUSH2 0x40D JUMP JUMPDEST PUSH1 0x40 MLOAD DUP1 SWAP2 SUB SWAP1 RETURN JUMPDEST PUSH1 0x60 PUSH0 DUP1 PUSH0 SWAP1 SLOAD SWAP1 PUSH2 0x100 EXP SWAP1 DIV PUSH20 0xFFFFFFFFFFFFFFFFFFFFFFFFFFFFFFFFFFFFFFFF AND PUSH20 0xFFFFFFFFFFFFFFFFFFFFFFFFFFFFFFFFFFFFFFFF AND PUSH4 0xF88E9FBF DUP6 DUP6 PUSH1 0x40 MLOAD DUP4 PUSH4 0xFFFFFFFF AND PUSH1 0xE0 SHL DUP2 MSTORE PUSH1 0x4 ADD PUSH2 0xE5 SWAP3 SWAP2 SWAP1 PUSH2 0x426 JUMP JUMPDEST PUSH1 0x20 PUSH1 0x40 MLOAD DUP1 DUP4 SUB DUP2 DUP7 GAS STATICCALL SWAP3 POP POP POP DUP1 ISZERO PUSH2 0x11F JUMPI POP PUSH1 0x40 MLOAD RETURNDATASIZE PUSH1 0x1F NOT PUSH1 0x1F DUP3 ADD AND DUP3 ADD DUP1 PUSH1 0x40 MSTORE POP DUP2 ADD SWAP1 PUSH2 0x11C SWAP2 SWAP1 PUSH2 0x461 JUMP JUMPDEST PUSH1 0x1 JUMPDEST PUSH2 0x200 JUMPI PUSH2 0x12B PUSH2 0x498 JUMP JUMPDEST DUP1 PUSH4 0x8C379A0 SUB PUSH2 0x18C JUMPI POP PUSH2 0x13F PUSH2 0x515 JUMP JUMPDEST DUP1 PUSH2 0x14A JUMPI POP PUSH2 0x18E JUMP JUMPDEST PUSH0 PUSH1 0x40 MLOAD DUP1 PUSH1 0x40 ADD PUSH1 0x40 MSTORE DUP1 PUSH1 0x5 DUP2 MSTORE PUSH1 0x20 ADD PUSH32 0x4572726F72000000000000000000000000000000000000000000000000000000 DUP2 MSTORE POP SWAP1 SWAP3 POP SWAP3 POP POP PUSH2 0x23E JUMP JUMPDEST POP JUMPDEST RETURNDATASIZE DUP1 PUSH0 DUP2 EQ PUSH2 0x1B8 JUMPI PUSH1 0x40 MLOAD SWAP2 POP PUSH1 0x1F NOT PUSH1 0x3F RETURNDATASIZE ADD AND DUP3 ADD PUSH1 0x40 MSTORE RETURNDATASIZE DUP3 MSTORE RETURNDATASIZE PUSH0 PUSH1 0x20 DUP5 ADD RETURNDATACOPY PUSH2 0x1BD JUMP JUMPDEST PUSH1 0x60 SWAP2 POP JUMPDEST POP PUSH0 PUSH1 0x40 MLOAD DUP1 PUSH1 0x40 ADD PUSH1 0x40 MSTORE DUP1 PUSH1 0xF DUP2 MSTORE PUSH1 0x20 ADD PUSH32 0x4C6F772D6C6576656C206572726F720000000000000000000000000000000000 DUP2 MSTORE POP SWAP1 SWAP3 POP SWAP3 POP POP PUSH2 0x23E JUMP JUMPDEST DUP1 PUSH1 0x40 MLOAD DUP1 PUSH1 0x40 ADD PUSH1 0x40 MSTORE DUP1 PUSH1 0x7 DUP2 MSTORE PUSH1 0x20 ADD PUSH32 0x5375636365737300000000000000000000000000000000000000000000000000 DUP2 MSTORE POP SWAP1 SWAP3 POP SWAP3 POP POP JUMPDEST SWAP3 POP SWAP3 SWAP1 POP JUMP JUMPDEST PUSH0 DUP1 SLOAD SWAP1 PUSH2 0x100 EXP SWAP1 DIV PUSH20 0xFFFFFFFFFFFFFFFFFFFFFFFFFFFFFFFFFFFFFFFF AND DUP2 JUMP JUMPDEST PUSH0 PUSH1 0x40 MLOAD SWAP1 POP SWAP1 JUMP JUMPDEST PUSH0 DUP1 REVERT JUMPDEST PUSH0 DUP2 SWAP1 POP SWAP2 SWAP1 POP JUMP JUMPDEST PUSH2 0x287 DUP2 PUSH2 0x275 JUMP JUMPDEST DUP2 EQ PUSH2 0x291 JUMPI PUSH0 DUP1 REVERT JUMPDEST POP JUMP JUMPDEST PUSH0 DUP2 CALLDATALOAD SWAP1 POP PUSH2 0x2A2 DUP2 PUSH2 0x27E JUMP JUMPDEST SWAP3 SWAP2 POP POP JUMP JUMPDEST PUSH0 DUP1 PUSH1 0x40 DUP4 DUP6 SUB SLT ISZERO PUSH2 0x2BE JUMPI PUSH2 0x2BD PUSH2 0x271 JUMP JUMPDEST JUMPDEST PUSH0 PUSH2 0x2CB DUP6 DUP3 DUP7 ADD PUSH2 0x294 JUMP JUMPDEST SWAP3 POP POP PUSH1 0x20 PUSH2 0x2DC DUP6 DUP3 DUP7 ADD PUSH2 0x294 JUMP JUMPDEST SWAP2 POP POP SWAP3 POP SWAP3 SWAP1 POP JUMP JUMPDEST PUSH0 DUP2 MLOAD SWAP1 POP SWAP2 SWAP1 POP JUMP JUMPDEST PUSH0 DUP3 DUP3 MSTORE PUSH1 0x20 DUP3 ADD SWAP1 POP SWAP3 SWAP2 POP POP JUMP JUMPDEST DUP3 DUP2 DUP4 MCOPY PUSH0 DUP4 DUP4 ADD MSTORE POP POP POP JUMP JUMPDEST PUSH0 PUSH1 0x1F NOT PUSH1 0x1F DUP4 ADD AND SWAP1 POP SWAP2 SWAP1 POP JUMP JUMPDEST PUSH0 PUSH2 0x328 DUP3 PUSH2 0x2E6 JUMP JUMPDEST PUSH2 0x332 DUP2 DUP6 PUSH2 0x2F0 JUMP JUMPDEST SWAP4 POP PUSH2 0x342 DUP2 DUP6 PUSH1 0x20 DUP7 ADD PUSH2 0x300 JUMP JUMPDEST PUSH2 0x34B DUP2 PUSH2 0x30E JUMP JUMPDEST DUP5 ADD SWAP2 POP POP SWAP3 SWAP2 POP POP JUMP JUMPDEST PUSH2 0x35F DUP2 PUSH2 0x275 JUMP JUMPDEST DUP3 MSTORE POP POP JUMP JUMPDEST PUSH0 PUSH1 0x40 DUP3 ADD SWAP1 POP DUP2 DUP2 SUB PUSH0 DUP4 ADD MSTORE PUSH2 0x37D DUP2 DUP6 PUSH2 0x31E JUMP JUMPDEST SWAP1 POP PUSH2 0x38C PUSH1 0x20 DUP4 ADD DUP5 PUSH2 0x356 JUMP JUMPDEST SWAP4 SWAP3 POP POP POP JUMP JUMPDEST PUSH0 PUSH20 0xFFFFFFFFFFFFFFFFFFFFFFFFFFFFFFFFFFFFFFFF DUP3 AND SWAP1 POP SWAP2 SWAP1 POP JUMP JUMPDEST PUSH0 DUP2 SWAP1 POP SWAP2 SWAP1 POP JUMP JUMPDEST PUSH0 PUSH2 0x3D5 PUSH2 0x3D0 PUSH2 0x3CB DUP5 PUSH2 0x393 JUMP JUMPDEST PUSH2 0x3B2 JUMP JUMPDEST PUSH2 0x393 JUMP JUMPDEST SWAP1 POP SWAP2 SWAP1 POP JUMP JUMPDEST PUSH0 PUSH2 0x3E6 DUP3 PUSH2 0x3BB JUMP JUMPDEST SWAP1 POP SWAP2 SWAP1 POP JUMP JUMPDEST PUSH0 PUSH2 0x3F7 DUP3 PUSH2 0x3DC JUMP JUMPDEST SWAP1 POP SWAP2 SWAP1 POP JUMP JUMPDEST PUSH2 0x407 DUP2 PUSH2 0x3ED JUMP JUMPDEST DUP3 MSTORE POP POP JUMP JUMPDEST PUSH0 PUSH1 0x20 DUP3 ADD SWAP1 POP PUSH2 0x420 PUSH0 DUP4 ADD DUP5 PUSH2 0x3FE JUMP JUMPDEST SWAP3 SWAP2 POP POP JUMP JUMPDEST PUSH0 PUSH1 0x40 DUP3 ADD SWAP1 POP PUSH2 0x439 PUSH0 DUP4 ADD DUP6 PUSH2 0x356 JUMP JUMPDEST PUSH2 0x446 PUSH1 0x20 DUP4 ADD DUP5 PUSH2 0x356 JUMP JUMPDEST SWAP4 SWAP3 POP POP POP JUMP JUMPDEST PUSH0 DUP2 MLOAD SWAP1 POP PUSH2 0x45B DUP2 PUSH2 0x27E JUMP JUMPDEST SWAP3 SWAP2 POP POP JUMP JUMPDEST PUSH0 PUSH1 0x20 DUP3 DUP5 SUB SLT ISZERO PUSH2 0x476 JUMPI PUSH2 0x475 PUSH2 0x271 JUMP JUMPDEST JUMPDEST PUSH0 PUSH2 0x483 DUP5 DUP3 DUP6 ADD PUSH2 0x44D JUMP JUMPDEST SWAP2 POP POP SWAP3 SWAP2 POP POP JUMP JUMPDEST PUSH0 DUP2 PUSH1 0xE0 SHR SWAP1 POP SWAP2 SWAP1 POP JUMP JUMPDEST PUSH0 PUSH1 0x3 RETURNDATASIZE GT ISZERO PUSH2 0x4B4 JUMPI PUSH1 0x4 PUSH0 DUP1 RETURNDATACOPY PUSH2 0x4B1 PUSH0 MLOAD PUSH2 0x48C JUMP JUMPDEST SWAP1 POP JUMPDEST SWAP1 JUMP JUMPDEST PUSH32 0x4E487B7100000000000000000000000000000000000000000000000000000000 PUSH0 MSTORE PUSH1 0x41 PUSH1 0x4 MSTORE PUSH1 0x24 PUSH0 REVERT JUMPDEST PUSH2 0x4ED DUP3 PUSH2 0x30E JUMP JUMPDEST DUP2 ADD DUP2 DUP2 LT PUSH8 0xFFFFFFFFFFFFFFFF DUP3 GT OR ISZERO PUSH2 0x50C JUMPI PUSH2 0x50B PUSH2 0x4B7 JUMP JUMPDEST JUMPDEST DUP1 PUSH1 0x40 MSTORE POP POP POP JUMP JUMPDEST PUSH0 PUSH1 0x44 RETURNDATASIZE LT PUSH2 0x5A1 JUMPI PUSH2 0x526 PUSH2 0x268 JUMP JUMPDEST PUSH1 0x4 RETURNDATASIZE SUB PUSH1 0x4 DUP3 RETURNDATACOPY DUP1 MLOAD RETURNDATASIZE PUSH1 0x24 DUP3 ADD GT PUSH8 0xFFFFFFFFFFFFFFFF DUP3 GT OR ISZERO PUSH2 0x54E JUMPI POP POP PUSH2 0x5A1 JUMP JUMPDEST DUP1 DUP3 ADD DUP1 MLOAD PUSH8 0xFFFFFFFFFFFFFFFF DUP2 GT ISZERO PUSH2 0x56C JUMPI POP POP POP POP PUSH2 0x5A1 JUMP JUMPDEST DUP1 PUSH1 0x20 DUP4 ADD ADD PUSH1 0x4 RETURNDATASIZE SUB DUP6 ADD DUP2 GT ISZERO PUSH2 0x589 JUMPI POP POP POP POP POP PUSH2 0x5A1 JUMP JUMPDEST PUSH2 0x598 DUP3 PUSH1 0x20 ADD DUP6 ADD DUP7 PUSH2 0x4E4 JUMP JUMPDEST DUP3 SWAP6 POP POP POP POP POP POP JUMPDEST SWAP1 JUMP INVALID LOG2 PUSH5 0x6970667358 0x22 SLT KECCAK256 SAR 0xD3 POP MSTORE 0xBE 0x27 0xB4 0xBE 0xEE 0xB8 0xB1 ADDMOD PUSH32 0x801A2EB1FE72B7B6F0FFCED3916A524E8F264B64736F6C634300081A00330000 "
		},
		"gasEstimates": {
			"creation": {
				"codeDepositCost": "299600",
				"executionCost": "infinite",
				"totalCost": "infinite"
			},
			"external": {
				"safeDivide(uint256,uint256)": "infinite",
				"target()": "infinite"
			}
		},
		"methodIdentifiers": {
			"safeDivide(uint256,uint256)": "a256e702",
			"target()": "d4b83992"
		}
	},
	"abi": [
		{
			"inputs": [
				{
					"internalType": "address",
					"name": "_target",
					"type": "address"
				}
			],
			"stateMutability": "nonpayable",
			"type": "constructor"
		},
		{
			"inputs": [
				{
					"internalType": "uint256",
					"name": "a",
					"type": "uint256"
				},
				{
					"internalType": "uint256",
					"name": "b",
					"type": "uint256"
				}
			],
			"name": "safeDivide",
			"outputs": [
				{
					"internalType": "string",
					"name": "",
					"type": "string"
				},
				{
					"internalType": "uint256",
					"name": "",
					"type": "uint256"
				}
			],
			"stateMutability": "view",
			"type": "function"
		},
		{
			"inputs": [],
			"name": "target",
			"outputs": [
				{
					"internalType": "contract TargetContract",
					"name": "",
					"type": "address"
				}
			],
			"stateMutability": "view",
			"type": "function"
		}
	]
}