{
	"data": {
		"bytecode": {
			"linkReferences": {},
			"object": "60806040527fffffffffffffffffffffffffffffffffffffffffffffffffffffffffffffffff5f806101000a81548160ff02191690835f0b60ff16021790555060025f60016101000a81548161ffff021916908360010b61ffff160217905550600a5f60036101000a81548163ffffffff021916908363ffffffff16021790555060105f60076101000a81548160ff021916908360ff16021790555034801560a5575f80fd5b506105c7806100b35f395ff3fe608060405234801561000f575f80fd5b5060043610610085575f3560e01c8063771602f711610059578063771602f714610113578063b41cd3c814610143578063b68af89b14610161578063f88e9fbf1461019157610085565b806235921a146100895780636c1f222f146100a75780636f52cd7a146100c557806372a099b7146100f5575b5f80fd5b6100916101c1565b60405161009e919061029a565b60405180910390f35b6100af6101df565b6040516100bc919061029a565b60405180910390f35b6100df60048036038101906100da919061031d565b6101ff565b6040516100ec919061036a565b60405180910390f35b6100fd61020c565b60405161010a919061029a565b60405180910390f35b61012d60048036038101906101289190610383565b61022a565b60405161013a91906103d0565b60405180910390f35b61014b61023f565b60405161015891906103d0565b60405180910390f35b61017b6004803603810190610176919061031d565b61025d565b604051610188919061036a565b60405180910390f35b6101ab60048036038101906101a69190610383565b61026a565b6040516101b891906103d0565b60405180910390f35b5f80608090505f6002826101d59190610416565b9050809250505090565b5f8060f090505f601090505f81836101f79190610452565b905050505090565b5f8183901b905092915050565b5f80600190505f6002826102209190610486565b9050809250505090565b5f818361023791906104ba565b905092915050565b5f80600190505f81610250906104ed565b9150819050809250505090565b5f8183901d905092915050565b5f81836102779190610561565b905092915050565b5f60ff82169050919050565b6102948161027f565b82525050565b5f6020820190506102ad5f83018461028b565b92915050565b5f80fd5b5f819050919050565b6102c9816102b7565b81146102d3575f80fd5b50565b5f813590506102e4816102c0565b92915050565b5f819050919050565b6102fc816102ea565b8114610306575f80fd5b50565b5f81359050610317816102f3565b92915050565b5f8060408385031215610333576103326102b3565b5b5f610340858286016102d6565b925050602061035185828601610309565b9150509250929050565b610364816102b7565b82525050565b5f60208201905061037d5f83018461035b565b92915050565b5f8060408385031215610399576103986102b3565b5b5f6103a685828601610309565b92505060206103b785828601610309565b9150509250929050565b6103ca816102ea565b82525050565b5f6020820190506103e35f8301846103c1565b92915050565b7f4e487b71000000000000000000000000000000000000000000000000000000005f52601160045260245ffd5b5f6104208261027f565b915061042b8361027f565b92508282026104398161027f565b915080821461044b5761044a6103e9565b5b5092915050565b5f61045c8261027f565b91506104678361027f565b9250828201905060ff8111156104805761047f6103e9565b5b92915050565b5f6104908261027f565b915061049b8361027f565b9250828203905060ff8111156104b4576104b36103e9565b5b92915050565b5f6104c4826102ea565b91506104cf836102ea565b92508282019050808211156104e7576104e66103e9565b5b92915050565b5f6104f7826102ea565b91507fffffffffffffffffffffffffffffffffffffffffffffffffffffffffffffffff8203610529576105286103e9565b5b600182019050919050565b7f4e487b71000000000000000000000000000000000000000000000000000000005f52601260045260245ffd5b5f61056b826102ea565b9150610576836102ea565b92508261058657610585610534565b5b82820490509291505056fea264697066735822122050866bddf306e9d7e0dc3fa1f48e88ef15f8ef0e93c1aed386c063d7b8afa80264736f6c634300081a0033",
			"opcodes": "PUSH1 0x80 PUSH1 0x40 MSTORE PUSH32 0xFFFFFFFFFFFFFFFFFFFFFFFFFFFFFFFFFFFFFFFFFFFFFFFFFFFFFFFFFFFFFFFF PUSH0 DUP1 PUSH2 0x100 EXP DUP2 SLOAD DUP2 PUSH1 0xFF MUL NOT AND SWAP1 DUP4 PUSH0 SIGNEXTEND PUSH1 0xFF AND MUL OR SWAP1 SSTORE POP PUSH1 0x2 PUSH0 PUSH1 0x1 PUSH2 0x100 EXP DUP2 SLOAD DUP2 PUSH2 0xFFFF MUL NOT AND SWAP1 DUP4 PUSH1 0x1 SIGNEXTEND PUSH2 0xFFFF AND MUL OR SWAP1 SSTORE POP PUSH1 0xA PUSH0 PUSH1 0x3 PUSH2 0x100 EXP DUP2 SLOAD DUP2 PUSH4 0xFFFFFFFF MUL NOT AND SWAP1 DUP4 PUSH4 0xFFFFFFFF AND MUL OR SWAP1 SSTORE POP PUSH1 0x10 PUSH0 PUSH1 0x7 PUSH2 0x100 EXP DUP2 SLOAD DUP2 PUSH1 0xFF MUL NOT AND SWAP1 DUP4 PUSH1 0xFF AND MUL OR SWAP1 SSTORE POP CALLVALUE DUP1 ISZERO PUSH1 0xA5 JUMPI PUSH0 DUP1 REVERT JUMPDEST POP PUSH2 0x5C7 DUP1 PUSH2 0xB3 PUSH0 CODECOPY PUSH0 RETURN INVALID PUSH1 0x80 PUSH1 0x40 MSTORE CALLVALUE DUP1 ISZERO PUSH2 0xF JUMPI PUSH0 DUP1 REVERT JUMPDEST POP PUSH1 0x4 CALLDATASIZE LT PUSH2 0x85 JUMPI PUSH0 CALLDATALOAD PUSH1 0xE0 SHR DUP1 PUSH4 0x771602F7 GT PUSH2 0x59 JUMPI DUP1 PUSH4 0x771602F7 EQ PUSH2 0x113 JUMPI DUP1 PUSH4 0xB41CD3C8 EQ PUSH2 0x143 JUMPI DUP1 PUSH4 0xB68AF89B EQ PUSH2 0x161 JUMPI DUP1 PUSH4 0xF88E9FBF EQ PUSH2 0x191 JUMPI PUSH2 0x85 JUMP JUMPDEST DUP1 PUSH3 0x35921A EQ PUSH2 0x89 JUMPI DUP1 PUSH4 0x6C1F222F EQ PUSH2 0xA7 JUMPI DUP1 PUSH4 0x6F52CD7A EQ PUSH2 0xC5 JUMPI DUP1 PUSH4 0x72A099B7 EQ PUSH2 0xF5 JUMPI JUMPDEST PUSH0 DUP1 REVERT JUMPDEST PUSH2 0x91 PUSH2 0x1C1 JUMP JUMPDEST PUSH1 0x40 MLOAD PUSH2 0x9E SWAP2 SWAP1 PUSH2 0x29A JUMP JUMPDEST PUSH1 0x40 MLOAD DUP1 SWAP2 SUB SWAP1 RETURN JUMPDEST PUSH2 0xAF PUSH2 0x1DF JUMP JUMPDEST PUSH1 0x40 MLOAD PUSH2 0xBC SWAP2 SWAP1 PUSH2 0x29A JUMP JUMPDEST PUSH1 0x40 MLOAD DUP1 SWAP2 SUB SWAP1 RETURN JUMPDEST PUSH2 0xDF PUSH1 0x4 DUP1 CALLDATASIZE SUB DUP2 ADD SWAP1 PUSH2 0xDA SWAP2 SWAP1 PUSH2 0x31D JUMP JUMPDEST PUSH2 0x1FF JUMP JUMPDEST PUSH1 0x40 MLOAD PUSH2 0xEC SWAP2 SWAP1 PUSH2 0x36A JUMP JUMPDEST PUSH1 0x40 MLOAD DUP1 SWAP2 SUB SWAP1 RETURN JUMPDEST PUSH2 0xFD PUSH2 0x20C JUMP JUMPDEST PUSH1 0x40 MLOAD PUSH2 0x10A SWAP2 SWAP1 PUSH2 0x29A JUMP JUMPDEST PUSH1 0x40 MLOAD DUP1 SWAP2 SUB SWAP1 RETURN JUMPDEST PUSH2 0x12D PUSH1 0x4 DUP1 CALLDATASIZE SUB DUP2 ADD SWAP1 PUSH2 0x128 SWAP2 SWAP1 PUSH2 0x383 JUMP JUMPDEST PUSH2 0x22A JUMP JUMPDEST PUSH1 0x40 MLOAD PUSH2 0x13A SWAP2 SWAP1 PUSH2 0x3D0 JUMP JUMPDEST PUSH1 0x40 MLOAD DUP1 SWAP2 SUB SWAP1 RETURN JUMPDEST PUSH2 0x14B PUSH2 0x23F JUMP JUMPDEST PUSH1 0x40 MLOAD PUSH2 0x158 SWAP2 SWAP1 PUSH2 0x3D0 JUMP JUMPDEST PUSH1 0x40 MLOAD DUP1 SWAP2 SUB SWAP1 RETURN JUMPDEST PUSH2 0x17B PUSH1 0x4 DUP1 CALLDATASIZE SUB DUP2 ADD SWAP1 PUSH2 0x176 SWAP2 SWAP1 PUSH2 0x31D JUMP JUMPDEST PUSH2 0x25D JUMP JUMPDEST PUSH1 0x40 MLOAD PUSH2 0x188 SWAP2 SWAP1 PUSH2 0x36A JUMP JUMPDEST PUSH1 0x40 MLOAD DUP1 SWAP2 SUB SWAP1 RETURN JUMPDEST PUSH2 0x1AB PUSH1 0x4 DUP1 CALLDATASIZE SUB DUP2 ADD SWAP1 PUSH2 0x1A6 SWAP2 SWAP1 PUSH2 0x383 JUMP JUMPDEST PUSH2 0x26A JUMP JUMPDEST PUSH1 0x40 MLOAD PUSH2 0x1B8 SWAP2 SWAP1 PUSH2 0x3D0 JUMP JUMPDEST PUSH1 0x40 MLOAD DUP1 SWAP2 SUB SWAP1 RETURN JUMPDEST PUSH0 DUP1 PUSH1 0x80 SWAP1 POP PUSH0 PUSH1 0x2 DUP3 PUSH2 0x1D5 SWAP2 SWAP1 PUSH2 0x416 JUMP JUMPDEST SWAP1 POP DUP1 SWAP3 POP POP POP SWAP1 JUMP JUMPDEST PUSH0 DUP1 PUSH1 0xF0 SWAP1 POP PUSH0 PUSH1 0x10 SWAP1 POP PUSH0 DUP2 DUP4 PUSH2 0x1F7 SWAP2 SWAP1 PUSH2 0x452 JUMP JUMPDEST SWAP1 POP POP POP POP SWAP1 JUMP JUMPDEST PUSH0 DUP2 DUP4 SWAP1 SHL SWAP1 POP SWAP3 SWAP2 POP POP JUMP JUMPDEST PUSH0 DUP1 PUSH1 0x1 SWAP1 POP PUSH0 PUSH1 0x2 DUP3 PUSH2 0x220 SWAP2 SWAP1 PUSH2 0x486 JUMP JUMPDEST SWAP1 POP DUP1 SWAP3 POP POP POP SWAP1 JUMP JUMPDEST PUSH0 DUP2 DUP4 PUSH2 0x237 SWAP2 SWAP1 PUSH2 0x4BA JUMP JUMPDEST SWAP1 POP SWAP3 SWAP2 POP POP JUMP JUMPDEST PUSH0 DUP1 PUSH1 0x1 SWAP1 POP PUSH0 DUP2 PUSH2 0x250 SWAP1 PUSH2 0x4ED JUMP JUMPDEST SWAP2 POP DUP2 SWAP1 POP DUP1 SWAP3 POP POP POP SWAP1 JUMP JUMPDEST PUSH0 DUP2 DUP4 SWAP1 SAR SWAP1 POP SWAP3 SWAP2 POP POP JUMP JUMPDEST PUSH0 DUP2 DUP4 PUSH2 0x277 SWAP2 SWAP1 PUSH2 0x561 JUMP JUMPDEST SWAP1 POP SWAP3 SWAP2 POP POP JUMP JUMPDEST PUSH0 PUSH1 0xFF DUP3 AND SWAP1 POP SWAP2 SWAP1 POP JUMP JUMPDEST PUSH2 0x294 DUP2 PUSH2 0x27F JUMP JUMPDEST DUP3 MSTORE POP POP JUMP JUMPDEST PUSH0 PUSH1 0x20 DUP3 ADD SWAP1 POP PUSH2 0x2AD PUSH0 DUP4 ADD DUP5 PUSH2 0x28B JUMP JUMPDEST SWAP3 SWAP2 POP POP JUMP JUMPDEST PUSH0 DUP1 REVERT JUMPDEST PUSH0 DUP2 SWAP1 POP SWAP2 SWAP1 POP JUMP JUMPDEST PUSH2 0x2C9 DUP2 PUSH2 0x2B7 JUMP JUMPDEST DUP2 EQ PUSH2 0x2D3 JUMPI PUSH0 DUP1 REVERT JUMPDEST POP JUMP JUMPDEST PUSH0 DUP2 CALLDATALOAD SWAP1 POP PUSH2 0x2E4 DUP2 PUSH2 0x2C0 JUMP JUMPDEST SWAP3 SWAP2 POP POP JUMP JUMPDEST PUSH0 DUP2 SWAP1 POP SWAP2 SWAP1 POP JUMP JUMPDEST PUSH2 0x2FC DUP2 PUSH2 0x2EA JUMP JUMPDEST DUP2 EQ PUSH2 0x306 JUMPI PUSH0 DUP1 REVERT JUMPDEST POP JUMP JUMPDEST PUSH0 DUP2 CALLDATALOAD SWAP1 POP PUSH2 0x317 DUP2 PUSH2 0x2F3 JUMP JUMPDEST SWAP3 SWAP2 POP POP JUMP JUMPDEST PUSH0 DUP1 PUSH1 0x40 DUP4 DUP6 SUB SLT ISZERO PUSH2 0x333 JUMPI PUSH2 0x332 PUSH2 0x2B3 JUMP JUMPDEST JUMPDEST PUSH0 PUSH2 0x340 DUP6 DUP3 DUP7 ADD PUSH2 0x2D6 JUMP JUMPDEST SWAP3 POP POP PUSH1 0x20 PUSH2 0x351 DUP6 DUP3 DUP7 ADD PUSH2 0x309 JUMP JUMPDEST SWAP2 POP POP SWAP3 POP SWAP3 SWAP1 POP JUMP JUMPDEST PUSH2 0x364 DUP2 PUSH2 0x2B7 JUMP JUMPDEST DUP3 MSTORE POP POP JUMP JUMPDEST PUSH0 PUSH1 0x20 DUP3 ADD SWAP1 POP PUSH2 0x37D PUSH0 DUP4 ADD DUP5 PUSH2 0x35B JUMP JUMPDEST SWAP3 SWAP2 POP POP JUMP JUMPDEST PUSH0 DUP1 PUSH1 0x40 DUP4 DUP6 SUB SLT ISZERO PUSH2 0x399 JUMPI PUSH2 0x398 PUSH2 0x2B3 JUMP JUMPDEST JUMPDEST PUSH0 PUSH2 0x3A6 DUP6 DUP3 DUP7 ADD PUSH2 0x309 JUMP JUMPDEST SWAP3 POP POP PUSH1 0x20 PUSH2 0x3B7 DUP6 DUP3 DUP7 ADD PUSH2 0x309 JUMP JUMPDEST SWAP2 POP POP SWAP3 POP SWAP3 SWAP1 POP JUMP JUMPDEST PUSH2 0x3CA DUP2 PUSH2 0x2EA JUMP JUMPDEST DUP3 MSTORE POP POP JUMP JUMPDEST PUSH0 PUSH1 0x20 DUP3 ADD SWAP1 POP PUSH2 0x3E3 PUSH0 DUP4 ADD DUP5 PUSH2 0x3C1 JUMP JUMPDEST SWAP3 SWAP2 POP POP JUMP JUMPDEST PUSH32 0x4E487B7100000000000000000000000000000000000000000000000000000000 PUSH0 MSTORE PUSH1 0x11 PUSH1 0x4 MSTORE PUSH1 0x24 PUSH0 REVERT JUMPDEST PUSH0 PUSH2 0x420 DUP3 PUSH2 0x27F JUMP JUMPDEST SWAP2 POP PUSH2 0x42B DUP4 PUSH2 0x27F JUMP JUMPDEST SWAP3 POP DUP3 DUP3 MUL PUSH2 0x439 DUP2 PUSH2 0x27F JUMP JUMPDEST SWAP2 POP DUP1 DUP3 EQ PUSH2 0x44B JUMPI PUSH2 0x44A PUSH2 0x3E9 JUMP JUMPDEST JUMPDEST POP SWAP3 SWAP2 POP POP JUMP JUMPDEST PUSH0 PUSH2 0x45C DUP3 PUSH2 0x27F JUMP JUMPDEST SWAP2 POP PUSH2 0x467 DUP4 PUSH2 0x27F JUMP JUMPDEST SWAP3 POP DUP3 DUP3 ADD SWAP1 POP PUSH1 0xFF DUP2 GT ISZERO PUSH2 0x480 JUMPI PUSH2 0x47F PUSH2 0x3E9 JUMP JUMPDEST JUMPDEST SWAP3 SWAP2 POP POP JUMP JUMPDEST PUSH0 PUSH2 0x490 DUP3 PUSH2 0x27F JUMP JUMPDEST SWAP2 POP PUSH2 0x49B DUP4 PUSH2 0x27F JUMP JUMPDEST SWAP3 POP DUP3 DUP3 SUB SWAP1 POP PUSH1 0xFF DUP2 GT ISZERO PUSH2 0x4B4 JUMPI PUSH2 0x4B3 PUSH2 0x3E9 JUMP JUMPDEST JUMPDEST SWAP3 SWAP2 POP POP JUMP JUMPDEST PUSH0 PUSH2 0x4C4 DUP3 PUSH2 0x2EA JUMP JUMPDEST SWAP2 POP PUSH2 0x4CF DUP4 PUSH2 0x2EA JUMP JUMPDEST SWAP3 POP DUP3 DUP3 ADD SWAP1 POP DUP1 DUP3 GT ISZERO PUSH2 0x4E7 JUMPI PUSH2 0x4E6 PUSH2 0x3E9 JUMP JUMPDEST JUMPDEST SWAP3 SWAP2 POP POP JUMP JUMPDEST PUSH0 PUSH2 0x4F7 DUP3 PUSH2 0x2EA JUMP JUMPDEST SWAP2 POP PUSH32 0xFFFFFFFFFFFFFFFFFFFFFFFFFFFFFFFFFFFFFFFFFFFFFFFFFFFFFFFFFFFFFFFF DUP3 SUB PUSH2 0x529 JUMPI PUSH2 0x528 PUSH2 0x3E9 JUMP JUMPDEST JUMPDEST PUSH1 0x1 DUP3 ADD SWAP1 POP SWAP2 SWAP1 POP JUMP JUMPDEST PUSH32 0x4E487B7100000000000000000000000000000000000000000000000000000000 PUSH0 MSTORE PUSH1 0x12 PUSH1 0x4 MSTORE PUSH1 0x24 PUSH0 REVERT JUMPDEST PUSH0 PUSH2 0x56B DUP3 PUSH2 0x2EA JUMP JUMPDEST SWAP2 POP PUSH2 0x576 DUP4 PUSH2 0x2EA JUMP JUMPDEST SWAP3 POP DUP3 PUSH2 0x586 JUMPI PUSH2 0x585 PUSH2 0x534 JUMP JUMPDEST JUMPDEST DUP3 DUP3 DIV SWAP1 POP SWAP3 SWAP2 POP POP JUMP INVALID LOG2 PUSH5 0x6970667358 0x22 SLT KECCAK256 POP DUP7 PUSH12 0xDDF306E9D7E0DC3FA1F48E88 0xEF ISZERO 0xF8 0xEF 0xE SWAP4 0xC1 0xAE 0xD3 DUP7 0xC0 PUSH4 0xD7B8AFA8 MUL PUSH5 0x736F6C6343 STOP ADDMOD BYTE STOP CALLER "
		},
		"gasEstimates": {
			"creation": {
				"codeDepositCost": "295800",
				"executionCost": "97564",
				"totalCost": "393364"
			},
			"external": {
				"add(uint256,uint256)": "infinite",
				"add1()": "infinite",
				"add2()": "infinite",
				"divide(uint256,uint256)": "infinite",
				"leftshift(int256,uint256)": "infinite",
				"rightshift(int256,uint256)": "infinite",
				"sub1()": "infinite",
				"testPlusPlus()": "infinite"
			}
		},
		"methodIdentifiers": {
			"add(uint256,uint256)": "771602f7",
			"add1()": "0035921a",
			"add2()": "6c1f222f",
			"divide(uint256,uint256)": "f88e9fbf",
			"leftshift(int256,uint256)": "6f52cd7a",
			"rightshift(int256,uint256)": "b68af89b",
			"sub1()": "72a099b7",
			"testPlusPlus()": "b41cd3c8"
		}
	},
	"abi": [
		{
			"inputs": [
				{
					"internalType": "uint256",
					"name": "x",
					"type": "uint256"
				},
				{
					"internalType": "uint256",
					"name": "y",
					"type": "uint256"
				}
			],
			"name": "add",
			"outputs": [
				{
					"internalType": "uint256",
					"name": "z",
					"type": "uint256"
				}
			],
			"stateMutability": "pure",
			"type": "function"
		},
		{
			"inputs": [],
			"name": "add1",
			"outputs": [
				{
					"internalType": "uint8",
					"name": "",
					"type": "uint8"
				}
			],
			"stateMutability": "pure",
			"type": "function"
		},
		{
			"inputs": [],
			"name": "add2",
			"outputs": [
				{
					"internalType": "uint8",
					"name": "",
					"type": "uint8"
				}
			],
			"stateMutability": "pure",
			"type": "function"
		},
		{
			"inputs": [
				{
					"internalType": "uint256",
					"name": "x",
					"type": "uint256"
				},
				{
					"internalType": "uint256",
					"name": "y",
					"type": "uint256"
				}
			],
			"name": "divide",
			"outputs": [
				{
					"internalType": "uint256",
					"name": "z",
					"type": "uint256"
				}
			],
			"stateMutability": "pure",
			"type": "function"
		},
		{
			"inputs": [
				{
					"internalType": "int256",
					"name": "x",
					"type": "int256"
				},
				{
					"internalType": "uint256",
					"name": "y",
					"type": "uint256"
				}
			],
			"name": "leftshift",
			"outputs": [
				{
					"internalType": "int256",
					"name": "z",
					"type": "int256"
				}
			],
			"stateMutability": "pure",
			"type": "function"
		},
		{
			"inputs": [
				{
					"internalType": "int256",
					"name": "x",
					"type": "int256"
				},
				{
					"internalType": "uint256",
					"name": "y",
					"type": "uint256"
				}
			],
			"name": "rightshift",
			"outputs": [
				{
					"internalType": "int256",
					"name": "z",
					"type": "int256"
				}
			],
			"stateMutability": "pure",
			"type": "function"
		},
		{
			"inputs": [],
			"name": "sub1",
			"outputs": [
				{
					"internalType": "uint8",
					"name": "",
					"type": "uint8"
				}
			],
			"stateMutability": "pure",
			"type": "function"
		},
		{
			"inputs": [],
			"name": "testPlusPlus",
			"outputs": [
				{
					"internalType": "uint256",
					"name": "",
					"type": "uint256"
				}
			],
			"stateMutability": "pure",
			"type": "function"
		}
	]
}